{"contracts/EAvatar.sol":{"EAvatar":{"abi":[{"inputs":[{"internalType":"address","name":"bond_issuer","type":"address"}],"stateMutability":"nonpayable","type":"constructor"},{"anonymous":false,"inputs":[{"indexed":true,"internalType":"address","name":"owner","type":"address"},{"indexed":true,"internalType":"address","name":"approved","type":"address"},{"indexed":true,"internalType":"uint256","name":"tokenId","type":"uint256"}],"name":"Approval","type":"event"},{"anonymous":false,"inputs":[{"indexed":true,"internalType":"address","name":"owner","type":"address"},{"indexed":true,"internalType":"address","name":"operator","type":"address"},{"indexed":false,"internalType":"bool","name":"approved","type":"bool"}],"name":"ApprovalForAll","type":"event"},{"anonymous":false,"inputs":[{"indexed":false,"internalType":"uint256","name":"_fromTokenId","type":"uint256"},{"indexed":false,"internalType":"uint256","name":"_toTokenId","type":"uint256"}],"name":"BatchMetadataUpdate","type":"event"},{"anonymous":false,"inputs":[{"indexed":false,"internalType":"uint256","name":"_tokenId","type":"uint256"}],"name":"MetadataUpdate","type":"event"},{"anonymous":false,"inputs":[{"indexed":false,"internalType":"address","name":"from","type":"address"},{"indexed":false,"internalType":"address","name":"to","type":"address"},{"indexed":false,"internalType":"uint256","name":"_amount","type":"uint256"}],"name":"NftBought","type":"event"},{"anonymous":false,"inputs":[{"indexed":true,"internalType":"address","name":"previousOwner","type":"address"},{"indexed":true,"internalType":"address","name":"newOwner","type":"address"}],"name":"OwnershipTransferred","type":"event"},{"anonymous":false,"inputs":[{"indexed":true,"internalType":"address","name":"from","type":"address"},{"indexed":true,"internalType":"address","name":"to","type":"address"},{"indexed":true,"internalType":"uint256","name":"tokenId","type":"uint256"}],"name":"Transfer","type":"event"},{"anonymous":false,"inputs":[{"indexed":false,"internalType":"uint256","name":"tokenId","type":"uint256"},{"indexed":false,"internalType":"address","name":"owner","type":"address"},{"indexed":false,"internalType":"uint256","name":"price","type":"uint256"}],"name":"nftItemCreated","type":"event"},{"inputs":[{"internalType":"address","name":"to","type":"address"},{"internalType":"uint256","name":"tokenId","type":"uint256"}],"name":"approve","outputs":[],"stateMutability":"nonpayable","type":"function"},{"inputs":[],"name":"availableNFTs","outputs":[{"internalType":"bool","name":"ans","type":"bool"}],"stateMutability":"view","type":"function"},{"inputs":[{"internalType":"address","name":"owner","type":"address"}],"name":"balanceOf","outputs":[{"internalType":"uint256","name":"","type":"uint256"}],"stateMutability":"view","type":"function"},{"inputs":[],"name":"bondMatureAmount","outputs":[{"internalType":"uint256","name":"amount","type":"uint256"}],"stateMutability":"view","type":"function"},{"inputs":[{"internalType":"address payable","name":"from","type":"address"},{"internalType":"address payable","name":"to","type":"address"},{"internalType":"uint256","name":"_amount","type":"uint256"},{"internalType":"uint256","name":"tokenId","type":"uint256"}],"name":"buyNFT","outputs":[],"stateMutability":"payable","type":"function"},{"inputs":[],"name":"calculateAccruedInterest","outputs":[{"internalType":"uint256","name":"","type":"uint256"}],"stateMutability":"view","type":"function"},{"inputs":[{"internalType":"uint256","name":"tokenId","type":"uint256"},{"internalType":"address","name":"owner","type":"address"},{"internalType":"string","name":"name","type":"string"}],"name":"changeCharacterName","outputs":[],"stateMutability":"view","type":"function"},{"inputs":[{"internalType":"uint256","name":"tokenId","type":"uint256"}],"name":"getApproved","outputs":[{"internalType":"address","name":"","type":"address"}],"stateMutability":"view","type":"function"},{"inputs":[],"name":"getBaseURI","outputs":[{"internalType":"string","name":"","type":"string"}],"stateMutability":"view","type":"function"},{"inputs":[],"name":"getBondInfo","outputs":[{"components":[{"internalType":"address","name":"bondIssuer","type":"address"},{"internalType":"string","name":"bondName","type":"string"},{"internalType":"uint256","name":"issueDate","type":"uint256"},{"internalType":"uint256","name":"maturityDate","type":"uint256"},{"internalType":"uint256","name":"interestPaymentPercent","type":"uint256"},{"internalType":"uint256","name":"periodOfPayment","type":"uint256"},{"internalType":"uint256","name":"faceValue","type":"uint256"},{"internalType":"uint256","name":"shift","type":"uint256"},{"internalType":"uint256","name":"supply","type":"uint256"}],"internalType":"struct EAvatar.EBond","name":"bond","type":"tuple"}],"stateMutability":"view","type":"function"},{"inputs":[],"name":"getCharURI","outputs":[{"internalType":"string","name":"","type":"string"}],"stateMutability":"view","type":"function"},{"inputs":[],"name":"getIssuer","outputs":[{"internalType":"address","name":"issuer","type":"address"}],"stateMutability":"view","type":"function"},{"inputs":[{"internalType":"uint256","name":"tokenId","type":"uint256"}],"name":"getMetadata","outputs":[{"components":[{"internalType":"uint256","name":"tokenId","type":"uint256"},{"internalType":"uint256","name":"mintedAt","type":"uint256"},{"internalType":"uint256","name":"listing_price","type":"uint256"},{"components":[{"internalType":"string","name":"name","type":"string"},{"internalType":"string","name":"characterURI","type":"string"},{"internalType":"uint8","name":"hp","type":"uint8"},{"internalType":"uint8","name":"ap","type":"uint8"},{"internalType":"uint8","name":"level","type":"uint8"}],"internalType":"struct EAvatar.AvatarChar","name":"character","type":"tuple"},{"internalType":"address","name":"ownerId","type":"address"}],"internalType":"struct EAvatar.EMetadata","name":"item","type":"tuple"}],"stateMutability":"view","type":"function"},{"inputs":[],"name":"interestPaymentAmount","outputs":[{"internalType":"uint256","name":"amount","type":"uint256"}],"stateMutability":"view","type":"function"},{"inputs":[{"internalType":"address","name":"owner","type":"address"},{"internalType":"address","name":"operator","type":"address"}],"name":"isApprovedForAll","outputs":[{"internalType":"bool","name":"","type":"bool"}],"stateMutability":"view","type":"function"},{"inputs":[],"name":"isBondMatured","outputs":[{"internalType":"bool","name":"","type":"bool"}],"stateMutability":"view","type":"function"},{"inputs":[],"name":"isInterestTime","outputs":[{"internalType":"bool","name":"","type":"bool"}],"stateMutability":"view","type":"function"},{"inputs":[],"name":"matureCharacters","outputs":[],"stateMutability":"nonpayable","type":"function"},{"inputs":[{"internalType":"address","name":"recipient","type":"address"},{"internalType":"uint256","name":"price","type":"uint256"}],"name":"mintNFT","outputs":[{"internalType":"uint256","name":"","type":"uint256"}],"stateMutability":"nonpayable","type":"function"},{"inputs":[],"name":"name","outputs":[{"internalType":"string","name":"","type":"string"}],"stateMutability":"view","type":"function"},{"inputs":[],"name":"owner","outputs":[{"internalType":"address","name":"","type":"address"}],"stateMutability":"view","type":"function"},{"inputs":[{"internalType":"address","name":"owner","type":"address"}],"name":"ownerCollection","outputs":[{"internalType":"uint256[]","name":"ids","type":"uint256[]"}],"stateMutability":"view","type":"function"},{"inputs":[{"internalType":"uint256","name":"tokenId","type":"uint256"}],"name":"ownerOf","outputs":[{"internalType":"address","name":"","type":"address"}],"stateMutability":"view","type":"function"},{"inputs":[],"name":"renounceOwnership","outputs":[],"stateMutability":"nonpayable","type":"function"},{"inputs":[{"internalType":"address","name":"from","type":"address"},{"internalType":"address","name":"to","type":"address"},{"internalType":"uint256","name":"tokenId","type":"uint256"}],"name":"safeTransferFrom","outputs":[],"stateMutability":"nonpayable","type":"function"},{"inputs":[{"internalType":"address","name":"from","type":"address"},{"internalType":"address","name":"to","type":"address"},{"internalType":"uint256","name":"tokenId","type":"uint256"},{"internalType":"bytes","name":"data","type":"bytes"}],"name":"safeTransferFrom","outputs":[],"stateMutability":"nonpayable","type":"function"},{"inputs":[{"internalType":"address","name":"operator","type":"address"},{"internalType":"bool","name":"approved","type":"bool"}],"name":"setApprovalForAll","outputs":[],"stateMutability":"nonpayable","type":"function"},{"inputs":[{"internalType":"string","name":"newURI","type":"string"}],"name":"setBaseURI","outputs":[],"stateMutability":"nonpayable","type":"function"},{"inputs":[{"internalType":"string","name":"newURI","type":"string"}],"name":"setCharURI","outputs":[],"stateMutability":"nonpayable","type":"function"},{"inputs":[{"internalType":"string","name":"newURI","type":"string"}],"name":"setInactiveBaseURI","outputs":[],"stateMutability":"nonpayable","type":"function"},{"inputs":[{"internalType":"string","name":"newURI","type":"string"}],"name":"setInactiveCharURI","outputs":[],"stateMutability":"nonpayable","type":"function"},{"inputs":[{"internalType":"bytes4","name":"interfaceId","type":"bytes4"}],"name":"supportsInterface","outputs":[{"internalType":"bool","name":"","type":"bool"}],"stateMutability":"view","type":"function"},{"inputs":[],"name":"symbol","outputs":[{"internalType":"string","name":"","type":"string"}],"stateMutability":"view","type":"function"},{"inputs":[{"internalType":"uint256","name":"tokenId","type":"uint256"}],"name":"tokenURI","outputs":[{"internalType":"string","name":"","type":"string"}],"stateMutability":"view","type":"function"},{"inputs":[{"internalType":"address","name":"from","type":"address"},{"internalType":"address","name":"to","type":"address"},{"internalType":"uint256","name":"tokenId","type":"uint256"}],"name":"transferFrom","outputs":[],"stateMutability":"nonpayable","type":"function"},{"inputs":[{"internalType":"address","name":"newOwner","type":"address"}],"name":"transferOwnership","outputs":[],"stateMutability":"nonpayable","type":"function"}],"evm":{"bytecode":{"linkReferences":{},"object":"60806040526040518060600160405280602e815260200162004e50602e9139601490816200002e919062000614565b5060405180602001604052806000815250601590816200004f919062000614565b506040518060600160405280602e815260200162004e22602e9139601690816200007a919062000614565b5060405180602001604052806000815250601790816200009b919062000614565b50348015620000a957600080fd5b5060405162004e7e38038062004e7e8339818101604052810190620000cf919062000765565b6040518060400160405280600781526020017f45417661746172000000000000000000000000000000000000000000000000008152506040518060400160405280600281526020017f454100000000000000000000000000000000000000000000000000000000000081525081600090816200014c919062000614565b5080600190816200015e919062000614565b5050506200018162000175620002cc60201b60201c565b620002d460201b60201c565b6040518061012001604052808273ffffffffffffffffffffffffffffffffffffffff1681526020016040518060400160405280600a81526020017f452d426f6e64204f6e65000000000000000000000000000000000000000000008152508152602001428152602001636e71188081526020016005815260200162f0c29f8152602001620186a08152602001600281526020016103e8815250600960008201518160000160006101000a81548173ffffffffffffffffffffffffffffffffffffffff021916908373ffffffffffffffffffffffffffffffffffffffff16021790555060208201518160010190816200027a919062000614565b5060408201518160020155606082015181600301556080820151816004015560a0820151816005015560c0820151816006015560e0820151816007015561010082015181600801559050505062000797565b600033905090565b6000600760009054906101000a900473ffffffffffffffffffffffffffffffffffffffff16905081600760006101000a81548173ffffffffffffffffffffffffffffffffffffffff021916908373ffffffffffffffffffffffffffffffffffffffff1602179055508173ffffffffffffffffffffffffffffffffffffffff168173ffffffffffffffffffffffffffffffffffffffff167f8be0079c531659141344cd1fd0a4f28419497f9722a3daafe3b4186f6b6457e060405160405180910390a35050565b600081519050919050565b7f4e487b7100000000000000000000000000000000000000000000000000000000600052604160045260246000fd5b7f4e487b7100000000000000000000000000000000000000000000000000000000600052602260045260246000fd5b600060028204905060018216806200041c57607f821691505b602082108103620004325762000431620003d4565b5b50919050565b60008190508160005260206000209050919050565b60006020601f8301049050919050565b600082821b905092915050565b6000600883026200049c7fffffffffffffffffffffffffffffffffffffffffffffffffffffffffffffffff826200045d565b620004a886836200045d565b95508019841693508086168417925050509392505050565b6000819050919050565b6000819050919050565b6000620004f5620004ef620004e984620004c0565b620004ca565b620004c0565b9050919050565b6000819050919050565b6200051183620004d4565b620005296200052082620004fc565b8484546200046a565b825550505050565b600090565b6200054062000531565b6200054d81848462000506565b505050565b5b8181101562000575576200056960008262000536565b60018101905062000553565b5050565b601f821115620005c4576200058e8162000438565b62000599846200044d565b81016020851015620005a9578190505b620005c1620005b8856200044d565b83018262000552565b50505b505050565b600082821c905092915050565b6000620005e960001984600802620005c9565b1980831691505092915050565b6000620006048383620005d6565b9150826002028217905092915050565b6200061f826200039a565b67ffffffffffffffff8111156200063b576200063a620003a5565b5b62000647825462000403565b6200065482828562000579565b600060209050601f8311600181146200068c576000841562000677578287015190505b620006838582620005f6565b865550620006f3565b601f1984166200069c8662000438565b60005b82811015620006c6578489015182556001820191506020850194506020810190506200069f565b86831015620006e65784890151620006e2601f891682620005d6565b8355505b6001600288020188555050505b505050505050565b600080fd5b600073ffffffffffffffffffffffffffffffffffffffff82169050919050565b60006200072d8262000700565b9050919050565b6200073f8162000720565b81146200074b57600080fd5b50565b6000815190506200075f8162000734565b92915050565b6000602082840312156200077e576200077d620006fb565b5b60006200078e848285016200074e565b91505092915050565b61467b80620007a76000396000f3fe60806040526004361061020f5760003560e01c8063714c539811610118578063a35e1370116100a0578063d5070b3e1161006f578063d5070b3e14610790578063e985e9c5146107bb578063ea317fff146107f8578063f164523814610823578063f2fde38b1461084c5761020f565b8063a35e1370146106c2578063a574cea4146106ed578063b88d4fde1461072a578063c87b56dd146107535761020f565b80638da5cb5b116100e75780638da5cb5b146105dd57806395d89b41146106085780639c50da7514610633578063a22cb46514610670578063a31b115f146106995761020f565b8063714c539814610559578063715018a614610584578063729a1a871461059b57806388456b7b146105c65761020f565b80632b8c41f41161019b57806342842e0e1161016a57806342842e0e14610462578063525564211461048b57806355f804b3146104b65780636352211e146104df57806370a082311461051c5761020f565b80632b8c41f4146103a657806337e08699146103cf5780633c168eab146103fa5780633fb3ff11146104375761020f565b80630816a3e2116101e25780630816a3e2146102c3578063081812fc146102ec578063095ea7b3146103295780631ed54e781461035257806323b872dd1461037d5761020f565b806301ffc9a71461021457806303c133801461025157806305f315721461026d57806306fdde0314610298575b600080fd5b34801561022057600080fd5b5061023b60048036038101906102369190612cd2565b610875565b6040516102489190612d1a565b60405180910390f35b61026b60048036038101906102669190612dc9565b6108d6565b005b34801561027957600080fd5b50610282610969565b60405161028f9190612d1a565b60405180910390f35b3480156102a457600080fd5b506102ad610979565b6040516102ba9190612ec0565b60405180910390f35b3480156102cf57600080fd5b506102ea60048036038101906102e59190613017565b610a0b565b005b3480156102f857600080fd5b50610313600480360381019061030e9190613060565b610a26565b60405161032091906130ae565b60405180910390f35b34801561033557600080fd5b50610350600480360381019061034b91906130f5565b610a6c565b005b34801561035e57600080fd5b50610367610b83565b6040516103749190613144565b60405180910390f35b34801561038957600080fd5b506103a4600480360381019061039f919061315f565b610bd2565b005b3480156103b257600080fd5b506103cd60048036038101906103c89190613017565b610c32565b005b3480156103db57600080fd5b506103e4610c4d565b6040516103f19190612d1a565b60405180910390f35b34801561040657600080fd5b50610421600480360381019061041c91906130f5565b610c77565b60405161042e9190613144565b60405180910390f35b34801561044357600080fd5b5061044c610d08565b6040516104599190613144565b60405180910390f35b34801561046e57600080fd5b506104896004803603810190610484919061315f565b610d6a565b005b34801561049757600080fd5b506104a0610d8a565b6040516104ad91906130ae565b60405180910390f35b3480156104c257600080fd5b506104dd60048036038101906104d89190613017565b610db7565b005b3480156104eb57600080fd5b5061050660048036038101906105019190613060565b610dd2565b60405161051391906130ae565b60405180910390f35b34801561052857600080fd5b50610543600480360381019061053e91906131b2565b610e58565b6040516105509190613144565b60405180910390f35b34801561056557600080fd5b5061056e610f0f565b60405161057b9190612ec0565b60405180910390f35b34801561059057600080fd5b50610599610fa1565b005b3480156105a757600080fd5b506105b0610fb5565b6040516105bd9190613144565b60405180910390f35b3480156105d257600080fd5b506105db610fc2565b005b3480156105e957600080fd5b506105f2611070565b6040516105ff91906130ae565b60405180910390f35b34801561061457600080fd5b5061061d61109a565b60405161062a9190612ec0565b60405180910390f35b34801561063f57600080fd5b5061065a600480360381019061065591906131b2565b61112c565b604051610667919061329d565b60405180910390f35b34801561067c57600080fd5b50610697600480360381019061069291906132eb565b6111c3565b005b3480156106a557600080fd5b506106c060048036038101906106bb9190613017565b6111d9565b005b3480156106ce57600080fd5b506106d76111f4565b6040516106e49190612ec0565b60405180910390f35b3480156106f957600080fd5b50610714600480360381019061070f9190613060565b611286565b6040516107219190613493565b60405180910390f35b34801561073657600080fd5b50610751600480360381019061074c9190613556565b6114b6565b005b34801561075f57600080fd5b5061077a60048036038101906107759190613060565b611518565b6040516107879190612ec0565b60405180910390f35b34801561079c57600080fd5b506107a561162a565b6040516107b2919061369e565b60405180910390f35b3480156107c757600080fd5b506107e260048036038101906107dd91906136c0565b611773565b6040516107ef9190612d1a565b60405180910390f35b34801561080457600080fd5b5061080d611807565b60405161081a9190612d1a565b60405180910390f35b34801561082f57600080fd5b5061084a60048036038101906108459190613700565b611816565b005b34801561085857600080fd5b50610873600480360381019061086e91906131b2565b611876565b005b6000634906490660e01b7bffffffffffffffffffffffffffffffffffffffffffffffffffffffff1916827bffffffffffffffffffffffffffffffffffffffffffffffffffffffff191614806108cf57506108ce826118f9565b5b9050919050565b6108e1848483610d6a565b8273ffffffffffffffffffffffffffffffffffffffff166108fc839081150290604051600060405180830381858888f19350505050158015610927573d6000803e3d6000fd5b507f608f6ac9327c2bf4d3c77adf447d2c448ba7b0971e0aaa9aa03f7ac29d874a4484333460405161095b939291906137ce565b60405180910390a150505050565b6000600960030154421015905090565b60606000805461098890613834565b80601f01602080910402602001604051908101604052809291908181526020018280546109b490613834565b8015610a015780601f106109d657610100808354040283529160200191610a01565b820191906000526020600020905b8154815290600101906020018083116109e457829003601f168201915b5050505050905090565b610a136119db565b8060179081610a229190613a07565b5050565b6000610a3182611a59565b6004600083815260200190815260200160002060009054906101000a900473ffffffffffffffffffffffffffffffffffffffff169050919050565b6000610a7782610dd2565b90508073ffffffffffffffffffffffffffffffffffffffff168373ffffffffffffffffffffffffffffffffffffffff1603610ae7576040517f08c379a0000000000000000000000000000000000000000000000000000000008152600401610ade90613b4b565b60405180910390fd5b8073ffffffffffffffffffffffffffffffffffffffff16610b06611aa4565b73ffffffffffffffffffffffffffffffffffffffff161480610b355750610b3481610b2f611aa4565b611773565b5b610b74576040517f08c379a0000000000000000000000000000000000000000000000000000000008152600401610b6b90613bdd565b60405180910390fd5b610b7e8383611aac565b505050565b6000610b8d610969565b610bca57600960070154600a610ba39190613d5f565b600960040154600960060154610bb99190613daa565b610bc39190613e1b565b9050610bcf565b600090505b90565b610be3610bdd611aa4565b82611b65565b610c22576040517f08c379a0000000000000000000000000000000000000000000000000000000008152600401610c1990613ebe565b60405180910390fd5b610c2d838383611bfa565b505050565b610c3a6119db565b8060169081610c499190613a07565b5050565b60008060096005015460096002015442610c679190613ede565b610c719190613f12565b14905090565b6000610c816119db565b600960080154610c916008611ef3565b10610cd1576040517f08c379a0000000000000000000000000000000000000000000000000000000008152600401610cc890613fb5565b60405180910390fd5b610cdb6008611f01565b6000610ce76008611ef3565b9050610cf38482611f17565b610cfe818486612134565b8091505092915050565b6000610d12610969565b610d62576000610d20610b83565b9050600060096005015460096003015442610d3b9190613ede565b610d459190613e1b565b905060008183610d559190613daa565b9050809350505050610d67565b600090505b90565b610d85838383604051806020016040528060008152506114b6565b505050565b6000600960000160009054906101000a900473ffffffffffffffffffffffffffffffffffffffff16905090565b610dbf6119db565b8060149081610dce9190613a07565b5050565b600080610dde83612334565b9050600073ffffffffffffffffffffffffffffffffffffffff168173ffffffffffffffffffffffffffffffffffffffff1603610e4f576040517f08c379a0000000000000000000000000000000000000000000000000000000008152600401610e4690614021565b60405180910390fd5b80915050919050565b60008073ffffffffffffffffffffffffffffffffffffffff168273ffffffffffffffffffffffffffffffffffffffff1603610ec8576040517f08c379a0000000000000000000000000000000000000000000000000000000008152600401610ebf906140b3565b60405180910390fd5b600360008373ffffffffffffffffffffffffffffffffffffffff1673ffffffffffffffffffffffffffffffffffffffff168152602001908152602001600020549050919050565b606060148054610f1e90613834565b80601f0160208091040260200160405190810160405280929190818152602001828054610f4a90613834565b8015610f975780601f10610f6c57610100808354040283529160200191610f97565b820191906000526020600020905b815481529060010190602001808311610f7a57829003601f168201915b5050505050905090565b610fa96119db565b610fb36000612371565b565b6000600960060154905090565b610fca6119db565b610fd2610969565b610fdb57600080fd5b61106e60158054610feb90613834565b80601f016020809104026020016040519081016040528092919081815260200182805461101790613834565b80156110645780601f1061103957610100808354040283529160200191611064565b820191906000526020600020905b81548152906001019060200180831161104757829003601f168201915b5050505050610db7565b565b6000600760009054906101000a900473ffffffffffffffffffffffffffffffffffffffff16905090565b6060600180546110a990613834565b80601f01602080910402602001604051908101604052809291908181526020018280546110d590613834565b80156111225780601f106110f757610100808354040283529160200191611122565b820191906000526020600020905b81548152906001019060200180831161110557829003601f168201915b5050505050905090565b6060601360008373ffffffffffffffffffffffffffffffffffffffff1673ffffffffffffffffffffffffffffffffffffffff1681526020019081526020016000208054806020026020016040519081016040528092919081815260200182805480156111b757602002820191906000526020600020905b8154815260200190600101908083116111a3575b50505050509050919050565b6111d56111ce611aa4565b8383612437565b5050565b6111e16119db565b80601590816111f09190613a07565b5050565b60606016805461120390613834565b80601f016020809104026020016040519081016040528092919081815260200182805461122f90613834565b801561127c5780601f106112515761010080835404028352916020019161127c565b820191906000526020600020905b81548152906001019060200180831161125f57829003601f168201915b5050505050905090565b61128e612b81565b601260008381526020019081526020016000206040518060a0016040529081600082015481526020016001820154815260200160028201548152602001600382016040518060a00160405290816000820180546112ea90613834565b80601f016020809104026020016040519081016040528092919081815260200182805461131690613834565b80156113635780601f1061133857610100808354040283529160200191611363565b820191906000526020600020905b81548152906001019060200180831161134657829003601f168201915b5050505050815260200160018201805461137c90613834565b80601f01602080910402602001604051908101604052809291908181526020018280546113a890613834565b80156113f55780601f106113ca576101008083540402835291602001916113f5565b820191906000526020600020905b8154815290600101906020018083116113d857829003601f168201915b505050505081526020016002820160009054906101000a900460ff1660ff1660ff1681526020016002820160019054906101000a900460ff1660ff1660ff1681526020016002820160029054906101000a900460ff1660ff1660ff168152505081526020016006820160009054906101000a900473ffffffffffffffffffffffffffffffffffffffff1673ffffffffffffffffffffffffffffffffffffffff1673ffffffffffffffffffffffffffffffffffffffff16815250509050919050565b6114c76114c1611aa4565b83611b65565b611506576040517f08c379a00000000000000000000000000000000000000000000000000000000081526004016114fd90613ebe565b60405180910390fd5b611512848484846125a3565b50505050565b606061152382611a59565b600060066000848152602001908152602001600020805461154390613834565b80601f016020809104026020016040519081016040528092919081815260200182805461156f90613834565b80156115bc5780601f10611591576101008083540402835291602001916115bc565b820191906000526020600020905b81548152906001019060200180831161159f57829003601f168201915b5050505050905060006115cd6125ff565b905060008151036115e2578192505050611625565b6000825111156116175780826040516020016115ff92919061410f565b60405160208183030381529060405292505050611625565b61162084612616565b925050505b919050565b611632612bcc565b6009604051806101200160405290816000820160009054906101000a900473ffffffffffffffffffffffffffffffffffffffff1673ffffffffffffffffffffffffffffffffffffffff1673ffffffffffffffffffffffffffffffffffffffff1681526020016001820180546116a690613834565b80601f01602080910402602001604051908101604052809291908181526020018280546116d290613834565b801561171f5780601f106116f45761010080835404028352916020019161171f565b820191906000526020600020905b81548152906001019060200180831161170257829003601f168201915b50505050508152602001600282015481526020016003820154815260200160048201548152602001600582015481526020016006820154815260200160078201548152602001600882015481525050905090565b6000600560008473ffffffffffffffffffffffffffffffffffffffff1673ffffffffffffffffffffffffffffffffffffffff16815260200190815260200160002060008373ffffffffffffffffffffffffffffffffffffffff1673ffffffffffffffffffffffffffffffffffffffff16815260200190815260200160002060009054906101000a900460ff16905092915050565b60008060096008015411905090565b8173ffffffffffffffffffffffffffffffffffffffff1661183684610dd2565b73ffffffffffffffffffffffffffffffffffffffff161461185657600080fd5b600061186184611286565b90508181606001516000018190525050505050565b61187e6119db565b600073ffffffffffffffffffffffffffffffffffffffff168173ffffffffffffffffffffffffffffffffffffffff16036118ed576040517f08c379a00000000000000000000000000000000000000000000000000000000081526004016118e4906141a5565b60405180910390fd5b6118f681612371565b50565b60007f80ac58cd000000000000000000000000000000000000000000000000000000007bffffffffffffffffffffffffffffffffffffffffffffffffffffffff1916827bffffffffffffffffffffffffffffffffffffffffffffffffffffffff191614806119c457507f5b5e139f000000000000000000000000000000000000000000000000000000007bffffffffffffffffffffffffffffffffffffffffffffffffffffffff1916827bffffffffffffffffffffffffffffffffffffffffffffffffffffffff1916145b806119d457506119d38261267e565b5b9050919050565b6119e3611aa4565b73ffffffffffffffffffffffffffffffffffffffff16611a01611070565b73ffffffffffffffffffffffffffffffffffffffff1614611a57576040517f08c379a0000000000000000000000000000000000000000000000000000000008152600401611a4e90614211565b60405180910390fd5b565b611a62816126e8565b611aa1576040517f08c379a0000000000000000000000000000000000000000000000000000000008152600401611a9890614021565b60405180910390fd5b50565b600033905090565b816004600083815260200190815260200160002060006101000a81548173ffffffffffffffffffffffffffffffffffffffff021916908373ffffffffffffffffffffffffffffffffffffffff160217905550808273ffffffffffffffffffffffffffffffffffffffff16611b1f83610dd2565b73ffffffffffffffffffffffffffffffffffffffff167f8c5be1e5ebec7d5bd14f71427d1e84f3dd0314c0f7b2291e5b200ac8c7c3b92560405160405180910390a45050565b600080611b7183610dd2565b90508073ffffffffffffffffffffffffffffffffffffffff168473ffffffffffffffffffffffffffffffffffffffff161480611bb35750611bb28185611773565b5b80611bf157508373ffffffffffffffffffffffffffffffffffffffff16611bd984610a26565b73ffffffffffffffffffffffffffffffffffffffff16145b91505092915050565b8273ffffffffffffffffffffffffffffffffffffffff16611c1a82610dd2565b73ffffffffffffffffffffffffffffffffffffffff1614611c70576040517f08c379a0000000000000000000000000000000000000000000000000000000008152600401611c67906142a3565b60405180910390fd5b600073ffffffffffffffffffffffffffffffffffffffff168273ffffffffffffffffffffffffffffffffffffffff1603611cdf576040517f08c379a0000000000000000000000000000000000000000000000000000000008152600401611cd690614335565b60405180910390fd5b611cec8383836001612729565b8273ffffffffffffffffffffffffffffffffffffffff16611d0c82610dd2565b73ffffffffffffffffffffffffffffffffffffffff1614611d62576040517f08c379a0000000000000000000000000000000000000000000000000000000008152600401611d59906142a3565b60405180910390fd5b6004600082815260200190815260200160002060006101000a81549073ffffffffffffffffffffffffffffffffffffffff02191690556001600360008573ffffffffffffffffffffffffffffffffffffffff1673ffffffffffffffffffffffffffffffffffffffff168152602001908152602001600020600082825403925050819055506001600360008473ffffffffffffffffffffffffffffffffffffffff1673ffffffffffffffffffffffffffffffffffffffff16815260200190815260200160002060008282540192505081905550816002600083815260200190815260200160002060006101000a81548173ffffffffffffffffffffffffffffffffffffffff021916908373ffffffffffffffffffffffffffffffffffffffff160217905550808273ffffffffffffffffffffffffffffffffffffffff168473ffffffffffffffffffffffffffffffffffffffff167fddf252ad1be2c89b69c2b068fc378daa952ba7f163c4a11628f55a4df523b3ef60405160405180910390a4611eee838383600161272f565b505050565b600081600001549050919050565b6001816000016000828254019250508190555050565b600073ffffffffffffffffffffffffffffffffffffffff168273ffffffffffffffffffffffffffffffffffffffff1603611f86576040517f08c379a0000000000000000000000000000000000000000000000000000000008152600401611f7d906143a1565b60405180910390fd5b611f8f816126e8565b15611fcf576040517f08c379a0000000000000000000000000000000000000000000000000000000008152600401611fc69061440d565b60405180910390fd5b611fdd600083836001612729565b611fe6816126e8565b15612026576040517f08c379a000000000000000000000000000000000000000000000000000000000815260040161201d9061440d565b60405180910390fd5b6001600360008473ffffffffffffffffffffffffffffffffffffffff1673ffffffffffffffffffffffffffffffffffffffff16815260200190815260200160002060008282540192505081905550816002600083815260200190815260200160002060006101000a81548173ffffffffffffffffffffffffffffffffffffffff021916908373ffffffffffffffffffffffffffffffffffffffff160217905550808273ffffffffffffffffffffffffffffffffffffffff16600073ffffffffffffffffffffffffffffffffffffffff167fddf252ad1be2c89b69c2b068fc378daa952ba7f163c4a11628f55a4df523b3ef60405160405180910390a461213060008383600161272f565b5050565b6040518060a0016040528084815260200142815260200183815260200161215a85612735565b81526020018273ffffffffffffffffffffffffffffffffffffffff168152506012600085815260200190815260200160002060008201518160000155602082015181600101556040820151816002015560608201518160030160008201518160000190816121c89190613a07565b5060208201518160010190816121de9190613a07565b5060408201518160020160006101000a81548160ff021916908360ff16021790555060608201518160020160016101000a81548160ff021916908360ff16021790555060808201518160020160026101000a81548160ff021916908360ff160217905550505060808201518160060160006101000a81548173ffffffffffffffffffffffffffffffffffffffff021916908373ffffffffffffffffffffffffffffffffffffffff160217905550905050601360008273ffffffffffffffffffffffffffffffffffffffff1673ffffffffffffffffffffffffffffffffffffffff1681526020019081526020016000208390806001815401808255809150506001900390600052602060002001600090919091909150557f42e22845cdfee2da8f8e56b8d8f9807a12fd6906d54b388fe7ec9d2329e70b3e8382846040516123279392919061442d565b60405180910390a1505050565b60006002600083815260200190815260200160002060009054906101000a900473ffffffffffffffffffffffffffffffffffffffff169050919050565b6000600760009054906101000a900473ffffffffffffffffffffffffffffffffffffffff16905081600760006101000a81548173ffffffffffffffffffffffffffffffffffffffff021916908373ffffffffffffffffffffffffffffffffffffffff1602179055508173ffffffffffffffffffffffffffffffffffffffff168173ffffffffffffffffffffffffffffffffffffffff167f8be0079c531659141344cd1fd0a4f28419497f9722a3daafe3b4186f6b6457e060405160405180910390a35050565b8173ffffffffffffffffffffffffffffffffffffffff168373ffffffffffffffffffffffffffffffffffffffff16036124a5576040517f08c379a000000000000000000000000000000000000000000000000000000000815260040161249c906144b0565b60405180910390fd5b80600560008573ffffffffffffffffffffffffffffffffffffffff1673ffffffffffffffffffffffffffffffffffffffff16815260200190815260200160002060008473ffffffffffffffffffffffffffffffffffffffff1673ffffffffffffffffffffffffffffffffffffffff16815260200190815260200160002060006101000a81548160ff0219169083151502179055508173ffffffffffffffffffffffffffffffffffffffff168373ffffffffffffffffffffffffffffffffffffffff167f17307eab39ab6107e8899845ad3d59bd9653f200f220920489ca2b5937696c31836040516125969190612d1a565b60405180910390a3505050565b6125ae848484611bfa565b6125ba848484846127b6565b6125f9576040517f08c379a00000000000000000000000000000000000000000000000000000000081526004016125f090614542565b60405180910390fd5b50505050565b606060405180602001604052806000815250905090565b606061262182611a59565b600061262b6125ff565b9050600081511161264b5760405180602001604052806000815250612676565b806126558461293d565b60405160200161266692919061410f565b6040516020818303038152906040525b915050919050565b60007f01ffc9a7000000000000000000000000000000000000000000000000000000007bffffffffffffffffffffffffffffffffffffffffffffffffffffffff1916827bffffffffffffffffffffffffffffffffffffffffffffffffffffffff1916149050919050565b60008073ffffffffffffffffffffffffffffffffffffffff1661270a83612334565b73ffffffffffffffffffffffffffffffffffffffff1614159050919050565b50505050565b50505050565b61273d612c2e565b6040518060a001604052806040518060200160405280600081525081526020016127656111f4565b61276e8561293d565b60405160200161277f92919061410f565b6040516020818303038152906040528152602001600a60ff168152602001600a60ff168152602001600060ff168152509050919050565b60006127d78473ffffffffffffffffffffffffffffffffffffffff16612a0b565b15612930578373ffffffffffffffffffffffffffffffffffffffff1663150b7a02612800611aa4565b8786866040518563ffffffff1660e01b815260040161282294939291906145b7565b6020604051808303816000875af192505050801561285e57506040513d601f19601f8201168201806040525081019061285b9190614618565b60015b6128e0573d806000811461288e576040519150601f19603f3d011682016040523d82523d6000602084013e612893565b606091505b5060008151036128d8576040517f08c379a00000000000000000000000000000000000000000000000000000000081526004016128cf90614542565b60405180910390fd5b805181602001fd5b63150b7a0260e01b7bffffffffffffffffffffffffffffffffffffffffffffffffffffffff1916817bffffffffffffffffffffffffffffffffffffffffffffffffffffffff191614915050612935565b600190505b949350505050565b60606000600161294c84612a2e565b01905060008167ffffffffffffffff81111561296b5761296a612eec565b5b6040519080825280601f01601f19166020018201604052801561299d5781602001600182028036833780820191505090505b509050600082602001820190505b600115612a00578080600190039150507f3031323334353637383961626364656600000000000000000000000000000000600a86061a8153600a85816129f4576129f3613dec565b5b049450600085036129ab575b819350505050919050565b6000808273ffffffffffffffffffffffffffffffffffffffff163b119050919050565b600080600090507a184f03e93ff9f4daa797ed6e38ed64bf6a1f0100000000000000008310612a8c577a184f03e93ff9f4daa797ed6e38ed64bf6a1f0100000000000000008381612a8257612a81613dec565b5b0492506040810190505b6d04ee2d6d415b85acef81000000008310612ac9576d04ee2d6d415b85acef81000000008381612abf57612abe613dec565b5b0492506020810190505b662386f26fc100008310612af857662386f26fc100008381612aee57612aed613dec565b5b0492506010810190505b6305f5e1008310612b21576305f5e1008381612b1757612b16613dec565b5b0492506008810190505b6127108310612b46576127108381612b3c57612b3b613dec565b5b0492506004810190505b60648310612b695760648381612b5f57612b5e613dec565b5b0492506002810190505b600a8310612b78576001810190505b80915050919050565b6040518060a00160405280600081526020016000815260200160008152602001612ba9612c2e565b8152602001600073ffffffffffffffffffffffffffffffffffffffff1681525090565b604051806101200160405280600073ffffffffffffffffffffffffffffffffffffffff16815260200160608152602001600081526020016000815260200160008152602001600081526020016000815260200160008152602001600081525090565b6040518060a001604052806060815260200160608152602001600060ff168152602001600060ff168152602001600060ff1681525090565b6000604051905090565b600080fd5b600080fd5b60007fffffffff0000000000000000000000000000000000000000000000000000000082169050919050565b612caf81612c7a565b8114612cba57600080fd5b50565b600081359050612ccc81612ca6565b92915050565b600060208284031215612ce857612ce7612c70565b5b6000612cf684828501612cbd565b91505092915050565b60008115159050919050565b612d1481612cff565b82525050565b6000602082019050612d2f6000830184612d0b565b92915050565b600073ffffffffffffffffffffffffffffffffffffffff82169050919050565b6000612d6082612d35565b9050919050565b612d7081612d55565b8114612d7b57600080fd5b50565b600081359050612d8d81612d67565b92915050565b6000819050919050565b612da681612d93565b8114612db157600080fd5b50565b600081359050612dc381612d9d565b92915050565b60008060008060808587031215612de357612de2612c70565b5b6000612df187828801612d7e565b9450506020612e0287828801612d7e565b9350506040612e1387828801612db4565b9250506060612e2487828801612db4565b91505092959194509250565b600081519050919050565b600082825260208201905092915050565b60005b83811015612e6a578082015181840152602081019050612e4f565b60008484015250505050565b6000601f19601f8301169050919050565b6000612e9282612e30565b612e9c8185612e3b565b9350612eac818560208601612e4c565b612eb581612e76565b840191505092915050565b60006020820190508181036000830152612eda8184612e87565b905092915050565b600080fd5b600080fd5b7f4e487b7100000000000000000000000000000000000000000000000000000000600052604160045260246000fd5b612f2482612e76565b810181811067ffffffffffffffff82111715612f4357612f42612eec565b5b80604052505050565b6000612f56612c66565b9050612f628282612f1b565b919050565b600067ffffffffffffffff821115612f8257612f81612eec565b5b612f8b82612e76565b9050602081019050919050565b82818337600083830152505050565b6000612fba612fb584612f67565b612f4c565b905082815260208101848484011115612fd657612fd5612ee7565b5b612fe1848285612f98565b509392505050565b600082601f830112612ffe57612ffd612ee2565b5b813561300e848260208601612fa7565b91505092915050565b60006020828403121561302d5761302c612c70565b5b600082013567ffffffffffffffff81111561304b5761304a612c75565b5b61305784828501612fe9565b91505092915050565b60006020828403121561307657613075612c70565b5b600061308484828501612db4565b91505092915050565b600061309882612d35565b9050919050565b6130a88161308d565b82525050565b60006020820190506130c3600083018461309f565b92915050565b6130d28161308d565b81146130dd57600080fd5b50565b6000813590506130ef816130c9565b92915050565b6000806040838503121561310c5761310b612c70565b5b600061311a858286016130e0565b925050602061312b85828601612db4565b9150509250929050565b61313e81612d93565b82525050565b60006020820190506131596000830184613135565b92915050565b60008060006060848603121561317857613177612c70565b5b6000613186868287016130e0565b9350506020613197868287016130e0565b92505060406131a886828701612db4565b9150509250925092565b6000602082840312156131c8576131c7612c70565b5b60006131d6848285016130e0565b91505092915050565b600081519050919050565b600082825260208201905092915050565b6000819050602082019050919050565b61321481612d93565b82525050565b6000613226838361320b565b60208301905092915050565b6000602082019050919050565b600061324a826131df565b61325481856131ea565b935061325f836131fb565b8060005b83811015613290578151613277888261321a565b975061328283613232565b925050600181019050613263565b5085935050505092915050565b600060208201905081810360008301526132b7818461323f565b905092915050565b6132c881612cff565b81146132d357600080fd5b50565b6000813590506132e5816132bf565b92915050565b6000806040838503121561330257613301612c70565b5b6000613310858286016130e0565b9250506020613321858286016132d6565b9150509250929050565b600082825260208201905092915050565b600061334782612e30565b613351818561332b565b9350613361818560208601612e4c565b61336a81612e76565b840191505092915050565b600060ff82169050919050565b61338b81613375565b82525050565b600060a08301600083015184820360008601526133ae828261333c565b915050602083015184820360208601526133c8828261333c565b91505060408301516133dd6040860182613382565b5060608301516133f06060860182613382565b5060808301516134036080860182613382565b508091505092915050565b6134178161308d565b82525050565b600060a083016000830151613435600086018261320b565b506020830151613448602086018261320b565b50604083015161345b604086018261320b565b50606083015184820360608601526134738282613391565b9150506080830151613488608086018261340e565b508091505092915050565b600060208201905081810360008301526134ad818461341d565b905092915050565b600067ffffffffffffffff8211156134d0576134cf612eec565b5b6134d982612e76565b9050602081019050919050565b60006134f96134f4846134b5565b612f4c565b90508281526020810184848401111561351557613514612ee7565b5b613520848285612f98565b509392505050565b600082601f83011261353d5761353c612ee2565b5b813561354d8482602086016134e6565b91505092915050565b600080600080608085870312156135705761356f612c70565b5b600061357e878288016130e0565b945050602061358f878288016130e0565b93505060406135a087828801612db4565b925050606085013567ffffffffffffffff8111156135c1576135c0612c75565b5b6135cd87828801613528565b91505092959194509250565b6000610120830160008301516135f2600086018261340e565b506020830151848203602086015261360a828261333c565b915050604083015161361f604086018261320b565b506060830151613632606086018261320b565b506080830151613645608086018261320b565b5060a083015161365860a086018261320b565b5060c083015161366b60c086018261320b565b5060e083015161367e60e086018261320b565b5061010083015161369361010086018261320b565b508091505092915050565b600060208201905081810360008301526136b881846135d9565b905092915050565b600080604083850312156136d7576136d6612c70565b5b60006136e5858286016130e0565b92505060206136f6858286016130e0565b9150509250929050565b60008060006060848603121561371957613718612c70565b5b600061372786828701612db4565b9350506020613738868287016130e0565b925050604084013567ffffffffffffffff81111561375957613758612c75565b5b61376586828701612fe9565b9150509250925092565b6000819050919050565b600061379461378f61378a84612d35565b61376f565b612d35565b9050919050565b60006137a682613779565b9050919050565b60006137b88261379b565b9050919050565b6137c8816137ad565b82525050565b60006060820190506137e360008301866137bf565b6137f0602083018561309f565b6137fd6040830184613135565b949350505050565b7f4e487b7100000000000000000000000000000000000000000000000000000000600052602260045260246000fd5b6000600282049050600182168061384c57607f821691505b60208210810361385f5761385e613805565b5b50919050565b60008190508160005260206000209050919050565b60006020601f8301049050919050565b600082821b905092915050565b6000600883026138c77fffffffffffffffffffffffffffffffffffffffffffffffffffffffffffffffff8261388a565b6138d1868361388a565b95508019841693508086168417925050509392505050565b60006139046138ff6138fa84612d93565b61376f565b612d93565b9050919050565b6000819050919050565b61391e836138e9565b61393261392a8261390b565b848454613897565b825550505050565b600090565b61394761393a565b613952818484613915565b505050565b5b818110156139765761396b60008261393f565b600181019050613958565b5050565b601f8211156139bb5761398c81613865565b6139958461387a565b810160208510156139a4578190505b6139b86139b08561387a565b830182613957565b50505b505050565b600082821c905092915050565b60006139de600019846008026139c0565b1980831691505092915050565b60006139f783836139cd565b9150826002028217905092915050565b613a1082612e30565b67ffffffffffffffff811115613a2957613a28612eec565b5b613a338254613834565b613a3e82828561397a565b600060209050601f831160018114613a715760008415613a5f578287015190505b613a6985826139eb565b865550613ad1565b601f198416613a7f86613865565b60005b82811015613aa757848901518255600182019150602085019450602081019050613a82565b86831015613ac45784890151613ac0601f8916826139cd565b8355505b6001600288020188555050505b505050505050565b7f4552433732313a20617070726f76616c20746f2063757272656e74206f776e6560008201527f7200000000000000000000000000000000000000000000000000000000000000602082015250565b6000613b35602183612e3b565b9150613b4082613ad9565b604082019050919050565b60006020820190508181036000830152613b6481613b28565b9050919050565b7f4552433732313a20617070726f76652063616c6c6572206973206e6f7420746f60008201527f6b656e206f776e6572206f7220617070726f76656420666f7220616c6c000000602082015250565b6000613bc7603d83612e3b565b9150613bd282613b6b565b604082019050919050565b60006020820190508181036000830152613bf681613bba565b9050919050565b7f4e487b7100000000000000000000000000000000000000000000000000000000600052601160045260246000fd5b60008160011c9050919050565b6000808291508390505b6001851115613c8357808604811115613c5f57613c5e613bfd565b5b6001851615613c6e5780820291505b8081029050613c7c85613c2c565b9450613c43565b94509492505050565b600082613c9c5760019050613d58565b81613caa5760009050613d58565b8160018114613cc05760028114613cca57613cf9565b6001915050613d58565b60ff841115613cdc57613cdb613bfd565b5b8360020a915084821115613cf357613cf2613bfd565b5b50613d58565b5060208310610133831016604e8410600b8410161715613d2e5782820a905083811115613d2957613d28613bfd565b5b613d58565b613d3b8484846001613c39565b92509050818404811115613d5257613d51613bfd565b5b81810290505b9392505050565b6000613d6a82612d93565b9150613d7583612d93565b9250613da27fffffffffffffffffffffffffffffffffffffffffffffffffffffffffffffffff8484613c8c565b905092915050565b6000613db582612d93565b9150613dc083612d93565b9250828202613dce81612d93565b91508282048414831517613de557613de4613bfd565b5b5092915050565b7f4e487b7100000000000000000000000000000000000000000000000000000000600052601260045260246000fd5b6000613e2682612d93565b9150613e3183612d93565b925082613e4157613e40613dec565b5b828204905092915050565b7f4552433732313a2063616c6c6572206973206e6f7420746f6b656e206f776e6560008201527f72206f7220617070726f76656400000000000000000000000000000000000000602082015250565b6000613ea8602d83612e3b565b9150613eb382613e4c565b604082019050919050565b60006020820190508181036000830152613ed781613e9b565b9050919050565b6000613ee982612d93565b9150613ef483612d93565b9250828203905081811115613f0c57613f0b613bfd565b5b92915050565b6000613f1d82612d93565b9150613f2883612d93565b925082613f3857613f37613dec565b5b828206905092915050565b7f4e6f206d6f726520617661696c61626c65206e66747320746f2070757263686160008201527f7365000000000000000000000000000000000000000000000000000000000000602082015250565b6000613f9f602283612e3b565b9150613faa82613f43565b604082019050919050565b60006020820190508181036000830152613fce81613f92565b9050919050565b7f4552433732313a20696e76616c696420746f6b656e2049440000000000000000600082015250565b600061400b601883612e3b565b915061401682613fd5565b602082019050919050565b6000602082019050818103600083015261403a81613ffe565b9050919050565b7f4552433732313a2061646472657373207a65726f206973206e6f74206120766160008201527f6c6964206f776e65720000000000000000000000000000000000000000000000602082015250565b600061409d602983612e3b565b91506140a882614041565b604082019050919050565b600060208201905081810360008301526140cc81614090565b9050919050565b600081905092915050565b60006140e982612e30565b6140f381856140d3565b9350614103818560208601612e4c565b80840191505092915050565b600061411b82856140de565b915061412782846140de565b91508190509392505050565b7f4f776e61626c653a206e6577206f776e657220697320746865207a65726f206160008201527f6464726573730000000000000000000000000000000000000000000000000000602082015250565b600061418f602683612e3b565b915061419a82614133565b604082019050919050565b600060208201905081810360008301526141be81614182565b9050919050565b7f4f776e61626c653a2063616c6c6572206973206e6f7420746865206f776e6572600082015250565b60006141fb602083612e3b565b9150614206826141c5565b602082019050919050565b6000602082019050818103600083015261422a816141ee565b9050919050565b7f4552433732313a207472616e736665722066726f6d20696e636f72726563742060008201527f6f776e6572000000000000000000000000000000000000000000000000000000602082015250565b600061428d602583612e3b565b915061429882614231565b604082019050919050565b600060208201905081810360008301526142bc81614280565b9050919050565b7f4552433732313a207472616e7366657220746f20746865207a65726f2061646460008201527f7265737300000000000000000000000000000000000000000000000000000000602082015250565b600061431f602483612e3b565b915061432a826142c3565b604082019050919050565b6000602082019050818103600083015261434e81614312565b9050919050565b7f4552433732313a206d696e7420746f20746865207a65726f2061646472657373600082015250565b600061438b602083612e3b565b915061439682614355565b602082019050919050565b600060208201905081810360008301526143ba8161437e565b9050919050565b7f4552433732313a20746f6b656e20616c7265616479206d696e74656400000000600082015250565b60006143f7601c83612e3b565b9150614402826143c1565b602082019050919050565b60006020820190508181036000830152614426816143ea565b9050919050565b60006060820190506144426000830186613135565b61444f602083018561309f565b61445c6040830184613135565b949350505050565b7f4552433732313a20617070726f766520746f2063616c6c657200000000000000600082015250565b600061449a601983612e3b565b91506144a582614464565b602082019050919050565b600060208201905081810360008301526144c98161448d565b9050919050565b7f4552433732313a207472616e7366657220746f206e6f6e20455243373231526560008201527f63656976657220696d706c656d656e7465720000000000000000000000000000602082015250565b600061452c603283612e3b565b9150614537826144d0565b604082019050919050565b6000602082019050818103600083015261455b8161451f565b9050919050565b600081519050919050565b600082825260208201905092915050565b600061458982614562565b614593818561456d565b93506145a3818560208601612e4c565b6145ac81612e76565b840191505092915050565b60006080820190506145cc600083018761309f565b6145d9602083018661309f565b6145e66040830185613135565b81810360608301526145f8818461457e565b905095945050505050565b60008151905061461281612ca6565b92915050565b60006020828403121561462e5761462d612c70565b5b600061463c84828501614603565b9150509291505056fea2646970667358221220f9c32fff7cd8418b4a54083d0ecbb37bd44c0394506c98df9671664813063d1464736f6c63430008120033516d546b3473506f59796d70746b4b4e5870765341574b54373937473676594a65633257454346584d6d54454552516d5666576b796846694d6861374435416464525038464d543179765a7947435a7352397057317438314158676d","opcodes":"PUSH1 0x80 PUSH1 0x40 MSTORE PUSH1 0x40 MLOAD DUP1 PUSH1 0x60 ADD PUSH1 0x40 MSTORE DUP1 PUSH1 0x2E DUP2 MSTORE PUSH1 0x20 ADD PUSH3 0x4E50 PUSH1 0x2E SWAP2 CODECOPY PUSH1 0x14 SWAP1 DUP2 PUSH3 0x2E SWAP2 SWAP1 PUSH3 0x614 JUMP JUMPDEST POP PUSH1 0x40 MLOAD DUP1 PUSH1 0x20 ADD PUSH1 0x40 MSTORE DUP1 PUSH1 0x0 DUP2 MSTORE POP PUSH1 0x15 SWAP1 DUP2 PUSH3 0x4F SWAP2 SWAP1 PUSH3 0x614 JUMP JUMPDEST POP PUSH1 0x40 MLOAD DUP1 PUSH1 0x60 ADD PUSH1 0x40 MSTORE DUP1 PUSH1 0x2E DUP2 MSTORE PUSH1 0x20 ADD PUSH3 0x4E22 PUSH1 0x2E SWAP2 CODECOPY PUSH1 0x16 SWAP1 DUP2 PUSH3 0x7A SWAP2 SWAP1 PUSH3 0x614 JUMP JUMPDEST POP PUSH1 0x40 MLOAD DUP1 PUSH1 0x20 ADD PUSH1 0x40 MSTORE DUP1 PUSH1 0x0 DUP2 MSTORE POP PUSH1 0x17 SWAP1 DUP2 PUSH3 0x9B SWAP2 SWAP1 PUSH3 0x614 JUMP JUMPDEST POP CALLVALUE DUP1 ISZERO PUSH3 0xA9 JUMPI PUSH1 0x0 DUP1 REVERT JUMPDEST POP PUSH1 0x40 MLOAD PUSH3 0x4E7E CODESIZE SUB DUP1 PUSH3 0x4E7E DUP4 CODECOPY DUP2 DUP2 ADD PUSH1 0x40 MSTORE DUP2 ADD SWAP1 PUSH3 0xCF SWAP2 SWAP1 PUSH3 0x765 JUMP JUMPDEST PUSH1 0x40 MLOAD DUP1 PUSH1 0x40 ADD PUSH1 0x40 MSTORE DUP1 PUSH1 0x7 DUP2 MSTORE PUSH1 0x20 ADD PUSH32 0x4541766174617200000000000000000000000000000000000000000000000000 DUP2 MSTORE POP PUSH1 0x40 MLOAD DUP1 PUSH1 0x40 ADD PUSH1 0x40 MSTORE DUP1 PUSH1 0x2 DUP2 MSTORE PUSH1 0x20 ADD PUSH32 0x4541000000000000000000000000000000000000000000000000000000000000 DUP2 MSTORE POP DUP2 PUSH1 0x0 SWAP1 DUP2 PUSH3 0x14C SWAP2 SWAP1 PUSH3 0x614 JUMP JUMPDEST POP DUP1 PUSH1 0x1 SWAP1 DUP2 PUSH3 0x15E SWAP2 SWAP1 PUSH3 0x614 JUMP JUMPDEST POP POP POP PUSH3 0x181 PUSH3 0x175 PUSH3 0x2CC PUSH1 0x20 SHL PUSH1 0x20 SHR JUMP JUMPDEST PUSH3 0x2D4 PUSH1 0x20 SHL PUSH1 0x20 SHR JUMP JUMPDEST PUSH1 0x40 MLOAD DUP1 PUSH2 0x120 ADD PUSH1 0x40 MSTORE DUP1 DUP3 PUSH20 0xFFFFFFFFFFFFFFFFFFFFFFFFFFFFFFFFFFFFFFFF AND DUP2 MSTORE PUSH1 0x20 ADD PUSH1 0x40 MLOAD DUP1 PUSH1 0x40 ADD PUSH1 0x40 MSTORE DUP1 PUSH1 0xA DUP2 MSTORE PUSH1 0x20 ADD PUSH32 0x452D426F6E64204F6E6500000000000000000000000000000000000000000000 DUP2 MSTORE POP DUP2 MSTORE PUSH1 0x20 ADD TIMESTAMP DUP2 MSTORE PUSH1 0x20 ADD PUSH4 0x6E711880 DUP2 MSTORE PUSH1 0x20 ADD PUSH1 0x5 DUP2 MSTORE PUSH1 0x20 ADD PUSH3 0xF0C29F DUP2 MSTORE PUSH1 0x20 ADD PUSH3 0x186A0 DUP2 MSTORE PUSH1 0x20 ADD PUSH1 0x2 DUP2 MSTORE PUSH1 0x20 ADD PUSH2 0x3E8 DUP2 MSTORE POP PUSH1 0x9 PUSH1 0x0 DUP3 ADD MLOAD DUP2 PUSH1 0x0 ADD PUSH1 0x0 PUSH2 0x100 EXP DUP2 SLOAD DUP2 PUSH20 0xFFFFFFFFFFFFFFFFFFFFFFFFFFFFFFFFFFFFFFFF MUL NOT AND SWAP1 DUP4 PUSH20 0xFFFFFFFFFFFFFFFFFFFFFFFFFFFFFFFFFFFFFFFF AND MUL OR SWAP1 SSTORE POP PUSH1 0x20 DUP3 ADD MLOAD DUP2 PUSH1 0x1 ADD SWAP1 DUP2 PUSH3 0x27A SWAP2 SWAP1 PUSH3 0x614 JUMP JUMPDEST POP PUSH1 0x40 DUP3 ADD MLOAD DUP2 PUSH1 0x2 ADD SSTORE PUSH1 0x60 DUP3 ADD MLOAD DUP2 PUSH1 0x3 ADD SSTORE PUSH1 0x80 DUP3 ADD MLOAD DUP2 PUSH1 0x4 ADD SSTORE PUSH1 0xA0 DUP3 ADD MLOAD DUP2 PUSH1 0x5 ADD SSTORE PUSH1 0xC0 DUP3 ADD MLOAD DUP2 PUSH1 0x6 ADD SSTORE PUSH1 0xE0 DUP3 ADD MLOAD DUP2 PUSH1 0x7 ADD SSTORE PUSH2 0x100 DUP3 ADD MLOAD DUP2 PUSH1 0x8 ADD SSTORE SWAP1 POP POP POP PUSH3 0x797 JUMP JUMPDEST PUSH1 0x0 CALLER SWAP1 POP SWAP1 JUMP JUMPDEST PUSH1 0x0 PUSH1 0x7 PUSH1 0x0 SWAP1 SLOAD SWAP1 PUSH2 0x100 EXP SWAP1 DIV PUSH20 0xFFFFFFFFFFFFFFFFFFFFFFFFFFFFFFFFFFFFFFFF AND SWAP1 POP DUP2 PUSH1 0x7 PUSH1 0x0 PUSH2 0x100 EXP DUP2 SLOAD DUP2 PUSH20 0xFFFFFFFFFFFFFFFFFFFFFFFFFFFFFFFFFFFFFFFF MUL NOT AND SWAP1 DUP4 PUSH20 0xFFFFFFFFFFFFFFFFFFFFFFFFFFFFFFFFFFFFFFFF AND MUL OR SWAP1 SSTORE POP DUP2 PUSH20 0xFFFFFFFFFFFFFFFFFFFFFFFFFFFFFFFFFFFFFFFF AND DUP2 PUSH20 0xFFFFFFFFFFFFFFFFFFFFFFFFFFFFFFFFFFFFFFFF AND PUSH32 0x8BE0079C531659141344CD1FD0A4F28419497F9722A3DAAFE3B4186F6B6457E0 PUSH1 0x40 MLOAD PUSH1 0x40 MLOAD DUP1 SWAP2 SUB SWAP1 LOG3 POP POP JUMP JUMPDEST PUSH1 0x0 DUP2 MLOAD SWAP1 POP SWAP2 SWAP1 POP JUMP JUMPDEST PUSH32 0x4E487B7100000000000000000000000000000000000000000000000000000000 PUSH1 0x0 MSTORE PUSH1 0x41 PUSH1 0x4 MSTORE PUSH1 0x24 PUSH1 0x0 REVERT JUMPDEST PUSH32 0x4E487B7100000000000000000000000000000000000000000000000000000000 PUSH1 0x0 MSTORE PUSH1 0x22 PUSH1 0x4 MSTORE PUSH1 0x24 PUSH1 0x0 REVERT JUMPDEST PUSH1 0x0 PUSH1 0x2 DUP3 DIV SWAP1 POP PUSH1 0x1 DUP3 AND DUP1 PUSH3 0x41C JUMPI PUSH1 0x7F DUP3 AND SWAP2 POP JUMPDEST PUSH1 0x20 DUP3 LT DUP2 SUB PUSH3 0x432 JUMPI PUSH3 0x431 PUSH3 0x3D4 JUMP JUMPDEST JUMPDEST POP SWAP2 SWAP1 POP JUMP JUMPDEST PUSH1 0x0 DUP2 SWAP1 POP DUP2 PUSH1 0x0 MSTORE PUSH1 0x20 PUSH1 0x0 KECCAK256 SWAP1 POP SWAP2 SWAP1 POP JUMP JUMPDEST PUSH1 0x0 PUSH1 0x20 PUSH1 0x1F DUP4 ADD DIV SWAP1 POP SWAP2 SWAP1 POP JUMP JUMPDEST PUSH1 0x0 DUP3 DUP3 SHL SWAP1 POP SWAP3 SWAP2 POP POP JUMP JUMPDEST PUSH1 0x0 PUSH1 0x8 DUP4 MUL PUSH3 0x49C PUSH32 0xFFFFFFFFFFFFFFFFFFFFFFFFFFFFFFFFFFFFFFFFFFFFFFFFFFFFFFFFFFFFFFFF DUP3 PUSH3 0x45D JUMP JUMPDEST PUSH3 0x4A8 DUP7 DUP4 PUSH3 0x45D JUMP JUMPDEST SWAP6 POP DUP1 NOT DUP5 AND SWAP4 POP DUP1 DUP7 AND DUP5 OR SWAP3 POP POP POP SWAP4 SWAP3 POP POP POP JUMP JUMPDEST PUSH1 0x0 DUP2 SWAP1 POP SWAP2 SWAP1 POP JUMP JUMPDEST PUSH1 0x0 DUP2 SWAP1 POP SWAP2 SWAP1 POP JUMP JUMPDEST PUSH1 0x0 PUSH3 0x4F5 PUSH3 0x4EF PUSH3 0x4E9 DUP5 PUSH3 0x4C0 JUMP JUMPDEST PUSH3 0x4CA JUMP JUMPDEST PUSH3 0x4C0 JUMP JUMPDEST SWAP1 POP SWAP2 SWAP1 POP JUMP JUMPDEST PUSH1 0x0 DUP2 SWAP1 POP SWAP2 SWAP1 POP JUMP JUMPDEST PUSH3 0x511 DUP4 PUSH3 0x4D4 JUMP JUMPDEST PUSH3 0x529 PUSH3 0x520 DUP3 PUSH3 0x4FC JUMP JUMPDEST DUP5 DUP5 SLOAD PUSH3 0x46A JUMP JUMPDEST DUP3 SSTORE POP POP POP POP JUMP JUMPDEST PUSH1 0x0 SWAP1 JUMP JUMPDEST PUSH3 0x540 PUSH3 0x531 JUMP JUMPDEST PUSH3 0x54D DUP2 DUP5 DUP5 PUSH3 0x506 JUMP JUMPDEST POP POP POP JUMP JUMPDEST JUMPDEST DUP2 DUP2 LT ISZERO PUSH3 0x575 JUMPI PUSH3 0x569 PUSH1 0x0 DUP3 PUSH3 0x536 JUMP JUMPDEST PUSH1 0x1 DUP2 ADD SWAP1 POP PUSH3 0x553 JUMP JUMPDEST POP POP JUMP JUMPDEST PUSH1 0x1F DUP3 GT ISZERO PUSH3 0x5C4 JUMPI PUSH3 0x58E DUP2 PUSH3 0x438 JUMP JUMPDEST PUSH3 0x599 DUP5 PUSH3 0x44D JUMP JUMPDEST DUP2 ADD PUSH1 0x20 DUP6 LT ISZERO PUSH3 0x5A9 JUMPI DUP2 SWAP1 POP JUMPDEST PUSH3 0x5C1 PUSH3 0x5B8 DUP6 PUSH3 0x44D JUMP JUMPDEST DUP4 ADD DUP3 PUSH3 0x552 JUMP JUMPDEST POP POP JUMPDEST POP POP POP JUMP JUMPDEST PUSH1 0x0 DUP3 DUP3 SHR SWAP1 POP SWAP3 SWAP2 POP POP JUMP JUMPDEST PUSH1 0x0 PUSH3 0x5E9 PUSH1 0x0 NOT DUP5 PUSH1 0x8 MUL PUSH3 0x5C9 JUMP JUMPDEST NOT DUP1 DUP4 AND SWAP2 POP POP SWAP3 SWAP2 POP POP JUMP JUMPDEST PUSH1 0x0 PUSH3 0x604 DUP4 DUP4 PUSH3 0x5D6 JUMP JUMPDEST SWAP2 POP DUP3 PUSH1 0x2 MUL DUP3 OR SWAP1 POP SWAP3 SWAP2 POP POP JUMP JUMPDEST PUSH3 0x61F DUP3 PUSH3 0x39A JUMP JUMPDEST PUSH8 0xFFFFFFFFFFFFFFFF DUP2 GT ISZERO PUSH3 0x63B JUMPI PUSH3 0x63A PUSH3 0x3A5 JUMP JUMPDEST JUMPDEST PUSH3 0x647 DUP3 SLOAD PUSH3 0x403 JUMP JUMPDEST PUSH3 0x654 DUP3 DUP3 DUP6 PUSH3 0x579 JUMP JUMPDEST PUSH1 0x0 PUSH1 0x20 SWAP1 POP PUSH1 0x1F DUP4 GT PUSH1 0x1 DUP2 EQ PUSH3 0x68C JUMPI PUSH1 0x0 DUP5 ISZERO PUSH3 0x677 JUMPI DUP3 DUP8 ADD MLOAD SWAP1 POP JUMPDEST PUSH3 0x683 DUP6 DUP3 PUSH3 0x5F6 JUMP JUMPDEST DUP7 SSTORE POP PUSH3 0x6F3 JUMP JUMPDEST PUSH1 0x1F NOT DUP5 AND PUSH3 0x69C DUP7 PUSH3 0x438 JUMP JUMPDEST PUSH1 0x0 JUMPDEST DUP3 DUP2 LT ISZERO PUSH3 0x6C6 JUMPI DUP5 DUP10 ADD MLOAD DUP3 SSTORE PUSH1 0x1 DUP3 ADD SWAP2 POP PUSH1 0x20 DUP6 ADD SWAP5 POP PUSH1 0x20 DUP2 ADD SWAP1 POP PUSH3 0x69F JUMP JUMPDEST DUP7 DUP4 LT ISZERO PUSH3 0x6E6 JUMPI DUP5 DUP10 ADD MLOAD PUSH3 0x6E2 PUSH1 0x1F DUP10 AND DUP3 PUSH3 0x5D6 JUMP JUMPDEST DUP4 SSTORE POP JUMPDEST PUSH1 0x1 PUSH1 0x2 DUP9 MUL ADD DUP9 SSTORE POP POP POP JUMPDEST POP POP POP POP POP POP JUMP JUMPDEST PUSH1 0x0 DUP1 REVERT JUMPDEST PUSH1 0x0 PUSH20 0xFFFFFFFFFFFFFFFFFFFFFFFFFFFFFFFFFFFFFFFF DUP3 AND SWAP1 POP SWAP2 SWAP1 POP JUMP JUMPDEST PUSH1 0x0 PUSH3 0x72D DUP3 PUSH3 0x700 JUMP JUMPDEST SWAP1 POP SWAP2 SWAP1 POP JUMP JUMPDEST PUSH3 0x73F DUP2 PUSH3 0x720 JUMP JUMPDEST DUP2 EQ PUSH3 0x74B JUMPI PUSH1 0x0 DUP1 REVERT JUMPDEST POP JUMP JUMPDEST PUSH1 0x0 DUP2 MLOAD SWAP1 POP PUSH3 0x75F DUP2 PUSH3 0x734 JUMP JUMPDEST SWAP3 SWAP2 POP POP JUMP JUMPDEST PUSH1 0x0 PUSH1 0x20 DUP3 DUP5 SUB SLT ISZERO PUSH3 0x77E JUMPI PUSH3 0x77D PUSH3 0x6FB JUMP JUMPDEST JUMPDEST PUSH1 0x0 PUSH3 0x78E DUP5 DUP3 DUP6 ADD PUSH3 0x74E JUMP JUMPDEST SWAP2 POP POP SWAP3 SWAP2 POP POP JUMP JUMPDEST PUSH2 0x467B DUP1 PUSH3 0x7A7 PUSH1 0x0 CODECOPY PUSH1 0x0 RETURN INVALID PUSH1 0x80 PUSH1 0x40 MSTORE PUSH1 0x4 CALLDATASIZE LT PUSH2 0x20F JUMPI PUSH1 0x0 CALLDATALOAD PUSH1 0xE0 SHR DUP1 PUSH4 0x714C5398 GT PUSH2 0x118 JUMPI DUP1 PUSH4 0xA35E1370 GT PUSH2 0xA0 JUMPI DUP1 PUSH4 0xD5070B3E GT PUSH2 0x6F JUMPI DUP1 PUSH4 0xD5070B3E EQ PUSH2 0x790 JUMPI DUP1 PUSH4 0xE985E9C5 EQ PUSH2 0x7BB JUMPI DUP1 PUSH4 0xEA317FFF EQ PUSH2 0x7F8 JUMPI DUP1 PUSH4 0xF1645238 EQ PUSH2 0x823 JUMPI DUP1 PUSH4 0xF2FDE38B EQ PUSH2 0x84C JUMPI PUSH2 0x20F JUMP JUMPDEST DUP1 PUSH4 0xA35E1370 EQ PUSH2 0x6C2 JUMPI DUP1 PUSH4 0xA574CEA4 EQ PUSH2 0x6ED JUMPI DUP1 PUSH4 0xB88D4FDE EQ PUSH2 0x72A JUMPI DUP1 PUSH4 0xC87B56DD EQ PUSH2 0x753 JUMPI PUSH2 0x20F JUMP JUMPDEST DUP1 PUSH4 0x8DA5CB5B GT PUSH2 0xE7 JUMPI DUP1 PUSH4 0x8DA5CB5B EQ PUSH2 0x5DD JUMPI DUP1 PUSH4 0x95D89B41 EQ PUSH2 0x608 JUMPI DUP1 PUSH4 0x9C50DA75 EQ PUSH2 0x633 JUMPI DUP1 PUSH4 0xA22CB465 EQ PUSH2 0x670 JUMPI DUP1 PUSH4 0xA31B115F EQ PUSH2 0x699 JUMPI PUSH2 0x20F JUMP JUMPDEST DUP1 PUSH4 0x714C5398 EQ PUSH2 0x559 JUMPI DUP1 PUSH4 0x715018A6 EQ PUSH2 0x584 JUMPI DUP1 PUSH4 0x729A1A87 EQ PUSH2 0x59B JUMPI DUP1 PUSH4 0x88456B7B EQ PUSH2 0x5C6 JUMPI PUSH2 0x20F JUMP JUMPDEST DUP1 PUSH4 0x2B8C41F4 GT PUSH2 0x19B JUMPI DUP1 PUSH4 0x42842E0E GT PUSH2 0x16A JUMPI DUP1 PUSH4 0x42842E0E EQ PUSH2 0x462 JUMPI DUP1 PUSH4 0x52556421 EQ PUSH2 0x48B JUMPI DUP1 PUSH4 0x55F804B3 EQ PUSH2 0x4B6 JUMPI DUP1 PUSH4 0x6352211E EQ PUSH2 0x4DF JUMPI DUP1 PUSH4 0x70A08231 EQ PUSH2 0x51C JUMPI PUSH2 0x20F JUMP JUMPDEST DUP1 PUSH4 0x2B8C41F4 EQ PUSH2 0x3A6 JUMPI DUP1 PUSH4 0x37E08699 EQ PUSH2 0x3CF JUMPI DUP1 PUSH4 0x3C168EAB EQ PUSH2 0x3FA JUMPI DUP1 PUSH4 0x3FB3FF11 EQ PUSH2 0x437 JUMPI PUSH2 0x20F JUMP JUMPDEST DUP1 PUSH4 0x816A3E2 GT PUSH2 0x1E2 JUMPI DUP1 PUSH4 0x816A3E2 EQ PUSH2 0x2C3 JUMPI DUP1 PUSH4 0x81812FC EQ PUSH2 0x2EC JUMPI DUP1 PUSH4 0x95EA7B3 EQ PUSH2 0x329 JUMPI DUP1 PUSH4 0x1ED54E78 EQ PUSH2 0x352 JUMPI DUP1 PUSH4 0x23B872DD EQ PUSH2 0x37D JUMPI PUSH2 0x20F JUMP JUMPDEST DUP1 PUSH4 0x1FFC9A7 EQ PUSH2 0x214 JUMPI DUP1 PUSH4 0x3C13380 EQ PUSH2 0x251 JUMPI DUP1 PUSH4 0x5F31572 EQ PUSH2 0x26D JUMPI DUP1 PUSH4 0x6FDDE03 EQ PUSH2 0x298 JUMPI JUMPDEST PUSH1 0x0 DUP1 REVERT JUMPDEST CALLVALUE DUP1 ISZERO PUSH2 0x220 JUMPI PUSH1 0x0 DUP1 REVERT JUMPDEST POP PUSH2 0x23B PUSH1 0x4 DUP1 CALLDATASIZE SUB DUP2 ADD SWAP1 PUSH2 0x236 SWAP2 SWAP1 PUSH2 0x2CD2 JUMP JUMPDEST PUSH2 0x875 JUMP JUMPDEST PUSH1 0x40 MLOAD PUSH2 0x248 SWAP2 SWAP1 PUSH2 0x2D1A JUMP JUMPDEST PUSH1 0x40 MLOAD DUP1 SWAP2 SUB SWAP1 RETURN JUMPDEST PUSH2 0x26B PUSH1 0x4 DUP1 CALLDATASIZE SUB DUP2 ADD SWAP1 PUSH2 0x266 SWAP2 SWAP1 PUSH2 0x2DC9 JUMP JUMPDEST PUSH2 0x8D6 JUMP JUMPDEST STOP JUMPDEST CALLVALUE DUP1 ISZERO PUSH2 0x279 JUMPI PUSH1 0x0 DUP1 REVERT JUMPDEST POP PUSH2 0x282 PUSH2 0x969 JUMP JUMPDEST PUSH1 0x40 MLOAD PUSH2 0x28F SWAP2 SWAP1 PUSH2 0x2D1A JUMP JUMPDEST PUSH1 0x40 MLOAD DUP1 SWAP2 SUB SWAP1 RETURN JUMPDEST CALLVALUE DUP1 ISZERO PUSH2 0x2A4 JUMPI PUSH1 0x0 DUP1 REVERT JUMPDEST POP PUSH2 0x2AD PUSH2 0x979 JUMP JUMPDEST PUSH1 0x40 MLOAD PUSH2 0x2BA SWAP2 SWAP1 PUSH2 0x2EC0 JUMP JUMPDEST PUSH1 0x40 MLOAD DUP1 SWAP2 SUB SWAP1 RETURN JUMPDEST CALLVALUE DUP1 ISZERO PUSH2 0x2CF JUMPI PUSH1 0x0 DUP1 REVERT JUMPDEST POP PUSH2 0x2EA PUSH1 0x4 DUP1 CALLDATASIZE SUB DUP2 ADD SWAP1 PUSH2 0x2E5 SWAP2 SWAP1 PUSH2 0x3017 JUMP JUMPDEST PUSH2 0xA0B JUMP JUMPDEST STOP JUMPDEST CALLVALUE DUP1 ISZERO PUSH2 0x2F8 JUMPI PUSH1 0x0 DUP1 REVERT JUMPDEST POP PUSH2 0x313 PUSH1 0x4 DUP1 CALLDATASIZE SUB DUP2 ADD SWAP1 PUSH2 0x30E SWAP2 SWAP1 PUSH2 0x3060 JUMP JUMPDEST PUSH2 0xA26 JUMP JUMPDEST PUSH1 0x40 MLOAD PUSH2 0x320 SWAP2 SWAP1 PUSH2 0x30AE JUMP JUMPDEST PUSH1 0x40 MLOAD DUP1 SWAP2 SUB SWAP1 RETURN JUMPDEST CALLVALUE DUP1 ISZERO PUSH2 0x335 JUMPI PUSH1 0x0 DUP1 REVERT JUMPDEST POP PUSH2 0x350 PUSH1 0x4 DUP1 CALLDATASIZE SUB DUP2 ADD SWAP1 PUSH2 0x34B SWAP2 SWAP1 PUSH2 0x30F5 JUMP JUMPDEST PUSH2 0xA6C JUMP JUMPDEST STOP JUMPDEST CALLVALUE DUP1 ISZERO PUSH2 0x35E JUMPI PUSH1 0x0 DUP1 REVERT JUMPDEST POP PUSH2 0x367 PUSH2 0xB83 JUMP JUMPDEST PUSH1 0x40 MLOAD PUSH2 0x374 SWAP2 SWAP1 PUSH2 0x3144 JUMP JUMPDEST PUSH1 0x40 MLOAD DUP1 SWAP2 SUB SWAP1 RETURN JUMPDEST CALLVALUE DUP1 ISZERO PUSH2 0x389 JUMPI PUSH1 0x0 DUP1 REVERT JUMPDEST POP PUSH2 0x3A4 PUSH1 0x4 DUP1 CALLDATASIZE SUB DUP2 ADD SWAP1 PUSH2 0x39F SWAP2 SWAP1 PUSH2 0x315F JUMP JUMPDEST PUSH2 0xBD2 JUMP JUMPDEST STOP JUMPDEST CALLVALUE DUP1 ISZERO PUSH2 0x3B2 JUMPI PUSH1 0x0 DUP1 REVERT JUMPDEST POP PUSH2 0x3CD PUSH1 0x4 DUP1 CALLDATASIZE SUB DUP2 ADD SWAP1 PUSH2 0x3C8 SWAP2 SWAP1 PUSH2 0x3017 JUMP JUMPDEST PUSH2 0xC32 JUMP JUMPDEST STOP JUMPDEST CALLVALUE DUP1 ISZERO PUSH2 0x3DB JUMPI PUSH1 0x0 DUP1 REVERT JUMPDEST POP PUSH2 0x3E4 PUSH2 0xC4D JUMP JUMPDEST PUSH1 0x40 MLOAD PUSH2 0x3F1 SWAP2 SWAP1 PUSH2 0x2D1A JUMP JUMPDEST PUSH1 0x40 MLOAD DUP1 SWAP2 SUB SWAP1 RETURN JUMPDEST CALLVALUE DUP1 ISZERO PUSH2 0x406 JUMPI PUSH1 0x0 DUP1 REVERT JUMPDEST POP PUSH2 0x421 PUSH1 0x4 DUP1 CALLDATASIZE SUB DUP2 ADD SWAP1 PUSH2 0x41C SWAP2 SWAP1 PUSH2 0x30F5 JUMP JUMPDEST PUSH2 0xC77 JUMP JUMPDEST PUSH1 0x40 MLOAD PUSH2 0x42E SWAP2 SWAP1 PUSH2 0x3144 JUMP JUMPDEST PUSH1 0x40 MLOAD DUP1 SWAP2 SUB SWAP1 RETURN JUMPDEST CALLVALUE DUP1 ISZERO PUSH2 0x443 JUMPI PUSH1 0x0 DUP1 REVERT JUMPDEST POP PUSH2 0x44C PUSH2 0xD08 JUMP JUMPDEST PUSH1 0x40 MLOAD PUSH2 0x459 SWAP2 SWAP1 PUSH2 0x3144 JUMP JUMPDEST PUSH1 0x40 MLOAD DUP1 SWAP2 SUB SWAP1 RETURN JUMPDEST CALLVALUE DUP1 ISZERO PUSH2 0x46E JUMPI PUSH1 0x0 DUP1 REVERT JUMPDEST POP PUSH2 0x489 PUSH1 0x4 DUP1 CALLDATASIZE SUB DUP2 ADD SWAP1 PUSH2 0x484 SWAP2 SWAP1 PUSH2 0x315F JUMP JUMPDEST PUSH2 0xD6A JUMP JUMPDEST STOP JUMPDEST CALLVALUE DUP1 ISZERO PUSH2 0x497 JUMPI PUSH1 0x0 DUP1 REVERT JUMPDEST POP PUSH2 0x4A0 PUSH2 0xD8A JUMP JUMPDEST PUSH1 0x40 MLOAD PUSH2 0x4AD SWAP2 SWAP1 PUSH2 0x30AE JUMP JUMPDEST PUSH1 0x40 MLOAD DUP1 SWAP2 SUB SWAP1 RETURN JUMPDEST CALLVALUE DUP1 ISZERO PUSH2 0x4C2 JUMPI PUSH1 0x0 DUP1 REVERT JUMPDEST POP PUSH2 0x4DD PUSH1 0x4 DUP1 CALLDATASIZE SUB DUP2 ADD SWAP1 PUSH2 0x4D8 SWAP2 SWAP1 PUSH2 0x3017 JUMP JUMPDEST PUSH2 0xDB7 JUMP JUMPDEST STOP JUMPDEST CALLVALUE DUP1 ISZERO PUSH2 0x4EB JUMPI PUSH1 0x0 DUP1 REVERT JUMPDEST POP PUSH2 0x506 PUSH1 0x4 DUP1 CALLDATASIZE SUB DUP2 ADD SWAP1 PUSH2 0x501 SWAP2 SWAP1 PUSH2 0x3060 JUMP JUMPDEST PUSH2 0xDD2 JUMP JUMPDEST PUSH1 0x40 MLOAD PUSH2 0x513 SWAP2 SWAP1 PUSH2 0x30AE JUMP JUMPDEST PUSH1 0x40 MLOAD DUP1 SWAP2 SUB SWAP1 RETURN JUMPDEST CALLVALUE DUP1 ISZERO PUSH2 0x528 JUMPI PUSH1 0x0 DUP1 REVERT JUMPDEST POP PUSH2 0x543 PUSH1 0x4 DUP1 CALLDATASIZE SUB DUP2 ADD SWAP1 PUSH2 0x53E SWAP2 SWAP1 PUSH2 0x31B2 JUMP JUMPDEST PUSH2 0xE58 JUMP JUMPDEST PUSH1 0x40 MLOAD PUSH2 0x550 SWAP2 SWAP1 PUSH2 0x3144 JUMP JUMPDEST PUSH1 0x40 MLOAD DUP1 SWAP2 SUB SWAP1 RETURN JUMPDEST CALLVALUE DUP1 ISZERO PUSH2 0x565 JUMPI PUSH1 0x0 DUP1 REVERT JUMPDEST POP PUSH2 0x56E PUSH2 0xF0F JUMP JUMPDEST PUSH1 0x40 MLOAD PUSH2 0x57B SWAP2 SWAP1 PUSH2 0x2EC0 JUMP JUMPDEST PUSH1 0x40 MLOAD DUP1 SWAP2 SUB SWAP1 RETURN JUMPDEST CALLVALUE DUP1 ISZERO PUSH2 0x590 JUMPI PUSH1 0x0 DUP1 REVERT JUMPDEST POP PUSH2 0x599 PUSH2 0xFA1 JUMP JUMPDEST STOP JUMPDEST CALLVALUE DUP1 ISZERO PUSH2 0x5A7 JUMPI PUSH1 0x0 DUP1 REVERT JUMPDEST POP PUSH2 0x5B0 PUSH2 0xFB5 JUMP JUMPDEST PUSH1 0x40 MLOAD PUSH2 0x5BD SWAP2 SWAP1 PUSH2 0x3144 JUMP JUMPDEST PUSH1 0x40 MLOAD DUP1 SWAP2 SUB SWAP1 RETURN JUMPDEST CALLVALUE DUP1 ISZERO PUSH2 0x5D2 JUMPI PUSH1 0x0 DUP1 REVERT JUMPDEST POP PUSH2 0x5DB PUSH2 0xFC2 JUMP JUMPDEST STOP JUMPDEST CALLVALUE DUP1 ISZERO PUSH2 0x5E9 JUMPI PUSH1 0x0 DUP1 REVERT JUMPDEST POP PUSH2 0x5F2 PUSH2 0x1070 JUMP JUMPDEST PUSH1 0x40 MLOAD PUSH2 0x5FF SWAP2 SWAP1 PUSH2 0x30AE JUMP JUMPDEST PUSH1 0x40 MLOAD DUP1 SWAP2 SUB SWAP1 RETURN JUMPDEST CALLVALUE DUP1 ISZERO PUSH2 0x614 JUMPI PUSH1 0x0 DUP1 REVERT JUMPDEST POP PUSH2 0x61D PUSH2 0x109A JUMP JUMPDEST PUSH1 0x40 MLOAD PUSH2 0x62A SWAP2 SWAP1 PUSH2 0x2EC0 JUMP JUMPDEST PUSH1 0x40 MLOAD DUP1 SWAP2 SUB SWAP1 RETURN JUMPDEST CALLVALUE DUP1 ISZERO PUSH2 0x63F JUMPI PUSH1 0x0 DUP1 REVERT JUMPDEST POP PUSH2 0x65A PUSH1 0x4 DUP1 CALLDATASIZE SUB DUP2 ADD SWAP1 PUSH2 0x655 SWAP2 SWAP1 PUSH2 0x31B2 JUMP JUMPDEST PUSH2 0x112C JUMP JUMPDEST PUSH1 0x40 MLOAD PUSH2 0x667 SWAP2 SWAP1 PUSH2 0x329D JUMP JUMPDEST PUSH1 0x40 MLOAD DUP1 SWAP2 SUB SWAP1 RETURN JUMPDEST CALLVALUE DUP1 ISZERO PUSH2 0x67C JUMPI PUSH1 0x0 DUP1 REVERT JUMPDEST POP PUSH2 0x697 PUSH1 0x4 DUP1 CALLDATASIZE SUB DUP2 ADD SWAP1 PUSH2 0x692 SWAP2 SWAP1 PUSH2 0x32EB JUMP JUMPDEST PUSH2 0x11C3 JUMP JUMPDEST STOP JUMPDEST CALLVALUE DUP1 ISZERO PUSH2 0x6A5 JUMPI PUSH1 0x0 DUP1 REVERT JUMPDEST POP PUSH2 0x6C0 PUSH1 0x4 DUP1 CALLDATASIZE SUB DUP2 ADD SWAP1 PUSH2 0x6BB SWAP2 SWAP1 PUSH2 0x3017 JUMP JUMPDEST PUSH2 0x11D9 JUMP JUMPDEST STOP JUMPDEST CALLVALUE DUP1 ISZERO PUSH2 0x6CE JUMPI PUSH1 0x0 DUP1 REVERT JUMPDEST POP PUSH2 0x6D7 PUSH2 0x11F4 JUMP JUMPDEST PUSH1 0x40 MLOAD PUSH2 0x6E4 SWAP2 SWAP1 PUSH2 0x2EC0 JUMP JUMPDEST PUSH1 0x40 MLOAD DUP1 SWAP2 SUB SWAP1 RETURN JUMPDEST CALLVALUE DUP1 ISZERO PUSH2 0x6F9 JUMPI PUSH1 0x0 DUP1 REVERT JUMPDEST POP PUSH2 0x714 PUSH1 0x4 DUP1 CALLDATASIZE SUB DUP2 ADD SWAP1 PUSH2 0x70F SWAP2 SWAP1 PUSH2 0x3060 JUMP JUMPDEST PUSH2 0x1286 JUMP JUMPDEST PUSH1 0x40 MLOAD PUSH2 0x721 SWAP2 SWAP1 PUSH2 0x3493 JUMP JUMPDEST PUSH1 0x40 MLOAD DUP1 SWAP2 SUB SWAP1 RETURN JUMPDEST CALLVALUE DUP1 ISZERO PUSH2 0x736 JUMPI PUSH1 0x0 DUP1 REVERT JUMPDEST POP PUSH2 0x751 PUSH1 0x4 DUP1 CALLDATASIZE SUB DUP2 ADD SWAP1 PUSH2 0x74C SWAP2 SWAP1 PUSH2 0x3556 JUMP JUMPDEST PUSH2 0x14B6 JUMP JUMPDEST STOP JUMPDEST CALLVALUE DUP1 ISZERO PUSH2 0x75F JUMPI PUSH1 0x0 DUP1 REVERT JUMPDEST POP PUSH2 0x77A PUSH1 0x4 DUP1 CALLDATASIZE SUB DUP2 ADD SWAP1 PUSH2 0x775 SWAP2 SWAP1 PUSH2 0x3060 JUMP JUMPDEST PUSH2 0x1518 JUMP JUMPDEST PUSH1 0x40 MLOAD PUSH2 0x787 SWAP2 SWAP1 PUSH2 0x2EC0 JUMP JUMPDEST PUSH1 0x40 MLOAD DUP1 SWAP2 SUB SWAP1 RETURN JUMPDEST CALLVALUE DUP1 ISZERO PUSH2 0x79C JUMPI PUSH1 0x0 DUP1 REVERT JUMPDEST POP PUSH2 0x7A5 PUSH2 0x162A JUMP JUMPDEST PUSH1 0x40 MLOAD PUSH2 0x7B2 SWAP2 SWAP1 PUSH2 0x369E JUMP JUMPDEST PUSH1 0x40 MLOAD DUP1 SWAP2 SUB SWAP1 RETURN JUMPDEST CALLVALUE DUP1 ISZERO PUSH2 0x7C7 JUMPI PUSH1 0x0 DUP1 REVERT JUMPDEST POP PUSH2 0x7E2 PUSH1 0x4 DUP1 CALLDATASIZE SUB DUP2 ADD SWAP1 PUSH2 0x7DD SWAP2 SWAP1 PUSH2 0x36C0 JUMP JUMPDEST PUSH2 0x1773 JUMP JUMPDEST PUSH1 0x40 MLOAD PUSH2 0x7EF SWAP2 SWAP1 PUSH2 0x2D1A JUMP JUMPDEST PUSH1 0x40 MLOAD DUP1 SWAP2 SUB SWAP1 RETURN JUMPDEST CALLVALUE DUP1 ISZERO PUSH2 0x804 JUMPI PUSH1 0x0 DUP1 REVERT JUMPDEST POP PUSH2 0x80D PUSH2 0x1807 JUMP JUMPDEST PUSH1 0x40 MLOAD PUSH2 0x81A SWAP2 SWAP1 PUSH2 0x2D1A JUMP JUMPDEST PUSH1 0x40 MLOAD DUP1 SWAP2 SUB SWAP1 RETURN JUMPDEST CALLVALUE DUP1 ISZERO PUSH2 0x82F JUMPI PUSH1 0x0 DUP1 REVERT JUMPDEST POP PUSH2 0x84A PUSH1 0x4 DUP1 CALLDATASIZE SUB DUP2 ADD SWAP1 PUSH2 0x845 SWAP2 SWAP1 PUSH2 0x3700 JUMP JUMPDEST PUSH2 0x1816 JUMP JUMPDEST STOP JUMPDEST CALLVALUE DUP1 ISZERO PUSH2 0x858 JUMPI PUSH1 0x0 DUP1 REVERT JUMPDEST POP PUSH2 0x873 PUSH1 0x4 DUP1 CALLDATASIZE SUB DUP2 ADD SWAP1 PUSH2 0x86E SWAP2 SWAP1 PUSH2 0x31B2 JUMP JUMPDEST PUSH2 0x1876 JUMP JUMPDEST STOP JUMPDEST PUSH1 0x0 PUSH4 0x49064906 PUSH1 0xE0 SHL PUSH28 0xFFFFFFFFFFFFFFFFFFFFFFFFFFFFFFFFFFFFFFFFFFFFFFFFFFFFFFFF NOT AND DUP3 PUSH28 0xFFFFFFFFFFFFFFFFFFFFFFFFFFFFFFFFFFFFFFFFFFFFFFFFFFFFFFFF NOT AND EQ DUP1 PUSH2 0x8CF JUMPI POP PUSH2 0x8CE DUP3 PUSH2 0x18F9 JUMP JUMPDEST JUMPDEST SWAP1 POP SWAP2 SWAP1 POP JUMP JUMPDEST PUSH2 0x8E1 DUP5 DUP5 DUP4 PUSH2 0xD6A JUMP JUMPDEST DUP3 PUSH20 0xFFFFFFFFFFFFFFFFFFFFFFFFFFFFFFFFFFFFFFFF AND PUSH2 0x8FC DUP4 SWAP1 DUP2 ISZERO MUL SWAP1 PUSH1 0x40 MLOAD PUSH1 0x0 PUSH1 0x40 MLOAD DUP1 DUP4 SUB DUP2 DUP6 DUP9 DUP9 CALL SWAP4 POP POP POP POP ISZERO DUP1 ISZERO PUSH2 0x927 JUMPI RETURNDATASIZE PUSH1 0x0 DUP1 RETURNDATACOPY RETURNDATASIZE PUSH1 0x0 REVERT JUMPDEST POP PUSH32 0x608F6AC9327C2BF4D3C77ADF447D2C448BA7B0971E0AAA9AA03F7AC29D874A44 DUP5 CALLER CALLVALUE PUSH1 0x40 MLOAD PUSH2 0x95B SWAP4 SWAP3 SWAP2 SWAP1 PUSH2 0x37CE JUMP JUMPDEST PUSH1 0x40 MLOAD DUP1 SWAP2 SUB SWAP1 LOG1 POP POP POP POP JUMP JUMPDEST PUSH1 0x0 PUSH1 0x9 PUSH1 0x3 ADD SLOAD TIMESTAMP LT ISZERO SWAP1 POP SWAP1 JUMP JUMPDEST PUSH1 0x60 PUSH1 0x0 DUP1 SLOAD PUSH2 0x988 SWAP1 PUSH2 0x3834 JUMP JUMPDEST DUP1 PUSH1 0x1F ADD PUSH1 0x20 DUP1 SWAP2 DIV MUL PUSH1 0x20 ADD PUSH1 0x40 MLOAD SWAP1 DUP2 ADD PUSH1 0x40 MSTORE DUP1 SWAP3 SWAP2 SWAP1 DUP2 DUP2 MSTORE PUSH1 0x20 ADD DUP3 DUP1 SLOAD PUSH2 0x9B4 SWAP1 PUSH2 0x3834 JUMP JUMPDEST DUP1 ISZERO PUSH2 0xA01 JUMPI DUP1 PUSH1 0x1F LT PUSH2 0x9D6 JUMPI PUSH2 0x100 DUP1 DUP4 SLOAD DIV MUL DUP4 MSTORE SWAP2 PUSH1 0x20 ADD SWAP2 PUSH2 0xA01 JUMP JUMPDEST DUP3 ADD SWAP2 SWAP1 PUSH1 0x0 MSTORE PUSH1 0x20 PUSH1 0x0 KECCAK256 SWAP1 JUMPDEST DUP2 SLOAD DUP2 MSTORE SWAP1 PUSH1 0x1 ADD SWAP1 PUSH1 0x20 ADD DUP1 DUP4 GT PUSH2 0x9E4 JUMPI DUP3 SWAP1 SUB PUSH1 0x1F AND DUP3 ADD SWAP2 JUMPDEST POP POP POP POP POP SWAP1 POP SWAP1 JUMP JUMPDEST PUSH2 0xA13 PUSH2 0x19DB JUMP JUMPDEST DUP1 PUSH1 0x17 SWAP1 DUP2 PUSH2 0xA22 SWAP2 SWAP1 PUSH2 0x3A07 JUMP JUMPDEST POP POP JUMP JUMPDEST PUSH1 0x0 PUSH2 0xA31 DUP3 PUSH2 0x1A59 JUMP JUMPDEST PUSH1 0x4 PUSH1 0x0 DUP4 DUP2 MSTORE PUSH1 0x20 ADD SWAP1 DUP2 MSTORE PUSH1 0x20 ADD PUSH1 0x0 KECCAK256 PUSH1 0x0 SWAP1 SLOAD SWAP1 PUSH2 0x100 EXP SWAP1 DIV PUSH20 0xFFFFFFFFFFFFFFFFFFFFFFFFFFFFFFFFFFFFFFFF AND SWAP1 POP SWAP2 SWAP1 POP JUMP JUMPDEST PUSH1 0x0 PUSH2 0xA77 DUP3 PUSH2 0xDD2 JUMP JUMPDEST SWAP1 POP DUP1 PUSH20 0xFFFFFFFFFFFFFFFFFFFFFFFFFFFFFFFFFFFFFFFF AND DUP4 PUSH20 0xFFFFFFFFFFFFFFFFFFFFFFFFFFFFFFFFFFFFFFFF AND SUB PUSH2 0xAE7 JUMPI PUSH1 0x40 MLOAD PUSH32 0x8C379A000000000000000000000000000000000000000000000000000000000 DUP2 MSTORE PUSH1 0x4 ADD PUSH2 0xADE SWAP1 PUSH2 0x3B4B JUMP JUMPDEST PUSH1 0x40 MLOAD DUP1 SWAP2 SUB SWAP1 REVERT JUMPDEST DUP1 PUSH20 0xFFFFFFFFFFFFFFFFFFFFFFFFFFFFFFFFFFFFFFFF AND PUSH2 0xB06 PUSH2 0x1AA4 JUMP JUMPDEST PUSH20 0xFFFFFFFFFFFFFFFFFFFFFFFFFFFFFFFFFFFFFFFF AND EQ DUP1 PUSH2 0xB35 JUMPI POP PUSH2 0xB34 DUP2 PUSH2 0xB2F PUSH2 0x1AA4 JUMP JUMPDEST PUSH2 0x1773 JUMP JUMPDEST JUMPDEST PUSH2 0xB74 JUMPI PUSH1 0x40 MLOAD PUSH32 0x8C379A000000000000000000000000000000000000000000000000000000000 DUP2 MSTORE PUSH1 0x4 ADD PUSH2 0xB6B SWAP1 PUSH2 0x3BDD JUMP JUMPDEST PUSH1 0x40 MLOAD DUP1 SWAP2 SUB SWAP1 REVERT JUMPDEST PUSH2 0xB7E DUP4 DUP4 PUSH2 0x1AAC JUMP JUMPDEST POP POP POP JUMP JUMPDEST PUSH1 0x0 PUSH2 0xB8D PUSH2 0x969 JUMP JUMPDEST PUSH2 0xBCA JUMPI PUSH1 0x9 PUSH1 0x7 ADD SLOAD PUSH1 0xA PUSH2 0xBA3 SWAP2 SWAP1 PUSH2 0x3D5F JUMP JUMPDEST PUSH1 0x9 PUSH1 0x4 ADD SLOAD PUSH1 0x9 PUSH1 0x6 ADD SLOAD PUSH2 0xBB9 SWAP2 SWAP1 PUSH2 0x3DAA JUMP JUMPDEST PUSH2 0xBC3 SWAP2 SWAP1 PUSH2 0x3E1B JUMP JUMPDEST SWAP1 POP PUSH2 0xBCF JUMP JUMPDEST PUSH1 0x0 SWAP1 POP JUMPDEST SWAP1 JUMP JUMPDEST PUSH2 0xBE3 PUSH2 0xBDD PUSH2 0x1AA4 JUMP JUMPDEST DUP3 PUSH2 0x1B65 JUMP JUMPDEST PUSH2 0xC22 JUMPI PUSH1 0x40 MLOAD PUSH32 0x8C379A000000000000000000000000000000000000000000000000000000000 DUP2 MSTORE PUSH1 0x4 ADD PUSH2 0xC19 SWAP1 PUSH2 0x3EBE JUMP JUMPDEST PUSH1 0x40 MLOAD DUP1 SWAP2 SUB SWAP1 REVERT JUMPDEST PUSH2 0xC2D DUP4 DUP4 DUP4 PUSH2 0x1BFA JUMP JUMPDEST POP POP POP JUMP JUMPDEST PUSH2 0xC3A PUSH2 0x19DB JUMP JUMPDEST DUP1 PUSH1 0x16 SWAP1 DUP2 PUSH2 0xC49 SWAP2 SWAP1 PUSH2 0x3A07 JUMP JUMPDEST POP POP JUMP JUMPDEST PUSH1 0x0 DUP1 PUSH1 0x9 PUSH1 0x5 ADD SLOAD PUSH1 0x9 PUSH1 0x2 ADD SLOAD TIMESTAMP PUSH2 0xC67 SWAP2 SWAP1 PUSH2 0x3EDE JUMP JUMPDEST PUSH2 0xC71 SWAP2 SWAP1 PUSH2 0x3F12 JUMP JUMPDEST EQ SWAP1 POP SWAP1 JUMP JUMPDEST PUSH1 0x0 PUSH2 0xC81 PUSH2 0x19DB JUMP JUMPDEST PUSH1 0x9 PUSH1 0x8 ADD SLOAD PUSH2 0xC91 PUSH1 0x8 PUSH2 0x1EF3 JUMP JUMPDEST LT PUSH2 0xCD1 JUMPI PUSH1 0x40 MLOAD PUSH32 0x8C379A000000000000000000000000000000000000000000000000000000000 DUP2 MSTORE PUSH1 0x4 ADD PUSH2 0xCC8 SWAP1 PUSH2 0x3FB5 JUMP JUMPDEST PUSH1 0x40 MLOAD DUP1 SWAP2 SUB SWAP1 REVERT JUMPDEST PUSH2 0xCDB PUSH1 0x8 PUSH2 0x1F01 JUMP JUMPDEST PUSH1 0x0 PUSH2 0xCE7 PUSH1 0x8 PUSH2 0x1EF3 JUMP JUMPDEST SWAP1 POP PUSH2 0xCF3 DUP5 DUP3 PUSH2 0x1F17 JUMP JUMPDEST PUSH2 0xCFE DUP2 DUP5 DUP7 PUSH2 0x2134 JUMP JUMPDEST DUP1 SWAP2 POP POP SWAP3 SWAP2 POP POP JUMP JUMPDEST PUSH1 0x0 PUSH2 0xD12 PUSH2 0x969 JUMP JUMPDEST PUSH2 0xD62 JUMPI PUSH1 0x0 PUSH2 0xD20 PUSH2 0xB83 JUMP JUMPDEST SWAP1 POP PUSH1 0x0 PUSH1 0x9 PUSH1 0x5 ADD SLOAD PUSH1 0x9 PUSH1 0x3 ADD SLOAD TIMESTAMP PUSH2 0xD3B SWAP2 SWAP1 PUSH2 0x3EDE JUMP JUMPDEST PUSH2 0xD45 SWAP2 SWAP1 PUSH2 0x3E1B JUMP JUMPDEST SWAP1 POP PUSH1 0x0 DUP2 DUP4 PUSH2 0xD55 SWAP2 SWAP1 PUSH2 0x3DAA JUMP JUMPDEST SWAP1 POP DUP1 SWAP4 POP POP POP POP PUSH2 0xD67 JUMP JUMPDEST PUSH1 0x0 SWAP1 POP JUMPDEST SWAP1 JUMP JUMPDEST PUSH2 0xD85 DUP4 DUP4 DUP4 PUSH1 0x40 MLOAD DUP1 PUSH1 0x20 ADD PUSH1 0x40 MSTORE DUP1 PUSH1 0x0 DUP2 MSTORE POP PUSH2 0x14B6 JUMP JUMPDEST POP POP POP JUMP JUMPDEST PUSH1 0x0 PUSH1 0x9 PUSH1 0x0 ADD PUSH1 0x0 SWAP1 SLOAD SWAP1 PUSH2 0x100 EXP SWAP1 DIV PUSH20 0xFFFFFFFFFFFFFFFFFFFFFFFFFFFFFFFFFFFFFFFF AND SWAP1 POP SWAP1 JUMP JUMPDEST PUSH2 0xDBF PUSH2 0x19DB JUMP JUMPDEST DUP1 PUSH1 0x14 SWAP1 DUP2 PUSH2 0xDCE SWAP2 SWAP1 PUSH2 0x3A07 JUMP JUMPDEST POP POP JUMP JUMPDEST PUSH1 0x0 DUP1 PUSH2 0xDDE DUP4 PUSH2 0x2334 JUMP JUMPDEST SWAP1 POP PUSH1 0x0 PUSH20 0xFFFFFFFFFFFFFFFFFFFFFFFFFFFFFFFFFFFFFFFF AND DUP2 PUSH20 0xFFFFFFFFFFFFFFFFFFFFFFFFFFFFFFFFFFFFFFFF AND SUB PUSH2 0xE4F JUMPI PUSH1 0x40 MLOAD PUSH32 0x8C379A000000000000000000000000000000000000000000000000000000000 DUP2 MSTORE PUSH1 0x4 ADD PUSH2 0xE46 SWAP1 PUSH2 0x4021 JUMP JUMPDEST PUSH1 0x40 MLOAD DUP1 SWAP2 SUB SWAP1 REVERT JUMPDEST DUP1 SWAP2 POP POP SWAP2 SWAP1 POP JUMP JUMPDEST PUSH1 0x0 DUP1 PUSH20 0xFFFFFFFFFFFFFFFFFFFFFFFFFFFFFFFFFFFFFFFF AND DUP3 PUSH20 0xFFFFFFFFFFFFFFFFFFFFFFFFFFFFFFFFFFFFFFFF AND SUB PUSH2 0xEC8 JUMPI PUSH1 0x40 MLOAD PUSH32 0x8C379A000000000000000000000000000000000000000000000000000000000 DUP2 MSTORE PUSH1 0x4 ADD PUSH2 0xEBF SWAP1 PUSH2 0x40B3 JUMP JUMPDEST PUSH1 0x40 MLOAD DUP1 SWAP2 SUB SWAP1 REVERT JUMPDEST PUSH1 0x3 PUSH1 0x0 DUP4 PUSH20 0xFFFFFFFFFFFFFFFFFFFFFFFFFFFFFFFFFFFFFFFF AND PUSH20 0xFFFFFFFFFFFFFFFFFFFFFFFFFFFFFFFFFFFFFFFF AND DUP2 MSTORE PUSH1 0x20 ADD SWAP1 DUP2 MSTORE PUSH1 0x20 ADD PUSH1 0x0 KECCAK256 SLOAD SWAP1 POP SWAP2 SWAP1 POP JUMP JUMPDEST PUSH1 0x60 PUSH1 0x14 DUP1 SLOAD PUSH2 0xF1E SWAP1 PUSH2 0x3834 JUMP JUMPDEST DUP1 PUSH1 0x1F ADD PUSH1 0x20 DUP1 SWAP2 DIV MUL PUSH1 0x20 ADD PUSH1 0x40 MLOAD SWAP1 DUP2 ADD PUSH1 0x40 MSTORE DUP1 SWAP3 SWAP2 SWAP1 DUP2 DUP2 MSTORE PUSH1 0x20 ADD DUP3 DUP1 SLOAD PUSH2 0xF4A SWAP1 PUSH2 0x3834 JUMP JUMPDEST DUP1 ISZERO PUSH2 0xF97 JUMPI DUP1 PUSH1 0x1F LT PUSH2 0xF6C JUMPI PUSH2 0x100 DUP1 DUP4 SLOAD DIV MUL DUP4 MSTORE SWAP2 PUSH1 0x20 ADD SWAP2 PUSH2 0xF97 JUMP JUMPDEST DUP3 ADD SWAP2 SWAP1 PUSH1 0x0 MSTORE PUSH1 0x20 PUSH1 0x0 KECCAK256 SWAP1 JUMPDEST DUP2 SLOAD DUP2 MSTORE SWAP1 PUSH1 0x1 ADD SWAP1 PUSH1 0x20 ADD DUP1 DUP4 GT PUSH2 0xF7A JUMPI DUP3 SWAP1 SUB PUSH1 0x1F AND DUP3 ADD SWAP2 JUMPDEST POP POP POP POP POP SWAP1 POP SWAP1 JUMP JUMPDEST PUSH2 0xFA9 PUSH2 0x19DB JUMP JUMPDEST PUSH2 0xFB3 PUSH1 0x0 PUSH2 0x2371 JUMP JUMPDEST JUMP JUMPDEST PUSH1 0x0 PUSH1 0x9 PUSH1 0x6 ADD SLOAD SWAP1 POP SWAP1 JUMP JUMPDEST PUSH2 0xFCA PUSH2 0x19DB JUMP JUMPDEST PUSH2 0xFD2 PUSH2 0x969 JUMP JUMPDEST PUSH2 0xFDB JUMPI PUSH1 0x0 DUP1 REVERT JUMPDEST PUSH2 0x106E PUSH1 0x15 DUP1 SLOAD PUSH2 0xFEB SWAP1 PUSH2 0x3834 JUMP JUMPDEST DUP1 PUSH1 0x1F ADD PUSH1 0x20 DUP1 SWAP2 DIV MUL PUSH1 0x20 ADD PUSH1 0x40 MLOAD SWAP1 DUP2 ADD PUSH1 0x40 MSTORE DUP1 SWAP3 SWAP2 SWAP1 DUP2 DUP2 MSTORE PUSH1 0x20 ADD DUP3 DUP1 SLOAD PUSH2 0x1017 SWAP1 PUSH2 0x3834 JUMP JUMPDEST DUP1 ISZERO PUSH2 0x1064 JUMPI DUP1 PUSH1 0x1F LT PUSH2 0x1039 JUMPI PUSH2 0x100 DUP1 DUP4 SLOAD DIV MUL DUP4 MSTORE SWAP2 PUSH1 0x20 ADD SWAP2 PUSH2 0x1064 JUMP JUMPDEST DUP3 ADD SWAP2 SWAP1 PUSH1 0x0 MSTORE PUSH1 0x20 PUSH1 0x0 KECCAK256 SWAP1 JUMPDEST DUP2 SLOAD DUP2 MSTORE SWAP1 PUSH1 0x1 ADD SWAP1 PUSH1 0x20 ADD DUP1 DUP4 GT PUSH2 0x1047 JUMPI DUP3 SWAP1 SUB PUSH1 0x1F AND DUP3 ADD SWAP2 JUMPDEST POP POP POP POP POP PUSH2 0xDB7 JUMP JUMPDEST JUMP JUMPDEST PUSH1 0x0 PUSH1 0x7 PUSH1 0x0 SWAP1 SLOAD SWAP1 PUSH2 0x100 EXP SWAP1 DIV PUSH20 0xFFFFFFFFFFFFFFFFFFFFFFFFFFFFFFFFFFFFFFFF AND SWAP1 POP SWAP1 JUMP JUMPDEST PUSH1 0x60 PUSH1 0x1 DUP1 SLOAD PUSH2 0x10A9 SWAP1 PUSH2 0x3834 JUMP JUMPDEST DUP1 PUSH1 0x1F ADD PUSH1 0x20 DUP1 SWAP2 DIV MUL PUSH1 0x20 ADD PUSH1 0x40 MLOAD SWAP1 DUP2 ADD PUSH1 0x40 MSTORE DUP1 SWAP3 SWAP2 SWAP1 DUP2 DUP2 MSTORE PUSH1 0x20 ADD DUP3 DUP1 SLOAD PUSH2 0x10D5 SWAP1 PUSH2 0x3834 JUMP JUMPDEST DUP1 ISZERO PUSH2 0x1122 JUMPI DUP1 PUSH1 0x1F LT PUSH2 0x10F7 JUMPI PUSH2 0x100 DUP1 DUP4 SLOAD DIV MUL DUP4 MSTORE SWAP2 PUSH1 0x20 ADD SWAP2 PUSH2 0x1122 JUMP JUMPDEST DUP3 ADD SWAP2 SWAP1 PUSH1 0x0 MSTORE PUSH1 0x20 PUSH1 0x0 KECCAK256 SWAP1 JUMPDEST DUP2 SLOAD DUP2 MSTORE SWAP1 PUSH1 0x1 ADD SWAP1 PUSH1 0x20 ADD DUP1 DUP4 GT PUSH2 0x1105 JUMPI DUP3 SWAP1 SUB PUSH1 0x1F AND DUP3 ADD SWAP2 JUMPDEST POP POP POP POP POP SWAP1 POP SWAP1 JUMP JUMPDEST PUSH1 0x60 PUSH1 0x13 PUSH1 0x0 DUP4 PUSH20 0xFFFFFFFFFFFFFFFFFFFFFFFFFFFFFFFFFFFFFFFF AND PUSH20 0xFFFFFFFFFFFFFFFFFFFFFFFFFFFFFFFFFFFFFFFF AND DUP2 MSTORE PUSH1 0x20 ADD SWAP1 DUP2 MSTORE PUSH1 0x20 ADD PUSH1 0x0 KECCAK256 DUP1 SLOAD DUP1 PUSH1 0x20 MUL PUSH1 0x20 ADD PUSH1 0x40 MLOAD SWAP1 DUP2 ADD PUSH1 0x40 MSTORE DUP1 SWAP3 SWAP2 SWAP1 DUP2 DUP2 MSTORE PUSH1 0x20 ADD DUP3 DUP1 SLOAD DUP1 ISZERO PUSH2 0x11B7 JUMPI PUSH1 0x20 MUL DUP3 ADD SWAP2 SWAP1 PUSH1 0x0 MSTORE PUSH1 0x20 PUSH1 0x0 KECCAK256 SWAP1 JUMPDEST DUP2 SLOAD DUP2 MSTORE PUSH1 0x20 ADD SWAP1 PUSH1 0x1 ADD SWAP1 DUP1 DUP4 GT PUSH2 0x11A3 JUMPI JUMPDEST POP POP POP POP POP SWAP1 POP SWAP2 SWAP1 POP JUMP JUMPDEST PUSH2 0x11D5 PUSH2 0x11CE PUSH2 0x1AA4 JUMP JUMPDEST DUP4 DUP4 PUSH2 0x2437 JUMP JUMPDEST POP POP JUMP JUMPDEST PUSH2 0x11E1 PUSH2 0x19DB JUMP JUMPDEST DUP1 PUSH1 0x15 SWAP1 DUP2 PUSH2 0x11F0 SWAP2 SWAP1 PUSH2 0x3A07 JUMP JUMPDEST POP POP JUMP JUMPDEST PUSH1 0x60 PUSH1 0x16 DUP1 SLOAD PUSH2 0x1203 SWAP1 PUSH2 0x3834 JUMP JUMPDEST DUP1 PUSH1 0x1F ADD PUSH1 0x20 DUP1 SWAP2 DIV MUL PUSH1 0x20 ADD PUSH1 0x40 MLOAD SWAP1 DUP2 ADD PUSH1 0x40 MSTORE DUP1 SWAP3 SWAP2 SWAP1 DUP2 DUP2 MSTORE PUSH1 0x20 ADD DUP3 DUP1 SLOAD PUSH2 0x122F SWAP1 PUSH2 0x3834 JUMP JUMPDEST DUP1 ISZERO PUSH2 0x127C JUMPI DUP1 PUSH1 0x1F LT PUSH2 0x1251 JUMPI PUSH2 0x100 DUP1 DUP4 SLOAD DIV MUL DUP4 MSTORE SWAP2 PUSH1 0x20 ADD SWAP2 PUSH2 0x127C JUMP JUMPDEST DUP3 ADD SWAP2 SWAP1 PUSH1 0x0 MSTORE PUSH1 0x20 PUSH1 0x0 KECCAK256 SWAP1 JUMPDEST DUP2 SLOAD DUP2 MSTORE SWAP1 PUSH1 0x1 ADD SWAP1 PUSH1 0x20 ADD DUP1 DUP4 GT PUSH2 0x125F JUMPI DUP3 SWAP1 SUB PUSH1 0x1F AND DUP3 ADD SWAP2 JUMPDEST POP POP POP POP POP SWAP1 POP SWAP1 JUMP JUMPDEST PUSH2 0x128E PUSH2 0x2B81 JUMP JUMPDEST PUSH1 0x12 PUSH1 0x0 DUP4 DUP2 MSTORE PUSH1 0x20 ADD SWAP1 DUP2 MSTORE PUSH1 0x20 ADD PUSH1 0x0 KECCAK256 PUSH1 0x40 MLOAD DUP1 PUSH1 0xA0 ADD PUSH1 0x40 MSTORE SWAP1 DUP2 PUSH1 0x0 DUP3 ADD SLOAD DUP2 MSTORE PUSH1 0x20 ADD PUSH1 0x1 DUP3 ADD SLOAD DUP2 MSTORE PUSH1 0x20 ADD PUSH1 0x2 DUP3 ADD SLOAD DUP2 MSTORE PUSH1 0x20 ADD PUSH1 0x3 DUP3 ADD PUSH1 0x40 MLOAD DUP1 PUSH1 0xA0 ADD PUSH1 0x40 MSTORE SWAP1 DUP2 PUSH1 0x0 DUP3 ADD DUP1 SLOAD PUSH2 0x12EA SWAP1 PUSH2 0x3834 JUMP JUMPDEST DUP1 PUSH1 0x1F ADD PUSH1 0x20 DUP1 SWAP2 DIV MUL PUSH1 0x20 ADD PUSH1 0x40 MLOAD SWAP1 DUP2 ADD PUSH1 0x40 MSTORE DUP1 SWAP3 SWAP2 SWAP1 DUP2 DUP2 MSTORE PUSH1 0x20 ADD DUP3 DUP1 SLOAD PUSH2 0x1316 SWAP1 PUSH2 0x3834 JUMP JUMPDEST DUP1 ISZERO PUSH2 0x1363 JUMPI DUP1 PUSH1 0x1F LT PUSH2 0x1338 JUMPI PUSH2 0x100 DUP1 DUP4 SLOAD DIV MUL DUP4 MSTORE SWAP2 PUSH1 0x20 ADD SWAP2 PUSH2 0x1363 JUMP JUMPDEST DUP3 ADD SWAP2 SWAP1 PUSH1 0x0 MSTORE PUSH1 0x20 PUSH1 0x0 KECCAK256 SWAP1 JUMPDEST DUP2 SLOAD DUP2 MSTORE SWAP1 PUSH1 0x1 ADD SWAP1 PUSH1 0x20 ADD DUP1 DUP4 GT PUSH2 0x1346 JUMPI DUP3 SWAP1 SUB PUSH1 0x1F AND DUP3 ADD SWAP2 JUMPDEST POP POP POP POP POP DUP2 MSTORE PUSH1 0x20 ADD PUSH1 0x1 DUP3 ADD DUP1 SLOAD PUSH2 0x137C SWAP1 PUSH2 0x3834 JUMP JUMPDEST DUP1 PUSH1 0x1F ADD PUSH1 0x20 DUP1 SWAP2 DIV MUL PUSH1 0x20 ADD PUSH1 0x40 MLOAD SWAP1 DUP2 ADD PUSH1 0x40 MSTORE DUP1 SWAP3 SWAP2 SWAP1 DUP2 DUP2 MSTORE PUSH1 0x20 ADD DUP3 DUP1 SLOAD PUSH2 0x13A8 SWAP1 PUSH2 0x3834 JUMP JUMPDEST DUP1 ISZERO PUSH2 0x13F5 JUMPI DUP1 PUSH1 0x1F LT PUSH2 0x13CA JUMPI PUSH2 0x100 DUP1 DUP4 SLOAD DIV MUL DUP4 MSTORE SWAP2 PUSH1 0x20 ADD SWAP2 PUSH2 0x13F5 JUMP JUMPDEST DUP3 ADD SWAP2 SWAP1 PUSH1 0x0 MSTORE PUSH1 0x20 PUSH1 0x0 KECCAK256 SWAP1 JUMPDEST DUP2 SLOAD DUP2 MSTORE SWAP1 PUSH1 0x1 ADD SWAP1 PUSH1 0x20 ADD DUP1 DUP4 GT PUSH2 0x13D8 JUMPI DUP3 SWAP1 SUB PUSH1 0x1F AND DUP3 ADD SWAP2 JUMPDEST POP POP POP POP POP DUP2 MSTORE PUSH1 0x20 ADD PUSH1 0x2 DUP3 ADD PUSH1 0x0 SWAP1 SLOAD SWAP1 PUSH2 0x100 EXP SWAP1 DIV PUSH1 0xFF AND PUSH1 0xFF AND PUSH1 0xFF AND DUP2 MSTORE PUSH1 0x20 ADD PUSH1 0x2 DUP3 ADD PUSH1 0x1 SWAP1 SLOAD SWAP1 PUSH2 0x100 EXP SWAP1 DIV PUSH1 0xFF AND PUSH1 0xFF AND PUSH1 0xFF AND DUP2 MSTORE PUSH1 0x20 ADD PUSH1 0x2 DUP3 ADD PUSH1 0x2 SWAP1 SLOAD SWAP1 PUSH2 0x100 EXP SWAP1 DIV PUSH1 0xFF AND PUSH1 0xFF AND PUSH1 0xFF AND DUP2 MSTORE POP POP DUP2 MSTORE PUSH1 0x20 ADD PUSH1 0x6 DUP3 ADD PUSH1 0x0 SWAP1 SLOAD SWAP1 PUSH2 0x100 EXP SWAP1 DIV PUSH20 0xFFFFFFFFFFFFFFFFFFFFFFFFFFFFFFFFFFFFFFFF AND PUSH20 0xFFFFFFFFFFFFFFFFFFFFFFFFFFFFFFFFFFFFFFFF AND PUSH20 0xFFFFFFFFFFFFFFFFFFFFFFFFFFFFFFFFFFFFFFFF AND DUP2 MSTORE POP POP SWAP1 POP SWAP2 SWAP1 POP JUMP JUMPDEST PUSH2 0x14C7 PUSH2 0x14C1 PUSH2 0x1AA4 JUMP JUMPDEST DUP4 PUSH2 0x1B65 JUMP JUMPDEST PUSH2 0x1506 JUMPI PUSH1 0x40 MLOAD PUSH32 0x8C379A000000000000000000000000000000000000000000000000000000000 DUP2 MSTORE PUSH1 0x4 ADD PUSH2 0x14FD SWAP1 PUSH2 0x3EBE JUMP JUMPDEST PUSH1 0x40 MLOAD DUP1 SWAP2 SUB SWAP1 REVERT JUMPDEST PUSH2 0x1512 DUP5 DUP5 DUP5 DUP5 PUSH2 0x25A3 JUMP JUMPDEST POP POP POP POP JUMP JUMPDEST PUSH1 0x60 PUSH2 0x1523 DUP3 PUSH2 0x1A59 JUMP JUMPDEST PUSH1 0x0 PUSH1 0x6 PUSH1 0x0 DUP5 DUP2 MSTORE PUSH1 0x20 ADD SWAP1 DUP2 MSTORE PUSH1 0x20 ADD PUSH1 0x0 KECCAK256 DUP1 SLOAD PUSH2 0x1543 SWAP1 PUSH2 0x3834 JUMP JUMPDEST DUP1 PUSH1 0x1F ADD PUSH1 0x20 DUP1 SWAP2 DIV MUL PUSH1 0x20 ADD PUSH1 0x40 MLOAD SWAP1 DUP2 ADD PUSH1 0x40 MSTORE DUP1 SWAP3 SWAP2 SWAP1 DUP2 DUP2 MSTORE PUSH1 0x20 ADD DUP3 DUP1 SLOAD PUSH2 0x156F SWAP1 PUSH2 0x3834 JUMP JUMPDEST DUP1 ISZERO PUSH2 0x15BC JUMPI DUP1 PUSH1 0x1F LT PUSH2 0x1591 JUMPI PUSH2 0x100 DUP1 DUP4 SLOAD DIV MUL DUP4 MSTORE SWAP2 PUSH1 0x20 ADD SWAP2 PUSH2 0x15BC JUMP JUMPDEST DUP3 ADD SWAP2 SWAP1 PUSH1 0x0 MSTORE PUSH1 0x20 PUSH1 0x0 KECCAK256 SWAP1 JUMPDEST DUP2 SLOAD DUP2 MSTORE SWAP1 PUSH1 0x1 ADD SWAP1 PUSH1 0x20 ADD DUP1 DUP4 GT PUSH2 0x159F JUMPI DUP3 SWAP1 SUB PUSH1 0x1F AND DUP3 ADD SWAP2 JUMPDEST POP POP POP POP POP SWAP1 POP PUSH1 0x0 PUSH2 0x15CD PUSH2 0x25FF JUMP JUMPDEST SWAP1 POP PUSH1 0x0 DUP2 MLOAD SUB PUSH2 0x15E2 JUMPI DUP2 SWAP3 POP POP POP PUSH2 0x1625 JUMP JUMPDEST PUSH1 0x0 DUP3 MLOAD GT ISZERO PUSH2 0x1617 JUMPI DUP1 DUP3 PUSH1 0x40 MLOAD PUSH1 0x20 ADD PUSH2 0x15FF SWAP3 SWAP2 SWAP1 PUSH2 0x410F JUMP JUMPDEST PUSH1 0x40 MLOAD PUSH1 0x20 DUP2 DUP4 SUB SUB DUP2 MSTORE SWAP1 PUSH1 0x40 MSTORE SWAP3 POP POP POP PUSH2 0x1625 JUMP JUMPDEST PUSH2 0x1620 DUP5 PUSH2 0x2616 JUMP JUMPDEST SWAP3 POP POP POP JUMPDEST SWAP2 SWAP1 POP JUMP JUMPDEST PUSH2 0x1632 PUSH2 0x2BCC JUMP JUMPDEST PUSH1 0x9 PUSH1 0x40 MLOAD DUP1 PUSH2 0x120 ADD PUSH1 0x40 MSTORE SWAP1 DUP2 PUSH1 0x0 DUP3 ADD PUSH1 0x0 SWAP1 SLOAD SWAP1 PUSH2 0x100 EXP SWAP1 DIV PUSH20 0xFFFFFFFFFFFFFFFFFFFFFFFFFFFFFFFFFFFFFFFF AND PUSH20 0xFFFFFFFFFFFFFFFFFFFFFFFFFFFFFFFFFFFFFFFF AND PUSH20 0xFFFFFFFFFFFFFFFFFFFFFFFFFFFFFFFFFFFFFFFF AND DUP2 MSTORE PUSH1 0x20 ADD PUSH1 0x1 DUP3 ADD DUP1 SLOAD PUSH2 0x16A6 SWAP1 PUSH2 0x3834 JUMP JUMPDEST DUP1 PUSH1 0x1F ADD PUSH1 0x20 DUP1 SWAP2 DIV MUL PUSH1 0x20 ADD PUSH1 0x40 MLOAD SWAP1 DUP2 ADD PUSH1 0x40 MSTORE DUP1 SWAP3 SWAP2 SWAP1 DUP2 DUP2 MSTORE PUSH1 0x20 ADD DUP3 DUP1 SLOAD PUSH2 0x16D2 SWAP1 PUSH2 0x3834 JUMP JUMPDEST DUP1 ISZERO PUSH2 0x171F JUMPI DUP1 PUSH1 0x1F LT PUSH2 0x16F4 JUMPI PUSH2 0x100 DUP1 DUP4 SLOAD DIV MUL DUP4 MSTORE SWAP2 PUSH1 0x20 ADD SWAP2 PUSH2 0x171F JUMP JUMPDEST DUP3 ADD SWAP2 SWAP1 PUSH1 0x0 MSTORE PUSH1 0x20 PUSH1 0x0 KECCAK256 SWAP1 JUMPDEST DUP2 SLOAD DUP2 MSTORE SWAP1 PUSH1 0x1 ADD SWAP1 PUSH1 0x20 ADD DUP1 DUP4 GT PUSH2 0x1702 JUMPI DUP3 SWAP1 SUB PUSH1 0x1F AND DUP3 ADD SWAP2 JUMPDEST POP POP POP POP POP DUP2 MSTORE PUSH1 0x20 ADD PUSH1 0x2 DUP3 ADD SLOAD DUP2 MSTORE PUSH1 0x20 ADD PUSH1 0x3 DUP3 ADD SLOAD DUP2 MSTORE PUSH1 0x20 ADD PUSH1 0x4 DUP3 ADD SLOAD DUP2 MSTORE PUSH1 0x20 ADD PUSH1 0x5 DUP3 ADD SLOAD DUP2 MSTORE PUSH1 0x20 ADD PUSH1 0x6 DUP3 ADD SLOAD DUP2 MSTORE PUSH1 0x20 ADD PUSH1 0x7 DUP3 ADD SLOAD DUP2 MSTORE PUSH1 0x20 ADD PUSH1 0x8 DUP3 ADD SLOAD DUP2 MSTORE POP POP SWAP1 POP SWAP1 JUMP JUMPDEST PUSH1 0x0 PUSH1 0x5 PUSH1 0x0 DUP5 PUSH20 0xFFFFFFFFFFFFFFFFFFFFFFFFFFFFFFFFFFFFFFFF AND PUSH20 0xFFFFFFFFFFFFFFFFFFFFFFFFFFFFFFFFFFFFFFFF AND DUP2 MSTORE PUSH1 0x20 ADD SWAP1 DUP2 MSTORE PUSH1 0x20 ADD PUSH1 0x0 KECCAK256 PUSH1 0x0 DUP4 PUSH20 0xFFFFFFFFFFFFFFFFFFFFFFFFFFFFFFFFFFFFFFFF AND PUSH20 0xFFFFFFFFFFFFFFFFFFFFFFFFFFFFFFFFFFFFFFFF AND DUP2 MSTORE PUSH1 0x20 ADD SWAP1 DUP2 MSTORE PUSH1 0x20 ADD PUSH1 0x0 KECCAK256 PUSH1 0x0 SWAP1 SLOAD SWAP1 PUSH2 0x100 EXP SWAP1 DIV PUSH1 0xFF AND SWAP1 POP SWAP3 SWAP2 POP POP JUMP JUMPDEST PUSH1 0x0 DUP1 PUSH1 0x9 PUSH1 0x8 ADD SLOAD GT SWAP1 POP SWAP1 JUMP JUMPDEST DUP2 PUSH20 0xFFFFFFFFFFFFFFFFFFFFFFFFFFFFFFFFFFFFFFFF AND PUSH2 0x1836 DUP5 PUSH2 0xDD2 JUMP JUMPDEST PUSH20 0xFFFFFFFFFFFFFFFFFFFFFFFFFFFFFFFFFFFFFFFF AND EQ PUSH2 0x1856 JUMPI PUSH1 0x0 DUP1 REVERT JUMPDEST PUSH1 0x0 PUSH2 0x1861 DUP5 PUSH2 0x1286 JUMP JUMPDEST SWAP1 POP DUP2 DUP2 PUSH1 0x60 ADD MLOAD PUSH1 0x0 ADD DUP2 SWAP1 MSTORE POP POP POP POP POP JUMP JUMPDEST PUSH2 0x187E PUSH2 0x19DB JUMP JUMPDEST PUSH1 0x0 PUSH20 0xFFFFFFFFFFFFFFFFFFFFFFFFFFFFFFFFFFFFFFFF AND DUP2 PUSH20 0xFFFFFFFFFFFFFFFFFFFFFFFFFFFFFFFFFFFFFFFF AND SUB PUSH2 0x18ED JUMPI PUSH1 0x40 MLOAD PUSH32 0x8C379A000000000000000000000000000000000000000000000000000000000 DUP2 MSTORE PUSH1 0x4 ADD PUSH2 0x18E4 SWAP1 PUSH2 0x41A5 JUMP JUMPDEST PUSH1 0x40 MLOAD DUP1 SWAP2 SUB SWAP1 REVERT JUMPDEST PUSH2 0x18F6 DUP2 PUSH2 0x2371 JUMP JUMPDEST POP JUMP JUMPDEST PUSH1 0x0 PUSH32 0x80AC58CD00000000000000000000000000000000000000000000000000000000 PUSH28 0xFFFFFFFFFFFFFFFFFFFFFFFFFFFFFFFFFFFFFFFFFFFFFFFFFFFFFFFF NOT AND DUP3 PUSH28 0xFFFFFFFFFFFFFFFFFFFFFFFFFFFFFFFFFFFFFFFFFFFFFFFFFFFFFFFF NOT AND EQ DUP1 PUSH2 0x19C4 JUMPI POP PUSH32 0x5B5E139F00000000000000000000000000000000000000000000000000000000 PUSH28 0xFFFFFFFFFFFFFFFFFFFFFFFFFFFFFFFFFFFFFFFFFFFFFFFFFFFFFFFF NOT AND DUP3 PUSH28 0xFFFFFFFFFFFFFFFFFFFFFFFFFFFFFFFFFFFFFFFFFFFFFFFFFFFFFFFF NOT AND EQ JUMPDEST DUP1 PUSH2 0x19D4 JUMPI POP PUSH2 0x19D3 DUP3 PUSH2 0x267E JUMP JUMPDEST JUMPDEST SWAP1 POP SWAP2 SWAP1 POP JUMP JUMPDEST PUSH2 0x19E3 PUSH2 0x1AA4 JUMP JUMPDEST PUSH20 0xFFFFFFFFFFFFFFFFFFFFFFFFFFFFFFFFFFFFFFFF AND PUSH2 0x1A01 PUSH2 0x1070 JUMP JUMPDEST PUSH20 0xFFFFFFFFFFFFFFFFFFFFFFFFFFFFFFFFFFFFFFFF AND EQ PUSH2 0x1A57 JUMPI PUSH1 0x40 MLOAD PUSH32 0x8C379A000000000000000000000000000000000000000000000000000000000 DUP2 MSTORE PUSH1 0x4 ADD PUSH2 0x1A4E SWAP1 PUSH2 0x4211 JUMP JUMPDEST PUSH1 0x40 MLOAD DUP1 SWAP2 SUB SWAP1 REVERT JUMPDEST JUMP JUMPDEST PUSH2 0x1A62 DUP2 PUSH2 0x26E8 JUMP JUMPDEST PUSH2 0x1AA1 JUMPI PUSH1 0x40 MLOAD PUSH32 0x8C379A000000000000000000000000000000000000000000000000000000000 DUP2 MSTORE PUSH1 0x4 ADD PUSH2 0x1A98 SWAP1 PUSH2 0x4021 JUMP JUMPDEST PUSH1 0x40 MLOAD DUP1 SWAP2 SUB SWAP1 REVERT JUMPDEST POP JUMP JUMPDEST PUSH1 0x0 CALLER SWAP1 POP SWAP1 JUMP JUMPDEST DUP2 PUSH1 0x4 PUSH1 0x0 DUP4 DUP2 MSTORE PUSH1 0x20 ADD SWAP1 DUP2 MSTORE PUSH1 0x20 ADD PUSH1 0x0 KECCAK256 PUSH1 0x0 PUSH2 0x100 EXP DUP2 SLOAD DUP2 PUSH20 0xFFFFFFFFFFFFFFFFFFFFFFFFFFFFFFFFFFFFFFFF MUL NOT AND SWAP1 DUP4 PUSH20 0xFFFFFFFFFFFFFFFFFFFFFFFFFFFFFFFFFFFFFFFF AND MUL OR SWAP1 SSTORE POP DUP1 DUP3 PUSH20 0xFFFFFFFFFFFFFFFFFFFFFFFFFFFFFFFFFFFFFFFF AND PUSH2 0x1B1F DUP4 PUSH2 0xDD2 JUMP JUMPDEST PUSH20 0xFFFFFFFFFFFFFFFFFFFFFFFFFFFFFFFFFFFFFFFF AND PUSH32 0x8C5BE1E5EBEC7D5BD14F71427D1E84F3DD0314C0F7B2291E5B200AC8C7C3B925 PUSH1 0x40 MLOAD PUSH1 0x40 MLOAD DUP1 SWAP2 SUB SWAP1 LOG4 POP POP JUMP JUMPDEST PUSH1 0x0 DUP1 PUSH2 0x1B71 DUP4 PUSH2 0xDD2 JUMP JUMPDEST SWAP1 POP DUP1 PUSH20 0xFFFFFFFFFFFFFFFFFFFFFFFFFFFFFFFFFFFFFFFF AND DUP5 PUSH20 0xFFFFFFFFFFFFFFFFFFFFFFFFFFFFFFFFFFFFFFFF AND EQ DUP1 PUSH2 0x1BB3 JUMPI POP PUSH2 0x1BB2 DUP2 DUP6 PUSH2 0x1773 JUMP JUMPDEST JUMPDEST DUP1 PUSH2 0x1BF1 JUMPI POP DUP4 PUSH20 0xFFFFFFFFFFFFFFFFFFFFFFFFFFFFFFFFFFFFFFFF AND PUSH2 0x1BD9 DUP5 PUSH2 0xA26 JUMP JUMPDEST PUSH20 0xFFFFFFFFFFFFFFFFFFFFFFFFFFFFFFFFFFFFFFFF AND EQ JUMPDEST SWAP2 POP POP SWAP3 SWAP2 POP POP JUMP JUMPDEST DUP3 PUSH20 0xFFFFFFFFFFFFFFFFFFFFFFFFFFFFFFFFFFFFFFFF AND PUSH2 0x1C1A DUP3 PUSH2 0xDD2 JUMP JUMPDEST PUSH20 0xFFFFFFFFFFFFFFFFFFFFFFFFFFFFFFFFFFFFFFFF AND EQ PUSH2 0x1C70 JUMPI PUSH1 0x40 MLOAD PUSH32 0x8C379A000000000000000000000000000000000000000000000000000000000 DUP2 MSTORE PUSH1 0x4 ADD PUSH2 0x1C67 SWAP1 PUSH2 0x42A3 JUMP JUMPDEST PUSH1 0x40 MLOAD DUP1 SWAP2 SUB SWAP1 REVERT JUMPDEST PUSH1 0x0 PUSH20 0xFFFFFFFFFFFFFFFFFFFFFFFFFFFFFFFFFFFFFFFF AND DUP3 PUSH20 0xFFFFFFFFFFFFFFFFFFFFFFFFFFFFFFFFFFFFFFFF AND SUB PUSH2 0x1CDF JUMPI PUSH1 0x40 MLOAD PUSH32 0x8C379A000000000000000000000000000000000000000000000000000000000 DUP2 MSTORE PUSH1 0x4 ADD PUSH2 0x1CD6 SWAP1 PUSH2 0x4335 JUMP JUMPDEST PUSH1 0x40 MLOAD DUP1 SWAP2 SUB SWAP1 REVERT JUMPDEST PUSH2 0x1CEC DUP4 DUP4 DUP4 PUSH1 0x1 PUSH2 0x2729 JUMP JUMPDEST DUP3 PUSH20 0xFFFFFFFFFFFFFFFFFFFFFFFFFFFFFFFFFFFFFFFF AND PUSH2 0x1D0C DUP3 PUSH2 0xDD2 JUMP JUMPDEST PUSH20 0xFFFFFFFFFFFFFFFFFFFFFFFFFFFFFFFFFFFFFFFF AND EQ PUSH2 0x1D62 JUMPI PUSH1 0x40 MLOAD PUSH32 0x8C379A000000000000000000000000000000000000000000000000000000000 DUP2 MSTORE PUSH1 0x4 ADD PUSH2 0x1D59 SWAP1 PUSH2 0x42A3 JUMP JUMPDEST PUSH1 0x40 MLOAD DUP1 SWAP2 SUB SWAP1 REVERT JUMPDEST PUSH1 0x4 PUSH1 0x0 DUP3 DUP2 MSTORE PUSH1 0x20 ADD SWAP1 DUP2 MSTORE PUSH1 0x20 ADD PUSH1 0x0 KECCAK256 PUSH1 0x0 PUSH2 0x100 EXP DUP2 SLOAD SWAP1 PUSH20 0xFFFFFFFFFFFFFFFFFFFFFFFFFFFFFFFFFFFFFFFF MUL NOT AND SWAP1 SSTORE PUSH1 0x1 PUSH1 0x3 PUSH1 0x0 DUP6 PUSH20 0xFFFFFFFFFFFFFFFFFFFFFFFFFFFFFFFFFFFFFFFF AND PUSH20 0xFFFFFFFFFFFFFFFFFFFFFFFFFFFFFFFFFFFFFFFF AND DUP2 MSTORE PUSH1 0x20 ADD SWAP1 DUP2 MSTORE PUSH1 0x20 ADD PUSH1 0x0 KECCAK256 PUSH1 0x0 DUP3 DUP3 SLOAD SUB SWAP3 POP POP DUP2 SWAP1 SSTORE POP PUSH1 0x1 PUSH1 0x3 PUSH1 0x0 DUP5 PUSH20 0xFFFFFFFFFFFFFFFFFFFFFFFFFFFFFFFFFFFFFFFF AND PUSH20 0xFFFFFFFFFFFFFFFFFFFFFFFFFFFFFFFFFFFFFFFF AND DUP2 MSTORE PUSH1 0x20 ADD SWAP1 DUP2 MSTORE PUSH1 0x20 ADD PUSH1 0x0 KECCAK256 PUSH1 0x0 DUP3 DUP3 SLOAD ADD SWAP3 POP POP DUP2 SWAP1 SSTORE POP DUP2 PUSH1 0x2 PUSH1 0x0 DUP4 DUP2 MSTORE PUSH1 0x20 ADD SWAP1 DUP2 MSTORE PUSH1 0x20 ADD PUSH1 0x0 KECCAK256 PUSH1 0x0 PUSH2 0x100 EXP DUP2 SLOAD DUP2 PUSH20 0xFFFFFFFFFFFFFFFFFFFFFFFFFFFFFFFFFFFFFFFF MUL NOT AND SWAP1 DUP4 PUSH20 0xFFFFFFFFFFFFFFFFFFFFFFFFFFFFFFFFFFFFFFFF AND MUL OR SWAP1 SSTORE POP DUP1 DUP3 PUSH20 0xFFFFFFFFFFFFFFFFFFFFFFFFFFFFFFFFFFFFFFFF AND DUP5 PUSH20 0xFFFFFFFFFFFFFFFFFFFFFFFFFFFFFFFFFFFFFFFF AND PUSH32 0xDDF252AD1BE2C89B69C2B068FC378DAA952BA7F163C4A11628F55A4DF523B3EF PUSH1 0x40 MLOAD PUSH1 0x40 MLOAD DUP1 SWAP2 SUB SWAP1 LOG4 PUSH2 0x1EEE DUP4 DUP4 DUP4 PUSH1 0x1 PUSH2 0x272F JUMP JUMPDEST POP POP POP JUMP JUMPDEST PUSH1 0x0 DUP2 PUSH1 0x0 ADD SLOAD SWAP1 POP SWAP2 SWAP1 POP JUMP JUMPDEST PUSH1 0x1 DUP2 PUSH1 0x0 ADD PUSH1 0x0 DUP3 DUP3 SLOAD ADD SWAP3 POP POP DUP2 SWAP1 SSTORE POP POP JUMP JUMPDEST PUSH1 0x0 PUSH20 0xFFFFFFFFFFFFFFFFFFFFFFFFFFFFFFFFFFFFFFFF AND DUP3 PUSH20 0xFFFFFFFFFFFFFFFFFFFFFFFFFFFFFFFFFFFFFFFF AND SUB PUSH2 0x1F86 JUMPI PUSH1 0x40 MLOAD PUSH32 0x8C379A000000000000000000000000000000000000000000000000000000000 DUP2 MSTORE PUSH1 0x4 ADD PUSH2 0x1F7D SWAP1 PUSH2 0x43A1 JUMP JUMPDEST PUSH1 0x40 MLOAD DUP1 SWAP2 SUB SWAP1 REVERT JUMPDEST PUSH2 0x1F8F DUP2 PUSH2 0x26E8 JUMP JUMPDEST ISZERO PUSH2 0x1FCF JUMPI PUSH1 0x40 MLOAD PUSH32 0x8C379A000000000000000000000000000000000000000000000000000000000 DUP2 MSTORE PUSH1 0x4 ADD PUSH2 0x1FC6 SWAP1 PUSH2 0x440D JUMP JUMPDEST PUSH1 0x40 MLOAD DUP1 SWAP2 SUB SWAP1 REVERT JUMPDEST PUSH2 0x1FDD PUSH1 0x0 DUP4 DUP4 PUSH1 0x1 PUSH2 0x2729 JUMP JUMPDEST PUSH2 0x1FE6 DUP2 PUSH2 0x26E8 JUMP JUMPDEST ISZERO PUSH2 0x2026 JUMPI PUSH1 0x40 MLOAD PUSH32 0x8C379A000000000000000000000000000000000000000000000000000000000 DUP2 MSTORE PUSH1 0x4 ADD PUSH2 0x201D SWAP1 PUSH2 0x440D JUMP JUMPDEST PUSH1 0x40 MLOAD DUP1 SWAP2 SUB SWAP1 REVERT JUMPDEST PUSH1 0x1 PUSH1 0x3 PUSH1 0x0 DUP5 PUSH20 0xFFFFFFFFFFFFFFFFFFFFFFFFFFFFFFFFFFFFFFFF AND PUSH20 0xFFFFFFFFFFFFFFFFFFFFFFFFFFFFFFFFFFFFFFFF AND DUP2 MSTORE PUSH1 0x20 ADD SWAP1 DUP2 MSTORE PUSH1 0x20 ADD PUSH1 0x0 KECCAK256 PUSH1 0x0 DUP3 DUP3 SLOAD ADD SWAP3 POP POP DUP2 SWAP1 SSTORE POP DUP2 PUSH1 0x2 PUSH1 0x0 DUP4 DUP2 MSTORE PUSH1 0x20 ADD SWAP1 DUP2 MSTORE PUSH1 0x20 ADD PUSH1 0x0 KECCAK256 PUSH1 0x0 PUSH2 0x100 EXP DUP2 SLOAD DUP2 PUSH20 0xFFFFFFFFFFFFFFFFFFFFFFFFFFFFFFFFFFFFFFFF MUL NOT AND SWAP1 DUP4 PUSH20 0xFFFFFFFFFFFFFFFFFFFFFFFFFFFFFFFFFFFFFFFF AND MUL OR SWAP1 SSTORE POP DUP1 DUP3 PUSH20 0xFFFFFFFFFFFFFFFFFFFFFFFFFFFFFFFFFFFFFFFF AND PUSH1 0x0 PUSH20 0xFFFFFFFFFFFFFFFFFFFFFFFFFFFFFFFFFFFFFFFF AND PUSH32 0xDDF252AD1BE2C89B69C2B068FC378DAA952BA7F163C4A11628F55A4DF523B3EF PUSH1 0x40 MLOAD PUSH1 0x40 MLOAD DUP1 SWAP2 SUB SWAP1 LOG4 PUSH2 0x2130 PUSH1 0x0 DUP4 DUP4 PUSH1 0x1 PUSH2 0x272F JUMP JUMPDEST POP POP JUMP JUMPDEST PUSH1 0x40 MLOAD DUP1 PUSH1 0xA0 ADD PUSH1 0x40 MSTORE DUP1 DUP5 DUP2 MSTORE PUSH1 0x20 ADD TIMESTAMP DUP2 MSTORE PUSH1 0x20 ADD DUP4 DUP2 MSTORE PUSH1 0x20 ADD PUSH2 0x215A DUP6 PUSH2 0x2735 JUMP JUMPDEST DUP2 MSTORE PUSH1 0x20 ADD DUP3 PUSH20 0xFFFFFFFFFFFFFFFFFFFFFFFFFFFFFFFFFFFFFFFF AND DUP2 MSTORE POP PUSH1 0x12 PUSH1 0x0 DUP6 DUP2 MSTORE PUSH1 0x20 ADD SWAP1 DUP2 MSTORE PUSH1 0x20 ADD PUSH1 0x0 KECCAK256 PUSH1 0x0 DUP3 ADD MLOAD DUP2 PUSH1 0x0 ADD SSTORE PUSH1 0x20 DUP3 ADD MLOAD DUP2 PUSH1 0x1 ADD SSTORE PUSH1 0x40 DUP3 ADD MLOAD DUP2 PUSH1 0x2 ADD SSTORE PUSH1 0x60 DUP3 ADD MLOAD DUP2 PUSH1 0x3 ADD PUSH1 0x0 DUP3 ADD MLOAD DUP2 PUSH1 0x0 ADD SWAP1 DUP2 PUSH2 0x21C8 SWAP2 SWAP1 PUSH2 0x3A07 JUMP JUMPDEST POP PUSH1 0x20 DUP3 ADD MLOAD DUP2 PUSH1 0x1 ADD SWAP1 DUP2 PUSH2 0x21DE SWAP2 SWAP1 PUSH2 0x3A07 JUMP JUMPDEST POP PUSH1 0x40 DUP3 ADD MLOAD DUP2 PUSH1 0x2 ADD PUSH1 0x0 PUSH2 0x100 EXP DUP2 SLOAD DUP2 PUSH1 0xFF MUL NOT AND SWAP1 DUP4 PUSH1 0xFF AND MUL OR SWAP1 SSTORE POP PUSH1 0x60 DUP3 ADD MLOAD DUP2 PUSH1 0x2 ADD PUSH1 0x1 PUSH2 0x100 EXP DUP2 SLOAD DUP2 PUSH1 0xFF MUL NOT AND SWAP1 DUP4 PUSH1 0xFF AND MUL OR SWAP1 SSTORE POP PUSH1 0x80 DUP3 ADD MLOAD DUP2 PUSH1 0x2 ADD PUSH1 0x2 PUSH2 0x100 EXP DUP2 SLOAD DUP2 PUSH1 0xFF MUL NOT AND SWAP1 DUP4 PUSH1 0xFF AND MUL OR SWAP1 SSTORE POP POP POP PUSH1 0x80 DUP3 ADD MLOAD DUP2 PUSH1 0x6 ADD PUSH1 0x0 PUSH2 0x100 EXP DUP2 SLOAD DUP2 PUSH20 0xFFFFFFFFFFFFFFFFFFFFFFFFFFFFFFFFFFFFFFFF MUL NOT AND SWAP1 DUP4 PUSH20 0xFFFFFFFFFFFFFFFFFFFFFFFFFFFFFFFFFFFFFFFF AND MUL OR SWAP1 SSTORE POP SWAP1 POP POP PUSH1 0x13 PUSH1 0x0 DUP3 PUSH20 0xFFFFFFFFFFFFFFFFFFFFFFFFFFFFFFFFFFFFFFFF AND PUSH20 0xFFFFFFFFFFFFFFFFFFFFFFFFFFFFFFFFFFFFFFFF AND DUP2 MSTORE PUSH1 0x20 ADD SWAP1 DUP2 MSTORE PUSH1 0x20 ADD PUSH1 0x0 KECCAK256 DUP4 SWAP1 DUP1 PUSH1 0x1 DUP2 SLOAD ADD DUP1 DUP3 SSTORE DUP1 SWAP2 POP POP PUSH1 0x1 SWAP1 SUB SWAP1 PUSH1 0x0 MSTORE PUSH1 0x20 PUSH1 0x0 KECCAK256 ADD PUSH1 0x0 SWAP1 SWAP2 SWAP1 SWAP2 SWAP1 SWAP2 POP SSTORE PUSH32 0x42E22845CDFEE2DA8F8E56B8D8F9807A12FD6906D54B388FE7EC9D2329E70B3E DUP4 DUP3 DUP5 PUSH1 0x40 MLOAD PUSH2 0x2327 SWAP4 SWAP3 SWAP2 SWAP1 PUSH2 0x442D JUMP JUMPDEST PUSH1 0x40 MLOAD DUP1 SWAP2 SUB SWAP1 LOG1 POP POP POP JUMP JUMPDEST PUSH1 0x0 PUSH1 0x2 PUSH1 0x0 DUP4 DUP2 MSTORE PUSH1 0x20 ADD SWAP1 DUP2 MSTORE PUSH1 0x20 ADD PUSH1 0x0 KECCAK256 PUSH1 0x0 SWAP1 SLOAD SWAP1 PUSH2 0x100 EXP SWAP1 DIV PUSH20 0xFFFFFFFFFFFFFFFFFFFFFFFFFFFFFFFFFFFFFFFF AND SWAP1 POP SWAP2 SWAP1 POP JUMP JUMPDEST PUSH1 0x0 PUSH1 0x7 PUSH1 0x0 SWAP1 SLOAD SWAP1 PUSH2 0x100 EXP SWAP1 DIV PUSH20 0xFFFFFFFFFFFFFFFFFFFFFFFFFFFFFFFFFFFFFFFF AND SWAP1 POP DUP2 PUSH1 0x7 PUSH1 0x0 PUSH2 0x100 EXP DUP2 SLOAD DUP2 PUSH20 0xFFFFFFFFFFFFFFFFFFFFFFFFFFFFFFFFFFFFFFFF MUL NOT AND SWAP1 DUP4 PUSH20 0xFFFFFFFFFFFFFFFFFFFFFFFFFFFFFFFFFFFFFFFF AND MUL OR SWAP1 SSTORE POP DUP2 PUSH20 0xFFFFFFFFFFFFFFFFFFFFFFFFFFFFFFFFFFFFFFFF AND DUP2 PUSH20 0xFFFFFFFFFFFFFFFFFFFFFFFFFFFFFFFFFFFFFFFF AND PUSH32 0x8BE0079C531659141344CD1FD0A4F28419497F9722A3DAAFE3B4186F6B6457E0 PUSH1 0x40 MLOAD PUSH1 0x40 MLOAD DUP1 SWAP2 SUB SWAP1 LOG3 POP POP JUMP JUMPDEST DUP2 PUSH20 0xFFFFFFFFFFFFFFFFFFFFFFFFFFFFFFFFFFFFFFFF AND DUP4 PUSH20 0xFFFFFFFFFFFFFFFFFFFFFFFFFFFFFFFFFFFFFFFF AND SUB PUSH2 0x24A5 JUMPI PUSH1 0x40 MLOAD PUSH32 0x8C379A000000000000000000000000000000000000000000000000000000000 DUP2 MSTORE PUSH1 0x4 ADD PUSH2 0x249C SWAP1 PUSH2 0x44B0 JUMP JUMPDEST PUSH1 0x40 MLOAD DUP1 SWAP2 SUB SWAP1 REVERT JUMPDEST DUP1 PUSH1 0x5 PUSH1 0x0 DUP6 PUSH20 0xFFFFFFFFFFFFFFFFFFFFFFFFFFFFFFFFFFFFFFFF AND PUSH20 0xFFFFFFFFFFFFFFFFFFFFFFFFFFFFFFFFFFFFFFFF AND DUP2 MSTORE PUSH1 0x20 ADD SWAP1 DUP2 MSTORE PUSH1 0x20 ADD PUSH1 0x0 KECCAK256 PUSH1 0x0 DUP5 PUSH20 0xFFFFFFFFFFFFFFFFFFFFFFFFFFFFFFFFFFFFFFFF AND PUSH20 0xFFFFFFFFFFFFFFFFFFFFFFFFFFFFFFFFFFFFFFFF AND DUP2 MSTORE PUSH1 0x20 ADD SWAP1 DUP2 MSTORE PUSH1 0x20 ADD PUSH1 0x0 KECCAK256 PUSH1 0x0 PUSH2 0x100 EXP DUP2 SLOAD DUP2 PUSH1 0xFF MUL NOT AND SWAP1 DUP4 ISZERO ISZERO MUL OR SWAP1 SSTORE POP DUP2 PUSH20 0xFFFFFFFFFFFFFFFFFFFFFFFFFFFFFFFFFFFFFFFF AND DUP4 PUSH20 0xFFFFFFFFFFFFFFFFFFFFFFFFFFFFFFFFFFFFFFFF AND PUSH32 0x17307EAB39AB6107E8899845AD3D59BD9653F200F220920489CA2B5937696C31 DUP4 PUSH1 0x40 MLOAD PUSH2 0x2596 SWAP2 SWAP1 PUSH2 0x2D1A JUMP JUMPDEST PUSH1 0x40 MLOAD DUP1 SWAP2 SUB SWAP1 LOG3 POP POP POP JUMP JUMPDEST PUSH2 0x25AE DUP5 DUP5 DUP5 PUSH2 0x1BFA JUMP JUMPDEST PUSH2 0x25BA DUP5 DUP5 DUP5 DUP5 PUSH2 0x27B6 JUMP JUMPDEST PUSH2 0x25F9 JUMPI PUSH1 0x40 MLOAD PUSH32 0x8C379A000000000000000000000000000000000000000000000000000000000 DUP2 MSTORE PUSH1 0x4 ADD PUSH2 0x25F0 SWAP1 PUSH2 0x4542 JUMP JUMPDEST PUSH1 0x40 MLOAD DUP1 SWAP2 SUB SWAP1 REVERT JUMPDEST POP POP POP POP JUMP JUMPDEST PUSH1 0x60 PUSH1 0x40 MLOAD DUP1 PUSH1 0x20 ADD PUSH1 0x40 MSTORE DUP1 PUSH1 0x0 DUP2 MSTORE POP SWAP1 POP SWAP1 JUMP JUMPDEST PUSH1 0x60 PUSH2 0x2621 DUP3 PUSH2 0x1A59 JUMP JUMPDEST PUSH1 0x0 PUSH2 0x262B PUSH2 0x25FF JUMP JUMPDEST SWAP1 POP PUSH1 0x0 DUP2 MLOAD GT PUSH2 0x264B JUMPI PUSH1 0x40 MLOAD DUP1 PUSH1 0x20 ADD PUSH1 0x40 MSTORE DUP1 PUSH1 0x0 DUP2 MSTORE POP PUSH2 0x2676 JUMP JUMPDEST DUP1 PUSH2 0x2655 DUP5 PUSH2 0x293D JUMP JUMPDEST PUSH1 0x40 MLOAD PUSH1 0x20 ADD PUSH2 0x2666 SWAP3 SWAP2 SWAP1 PUSH2 0x410F JUMP JUMPDEST PUSH1 0x40 MLOAD PUSH1 0x20 DUP2 DUP4 SUB SUB DUP2 MSTORE SWAP1 PUSH1 0x40 MSTORE JUMPDEST SWAP2 POP POP SWAP2 SWAP1 POP JUMP JUMPDEST PUSH1 0x0 PUSH32 0x1FFC9A700000000000000000000000000000000000000000000000000000000 PUSH28 0xFFFFFFFFFFFFFFFFFFFFFFFFFFFFFFFFFFFFFFFFFFFFFFFFFFFFFFFF NOT AND DUP3 PUSH28 0xFFFFFFFFFFFFFFFFFFFFFFFFFFFFFFFFFFFFFFFFFFFFFFFFFFFFFFFF NOT AND EQ SWAP1 POP SWAP2 SWAP1 POP JUMP JUMPDEST PUSH1 0x0 DUP1 PUSH20 0xFFFFFFFFFFFFFFFFFFFFFFFFFFFFFFFFFFFFFFFF AND PUSH2 0x270A DUP4 PUSH2 0x2334 JUMP JUMPDEST PUSH20 0xFFFFFFFFFFFFFFFFFFFFFFFFFFFFFFFFFFFFFFFF AND EQ ISZERO SWAP1 POP SWAP2 SWAP1 POP JUMP JUMPDEST POP POP POP POP JUMP JUMPDEST POP POP POP POP JUMP JUMPDEST PUSH2 0x273D PUSH2 0x2C2E JUMP JUMPDEST PUSH1 0x40 MLOAD DUP1 PUSH1 0xA0 ADD PUSH1 0x40 MSTORE DUP1 PUSH1 0x40 MLOAD DUP1 PUSH1 0x20 ADD PUSH1 0x40 MSTORE DUP1 PUSH1 0x0 DUP2 MSTORE POP DUP2 MSTORE PUSH1 0x20 ADD PUSH2 0x2765 PUSH2 0x11F4 JUMP JUMPDEST PUSH2 0x276E DUP6 PUSH2 0x293D JUMP JUMPDEST PUSH1 0x40 MLOAD PUSH1 0x20 ADD PUSH2 0x277F SWAP3 SWAP2 SWAP1 PUSH2 0x410F JUMP JUMPDEST PUSH1 0x40 MLOAD PUSH1 0x20 DUP2 DUP4 SUB SUB DUP2 MSTORE SWAP1 PUSH1 0x40 MSTORE DUP2 MSTORE PUSH1 0x20 ADD PUSH1 0xA PUSH1 0xFF AND DUP2 MSTORE PUSH1 0x20 ADD PUSH1 0xA PUSH1 0xFF AND DUP2 MSTORE PUSH1 0x20 ADD PUSH1 0x0 PUSH1 0xFF AND DUP2 MSTORE POP SWAP1 POP SWAP2 SWAP1 POP JUMP JUMPDEST PUSH1 0x0 PUSH2 0x27D7 DUP5 PUSH20 0xFFFFFFFFFFFFFFFFFFFFFFFFFFFFFFFFFFFFFFFF AND PUSH2 0x2A0B JUMP JUMPDEST ISZERO PUSH2 0x2930 JUMPI DUP4 PUSH20 0xFFFFFFFFFFFFFFFFFFFFFFFFFFFFFFFFFFFFFFFF AND PUSH4 0x150B7A02 PUSH2 0x2800 PUSH2 0x1AA4 JUMP JUMPDEST DUP8 DUP7 DUP7 PUSH1 0x40 MLOAD DUP6 PUSH4 0xFFFFFFFF AND PUSH1 0xE0 SHL DUP2 MSTORE PUSH1 0x4 ADD PUSH2 0x2822 SWAP5 SWAP4 SWAP3 SWAP2 SWAP1 PUSH2 0x45B7 JUMP JUMPDEST PUSH1 0x20 PUSH1 0x40 MLOAD DUP1 DUP4 SUB DUP2 PUSH1 0x0 DUP8 GAS CALL SWAP3 POP POP POP DUP1 ISZERO PUSH2 0x285E JUMPI POP PUSH1 0x40 MLOAD RETURNDATASIZE PUSH1 0x1F NOT PUSH1 0x1F DUP3 ADD AND DUP3 ADD DUP1 PUSH1 0x40 MSTORE POP DUP2 ADD SWAP1 PUSH2 0x285B SWAP2 SWAP1 PUSH2 0x4618 JUMP JUMPDEST PUSH1 0x1 JUMPDEST PUSH2 0x28E0 JUMPI RETURNDATASIZE DUP1 PUSH1 0x0 DUP2 EQ PUSH2 0x288E JUMPI PUSH1 0x40 MLOAD SWAP2 POP PUSH1 0x1F NOT PUSH1 0x3F RETURNDATASIZE ADD AND DUP3 ADD PUSH1 0x40 MSTORE RETURNDATASIZE DUP3 MSTORE RETURNDATASIZE PUSH1 0x0 PUSH1 0x20 DUP5 ADD RETURNDATACOPY PUSH2 0x2893 JUMP JUMPDEST PUSH1 0x60 SWAP2 POP JUMPDEST POP PUSH1 0x0 DUP2 MLOAD SUB PUSH2 0x28D8 JUMPI PUSH1 0x40 MLOAD PUSH32 0x8C379A000000000000000000000000000000000000000000000000000000000 DUP2 MSTORE PUSH1 0x4 ADD PUSH2 0x28CF SWAP1 PUSH2 0x4542 JUMP JUMPDEST PUSH1 0x40 MLOAD DUP1 SWAP2 SUB SWAP1 REVERT JUMPDEST DUP1 MLOAD DUP2 PUSH1 0x20 ADD REVERT JUMPDEST PUSH4 0x150B7A02 PUSH1 0xE0 SHL PUSH28 0xFFFFFFFFFFFFFFFFFFFFFFFFFFFFFFFFFFFFFFFFFFFFFFFFFFFFFFFF NOT AND DUP2 PUSH28 0xFFFFFFFFFFFFFFFFFFFFFFFFFFFFFFFFFFFFFFFFFFFFFFFFFFFFFFFF NOT AND EQ SWAP2 POP POP PUSH2 0x2935 JUMP JUMPDEST PUSH1 0x1 SWAP1 POP JUMPDEST SWAP5 SWAP4 POP POP POP POP JUMP JUMPDEST PUSH1 0x60 PUSH1 0x0 PUSH1 0x1 PUSH2 0x294C DUP5 PUSH2 0x2A2E JUMP JUMPDEST ADD SWAP1 POP PUSH1 0x0 DUP2 PUSH8 0xFFFFFFFFFFFFFFFF DUP2 GT ISZERO PUSH2 0x296B JUMPI PUSH2 0x296A PUSH2 0x2EEC JUMP JUMPDEST JUMPDEST PUSH1 0x40 MLOAD SWAP1 DUP1 DUP3 MSTORE DUP1 PUSH1 0x1F ADD PUSH1 0x1F NOT AND PUSH1 0x20 ADD DUP3 ADD PUSH1 0x40 MSTORE DUP1 ISZERO PUSH2 0x299D JUMPI DUP2 PUSH1 0x20 ADD PUSH1 0x1 DUP3 MUL DUP1 CALLDATASIZE DUP4 CALLDATACOPY DUP1 DUP3 ADD SWAP2 POP POP SWAP1 POP JUMPDEST POP SWAP1 POP PUSH1 0x0 DUP3 PUSH1 0x20 ADD DUP3 ADD SWAP1 POP JUMPDEST PUSH1 0x1 ISZERO PUSH2 0x2A00 JUMPI DUP1 DUP1 PUSH1 0x1 SWAP1 SUB SWAP2 POP POP PUSH32 0x3031323334353637383961626364656600000000000000000000000000000000 PUSH1 0xA DUP7 MOD BYTE DUP2 MSTORE8 PUSH1 0xA DUP6 DUP2 PUSH2 0x29F4 JUMPI PUSH2 0x29F3 PUSH2 0x3DEC JUMP JUMPDEST JUMPDEST DIV SWAP5 POP PUSH1 0x0 DUP6 SUB PUSH2 0x29AB JUMPI JUMPDEST DUP2 SWAP4 POP POP POP POP SWAP2 SWAP1 POP JUMP JUMPDEST PUSH1 0x0 DUP1 DUP3 PUSH20 0xFFFFFFFFFFFFFFFFFFFFFFFFFFFFFFFFFFFFFFFF AND EXTCODESIZE GT SWAP1 POP SWAP2 SWAP1 POP JUMP JUMPDEST PUSH1 0x0 DUP1 PUSH1 0x0 SWAP1 POP PUSH27 0x184F03E93FF9F4DAA797ED6E38ED64BF6A1F010000000000000000 DUP4 LT PUSH2 0x2A8C JUMPI PUSH27 0x184F03E93FF9F4DAA797ED6E38ED64BF6A1F010000000000000000 DUP4 DUP2 PUSH2 0x2A82 JUMPI PUSH2 0x2A81 PUSH2 0x3DEC JUMP JUMPDEST JUMPDEST DIV SWAP3 POP PUSH1 0x40 DUP2 ADD SWAP1 POP JUMPDEST PUSH14 0x4EE2D6D415B85ACEF8100000000 DUP4 LT PUSH2 0x2AC9 JUMPI PUSH14 0x4EE2D6D415B85ACEF8100000000 DUP4 DUP2 PUSH2 0x2ABF JUMPI PUSH2 0x2ABE PUSH2 0x3DEC JUMP JUMPDEST JUMPDEST DIV SWAP3 POP PUSH1 0x20 DUP2 ADD SWAP1 POP JUMPDEST PUSH7 0x2386F26FC10000 DUP4 LT PUSH2 0x2AF8 JUMPI PUSH7 0x2386F26FC10000 DUP4 DUP2 PUSH2 0x2AEE JUMPI PUSH2 0x2AED PUSH2 0x3DEC JUMP JUMPDEST JUMPDEST DIV SWAP3 POP PUSH1 0x10 DUP2 ADD SWAP1 POP JUMPDEST PUSH4 0x5F5E100 DUP4 LT PUSH2 0x2B21 JUMPI PUSH4 0x5F5E100 DUP4 DUP2 PUSH2 0x2B17 JUMPI PUSH2 0x2B16 PUSH2 0x3DEC JUMP JUMPDEST JUMPDEST DIV SWAP3 POP PUSH1 0x8 DUP2 ADD SWAP1 POP JUMPDEST PUSH2 0x2710 DUP4 LT PUSH2 0x2B46 JUMPI PUSH2 0x2710 DUP4 DUP2 PUSH2 0x2B3C JUMPI PUSH2 0x2B3B PUSH2 0x3DEC JUMP JUMPDEST JUMPDEST DIV SWAP3 POP PUSH1 0x4 DUP2 ADD SWAP1 POP JUMPDEST PUSH1 0x64 DUP4 LT PUSH2 0x2B69 JUMPI PUSH1 0x64 DUP4 DUP2 PUSH2 0x2B5F JUMPI PUSH2 0x2B5E PUSH2 0x3DEC JUMP JUMPDEST JUMPDEST DIV SWAP3 POP PUSH1 0x2 DUP2 ADD SWAP1 POP JUMPDEST PUSH1 0xA DUP4 LT PUSH2 0x2B78 JUMPI PUSH1 0x1 DUP2 ADD SWAP1 POP JUMPDEST DUP1 SWAP2 POP POP SWAP2 SWAP1 POP JUMP JUMPDEST PUSH1 0x40 MLOAD DUP1 PUSH1 0xA0 ADD PUSH1 0x40 MSTORE DUP1 PUSH1 0x0 DUP2 MSTORE PUSH1 0x20 ADD PUSH1 0x0 DUP2 MSTORE PUSH1 0x20 ADD PUSH1 0x0 DUP2 MSTORE PUSH1 0x20 ADD PUSH2 0x2BA9 PUSH2 0x2C2E JUMP JUMPDEST DUP2 MSTORE PUSH1 0x20 ADD PUSH1 0x0 PUSH20 0xFFFFFFFFFFFFFFFFFFFFFFFFFFFFFFFFFFFFFFFF AND DUP2 MSTORE POP SWAP1 JUMP JUMPDEST PUSH1 0x40 MLOAD DUP1 PUSH2 0x120 ADD PUSH1 0x40 MSTORE DUP1 PUSH1 0x0 PUSH20 0xFFFFFFFFFFFFFFFFFFFFFFFFFFFFFFFFFFFFFFFF AND DUP2 MSTORE PUSH1 0x20 ADD PUSH1 0x60 DUP2 MSTORE PUSH1 0x20 ADD PUSH1 0x0 DUP2 MSTORE PUSH1 0x20 ADD PUSH1 0x0 DUP2 MSTORE PUSH1 0x20 ADD PUSH1 0x0 DUP2 MSTORE PUSH1 0x20 ADD PUSH1 0x0 DUP2 MSTORE PUSH1 0x20 ADD PUSH1 0x0 DUP2 MSTORE PUSH1 0x20 ADD PUSH1 0x0 DUP2 MSTORE PUSH1 0x20 ADD PUSH1 0x0 DUP2 MSTORE POP SWAP1 JUMP JUMPDEST PUSH1 0x40 MLOAD DUP1 PUSH1 0xA0 ADD PUSH1 0x40 MSTORE DUP1 PUSH1 0x60 DUP2 MSTORE PUSH1 0x20 ADD PUSH1 0x60 DUP2 MSTORE PUSH1 0x20 ADD PUSH1 0x0 PUSH1 0xFF AND DUP2 MSTORE PUSH1 0x20 ADD PUSH1 0x0 PUSH1 0xFF AND DUP2 MSTORE PUSH1 0x20 ADD PUSH1 0x0 PUSH1 0xFF AND DUP2 MSTORE POP SWAP1 JUMP JUMPDEST PUSH1 0x0 PUSH1 0x40 MLOAD SWAP1 POP SWAP1 JUMP JUMPDEST PUSH1 0x0 DUP1 REVERT JUMPDEST PUSH1 0x0 DUP1 REVERT JUMPDEST PUSH1 0x0 PUSH32 0xFFFFFFFF00000000000000000000000000000000000000000000000000000000 DUP3 AND SWAP1 POP SWAP2 SWAP1 POP JUMP JUMPDEST PUSH2 0x2CAF DUP2 PUSH2 0x2C7A JUMP JUMPDEST DUP2 EQ PUSH2 0x2CBA JUMPI PUSH1 0x0 DUP1 REVERT JUMPDEST POP JUMP JUMPDEST PUSH1 0x0 DUP2 CALLDATALOAD SWAP1 POP PUSH2 0x2CCC DUP2 PUSH2 0x2CA6 JUMP JUMPDEST SWAP3 SWAP2 POP POP JUMP JUMPDEST PUSH1 0x0 PUSH1 0x20 DUP3 DUP5 SUB SLT ISZERO PUSH2 0x2CE8 JUMPI PUSH2 0x2CE7 PUSH2 0x2C70 JUMP JUMPDEST JUMPDEST PUSH1 0x0 PUSH2 0x2CF6 DUP5 DUP3 DUP6 ADD PUSH2 0x2CBD JUMP JUMPDEST SWAP2 POP POP SWAP3 SWAP2 POP POP JUMP JUMPDEST PUSH1 0x0 DUP2 ISZERO ISZERO SWAP1 POP SWAP2 SWAP1 POP JUMP JUMPDEST PUSH2 0x2D14 DUP2 PUSH2 0x2CFF JUMP JUMPDEST DUP3 MSTORE POP POP JUMP JUMPDEST PUSH1 0x0 PUSH1 0x20 DUP3 ADD SWAP1 POP PUSH2 0x2D2F PUSH1 0x0 DUP4 ADD DUP5 PUSH2 0x2D0B JUMP JUMPDEST SWAP3 SWAP2 POP POP JUMP JUMPDEST PUSH1 0x0 PUSH20 0xFFFFFFFFFFFFFFFFFFFFFFFFFFFFFFFFFFFFFFFF DUP3 AND SWAP1 POP SWAP2 SWAP1 POP JUMP JUMPDEST PUSH1 0x0 PUSH2 0x2D60 DUP3 PUSH2 0x2D35 JUMP JUMPDEST SWAP1 POP SWAP2 SWAP1 POP JUMP JUMPDEST PUSH2 0x2D70 DUP2 PUSH2 0x2D55 JUMP JUMPDEST DUP2 EQ PUSH2 0x2D7B JUMPI PUSH1 0x0 DUP1 REVERT JUMPDEST POP JUMP JUMPDEST PUSH1 0x0 DUP2 CALLDATALOAD SWAP1 POP PUSH2 0x2D8D DUP2 PUSH2 0x2D67 JUMP JUMPDEST SWAP3 SWAP2 POP POP JUMP JUMPDEST PUSH1 0x0 DUP2 SWAP1 POP SWAP2 SWAP1 POP JUMP JUMPDEST PUSH2 0x2DA6 DUP2 PUSH2 0x2D93 JUMP JUMPDEST DUP2 EQ PUSH2 0x2DB1 JUMPI PUSH1 0x0 DUP1 REVERT JUMPDEST POP JUMP JUMPDEST PUSH1 0x0 DUP2 CALLDATALOAD SWAP1 POP PUSH2 0x2DC3 DUP2 PUSH2 0x2D9D JUMP JUMPDEST SWAP3 SWAP2 POP POP JUMP JUMPDEST PUSH1 0x0 DUP1 PUSH1 0x0 DUP1 PUSH1 0x80 DUP6 DUP8 SUB SLT ISZERO PUSH2 0x2DE3 JUMPI PUSH2 0x2DE2 PUSH2 0x2C70 JUMP JUMPDEST JUMPDEST PUSH1 0x0 PUSH2 0x2DF1 DUP8 DUP3 DUP9 ADD PUSH2 0x2D7E JUMP JUMPDEST SWAP5 POP POP PUSH1 0x20 PUSH2 0x2E02 DUP8 DUP3 DUP9 ADD PUSH2 0x2D7E JUMP JUMPDEST SWAP4 POP POP PUSH1 0x40 PUSH2 0x2E13 DUP8 DUP3 DUP9 ADD PUSH2 0x2DB4 JUMP JUMPDEST SWAP3 POP POP PUSH1 0x60 PUSH2 0x2E24 DUP8 DUP3 DUP9 ADD PUSH2 0x2DB4 JUMP JUMPDEST SWAP2 POP POP SWAP3 SWAP6 SWAP2 SWAP5 POP SWAP3 POP JUMP JUMPDEST PUSH1 0x0 DUP2 MLOAD SWAP1 POP SWAP2 SWAP1 POP JUMP JUMPDEST PUSH1 0x0 DUP3 DUP3 MSTORE PUSH1 0x20 DUP3 ADD SWAP1 POP SWAP3 SWAP2 POP POP JUMP JUMPDEST PUSH1 0x0 JUMPDEST DUP4 DUP2 LT ISZERO PUSH2 0x2E6A JUMPI DUP1 DUP3 ADD MLOAD DUP2 DUP5 ADD MSTORE PUSH1 0x20 DUP2 ADD SWAP1 POP PUSH2 0x2E4F JUMP JUMPDEST PUSH1 0x0 DUP5 DUP5 ADD MSTORE POP POP POP POP JUMP JUMPDEST PUSH1 0x0 PUSH1 0x1F NOT PUSH1 0x1F DUP4 ADD AND SWAP1 POP SWAP2 SWAP1 POP JUMP JUMPDEST PUSH1 0x0 PUSH2 0x2E92 DUP3 PUSH2 0x2E30 JUMP JUMPDEST PUSH2 0x2E9C DUP2 DUP6 PUSH2 0x2E3B JUMP JUMPDEST SWAP4 POP PUSH2 0x2EAC DUP2 DUP6 PUSH1 0x20 DUP7 ADD PUSH2 0x2E4C JUMP JUMPDEST PUSH2 0x2EB5 DUP2 PUSH2 0x2E76 JUMP JUMPDEST DUP5 ADD SWAP2 POP POP SWAP3 SWAP2 POP POP JUMP JUMPDEST PUSH1 0x0 PUSH1 0x20 DUP3 ADD SWAP1 POP DUP2 DUP2 SUB PUSH1 0x0 DUP4 ADD MSTORE PUSH2 0x2EDA DUP2 DUP5 PUSH2 0x2E87 JUMP JUMPDEST SWAP1 POP SWAP3 SWAP2 POP POP JUMP JUMPDEST PUSH1 0x0 DUP1 REVERT JUMPDEST PUSH1 0x0 DUP1 REVERT JUMPDEST PUSH32 0x4E487B7100000000000000000000000000000000000000000000000000000000 PUSH1 0x0 MSTORE PUSH1 0x41 PUSH1 0x4 MSTORE PUSH1 0x24 PUSH1 0x0 REVERT JUMPDEST PUSH2 0x2F24 DUP3 PUSH2 0x2E76 JUMP JUMPDEST DUP2 ADD DUP2 DUP2 LT PUSH8 0xFFFFFFFFFFFFFFFF DUP3 GT OR ISZERO PUSH2 0x2F43 JUMPI PUSH2 0x2F42 PUSH2 0x2EEC JUMP JUMPDEST JUMPDEST DUP1 PUSH1 0x40 MSTORE POP POP POP JUMP JUMPDEST PUSH1 0x0 PUSH2 0x2F56 PUSH2 0x2C66 JUMP JUMPDEST SWAP1 POP PUSH2 0x2F62 DUP3 DUP3 PUSH2 0x2F1B JUMP JUMPDEST SWAP2 SWAP1 POP JUMP JUMPDEST PUSH1 0x0 PUSH8 0xFFFFFFFFFFFFFFFF DUP3 GT ISZERO PUSH2 0x2F82 JUMPI PUSH2 0x2F81 PUSH2 0x2EEC JUMP JUMPDEST JUMPDEST PUSH2 0x2F8B DUP3 PUSH2 0x2E76 JUMP JUMPDEST SWAP1 POP PUSH1 0x20 DUP2 ADD SWAP1 POP SWAP2 SWAP1 POP JUMP JUMPDEST DUP3 DUP2 DUP4 CALLDATACOPY PUSH1 0x0 DUP4 DUP4 ADD MSTORE POP POP POP JUMP JUMPDEST PUSH1 0x0 PUSH2 0x2FBA PUSH2 0x2FB5 DUP5 PUSH2 0x2F67 JUMP JUMPDEST PUSH2 0x2F4C JUMP JUMPDEST SWAP1 POP DUP3 DUP2 MSTORE PUSH1 0x20 DUP2 ADD DUP5 DUP5 DUP5 ADD GT ISZERO PUSH2 0x2FD6 JUMPI PUSH2 0x2FD5 PUSH2 0x2EE7 JUMP JUMPDEST JUMPDEST PUSH2 0x2FE1 DUP5 DUP3 DUP6 PUSH2 0x2F98 JUMP JUMPDEST POP SWAP4 SWAP3 POP POP POP JUMP JUMPDEST PUSH1 0x0 DUP3 PUSH1 0x1F DUP4 ADD SLT PUSH2 0x2FFE JUMPI PUSH2 0x2FFD PUSH2 0x2EE2 JUMP JUMPDEST JUMPDEST DUP2 CALLDATALOAD PUSH2 0x300E DUP5 DUP3 PUSH1 0x20 DUP7 ADD PUSH2 0x2FA7 JUMP JUMPDEST SWAP2 POP POP SWAP3 SWAP2 POP POP JUMP JUMPDEST PUSH1 0x0 PUSH1 0x20 DUP3 DUP5 SUB SLT ISZERO PUSH2 0x302D JUMPI PUSH2 0x302C PUSH2 0x2C70 JUMP JUMPDEST JUMPDEST PUSH1 0x0 DUP3 ADD CALLDATALOAD PUSH8 0xFFFFFFFFFFFFFFFF DUP2 GT ISZERO PUSH2 0x304B JUMPI PUSH2 0x304A PUSH2 0x2C75 JUMP JUMPDEST JUMPDEST PUSH2 0x3057 DUP5 DUP3 DUP6 ADD PUSH2 0x2FE9 JUMP JUMPDEST SWAP2 POP POP SWAP3 SWAP2 POP POP JUMP JUMPDEST PUSH1 0x0 PUSH1 0x20 DUP3 DUP5 SUB SLT ISZERO PUSH2 0x3076 JUMPI PUSH2 0x3075 PUSH2 0x2C70 JUMP JUMPDEST JUMPDEST PUSH1 0x0 PUSH2 0x3084 DUP5 DUP3 DUP6 ADD PUSH2 0x2DB4 JUMP JUMPDEST SWAP2 POP POP SWAP3 SWAP2 POP POP JUMP JUMPDEST PUSH1 0x0 PUSH2 0x3098 DUP3 PUSH2 0x2D35 JUMP JUMPDEST SWAP1 POP SWAP2 SWAP1 POP JUMP JUMPDEST PUSH2 0x30A8 DUP2 PUSH2 0x308D JUMP JUMPDEST DUP3 MSTORE POP POP JUMP JUMPDEST PUSH1 0x0 PUSH1 0x20 DUP3 ADD SWAP1 POP PUSH2 0x30C3 PUSH1 0x0 DUP4 ADD DUP5 PUSH2 0x309F JUMP JUMPDEST SWAP3 SWAP2 POP POP JUMP JUMPDEST PUSH2 0x30D2 DUP2 PUSH2 0x308D JUMP JUMPDEST DUP2 EQ PUSH2 0x30DD JUMPI PUSH1 0x0 DUP1 REVERT JUMPDEST POP JUMP JUMPDEST PUSH1 0x0 DUP2 CALLDATALOAD SWAP1 POP PUSH2 0x30EF DUP2 PUSH2 0x30C9 JUMP JUMPDEST SWAP3 SWAP2 POP POP JUMP JUMPDEST PUSH1 0x0 DUP1 PUSH1 0x40 DUP4 DUP6 SUB SLT ISZERO PUSH2 0x310C JUMPI PUSH2 0x310B PUSH2 0x2C70 JUMP JUMPDEST JUMPDEST PUSH1 0x0 PUSH2 0x311A DUP6 DUP3 DUP7 ADD PUSH2 0x30E0 JUMP JUMPDEST SWAP3 POP POP PUSH1 0x20 PUSH2 0x312B DUP6 DUP3 DUP7 ADD PUSH2 0x2DB4 JUMP JUMPDEST SWAP2 POP POP SWAP3 POP SWAP3 SWAP1 POP JUMP JUMPDEST PUSH2 0x313E DUP2 PUSH2 0x2D93 JUMP JUMPDEST DUP3 MSTORE POP POP JUMP JUMPDEST PUSH1 0x0 PUSH1 0x20 DUP3 ADD SWAP1 POP PUSH2 0x3159 PUSH1 0x0 DUP4 ADD DUP5 PUSH2 0x3135 JUMP JUMPDEST SWAP3 SWAP2 POP POP JUMP JUMPDEST PUSH1 0x0 DUP1 PUSH1 0x0 PUSH1 0x60 DUP5 DUP7 SUB SLT ISZERO PUSH2 0x3178 JUMPI PUSH2 0x3177 PUSH2 0x2C70 JUMP JUMPDEST JUMPDEST PUSH1 0x0 PUSH2 0x3186 DUP7 DUP3 DUP8 ADD PUSH2 0x30E0 JUMP JUMPDEST SWAP4 POP POP PUSH1 0x20 PUSH2 0x3197 DUP7 DUP3 DUP8 ADD PUSH2 0x30E0 JUMP JUMPDEST SWAP3 POP POP PUSH1 0x40 PUSH2 0x31A8 DUP7 DUP3 DUP8 ADD PUSH2 0x2DB4 JUMP JUMPDEST SWAP2 POP POP SWAP3 POP SWAP3 POP SWAP3 JUMP JUMPDEST PUSH1 0x0 PUSH1 0x20 DUP3 DUP5 SUB SLT ISZERO PUSH2 0x31C8 JUMPI PUSH2 0x31C7 PUSH2 0x2C70 JUMP JUMPDEST JUMPDEST PUSH1 0x0 PUSH2 0x31D6 DUP5 DUP3 DUP6 ADD PUSH2 0x30E0 JUMP JUMPDEST SWAP2 POP POP SWAP3 SWAP2 POP POP JUMP JUMPDEST PUSH1 0x0 DUP2 MLOAD SWAP1 POP SWAP2 SWAP1 POP JUMP JUMPDEST PUSH1 0x0 DUP3 DUP3 MSTORE PUSH1 0x20 DUP3 ADD SWAP1 POP SWAP3 SWAP2 POP POP JUMP JUMPDEST PUSH1 0x0 DUP2 SWAP1 POP PUSH1 0x20 DUP3 ADD SWAP1 POP SWAP2 SWAP1 POP JUMP JUMPDEST PUSH2 0x3214 DUP2 PUSH2 0x2D93 JUMP JUMPDEST DUP3 MSTORE POP POP JUMP JUMPDEST PUSH1 0x0 PUSH2 0x3226 DUP4 DUP4 PUSH2 0x320B JUMP JUMPDEST PUSH1 0x20 DUP4 ADD SWAP1 POP SWAP3 SWAP2 POP POP JUMP JUMPDEST PUSH1 0x0 PUSH1 0x20 DUP3 ADD SWAP1 POP SWAP2 SWAP1 POP JUMP JUMPDEST PUSH1 0x0 PUSH2 0x324A DUP3 PUSH2 0x31DF JUMP JUMPDEST PUSH2 0x3254 DUP2 DUP6 PUSH2 0x31EA JUMP JUMPDEST SWAP4 POP PUSH2 0x325F DUP4 PUSH2 0x31FB JUMP JUMPDEST DUP1 PUSH1 0x0 JUMPDEST DUP4 DUP2 LT ISZERO PUSH2 0x3290 JUMPI DUP2 MLOAD PUSH2 0x3277 DUP9 DUP3 PUSH2 0x321A JUMP JUMPDEST SWAP8 POP PUSH2 0x3282 DUP4 PUSH2 0x3232 JUMP JUMPDEST SWAP3 POP POP PUSH1 0x1 DUP2 ADD SWAP1 POP PUSH2 0x3263 JUMP JUMPDEST POP DUP6 SWAP4 POP POP POP POP SWAP3 SWAP2 POP POP JUMP JUMPDEST PUSH1 0x0 PUSH1 0x20 DUP3 ADD SWAP1 POP DUP2 DUP2 SUB PUSH1 0x0 DUP4 ADD MSTORE PUSH2 0x32B7 DUP2 DUP5 PUSH2 0x323F JUMP JUMPDEST SWAP1 POP SWAP3 SWAP2 POP POP JUMP JUMPDEST PUSH2 0x32C8 DUP2 PUSH2 0x2CFF JUMP JUMPDEST DUP2 EQ PUSH2 0x32D3 JUMPI PUSH1 0x0 DUP1 REVERT JUMPDEST POP JUMP JUMPDEST PUSH1 0x0 DUP2 CALLDATALOAD SWAP1 POP PUSH2 0x32E5 DUP2 PUSH2 0x32BF JUMP JUMPDEST SWAP3 SWAP2 POP POP JUMP JUMPDEST PUSH1 0x0 DUP1 PUSH1 0x40 DUP4 DUP6 SUB SLT ISZERO PUSH2 0x3302 JUMPI PUSH2 0x3301 PUSH2 0x2C70 JUMP JUMPDEST JUMPDEST PUSH1 0x0 PUSH2 0x3310 DUP6 DUP3 DUP7 ADD PUSH2 0x30E0 JUMP JUMPDEST SWAP3 POP POP PUSH1 0x20 PUSH2 0x3321 DUP6 DUP3 DUP7 ADD PUSH2 0x32D6 JUMP JUMPDEST SWAP2 POP POP SWAP3 POP SWAP3 SWAP1 POP JUMP JUMPDEST PUSH1 0x0 DUP3 DUP3 MSTORE PUSH1 0x20 DUP3 ADD SWAP1 POP SWAP3 SWAP2 POP POP JUMP JUMPDEST PUSH1 0x0 PUSH2 0x3347 DUP3 PUSH2 0x2E30 JUMP JUMPDEST PUSH2 0x3351 DUP2 DUP6 PUSH2 0x332B JUMP JUMPDEST SWAP4 POP PUSH2 0x3361 DUP2 DUP6 PUSH1 0x20 DUP7 ADD PUSH2 0x2E4C JUMP JUMPDEST PUSH2 0x336A DUP2 PUSH2 0x2E76 JUMP JUMPDEST DUP5 ADD SWAP2 POP POP SWAP3 SWAP2 POP POP JUMP JUMPDEST PUSH1 0x0 PUSH1 0xFF DUP3 AND SWAP1 POP SWAP2 SWAP1 POP JUMP JUMPDEST PUSH2 0x338B DUP2 PUSH2 0x3375 JUMP JUMPDEST DUP3 MSTORE POP POP JUMP JUMPDEST PUSH1 0x0 PUSH1 0xA0 DUP4 ADD PUSH1 0x0 DUP4 ADD MLOAD DUP5 DUP3 SUB PUSH1 0x0 DUP7 ADD MSTORE PUSH2 0x33AE DUP3 DUP3 PUSH2 0x333C JUMP JUMPDEST SWAP2 POP POP PUSH1 0x20 DUP4 ADD MLOAD DUP5 DUP3 SUB PUSH1 0x20 DUP7 ADD MSTORE PUSH2 0x33C8 DUP3 DUP3 PUSH2 0x333C JUMP JUMPDEST SWAP2 POP POP PUSH1 0x40 DUP4 ADD MLOAD PUSH2 0x33DD PUSH1 0x40 DUP7 ADD DUP3 PUSH2 0x3382 JUMP JUMPDEST POP PUSH1 0x60 DUP4 ADD MLOAD PUSH2 0x33F0 PUSH1 0x60 DUP7 ADD DUP3 PUSH2 0x3382 JUMP JUMPDEST POP PUSH1 0x80 DUP4 ADD MLOAD PUSH2 0x3403 PUSH1 0x80 DUP7 ADD DUP3 PUSH2 0x3382 JUMP JUMPDEST POP DUP1 SWAP2 POP POP SWAP3 SWAP2 POP POP JUMP JUMPDEST PUSH2 0x3417 DUP2 PUSH2 0x308D JUMP JUMPDEST DUP3 MSTORE POP POP JUMP JUMPDEST PUSH1 0x0 PUSH1 0xA0 DUP4 ADD PUSH1 0x0 DUP4 ADD MLOAD PUSH2 0x3435 PUSH1 0x0 DUP7 ADD DUP3 PUSH2 0x320B JUMP JUMPDEST POP PUSH1 0x20 DUP4 ADD MLOAD PUSH2 0x3448 PUSH1 0x20 DUP7 ADD DUP3 PUSH2 0x320B JUMP JUMPDEST POP PUSH1 0x40 DUP4 ADD MLOAD PUSH2 0x345B PUSH1 0x40 DUP7 ADD DUP3 PUSH2 0x320B JUMP JUMPDEST POP PUSH1 0x60 DUP4 ADD MLOAD DUP5 DUP3 SUB PUSH1 0x60 DUP7 ADD MSTORE PUSH2 0x3473 DUP3 DUP3 PUSH2 0x3391 JUMP JUMPDEST SWAP2 POP POP PUSH1 0x80 DUP4 ADD MLOAD PUSH2 0x3488 PUSH1 0x80 DUP7 ADD DUP3 PUSH2 0x340E JUMP JUMPDEST POP DUP1 SWAP2 POP POP SWAP3 SWAP2 POP POP JUMP JUMPDEST PUSH1 0x0 PUSH1 0x20 DUP3 ADD SWAP1 POP DUP2 DUP2 SUB PUSH1 0x0 DUP4 ADD MSTORE PUSH2 0x34AD DUP2 DUP5 PUSH2 0x341D JUMP JUMPDEST SWAP1 POP SWAP3 SWAP2 POP POP JUMP JUMPDEST PUSH1 0x0 PUSH8 0xFFFFFFFFFFFFFFFF DUP3 GT ISZERO PUSH2 0x34D0 JUMPI PUSH2 0x34CF PUSH2 0x2EEC JUMP JUMPDEST JUMPDEST PUSH2 0x34D9 DUP3 PUSH2 0x2E76 JUMP JUMPDEST SWAP1 POP PUSH1 0x20 DUP2 ADD SWAP1 POP SWAP2 SWAP1 POP JUMP JUMPDEST PUSH1 0x0 PUSH2 0x34F9 PUSH2 0x34F4 DUP5 PUSH2 0x34B5 JUMP JUMPDEST PUSH2 0x2F4C JUMP JUMPDEST SWAP1 POP DUP3 DUP2 MSTORE PUSH1 0x20 DUP2 ADD DUP5 DUP5 DUP5 ADD GT ISZERO PUSH2 0x3515 JUMPI PUSH2 0x3514 PUSH2 0x2EE7 JUMP JUMPDEST JUMPDEST PUSH2 0x3520 DUP5 DUP3 DUP6 PUSH2 0x2F98 JUMP JUMPDEST POP SWAP4 SWAP3 POP POP POP JUMP JUMPDEST PUSH1 0x0 DUP3 PUSH1 0x1F DUP4 ADD SLT PUSH2 0x353D JUMPI PUSH2 0x353C PUSH2 0x2EE2 JUMP JUMPDEST JUMPDEST DUP2 CALLDATALOAD PUSH2 0x354D DUP5 DUP3 PUSH1 0x20 DUP7 ADD PUSH2 0x34E6 JUMP JUMPDEST SWAP2 POP POP SWAP3 SWAP2 POP POP JUMP JUMPDEST PUSH1 0x0 DUP1 PUSH1 0x0 DUP1 PUSH1 0x80 DUP6 DUP8 SUB SLT ISZERO PUSH2 0x3570 JUMPI PUSH2 0x356F PUSH2 0x2C70 JUMP JUMPDEST JUMPDEST PUSH1 0x0 PUSH2 0x357E DUP8 DUP3 DUP9 ADD PUSH2 0x30E0 JUMP JUMPDEST SWAP5 POP POP PUSH1 0x20 PUSH2 0x358F DUP8 DUP3 DUP9 ADD PUSH2 0x30E0 JUMP JUMPDEST SWAP4 POP POP PUSH1 0x40 PUSH2 0x35A0 DUP8 DUP3 DUP9 ADD PUSH2 0x2DB4 JUMP JUMPDEST SWAP3 POP POP PUSH1 0x60 DUP6 ADD CALLDATALOAD PUSH8 0xFFFFFFFFFFFFFFFF DUP2 GT ISZERO PUSH2 0x35C1 JUMPI PUSH2 0x35C0 PUSH2 0x2C75 JUMP JUMPDEST JUMPDEST PUSH2 0x35CD DUP8 DUP3 DUP9 ADD PUSH2 0x3528 JUMP JUMPDEST SWAP2 POP POP SWAP3 SWAP6 SWAP2 SWAP5 POP SWAP3 POP JUMP JUMPDEST PUSH1 0x0 PUSH2 0x120 DUP4 ADD PUSH1 0x0 DUP4 ADD MLOAD PUSH2 0x35F2 PUSH1 0x0 DUP7 ADD DUP3 PUSH2 0x340E JUMP JUMPDEST POP PUSH1 0x20 DUP4 ADD MLOAD DUP5 DUP3 SUB PUSH1 0x20 DUP7 ADD MSTORE PUSH2 0x360A DUP3 DUP3 PUSH2 0x333C JUMP JUMPDEST SWAP2 POP POP PUSH1 0x40 DUP4 ADD MLOAD PUSH2 0x361F PUSH1 0x40 DUP7 ADD DUP3 PUSH2 0x320B JUMP JUMPDEST POP PUSH1 0x60 DUP4 ADD MLOAD PUSH2 0x3632 PUSH1 0x60 DUP7 ADD DUP3 PUSH2 0x320B JUMP JUMPDEST POP PUSH1 0x80 DUP4 ADD MLOAD PUSH2 0x3645 PUSH1 0x80 DUP7 ADD DUP3 PUSH2 0x320B JUMP JUMPDEST POP PUSH1 0xA0 DUP4 ADD MLOAD PUSH2 0x3658 PUSH1 0xA0 DUP7 ADD DUP3 PUSH2 0x320B JUMP JUMPDEST POP PUSH1 0xC0 DUP4 ADD MLOAD PUSH2 0x366B PUSH1 0xC0 DUP7 ADD DUP3 PUSH2 0x320B JUMP JUMPDEST POP PUSH1 0xE0 DUP4 ADD MLOAD PUSH2 0x367E PUSH1 0xE0 DUP7 ADD DUP3 PUSH2 0x320B JUMP JUMPDEST POP PUSH2 0x100 DUP4 ADD MLOAD PUSH2 0x3693 PUSH2 0x100 DUP7 ADD DUP3 PUSH2 0x320B JUMP JUMPDEST POP DUP1 SWAP2 POP POP SWAP3 SWAP2 POP POP JUMP JUMPDEST PUSH1 0x0 PUSH1 0x20 DUP3 ADD SWAP1 POP DUP2 DUP2 SUB PUSH1 0x0 DUP4 ADD MSTORE PUSH2 0x36B8 DUP2 DUP5 PUSH2 0x35D9 JUMP JUMPDEST SWAP1 POP SWAP3 SWAP2 POP POP JUMP JUMPDEST PUSH1 0x0 DUP1 PUSH1 0x40 DUP4 DUP6 SUB SLT ISZERO PUSH2 0x36D7 JUMPI PUSH2 0x36D6 PUSH2 0x2C70 JUMP JUMPDEST JUMPDEST PUSH1 0x0 PUSH2 0x36E5 DUP6 DUP3 DUP7 ADD PUSH2 0x30E0 JUMP JUMPDEST SWAP3 POP POP PUSH1 0x20 PUSH2 0x36F6 DUP6 DUP3 DUP7 ADD PUSH2 0x30E0 JUMP JUMPDEST SWAP2 POP POP SWAP3 POP SWAP3 SWAP1 POP JUMP JUMPDEST PUSH1 0x0 DUP1 PUSH1 0x0 PUSH1 0x60 DUP5 DUP7 SUB SLT ISZERO PUSH2 0x3719 JUMPI PUSH2 0x3718 PUSH2 0x2C70 JUMP JUMPDEST JUMPDEST PUSH1 0x0 PUSH2 0x3727 DUP7 DUP3 DUP8 ADD PUSH2 0x2DB4 JUMP JUMPDEST SWAP4 POP POP PUSH1 0x20 PUSH2 0x3738 DUP7 DUP3 DUP8 ADD PUSH2 0x30E0 JUMP JUMPDEST SWAP3 POP POP PUSH1 0x40 DUP5 ADD CALLDATALOAD PUSH8 0xFFFFFFFFFFFFFFFF DUP2 GT ISZERO PUSH2 0x3759 JUMPI PUSH2 0x3758 PUSH2 0x2C75 JUMP JUMPDEST JUMPDEST PUSH2 0x3765 DUP7 DUP3 DUP8 ADD PUSH2 0x2FE9 JUMP JUMPDEST SWAP2 POP POP SWAP3 POP SWAP3 POP SWAP3 JUMP JUMPDEST PUSH1 0x0 DUP2 SWAP1 POP SWAP2 SWAP1 POP JUMP JUMPDEST PUSH1 0x0 PUSH2 0x3794 PUSH2 0x378F PUSH2 0x378A DUP5 PUSH2 0x2D35 JUMP JUMPDEST PUSH2 0x376F JUMP JUMPDEST PUSH2 0x2D35 JUMP JUMPDEST SWAP1 POP SWAP2 SWAP1 POP JUMP JUMPDEST PUSH1 0x0 PUSH2 0x37A6 DUP3 PUSH2 0x3779 JUMP JUMPDEST SWAP1 POP SWAP2 SWAP1 POP JUMP JUMPDEST PUSH1 0x0 PUSH2 0x37B8 DUP3 PUSH2 0x379B JUMP JUMPDEST SWAP1 POP SWAP2 SWAP1 POP JUMP JUMPDEST PUSH2 0x37C8 DUP2 PUSH2 0x37AD JUMP JUMPDEST DUP3 MSTORE POP POP JUMP JUMPDEST PUSH1 0x0 PUSH1 0x60 DUP3 ADD SWAP1 POP PUSH2 0x37E3 PUSH1 0x0 DUP4 ADD DUP7 PUSH2 0x37BF JUMP JUMPDEST PUSH2 0x37F0 PUSH1 0x20 DUP4 ADD DUP6 PUSH2 0x309F JUMP JUMPDEST PUSH2 0x37FD PUSH1 0x40 DUP4 ADD DUP5 PUSH2 0x3135 JUMP JUMPDEST SWAP5 SWAP4 POP POP POP POP JUMP JUMPDEST PUSH32 0x4E487B7100000000000000000000000000000000000000000000000000000000 PUSH1 0x0 MSTORE PUSH1 0x22 PUSH1 0x4 MSTORE PUSH1 0x24 PUSH1 0x0 REVERT JUMPDEST PUSH1 0x0 PUSH1 0x2 DUP3 DIV SWAP1 POP PUSH1 0x1 DUP3 AND DUP1 PUSH2 0x384C JUMPI PUSH1 0x7F DUP3 AND SWAP2 POP JUMPDEST PUSH1 0x20 DUP3 LT DUP2 SUB PUSH2 0x385F JUMPI PUSH2 0x385E PUSH2 0x3805 JUMP JUMPDEST JUMPDEST POP SWAP2 SWAP1 POP JUMP JUMPDEST PUSH1 0x0 DUP2 SWAP1 POP DUP2 PUSH1 0x0 MSTORE PUSH1 0x20 PUSH1 0x0 KECCAK256 SWAP1 POP SWAP2 SWAP1 POP JUMP JUMPDEST PUSH1 0x0 PUSH1 0x20 PUSH1 0x1F DUP4 ADD DIV SWAP1 POP SWAP2 SWAP1 POP JUMP JUMPDEST PUSH1 0x0 DUP3 DUP3 SHL SWAP1 POP SWAP3 SWAP2 POP POP JUMP JUMPDEST PUSH1 0x0 PUSH1 0x8 DUP4 MUL PUSH2 0x38C7 PUSH32 0xFFFFFFFFFFFFFFFFFFFFFFFFFFFFFFFFFFFFFFFFFFFFFFFFFFFFFFFFFFFFFFFF DUP3 PUSH2 0x388A JUMP JUMPDEST PUSH2 0x38D1 DUP7 DUP4 PUSH2 0x388A JUMP JUMPDEST SWAP6 POP DUP1 NOT DUP5 AND SWAP4 POP DUP1 DUP7 AND DUP5 OR SWAP3 POP POP POP SWAP4 SWAP3 POP POP POP JUMP JUMPDEST PUSH1 0x0 PUSH2 0x3904 PUSH2 0x38FF PUSH2 0x38FA DUP5 PUSH2 0x2D93 JUMP JUMPDEST PUSH2 0x376F JUMP JUMPDEST PUSH2 0x2D93 JUMP JUMPDEST SWAP1 POP SWAP2 SWAP1 POP JUMP JUMPDEST PUSH1 0x0 DUP2 SWAP1 POP SWAP2 SWAP1 POP JUMP JUMPDEST PUSH2 0x391E DUP4 PUSH2 0x38E9 JUMP JUMPDEST PUSH2 0x3932 PUSH2 0x392A DUP3 PUSH2 0x390B JUMP JUMPDEST DUP5 DUP5 SLOAD PUSH2 0x3897 JUMP JUMPDEST DUP3 SSTORE POP POP POP POP JUMP JUMPDEST PUSH1 0x0 SWAP1 JUMP JUMPDEST PUSH2 0x3947 PUSH2 0x393A JUMP JUMPDEST PUSH2 0x3952 DUP2 DUP5 DUP5 PUSH2 0x3915 JUMP JUMPDEST POP POP POP JUMP JUMPDEST JUMPDEST DUP2 DUP2 LT ISZERO PUSH2 0x3976 JUMPI PUSH2 0x396B PUSH1 0x0 DUP3 PUSH2 0x393F JUMP JUMPDEST PUSH1 0x1 DUP2 ADD SWAP1 POP PUSH2 0x3958 JUMP JUMPDEST POP POP JUMP JUMPDEST PUSH1 0x1F DUP3 GT ISZERO PUSH2 0x39BB JUMPI PUSH2 0x398C DUP2 PUSH2 0x3865 JUMP JUMPDEST PUSH2 0x3995 DUP5 PUSH2 0x387A JUMP JUMPDEST DUP2 ADD PUSH1 0x20 DUP6 LT ISZERO PUSH2 0x39A4 JUMPI DUP2 SWAP1 POP JUMPDEST PUSH2 0x39B8 PUSH2 0x39B0 DUP6 PUSH2 0x387A JUMP JUMPDEST DUP4 ADD DUP3 PUSH2 0x3957 JUMP JUMPDEST POP POP JUMPDEST POP POP POP JUMP JUMPDEST PUSH1 0x0 DUP3 DUP3 SHR SWAP1 POP SWAP3 SWAP2 POP POP JUMP JUMPDEST PUSH1 0x0 PUSH2 0x39DE PUSH1 0x0 NOT DUP5 PUSH1 0x8 MUL PUSH2 0x39C0 JUMP JUMPDEST NOT DUP1 DUP4 AND SWAP2 POP POP SWAP3 SWAP2 POP POP JUMP JUMPDEST PUSH1 0x0 PUSH2 0x39F7 DUP4 DUP4 PUSH2 0x39CD JUMP JUMPDEST SWAP2 POP DUP3 PUSH1 0x2 MUL DUP3 OR SWAP1 POP SWAP3 SWAP2 POP POP JUMP JUMPDEST PUSH2 0x3A10 DUP3 PUSH2 0x2E30 JUMP JUMPDEST PUSH8 0xFFFFFFFFFFFFFFFF DUP2 GT ISZERO PUSH2 0x3A29 JUMPI PUSH2 0x3A28 PUSH2 0x2EEC JUMP JUMPDEST JUMPDEST PUSH2 0x3A33 DUP3 SLOAD PUSH2 0x3834 JUMP JUMPDEST PUSH2 0x3A3E DUP3 DUP3 DUP6 PUSH2 0x397A JUMP JUMPDEST PUSH1 0x0 PUSH1 0x20 SWAP1 POP PUSH1 0x1F DUP4 GT PUSH1 0x1 DUP2 EQ PUSH2 0x3A71 JUMPI PUSH1 0x0 DUP5 ISZERO PUSH2 0x3A5F JUMPI DUP3 DUP8 ADD MLOAD SWAP1 POP JUMPDEST PUSH2 0x3A69 DUP6 DUP3 PUSH2 0x39EB JUMP JUMPDEST DUP7 SSTORE POP PUSH2 0x3AD1 JUMP JUMPDEST PUSH1 0x1F NOT DUP5 AND PUSH2 0x3A7F DUP7 PUSH2 0x3865 JUMP JUMPDEST PUSH1 0x0 JUMPDEST DUP3 DUP2 LT ISZERO PUSH2 0x3AA7 JUMPI DUP5 DUP10 ADD MLOAD DUP3 SSTORE PUSH1 0x1 DUP3 ADD SWAP2 POP PUSH1 0x20 DUP6 ADD SWAP5 POP PUSH1 0x20 DUP2 ADD SWAP1 POP PUSH2 0x3A82 JUMP JUMPDEST DUP7 DUP4 LT ISZERO PUSH2 0x3AC4 JUMPI DUP5 DUP10 ADD MLOAD PUSH2 0x3AC0 PUSH1 0x1F DUP10 AND DUP3 PUSH2 0x39CD JUMP JUMPDEST DUP4 SSTORE POP JUMPDEST PUSH1 0x1 PUSH1 0x2 DUP9 MUL ADD DUP9 SSTORE POP POP POP JUMPDEST POP POP POP POP POP POP JUMP JUMPDEST PUSH32 0x4552433732313A20617070726F76616C20746F2063757272656E74206F776E65 PUSH1 0x0 DUP3 ADD MSTORE PUSH32 0x7200000000000000000000000000000000000000000000000000000000000000 PUSH1 0x20 DUP3 ADD MSTORE POP JUMP JUMPDEST PUSH1 0x0 PUSH2 0x3B35 PUSH1 0x21 DUP4 PUSH2 0x2E3B JUMP JUMPDEST SWAP2 POP PUSH2 0x3B40 DUP3 PUSH2 0x3AD9 JUMP JUMPDEST PUSH1 0x40 DUP3 ADD SWAP1 POP SWAP2 SWAP1 POP JUMP JUMPDEST PUSH1 0x0 PUSH1 0x20 DUP3 ADD SWAP1 POP DUP2 DUP2 SUB PUSH1 0x0 DUP4 ADD MSTORE PUSH2 0x3B64 DUP2 PUSH2 0x3B28 JUMP JUMPDEST SWAP1 POP SWAP2 SWAP1 POP JUMP JUMPDEST PUSH32 0x4552433732313A20617070726F76652063616C6C6572206973206E6F7420746F PUSH1 0x0 DUP3 ADD MSTORE PUSH32 0x6B656E206F776E6572206F7220617070726F76656420666F7220616C6C000000 PUSH1 0x20 DUP3 ADD MSTORE POP JUMP JUMPDEST PUSH1 0x0 PUSH2 0x3BC7 PUSH1 0x3D DUP4 PUSH2 0x2E3B JUMP JUMPDEST SWAP2 POP PUSH2 0x3BD2 DUP3 PUSH2 0x3B6B JUMP JUMPDEST PUSH1 0x40 DUP3 ADD SWAP1 POP SWAP2 SWAP1 POP JUMP JUMPDEST PUSH1 0x0 PUSH1 0x20 DUP3 ADD SWAP1 POP DUP2 DUP2 SUB PUSH1 0x0 DUP4 ADD MSTORE PUSH2 0x3BF6 DUP2 PUSH2 0x3BBA JUMP JUMPDEST SWAP1 POP SWAP2 SWAP1 POP JUMP JUMPDEST PUSH32 0x4E487B7100000000000000000000000000000000000000000000000000000000 PUSH1 0x0 MSTORE PUSH1 0x11 PUSH1 0x4 MSTORE PUSH1 0x24 PUSH1 0x0 REVERT JUMPDEST PUSH1 0x0 DUP2 PUSH1 0x1 SHR SWAP1 POP SWAP2 SWAP1 POP JUMP JUMPDEST PUSH1 0x0 DUP1 DUP3 SWAP2 POP DUP4 SWAP1 POP JUMPDEST PUSH1 0x1 DUP6 GT ISZERO PUSH2 0x3C83 JUMPI DUP1 DUP7 DIV DUP2 GT ISZERO PUSH2 0x3C5F JUMPI PUSH2 0x3C5E PUSH2 0x3BFD JUMP JUMPDEST JUMPDEST PUSH1 0x1 DUP6 AND ISZERO PUSH2 0x3C6E JUMPI DUP1 DUP3 MUL SWAP2 POP JUMPDEST DUP1 DUP2 MUL SWAP1 POP PUSH2 0x3C7C DUP6 PUSH2 0x3C2C JUMP JUMPDEST SWAP5 POP PUSH2 0x3C43 JUMP JUMPDEST SWAP5 POP SWAP5 SWAP3 POP POP POP JUMP JUMPDEST PUSH1 0x0 DUP3 PUSH2 0x3C9C JUMPI PUSH1 0x1 SWAP1 POP PUSH2 0x3D58 JUMP JUMPDEST DUP2 PUSH2 0x3CAA JUMPI PUSH1 0x0 SWAP1 POP PUSH2 0x3D58 JUMP JUMPDEST DUP2 PUSH1 0x1 DUP2 EQ PUSH2 0x3CC0 JUMPI PUSH1 0x2 DUP2 EQ PUSH2 0x3CCA JUMPI PUSH2 0x3CF9 JUMP JUMPDEST PUSH1 0x1 SWAP2 POP POP PUSH2 0x3D58 JUMP JUMPDEST PUSH1 0xFF DUP5 GT ISZERO PUSH2 0x3CDC JUMPI PUSH2 0x3CDB PUSH2 0x3BFD JUMP JUMPDEST JUMPDEST DUP4 PUSH1 0x2 EXP SWAP2 POP DUP5 DUP3 GT ISZERO PUSH2 0x3CF3 JUMPI PUSH2 0x3CF2 PUSH2 0x3BFD JUMP JUMPDEST JUMPDEST POP PUSH2 0x3D58 JUMP JUMPDEST POP PUSH1 0x20 DUP4 LT PUSH2 0x133 DUP4 LT AND PUSH1 0x4E DUP5 LT PUSH1 0xB DUP5 LT AND OR ISZERO PUSH2 0x3D2E JUMPI DUP3 DUP3 EXP SWAP1 POP DUP4 DUP2 GT ISZERO PUSH2 0x3D29 JUMPI PUSH2 0x3D28 PUSH2 0x3BFD JUMP JUMPDEST JUMPDEST PUSH2 0x3D58 JUMP JUMPDEST PUSH2 0x3D3B DUP5 DUP5 DUP5 PUSH1 0x1 PUSH2 0x3C39 JUMP JUMPDEST SWAP3 POP SWAP1 POP DUP2 DUP5 DIV DUP2 GT ISZERO PUSH2 0x3D52 JUMPI PUSH2 0x3D51 PUSH2 0x3BFD JUMP JUMPDEST JUMPDEST DUP2 DUP2 MUL SWAP1 POP JUMPDEST SWAP4 SWAP3 POP POP POP JUMP JUMPDEST PUSH1 0x0 PUSH2 0x3D6A DUP3 PUSH2 0x2D93 JUMP JUMPDEST SWAP2 POP PUSH2 0x3D75 DUP4 PUSH2 0x2D93 JUMP JUMPDEST SWAP3 POP PUSH2 0x3DA2 PUSH32 0xFFFFFFFFFFFFFFFFFFFFFFFFFFFFFFFFFFFFFFFFFFFFFFFFFFFFFFFFFFFFFFFF DUP5 DUP5 PUSH2 0x3C8C JUMP JUMPDEST SWAP1 POP SWAP3 SWAP2 POP POP JUMP JUMPDEST PUSH1 0x0 PUSH2 0x3DB5 DUP3 PUSH2 0x2D93 JUMP JUMPDEST SWAP2 POP PUSH2 0x3DC0 DUP4 PUSH2 0x2D93 JUMP JUMPDEST SWAP3 POP DUP3 DUP3 MUL PUSH2 0x3DCE DUP2 PUSH2 0x2D93 JUMP JUMPDEST SWAP2 POP DUP3 DUP3 DIV DUP5 EQ DUP4 ISZERO OR PUSH2 0x3DE5 JUMPI PUSH2 0x3DE4 PUSH2 0x3BFD JUMP JUMPDEST JUMPDEST POP SWAP3 SWAP2 POP POP JUMP JUMPDEST PUSH32 0x4E487B7100000000000000000000000000000000000000000000000000000000 PUSH1 0x0 MSTORE PUSH1 0x12 PUSH1 0x4 MSTORE PUSH1 0x24 PUSH1 0x0 REVERT JUMPDEST PUSH1 0x0 PUSH2 0x3E26 DUP3 PUSH2 0x2D93 JUMP JUMPDEST SWAP2 POP PUSH2 0x3E31 DUP4 PUSH2 0x2D93 JUMP JUMPDEST SWAP3 POP DUP3 PUSH2 0x3E41 JUMPI PUSH2 0x3E40 PUSH2 0x3DEC JUMP JUMPDEST JUMPDEST DUP3 DUP3 DIV SWAP1 POP SWAP3 SWAP2 POP POP JUMP JUMPDEST PUSH32 0x4552433732313A2063616C6C6572206973206E6F7420746F6B656E206F776E65 PUSH1 0x0 DUP3 ADD MSTORE PUSH32 0x72206F7220617070726F76656400000000000000000000000000000000000000 PUSH1 0x20 DUP3 ADD MSTORE POP JUMP JUMPDEST PUSH1 0x0 PUSH2 0x3EA8 PUSH1 0x2D DUP4 PUSH2 0x2E3B JUMP JUMPDEST SWAP2 POP PUSH2 0x3EB3 DUP3 PUSH2 0x3E4C JUMP JUMPDEST PUSH1 0x40 DUP3 ADD SWAP1 POP SWAP2 SWAP1 POP JUMP JUMPDEST PUSH1 0x0 PUSH1 0x20 DUP3 ADD SWAP1 POP DUP2 DUP2 SUB PUSH1 0x0 DUP4 ADD MSTORE PUSH2 0x3ED7 DUP2 PUSH2 0x3E9B JUMP JUMPDEST SWAP1 POP SWAP2 SWAP1 POP JUMP JUMPDEST PUSH1 0x0 PUSH2 0x3EE9 DUP3 PUSH2 0x2D93 JUMP JUMPDEST SWAP2 POP PUSH2 0x3EF4 DUP4 PUSH2 0x2D93 JUMP JUMPDEST SWAP3 POP DUP3 DUP3 SUB SWAP1 POP DUP2 DUP2 GT ISZERO PUSH2 0x3F0C JUMPI PUSH2 0x3F0B PUSH2 0x3BFD JUMP JUMPDEST JUMPDEST SWAP3 SWAP2 POP POP JUMP JUMPDEST PUSH1 0x0 PUSH2 0x3F1D DUP3 PUSH2 0x2D93 JUMP JUMPDEST SWAP2 POP PUSH2 0x3F28 DUP4 PUSH2 0x2D93 JUMP JUMPDEST SWAP3 POP DUP3 PUSH2 0x3F38 JUMPI PUSH2 0x3F37 PUSH2 0x3DEC JUMP JUMPDEST JUMPDEST DUP3 DUP3 MOD SWAP1 POP SWAP3 SWAP2 POP POP JUMP JUMPDEST PUSH32 0x4E6F206D6F726520617661696C61626C65206E66747320746F20707572636861 PUSH1 0x0 DUP3 ADD MSTORE PUSH32 0x7365000000000000000000000000000000000000000000000000000000000000 PUSH1 0x20 DUP3 ADD MSTORE POP JUMP JUMPDEST PUSH1 0x0 PUSH2 0x3F9F PUSH1 0x22 DUP4 PUSH2 0x2E3B JUMP JUMPDEST SWAP2 POP PUSH2 0x3FAA DUP3 PUSH2 0x3F43 JUMP JUMPDEST PUSH1 0x40 DUP3 ADD SWAP1 POP SWAP2 SWAP1 POP JUMP JUMPDEST PUSH1 0x0 PUSH1 0x20 DUP3 ADD SWAP1 POP DUP2 DUP2 SUB PUSH1 0x0 DUP4 ADD MSTORE PUSH2 0x3FCE DUP2 PUSH2 0x3F92 JUMP JUMPDEST SWAP1 POP SWAP2 SWAP1 POP JUMP JUMPDEST PUSH32 0x4552433732313A20696E76616C696420746F6B656E2049440000000000000000 PUSH1 0x0 DUP3 ADD MSTORE POP JUMP JUMPDEST PUSH1 0x0 PUSH2 0x400B PUSH1 0x18 DUP4 PUSH2 0x2E3B JUMP JUMPDEST SWAP2 POP PUSH2 0x4016 DUP3 PUSH2 0x3FD5 JUMP JUMPDEST PUSH1 0x20 DUP3 ADD SWAP1 POP SWAP2 SWAP1 POP JUMP JUMPDEST PUSH1 0x0 PUSH1 0x20 DUP3 ADD SWAP1 POP DUP2 DUP2 SUB PUSH1 0x0 DUP4 ADD MSTORE PUSH2 0x403A DUP2 PUSH2 0x3FFE JUMP JUMPDEST SWAP1 POP SWAP2 SWAP1 POP JUMP JUMPDEST PUSH32 0x4552433732313A2061646472657373207A65726F206973206E6F742061207661 PUSH1 0x0 DUP3 ADD MSTORE PUSH32 0x6C6964206F776E65720000000000000000000000000000000000000000000000 PUSH1 0x20 DUP3 ADD MSTORE POP JUMP JUMPDEST PUSH1 0x0 PUSH2 0x409D PUSH1 0x29 DUP4 PUSH2 0x2E3B JUMP JUMPDEST SWAP2 POP PUSH2 0x40A8 DUP3 PUSH2 0x4041 JUMP JUMPDEST PUSH1 0x40 DUP3 ADD SWAP1 POP SWAP2 SWAP1 POP JUMP JUMPDEST PUSH1 0x0 PUSH1 0x20 DUP3 ADD SWAP1 POP DUP2 DUP2 SUB PUSH1 0x0 DUP4 ADD MSTORE PUSH2 0x40CC DUP2 PUSH2 0x4090 JUMP JUMPDEST SWAP1 POP SWAP2 SWAP1 POP JUMP JUMPDEST PUSH1 0x0 DUP2 SWAP1 POP SWAP3 SWAP2 POP POP JUMP JUMPDEST PUSH1 0x0 PUSH2 0x40E9 DUP3 PUSH2 0x2E30 JUMP JUMPDEST PUSH2 0x40F3 DUP2 DUP6 PUSH2 0x40D3 JUMP JUMPDEST SWAP4 POP PUSH2 0x4103 DUP2 DUP6 PUSH1 0x20 DUP7 ADD PUSH2 0x2E4C JUMP JUMPDEST DUP1 DUP5 ADD SWAP2 POP POP SWAP3 SWAP2 POP POP JUMP JUMPDEST PUSH1 0x0 PUSH2 0x411B DUP3 DUP6 PUSH2 0x40DE JUMP JUMPDEST SWAP2 POP PUSH2 0x4127 DUP3 DUP5 PUSH2 0x40DE JUMP JUMPDEST SWAP2 POP DUP2 SWAP1 POP SWAP4 SWAP3 POP POP POP JUMP JUMPDEST PUSH32 0x4F776E61626C653A206E6577206F776E657220697320746865207A65726F2061 PUSH1 0x0 DUP3 ADD MSTORE PUSH32 0x6464726573730000000000000000000000000000000000000000000000000000 PUSH1 0x20 DUP3 ADD MSTORE POP JUMP JUMPDEST PUSH1 0x0 PUSH2 0x418F PUSH1 0x26 DUP4 PUSH2 0x2E3B JUMP JUMPDEST SWAP2 POP PUSH2 0x419A DUP3 PUSH2 0x4133 JUMP JUMPDEST PUSH1 0x40 DUP3 ADD SWAP1 POP SWAP2 SWAP1 POP JUMP JUMPDEST PUSH1 0x0 PUSH1 0x20 DUP3 ADD SWAP1 POP DUP2 DUP2 SUB PUSH1 0x0 DUP4 ADD MSTORE PUSH2 0x41BE DUP2 PUSH2 0x4182 JUMP JUMPDEST SWAP1 POP SWAP2 SWAP1 POP JUMP JUMPDEST PUSH32 0x4F776E61626C653A2063616C6C6572206973206E6F7420746865206F776E6572 PUSH1 0x0 DUP3 ADD MSTORE POP JUMP JUMPDEST PUSH1 0x0 PUSH2 0x41FB PUSH1 0x20 DUP4 PUSH2 0x2E3B JUMP JUMPDEST SWAP2 POP PUSH2 0x4206 DUP3 PUSH2 0x41C5 JUMP JUMPDEST PUSH1 0x20 DUP3 ADD SWAP1 POP SWAP2 SWAP1 POP JUMP JUMPDEST PUSH1 0x0 PUSH1 0x20 DUP3 ADD SWAP1 POP DUP2 DUP2 SUB PUSH1 0x0 DUP4 ADD MSTORE PUSH2 0x422A DUP2 PUSH2 0x41EE JUMP JUMPDEST SWAP1 POP SWAP2 SWAP1 POP JUMP JUMPDEST PUSH32 0x4552433732313A207472616E736665722066726F6D20696E636F727265637420 PUSH1 0x0 DUP3 ADD MSTORE PUSH32 0x6F776E6572000000000000000000000000000000000000000000000000000000 PUSH1 0x20 DUP3 ADD MSTORE POP JUMP JUMPDEST PUSH1 0x0 PUSH2 0x428D PUSH1 0x25 DUP4 PUSH2 0x2E3B JUMP JUMPDEST SWAP2 POP PUSH2 0x4298 DUP3 PUSH2 0x4231 JUMP JUMPDEST PUSH1 0x40 DUP3 ADD SWAP1 POP SWAP2 SWAP1 POP JUMP JUMPDEST PUSH1 0x0 PUSH1 0x20 DUP3 ADD SWAP1 POP DUP2 DUP2 SUB PUSH1 0x0 DUP4 ADD MSTORE PUSH2 0x42BC DUP2 PUSH2 0x4280 JUMP JUMPDEST SWAP1 POP SWAP2 SWAP1 POP JUMP JUMPDEST PUSH32 0x4552433732313A207472616E7366657220746F20746865207A65726F20616464 PUSH1 0x0 DUP3 ADD MSTORE PUSH32 0x7265737300000000000000000000000000000000000000000000000000000000 PUSH1 0x20 DUP3 ADD MSTORE POP JUMP JUMPDEST PUSH1 0x0 PUSH2 0x431F PUSH1 0x24 DUP4 PUSH2 0x2E3B JUMP JUMPDEST SWAP2 POP PUSH2 0x432A DUP3 PUSH2 0x42C3 JUMP JUMPDEST PUSH1 0x40 DUP3 ADD SWAP1 POP SWAP2 SWAP1 POP JUMP JUMPDEST PUSH1 0x0 PUSH1 0x20 DUP3 ADD SWAP1 POP DUP2 DUP2 SUB PUSH1 0x0 DUP4 ADD MSTORE PUSH2 0x434E DUP2 PUSH2 0x4312 JUMP JUMPDEST SWAP1 POP SWAP2 SWAP1 POP JUMP JUMPDEST PUSH32 0x4552433732313A206D696E7420746F20746865207A65726F2061646472657373 PUSH1 0x0 DUP3 ADD MSTORE POP JUMP JUMPDEST PUSH1 0x0 PUSH2 0x438B PUSH1 0x20 DUP4 PUSH2 0x2E3B JUMP JUMPDEST SWAP2 POP PUSH2 0x4396 DUP3 PUSH2 0x4355 JUMP JUMPDEST PUSH1 0x20 DUP3 ADD SWAP1 POP SWAP2 SWAP1 POP JUMP JUMPDEST PUSH1 0x0 PUSH1 0x20 DUP3 ADD SWAP1 POP DUP2 DUP2 SUB PUSH1 0x0 DUP4 ADD MSTORE PUSH2 0x43BA DUP2 PUSH2 0x437E JUMP JUMPDEST SWAP1 POP SWAP2 SWAP1 POP JUMP JUMPDEST PUSH32 0x4552433732313A20746F6B656E20616C7265616479206D696E74656400000000 PUSH1 0x0 DUP3 ADD MSTORE POP JUMP JUMPDEST PUSH1 0x0 PUSH2 0x43F7 PUSH1 0x1C DUP4 PUSH2 0x2E3B JUMP JUMPDEST SWAP2 POP PUSH2 0x4402 DUP3 PUSH2 0x43C1 JUMP JUMPDEST PUSH1 0x20 DUP3 ADD SWAP1 POP SWAP2 SWAP1 POP JUMP JUMPDEST PUSH1 0x0 PUSH1 0x20 DUP3 ADD SWAP1 POP DUP2 DUP2 SUB PUSH1 0x0 DUP4 ADD MSTORE PUSH2 0x4426 DUP2 PUSH2 0x43EA JUMP JUMPDEST SWAP1 POP SWAP2 SWAP1 POP JUMP JUMPDEST PUSH1 0x0 PUSH1 0x60 DUP3 ADD SWAP1 POP PUSH2 0x4442 PUSH1 0x0 DUP4 ADD DUP7 PUSH2 0x3135 JUMP JUMPDEST PUSH2 0x444F PUSH1 0x20 DUP4 ADD DUP6 PUSH2 0x309F JUMP JUMPDEST PUSH2 0x445C PUSH1 0x40 DUP4 ADD DUP5 PUSH2 0x3135 JUMP JUMPDEST SWAP5 SWAP4 POP POP POP POP JUMP JUMPDEST PUSH32 0x4552433732313A20617070726F766520746F2063616C6C657200000000000000 PUSH1 0x0 DUP3 ADD MSTORE POP JUMP JUMPDEST PUSH1 0x0 PUSH2 0x449A PUSH1 0x19 DUP4 PUSH2 0x2E3B JUMP JUMPDEST SWAP2 POP PUSH2 0x44A5 DUP3 PUSH2 0x4464 JUMP JUMPDEST PUSH1 0x20 DUP3 ADD SWAP1 POP SWAP2 SWAP1 POP JUMP JUMPDEST PUSH1 0x0 PUSH1 0x20 DUP3 ADD SWAP1 POP DUP2 DUP2 SUB PUSH1 0x0 DUP4 ADD MSTORE PUSH2 0x44C9 DUP2 PUSH2 0x448D JUMP JUMPDEST SWAP1 POP SWAP2 SWAP1 POP JUMP JUMPDEST PUSH32 0x4552433732313A207472616E7366657220746F206E6F6E204552433732315265 PUSH1 0x0 DUP3 ADD MSTORE PUSH32 0x63656976657220696D706C656D656E7465720000000000000000000000000000 PUSH1 0x20 DUP3 ADD MSTORE POP JUMP JUMPDEST PUSH1 0x0 PUSH2 0x452C PUSH1 0x32 DUP4 PUSH2 0x2E3B JUMP JUMPDEST SWAP2 POP PUSH2 0x4537 DUP3 PUSH2 0x44D0 JUMP JUMPDEST PUSH1 0x40 DUP3 ADD SWAP1 POP SWAP2 SWAP1 POP JUMP JUMPDEST PUSH1 0x0 PUSH1 0x20 DUP3 ADD SWAP1 POP DUP2 DUP2 SUB PUSH1 0x0 DUP4 ADD MSTORE PUSH2 0x455B DUP2 PUSH2 0x451F JUMP JUMPDEST SWAP1 POP SWAP2 SWAP1 POP JUMP JUMPDEST PUSH1 0x0 DUP2 MLOAD SWAP1 POP SWAP2 SWAP1 POP JUMP JUMPDEST PUSH1 0x0 DUP3 DUP3 MSTORE PUSH1 0x20 DUP3 ADD SWAP1 POP SWAP3 SWAP2 POP POP JUMP JUMPDEST PUSH1 0x0 PUSH2 0x4589 DUP3 PUSH2 0x4562 JUMP JUMPDEST PUSH2 0x4593 DUP2 DUP6 PUSH2 0x456D JUMP JUMPDEST SWAP4 POP PUSH2 0x45A3 DUP2 DUP6 PUSH1 0x20 DUP7 ADD PUSH2 0x2E4C JUMP JUMPDEST PUSH2 0x45AC DUP2 PUSH2 0x2E76 JUMP JUMPDEST DUP5 ADD SWAP2 POP POP SWAP3 SWAP2 POP POP JUMP JUMPDEST PUSH1 0x0 PUSH1 0x80 DUP3 ADD SWAP1 POP PUSH2 0x45CC PUSH1 0x0 DUP4 ADD DUP8 PUSH2 0x309F JUMP JUMPDEST PUSH2 0x45D9 PUSH1 0x20 DUP4 ADD DUP7 PUSH2 0x309F JUMP JUMPDEST PUSH2 0x45E6 PUSH1 0x40 DUP4 ADD DUP6 PUSH2 0x3135 JUMP JUMPDEST DUP2 DUP2 SUB PUSH1 0x60 DUP4 ADD MSTORE PUSH2 0x45F8 DUP2 DUP5 PUSH2 0x457E JUMP JUMPDEST SWAP1 POP SWAP6 SWAP5 POP POP POP POP POP JUMP JUMPDEST PUSH1 0x0 DUP2 MLOAD SWAP1 POP PUSH2 0x4612 DUP2 PUSH2 0x2CA6 JUMP JUMPDEST SWAP3 SWAP2 POP POP JUMP JUMPDEST PUSH1 0x0 PUSH1 0x20 DUP3 DUP5 SUB SLT ISZERO PUSH2 0x462E JUMPI PUSH2 0x462D PUSH2 0x2C70 JUMP JUMPDEST JUMPDEST PUSH1 0x0 PUSH2 0x463C DUP5 DUP3 DUP6 ADD PUSH2 0x4603 JUMP JUMPDEST SWAP2 POP POP SWAP3 SWAP2 POP POP JUMP INVALID LOG2 PUSH5 0x6970667358 0x22 SLT KECCAK256 0xF9 0xC3 0x2F SELFDESTRUCT PUSH29 0xD8418B4A54083D0ECBB37BD44C0394506C98DF9671664813063D146473 PUSH16 0x6C63430008120033516D546B3473506F MSIZE PUSH26 0x6D70746B4B4E5870765341574B54373937473676594A65633257 GASLIMIT NUMBER CHAINID PC 0x4D PUSH14 0x54454552516D5666576B79684669 0x4D PUSH9 0x613744354164645250 CODESIZE CHAINID 0x4D SLOAD BALANCE PUSH26 0x765A7947435A7352397057317438314158676D00000000000000 "},"methodIdentifiers":{"approve(address,uint256)":"095ea7b3","availableNFTs()":"ea317fff","balanceOf(address)":"70a08231","bondMatureAmount()":"729a1a87","buyNFT(address,address,uint256,uint256)":"03c13380","calculateAccruedInterest()":"3fb3ff11","changeCharacterName(uint256,address,string)":"f1645238","getApproved(uint256)":"081812fc","getBaseURI()":"714c5398","getBondInfo()":"d5070b3e","getCharURI()":"a35e1370","getIssuer()":"52556421","getMetadata(uint256)":"a574cea4","interestPaymentAmount()":"1ed54e78","isApprovedForAll(address,address)":"e985e9c5","isBondMatured()":"05f31572","isInterestTime()":"37e08699","matureCharacters()":"88456b7b","mintNFT(address,uint256)":"3c168eab","name()":"06fdde03","owner()":"8da5cb5b","ownerCollection(address)":"9c50da75","ownerOf(uint256)":"6352211e","renounceOwnership()":"715018a6","safeTransferFrom(address,address,uint256)":"42842e0e","safeTransferFrom(address,address,uint256,bytes)":"b88d4fde","setApprovalForAll(address,bool)":"a22cb465","setBaseURI(string)":"55f804b3","setCharURI(string)":"2b8c41f4","setInactiveBaseURI(string)":"a31b115f","setInactiveCharURI(string)":"0816a3e2","supportsInterface(bytes4)":"01ffc9a7","symbol()":"95d89b41","tokenURI(uint256)":"c87b56dd","transferFrom(address,address,uint256)":"23b872dd","transferOwnership(address)":"f2fde38b"}}}}}