{"contracts/EAvatar.sol":{"EAvatar":{"abi":[{"inputs":[{"internalType":"address","name":"bond_issuer","type":"address"}],"stateMutability":"nonpayable","type":"constructor"},{"anonymous":false,"inputs":[{"indexed":true,"internalType":"address","name":"owner","type":"address"},{"indexed":true,"internalType":"address","name":"approved","type":"address"},{"indexed":true,"internalType":"uint256","name":"tokenId","type":"uint256"}],"name":"Approval","type":"event"},{"anonymous":false,"inputs":[{"indexed":true,"internalType":"address","name":"owner","type":"address"},{"indexed":true,"internalType":"address","name":"operator","type":"address"},{"indexed":false,"internalType":"bool","name":"approved","type":"bool"}],"name":"ApprovalForAll","type":"event"},{"anonymous":false,"inputs":[{"indexed":false,"internalType":"uint256","name":"_fromTokenId","type":"uint256"},{"indexed":false,"internalType":"uint256","name":"_toTokenId","type":"uint256"}],"name":"BatchMetadataUpdate","type":"event"},{"anonymous":false,"inputs":[{"indexed":false,"internalType":"uint256","name":"_tokenId","type":"uint256"}],"name":"MetadataUpdate","type":"event"},{"anonymous":false,"inputs":[{"indexed":false,"internalType":"address","name":"from","type":"address"},{"indexed":false,"internalType":"address","name":"to","type":"address"},{"indexed":false,"internalType":"uint256","name":"_amount","type":"uint256"}],"name":"NftBought","type":"event"},{"anonymous":false,"inputs":[{"indexed":true,"internalType":"address","name":"previousOwner","type":"address"},{"indexed":true,"internalType":"address","name":"newOwner","type":"address"}],"name":"OwnershipTransferred","type":"event"},{"anonymous":false,"inputs":[{"indexed":true,"internalType":"address","name":"from","type":"address"},{"indexed":true,"internalType":"address","name":"to","type":"address"},{"indexed":true,"internalType":"uint256","name":"tokenId","type":"uint256"}],"name":"Transfer","type":"event"},{"anonymous":false,"inputs":[{"indexed":false,"internalType":"uint256","name":"tokenId","type":"uint256"},{"indexed":false,"internalType":"address","name":"owner","type":"address"},{"indexed":false,"internalType":"uint256","name":"price","type":"uint256"}],"name":"nftItemCreated","type":"event"},{"inputs":[{"internalType":"address","name":"to","type":"address"},{"internalType":"uint256","name":"tokenId","type":"uint256"}],"name":"approve","outputs":[],"stateMutability":"nonpayable","type":"function"},{"inputs":[],"name":"availableNFTs","outputs":[{"internalType":"bool","name":"ans","type":"bool"}],"stateMutability":"view","type":"function"},{"inputs":[{"internalType":"address","name":"owner","type":"address"}],"name":"balanceOf","outputs":[{"internalType":"uint256","name":"","type":"uint256"}],"stateMutability":"view","type":"function"},{"inputs":[],"name":"bondMatureAmount","outputs":[{"internalType":"uint256","name":"amount","type":"uint256"}],"stateMutability":"view","type":"function"},{"inputs":[{"internalType":"address payable","name":"from","type":"address"},{"internalType":"address payable","name":"to","type":"address"},{"internalType":"uint256","name":"_amount","type":"uint256"},{"internalType":"uint256","name":"tokenId","type":"uint256"}],"name":"buyNFT","outputs":[],"stateMutability":"payable","type":"function"},{"inputs":[],"name":"calculateAccruedInterest","outputs":[{"internalType":"uint256","name":"","type":"uint256"}],"stateMutability":"view","type":"function"},{"inputs":[{"internalType":"uint256","name":"tokenId","type":"uint256"},{"internalType":"address","name":"owner","type":"address"},{"internalType":"string","name":"name","type":"string"}],"name":"changeCharacterName","outputs":[],"stateMutability":"view","type":"function"},{"inputs":[{"internalType":"uint256","name":"tokenId","type":"uint256"}],"name":"getApproved","outputs":[{"internalType":"address","name":"","type":"address"}],"stateMutability":"view","type":"function"},{"inputs":[],"name":"getBaseURI","outputs":[{"internalType":"string","name":"","type":"string"}],"stateMutability":"view","type":"function"},{"inputs":[],"name":"getBondInfo","outputs":[{"components":[{"internalType":"address","name":"bondIssuer","type":"address"},{"internalType":"string","name":"bondName","type":"string"},{"internalType":"uint256","name":"issueDate","type":"uint256"},{"internalType":"uint256","name":"maturityDate","type":"uint256"},{"internalType":"uint256","name":"interestPaymentPercent","type":"uint256"},{"internalType":"uint256","name":"periodOfPayment","type":"uint256"},{"internalType":"uint256","name":"faceValue","type":"uint256"},{"internalType":"uint256","name":"shift","type":"uint256"},{"internalType":"uint256","name":"supply","type":"uint256"}],"internalType":"struct EAvatar.EBond","name":"bond","type":"tuple"}],"stateMutability":"view","type":"function"},{"inputs":[],"name":"getCharURI","outputs":[{"internalType":"string","name":"","type":"string"}],"stateMutability":"view","type":"function"},{"inputs":[],"name":"getIssuer","outputs":[{"internalType":"address","name":"issuer","type":"address"}],"stateMutability":"view","type":"function"},{"inputs":[],"name":"getLatestId","outputs":[{"internalType":"uint256","name":"","type":"uint256"}],"stateMutability":"view","type":"function"},{"inputs":[{"internalType":"uint256","name":"tokenId","type":"uint256"}],"name":"getMetadata","outputs":[{"components":[{"internalType":"uint256","name":"tokenId","type":"uint256"},{"internalType":"uint256","name":"mintedAt","type":"uint256"},{"internalType":"uint256","name":"listing_price","type":"uint256"},{"components":[{"internalType":"string","name":"name","type":"string"},{"internalType":"string","name":"characterURI","type":"string"},{"internalType":"uint8","name":"hp","type":"uint8"},{"internalType":"uint8","name":"ap","type":"uint8"},{"internalType":"uint8","name":"level","type":"uint8"}],"internalType":"struct EAvatar.AvatarChar","name":"character","type":"tuple"},{"internalType":"address","name":"ownerId","type":"address"}],"internalType":"struct EAvatar.EMetadata","name":"item","type":"tuple"}],"stateMutability":"view","type":"function"},{"inputs":[],"name":"interestPaymentAmount","outputs":[{"internalType":"uint256","name":"amount","type":"uint256"}],"stateMutability":"view","type":"function"},{"inputs":[{"internalType":"address","name":"owner","type":"address"},{"internalType":"address","name":"operator","type":"address"}],"name":"isApprovedForAll","outputs":[{"internalType":"bool","name":"","type":"bool"}],"stateMutability":"view","type":"function"},{"inputs":[],"name":"isBondMatured","outputs":[{"internalType":"bool","name":"","type":"bool"}],"stateMutability":"view","type":"function"},{"inputs":[],"name":"isInterestTime","outputs":[{"internalType":"bool","name":"","type":"bool"}],"stateMutability":"view","type":"function"},{"inputs":[],"name":"matureCharacters","outputs":[],"stateMutability":"nonpayable","type":"function"},{"inputs":[{"internalType":"address","name":"recipient","type":"address"},{"internalType":"uint256","name":"price","type":"uint256"},{"internalType":"uint256","name":"tokenId","type":"uint256"}],"name":"mintNFT","outputs":[{"internalType":"uint256","name":"","type":"uint256"}],"stateMutability":"nonpayable","type":"function"},{"inputs":[],"name":"name","outputs":[{"internalType":"string","name":"","type":"string"}],"stateMutability":"view","type":"function"},{"inputs":[],"name":"owner","outputs":[{"internalType":"address","name":"","type":"address"}],"stateMutability":"view","type":"function"},{"inputs":[{"internalType":"address","name":"owner","type":"address"}],"name":"ownerCollection","outputs":[{"internalType":"uint256[]","name":"ids","type":"uint256[]"}],"stateMutability":"view","type":"function"},{"inputs":[{"internalType":"uint256","name":"tokenId","type":"uint256"}],"name":"ownerOf","outputs":[{"internalType":"address","name":"","type":"address"}],"stateMutability":"view","type":"function"},{"inputs":[],"name":"renounceOwnership","outputs":[],"stateMutability":"nonpayable","type":"function"},{"inputs":[{"internalType":"address","name":"from","type":"address"},{"internalType":"address","name":"to","type":"address"},{"internalType":"uint256","name":"tokenId","type":"uint256"}],"name":"safeTransferFrom","outputs":[],"stateMutability":"nonpayable","type":"function"},{"inputs":[{"internalType":"address","name":"from","type":"address"},{"internalType":"address","name":"to","type":"address"},{"internalType":"uint256","name":"tokenId","type":"uint256"},{"internalType":"bytes","name":"data","type":"bytes"}],"name":"safeTransferFrom","outputs":[],"stateMutability":"nonpayable","type":"function"},{"inputs":[{"internalType":"address","name":"operator","type":"address"},{"internalType":"bool","name":"approved","type":"bool"}],"name":"setApprovalForAll","outputs":[],"stateMutability":"nonpayable","type":"function"},{"inputs":[{"internalType":"string","name":"newURI","type":"string"}],"name":"setBaseURI","outputs":[],"stateMutability":"nonpayable","type":"function"},{"inputs":[{"internalType":"string","name":"newURI","type":"string"}],"name":"setCharURI","outputs":[],"stateMutability":"nonpayable","type":"function"},{"inputs":[{"internalType":"string","name":"newURI","type":"string"}],"name":"setInactiveBaseURI","outputs":[],"stateMutability":"nonpayable","type":"function"},{"inputs":[{"internalType":"string","name":"newURI","type":"string"}],"name":"setInactiveCharURI","outputs":[],"stateMutability":"nonpayable","type":"function"},{"inputs":[{"internalType":"bytes4","name":"interfaceId","type":"bytes4"}],"name":"supportsInterface","outputs":[{"internalType":"bool","name":"","type":"bool"}],"stateMutability":"view","type":"function"},{"inputs":[],"name":"symbol","outputs":[{"internalType":"string","name":"","type":"string"}],"stateMutability":"view","type":"function"},{"inputs":[{"internalType":"uint256","name":"tokenId","type":"uint256"}],"name":"tokenURI","outputs":[{"internalType":"string","name":"","type":"string"}],"stateMutability":"view","type":"function"},{"inputs":[{"internalType":"address","name":"from","type":"address"},{"internalType":"address","name":"to","type":"address"},{"internalType":"uint256","name":"tokenId","type":"uint256"}],"name":"transferFrom","outputs":[],"stateMutability":"nonpayable","type":"function"},{"inputs":[{"internalType":"address","name":"newOwner","type":"address"}],"name":"transferOwnership","outputs":[],"stateMutability":"nonpayable","type":"function"}],"evm":{"bytecode":{"linkReferences":{},"object":"60806040526040518060600160405280602e815260200162004f6a602e9139601390816200002e919062000619565b5060405180602001604052806000815250601490816200004f919062000619565b506040518060600160405280602e815260200162004f3c602e9139601590816200007a919062000619565b5060405180602001604052806000815250601690816200009b919062000619565b506000601755348015620000ae57600080fd5b5060405162004f9838038062004f988339818101604052810190620000d491906200076a565b6040518060400160405280600781526020017f45417661746172000000000000000000000000000000000000000000000000008152506040518060400160405280600281526020017f4541000000000000000000000000000000000000000000000000000000000000815250816000908162000151919062000619565b50806001908162000163919062000619565b505050620001866200017a620002d160201b60201c565b620002d960201b60201c565b6040518061012001604052808273ffffffffffffffffffffffffffffffffffffffff1681526020016040518060400160405280600a81526020017f452d426f6e64204f6e65000000000000000000000000000000000000000000008152508152602001428152602001636e71188081526020016005815260200162f0c29f8152602001620186a08152602001600281526020016103e8815250600860008201518160000160006101000a81548173ffffffffffffffffffffffffffffffffffffffff021916908373ffffffffffffffffffffffffffffffffffffffff16021790555060208201518160010190816200027f919062000619565b5060408201518160020155606082015181600301556080820151816004015560a0820151816005015560c0820151816006015560e082015181600701556101008201518160080155905050506200079c565b600033905090565b6000600760009054906101000a900473ffffffffffffffffffffffffffffffffffffffff16905081600760006101000a81548173ffffffffffffffffffffffffffffffffffffffff021916908373ffffffffffffffffffffffffffffffffffffffff1602179055508173ffffffffffffffffffffffffffffffffffffffff168173ffffffffffffffffffffffffffffffffffffffff167f8be0079c531659141344cd1fd0a4f28419497f9722a3daafe3b4186f6b6457e060405160405180910390a35050565b600081519050919050565b7f4e487b7100000000000000000000000000000000000000000000000000000000600052604160045260246000fd5b7f4e487b7100000000000000000000000000000000000000000000000000000000600052602260045260246000fd5b600060028204905060018216806200042157607f821691505b602082108103620004375762000436620003d9565b5b50919050565b60008190508160005260206000209050919050565b60006020601f8301049050919050565b600082821b905092915050565b600060088302620004a17fffffffffffffffffffffffffffffffffffffffffffffffffffffffffffffffff8262000462565b620004ad868362000462565b95508019841693508086168417925050509392505050565b6000819050919050565b6000819050919050565b6000620004fa620004f4620004ee84620004c5565b620004cf565b620004c5565b9050919050565b6000819050919050565b6200051683620004d9565b6200052e620005258262000501565b8484546200046f565b825550505050565b600090565b6200054562000536565b620005528184846200050b565b505050565b5b818110156200057a576200056e6000826200053b565b60018101905062000558565b5050565b601f821115620005c95762000593816200043d565b6200059e8462000452565b81016020851015620005ae578190505b620005c6620005bd8562000452565b83018262000557565b50505b505050565b600082821c905092915050565b6000620005ee60001984600802620005ce565b1980831691505092915050565b6000620006098383620005db565b9150826002028217905092915050565b62000624826200039f565b67ffffffffffffffff81111562000640576200063f620003aa565b5b6200064c825462000408565b620006598282856200057e565b600060209050601f8311600181146200069157600084156200067c578287015190505b620006888582620005fb565b865550620006f8565b601f198416620006a1866200043d565b60005b82811015620006cb57848901518255600182019150602085019450602081019050620006a4565b86831015620006eb5784890151620006e7601f891682620005db565b8355505b6001600288020188555050505b505050505050565b600080fd5b600073ffffffffffffffffffffffffffffffffffffffff82169050919050565b6000620007328262000705565b9050919050565b620007448162000725565b81146200075057600080fd5b50565b600081519050620007648162000739565b92915050565b60006020828403121562000783576200078262000700565b5b6000620007938482850162000753565b91505092915050565b61479080620007ac6000396000f3fe60806040526004361061021a5760003560e01c8063714c539811610123578063a35e1370116100ab578063e985e9c51161006f578063e985e9c5146107c6578063ea317fff14610803578063eff91c7e1461082e578063f164523814610859578063f2fde38b146108825761021a565b8063a35e1370146106cd578063a574cea4146106f8578063b88d4fde14610735578063c87b56dd1461075e578063d5070b3e1461079b5761021a565b80638da5cb5b116100f25780638da5cb5b146105e857806395d89b41146106135780639c50da751461063e578063a22cb4651461067b578063a31b115f146106a45761021a565b8063714c539814610564578063715018a61461058f578063729a1a87146105a657806388456b7b146105d15761021a565b80632b8c41f4116101a65780635255642111610175578063525564211461045957806355f804b3146104845780635a9d10a2146104ad5780636352211e146104ea57806370a08231146105275761021a565b80632b8c41f4146103b157806337e08699146103da5780633fb3ff111461040557806342842e0e146104305761021a565b80630816a3e2116101ed5780630816a3e2146102ce578063081812fc146102f7578063095ea7b3146103345780631ed54e781461035d57806323b872dd146103885761021a565b806301ffc9a71461021f57806303c133801461025c57806305f315721461027857806306fdde03146102a3575b600080fd5b34801561022b57600080fd5b5061024660048036038101906102419190612d60565b6108ab565b6040516102539190612da8565b60405180910390f35b61027660048036038101906102719190612e57565b61090c565b005b34801561028457600080fd5b5061028d61099f565b60405161029a9190612da8565b60405180910390f35b3480156102af57600080fd5b506102b86109af565b6040516102c59190612f4e565b60405180910390f35b3480156102da57600080fd5b506102f560048036038101906102f091906130a5565b610a41565b005b34801561030357600080fd5b5061031e600480360381019061031991906130ee565b610a5c565b60405161032b919061313c565b60405180910390f35b34801561034057600080fd5b5061035b60048036038101906103569190613183565b610aa2565b005b34801561036957600080fd5b50610372610bb9565b60405161037f91906131d2565b60405180910390f35b34801561039457600080fd5b506103af60048036038101906103aa91906131ed565b610c08565b005b3480156103bd57600080fd5b506103d860048036038101906103d391906130a5565b610c68565b005b3480156103e657600080fd5b506103ef610c83565b6040516103fc9190612da8565b60405180910390f35b34801561041157600080fd5b5061041a610cad565b60405161042791906131d2565b60405180910390f35b34801561043c57600080fd5b50610457600480360381019061045291906131ed565b610d0f565b005b34801561046557600080fd5b5061046e610d2f565b60405161047b919061313c565b60405180910390f35b34801561049057600080fd5b506104ab60048036038101906104a691906130a5565b610d5c565b005b3480156104b957600080fd5b506104d460048036038101906104cf9190613240565b610d77565b6040516104e191906131d2565b60405180910390f35b3480156104f657600080fd5b50610511600480360381019061050c91906130ee565b610e02565b60405161051e919061313c565b60405180910390f35b34801561053357600080fd5b5061054e60048036038101906105499190613293565b610e88565b60405161055b91906131d2565b60405180910390f35b34801561057057600080fd5b50610579610f3f565b6040516105869190612f4e565b60405180910390f35b34801561059b57600080fd5b506105a4610fd1565b005b3480156105b257600080fd5b506105bb610fe5565b6040516105c891906131d2565b60405180910390f35b3480156105dd57600080fd5b506105e6610ff2565b005b3480156105f457600080fd5b506105fd6110a0565b60405161060a919061313c565b60405180910390f35b34801561061f57600080fd5b506106286110ca565b6040516106359190612f4e565b60405180910390f35b34801561064a57600080fd5b5061066560048036038101906106609190613293565b61115c565b604051610672919061337e565b60405180910390f35b34801561068757600080fd5b506106a2600480360381019061069d91906133cc565b6111f3565b005b3480156106b057600080fd5b506106cb60048036038101906106c691906130a5565b611209565b005b3480156106d957600080fd5b506106e2611224565b6040516106ef9190612f4e565b60405180910390f35b34801561070457600080fd5b5061071f600480360381019061071a91906130ee565b6112b6565b60405161072c9190613574565b60405180910390f35b34801561074157600080fd5b5061075c60048036038101906107579190613637565b6114e6565b005b34801561076a57600080fd5b50610785600480360381019061078091906130ee565b611548565b6040516107929190612f4e565b60405180910390f35b3480156107a757600080fd5b506107b061165a565b6040516107bd919061377f565b60405180910390f35b3480156107d257600080fd5b506107ed60048036038101906107e891906137a1565b6117a3565b6040516107fa9190612da8565b60405180910390f35b34801561080f57600080fd5b50610818611837565b6040516108259190612da8565b60405180910390f35b34801561083a57600080fd5b50610843611845565b60405161085091906131d2565b60405180910390f35b34801561086557600080fd5b50610880600480360381019061087b91906137e1565b61184f565b005b34801561088e57600080fd5b506108a960048036038101906108a49190613293565b6118af565b005b6000634906490660e01b7bffffffffffffffffffffffffffffffffffffffffffffffffffffffff1916827bffffffffffffffffffffffffffffffffffffffffffffffffffffffff19161480610905575061090482611932565b5b9050919050565b610917848483610d0f565b8273ffffffffffffffffffffffffffffffffffffffff166108fc839081150290604051600060405180830381858888f1935050505015801561095d573d6000803e3d6000fd5b507f608f6ac9327c2bf4d3c77adf447d2c448ba7b0971e0aaa9aa03f7ac29d874a44843334604051610991939291906138af565b60405180910390a150505050565b6000600860030154421015905090565b6060600080546109be90613915565b80601f01602080910402602001604051908101604052809291908181526020018280546109ea90613915565b8015610a375780601f10610a0c57610100808354040283529160200191610a37565b820191906000526020600020905b815481529060010190602001808311610a1a57829003601f168201915b5050505050905090565b610a49611a14565b8060169081610a589190613ae8565b5050565b6000610a6782611a92565b6004600083815260200190815260200160002060009054906101000a900473ffffffffffffffffffffffffffffffffffffffff169050919050565b6000610aad82610e02565b90508073ffffffffffffffffffffffffffffffffffffffff168373ffffffffffffffffffffffffffffffffffffffff1603610b1d576040517f08c379a0000000000000000000000000000000000000000000000000000000008152600401610b1490613c2c565b60405180910390fd5b8073ffffffffffffffffffffffffffffffffffffffff16610b3c611add565b73ffffffffffffffffffffffffffffffffffffffff161480610b6b5750610b6a81610b65611add565b6117a3565b5b610baa576040517f08c379a0000000000000000000000000000000000000000000000000000000008152600401610ba190613cbe565b60405180910390fd5b610bb48383611ae5565b505050565b6000610bc361099f565b610c0057600860070154600a610bd99190613e40565b600860040154600860060154610bef9190613e8b565b610bf99190613efc565b9050610c05565b600090505b90565b610c19610c13611add565b82611b9e565b610c58576040517f08c379a0000000000000000000000000000000000000000000000000000000008152600401610c4f90613f9f565b60405180910390fd5b610c63838383611c33565b505050565b610c70611a14565b8060159081610c7f9190613ae8565b5050565b60008060086005015460086002015442610c9d9190613fbf565b610ca79190613ff3565b14905090565b6000610cb761099f565b610d07576000610cc5610bb9565b9050600060086005015460086003015442610ce09190613fbf565b610cea9190613efc565b905060008183610cfa9190613e8b565b9050809350505050610d0c565b600090505b90565b610d2a838383604051806020016040528060008152506114e6565b505050565b6000600860000160009054906101000a900473ffffffffffffffffffffffffffffffffffffffff16905090565b610d64611a14565b8060139081610d739190613ae8565b5050565b6000610d81611a14565b600880015460175410610dc9576040517f08c379a0000000000000000000000000000000000000000000000000000000008152600401610dc090614096565b60405180910390fd5b600160176000828254610ddc91906140b6565b92505081905550610ded8483611f2c565b610df8828486611f4a565b8190509392505050565b600080610e0e8361214a565b9050600073ffffffffffffffffffffffffffffffffffffffff168173ffffffffffffffffffffffffffffffffffffffff1603610e7f576040517f08c379a0000000000000000000000000000000000000000000000000000000008152600401610e7690614136565b60405180910390fd5b80915050919050565b60008073ffffffffffffffffffffffffffffffffffffffff168273ffffffffffffffffffffffffffffffffffffffff1603610ef8576040517f08c379a0000000000000000000000000000000000000000000000000000000008152600401610eef906141c8565b60405180910390fd5b600360008373ffffffffffffffffffffffffffffffffffffffff1673ffffffffffffffffffffffffffffffffffffffff168152602001908152602001600020549050919050565b606060138054610f4e90613915565b80601f0160208091040260200160405190810160405280929190818152602001828054610f7a90613915565b8015610fc75780601f10610f9c57610100808354040283529160200191610fc7565b820191906000526020600020905b815481529060010190602001808311610faa57829003601f168201915b5050505050905090565b610fd9611a14565b610fe36000612187565b565b6000600860060154905090565b610ffa611a14565b61100261099f565b61100b57600080fd5b61109e6014805461101b90613915565b80601f016020809104026020016040519081016040528092919081815260200182805461104790613915565b80156110945780601f1061106957610100808354040283529160200191611094565b820191906000526020600020905b81548152906001019060200180831161107757829003601f168201915b5050505050610d5c565b565b6000600760009054906101000a900473ffffffffffffffffffffffffffffffffffffffff16905090565b6060600180546110d990613915565b80601f016020809104026020016040519081016040528092919081815260200182805461110590613915565b80156111525780601f1061112757610100808354040283529160200191611152565b820191906000526020600020905b81548152906001019060200180831161113557829003601f168201915b5050505050905090565b6060601260008373ffffffffffffffffffffffffffffffffffffffff1673ffffffffffffffffffffffffffffffffffffffff1681526020019081526020016000208054806020026020016040519081016040528092919081815260200182805480156111e757602002820191906000526020600020905b8154815260200190600101908083116111d3575b50505050509050919050565b6112056111fe611add565b838361224d565b5050565b611211611a14565b80601490816112209190613ae8565b5050565b60606015805461123390613915565b80601f016020809104026020016040519081016040528092919081815260200182805461125f90613915565b80156112ac5780601f10611281576101008083540402835291602001916112ac565b820191906000526020600020905b81548152906001019060200180831161128f57829003601f168201915b5050505050905090565b6112be612c0f565b601160008381526020019081526020016000206040518060a0016040529081600082015481526020016001820154815260200160028201548152602001600382016040518060a001604052908160008201805461131a90613915565b80601f016020809104026020016040519081016040528092919081815260200182805461134690613915565b80156113935780601f1061136857610100808354040283529160200191611393565b820191906000526020600020905b81548152906001019060200180831161137657829003601f168201915b505050505081526020016001820180546113ac90613915565b80601f01602080910402602001604051908101604052809291908181526020018280546113d890613915565b80156114255780601f106113fa57610100808354040283529160200191611425565b820191906000526020600020905b81548152906001019060200180831161140857829003601f168201915b505050505081526020016002820160009054906101000a900460ff1660ff1660ff1681526020016002820160019054906101000a900460ff1660ff1660ff1681526020016002820160029054906101000a900460ff1660ff1660ff168152505081526020016006820160009054906101000a900473ffffffffffffffffffffffffffffffffffffffff1673ffffffffffffffffffffffffffffffffffffffff1673ffffffffffffffffffffffffffffffffffffffff16815250509050919050565b6114f76114f1611add565b83611b9e565b611536576040517f08c379a000000000000000000000000000000000000000000000000000000000815260040161152d90613f9f565b60405180910390fd5b611542848484846123b9565b50505050565b606061155382611a92565b600060066000848152602001908152602001600020805461157390613915565b80601f016020809104026020016040519081016040528092919081815260200182805461159f90613915565b80156115ec5780601f106115c1576101008083540402835291602001916115ec565b820191906000526020600020905b8154815290600101906020018083116115cf57829003601f168201915b5050505050905060006115fd612415565b90506000815103611612578192505050611655565b60008251111561164757808260405160200161162f929190614224565b60405160208183030381529060405292505050611655565b6116508461242c565b925050505b919050565b611662612c5a565b6008604051806101200160405290816000820160009054906101000a900473ffffffffffffffffffffffffffffffffffffffff1673ffffffffffffffffffffffffffffffffffffffff1673ffffffffffffffffffffffffffffffffffffffff1681526020016001820180546116d690613915565b80601f016020809104026020016040519081016040528092919081815260200182805461170290613915565b801561174f5780601f106117245761010080835404028352916020019161174f565b820191906000526020600020905b81548152906001019060200180831161173257829003601f168201915b50505050508152602001600282015481526020016003820154815260200160048201548152602001600582015481526020016006820154815260200160078201548152602001600882015481525050905090565b6000600560008473ffffffffffffffffffffffffffffffffffffffff1673ffffffffffffffffffffffffffffffffffffffff16815260200190815260200160002060008373ffffffffffffffffffffffffffffffffffffffff1673ffffffffffffffffffffffffffffffffffffffff16815260200190815260200160002060009054906101000a900460ff16905092915050565b600080600880015411905090565b6000601754905090565b8173ffffffffffffffffffffffffffffffffffffffff1661186f84610e02565b73ffffffffffffffffffffffffffffffffffffffff161461188f57600080fd5b600061189a846112b6565b90508181606001516000018190525050505050565b6118b7611a14565b600073ffffffffffffffffffffffffffffffffffffffff168173ffffffffffffffffffffffffffffffffffffffff1603611926576040517f08c379a000000000000000000000000000000000000000000000000000000000815260040161191d906142ba565b60405180910390fd5b61192f81612187565b50565b60007f80ac58cd000000000000000000000000000000000000000000000000000000007bffffffffffffffffffffffffffffffffffffffffffffffffffffffff1916827bffffffffffffffffffffffffffffffffffffffffffffffffffffffff191614806119fd57507f5b5e139f000000000000000000000000000000000000000000000000000000007bffffffffffffffffffffffffffffffffffffffffffffffffffffffff1916827bffffffffffffffffffffffffffffffffffffffffffffffffffffffff1916145b80611a0d5750611a0c82612494565b5b9050919050565b611a1c611add565b73ffffffffffffffffffffffffffffffffffffffff16611a3a6110a0565b73ffffffffffffffffffffffffffffffffffffffff1614611a90576040517f08c379a0000000000000000000000000000000000000000000000000000000008152600401611a8790614326565b60405180910390fd5b565b611a9b816124fe565b611ada576040517f08c379a0000000000000000000000000000000000000000000000000000000008152600401611ad190614136565b60405180910390fd5b50565b600033905090565b816004600083815260200190815260200160002060006101000a81548173ffffffffffffffffffffffffffffffffffffffff021916908373ffffffffffffffffffffffffffffffffffffffff160217905550808273ffffffffffffffffffffffffffffffffffffffff16611b5883610e02565b73ffffffffffffffffffffffffffffffffffffffff167f8c5be1e5ebec7d5bd14f71427d1e84f3dd0314c0f7b2291e5b200ac8c7c3b92560405160405180910390a45050565b600080611baa83610e02565b90508073ffffffffffffffffffffffffffffffffffffffff168473ffffffffffffffffffffffffffffffffffffffff161480611bec5750611beb81856117a3565b5b80611c2a57508373ffffffffffffffffffffffffffffffffffffffff16611c1284610a5c565b73ffffffffffffffffffffffffffffffffffffffff16145b91505092915050565b8273ffffffffffffffffffffffffffffffffffffffff16611c5382610e02565b73ffffffffffffffffffffffffffffffffffffffff1614611ca9576040517f08c379a0000000000000000000000000000000000000000000000000000000008152600401611ca0906143b8565b60405180910390fd5b600073ffffffffffffffffffffffffffffffffffffffff168273ffffffffffffffffffffffffffffffffffffffff1603611d18576040517f08c379a0000000000000000000000000000000000000000000000000000000008152600401611d0f9061444a565b60405180910390fd5b611d25838383600161253f565b8273ffffffffffffffffffffffffffffffffffffffff16611d4582610e02565b73ffffffffffffffffffffffffffffffffffffffff1614611d9b576040517f08c379a0000000000000000000000000000000000000000000000000000000008152600401611d92906143b8565b60405180910390fd5b6004600082815260200190815260200160002060006101000a81549073ffffffffffffffffffffffffffffffffffffffff02191690556001600360008573ffffffffffffffffffffffffffffffffffffffff1673ffffffffffffffffffffffffffffffffffffffff168152602001908152602001600020600082825403925050819055506001600360008473ffffffffffffffffffffffffffffffffffffffff1673ffffffffffffffffffffffffffffffffffffffff16815260200190815260200160002060008282540192505081905550816002600083815260200190815260200160002060006101000a81548173ffffffffffffffffffffffffffffffffffffffff021916908373ffffffffffffffffffffffffffffffffffffffff160217905550808273ffffffffffffffffffffffffffffffffffffffff168473ffffffffffffffffffffffffffffffffffffffff167fddf252ad1be2c89b69c2b068fc378daa952ba7f163c4a11628f55a4df523b3ef60405160405180910390a4611f278383836001612545565b505050565b611f4682826040518060200160405280600081525061254b565b5050565b6040518060a00160405280848152602001428152602001838152602001611f70856125a6565b81526020018273ffffffffffffffffffffffffffffffffffffffff16815250601160008581526020019081526020016000206000820151816000015560208201518160010155604082015181600201556060820151816003016000820151816000019081611fde9190613ae8565b506020820151816001019081611ff49190613ae8565b5060408201518160020160006101000a81548160ff021916908360ff16021790555060608201518160020160016101000a81548160ff021916908360ff16021790555060808201518160020160026101000a81548160ff021916908360ff160217905550505060808201518160060160006101000a81548173ffffffffffffffffffffffffffffffffffffffff021916908373ffffffffffffffffffffffffffffffffffffffff160217905550905050601260008273ffffffffffffffffffffffffffffffffffffffff1673ffffffffffffffffffffffffffffffffffffffff1681526020019081526020016000208390806001815401808255809150506001900390600052602060002001600090919091909150557f42e22845cdfee2da8f8e56b8d8f9807a12fd6906d54b388fe7ec9d2329e70b3e83828460405161213d9392919061446a565b60405180910390a1505050565b60006002600083815260200190815260200160002060009054906101000a900473ffffffffffffffffffffffffffffffffffffffff169050919050565b6000600760009054906101000a900473ffffffffffffffffffffffffffffffffffffffff16905081600760006101000a81548173ffffffffffffffffffffffffffffffffffffffff021916908373ffffffffffffffffffffffffffffffffffffffff1602179055508173ffffffffffffffffffffffffffffffffffffffff168173ffffffffffffffffffffffffffffffffffffffff167f8be0079c531659141344cd1fd0a4f28419497f9722a3daafe3b4186f6b6457e060405160405180910390a35050565b8173ffffffffffffffffffffffffffffffffffffffff168373ffffffffffffffffffffffffffffffffffffffff16036122bb576040517f08c379a00000000000000000000000000000000000000000000000000000000081526004016122b2906144ed565b60405180910390fd5b80600560008573ffffffffffffffffffffffffffffffffffffffff1673ffffffffffffffffffffffffffffffffffffffff16815260200190815260200160002060008473ffffffffffffffffffffffffffffffffffffffff1673ffffffffffffffffffffffffffffffffffffffff16815260200190815260200160002060006101000a81548160ff0219169083151502179055508173ffffffffffffffffffffffffffffffffffffffff168373ffffffffffffffffffffffffffffffffffffffff167f17307eab39ab6107e8899845ad3d59bd9653f200f220920489ca2b5937696c31836040516123ac9190612da8565b60405180910390a3505050565b6123c4848484611c33565b6123d084848484612627565b61240f576040517f08c379a00000000000000000000000000000000000000000000000000000000081526004016124069061457f565b60405180910390fd5b50505050565b606060405180602001604052806000815250905090565b606061243782611a92565b6000612441612415565b90506000815111612461576040518060200160405280600081525061248c565b8061246b846127ae565b60405160200161247c929190614224565b6040516020818303038152906040525b915050919050565b60007f01ffc9a7000000000000000000000000000000000000000000000000000000007bffffffffffffffffffffffffffffffffffffffffffffffffffffffff1916827bffffffffffffffffffffffffffffffffffffffffffffffffffffffff1916149050919050565b60008073ffffffffffffffffffffffffffffffffffffffff166125208361214a565b73ffffffffffffffffffffffffffffffffffffffff1614159050919050565b50505050565b50505050565b612555838361287c565b6125626000848484612627565b6125a1576040517f08c379a00000000000000000000000000000000000000000000000000000000081526004016125989061457f565b60405180910390fd5b505050565b6125ae612cbc565b6040518060a001604052806040518060200160405280600081525081526020016125d6611224565b6125df856127ae565b6040516020016125f0929190614224565b6040516020818303038152906040528152602001600a60ff168152602001600a60ff168152602001600060ff168152509050919050565b60006126488473ffffffffffffffffffffffffffffffffffffffff16612a99565b156127a1578373ffffffffffffffffffffffffffffffffffffffff1663150b7a02612671611add565b8786866040518563ffffffff1660e01b815260040161269394939291906145f4565b6020604051808303816000875af19250505080156126cf57506040513d601f19601f820116820180604052508101906126cc9190614655565b60015b612751573d80600081146126ff576040519150601f19603f3d011682016040523d82523d6000602084013e612704565b606091505b506000815103612749576040517f08c379a00000000000000000000000000000000000000000000000000000000081526004016127409061457f565b60405180910390fd5b805181602001fd5b63150b7a0260e01b7bffffffffffffffffffffffffffffffffffffffffffffffffffffffff1916817bffffffffffffffffffffffffffffffffffffffffffffffffffffffff1916149150506127a6565b600190505b949350505050565b6060600060016127bd84612abc565b01905060008167ffffffffffffffff8111156127dc576127db612f7a565b5b6040519080825280601f01601f19166020018201604052801561280e5781602001600182028036833780820191505090505b509050600082602001820190505b600115612871578080600190039150507f3031323334353637383961626364656600000000000000000000000000000000600a86061a8153600a858161286557612864613ecd565b5b0494506000850361281c575b819350505050919050565b600073ffffffffffffffffffffffffffffffffffffffff168273ffffffffffffffffffffffffffffffffffffffff16036128eb576040517f08c379a00000000000000000000000000000000000000000000000000000000081526004016128e2906146ce565b60405180910390fd5b6128f4816124fe565b15612934576040517f08c379a000000000000000000000000000000000000000000000000000000000815260040161292b9061473a565b60405180910390fd5b61294260008383600161253f565b61294b816124fe565b1561298b576040517f08c379a00000000000000000000000000000000000000000000000000000000081526004016129829061473a565b60405180910390fd5b6001600360008473ffffffffffffffffffffffffffffffffffffffff1673ffffffffffffffffffffffffffffffffffffffff16815260200190815260200160002060008282540192505081905550816002600083815260200190815260200160002060006101000a81548173ffffffffffffffffffffffffffffffffffffffff021916908373ffffffffffffffffffffffffffffffffffffffff160217905550808273ffffffffffffffffffffffffffffffffffffffff16600073ffffffffffffffffffffffffffffffffffffffff167fddf252ad1be2c89b69c2b068fc378daa952ba7f163c4a11628f55a4df523b3ef60405160405180910390a4612a95600083836001612545565b5050565b6000808273ffffffffffffffffffffffffffffffffffffffff163b119050919050565b600080600090507a184f03e93ff9f4daa797ed6e38ed64bf6a1f0100000000000000008310612b1a577a184f03e93ff9f4daa797ed6e38ed64bf6a1f0100000000000000008381612b1057612b0f613ecd565b5b0492506040810190505b6d04ee2d6d415b85acef81000000008310612b57576d04ee2d6d415b85acef81000000008381612b4d57612b4c613ecd565b5b0492506020810190505b662386f26fc100008310612b8657662386f26fc100008381612b7c57612b7b613ecd565b5b0492506010810190505b6305f5e1008310612baf576305f5e1008381612ba557612ba4613ecd565b5b0492506008810190505b6127108310612bd4576127108381612bca57612bc9613ecd565b5b0492506004810190505b60648310612bf75760648381612bed57612bec613ecd565b5b0492506002810190505b600a8310612c06576001810190505b80915050919050565b6040518060a00160405280600081526020016000815260200160008152602001612c37612cbc565b8152602001600073ffffffffffffffffffffffffffffffffffffffff1681525090565b604051806101200160405280600073ffffffffffffffffffffffffffffffffffffffff16815260200160608152602001600081526020016000815260200160008152602001600081526020016000815260200160008152602001600081525090565b6040518060a001604052806060815260200160608152602001600060ff168152602001600060ff168152602001600060ff1681525090565b6000604051905090565b600080fd5b600080fd5b60007fffffffff0000000000000000000000000000000000000000000000000000000082169050919050565b612d3d81612d08565b8114612d4857600080fd5b50565b600081359050612d5a81612d34565b92915050565b600060208284031215612d7657612d75612cfe565b5b6000612d8484828501612d4b565b91505092915050565b60008115159050919050565b612da281612d8d565b82525050565b6000602082019050612dbd6000830184612d99565b92915050565b600073ffffffffffffffffffffffffffffffffffffffff82169050919050565b6000612dee82612dc3565b9050919050565b612dfe81612de3565b8114612e0957600080fd5b50565b600081359050612e1b81612df5565b92915050565b6000819050919050565b612e3481612e21565b8114612e3f57600080fd5b50565b600081359050612e5181612e2b565b92915050565b60008060008060808587031215612e7157612e70612cfe565b5b6000612e7f87828801612e0c565b9450506020612e9087828801612e0c565b9350506040612ea187828801612e42565b9250506060612eb287828801612e42565b91505092959194509250565b600081519050919050565b600082825260208201905092915050565b60005b83811015612ef8578082015181840152602081019050612edd565b60008484015250505050565b6000601f19601f8301169050919050565b6000612f2082612ebe565b612f2a8185612ec9565b9350612f3a818560208601612eda565b612f4381612f04565b840191505092915050565b60006020820190508181036000830152612f688184612f15565b905092915050565b600080fd5b600080fd5b7f4e487b7100000000000000000000000000000000000000000000000000000000600052604160045260246000fd5b612fb282612f04565b810181811067ffffffffffffffff82111715612fd157612fd0612f7a565b5b80604052505050565b6000612fe4612cf4565b9050612ff08282612fa9565b919050565b600067ffffffffffffffff8211156130105761300f612f7a565b5b61301982612f04565b9050602081019050919050565b82818337600083830152505050565b600061304861304384612ff5565b612fda565b90508281526020810184848401111561306457613063612f75565b5b61306f848285613026565b509392505050565b600082601f83011261308c5761308b612f70565b5b813561309c848260208601613035565b91505092915050565b6000602082840312156130bb576130ba612cfe565b5b600082013567ffffffffffffffff8111156130d9576130d8612d03565b5b6130e584828501613077565b91505092915050565b60006020828403121561310457613103612cfe565b5b600061311284828501612e42565b91505092915050565b600061312682612dc3565b9050919050565b6131368161311b565b82525050565b6000602082019050613151600083018461312d565b92915050565b6131608161311b565b811461316b57600080fd5b50565b60008135905061317d81613157565b92915050565b6000806040838503121561319a57613199612cfe565b5b60006131a88582860161316e565b92505060206131b985828601612e42565b9150509250929050565b6131cc81612e21565b82525050565b60006020820190506131e760008301846131c3565b92915050565b60008060006060848603121561320657613205612cfe565b5b60006132148682870161316e565b93505060206132258682870161316e565b925050604061323686828701612e42565b9150509250925092565b60008060006060848603121561325957613258612cfe565b5b60006132678682870161316e565b935050602061327886828701612e42565b925050604061328986828701612e42565b9150509250925092565b6000602082840312156132a9576132a8612cfe565b5b60006132b78482850161316e565b91505092915050565b600081519050919050565b600082825260208201905092915050565b6000819050602082019050919050565b6132f581612e21565b82525050565b600061330783836132ec565b60208301905092915050565b6000602082019050919050565b600061332b826132c0565b61333581856132cb565b9350613340836132dc565b8060005b8381101561337157815161335888826132fb565b975061336383613313565b925050600181019050613344565b5085935050505092915050565b600060208201905081810360008301526133988184613320565b905092915050565b6133a981612d8d565b81146133b457600080fd5b50565b6000813590506133c6816133a0565b92915050565b600080604083850312156133e3576133e2612cfe565b5b60006133f18582860161316e565b9250506020613402858286016133b7565b9150509250929050565b600082825260208201905092915050565b600061342882612ebe565b613432818561340c565b9350613442818560208601612eda565b61344b81612f04565b840191505092915050565b600060ff82169050919050565b61346c81613456565b82525050565b600060a083016000830151848203600086015261348f828261341d565b915050602083015184820360208601526134a9828261341d565b91505060408301516134be6040860182613463565b5060608301516134d16060860182613463565b5060808301516134e46080860182613463565b508091505092915050565b6134f88161311b565b82525050565b600060a08301600083015161351660008601826132ec565b50602083015161352960208601826132ec565b50604083015161353c60408601826132ec565b50606083015184820360608601526135548282613472565b915050608083015161356960808601826134ef565b508091505092915050565b6000602082019050818103600083015261358e81846134fe565b905092915050565b600067ffffffffffffffff8211156135b1576135b0612f7a565b5b6135ba82612f04565b9050602081019050919050565b60006135da6135d584613596565b612fda565b9050828152602081018484840111156135f6576135f5612f75565b5b613601848285613026565b509392505050565b600082601f83011261361e5761361d612f70565b5b813561362e8482602086016135c7565b91505092915050565b6000806000806080858703121561365157613650612cfe565b5b600061365f8782880161316e565b94505060206136708782880161316e565b935050604061368187828801612e42565b925050606085013567ffffffffffffffff8111156136a2576136a1612d03565b5b6136ae87828801613609565b91505092959194509250565b6000610120830160008301516136d360008601826134ef565b50602083015184820360208601526136eb828261341d565b915050604083015161370060408601826132ec565b50606083015161371360608601826132ec565b50608083015161372660808601826132ec565b5060a083015161373960a08601826132ec565b5060c083015161374c60c08601826132ec565b5060e083015161375f60e08601826132ec565b506101008301516137746101008601826132ec565b508091505092915050565b6000602082019050818103600083015261379981846136ba565b905092915050565b600080604083850312156137b8576137b7612cfe565b5b60006137c68582860161316e565b92505060206137d78582860161316e565b9150509250929050565b6000806000606084860312156137fa576137f9612cfe565b5b600061380886828701612e42565b93505060206138198682870161316e565b925050604084013567ffffffffffffffff81111561383a57613839612d03565b5b61384686828701613077565b9150509250925092565b6000819050919050565b600061387561387061386b84612dc3565b613850565b612dc3565b9050919050565b60006138878261385a565b9050919050565b60006138998261387c565b9050919050565b6138a98161388e565b82525050565b60006060820190506138c460008301866138a0565b6138d1602083018561312d565b6138de60408301846131c3565b949350505050565b7f4e487b7100000000000000000000000000000000000000000000000000000000600052602260045260246000fd5b6000600282049050600182168061392d57607f821691505b6020821081036139405761393f6138e6565b5b50919050565b60008190508160005260206000209050919050565b60006020601f8301049050919050565b600082821b905092915050565b6000600883026139a87fffffffffffffffffffffffffffffffffffffffffffffffffffffffffffffffff8261396b565b6139b2868361396b565b95508019841693508086168417925050509392505050565b60006139e56139e06139db84612e21565b613850565b612e21565b9050919050565b6000819050919050565b6139ff836139ca565b613a13613a0b826139ec565b848454613978565b825550505050565b600090565b613a28613a1b565b613a338184846139f6565b505050565b5b81811015613a5757613a4c600082613a20565b600181019050613a39565b5050565b601f821115613a9c57613a6d81613946565b613a768461395b565b81016020851015613a85578190505b613a99613a918561395b565b830182613a38565b50505b505050565b600082821c905092915050565b6000613abf60001984600802613aa1565b1980831691505092915050565b6000613ad88383613aae565b9150826002028217905092915050565b613af182612ebe565b67ffffffffffffffff811115613b0a57613b09612f7a565b5b613b148254613915565b613b1f828285613a5b565b600060209050601f831160018114613b525760008415613b40578287015190505b613b4a8582613acc565b865550613bb2565b601f198416613b6086613946565b60005b82811015613b8857848901518255600182019150602085019450602081019050613b63565b86831015613ba55784890151613ba1601f891682613aae565b8355505b6001600288020188555050505b505050505050565b7f4552433732313a20617070726f76616c20746f2063757272656e74206f776e6560008201527f7200000000000000000000000000000000000000000000000000000000000000602082015250565b6000613c16602183612ec9565b9150613c2182613bba565b604082019050919050565b60006020820190508181036000830152613c4581613c09565b9050919050565b7f4552433732313a20617070726f76652063616c6c6572206973206e6f7420746f60008201527f6b656e206f776e6572206f7220617070726f76656420666f7220616c6c000000602082015250565b6000613ca8603d83612ec9565b9150613cb382613c4c565b604082019050919050565b60006020820190508181036000830152613cd781613c9b565b9050919050565b7f4e487b7100000000000000000000000000000000000000000000000000000000600052601160045260246000fd5b60008160011c9050919050565b6000808291508390505b6001851115613d6457808604811115613d4057613d3f613cde565b5b6001851615613d4f5780820291505b8081029050613d5d85613d0d565b9450613d24565b94509492505050565b600082613d7d5760019050613e39565b81613d8b5760009050613e39565b8160018114613da15760028114613dab57613dda565b6001915050613e39565b60ff841115613dbd57613dbc613cde565b5b8360020a915084821115613dd457613dd3613cde565b5b50613e39565b5060208310610133831016604e8410600b8410161715613e0f5782820a905083811115613e0a57613e09613cde565b5b613e39565b613e1c8484846001613d1a565b92509050818404811115613e3357613e32613cde565b5b81810290505b9392505050565b6000613e4b82612e21565b9150613e5683612e21565b9250613e837fffffffffffffffffffffffffffffffffffffffffffffffffffffffffffffffff8484613d6d565b905092915050565b6000613e9682612e21565b9150613ea183612e21565b9250828202613eaf81612e21565b91508282048414831517613ec657613ec5613cde565b5b5092915050565b7f4e487b7100000000000000000000000000000000000000000000000000000000600052601260045260246000fd5b6000613f0782612e21565b9150613f1283612e21565b925082613f2257613f21613ecd565b5b828204905092915050565b7f4552433732313a2063616c6c6572206973206e6f7420746f6b656e206f776e6560008201527f72206f7220617070726f76656400000000000000000000000000000000000000602082015250565b6000613f89602d83612ec9565b9150613f9482613f2d565b604082019050919050565b60006020820190508181036000830152613fb881613f7c565b9050919050565b6000613fca82612e21565b9150613fd583612e21565b9250828203905081811115613fed57613fec613cde565b5b92915050565b6000613ffe82612e21565b915061400983612e21565b92508261401957614018613ecd565b5b828206905092915050565b7f4e6f206d6f726520617661696c61626c65206e66747320746f2070757263686160008201527f7365000000000000000000000000000000000000000000000000000000000000602082015250565b6000614080602283612ec9565b915061408b82614024565b604082019050919050565b600060208201905081810360008301526140af81614073565b9050919050565b60006140c182612e21565b91506140cc83612e21565b92508282019050808211156140e4576140e3613cde565b5b92915050565b7f4552433732313a20696e76616c696420746f6b656e2049440000000000000000600082015250565b6000614120601883612ec9565b915061412b826140ea565b602082019050919050565b6000602082019050818103600083015261414f81614113565b9050919050565b7f4552433732313a2061646472657373207a65726f206973206e6f74206120766160008201527f6c6964206f776e65720000000000000000000000000000000000000000000000602082015250565b60006141b2602983612ec9565b91506141bd82614156565b604082019050919050565b600060208201905081810360008301526141e1816141a5565b9050919050565b600081905092915050565b60006141fe82612ebe565b61420881856141e8565b9350614218818560208601612eda565b80840191505092915050565b600061423082856141f3565b915061423c82846141f3565b91508190509392505050565b7f4f776e61626c653a206e6577206f776e657220697320746865207a65726f206160008201527f6464726573730000000000000000000000000000000000000000000000000000602082015250565b60006142a4602683612ec9565b91506142af82614248565b604082019050919050565b600060208201905081810360008301526142d381614297565b9050919050565b7f4f776e61626c653a2063616c6c6572206973206e6f7420746865206f776e6572600082015250565b6000614310602083612ec9565b915061431b826142da565b602082019050919050565b6000602082019050818103600083015261433f81614303565b9050919050565b7f4552433732313a207472616e736665722066726f6d20696e636f72726563742060008201527f6f776e6572000000000000000000000000000000000000000000000000000000602082015250565b60006143a2602583612ec9565b91506143ad82614346565b604082019050919050565b600060208201905081810360008301526143d181614395565b9050919050565b7f4552433732313a207472616e7366657220746f20746865207a65726f2061646460008201527f7265737300000000000000000000000000000000000000000000000000000000602082015250565b6000614434602483612ec9565b915061443f826143d8565b604082019050919050565b6000602082019050818103600083015261446381614427565b9050919050565b600060608201905061447f60008301866131c3565b61448c602083018561312d565b61449960408301846131c3565b949350505050565b7f4552433732313a20617070726f766520746f2063616c6c657200000000000000600082015250565b60006144d7601983612ec9565b91506144e2826144a1565b602082019050919050565b60006020820190508181036000830152614506816144ca565b9050919050565b7f4552433732313a207472616e7366657220746f206e6f6e20455243373231526560008201527f63656976657220696d706c656d656e7465720000000000000000000000000000602082015250565b6000614569603283612ec9565b91506145748261450d565b604082019050919050565b600060208201905081810360008301526145988161455c565b9050919050565b600081519050919050565b600082825260208201905092915050565b60006145c68261459f565b6145d081856145aa565b93506145e0818560208601612eda565b6145e981612f04565b840191505092915050565b6000608082019050614609600083018761312d565b614616602083018661312d565b61462360408301856131c3565b818103606083015261463581846145bb565b905095945050505050565b60008151905061464f81612d34565b92915050565b60006020828403121561466b5761466a612cfe565b5b600061467984828501614640565b91505092915050565b7f4552433732313a206d696e7420746f20746865207a65726f2061646472657373600082015250565b60006146b8602083612ec9565b91506146c382614682565b602082019050919050565b600060208201905081810360008301526146e7816146ab565b9050919050565b7f4552433732313a20746f6b656e20616c7265616479206d696e74656400000000600082015250565b6000614724601c83612ec9565b915061472f826146ee565b602082019050919050565b6000602082019050818103600083015261475381614717565b905091905056fea26469706673582212202a78616bde1600e6aff69033521aaa5332df0518560ed98673838a343caaa74164736f6c63430008120033516d546b3473506f59796d70746b4b4e5870765341574b54373937473676594a65633257454346584d6d54454552516d5666576b796846694d6861374435416464525038464d543179765a7947435a7352397057317438314158676d","opcodes":"PUSH1 0x80 PUSH1 0x40 MSTORE PUSH1 0x40 MLOAD DUP1 PUSH1 0x60 ADD PUSH1 0x40 MSTORE DUP1 PUSH1 0x2E DUP2 MSTORE PUSH1 0x20 ADD PUSH3 0x4F6A PUSH1 0x2E SWAP2 CODECOPY PUSH1 0x13 SWAP1 DUP2 PUSH3 0x2E SWAP2 SWAP1 PUSH3 0x619 JUMP JUMPDEST POP PUSH1 0x40 MLOAD DUP1 PUSH1 0x20 ADD PUSH1 0x40 MSTORE DUP1 PUSH1 0x0 DUP2 MSTORE POP PUSH1 0x14 SWAP1 DUP2 PUSH3 0x4F SWAP2 SWAP1 PUSH3 0x619 JUMP JUMPDEST POP PUSH1 0x40 MLOAD DUP1 PUSH1 0x60 ADD PUSH1 0x40 MSTORE DUP1 PUSH1 0x2E DUP2 MSTORE PUSH1 0x20 ADD PUSH3 0x4F3C PUSH1 0x2E SWAP2 CODECOPY PUSH1 0x15 SWAP1 DUP2 PUSH3 0x7A SWAP2 SWAP1 PUSH3 0x619 JUMP JUMPDEST POP PUSH1 0x40 MLOAD DUP1 PUSH1 0x20 ADD PUSH1 0x40 MSTORE DUP1 PUSH1 0x0 DUP2 MSTORE POP PUSH1 0x16 SWAP1 DUP2 PUSH3 0x9B SWAP2 SWAP1 PUSH3 0x619 JUMP JUMPDEST POP PUSH1 0x0 PUSH1 0x17 SSTORE CALLVALUE DUP1 ISZERO PUSH3 0xAE JUMPI PUSH1 0x0 DUP1 REVERT JUMPDEST POP PUSH1 0x40 MLOAD PUSH3 0x4F98 CODESIZE SUB DUP1 PUSH3 0x4F98 DUP4 CODECOPY DUP2 DUP2 ADD PUSH1 0x40 MSTORE DUP2 ADD SWAP1 PUSH3 0xD4 SWAP2 SWAP1 PUSH3 0x76A JUMP JUMPDEST PUSH1 0x40 MLOAD DUP1 PUSH1 0x40 ADD PUSH1 0x40 MSTORE DUP1 PUSH1 0x7 DUP2 MSTORE PUSH1 0x20 ADD PUSH32 0x4541766174617200000000000000000000000000000000000000000000000000 DUP2 MSTORE POP PUSH1 0x40 MLOAD DUP1 PUSH1 0x40 ADD PUSH1 0x40 MSTORE DUP1 PUSH1 0x2 DUP2 MSTORE PUSH1 0x20 ADD PUSH32 0x4541000000000000000000000000000000000000000000000000000000000000 DUP2 MSTORE POP DUP2 PUSH1 0x0 SWAP1 DUP2 PUSH3 0x151 SWAP2 SWAP1 PUSH3 0x619 JUMP JUMPDEST POP DUP1 PUSH1 0x1 SWAP1 DUP2 PUSH3 0x163 SWAP2 SWAP1 PUSH3 0x619 JUMP JUMPDEST POP POP POP PUSH3 0x186 PUSH3 0x17A PUSH3 0x2D1 PUSH1 0x20 SHL PUSH1 0x20 SHR JUMP JUMPDEST PUSH3 0x2D9 PUSH1 0x20 SHL PUSH1 0x20 SHR JUMP JUMPDEST PUSH1 0x40 MLOAD DUP1 PUSH2 0x120 ADD PUSH1 0x40 MSTORE DUP1 DUP3 PUSH20 0xFFFFFFFFFFFFFFFFFFFFFFFFFFFFFFFFFFFFFFFF AND DUP2 MSTORE PUSH1 0x20 ADD PUSH1 0x40 MLOAD DUP1 PUSH1 0x40 ADD PUSH1 0x40 MSTORE DUP1 PUSH1 0xA DUP2 MSTORE PUSH1 0x20 ADD PUSH32 0x452D426F6E64204F6E6500000000000000000000000000000000000000000000 DUP2 MSTORE POP DUP2 MSTORE PUSH1 0x20 ADD TIMESTAMP DUP2 MSTORE PUSH1 0x20 ADD PUSH4 0x6E711880 DUP2 MSTORE PUSH1 0x20 ADD PUSH1 0x5 DUP2 MSTORE PUSH1 0x20 ADD PUSH3 0xF0C29F DUP2 MSTORE PUSH1 0x20 ADD PUSH3 0x186A0 DUP2 MSTORE PUSH1 0x20 ADD PUSH1 0x2 DUP2 MSTORE PUSH1 0x20 ADD PUSH2 0x3E8 DUP2 MSTORE POP PUSH1 0x8 PUSH1 0x0 DUP3 ADD MLOAD DUP2 PUSH1 0x0 ADD PUSH1 0x0 PUSH2 0x100 EXP DUP2 SLOAD DUP2 PUSH20 0xFFFFFFFFFFFFFFFFFFFFFFFFFFFFFFFFFFFFFFFF MUL NOT AND SWAP1 DUP4 PUSH20 0xFFFFFFFFFFFFFFFFFFFFFFFFFFFFFFFFFFFFFFFF AND MUL OR SWAP1 SSTORE POP PUSH1 0x20 DUP3 ADD MLOAD DUP2 PUSH1 0x1 ADD SWAP1 DUP2 PUSH3 0x27F SWAP2 SWAP1 PUSH3 0x619 JUMP JUMPDEST POP PUSH1 0x40 DUP3 ADD MLOAD DUP2 PUSH1 0x2 ADD SSTORE PUSH1 0x60 DUP3 ADD MLOAD DUP2 PUSH1 0x3 ADD SSTORE PUSH1 0x80 DUP3 ADD MLOAD DUP2 PUSH1 0x4 ADD SSTORE PUSH1 0xA0 DUP3 ADD MLOAD DUP2 PUSH1 0x5 ADD SSTORE PUSH1 0xC0 DUP3 ADD MLOAD DUP2 PUSH1 0x6 ADD SSTORE PUSH1 0xE0 DUP3 ADD MLOAD DUP2 PUSH1 0x7 ADD SSTORE PUSH2 0x100 DUP3 ADD MLOAD DUP2 PUSH1 0x8 ADD SSTORE SWAP1 POP POP POP PUSH3 0x79C JUMP JUMPDEST PUSH1 0x0 CALLER SWAP1 POP SWAP1 JUMP JUMPDEST PUSH1 0x0 PUSH1 0x7 PUSH1 0x0 SWAP1 SLOAD SWAP1 PUSH2 0x100 EXP SWAP1 DIV PUSH20 0xFFFFFFFFFFFFFFFFFFFFFFFFFFFFFFFFFFFFFFFF AND SWAP1 POP DUP2 PUSH1 0x7 PUSH1 0x0 PUSH2 0x100 EXP DUP2 SLOAD DUP2 PUSH20 0xFFFFFFFFFFFFFFFFFFFFFFFFFFFFFFFFFFFFFFFF MUL NOT AND SWAP1 DUP4 PUSH20 0xFFFFFFFFFFFFFFFFFFFFFFFFFFFFFFFFFFFFFFFF AND MUL OR SWAP1 SSTORE POP DUP2 PUSH20 0xFFFFFFFFFFFFFFFFFFFFFFFFFFFFFFFFFFFFFFFF AND DUP2 PUSH20 0xFFFFFFFFFFFFFFFFFFFFFFFFFFFFFFFFFFFFFFFF AND PUSH32 0x8BE0079C531659141344CD1FD0A4F28419497F9722A3DAAFE3B4186F6B6457E0 PUSH1 0x40 MLOAD PUSH1 0x40 MLOAD DUP1 SWAP2 SUB SWAP1 LOG3 POP POP JUMP JUMPDEST PUSH1 0x0 DUP2 MLOAD SWAP1 POP SWAP2 SWAP1 POP JUMP JUMPDEST PUSH32 0x4E487B7100000000000000000000000000000000000000000000000000000000 PUSH1 0x0 MSTORE PUSH1 0x41 PUSH1 0x4 MSTORE PUSH1 0x24 PUSH1 0x0 REVERT JUMPDEST PUSH32 0x4E487B7100000000000000000000000000000000000000000000000000000000 PUSH1 0x0 MSTORE PUSH1 0x22 PUSH1 0x4 MSTORE PUSH1 0x24 PUSH1 0x0 REVERT JUMPDEST PUSH1 0x0 PUSH1 0x2 DUP3 DIV SWAP1 POP PUSH1 0x1 DUP3 AND DUP1 PUSH3 0x421 JUMPI PUSH1 0x7F DUP3 AND SWAP2 POP JUMPDEST PUSH1 0x20 DUP3 LT DUP2 SUB PUSH3 0x437 JUMPI PUSH3 0x436 PUSH3 0x3D9 JUMP JUMPDEST JUMPDEST POP SWAP2 SWAP1 POP JUMP JUMPDEST PUSH1 0x0 DUP2 SWAP1 POP DUP2 PUSH1 0x0 MSTORE PUSH1 0x20 PUSH1 0x0 KECCAK256 SWAP1 POP SWAP2 SWAP1 POP JUMP JUMPDEST PUSH1 0x0 PUSH1 0x20 PUSH1 0x1F DUP4 ADD DIV SWAP1 POP SWAP2 SWAP1 POP JUMP JUMPDEST PUSH1 0x0 DUP3 DUP3 SHL SWAP1 POP SWAP3 SWAP2 POP POP JUMP JUMPDEST PUSH1 0x0 PUSH1 0x8 DUP4 MUL PUSH3 0x4A1 PUSH32 0xFFFFFFFFFFFFFFFFFFFFFFFFFFFFFFFFFFFFFFFFFFFFFFFFFFFFFFFFFFFFFFFF DUP3 PUSH3 0x462 JUMP JUMPDEST PUSH3 0x4AD DUP7 DUP4 PUSH3 0x462 JUMP JUMPDEST SWAP6 POP DUP1 NOT DUP5 AND SWAP4 POP DUP1 DUP7 AND DUP5 OR SWAP3 POP POP POP SWAP4 SWAP3 POP POP POP JUMP JUMPDEST PUSH1 0x0 DUP2 SWAP1 POP SWAP2 SWAP1 POP JUMP JUMPDEST PUSH1 0x0 DUP2 SWAP1 POP SWAP2 SWAP1 POP JUMP JUMPDEST PUSH1 0x0 PUSH3 0x4FA PUSH3 0x4F4 PUSH3 0x4EE DUP5 PUSH3 0x4C5 JUMP JUMPDEST PUSH3 0x4CF JUMP JUMPDEST PUSH3 0x4C5 JUMP JUMPDEST SWAP1 POP SWAP2 SWAP1 POP JUMP JUMPDEST PUSH1 0x0 DUP2 SWAP1 POP SWAP2 SWAP1 POP JUMP JUMPDEST PUSH3 0x516 DUP4 PUSH3 0x4D9 JUMP JUMPDEST PUSH3 0x52E PUSH3 0x525 DUP3 PUSH3 0x501 JUMP JUMPDEST DUP5 DUP5 SLOAD PUSH3 0x46F JUMP JUMPDEST DUP3 SSTORE POP POP POP POP JUMP JUMPDEST PUSH1 0x0 SWAP1 JUMP JUMPDEST PUSH3 0x545 PUSH3 0x536 JUMP JUMPDEST PUSH3 0x552 DUP2 DUP5 DUP5 PUSH3 0x50B JUMP JUMPDEST POP POP POP JUMP JUMPDEST JUMPDEST DUP2 DUP2 LT ISZERO PUSH3 0x57A JUMPI PUSH3 0x56E PUSH1 0x0 DUP3 PUSH3 0x53B JUMP JUMPDEST PUSH1 0x1 DUP2 ADD SWAP1 POP PUSH3 0x558 JUMP JUMPDEST POP POP JUMP JUMPDEST PUSH1 0x1F DUP3 GT ISZERO PUSH3 0x5C9 JUMPI PUSH3 0x593 DUP2 PUSH3 0x43D JUMP JUMPDEST PUSH3 0x59E DUP5 PUSH3 0x452 JUMP JUMPDEST DUP2 ADD PUSH1 0x20 DUP6 LT ISZERO PUSH3 0x5AE JUMPI DUP2 SWAP1 POP JUMPDEST PUSH3 0x5C6 PUSH3 0x5BD DUP6 PUSH3 0x452 JUMP JUMPDEST DUP4 ADD DUP3 PUSH3 0x557 JUMP JUMPDEST POP POP JUMPDEST POP POP POP JUMP JUMPDEST PUSH1 0x0 DUP3 DUP3 SHR SWAP1 POP SWAP3 SWAP2 POP POP JUMP JUMPDEST PUSH1 0x0 PUSH3 0x5EE PUSH1 0x0 NOT DUP5 PUSH1 0x8 MUL PUSH3 0x5CE JUMP JUMPDEST NOT DUP1 DUP4 AND SWAP2 POP POP SWAP3 SWAP2 POP POP JUMP JUMPDEST PUSH1 0x0 PUSH3 0x609 DUP4 DUP4 PUSH3 0x5DB JUMP JUMPDEST SWAP2 POP DUP3 PUSH1 0x2 MUL DUP3 OR SWAP1 POP SWAP3 SWAP2 POP POP JUMP JUMPDEST PUSH3 0x624 DUP3 PUSH3 0x39F JUMP JUMPDEST PUSH8 0xFFFFFFFFFFFFFFFF DUP2 GT ISZERO PUSH3 0x640 JUMPI PUSH3 0x63F PUSH3 0x3AA JUMP JUMPDEST JUMPDEST PUSH3 0x64C DUP3 SLOAD PUSH3 0x408 JUMP JUMPDEST PUSH3 0x659 DUP3 DUP3 DUP6 PUSH3 0x57E JUMP JUMPDEST PUSH1 0x0 PUSH1 0x20 SWAP1 POP PUSH1 0x1F DUP4 GT PUSH1 0x1 DUP2 EQ PUSH3 0x691 JUMPI PUSH1 0x0 DUP5 ISZERO PUSH3 0x67C JUMPI DUP3 DUP8 ADD MLOAD SWAP1 POP JUMPDEST PUSH3 0x688 DUP6 DUP3 PUSH3 0x5FB JUMP JUMPDEST DUP7 SSTORE POP PUSH3 0x6F8 JUMP JUMPDEST PUSH1 0x1F NOT DUP5 AND PUSH3 0x6A1 DUP7 PUSH3 0x43D JUMP JUMPDEST PUSH1 0x0 JUMPDEST DUP3 DUP2 LT ISZERO PUSH3 0x6CB JUMPI DUP5 DUP10 ADD MLOAD DUP3 SSTORE PUSH1 0x1 DUP3 ADD SWAP2 POP PUSH1 0x20 DUP6 ADD SWAP5 POP PUSH1 0x20 DUP2 ADD SWAP1 POP PUSH3 0x6A4 JUMP JUMPDEST DUP7 DUP4 LT ISZERO PUSH3 0x6EB JUMPI DUP5 DUP10 ADD MLOAD PUSH3 0x6E7 PUSH1 0x1F DUP10 AND DUP3 PUSH3 0x5DB JUMP JUMPDEST DUP4 SSTORE POP JUMPDEST PUSH1 0x1 PUSH1 0x2 DUP9 MUL ADD DUP9 SSTORE POP POP POP JUMPDEST POP POP POP POP POP POP JUMP JUMPDEST PUSH1 0x0 DUP1 REVERT JUMPDEST PUSH1 0x0 PUSH20 0xFFFFFFFFFFFFFFFFFFFFFFFFFFFFFFFFFFFFFFFF DUP3 AND SWAP1 POP SWAP2 SWAP1 POP JUMP JUMPDEST PUSH1 0x0 PUSH3 0x732 DUP3 PUSH3 0x705 JUMP JUMPDEST SWAP1 POP SWAP2 SWAP1 POP JUMP JUMPDEST PUSH3 0x744 DUP2 PUSH3 0x725 JUMP JUMPDEST DUP2 EQ PUSH3 0x750 JUMPI PUSH1 0x0 DUP1 REVERT JUMPDEST POP JUMP JUMPDEST PUSH1 0x0 DUP2 MLOAD SWAP1 POP PUSH3 0x764 DUP2 PUSH3 0x739 JUMP JUMPDEST SWAP3 SWAP2 POP POP JUMP JUMPDEST PUSH1 0x0 PUSH1 0x20 DUP3 DUP5 SUB SLT ISZERO PUSH3 0x783 JUMPI PUSH3 0x782 PUSH3 0x700 JUMP JUMPDEST JUMPDEST PUSH1 0x0 PUSH3 0x793 DUP5 DUP3 DUP6 ADD PUSH3 0x753 JUMP JUMPDEST SWAP2 POP POP SWAP3 SWAP2 POP POP JUMP JUMPDEST PUSH2 0x4790 DUP1 PUSH3 0x7AC PUSH1 0x0 CODECOPY PUSH1 0x0 RETURN INVALID PUSH1 0x80 PUSH1 0x40 MSTORE PUSH1 0x4 CALLDATASIZE LT PUSH2 0x21A JUMPI PUSH1 0x0 CALLDATALOAD PUSH1 0xE0 SHR DUP1 PUSH4 0x714C5398 GT PUSH2 0x123 JUMPI DUP1 PUSH4 0xA35E1370 GT PUSH2 0xAB JUMPI DUP1 PUSH4 0xE985E9C5 GT PUSH2 0x6F JUMPI DUP1 PUSH4 0xE985E9C5 EQ PUSH2 0x7C6 JUMPI DUP1 PUSH4 0xEA317FFF EQ PUSH2 0x803 JUMPI DUP1 PUSH4 0xEFF91C7E EQ PUSH2 0x82E JUMPI DUP1 PUSH4 0xF1645238 EQ PUSH2 0x859 JUMPI DUP1 PUSH4 0xF2FDE38B EQ PUSH2 0x882 JUMPI PUSH2 0x21A JUMP JUMPDEST DUP1 PUSH4 0xA35E1370 EQ PUSH2 0x6CD JUMPI DUP1 PUSH4 0xA574CEA4 EQ PUSH2 0x6F8 JUMPI DUP1 PUSH4 0xB88D4FDE EQ PUSH2 0x735 JUMPI DUP1 PUSH4 0xC87B56DD EQ PUSH2 0x75E JUMPI DUP1 PUSH4 0xD5070B3E EQ PUSH2 0x79B JUMPI PUSH2 0x21A JUMP JUMPDEST DUP1 PUSH4 0x8DA5CB5B GT PUSH2 0xF2 JUMPI DUP1 PUSH4 0x8DA5CB5B EQ PUSH2 0x5E8 JUMPI DUP1 PUSH4 0x95D89B41 EQ PUSH2 0x613 JUMPI DUP1 PUSH4 0x9C50DA75 EQ PUSH2 0x63E JUMPI DUP1 PUSH4 0xA22CB465 EQ PUSH2 0x67B JUMPI DUP1 PUSH4 0xA31B115F EQ PUSH2 0x6A4 JUMPI PUSH2 0x21A JUMP JUMPDEST DUP1 PUSH4 0x714C5398 EQ PUSH2 0x564 JUMPI DUP1 PUSH4 0x715018A6 EQ PUSH2 0x58F JUMPI DUP1 PUSH4 0x729A1A87 EQ PUSH2 0x5A6 JUMPI DUP1 PUSH4 0x88456B7B EQ PUSH2 0x5D1 JUMPI PUSH2 0x21A JUMP JUMPDEST DUP1 PUSH4 0x2B8C41F4 GT PUSH2 0x1A6 JUMPI DUP1 PUSH4 0x52556421 GT PUSH2 0x175 JUMPI DUP1 PUSH4 0x52556421 EQ PUSH2 0x459 JUMPI DUP1 PUSH4 0x55F804B3 EQ PUSH2 0x484 JUMPI DUP1 PUSH4 0x5A9D10A2 EQ PUSH2 0x4AD JUMPI DUP1 PUSH4 0x6352211E EQ PUSH2 0x4EA JUMPI DUP1 PUSH4 0x70A08231 EQ PUSH2 0x527 JUMPI PUSH2 0x21A JUMP JUMPDEST DUP1 PUSH4 0x2B8C41F4 EQ PUSH2 0x3B1 JUMPI DUP1 PUSH4 0x37E08699 EQ PUSH2 0x3DA JUMPI DUP1 PUSH4 0x3FB3FF11 EQ PUSH2 0x405 JUMPI DUP1 PUSH4 0x42842E0E EQ PUSH2 0x430 JUMPI PUSH2 0x21A JUMP JUMPDEST DUP1 PUSH4 0x816A3E2 GT PUSH2 0x1ED JUMPI DUP1 PUSH4 0x816A3E2 EQ PUSH2 0x2CE JUMPI DUP1 PUSH4 0x81812FC EQ PUSH2 0x2F7 JUMPI DUP1 PUSH4 0x95EA7B3 EQ PUSH2 0x334 JUMPI DUP1 PUSH4 0x1ED54E78 EQ PUSH2 0x35D JUMPI DUP1 PUSH4 0x23B872DD EQ PUSH2 0x388 JUMPI PUSH2 0x21A JUMP JUMPDEST DUP1 PUSH4 0x1FFC9A7 EQ PUSH2 0x21F JUMPI DUP1 PUSH4 0x3C13380 EQ PUSH2 0x25C JUMPI DUP1 PUSH4 0x5F31572 EQ PUSH2 0x278 JUMPI DUP1 PUSH4 0x6FDDE03 EQ PUSH2 0x2A3 JUMPI JUMPDEST PUSH1 0x0 DUP1 REVERT JUMPDEST CALLVALUE DUP1 ISZERO PUSH2 0x22B JUMPI PUSH1 0x0 DUP1 REVERT JUMPDEST POP PUSH2 0x246 PUSH1 0x4 DUP1 CALLDATASIZE SUB DUP2 ADD SWAP1 PUSH2 0x241 SWAP2 SWAP1 PUSH2 0x2D60 JUMP JUMPDEST PUSH2 0x8AB JUMP JUMPDEST PUSH1 0x40 MLOAD PUSH2 0x253 SWAP2 SWAP1 PUSH2 0x2DA8 JUMP JUMPDEST PUSH1 0x40 MLOAD DUP1 SWAP2 SUB SWAP1 RETURN JUMPDEST PUSH2 0x276 PUSH1 0x4 DUP1 CALLDATASIZE SUB DUP2 ADD SWAP1 PUSH2 0x271 SWAP2 SWAP1 PUSH2 0x2E57 JUMP JUMPDEST PUSH2 0x90C JUMP JUMPDEST STOP JUMPDEST CALLVALUE DUP1 ISZERO PUSH2 0x284 JUMPI PUSH1 0x0 DUP1 REVERT JUMPDEST POP PUSH2 0x28D PUSH2 0x99F JUMP JUMPDEST PUSH1 0x40 MLOAD PUSH2 0x29A SWAP2 SWAP1 PUSH2 0x2DA8 JUMP JUMPDEST PUSH1 0x40 MLOAD DUP1 SWAP2 SUB SWAP1 RETURN JUMPDEST CALLVALUE DUP1 ISZERO PUSH2 0x2AF JUMPI PUSH1 0x0 DUP1 REVERT JUMPDEST POP PUSH2 0x2B8 PUSH2 0x9AF JUMP JUMPDEST PUSH1 0x40 MLOAD PUSH2 0x2C5 SWAP2 SWAP1 PUSH2 0x2F4E JUMP JUMPDEST PUSH1 0x40 MLOAD DUP1 SWAP2 SUB SWAP1 RETURN JUMPDEST CALLVALUE DUP1 ISZERO PUSH2 0x2DA JUMPI PUSH1 0x0 DUP1 REVERT JUMPDEST POP PUSH2 0x2F5 PUSH1 0x4 DUP1 CALLDATASIZE SUB DUP2 ADD SWAP1 PUSH2 0x2F0 SWAP2 SWAP1 PUSH2 0x30A5 JUMP JUMPDEST PUSH2 0xA41 JUMP JUMPDEST STOP JUMPDEST CALLVALUE DUP1 ISZERO PUSH2 0x303 JUMPI PUSH1 0x0 DUP1 REVERT JUMPDEST POP PUSH2 0x31E PUSH1 0x4 DUP1 CALLDATASIZE SUB DUP2 ADD SWAP1 PUSH2 0x319 SWAP2 SWAP1 PUSH2 0x30EE JUMP JUMPDEST PUSH2 0xA5C JUMP JUMPDEST PUSH1 0x40 MLOAD PUSH2 0x32B SWAP2 SWAP1 PUSH2 0x313C JUMP JUMPDEST PUSH1 0x40 MLOAD DUP1 SWAP2 SUB SWAP1 RETURN JUMPDEST CALLVALUE DUP1 ISZERO PUSH2 0x340 JUMPI PUSH1 0x0 DUP1 REVERT JUMPDEST POP PUSH2 0x35B PUSH1 0x4 DUP1 CALLDATASIZE SUB DUP2 ADD SWAP1 PUSH2 0x356 SWAP2 SWAP1 PUSH2 0x3183 JUMP JUMPDEST PUSH2 0xAA2 JUMP JUMPDEST STOP JUMPDEST CALLVALUE DUP1 ISZERO PUSH2 0x369 JUMPI PUSH1 0x0 DUP1 REVERT JUMPDEST POP PUSH2 0x372 PUSH2 0xBB9 JUMP JUMPDEST PUSH1 0x40 MLOAD PUSH2 0x37F SWAP2 SWAP1 PUSH2 0x31D2 JUMP JUMPDEST PUSH1 0x40 MLOAD DUP1 SWAP2 SUB SWAP1 RETURN JUMPDEST CALLVALUE DUP1 ISZERO PUSH2 0x394 JUMPI PUSH1 0x0 DUP1 REVERT JUMPDEST POP PUSH2 0x3AF PUSH1 0x4 DUP1 CALLDATASIZE SUB DUP2 ADD SWAP1 PUSH2 0x3AA SWAP2 SWAP1 PUSH2 0x31ED JUMP JUMPDEST PUSH2 0xC08 JUMP JUMPDEST STOP JUMPDEST CALLVALUE DUP1 ISZERO PUSH2 0x3BD JUMPI PUSH1 0x0 DUP1 REVERT JUMPDEST POP PUSH2 0x3D8 PUSH1 0x4 DUP1 CALLDATASIZE SUB DUP2 ADD SWAP1 PUSH2 0x3D3 SWAP2 SWAP1 PUSH2 0x30A5 JUMP JUMPDEST PUSH2 0xC68 JUMP JUMPDEST STOP JUMPDEST CALLVALUE DUP1 ISZERO PUSH2 0x3E6 JUMPI PUSH1 0x0 DUP1 REVERT JUMPDEST POP PUSH2 0x3EF PUSH2 0xC83 JUMP JUMPDEST PUSH1 0x40 MLOAD PUSH2 0x3FC SWAP2 SWAP1 PUSH2 0x2DA8 JUMP JUMPDEST PUSH1 0x40 MLOAD DUP1 SWAP2 SUB SWAP1 RETURN JUMPDEST CALLVALUE DUP1 ISZERO PUSH2 0x411 JUMPI PUSH1 0x0 DUP1 REVERT JUMPDEST POP PUSH2 0x41A PUSH2 0xCAD JUMP JUMPDEST PUSH1 0x40 MLOAD PUSH2 0x427 SWAP2 SWAP1 PUSH2 0x31D2 JUMP JUMPDEST PUSH1 0x40 MLOAD DUP1 SWAP2 SUB SWAP1 RETURN JUMPDEST CALLVALUE DUP1 ISZERO PUSH2 0x43C JUMPI PUSH1 0x0 DUP1 REVERT JUMPDEST POP PUSH2 0x457 PUSH1 0x4 DUP1 CALLDATASIZE SUB DUP2 ADD SWAP1 PUSH2 0x452 SWAP2 SWAP1 PUSH2 0x31ED JUMP JUMPDEST PUSH2 0xD0F JUMP JUMPDEST STOP JUMPDEST CALLVALUE DUP1 ISZERO PUSH2 0x465 JUMPI PUSH1 0x0 DUP1 REVERT JUMPDEST POP PUSH2 0x46E PUSH2 0xD2F JUMP JUMPDEST PUSH1 0x40 MLOAD PUSH2 0x47B SWAP2 SWAP1 PUSH2 0x313C JUMP JUMPDEST PUSH1 0x40 MLOAD DUP1 SWAP2 SUB SWAP1 RETURN JUMPDEST CALLVALUE DUP1 ISZERO PUSH2 0x490 JUMPI PUSH1 0x0 DUP1 REVERT JUMPDEST POP PUSH2 0x4AB PUSH1 0x4 DUP1 CALLDATASIZE SUB DUP2 ADD SWAP1 PUSH2 0x4A6 SWAP2 SWAP1 PUSH2 0x30A5 JUMP JUMPDEST PUSH2 0xD5C JUMP JUMPDEST STOP JUMPDEST CALLVALUE DUP1 ISZERO PUSH2 0x4B9 JUMPI PUSH1 0x0 DUP1 REVERT JUMPDEST POP PUSH2 0x4D4 PUSH1 0x4 DUP1 CALLDATASIZE SUB DUP2 ADD SWAP1 PUSH2 0x4CF SWAP2 SWAP1 PUSH2 0x3240 JUMP JUMPDEST PUSH2 0xD77 JUMP JUMPDEST PUSH1 0x40 MLOAD PUSH2 0x4E1 SWAP2 SWAP1 PUSH2 0x31D2 JUMP JUMPDEST PUSH1 0x40 MLOAD DUP1 SWAP2 SUB SWAP1 RETURN JUMPDEST CALLVALUE DUP1 ISZERO PUSH2 0x4F6 JUMPI PUSH1 0x0 DUP1 REVERT JUMPDEST POP PUSH2 0x511 PUSH1 0x4 DUP1 CALLDATASIZE SUB DUP2 ADD SWAP1 PUSH2 0x50C SWAP2 SWAP1 PUSH2 0x30EE JUMP JUMPDEST PUSH2 0xE02 JUMP JUMPDEST PUSH1 0x40 MLOAD PUSH2 0x51E SWAP2 SWAP1 PUSH2 0x313C JUMP JUMPDEST PUSH1 0x40 MLOAD DUP1 SWAP2 SUB SWAP1 RETURN JUMPDEST CALLVALUE DUP1 ISZERO PUSH2 0x533 JUMPI PUSH1 0x0 DUP1 REVERT JUMPDEST POP PUSH2 0x54E PUSH1 0x4 DUP1 CALLDATASIZE SUB DUP2 ADD SWAP1 PUSH2 0x549 SWAP2 SWAP1 PUSH2 0x3293 JUMP JUMPDEST PUSH2 0xE88 JUMP JUMPDEST PUSH1 0x40 MLOAD PUSH2 0x55B SWAP2 SWAP1 PUSH2 0x31D2 JUMP JUMPDEST PUSH1 0x40 MLOAD DUP1 SWAP2 SUB SWAP1 RETURN JUMPDEST CALLVALUE DUP1 ISZERO PUSH2 0x570 JUMPI PUSH1 0x0 DUP1 REVERT JUMPDEST POP PUSH2 0x579 PUSH2 0xF3F JUMP JUMPDEST PUSH1 0x40 MLOAD PUSH2 0x586 SWAP2 SWAP1 PUSH2 0x2F4E JUMP JUMPDEST PUSH1 0x40 MLOAD DUP1 SWAP2 SUB SWAP1 RETURN JUMPDEST CALLVALUE DUP1 ISZERO PUSH2 0x59B JUMPI PUSH1 0x0 DUP1 REVERT JUMPDEST POP PUSH2 0x5A4 PUSH2 0xFD1 JUMP JUMPDEST STOP JUMPDEST CALLVALUE DUP1 ISZERO PUSH2 0x5B2 JUMPI PUSH1 0x0 DUP1 REVERT JUMPDEST POP PUSH2 0x5BB PUSH2 0xFE5 JUMP JUMPDEST PUSH1 0x40 MLOAD PUSH2 0x5C8 SWAP2 SWAP1 PUSH2 0x31D2 JUMP JUMPDEST PUSH1 0x40 MLOAD DUP1 SWAP2 SUB SWAP1 RETURN JUMPDEST CALLVALUE DUP1 ISZERO PUSH2 0x5DD JUMPI PUSH1 0x0 DUP1 REVERT JUMPDEST POP PUSH2 0x5E6 PUSH2 0xFF2 JUMP JUMPDEST STOP JUMPDEST CALLVALUE DUP1 ISZERO PUSH2 0x5F4 JUMPI PUSH1 0x0 DUP1 REVERT JUMPDEST POP PUSH2 0x5FD PUSH2 0x10A0 JUMP JUMPDEST PUSH1 0x40 MLOAD PUSH2 0x60A SWAP2 SWAP1 PUSH2 0x313C JUMP JUMPDEST PUSH1 0x40 MLOAD DUP1 SWAP2 SUB SWAP1 RETURN JUMPDEST CALLVALUE DUP1 ISZERO PUSH2 0x61F JUMPI PUSH1 0x0 DUP1 REVERT JUMPDEST POP PUSH2 0x628 PUSH2 0x10CA JUMP JUMPDEST PUSH1 0x40 MLOAD PUSH2 0x635 SWAP2 SWAP1 PUSH2 0x2F4E JUMP JUMPDEST PUSH1 0x40 MLOAD DUP1 SWAP2 SUB SWAP1 RETURN JUMPDEST CALLVALUE DUP1 ISZERO PUSH2 0x64A JUMPI PUSH1 0x0 DUP1 REVERT JUMPDEST POP PUSH2 0x665 PUSH1 0x4 DUP1 CALLDATASIZE SUB DUP2 ADD SWAP1 PUSH2 0x660 SWAP2 SWAP1 PUSH2 0x3293 JUMP JUMPDEST PUSH2 0x115C JUMP JUMPDEST PUSH1 0x40 MLOAD PUSH2 0x672 SWAP2 SWAP1 PUSH2 0x337E JUMP JUMPDEST PUSH1 0x40 MLOAD DUP1 SWAP2 SUB SWAP1 RETURN JUMPDEST CALLVALUE DUP1 ISZERO PUSH2 0x687 JUMPI PUSH1 0x0 DUP1 REVERT JUMPDEST POP PUSH2 0x6A2 PUSH1 0x4 DUP1 CALLDATASIZE SUB DUP2 ADD SWAP1 PUSH2 0x69D SWAP2 SWAP1 PUSH2 0x33CC JUMP JUMPDEST PUSH2 0x11F3 JUMP JUMPDEST STOP JUMPDEST CALLVALUE DUP1 ISZERO PUSH2 0x6B0 JUMPI PUSH1 0x0 DUP1 REVERT JUMPDEST POP PUSH2 0x6CB PUSH1 0x4 DUP1 CALLDATASIZE SUB DUP2 ADD SWAP1 PUSH2 0x6C6 SWAP2 SWAP1 PUSH2 0x30A5 JUMP JUMPDEST PUSH2 0x1209 JUMP JUMPDEST STOP JUMPDEST CALLVALUE DUP1 ISZERO PUSH2 0x6D9 JUMPI PUSH1 0x0 DUP1 REVERT JUMPDEST POP PUSH2 0x6E2 PUSH2 0x1224 JUMP JUMPDEST PUSH1 0x40 MLOAD PUSH2 0x6EF SWAP2 SWAP1 PUSH2 0x2F4E JUMP JUMPDEST PUSH1 0x40 MLOAD DUP1 SWAP2 SUB SWAP1 RETURN JUMPDEST CALLVALUE DUP1 ISZERO PUSH2 0x704 JUMPI PUSH1 0x0 DUP1 REVERT JUMPDEST POP PUSH2 0x71F PUSH1 0x4 DUP1 CALLDATASIZE SUB DUP2 ADD SWAP1 PUSH2 0x71A SWAP2 SWAP1 PUSH2 0x30EE JUMP JUMPDEST PUSH2 0x12B6 JUMP JUMPDEST PUSH1 0x40 MLOAD PUSH2 0x72C SWAP2 SWAP1 PUSH2 0x3574 JUMP JUMPDEST PUSH1 0x40 MLOAD DUP1 SWAP2 SUB SWAP1 RETURN JUMPDEST CALLVALUE DUP1 ISZERO PUSH2 0x741 JUMPI PUSH1 0x0 DUP1 REVERT JUMPDEST POP PUSH2 0x75C PUSH1 0x4 DUP1 CALLDATASIZE SUB DUP2 ADD SWAP1 PUSH2 0x757 SWAP2 SWAP1 PUSH2 0x3637 JUMP JUMPDEST PUSH2 0x14E6 JUMP JUMPDEST STOP JUMPDEST CALLVALUE DUP1 ISZERO PUSH2 0x76A JUMPI PUSH1 0x0 DUP1 REVERT JUMPDEST POP PUSH2 0x785 PUSH1 0x4 DUP1 CALLDATASIZE SUB DUP2 ADD SWAP1 PUSH2 0x780 SWAP2 SWAP1 PUSH2 0x30EE JUMP JUMPDEST PUSH2 0x1548 JUMP JUMPDEST PUSH1 0x40 MLOAD PUSH2 0x792 SWAP2 SWAP1 PUSH2 0x2F4E JUMP JUMPDEST PUSH1 0x40 MLOAD DUP1 SWAP2 SUB SWAP1 RETURN JUMPDEST CALLVALUE DUP1 ISZERO PUSH2 0x7A7 JUMPI PUSH1 0x0 DUP1 REVERT JUMPDEST POP PUSH2 0x7B0 PUSH2 0x165A JUMP JUMPDEST PUSH1 0x40 MLOAD PUSH2 0x7BD SWAP2 SWAP1 PUSH2 0x377F JUMP JUMPDEST PUSH1 0x40 MLOAD DUP1 SWAP2 SUB SWAP1 RETURN JUMPDEST CALLVALUE DUP1 ISZERO PUSH2 0x7D2 JUMPI PUSH1 0x0 DUP1 REVERT JUMPDEST POP PUSH2 0x7ED PUSH1 0x4 DUP1 CALLDATASIZE SUB DUP2 ADD SWAP1 PUSH2 0x7E8 SWAP2 SWAP1 PUSH2 0x37A1 JUMP JUMPDEST PUSH2 0x17A3 JUMP JUMPDEST PUSH1 0x40 MLOAD PUSH2 0x7FA SWAP2 SWAP1 PUSH2 0x2DA8 JUMP JUMPDEST PUSH1 0x40 MLOAD DUP1 SWAP2 SUB SWAP1 RETURN JUMPDEST CALLVALUE DUP1 ISZERO PUSH2 0x80F JUMPI PUSH1 0x0 DUP1 REVERT JUMPDEST POP PUSH2 0x818 PUSH2 0x1837 JUMP JUMPDEST PUSH1 0x40 MLOAD PUSH2 0x825 SWAP2 SWAP1 PUSH2 0x2DA8 JUMP JUMPDEST PUSH1 0x40 MLOAD DUP1 SWAP2 SUB SWAP1 RETURN JUMPDEST CALLVALUE DUP1 ISZERO PUSH2 0x83A JUMPI PUSH1 0x0 DUP1 REVERT JUMPDEST POP PUSH2 0x843 PUSH2 0x1845 JUMP JUMPDEST PUSH1 0x40 MLOAD PUSH2 0x850 SWAP2 SWAP1 PUSH2 0x31D2 JUMP JUMPDEST PUSH1 0x40 MLOAD DUP1 SWAP2 SUB SWAP1 RETURN JUMPDEST CALLVALUE DUP1 ISZERO PUSH2 0x865 JUMPI PUSH1 0x0 DUP1 REVERT JUMPDEST POP PUSH2 0x880 PUSH1 0x4 DUP1 CALLDATASIZE SUB DUP2 ADD SWAP1 PUSH2 0x87B SWAP2 SWAP1 PUSH2 0x37E1 JUMP JUMPDEST PUSH2 0x184F JUMP JUMPDEST STOP JUMPDEST CALLVALUE DUP1 ISZERO PUSH2 0x88E JUMPI PUSH1 0x0 DUP1 REVERT JUMPDEST POP PUSH2 0x8A9 PUSH1 0x4 DUP1 CALLDATASIZE SUB DUP2 ADD SWAP1 PUSH2 0x8A4 SWAP2 SWAP1 PUSH2 0x3293 JUMP JUMPDEST PUSH2 0x18AF JUMP JUMPDEST STOP JUMPDEST PUSH1 0x0 PUSH4 0x49064906 PUSH1 0xE0 SHL PUSH28 0xFFFFFFFFFFFFFFFFFFFFFFFFFFFFFFFFFFFFFFFFFFFFFFFFFFFFFFFF NOT AND DUP3 PUSH28 0xFFFFFFFFFFFFFFFFFFFFFFFFFFFFFFFFFFFFFFFFFFFFFFFFFFFFFFFF NOT AND EQ DUP1 PUSH2 0x905 JUMPI POP PUSH2 0x904 DUP3 PUSH2 0x1932 JUMP JUMPDEST JUMPDEST SWAP1 POP SWAP2 SWAP1 POP JUMP JUMPDEST PUSH2 0x917 DUP5 DUP5 DUP4 PUSH2 0xD0F JUMP JUMPDEST DUP3 PUSH20 0xFFFFFFFFFFFFFFFFFFFFFFFFFFFFFFFFFFFFFFFF AND PUSH2 0x8FC DUP4 SWAP1 DUP2 ISZERO MUL SWAP1 PUSH1 0x40 MLOAD PUSH1 0x0 PUSH1 0x40 MLOAD DUP1 DUP4 SUB DUP2 DUP6 DUP9 DUP9 CALL SWAP4 POP POP POP POP ISZERO DUP1 ISZERO PUSH2 0x95D JUMPI RETURNDATASIZE PUSH1 0x0 DUP1 RETURNDATACOPY RETURNDATASIZE PUSH1 0x0 REVERT JUMPDEST POP PUSH32 0x608F6AC9327C2BF4D3C77ADF447D2C448BA7B0971E0AAA9AA03F7AC29D874A44 DUP5 CALLER CALLVALUE PUSH1 0x40 MLOAD PUSH2 0x991 SWAP4 SWAP3 SWAP2 SWAP1 PUSH2 0x38AF JUMP JUMPDEST PUSH1 0x40 MLOAD DUP1 SWAP2 SUB SWAP1 LOG1 POP POP POP POP JUMP JUMPDEST PUSH1 0x0 PUSH1 0x8 PUSH1 0x3 ADD SLOAD TIMESTAMP LT ISZERO SWAP1 POP SWAP1 JUMP JUMPDEST PUSH1 0x60 PUSH1 0x0 DUP1 SLOAD PUSH2 0x9BE SWAP1 PUSH2 0x3915 JUMP JUMPDEST DUP1 PUSH1 0x1F ADD PUSH1 0x20 DUP1 SWAP2 DIV MUL PUSH1 0x20 ADD PUSH1 0x40 MLOAD SWAP1 DUP2 ADD PUSH1 0x40 MSTORE DUP1 SWAP3 SWAP2 SWAP1 DUP2 DUP2 MSTORE PUSH1 0x20 ADD DUP3 DUP1 SLOAD PUSH2 0x9EA SWAP1 PUSH2 0x3915 JUMP JUMPDEST DUP1 ISZERO PUSH2 0xA37 JUMPI DUP1 PUSH1 0x1F LT PUSH2 0xA0C JUMPI PUSH2 0x100 DUP1 DUP4 SLOAD DIV MUL DUP4 MSTORE SWAP2 PUSH1 0x20 ADD SWAP2 PUSH2 0xA37 JUMP JUMPDEST DUP3 ADD SWAP2 SWAP1 PUSH1 0x0 MSTORE PUSH1 0x20 PUSH1 0x0 KECCAK256 SWAP1 JUMPDEST DUP2 SLOAD DUP2 MSTORE SWAP1 PUSH1 0x1 ADD SWAP1 PUSH1 0x20 ADD DUP1 DUP4 GT PUSH2 0xA1A JUMPI DUP3 SWAP1 SUB PUSH1 0x1F AND DUP3 ADD SWAP2 JUMPDEST POP POP POP POP POP SWAP1 POP SWAP1 JUMP JUMPDEST PUSH2 0xA49 PUSH2 0x1A14 JUMP JUMPDEST DUP1 PUSH1 0x16 SWAP1 DUP2 PUSH2 0xA58 SWAP2 SWAP1 PUSH2 0x3AE8 JUMP JUMPDEST POP POP JUMP JUMPDEST PUSH1 0x0 PUSH2 0xA67 DUP3 PUSH2 0x1A92 JUMP JUMPDEST PUSH1 0x4 PUSH1 0x0 DUP4 DUP2 MSTORE PUSH1 0x20 ADD SWAP1 DUP2 MSTORE PUSH1 0x20 ADD PUSH1 0x0 KECCAK256 PUSH1 0x0 SWAP1 SLOAD SWAP1 PUSH2 0x100 EXP SWAP1 DIV PUSH20 0xFFFFFFFFFFFFFFFFFFFFFFFFFFFFFFFFFFFFFFFF AND SWAP1 POP SWAP2 SWAP1 POP JUMP JUMPDEST PUSH1 0x0 PUSH2 0xAAD DUP3 PUSH2 0xE02 JUMP JUMPDEST SWAP1 POP DUP1 PUSH20 0xFFFFFFFFFFFFFFFFFFFFFFFFFFFFFFFFFFFFFFFF AND DUP4 PUSH20 0xFFFFFFFFFFFFFFFFFFFFFFFFFFFFFFFFFFFFFFFF AND SUB PUSH2 0xB1D JUMPI PUSH1 0x40 MLOAD PUSH32 0x8C379A000000000000000000000000000000000000000000000000000000000 DUP2 MSTORE PUSH1 0x4 ADD PUSH2 0xB14 SWAP1 PUSH2 0x3C2C JUMP JUMPDEST PUSH1 0x40 MLOAD DUP1 SWAP2 SUB SWAP1 REVERT JUMPDEST DUP1 PUSH20 0xFFFFFFFFFFFFFFFFFFFFFFFFFFFFFFFFFFFFFFFF AND PUSH2 0xB3C PUSH2 0x1ADD JUMP JUMPDEST PUSH20 0xFFFFFFFFFFFFFFFFFFFFFFFFFFFFFFFFFFFFFFFF AND EQ DUP1 PUSH2 0xB6B JUMPI POP PUSH2 0xB6A DUP2 PUSH2 0xB65 PUSH2 0x1ADD JUMP JUMPDEST PUSH2 0x17A3 JUMP JUMPDEST JUMPDEST PUSH2 0xBAA JUMPI PUSH1 0x40 MLOAD PUSH32 0x8C379A000000000000000000000000000000000000000000000000000000000 DUP2 MSTORE PUSH1 0x4 ADD PUSH2 0xBA1 SWAP1 PUSH2 0x3CBE JUMP JUMPDEST PUSH1 0x40 MLOAD DUP1 SWAP2 SUB SWAP1 REVERT JUMPDEST PUSH2 0xBB4 DUP4 DUP4 PUSH2 0x1AE5 JUMP JUMPDEST POP POP POP JUMP JUMPDEST PUSH1 0x0 PUSH2 0xBC3 PUSH2 0x99F JUMP JUMPDEST PUSH2 0xC00 JUMPI PUSH1 0x8 PUSH1 0x7 ADD SLOAD PUSH1 0xA PUSH2 0xBD9 SWAP2 SWAP1 PUSH2 0x3E40 JUMP JUMPDEST PUSH1 0x8 PUSH1 0x4 ADD SLOAD PUSH1 0x8 PUSH1 0x6 ADD SLOAD PUSH2 0xBEF SWAP2 SWAP1 PUSH2 0x3E8B JUMP JUMPDEST PUSH2 0xBF9 SWAP2 SWAP1 PUSH2 0x3EFC JUMP JUMPDEST SWAP1 POP PUSH2 0xC05 JUMP JUMPDEST PUSH1 0x0 SWAP1 POP JUMPDEST SWAP1 JUMP JUMPDEST PUSH2 0xC19 PUSH2 0xC13 PUSH2 0x1ADD JUMP JUMPDEST DUP3 PUSH2 0x1B9E JUMP JUMPDEST PUSH2 0xC58 JUMPI PUSH1 0x40 MLOAD PUSH32 0x8C379A000000000000000000000000000000000000000000000000000000000 DUP2 MSTORE PUSH1 0x4 ADD PUSH2 0xC4F SWAP1 PUSH2 0x3F9F JUMP JUMPDEST PUSH1 0x40 MLOAD DUP1 SWAP2 SUB SWAP1 REVERT JUMPDEST PUSH2 0xC63 DUP4 DUP4 DUP4 PUSH2 0x1C33 JUMP JUMPDEST POP POP POP JUMP JUMPDEST PUSH2 0xC70 PUSH2 0x1A14 JUMP JUMPDEST DUP1 PUSH1 0x15 SWAP1 DUP2 PUSH2 0xC7F SWAP2 SWAP1 PUSH2 0x3AE8 JUMP JUMPDEST POP POP JUMP JUMPDEST PUSH1 0x0 DUP1 PUSH1 0x8 PUSH1 0x5 ADD SLOAD PUSH1 0x8 PUSH1 0x2 ADD SLOAD TIMESTAMP PUSH2 0xC9D SWAP2 SWAP1 PUSH2 0x3FBF JUMP JUMPDEST PUSH2 0xCA7 SWAP2 SWAP1 PUSH2 0x3FF3 JUMP JUMPDEST EQ SWAP1 POP SWAP1 JUMP JUMPDEST PUSH1 0x0 PUSH2 0xCB7 PUSH2 0x99F JUMP JUMPDEST PUSH2 0xD07 JUMPI PUSH1 0x0 PUSH2 0xCC5 PUSH2 0xBB9 JUMP JUMPDEST SWAP1 POP PUSH1 0x0 PUSH1 0x8 PUSH1 0x5 ADD SLOAD PUSH1 0x8 PUSH1 0x3 ADD SLOAD TIMESTAMP PUSH2 0xCE0 SWAP2 SWAP1 PUSH2 0x3FBF JUMP JUMPDEST PUSH2 0xCEA SWAP2 SWAP1 PUSH2 0x3EFC JUMP JUMPDEST SWAP1 POP PUSH1 0x0 DUP2 DUP4 PUSH2 0xCFA SWAP2 SWAP1 PUSH2 0x3E8B JUMP JUMPDEST SWAP1 POP DUP1 SWAP4 POP POP POP POP PUSH2 0xD0C JUMP JUMPDEST PUSH1 0x0 SWAP1 POP JUMPDEST SWAP1 JUMP JUMPDEST PUSH2 0xD2A DUP4 DUP4 DUP4 PUSH1 0x40 MLOAD DUP1 PUSH1 0x20 ADD PUSH1 0x40 MSTORE DUP1 PUSH1 0x0 DUP2 MSTORE POP PUSH2 0x14E6 JUMP JUMPDEST POP POP POP JUMP JUMPDEST PUSH1 0x0 PUSH1 0x8 PUSH1 0x0 ADD PUSH1 0x0 SWAP1 SLOAD SWAP1 PUSH2 0x100 EXP SWAP1 DIV PUSH20 0xFFFFFFFFFFFFFFFFFFFFFFFFFFFFFFFFFFFFFFFF AND SWAP1 POP SWAP1 JUMP JUMPDEST PUSH2 0xD64 PUSH2 0x1A14 JUMP JUMPDEST DUP1 PUSH1 0x13 SWAP1 DUP2 PUSH2 0xD73 SWAP2 SWAP1 PUSH2 0x3AE8 JUMP JUMPDEST POP POP JUMP JUMPDEST PUSH1 0x0 PUSH2 0xD81 PUSH2 0x1A14 JUMP JUMPDEST PUSH1 0x8 DUP1 ADD SLOAD PUSH1 0x17 SLOAD LT PUSH2 0xDC9 JUMPI PUSH1 0x40 MLOAD PUSH32 0x8C379A000000000000000000000000000000000000000000000000000000000 DUP2 MSTORE PUSH1 0x4 ADD PUSH2 0xDC0 SWAP1 PUSH2 0x4096 JUMP JUMPDEST PUSH1 0x40 MLOAD DUP1 SWAP2 SUB SWAP1 REVERT JUMPDEST PUSH1 0x1 PUSH1 0x17 PUSH1 0x0 DUP3 DUP3 SLOAD PUSH2 0xDDC SWAP2 SWAP1 PUSH2 0x40B6 JUMP JUMPDEST SWAP3 POP POP DUP2 SWAP1 SSTORE POP PUSH2 0xDED DUP5 DUP4 PUSH2 0x1F2C JUMP JUMPDEST PUSH2 0xDF8 DUP3 DUP5 DUP7 PUSH2 0x1F4A JUMP JUMPDEST DUP2 SWAP1 POP SWAP4 SWAP3 POP POP POP JUMP JUMPDEST PUSH1 0x0 DUP1 PUSH2 0xE0E DUP4 PUSH2 0x214A JUMP JUMPDEST SWAP1 POP PUSH1 0x0 PUSH20 0xFFFFFFFFFFFFFFFFFFFFFFFFFFFFFFFFFFFFFFFF AND DUP2 PUSH20 0xFFFFFFFFFFFFFFFFFFFFFFFFFFFFFFFFFFFFFFFF AND SUB PUSH2 0xE7F JUMPI PUSH1 0x40 MLOAD PUSH32 0x8C379A000000000000000000000000000000000000000000000000000000000 DUP2 MSTORE PUSH1 0x4 ADD PUSH2 0xE76 SWAP1 PUSH2 0x4136 JUMP JUMPDEST PUSH1 0x40 MLOAD DUP1 SWAP2 SUB SWAP1 REVERT JUMPDEST DUP1 SWAP2 POP POP SWAP2 SWAP1 POP JUMP JUMPDEST PUSH1 0x0 DUP1 PUSH20 0xFFFFFFFFFFFFFFFFFFFFFFFFFFFFFFFFFFFFFFFF AND DUP3 PUSH20 0xFFFFFFFFFFFFFFFFFFFFFFFFFFFFFFFFFFFFFFFF AND SUB PUSH2 0xEF8 JUMPI PUSH1 0x40 MLOAD PUSH32 0x8C379A000000000000000000000000000000000000000000000000000000000 DUP2 MSTORE PUSH1 0x4 ADD PUSH2 0xEEF SWAP1 PUSH2 0x41C8 JUMP JUMPDEST PUSH1 0x40 MLOAD DUP1 SWAP2 SUB SWAP1 REVERT JUMPDEST PUSH1 0x3 PUSH1 0x0 DUP4 PUSH20 0xFFFFFFFFFFFFFFFFFFFFFFFFFFFFFFFFFFFFFFFF AND PUSH20 0xFFFFFFFFFFFFFFFFFFFFFFFFFFFFFFFFFFFFFFFF AND DUP2 MSTORE PUSH1 0x20 ADD SWAP1 DUP2 MSTORE PUSH1 0x20 ADD PUSH1 0x0 KECCAK256 SLOAD SWAP1 POP SWAP2 SWAP1 POP JUMP JUMPDEST PUSH1 0x60 PUSH1 0x13 DUP1 SLOAD PUSH2 0xF4E SWAP1 PUSH2 0x3915 JUMP JUMPDEST DUP1 PUSH1 0x1F ADD PUSH1 0x20 DUP1 SWAP2 DIV MUL PUSH1 0x20 ADD PUSH1 0x40 MLOAD SWAP1 DUP2 ADD PUSH1 0x40 MSTORE DUP1 SWAP3 SWAP2 SWAP1 DUP2 DUP2 MSTORE PUSH1 0x20 ADD DUP3 DUP1 SLOAD PUSH2 0xF7A SWAP1 PUSH2 0x3915 JUMP JUMPDEST DUP1 ISZERO PUSH2 0xFC7 JUMPI DUP1 PUSH1 0x1F LT PUSH2 0xF9C JUMPI PUSH2 0x100 DUP1 DUP4 SLOAD DIV MUL DUP4 MSTORE SWAP2 PUSH1 0x20 ADD SWAP2 PUSH2 0xFC7 JUMP JUMPDEST DUP3 ADD SWAP2 SWAP1 PUSH1 0x0 MSTORE PUSH1 0x20 PUSH1 0x0 KECCAK256 SWAP1 JUMPDEST DUP2 SLOAD DUP2 MSTORE SWAP1 PUSH1 0x1 ADD SWAP1 PUSH1 0x20 ADD DUP1 DUP4 GT PUSH2 0xFAA JUMPI DUP3 SWAP1 SUB PUSH1 0x1F AND DUP3 ADD SWAP2 JUMPDEST POP POP POP POP POP SWAP1 POP SWAP1 JUMP JUMPDEST PUSH2 0xFD9 PUSH2 0x1A14 JUMP JUMPDEST PUSH2 0xFE3 PUSH1 0x0 PUSH2 0x2187 JUMP JUMPDEST JUMP JUMPDEST PUSH1 0x0 PUSH1 0x8 PUSH1 0x6 ADD SLOAD SWAP1 POP SWAP1 JUMP JUMPDEST PUSH2 0xFFA PUSH2 0x1A14 JUMP JUMPDEST PUSH2 0x1002 PUSH2 0x99F JUMP JUMPDEST PUSH2 0x100B JUMPI PUSH1 0x0 DUP1 REVERT JUMPDEST PUSH2 0x109E PUSH1 0x14 DUP1 SLOAD PUSH2 0x101B SWAP1 PUSH2 0x3915 JUMP JUMPDEST DUP1 PUSH1 0x1F ADD PUSH1 0x20 DUP1 SWAP2 DIV MUL PUSH1 0x20 ADD PUSH1 0x40 MLOAD SWAP1 DUP2 ADD PUSH1 0x40 MSTORE DUP1 SWAP3 SWAP2 SWAP1 DUP2 DUP2 MSTORE PUSH1 0x20 ADD DUP3 DUP1 SLOAD PUSH2 0x1047 SWAP1 PUSH2 0x3915 JUMP JUMPDEST DUP1 ISZERO PUSH2 0x1094 JUMPI DUP1 PUSH1 0x1F LT PUSH2 0x1069 JUMPI PUSH2 0x100 DUP1 DUP4 SLOAD DIV MUL DUP4 MSTORE SWAP2 PUSH1 0x20 ADD SWAP2 PUSH2 0x1094 JUMP JUMPDEST DUP3 ADD SWAP2 SWAP1 PUSH1 0x0 MSTORE PUSH1 0x20 PUSH1 0x0 KECCAK256 SWAP1 JUMPDEST DUP2 SLOAD DUP2 MSTORE SWAP1 PUSH1 0x1 ADD SWAP1 PUSH1 0x20 ADD DUP1 DUP4 GT PUSH2 0x1077 JUMPI DUP3 SWAP1 SUB PUSH1 0x1F AND DUP3 ADD SWAP2 JUMPDEST POP POP POP POP POP PUSH2 0xD5C JUMP JUMPDEST JUMP JUMPDEST PUSH1 0x0 PUSH1 0x7 PUSH1 0x0 SWAP1 SLOAD SWAP1 PUSH2 0x100 EXP SWAP1 DIV PUSH20 0xFFFFFFFFFFFFFFFFFFFFFFFFFFFFFFFFFFFFFFFF AND SWAP1 POP SWAP1 JUMP JUMPDEST PUSH1 0x60 PUSH1 0x1 DUP1 SLOAD PUSH2 0x10D9 SWAP1 PUSH2 0x3915 JUMP JUMPDEST DUP1 PUSH1 0x1F ADD PUSH1 0x20 DUP1 SWAP2 DIV MUL PUSH1 0x20 ADD PUSH1 0x40 MLOAD SWAP1 DUP2 ADD PUSH1 0x40 MSTORE DUP1 SWAP3 SWAP2 SWAP1 DUP2 DUP2 MSTORE PUSH1 0x20 ADD DUP3 DUP1 SLOAD PUSH2 0x1105 SWAP1 PUSH2 0x3915 JUMP JUMPDEST DUP1 ISZERO PUSH2 0x1152 JUMPI DUP1 PUSH1 0x1F LT PUSH2 0x1127 JUMPI PUSH2 0x100 DUP1 DUP4 SLOAD DIV MUL DUP4 MSTORE SWAP2 PUSH1 0x20 ADD SWAP2 PUSH2 0x1152 JUMP JUMPDEST DUP3 ADD SWAP2 SWAP1 PUSH1 0x0 MSTORE PUSH1 0x20 PUSH1 0x0 KECCAK256 SWAP1 JUMPDEST DUP2 SLOAD DUP2 MSTORE SWAP1 PUSH1 0x1 ADD SWAP1 PUSH1 0x20 ADD DUP1 DUP4 GT PUSH2 0x1135 JUMPI DUP3 SWAP1 SUB PUSH1 0x1F AND DUP3 ADD SWAP2 JUMPDEST POP POP POP POP POP SWAP1 POP SWAP1 JUMP JUMPDEST PUSH1 0x60 PUSH1 0x12 PUSH1 0x0 DUP4 PUSH20 0xFFFFFFFFFFFFFFFFFFFFFFFFFFFFFFFFFFFFFFFF AND PUSH20 0xFFFFFFFFFFFFFFFFFFFFFFFFFFFFFFFFFFFFFFFF AND DUP2 MSTORE PUSH1 0x20 ADD SWAP1 DUP2 MSTORE PUSH1 0x20 ADD PUSH1 0x0 KECCAK256 DUP1 SLOAD DUP1 PUSH1 0x20 MUL PUSH1 0x20 ADD PUSH1 0x40 MLOAD SWAP1 DUP2 ADD PUSH1 0x40 MSTORE DUP1 SWAP3 SWAP2 SWAP1 DUP2 DUP2 MSTORE PUSH1 0x20 ADD DUP3 DUP1 SLOAD DUP1 ISZERO PUSH2 0x11E7 JUMPI PUSH1 0x20 MUL DUP3 ADD SWAP2 SWAP1 PUSH1 0x0 MSTORE PUSH1 0x20 PUSH1 0x0 KECCAK256 SWAP1 JUMPDEST DUP2 SLOAD DUP2 MSTORE PUSH1 0x20 ADD SWAP1 PUSH1 0x1 ADD SWAP1 DUP1 DUP4 GT PUSH2 0x11D3 JUMPI JUMPDEST POP POP POP POP POP SWAP1 POP SWAP2 SWAP1 POP JUMP JUMPDEST PUSH2 0x1205 PUSH2 0x11FE PUSH2 0x1ADD JUMP JUMPDEST DUP4 DUP4 PUSH2 0x224D JUMP JUMPDEST POP POP JUMP JUMPDEST PUSH2 0x1211 PUSH2 0x1A14 JUMP JUMPDEST DUP1 PUSH1 0x14 SWAP1 DUP2 PUSH2 0x1220 SWAP2 SWAP1 PUSH2 0x3AE8 JUMP JUMPDEST POP POP JUMP JUMPDEST PUSH1 0x60 PUSH1 0x15 DUP1 SLOAD PUSH2 0x1233 SWAP1 PUSH2 0x3915 JUMP JUMPDEST DUP1 PUSH1 0x1F ADD PUSH1 0x20 DUP1 SWAP2 DIV MUL PUSH1 0x20 ADD PUSH1 0x40 MLOAD SWAP1 DUP2 ADD PUSH1 0x40 MSTORE DUP1 SWAP3 SWAP2 SWAP1 DUP2 DUP2 MSTORE PUSH1 0x20 ADD DUP3 DUP1 SLOAD PUSH2 0x125F SWAP1 PUSH2 0x3915 JUMP JUMPDEST DUP1 ISZERO PUSH2 0x12AC JUMPI DUP1 PUSH1 0x1F LT PUSH2 0x1281 JUMPI PUSH2 0x100 DUP1 DUP4 SLOAD DIV MUL DUP4 MSTORE SWAP2 PUSH1 0x20 ADD SWAP2 PUSH2 0x12AC JUMP JUMPDEST DUP3 ADD SWAP2 SWAP1 PUSH1 0x0 MSTORE PUSH1 0x20 PUSH1 0x0 KECCAK256 SWAP1 JUMPDEST DUP2 SLOAD DUP2 MSTORE SWAP1 PUSH1 0x1 ADD SWAP1 PUSH1 0x20 ADD DUP1 DUP4 GT PUSH2 0x128F JUMPI DUP3 SWAP1 SUB PUSH1 0x1F AND DUP3 ADD SWAP2 JUMPDEST POP POP POP POP POP SWAP1 POP SWAP1 JUMP JUMPDEST PUSH2 0x12BE PUSH2 0x2C0F JUMP JUMPDEST PUSH1 0x11 PUSH1 0x0 DUP4 DUP2 MSTORE PUSH1 0x20 ADD SWAP1 DUP2 MSTORE PUSH1 0x20 ADD PUSH1 0x0 KECCAK256 PUSH1 0x40 MLOAD DUP1 PUSH1 0xA0 ADD PUSH1 0x40 MSTORE SWAP1 DUP2 PUSH1 0x0 DUP3 ADD SLOAD DUP2 MSTORE PUSH1 0x20 ADD PUSH1 0x1 DUP3 ADD SLOAD DUP2 MSTORE PUSH1 0x20 ADD PUSH1 0x2 DUP3 ADD SLOAD DUP2 MSTORE PUSH1 0x20 ADD PUSH1 0x3 DUP3 ADD PUSH1 0x40 MLOAD DUP1 PUSH1 0xA0 ADD PUSH1 0x40 MSTORE SWAP1 DUP2 PUSH1 0x0 DUP3 ADD DUP1 SLOAD PUSH2 0x131A SWAP1 PUSH2 0x3915 JUMP JUMPDEST DUP1 PUSH1 0x1F ADD PUSH1 0x20 DUP1 SWAP2 DIV MUL PUSH1 0x20 ADD PUSH1 0x40 MLOAD SWAP1 DUP2 ADD PUSH1 0x40 MSTORE DUP1 SWAP3 SWAP2 SWAP1 DUP2 DUP2 MSTORE PUSH1 0x20 ADD DUP3 DUP1 SLOAD PUSH2 0x1346 SWAP1 PUSH2 0x3915 JUMP JUMPDEST DUP1 ISZERO PUSH2 0x1393 JUMPI DUP1 PUSH1 0x1F LT PUSH2 0x1368 JUMPI PUSH2 0x100 DUP1 DUP4 SLOAD DIV MUL DUP4 MSTORE SWAP2 PUSH1 0x20 ADD SWAP2 PUSH2 0x1393 JUMP JUMPDEST DUP3 ADD SWAP2 SWAP1 PUSH1 0x0 MSTORE PUSH1 0x20 PUSH1 0x0 KECCAK256 SWAP1 JUMPDEST DUP2 SLOAD DUP2 MSTORE SWAP1 PUSH1 0x1 ADD SWAP1 PUSH1 0x20 ADD DUP1 DUP4 GT PUSH2 0x1376 JUMPI DUP3 SWAP1 SUB PUSH1 0x1F AND DUP3 ADD SWAP2 JUMPDEST POP POP POP POP POP DUP2 MSTORE PUSH1 0x20 ADD PUSH1 0x1 DUP3 ADD DUP1 SLOAD PUSH2 0x13AC SWAP1 PUSH2 0x3915 JUMP JUMPDEST DUP1 PUSH1 0x1F ADD PUSH1 0x20 DUP1 SWAP2 DIV MUL PUSH1 0x20 ADD PUSH1 0x40 MLOAD SWAP1 DUP2 ADD PUSH1 0x40 MSTORE DUP1 SWAP3 SWAP2 SWAP1 DUP2 DUP2 MSTORE PUSH1 0x20 ADD DUP3 DUP1 SLOAD PUSH2 0x13D8 SWAP1 PUSH2 0x3915 JUMP JUMPDEST DUP1 ISZERO PUSH2 0x1425 JUMPI DUP1 PUSH1 0x1F LT PUSH2 0x13FA JUMPI PUSH2 0x100 DUP1 DUP4 SLOAD DIV MUL DUP4 MSTORE SWAP2 PUSH1 0x20 ADD SWAP2 PUSH2 0x1425 JUMP JUMPDEST DUP3 ADD SWAP2 SWAP1 PUSH1 0x0 MSTORE PUSH1 0x20 PUSH1 0x0 KECCAK256 SWAP1 JUMPDEST DUP2 SLOAD DUP2 MSTORE SWAP1 PUSH1 0x1 ADD SWAP1 PUSH1 0x20 ADD DUP1 DUP4 GT PUSH2 0x1408 JUMPI DUP3 SWAP1 SUB PUSH1 0x1F AND DUP3 ADD SWAP2 JUMPDEST POP POP POP POP POP DUP2 MSTORE PUSH1 0x20 ADD PUSH1 0x2 DUP3 ADD PUSH1 0x0 SWAP1 SLOAD SWAP1 PUSH2 0x100 EXP SWAP1 DIV PUSH1 0xFF AND PUSH1 0xFF AND PUSH1 0xFF AND DUP2 MSTORE PUSH1 0x20 ADD PUSH1 0x2 DUP3 ADD PUSH1 0x1 SWAP1 SLOAD SWAP1 PUSH2 0x100 EXP SWAP1 DIV PUSH1 0xFF AND PUSH1 0xFF AND PUSH1 0xFF AND DUP2 MSTORE PUSH1 0x20 ADD PUSH1 0x2 DUP3 ADD PUSH1 0x2 SWAP1 SLOAD SWAP1 PUSH2 0x100 EXP SWAP1 DIV PUSH1 0xFF AND PUSH1 0xFF AND PUSH1 0xFF AND DUP2 MSTORE POP POP DUP2 MSTORE PUSH1 0x20 ADD PUSH1 0x6 DUP3 ADD PUSH1 0x0 SWAP1 SLOAD SWAP1 PUSH2 0x100 EXP SWAP1 DIV PUSH20 0xFFFFFFFFFFFFFFFFFFFFFFFFFFFFFFFFFFFFFFFF AND PUSH20 0xFFFFFFFFFFFFFFFFFFFFFFFFFFFFFFFFFFFFFFFF AND PUSH20 0xFFFFFFFFFFFFFFFFFFFFFFFFFFFFFFFFFFFFFFFF AND DUP2 MSTORE POP POP SWAP1 POP SWAP2 SWAP1 POP JUMP JUMPDEST PUSH2 0x14F7 PUSH2 0x14F1 PUSH2 0x1ADD JUMP JUMPDEST DUP4 PUSH2 0x1B9E JUMP JUMPDEST PUSH2 0x1536 JUMPI PUSH1 0x40 MLOAD PUSH32 0x8C379A000000000000000000000000000000000000000000000000000000000 DUP2 MSTORE PUSH1 0x4 ADD PUSH2 0x152D SWAP1 PUSH2 0x3F9F JUMP JUMPDEST PUSH1 0x40 MLOAD DUP1 SWAP2 SUB SWAP1 REVERT JUMPDEST PUSH2 0x1542 DUP5 DUP5 DUP5 DUP5 PUSH2 0x23B9 JUMP JUMPDEST POP POP POP POP JUMP JUMPDEST PUSH1 0x60 PUSH2 0x1553 DUP3 PUSH2 0x1A92 JUMP JUMPDEST PUSH1 0x0 PUSH1 0x6 PUSH1 0x0 DUP5 DUP2 MSTORE PUSH1 0x20 ADD SWAP1 DUP2 MSTORE PUSH1 0x20 ADD PUSH1 0x0 KECCAK256 DUP1 SLOAD PUSH2 0x1573 SWAP1 PUSH2 0x3915 JUMP JUMPDEST DUP1 PUSH1 0x1F ADD PUSH1 0x20 DUP1 SWAP2 DIV MUL PUSH1 0x20 ADD PUSH1 0x40 MLOAD SWAP1 DUP2 ADD PUSH1 0x40 MSTORE DUP1 SWAP3 SWAP2 SWAP1 DUP2 DUP2 MSTORE PUSH1 0x20 ADD DUP3 DUP1 SLOAD PUSH2 0x159F SWAP1 PUSH2 0x3915 JUMP JUMPDEST DUP1 ISZERO PUSH2 0x15EC JUMPI DUP1 PUSH1 0x1F LT PUSH2 0x15C1 JUMPI PUSH2 0x100 DUP1 DUP4 SLOAD DIV MUL DUP4 MSTORE SWAP2 PUSH1 0x20 ADD SWAP2 PUSH2 0x15EC JUMP JUMPDEST DUP3 ADD SWAP2 SWAP1 PUSH1 0x0 MSTORE PUSH1 0x20 PUSH1 0x0 KECCAK256 SWAP1 JUMPDEST DUP2 SLOAD DUP2 MSTORE SWAP1 PUSH1 0x1 ADD SWAP1 PUSH1 0x20 ADD DUP1 DUP4 GT PUSH2 0x15CF JUMPI DUP3 SWAP1 SUB PUSH1 0x1F AND DUP3 ADD SWAP2 JUMPDEST POP POP POP POP POP SWAP1 POP PUSH1 0x0 PUSH2 0x15FD PUSH2 0x2415 JUMP JUMPDEST SWAP1 POP PUSH1 0x0 DUP2 MLOAD SUB PUSH2 0x1612 JUMPI DUP2 SWAP3 POP POP POP PUSH2 0x1655 JUMP JUMPDEST PUSH1 0x0 DUP3 MLOAD GT ISZERO PUSH2 0x1647 JUMPI DUP1 DUP3 PUSH1 0x40 MLOAD PUSH1 0x20 ADD PUSH2 0x162F SWAP3 SWAP2 SWAP1 PUSH2 0x4224 JUMP JUMPDEST PUSH1 0x40 MLOAD PUSH1 0x20 DUP2 DUP4 SUB SUB DUP2 MSTORE SWAP1 PUSH1 0x40 MSTORE SWAP3 POP POP POP PUSH2 0x1655 JUMP JUMPDEST PUSH2 0x1650 DUP5 PUSH2 0x242C JUMP JUMPDEST SWAP3 POP POP POP JUMPDEST SWAP2 SWAP1 POP JUMP JUMPDEST PUSH2 0x1662 PUSH2 0x2C5A JUMP JUMPDEST PUSH1 0x8 PUSH1 0x40 MLOAD DUP1 PUSH2 0x120 ADD PUSH1 0x40 MSTORE SWAP1 DUP2 PUSH1 0x0 DUP3 ADD PUSH1 0x0 SWAP1 SLOAD SWAP1 PUSH2 0x100 EXP SWAP1 DIV PUSH20 0xFFFFFFFFFFFFFFFFFFFFFFFFFFFFFFFFFFFFFFFF AND PUSH20 0xFFFFFFFFFFFFFFFFFFFFFFFFFFFFFFFFFFFFFFFF AND PUSH20 0xFFFFFFFFFFFFFFFFFFFFFFFFFFFFFFFFFFFFFFFF AND DUP2 MSTORE PUSH1 0x20 ADD PUSH1 0x1 DUP3 ADD DUP1 SLOAD PUSH2 0x16D6 SWAP1 PUSH2 0x3915 JUMP JUMPDEST DUP1 PUSH1 0x1F ADD PUSH1 0x20 DUP1 SWAP2 DIV MUL PUSH1 0x20 ADD PUSH1 0x40 MLOAD SWAP1 DUP2 ADD PUSH1 0x40 MSTORE DUP1 SWAP3 SWAP2 SWAP1 DUP2 DUP2 MSTORE PUSH1 0x20 ADD DUP3 DUP1 SLOAD PUSH2 0x1702 SWAP1 PUSH2 0x3915 JUMP JUMPDEST DUP1 ISZERO PUSH2 0x174F JUMPI DUP1 PUSH1 0x1F LT PUSH2 0x1724 JUMPI PUSH2 0x100 DUP1 DUP4 SLOAD DIV MUL DUP4 MSTORE SWAP2 PUSH1 0x20 ADD SWAP2 PUSH2 0x174F JUMP JUMPDEST DUP3 ADD SWAP2 SWAP1 PUSH1 0x0 MSTORE PUSH1 0x20 PUSH1 0x0 KECCAK256 SWAP1 JUMPDEST DUP2 SLOAD DUP2 MSTORE SWAP1 PUSH1 0x1 ADD SWAP1 PUSH1 0x20 ADD DUP1 DUP4 GT PUSH2 0x1732 JUMPI DUP3 SWAP1 SUB PUSH1 0x1F AND DUP3 ADD SWAP2 JUMPDEST POP POP POP POP POP DUP2 MSTORE PUSH1 0x20 ADD PUSH1 0x2 DUP3 ADD SLOAD DUP2 MSTORE PUSH1 0x20 ADD PUSH1 0x3 DUP3 ADD SLOAD DUP2 MSTORE PUSH1 0x20 ADD PUSH1 0x4 DUP3 ADD SLOAD DUP2 MSTORE PUSH1 0x20 ADD PUSH1 0x5 DUP3 ADD SLOAD DUP2 MSTORE PUSH1 0x20 ADD PUSH1 0x6 DUP3 ADD SLOAD DUP2 MSTORE PUSH1 0x20 ADD PUSH1 0x7 DUP3 ADD SLOAD DUP2 MSTORE PUSH1 0x20 ADD PUSH1 0x8 DUP3 ADD SLOAD DUP2 MSTORE POP POP SWAP1 POP SWAP1 JUMP JUMPDEST PUSH1 0x0 PUSH1 0x5 PUSH1 0x0 DUP5 PUSH20 0xFFFFFFFFFFFFFFFFFFFFFFFFFFFFFFFFFFFFFFFF AND PUSH20 0xFFFFFFFFFFFFFFFFFFFFFFFFFFFFFFFFFFFFFFFF AND DUP2 MSTORE PUSH1 0x20 ADD SWAP1 DUP2 MSTORE PUSH1 0x20 ADD PUSH1 0x0 KECCAK256 PUSH1 0x0 DUP4 PUSH20 0xFFFFFFFFFFFFFFFFFFFFFFFFFFFFFFFFFFFFFFFF AND PUSH20 0xFFFFFFFFFFFFFFFFFFFFFFFFFFFFFFFFFFFFFFFF AND DUP2 MSTORE PUSH1 0x20 ADD SWAP1 DUP2 MSTORE PUSH1 0x20 ADD PUSH1 0x0 KECCAK256 PUSH1 0x0 SWAP1 SLOAD SWAP1 PUSH2 0x100 EXP SWAP1 DIV PUSH1 0xFF AND SWAP1 POP SWAP3 SWAP2 POP POP JUMP JUMPDEST PUSH1 0x0 DUP1 PUSH1 0x8 DUP1 ADD SLOAD GT SWAP1 POP SWAP1 JUMP JUMPDEST PUSH1 0x0 PUSH1 0x17 SLOAD SWAP1 POP SWAP1 JUMP JUMPDEST DUP2 PUSH20 0xFFFFFFFFFFFFFFFFFFFFFFFFFFFFFFFFFFFFFFFF AND PUSH2 0x186F DUP5 PUSH2 0xE02 JUMP JUMPDEST PUSH20 0xFFFFFFFFFFFFFFFFFFFFFFFFFFFFFFFFFFFFFFFF AND EQ PUSH2 0x188F JUMPI PUSH1 0x0 DUP1 REVERT JUMPDEST PUSH1 0x0 PUSH2 0x189A DUP5 PUSH2 0x12B6 JUMP JUMPDEST SWAP1 POP DUP2 DUP2 PUSH1 0x60 ADD MLOAD PUSH1 0x0 ADD DUP2 SWAP1 MSTORE POP POP POP POP POP JUMP JUMPDEST PUSH2 0x18B7 PUSH2 0x1A14 JUMP JUMPDEST PUSH1 0x0 PUSH20 0xFFFFFFFFFFFFFFFFFFFFFFFFFFFFFFFFFFFFFFFF AND DUP2 PUSH20 0xFFFFFFFFFFFFFFFFFFFFFFFFFFFFFFFFFFFFFFFF AND SUB PUSH2 0x1926 JUMPI PUSH1 0x40 MLOAD PUSH32 0x8C379A000000000000000000000000000000000000000000000000000000000 DUP2 MSTORE PUSH1 0x4 ADD PUSH2 0x191D SWAP1 PUSH2 0x42BA JUMP JUMPDEST PUSH1 0x40 MLOAD DUP1 SWAP2 SUB SWAP1 REVERT JUMPDEST PUSH2 0x192F DUP2 PUSH2 0x2187 JUMP JUMPDEST POP JUMP JUMPDEST PUSH1 0x0 PUSH32 0x80AC58CD00000000000000000000000000000000000000000000000000000000 PUSH28 0xFFFFFFFFFFFFFFFFFFFFFFFFFFFFFFFFFFFFFFFFFFFFFFFFFFFFFFFF NOT AND DUP3 PUSH28 0xFFFFFFFFFFFFFFFFFFFFFFFFFFFFFFFFFFFFFFFFFFFFFFFFFFFFFFFF NOT AND EQ DUP1 PUSH2 0x19FD JUMPI POP PUSH32 0x5B5E139F00000000000000000000000000000000000000000000000000000000 PUSH28 0xFFFFFFFFFFFFFFFFFFFFFFFFFFFFFFFFFFFFFFFFFFFFFFFFFFFFFFFF NOT AND DUP3 PUSH28 0xFFFFFFFFFFFFFFFFFFFFFFFFFFFFFFFFFFFFFFFFFFFFFFFFFFFFFFFF NOT AND EQ JUMPDEST DUP1 PUSH2 0x1A0D JUMPI POP PUSH2 0x1A0C DUP3 PUSH2 0x2494 JUMP JUMPDEST JUMPDEST SWAP1 POP SWAP2 SWAP1 POP JUMP JUMPDEST PUSH2 0x1A1C PUSH2 0x1ADD JUMP JUMPDEST PUSH20 0xFFFFFFFFFFFFFFFFFFFFFFFFFFFFFFFFFFFFFFFF AND PUSH2 0x1A3A PUSH2 0x10A0 JUMP JUMPDEST PUSH20 0xFFFFFFFFFFFFFFFFFFFFFFFFFFFFFFFFFFFFFFFF AND EQ PUSH2 0x1A90 JUMPI PUSH1 0x40 MLOAD PUSH32 0x8C379A000000000000000000000000000000000000000000000000000000000 DUP2 MSTORE PUSH1 0x4 ADD PUSH2 0x1A87 SWAP1 PUSH2 0x4326 JUMP JUMPDEST PUSH1 0x40 MLOAD DUP1 SWAP2 SUB SWAP1 REVERT JUMPDEST JUMP JUMPDEST PUSH2 0x1A9B DUP2 PUSH2 0x24FE JUMP JUMPDEST PUSH2 0x1ADA JUMPI PUSH1 0x40 MLOAD PUSH32 0x8C379A000000000000000000000000000000000000000000000000000000000 DUP2 MSTORE PUSH1 0x4 ADD PUSH2 0x1AD1 SWAP1 PUSH2 0x4136 JUMP JUMPDEST PUSH1 0x40 MLOAD DUP1 SWAP2 SUB SWAP1 REVERT JUMPDEST POP JUMP JUMPDEST PUSH1 0x0 CALLER SWAP1 POP SWAP1 JUMP JUMPDEST DUP2 PUSH1 0x4 PUSH1 0x0 DUP4 DUP2 MSTORE PUSH1 0x20 ADD SWAP1 DUP2 MSTORE PUSH1 0x20 ADD PUSH1 0x0 KECCAK256 PUSH1 0x0 PUSH2 0x100 EXP DUP2 SLOAD DUP2 PUSH20 0xFFFFFFFFFFFFFFFFFFFFFFFFFFFFFFFFFFFFFFFF MUL NOT AND SWAP1 DUP4 PUSH20 0xFFFFFFFFFFFFFFFFFFFFFFFFFFFFFFFFFFFFFFFF AND MUL OR SWAP1 SSTORE POP DUP1 DUP3 PUSH20 0xFFFFFFFFFFFFFFFFFFFFFFFFFFFFFFFFFFFFFFFF AND PUSH2 0x1B58 DUP4 PUSH2 0xE02 JUMP JUMPDEST PUSH20 0xFFFFFFFFFFFFFFFFFFFFFFFFFFFFFFFFFFFFFFFF AND PUSH32 0x8C5BE1E5EBEC7D5BD14F71427D1E84F3DD0314C0F7B2291E5B200AC8C7C3B925 PUSH1 0x40 MLOAD PUSH1 0x40 MLOAD DUP1 SWAP2 SUB SWAP1 LOG4 POP POP JUMP JUMPDEST PUSH1 0x0 DUP1 PUSH2 0x1BAA DUP4 PUSH2 0xE02 JUMP JUMPDEST SWAP1 POP DUP1 PUSH20 0xFFFFFFFFFFFFFFFFFFFFFFFFFFFFFFFFFFFFFFFF AND DUP5 PUSH20 0xFFFFFFFFFFFFFFFFFFFFFFFFFFFFFFFFFFFFFFFF AND EQ DUP1 PUSH2 0x1BEC JUMPI POP PUSH2 0x1BEB DUP2 DUP6 PUSH2 0x17A3 JUMP JUMPDEST JUMPDEST DUP1 PUSH2 0x1C2A JUMPI POP DUP4 PUSH20 0xFFFFFFFFFFFFFFFFFFFFFFFFFFFFFFFFFFFFFFFF AND PUSH2 0x1C12 DUP5 PUSH2 0xA5C JUMP JUMPDEST PUSH20 0xFFFFFFFFFFFFFFFFFFFFFFFFFFFFFFFFFFFFFFFF AND EQ JUMPDEST SWAP2 POP POP SWAP3 SWAP2 POP POP JUMP JUMPDEST DUP3 PUSH20 0xFFFFFFFFFFFFFFFFFFFFFFFFFFFFFFFFFFFFFFFF AND PUSH2 0x1C53 DUP3 PUSH2 0xE02 JUMP JUMPDEST PUSH20 0xFFFFFFFFFFFFFFFFFFFFFFFFFFFFFFFFFFFFFFFF AND EQ PUSH2 0x1CA9 JUMPI PUSH1 0x40 MLOAD PUSH32 0x8C379A000000000000000000000000000000000000000000000000000000000 DUP2 MSTORE PUSH1 0x4 ADD PUSH2 0x1CA0 SWAP1 PUSH2 0x43B8 JUMP JUMPDEST PUSH1 0x40 MLOAD DUP1 SWAP2 SUB SWAP1 REVERT JUMPDEST PUSH1 0x0 PUSH20 0xFFFFFFFFFFFFFFFFFFFFFFFFFFFFFFFFFFFFFFFF AND DUP3 PUSH20 0xFFFFFFFFFFFFFFFFFFFFFFFFFFFFFFFFFFFFFFFF AND SUB PUSH2 0x1D18 JUMPI PUSH1 0x40 MLOAD PUSH32 0x8C379A000000000000000000000000000000000000000000000000000000000 DUP2 MSTORE PUSH1 0x4 ADD PUSH2 0x1D0F SWAP1 PUSH2 0x444A JUMP JUMPDEST PUSH1 0x40 MLOAD DUP1 SWAP2 SUB SWAP1 REVERT JUMPDEST PUSH2 0x1D25 DUP4 DUP4 DUP4 PUSH1 0x1 PUSH2 0x253F JUMP JUMPDEST DUP3 PUSH20 0xFFFFFFFFFFFFFFFFFFFFFFFFFFFFFFFFFFFFFFFF AND PUSH2 0x1D45 DUP3 PUSH2 0xE02 JUMP JUMPDEST PUSH20 0xFFFFFFFFFFFFFFFFFFFFFFFFFFFFFFFFFFFFFFFF AND EQ PUSH2 0x1D9B JUMPI PUSH1 0x40 MLOAD PUSH32 0x8C379A000000000000000000000000000000000000000000000000000000000 DUP2 MSTORE PUSH1 0x4 ADD PUSH2 0x1D92 SWAP1 PUSH2 0x43B8 JUMP JUMPDEST PUSH1 0x40 MLOAD DUP1 SWAP2 SUB SWAP1 REVERT JUMPDEST PUSH1 0x4 PUSH1 0x0 DUP3 DUP2 MSTORE PUSH1 0x20 ADD SWAP1 DUP2 MSTORE PUSH1 0x20 ADD PUSH1 0x0 KECCAK256 PUSH1 0x0 PUSH2 0x100 EXP DUP2 SLOAD SWAP1 PUSH20 0xFFFFFFFFFFFFFFFFFFFFFFFFFFFFFFFFFFFFFFFF MUL NOT AND SWAP1 SSTORE PUSH1 0x1 PUSH1 0x3 PUSH1 0x0 DUP6 PUSH20 0xFFFFFFFFFFFFFFFFFFFFFFFFFFFFFFFFFFFFFFFF AND PUSH20 0xFFFFFFFFFFFFFFFFFFFFFFFFFFFFFFFFFFFFFFFF AND DUP2 MSTORE PUSH1 0x20 ADD SWAP1 DUP2 MSTORE PUSH1 0x20 ADD PUSH1 0x0 KECCAK256 PUSH1 0x0 DUP3 DUP3 SLOAD SUB SWAP3 POP POP DUP2 SWAP1 SSTORE POP PUSH1 0x1 PUSH1 0x3 PUSH1 0x0 DUP5 PUSH20 0xFFFFFFFFFFFFFFFFFFFFFFFFFFFFFFFFFFFFFFFF AND PUSH20 0xFFFFFFFFFFFFFFFFFFFFFFFFFFFFFFFFFFFFFFFF AND DUP2 MSTORE PUSH1 0x20 ADD SWAP1 DUP2 MSTORE PUSH1 0x20 ADD PUSH1 0x0 KECCAK256 PUSH1 0x0 DUP3 DUP3 SLOAD ADD SWAP3 POP POP DUP2 SWAP1 SSTORE POP DUP2 PUSH1 0x2 PUSH1 0x0 DUP4 DUP2 MSTORE PUSH1 0x20 ADD SWAP1 DUP2 MSTORE PUSH1 0x20 ADD PUSH1 0x0 KECCAK256 PUSH1 0x0 PUSH2 0x100 EXP DUP2 SLOAD DUP2 PUSH20 0xFFFFFFFFFFFFFFFFFFFFFFFFFFFFFFFFFFFFFFFF MUL NOT AND SWAP1 DUP4 PUSH20 0xFFFFFFFFFFFFFFFFFFFFFFFFFFFFFFFFFFFFFFFF AND MUL OR SWAP1 SSTORE POP DUP1 DUP3 PUSH20 0xFFFFFFFFFFFFFFFFFFFFFFFFFFFFFFFFFFFFFFFF AND DUP5 PUSH20 0xFFFFFFFFFFFFFFFFFFFFFFFFFFFFFFFFFFFFFFFF AND PUSH32 0xDDF252AD1BE2C89B69C2B068FC378DAA952BA7F163C4A11628F55A4DF523B3EF PUSH1 0x40 MLOAD PUSH1 0x40 MLOAD DUP1 SWAP2 SUB SWAP1 LOG4 PUSH2 0x1F27 DUP4 DUP4 DUP4 PUSH1 0x1 PUSH2 0x2545 JUMP JUMPDEST POP POP POP JUMP JUMPDEST PUSH2 0x1F46 DUP3 DUP3 PUSH1 0x40 MLOAD DUP1 PUSH1 0x20 ADD PUSH1 0x40 MSTORE DUP1 PUSH1 0x0 DUP2 MSTORE POP PUSH2 0x254B JUMP JUMPDEST POP POP JUMP JUMPDEST PUSH1 0x40 MLOAD DUP1 PUSH1 0xA0 ADD PUSH1 0x40 MSTORE DUP1 DUP5 DUP2 MSTORE PUSH1 0x20 ADD TIMESTAMP DUP2 MSTORE PUSH1 0x20 ADD DUP4 DUP2 MSTORE PUSH1 0x20 ADD PUSH2 0x1F70 DUP6 PUSH2 0x25A6 JUMP JUMPDEST DUP2 MSTORE PUSH1 0x20 ADD DUP3 PUSH20 0xFFFFFFFFFFFFFFFFFFFFFFFFFFFFFFFFFFFFFFFF AND DUP2 MSTORE POP PUSH1 0x11 PUSH1 0x0 DUP6 DUP2 MSTORE PUSH1 0x20 ADD SWAP1 DUP2 MSTORE PUSH1 0x20 ADD PUSH1 0x0 KECCAK256 PUSH1 0x0 DUP3 ADD MLOAD DUP2 PUSH1 0x0 ADD SSTORE PUSH1 0x20 DUP3 ADD MLOAD DUP2 PUSH1 0x1 ADD SSTORE PUSH1 0x40 DUP3 ADD MLOAD DUP2 PUSH1 0x2 ADD SSTORE PUSH1 0x60 DUP3 ADD MLOAD DUP2 PUSH1 0x3 ADD PUSH1 0x0 DUP3 ADD MLOAD DUP2 PUSH1 0x0 ADD SWAP1 DUP2 PUSH2 0x1FDE SWAP2 SWAP1 PUSH2 0x3AE8 JUMP JUMPDEST POP PUSH1 0x20 DUP3 ADD MLOAD DUP2 PUSH1 0x1 ADD SWAP1 DUP2 PUSH2 0x1FF4 SWAP2 SWAP1 PUSH2 0x3AE8 JUMP JUMPDEST POP PUSH1 0x40 DUP3 ADD MLOAD DUP2 PUSH1 0x2 ADD PUSH1 0x0 PUSH2 0x100 EXP DUP2 SLOAD DUP2 PUSH1 0xFF MUL NOT AND SWAP1 DUP4 PUSH1 0xFF AND MUL OR SWAP1 SSTORE POP PUSH1 0x60 DUP3 ADD MLOAD DUP2 PUSH1 0x2 ADD PUSH1 0x1 PUSH2 0x100 EXP DUP2 SLOAD DUP2 PUSH1 0xFF MUL NOT AND SWAP1 DUP4 PUSH1 0xFF AND MUL OR SWAP1 SSTORE POP PUSH1 0x80 DUP3 ADD MLOAD DUP2 PUSH1 0x2 ADD PUSH1 0x2 PUSH2 0x100 EXP DUP2 SLOAD DUP2 PUSH1 0xFF MUL NOT AND SWAP1 DUP4 PUSH1 0xFF AND MUL OR SWAP1 SSTORE POP POP POP PUSH1 0x80 DUP3 ADD MLOAD DUP2 PUSH1 0x6 ADD PUSH1 0x0 PUSH2 0x100 EXP DUP2 SLOAD DUP2 PUSH20 0xFFFFFFFFFFFFFFFFFFFFFFFFFFFFFFFFFFFFFFFF MUL NOT AND SWAP1 DUP4 PUSH20 0xFFFFFFFFFFFFFFFFFFFFFFFFFFFFFFFFFFFFFFFF AND MUL OR SWAP1 SSTORE POP SWAP1 POP POP PUSH1 0x12 PUSH1 0x0 DUP3 PUSH20 0xFFFFFFFFFFFFFFFFFFFFFFFFFFFFFFFFFFFFFFFF AND PUSH20 0xFFFFFFFFFFFFFFFFFFFFFFFFFFFFFFFFFFFFFFFF AND DUP2 MSTORE PUSH1 0x20 ADD SWAP1 DUP2 MSTORE PUSH1 0x20 ADD PUSH1 0x0 KECCAK256 DUP4 SWAP1 DUP1 PUSH1 0x1 DUP2 SLOAD ADD DUP1 DUP3 SSTORE DUP1 SWAP2 POP POP PUSH1 0x1 SWAP1 SUB SWAP1 PUSH1 0x0 MSTORE PUSH1 0x20 PUSH1 0x0 KECCAK256 ADD PUSH1 0x0 SWAP1 SWAP2 SWAP1 SWAP2 SWAP1 SWAP2 POP SSTORE PUSH32 0x42E22845CDFEE2DA8F8E56B8D8F9807A12FD6906D54B388FE7EC9D2329E70B3E DUP4 DUP3 DUP5 PUSH1 0x40 MLOAD PUSH2 0x213D SWAP4 SWAP3 SWAP2 SWAP1 PUSH2 0x446A JUMP JUMPDEST PUSH1 0x40 MLOAD DUP1 SWAP2 SUB SWAP1 LOG1 POP POP POP JUMP JUMPDEST PUSH1 0x0 PUSH1 0x2 PUSH1 0x0 DUP4 DUP2 MSTORE PUSH1 0x20 ADD SWAP1 DUP2 MSTORE PUSH1 0x20 ADD PUSH1 0x0 KECCAK256 PUSH1 0x0 SWAP1 SLOAD SWAP1 PUSH2 0x100 EXP SWAP1 DIV PUSH20 0xFFFFFFFFFFFFFFFFFFFFFFFFFFFFFFFFFFFFFFFF AND SWAP1 POP SWAP2 SWAP1 POP JUMP JUMPDEST PUSH1 0x0 PUSH1 0x7 PUSH1 0x0 SWAP1 SLOAD SWAP1 PUSH2 0x100 EXP SWAP1 DIV PUSH20 0xFFFFFFFFFFFFFFFFFFFFFFFFFFFFFFFFFFFFFFFF AND SWAP1 POP DUP2 PUSH1 0x7 PUSH1 0x0 PUSH2 0x100 EXP DUP2 SLOAD DUP2 PUSH20 0xFFFFFFFFFFFFFFFFFFFFFFFFFFFFFFFFFFFFFFFF MUL NOT AND SWAP1 DUP4 PUSH20 0xFFFFFFFFFFFFFFFFFFFFFFFFFFFFFFFFFFFFFFFF AND MUL OR SWAP1 SSTORE POP DUP2 PUSH20 0xFFFFFFFFFFFFFFFFFFFFFFFFFFFFFFFFFFFFFFFF AND DUP2 PUSH20 0xFFFFFFFFFFFFFFFFFFFFFFFFFFFFFFFFFFFFFFFF AND PUSH32 0x8BE0079C531659141344CD1FD0A4F28419497F9722A3DAAFE3B4186F6B6457E0 PUSH1 0x40 MLOAD PUSH1 0x40 MLOAD DUP1 SWAP2 SUB SWAP1 LOG3 POP POP JUMP JUMPDEST DUP2 PUSH20 0xFFFFFFFFFFFFFFFFFFFFFFFFFFFFFFFFFFFFFFFF AND DUP4 PUSH20 0xFFFFFFFFFFFFFFFFFFFFFFFFFFFFFFFFFFFFFFFF AND SUB PUSH2 0x22BB JUMPI PUSH1 0x40 MLOAD PUSH32 0x8C379A000000000000000000000000000000000000000000000000000000000 DUP2 MSTORE PUSH1 0x4 ADD PUSH2 0x22B2 SWAP1 PUSH2 0x44ED JUMP JUMPDEST PUSH1 0x40 MLOAD DUP1 SWAP2 SUB SWAP1 REVERT JUMPDEST DUP1 PUSH1 0x5 PUSH1 0x0 DUP6 PUSH20 0xFFFFFFFFFFFFFFFFFFFFFFFFFFFFFFFFFFFFFFFF AND PUSH20 0xFFFFFFFFFFFFFFFFFFFFFFFFFFFFFFFFFFFFFFFF AND DUP2 MSTORE PUSH1 0x20 ADD SWAP1 DUP2 MSTORE PUSH1 0x20 ADD PUSH1 0x0 KECCAK256 PUSH1 0x0 DUP5 PUSH20 0xFFFFFFFFFFFFFFFFFFFFFFFFFFFFFFFFFFFFFFFF AND PUSH20 0xFFFFFFFFFFFFFFFFFFFFFFFFFFFFFFFFFFFFFFFF AND DUP2 MSTORE PUSH1 0x20 ADD SWAP1 DUP2 MSTORE PUSH1 0x20 ADD PUSH1 0x0 KECCAK256 PUSH1 0x0 PUSH2 0x100 EXP DUP2 SLOAD DUP2 PUSH1 0xFF MUL NOT AND SWAP1 DUP4 ISZERO ISZERO MUL OR SWAP1 SSTORE POP DUP2 PUSH20 0xFFFFFFFFFFFFFFFFFFFFFFFFFFFFFFFFFFFFFFFF AND DUP4 PUSH20 0xFFFFFFFFFFFFFFFFFFFFFFFFFFFFFFFFFFFFFFFF AND PUSH32 0x17307EAB39AB6107E8899845AD3D59BD9653F200F220920489CA2B5937696C31 DUP4 PUSH1 0x40 MLOAD PUSH2 0x23AC SWAP2 SWAP1 PUSH2 0x2DA8 JUMP JUMPDEST PUSH1 0x40 MLOAD DUP1 SWAP2 SUB SWAP1 LOG3 POP POP POP JUMP JUMPDEST PUSH2 0x23C4 DUP5 DUP5 DUP5 PUSH2 0x1C33 JUMP JUMPDEST PUSH2 0x23D0 DUP5 DUP5 DUP5 DUP5 PUSH2 0x2627 JUMP JUMPDEST PUSH2 0x240F JUMPI PUSH1 0x40 MLOAD PUSH32 0x8C379A000000000000000000000000000000000000000000000000000000000 DUP2 MSTORE PUSH1 0x4 ADD PUSH2 0x2406 SWAP1 PUSH2 0x457F JUMP JUMPDEST PUSH1 0x40 MLOAD DUP1 SWAP2 SUB SWAP1 REVERT JUMPDEST POP POP POP POP JUMP JUMPDEST PUSH1 0x60 PUSH1 0x40 MLOAD DUP1 PUSH1 0x20 ADD PUSH1 0x40 MSTORE DUP1 PUSH1 0x0 DUP2 MSTORE POP SWAP1 POP SWAP1 JUMP JUMPDEST PUSH1 0x60 PUSH2 0x2437 DUP3 PUSH2 0x1A92 JUMP JUMPDEST PUSH1 0x0 PUSH2 0x2441 PUSH2 0x2415 JUMP JUMPDEST SWAP1 POP PUSH1 0x0 DUP2 MLOAD GT PUSH2 0x2461 JUMPI PUSH1 0x40 MLOAD DUP1 PUSH1 0x20 ADD PUSH1 0x40 MSTORE DUP1 PUSH1 0x0 DUP2 MSTORE POP PUSH2 0x248C JUMP JUMPDEST DUP1 PUSH2 0x246B DUP5 PUSH2 0x27AE JUMP JUMPDEST PUSH1 0x40 MLOAD PUSH1 0x20 ADD PUSH2 0x247C SWAP3 SWAP2 SWAP1 PUSH2 0x4224 JUMP JUMPDEST PUSH1 0x40 MLOAD PUSH1 0x20 DUP2 DUP4 SUB SUB DUP2 MSTORE SWAP1 PUSH1 0x40 MSTORE JUMPDEST SWAP2 POP POP SWAP2 SWAP1 POP JUMP JUMPDEST PUSH1 0x0 PUSH32 0x1FFC9A700000000000000000000000000000000000000000000000000000000 PUSH28 0xFFFFFFFFFFFFFFFFFFFFFFFFFFFFFFFFFFFFFFFFFFFFFFFFFFFFFFFF NOT AND DUP3 PUSH28 0xFFFFFFFFFFFFFFFFFFFFFFFFFFFFFFFFFFFFFFFFFFFFFFFFFFFFFFFF NOT AND EQ SWAP1 POP SWAP2 SWAP1 POP JUMP JUMPDEST PUSH1 0x0 DUP1 PUSH20 0xFFFFFFFFFFFFFFFFFFFFFFFFFFFFFFFFFFFFFFFF AND PUSH2 0x2520 DUP4 PUSH2 0x214A JUMP JUMPDEST PUSH20 0xFFFFFFFFFFFFFFFFFFFFFFFFFFFFFFFFFFFFFFFF AND EQ ISZERO SWAP1 POP SWAP2 SWAP1 POP JUMP JUMPDEST POP POP POP POP JUMP JUMPDEST POP POP POP POP JUMP JUMPDEST PUSH2 0x2555 DUP4 DUP4 PUSH2 0x287C JUMP JUMPDEST PUSH2 0x2562 PUSH1 0x0 DUP5 DUP5 DUP5 PUSH2 0x2627 JUMP JUMPDEST PUSH2 0x25A1 JUMPI PUSH1 0x40 MLOAD PUSH32 0x8C379A000000000000000000000000000000000000000000000000000000000 DUP2 MSTORE PUSH1 0x4 ADD PUSH2 0x2598 SWAP1 PUSH2 0x457F JUMP JUMPDEST PUSH1 0x40 MLOAD DUP1 SWAP2 SUB SWAP1 REVERT JUMPDEST POP POP POP JUMP JUMPDEST PUSH2 0x25AE PUSH2 0x2CBC JUMP JUMPDEST PUSH1 0x40 MLOAD DUP1 PUSH1 0xA0 ADD PUSH1 0x40 MSTORE DUP1 PUSH1 0x40 MLOAD DUP1 PUSH1 0x20 ADD PUSH1 0x40 MSTORE DUP1 PUSH1 0x0 DUP2 MSTORE POP DUP2 MSTORE PUSH1 0x20 ADD PUSH2 0x25D6 PUSH2 0x1224 JUMP JUMPDEST PUSH2 0x25DF DUP6 PUSH2 0x27AE JUMP JUMPDEST PUSH1 0x40 MLOAD PUSH1 0x20 ADD PUSH2 0x25F0 SWAP3 SWAP2 SWAP1 PUSH2 0x4224 JUMP JUMPDEST PUSH1 0x40 MLOAD PUSH1 0x20 DUP2 DUP4 SUB SUB DUP2 MSTORE SWAP1 PUSH1 0x40 MSTORE DUP2 MSTORE PUSH1 0x20 ADD PUSH1 0xA PUSH1 0xFF AND DUP2 MSTORE PUSH1 0x20 ADD PUSH1 0xA PUSH1 0xFF AND DUP2 MSTORE PUSH1 0x20 ADD PUSH1 0x0 PUSH1 0xFF AND DUP2 MSTORE POP SWAP1 POP SWAP2 SWAP1 POP JUMP JUMPDEST PUSH1 0x0 PUSH2 0x2648 DUP5 PUSH20 0xFFFFFFFFFFFFFFFFFFFFFFFFFFFFFFFFFFFFFFFF AND PUSH2 0x2A99 JUMP JUMPDEST ISZERO PUSH2 0x27A1 JUMPI DUP4 PUSH20 0xFFFFFFFFFFFFFFFFFFFFFFFFFFFFFFFFFFFFFFFF AND PUSH4 0x150B7A02 PUSH2 0x2671 PUSH2 0x1ADD JUMP JUMPDEST DUP8 DUP7 DUP7 PUSH1 0x40 MLOAD DUP6 PUSH4 0xFFFFFFFF AND PUSH1 0xE0 SHL DUP2 MSTORE PUSH1 0x4 ADD PUSH2 0x2693 SWAP5 SWAP4 SWAP3 SWAP2 SWAP1 PUSH2 0x45F4 JUMP JUMPDEST PUSH1 0x20 PUSH1 0x40 MLOAD DUP1 DUP4 SUB DUP2 PUSH1 0x0 DUP8 GAS CALL SWAP3 POP POP POP DUP1 ISZERO PUSH2 0x26CF JUMPI POP PUSH1 0x40 MLOAD RETURNDATASIZE PUSH1 0x1F NOT PUSH1 0x1F DUP3 ADD AND DUP3 ADD DUP1 PUSH1 0x40 MSTORE POP DUP2 ADD SWAP1 PUSH2 0x26CC SWAP2 SWAP1 PUSH2 0x4655 JUMP JUMPDEST PUSH1 0x1 JUMPDEST PUSH2 0x2751 JUMPI RETURNDATASIZE DUP1 PUSH1 0x0 DUP2 EQ PUSH2 0x26FF JUMPI PUSH1 0x40 MLOAD SWAP2 POP PUSH1 0x1F NOT PUSH1 0x3F RETURNDATASIZE ADD AND DUP3 ADD PUSH1 0x40 MSTORE RETURNDATASIZE DUP3 MSTORE RETURNDATASIZE PUSH1 0x0 PUSH1 0x20 DUP5 ADD RETURNDATACOPY PUSH2 0x2704 JUMP JUMPDEST PUSH1 0x60 SWAP2 POP JUMPDEST POP PUSH1 0x0 DUP2 MLOAD SUB PUSH2 0x2749 JUMPI PUSH1 0x40 MLOAD PUSH32 0x8C379A000000000000000000000000000000000000000000000000000000000 DUP2 MSTORE PUSH1 0x4 ADD PUSH2 0x2740 SWAP1 PUSH2 0x457F JUMP JUMPDEST PUSH1 0x40 MLOAD DUP1 SWAP2 SUB SWAP1 REVERT JUMPDEST DUP1 MLOAD DUP2 PUSH1 0x20 ADD REVERT JUMPDEST PUSH4 0x150B7A02 PUSH1 0xE0 SHL PUSH28 0xFFFFFFFFFFFFFFFFFFFFFFFFFFFFFFFFFFFFFFFFFFFFFFFFFFFFFFFF NOT AND DUP2 PUSH28 0xFFFFFFFFFFFFFFFFFFFFFFFFFFFFFFFFFFFFFFFFFFFFFFFFFFFFFFFF NOT AND EQ SWAP2 POP POP PUSH2 0x27A6 JUMP JUMPDEST PUSH1 0x1 SWAP1 POP JUMPDEST SWAP5 SWAP4 POP POP POP POP JUMP JUMPDEST PUSH1 0x60 PUSH1 0x0 PUSH1 0x1 PUSH2 0x27BD DUP5 PUSH2 0x2ABC JUMP JUMPDEST ADD SWAP1 POP PUSH1 0x0 DUP2 PUSH8 0xFFFFFFFFFFFFFFFF DUP2 GT ISZERO PUSH2 0x27DC JUMPI PUSH2 0x27DB PUSH2 0x2F7A JUMP JUMPDEST JUMPDEST PUSH1 0x40 MLOAD SWAP1 DUP1 DUP3 MSTORE DUP1 PUSH1 0x1F ADD PUSH1 0x1F NOT AND PUSH1 0x20 ADD DUP3 ADD PUSH1 0x40 MSTORE DUP1 ISZERO PUSH2 0x280E JUMPI DUP2 PUSH1 0x20 ADD PUSH1 0x1 DUP3 MUL DUP1 CALLDATASIZE DUP4 CALLDATACOPY DUP1 DUP3 ADD SWAP2 POP POP SWAP1 POP JUMPDEST POP SWAP1 POP PUSH1 0x0 DUP3 PUSH1 0x20 ADD DUP3 ADD SWAP1 POP JUMPDEST PUSH1 0x1 ISZERO PUSH2 0x2871 JUMPI DUP1 DUP1 PUSH1 0x1 SWAP1 SUB SWAP2 POP POP PUSH32 0x3031323334353637383961626364656600000000000000000000000000000000 PUSH1 0xA DUP7 MOD BYTE DUP2 MSTORE8 PUSH1 0xA DUP6 DUP2 PUSH2 0x2865 JUMPI PUSH2 0x2864 PUSH2 0x3ECD JUMP JUMPDEST JUMPDEST DIV SWAP5 POP PUSH1 0x0 DUP6 SUB PUSH2 0x281C JUMPI JUMPDEST DUP2 SWAP4 POP POP POP POP SWAP2 SWAP1 POP JUMP JUMPDEST PUSH1 0x0 PUSH20 0xFFFFFFFFFFFFFFFFFFFFFFFFFFFFFFFFFFFFFFFF AND DUP3 PUSH20 0xFFFFFFFFFFFFFFFFFFFFFFFFFFFFFFFFFFFFFFFF AND SUB PUSH2 0x28EB JUMPI PUSH1 0x40 MLOAD PUSH32 0x8C379A000000000000000000000000000000000000000000000000000000000 DUP2 MSTORE PUSH1 0x4 ADD PUSH2 0x28E2 SWAP1 PUSH2 0x46CE JUMP JUMPDEST PUSH1 0x40 MLOAD DUP1 SWAP2 SUB SWAP1 REVERT JUMPDEST PUSH2 0x28F4 DUP2 PUSH2 0x24FE JUMP JUMPDEST ISZERO PUSH2 0x2934 JUMPI PUSH1 0x40 MLOAD PUSH32 0x8C379A000000000000000000000000000000000000000000000000000000000 DUP2 MSTORE PUSH1 0x4 ADD PUSH2 0x292B SWAP1 PUSH2 0x473A JUMP JUMPDEST PUSH1 0x40 MLOAD DUP1 SWAP2 SUB SWAP1 REVERT JUMPDEST PUSH2 0x2942 PUSH1 0x0 DUP4 DUP4 PUSH1 0x1 PUSH2 0x253F JUMP JUMPDEST PUSH2 0x294B DUP2 PUSH2 0x24FE JUMP JUMPDEST ISZERO PUSH2 0x298B JUMPI PUSH1 0x40 MLOAD PUSH32 0x8C379A000000000000000000000000000000000000000000000000000000000 DUP2 MSTORE PUSH1 0x4 ADD PUSH2 0x2982 SWAP1 PUSH2 0x473A JUMP JUMPDEST PUSH1 0x40 MLOAD DUP1 SWAP2 SUB SWAP1 REVERT JUMPDEST PUSH1 0x1 PUSH1 0x3 PUSH1 0x0 DUP5 PUSH20 0xFFFFFFFFFFFFFFFFFFFFFFFFFFFFFFFFFFFFFFFF AND PUSH20 0xFFFFFFFFFFFFFFFFFFFFFFFFFFFFFFFFFFFFFFFF AND DUP2 MSTORE PUSH1 0x20 ADD SWAP1 DUP2 MSTORE PUSH1 0x20 ADD PUSH1 0x0 KECCAK256 PUSH1 0x0 DUP3 DUP3 SLOAD ADD SWAP3 POP POP DUP2 SWAP1 SSTORE POP DUP2 PUSH1 0x2 PUSH1 0x0 DUP4 DUP2 MSTORE PUSH1 0x20 ADD SWAP1 DUP2 MSTORE PUSH1 0x20 ADD PUSH1 0x0 KECCAK256 PUSH1 0x0 PUSH2 0x100 EXP DUP2 SLOAD DUP2 PUSH20 0xFFFFFFFFFFFFFFFFFFFFFFFFFFFFFFFFFFFFFFFF MUL NOT AND SWAP1 DUP4 PUSH20 0xFFFFFFFFFFFFFFFFFFFFFFFFFFFFFFFFFFFFFFFF AND MUL OR SWAP1 SSTORE POP DUP1 DUP3 PUSH20 0xFFFFFFFFFFFFFFFFFFFFFFFFFFFFFFFFFFFFFFFF AND PUSH1 0x0 PUSH20 0xFFFFFFFFFFFFFFFFFFFFFFFFFFFFFFFFFFFFFFFF AND PUSH32 0xDDF252AD1BE2C89B69C2B068FC378DAA952BA7F163C4A11628F55A4DF523B3EF PUSH1 0x40 MLOAD PUSH1 0x40 MLOAD DUP1 SWAP2 SUB SWAP1 LOG4 PUSH2 0x2A95 PUSH1 0x0 DUP4 DUP4 PUSH1 0x1 PUSH2 0x2545 JUMP JUMPDEST POP POP JUMP JUMPDEST PUSH1 0x0 DUP1 DUP3 PUSH20 0xFFFFFFFFFFFFFFFFFFFFFFFFFFFFFFFFFFFFFFFF AND EXTCODESIZE GT SWAP1 POP SWAP2 SWAP1 POP JUMP JUMPDEST PUSH1 0x0 DUP1 PUSH1 0x0 SWAP1 POP PUSH27 0x184F03E93FF9F4DAA797ED6E38ED64BF6A1F010000000000000000 DUP4 LT PUSH2 0x2B1A JUMPI PUSH27 0x184F03E93FF9F4DAA797ED6E38ED64BF6A1F010000000000000000 DUP4 DUP2 PUSH2 0x2B10 JUMPI PUSH2 0x2B0F PUSH2 0x3ECD JUMP JUMPDEST JUMPDEST DIV SWAP3 POP PUSH1 0x40 DUP2 ADD SWAP1 POP JUMPDEST PUSH14 0x4EE2D6D415B85ACEF8100000000 DUP4 LT PUSH2 0x2B57 JUMPI PUSH14 0x4EE2D6D415B85ACEF8100000000 DUP4 DUP2 PUSH2 0x2B4D JUMPI PUSH2 0x2B4C PUSH2 0x3ECD JUMP JUMPDEST JUMPDEST DIV SWAP3 POP PUSH1 0x20 DUP2 ADD SWAP1 POP JUMPDEST PUSH7 0x2386F26FC10000 DUP4 LT PUSH2 0x2B86 JUMPI PUSH7 0x2386F26FC10000 DUP4 DUP2 PUSH2 0x2B7C JUMPI PUSH2 0x2B7B PUSH2 0x3ECD JUMP JUMPDEST JUMPDEST DIV SWAP3 POP PUSH1 0x10 DUP2 ADD SWAP1 POP JUMPDEST PUSH4 0x5F5E100 DUP4 LT PUSH2 0x2BAF JUMPI PUSH4 0x5F5E100 DUP4 DUP2 PUSH2 0x2BA5 JUMPI PUSH2 0x2BA4 PUSH2 0x3ECD JUMP JUMPDEST JUMPDEST DIV SWAP3 POP PUSH1 0x8 DUP2 ADD SWAP1 POP JUMPDEST PUSH2 0x2710 DUP4 LT PUSH2 0x2BD4 JUMPI PUSH2 0x2710 DUP4 DUP2 PUSH2 0x2BCA JUMPI PUSH2 0x2BC9 PUSH2 0x3ECD JUMP JUMPDEST JUMPDEST DIV SWAP3 POP PUSH1 0x4 DUP2 ADD SWAP1 POP JUMPDEST PUSH1 0x64 DUP4 LT PUSH2 0x2BF7 JUMPI PUSH1 0x64 DUP4 DUP2 PUSH2 0x2BED JUMPI PUSH2 0x2BEC PUSH2 0x3ECD JUMP JUMPDEST JUMPDEST DIV SWAP3 POP PUSH1 0x2 DUP2 ADD SWAP1 POP JUMPDEST PUSH1 0xA DUP4 LT PUSH2 0x2C06 JUMPI PUSH1 0x1 DUP2 ADD SWAP1 POP JUMPDEST DUP1 SWAP2 POP POP SWAP2 SWAP1 POP JUMP JUMPDEST PUSH1 0x40 MLOAD DUP1 PUSH1 0xA0 ADD PUSH1 0x40 MSTORE DUP1 PUSH1 0x0 DUP2 MSTORE PUSH1 0x20 ADD PUSH1 0x0 DUP2 MSTORE PUSH1 0x20 ADD PUSH1 0x0 DUP2 MSTORE PUSH1 0x20 ADD PUSH2 0x2C37 PUSH2 0x2CBC JUMP JUMPDEST DUP2 MSTORE PUSH1 0x20 ADD PUSH1 0x0 PUSH20 0xFFFFFFFFFFFFFFFFFFFFFFFFFFFFFFFFFFFFFFFF AND DUP2 MSTORE POP SWAP1 JUMP JUMPDEST PUSH1 0x40 MLOAD DUP1 PUSH2 0x120 ADD PUSH1 0x40 MSTORE DUP1 PUSH1 0x0 PUSH20 0xFFFFFFFFFFFFFFFFFFFFFFFFFFFFFFFFFFFFFFFF AND DUP2 MSTORE PUSH1 0x20 ADD PUSH1 0x60 DUP2 MSTORE PUSH1 0x20 ADD PUSH1 0x0 DUP2 MSTORE PUSH1 0x20 ADD PUSH1 0x0 DUP2 MSTORE PUSH1 0x20 ADD PUSH1 0x0 DUP2 MSTORE PUSH1 0x20 ADD PUSH1 0x0 DUP2 MSTORE PUSH1 0x20 ADD PUSH1 0x0 DUP2 MSTORE PUSH1 0x20 ADD PUSH1 0x0 DUP2 MSTORE PUSH1 0x20 ADD PUSH1 0x0 DUP2 MSTORE POP SWAP1 JUMP JUMPDEST PUSH1 0x40 MLOAD DUP1 PUSH1 0xA0 ADD PUSH1 0x40 MSTORE DUP1 PUSH1 0x60 DUP2 MSTORE PUSH1 0x20 ADD PUSH1 0x60 DUP2 MSTORE PUSH1 0x20 ADD PUSH1 0x0 PUSH1 0xFF AND DUP2 MSTORE PUSH1 0x20 ADD PUSH1 0x0 PUSH1 0xFF AND DUP2 MSTORE PUSH1 0x20 ADD PUSH1 0x0 PUSH1 0xFF AND DUP2 MSTORE POP SWAP1 JUMP JUMPDEST PUSH1 0x0 PUSH1 0x40 MLOAD SWAP1 POP SWAP1 JUMP JUMPDEST PUSH1 0x0 DUP1 REVERT JUMPDEST PUSH1 0x0 DUP1 REVERT JUMPDEST PUSH1 0x0 PUSH32 0xFFFFFFFF00000000000000000000000000000000000000000000000000000000 DUP3 AND SWAP1 POP SWAP2 SWAP1 POP JUMP JUMPDEST PUSH2 0x2D3D DUP2 PUSH2 0x2D08 JUMP JUMPDEST DUP2 EQ PUSH2 0x2D48 JUMPI PUSH1 0x0 DUP1 REVERT JUMPDEST POP JUMP JUMPDEST PUSH1 0x0 DUP2 CALLDATALOAD SWAP1 POP PUSH2 0x2D5A DUP2 PUSH2 0x2D34 JUMP JUMPDEST SWAP3 SWAP2 POP POP JUMP JUMPDEST PUSH1 0x0 PUSH1 0x20 DUP3 DUP5 SUB SLT ISZERO PUSH2 0x2D76 JUMPI PUSH2 0x2D75 PUSH2 0x2CFE JUMP JUMPDEST JUMPDEST PUSH1 0x0 PUSH2 0x2D84 DUP5 DUP3 DUP6 ADD PUSH2 0x2D4B JUMP JUMPDEST SWAP2 POP POP SWAP3 SWAP2 POP POP JUMP JUMPDEST PUSH1 0x0 DUP2 ISZERO ISZERO SWAP1 POP SWAP2 SWAP1 POP JUMP JUMPDEST PUSH2 0x2DA2 DUP2 PUSH2 0x2D8D JUMP JUMPDEST DUP3 MSTORE POP POP JUMP JUMPDEST PUSH1 0x0 PUSH1 0x20 DUP3 ADD SWAP1 POP PUSH2 0x2DBD PUSH1 0x0 DUP4 ADD DUP5 PUSH2 0x2D99 JUMP JUMPDEST SWAP3 SWAP2 POP POP JUMP JUMPDEST PUSH1 0x0 PUSH20 0xFFFFFFFFFFFFFFFFFFFFFFFFFFFFFFFFFFFFFFFF DUP3 AND SWAP1 POP SWAP2 SWAP1 POP JUMP JUMPDEST PUSH1 0x0 PUSH2 0x2DEE DUP3 PUSH2 0x2DC3 JUMP JUMPDEST SWAP1 POP SWAP2 SWAP1 POP JUMP JUMPDEST PUSH2 0x2DFE DUP2 PUSH2 0x2DE3 JUMP JUMPDEST DUP2 EQ PUSH2 0x2E09 JUMPI PUSH1 0x0 DUP1 REVERT JUMPDEST POP JUMP JUMPDEST PUSH1 0x0 DUP2 CALLDATALOAD SWAP1 POP PUSH2 0x2E1B DUP2 PUSH2 0x2DF5 JUMP JUMPDEST SWAP3 SWAP2 POP POP JUMP JUMPDEST PUSH1 0x0 DUP2 SWAP1 POP SWAP2 SWAP1 POP JUMP JUMPDEST PUSH2 0x2E34 DUP2 PUSH2 0x2E21 JUMP JUMPDEST DUP2 EQ PUSH2 0x2E3F JUMPI PUSH1 0x0 DUP1 REVERT JUMPDEST POP JUMP JUMPDEST PUSH1 0x0 DUP2 CALLDATALOAD SWAP1 POP PUSH2 0x2E51 DUP2 PUSH2 0x2E2B JUMP JUMPDEST SWAP3 SWAP2 POP POP JUMP JUMPDEST PUSH1 0x0 DUP1 PUSH1 0x0 DUP1 PUSH1 0x80 DUP6 DUP8 SUB SLT ISZERO PUSH2 0x2E71 JUMPI PUSH2 0x2E70 PUSH2 0x2CFE JUMP JUMPDEST JUMPDEST PUSH1 0x0 PUSH2 0x2E7F DUP8 DUP3 DUP9 ADD PUSH2 0x2E0C JUMP JUMPDEST SWAP5 POP POP PUSH1 0x20 PUSH2 0x2E90 DUP8 DUP3 DUP9 ADD PUSH2 0x2E0C JUMP JUMPDEST SWAP4 POP POP PUSH1 0x40 PUSH2 0x2EA1 DUP8 DUP3 DUP9 ADD PUSH2 0x2E42 JUMP JUMPDEST SWAP3 POP POP PUSH1 0x60 PUSH2 0x2EB2 DUP8 DUP3 DUP9 ADD PUSH2 0x2E42 JUMP JUMPDEST SWAP2 POP POP SWAP3 SWAP6 SWAP2 SWAP5 POP SWAP3 POP JUMP JUMPDEST PUSH1 0x0 DUP2 MLOAD SWAP1 POP SWAP2 SWAP1 POP JUMP JUMPDEST PUSH1 0x0 DUP3 DUP3 MSTORE PUSH1 0x20 DUP3 ADD SWAP1 POP SWAP3 SWAP2 POP POP JUMP JUMPDEST PUSH1 0x0 JUMPDEST DUP4 DUP2 LT ISZERO PUSH2 0x2EF8 JUMPI DUP1 DUP3 ADD MLOAD DUP2 DUP5 ADD MSTORE PUSH1 0x20 DUP2 ADD SWAP1 POP PUSH2 0x2EDD JUMP JUMPDEST PUSH1 0x0 DUP5 DUP5 ADD MSTORE POP POP POP POP JUMP JUMPDEST PUSH1 0x0 PUSH1 0x1F NOT PUSH1 0x1F DUP4 ADD AND SWAP1 POP SWAP2 SWAP1 POP JUMP JUMPDEST PUSH1 0x0 PUSH2 0x2F20 DUP3 PUSH2 0x2EBE JUMP JUMPDEST PUSH2 0x2F2A DUP2 DUP6 PUSH2 0x2EC9 JUMP JUMPDEST SWAP4 POP PUSH2 0x2F3A DUP2 DUP6 PUSH1 0x20 DUP7 ADD PUSH2 0x2EDA JUMP JUMPDEST PUSH2 0x2F43 DUP2 PUSH2 0x2F04 JUMP JUMPDEST DUP5 ADD SWAP2 POP POP SWAP3 SWAP2 POP POP JUMP JUMPDEST PUSH1 0x0 PUSH1 0x20 DUP3 ADD SWAP1 POP DUP2 DUP2 SUB PUSH1 0x0 DUP4 ADD MSTORE PUSH2 0x2F68 DUP2 DUP5 PUSH2 0x2F15 JUMP JUMPDEST SWAP1 POP SWAP3 SWAP2 POP POP JUMP JUMPDEST PUSH1 0x0 DUP1 REVERT JUMPDEST PUSH1 0x0 DUP1 REVERT JUMPDEST PUSH32 0x4E487B7100000000000000000000000000000000000000000000000000000000 PUSH1 0x0 MSTORE PUSH1 0x41 PUSH1 0x4 MSTORE PUSH1 0x24 PUSH1 0x0 REVERT JUMPDEST PUSH2 0x2FB2 DUP3 PUSH2 0x2F04 JUMP JUMPDEST DUP2 ADD DUP2 DUP2 LT PUSH8 0xFFFFFFFFFFFFFFFF DUP3 GT OR ISZERO PUSH2 0x2FD1 JUMPI PUSH2 0x2FD0 PUSH2 0x2F7A JUMP JUMPDEST JUMPDEST DUP1 PUSH1 0x40 MSTORE POP POP POP JUMP JUMPDEST PUSH1 0x0 PUSH2 0x2FE4 PUSH2 0x2CF4 JUMP JUMPDEST SWAP1 POP PUSH2 0x2FF0 DUP3 DUP3 PUSH2 0x2FA9 JUMP JUMPDEST SWAP2 SWAP1 POP JUMP JUMPDEST PUSH1 0x0 PUSH8 0xFFFFFFFFFFFFFFFF DUP3 GT ISZERO PUSH2 0x3010 JUMPI PUSH2 0x300F PUSH2 0x2F7A JUMP JUMPDEST JUMPDEST PUSH2 0x3019 DUP3 PUSH2 0x2F04 JUMP JUMPDEST SWAP1 POP PUSH1 0x20 DUP2 ADD SWAP1 POP SWAP2 SWAP1 POP JUMP JUMPDEST DUP3 DUP2 DUP4 CALLDATACOPY PUSH1 0x0 DUP4 DUP4 ADD MSTORE POP POP POP JUMP JUMPDEST PUSH1 0x0 PUSH2 0x3048 PUSH2 0x3043 DUP5 PUSH2 0x2FF5 JUMP JUMPDEST PUSH2 0x2FDA JUMP JUMPDEST SWAP1 POP DUP3 DUP2 MSTORE PUSH1 0x20 DUP2 ADD DUP5 DUP5 DUP5 ADD GT ISZERO PUSH2 0x3064 JUMPI PUSH2 0x3063 PUSH2 0x2F75 JUMP JUMPDEST JUMPDEST PUSH2 0x306F DUP5 DUP3 DUP6 PUSH2 0x3026 JUMP JUMPDEST POP SWAP4 SWAP3 POP POP POP JUMP JUMPDEST PUSH1 0x0 DUP3 PUSH1 0x1F DUP4 ADD SLT PUSH2 0x308C JUMPI PUSH2 0x308B PUSH2 0x2F70 JUMP JUMPDEST JUMPDEST DUP2 CALLDATALOAD PUSH2 0x309C DUP5 DUP3 PUSH1 0x20 DUP7 ADD PUSH2 0x3035 JUMP JUMPDEST SWAP2 POP POP SWAP3 SWAP2 POP POP JUMP JUMPDEST PUSH1 0x0 PUSH1 0x20 DUP3 DUP5 SUB SLT ISZERO PUSH2 0x30BB JUMPI PUSH2 0x30BA PUSH2 0x2CFE JUMP JUMPDEST JUMPDEST PUSH1 0x0 DUP3 ADD CALLDATALOAD PUSH8 0xFFFFFFFFFFFFFFFF DUP2 GT ISZERO PUSH2 0x30D9 JUMPI PUSH2 0x30D8 PUSH2 0x2D03 JUMP JUMPDEST JUMPDEST PUSH2 0x30E5 DUP5 DUP3 DUP6 ADD PUSH2 0x3077 JUMP JUMPDEST SWAP2 POP POP SWAP3 SWAP2 POP POP JUMP JUMPDEST PUSH1 0x0 PUSH1 0x20 DUP3 DUP5 SUB SLT ISZERO PUSH2 0x3104 JUMPI PUSH2 0x3103 PUSH2 0x2CFE JUMP JUMPDEST JUMPDEST PUSH1 0x0 PUSH2 0x3112 DUP5 DUP3 DUP6 ADD PUSH2 0x2E42 JUMP JUMPDEST SWAP2 POP POP SWAP3 SWAP2 POP POP JUMP JUMPDEST PUSH1 0x0 PUSH2 0x3126 DUP3 PUSH2 0x2DC3 JUMP JUMPDEST SWAP1 POP SWAP2 SWAP1 POP JUMP JUMPDEST PUSH2 0x3136 DUP2 PUSH2 0x311B JUMP JUMPDEST DUP3 MSTORE POP POP JUMP JUMPDEST PUSH1 0x0 PUSH1 0x20 DUP3 ADD SWAP1 POP PUSH2 0x3151 PUSH1 0x0 DUP4 ADD DUP5 PUSH2 0x312D JUMP JUMPDEST SWAP3 SWAP2 POP POP JUMP JUMPDEST PUSH2 0x3160 DUP2 PUSH2 0x311B JUMP JUMPDEST DUP2 EQ PUSH2 0x316B JUMPI PUSH1 0x0 DUP1 REVERT JUMPDEST POP JUMP JUMPDEST PUSH1 0x0 DUP2 CALLDATALOAD SWAP1 POP PUSH2 0x317D DUP2 PUSH2 0x3157 JUMP JUMPDEST SWAP3 SWAP2 POP POP JUMP JUMPDEST PUSH1 0x0 DUP1 PUSH1 0x40 DUP4 DUP6 SUB SLT ISZERO PUSH2 0x319A JUMPI PUSH2 0x3199 PUSH2 0x2CFE JUMP JUMPDEST JUMPDEST PUSH1 0x0 PUSH2 0x31A8 DUP6 DUP3 DUP7 ADD PUSH2 0x316E JUMP JUMPDEST SWAP3 POP POP PUSH1 0x20 PUSH2 0x31B9 DUP6 DUP3 DUP7 ADD PUSH2 0x2E42 JUMP JUMPDEST SWAP2 POP POP SWAP3 POP SWAP3 SWAP1 POP JUMP JUMPDEST PUSH2 0x31CC DUP2 PUSH2 0x2E21 JUMP JUMPDEST DUP3 MSTORE POP POP JUMP JUMPDEST PUSH1 0x0 PUSH1 0x20 DUP3 ADD SWAP1 POP PUSH2 0x31E7 PUSH1 0x0 DUP4 ADD DUP5 PUSH2 0x31C3 JUMP JUMPDEST SWAP3 SWAP2 POP POP JUMP JUMPDEST PUSH1 0x0 DUP1 PUSH1 0x0 PUSH1 0x60 DUP5 DUP7 SUB SLT ISZERO PUSH2 0x3206 JUMPI PUSH2 0x3205 PUSH2 0x2CFE JUMP JUMPDEST JUMPDEST PUSH1 0x0 PUSH2 0x3214 DUP7 DUP3 DUP8 ADD PUSH2 0x316E JUMP JUMPDEST SWAP4 POP POP PUSH1 0x20 PUSH2 0x3225 DUP7 DUP3 DUP8 ADD PUSH2 0x316E JUMP JUMPDEST SWAP3 POP POP PUSH1 0x40 PUSH2 0x3236 DUP7 DUP3 DUP8 ADD PUSH2 0x2E42 JUMP JUMPDEST SWAP2 POP POP SWAP3 POP SWAP3 POP SWAP3 JUMP JUMPDEST PUSH1 0x0 DUP1 PUSH1 0x0 PUSH1 0x60 DUP5 DUP7 SUB SLT ISZERO PUSH2 0x3259 JUMPI PUSH2 0x3258 PUSH2 0x2CFE JUMP JUMPDEST JUMPDEST PUSH1 0x0 PUSH2 0x3267 DUP7 DUP3 DUP8 ADD PUSH2 0x316E JUMP JUMPDEST SWAP4 POP POP PUSH1 0x20 PUSH2 0x3278 DUP7 DUP3 DUP8 ADD PUSH2 0x2E42 JUMP JUMPDEST SWAP3 POP POP PUSH1 0x40 PUSH2 0x3289 DUP7 DUP3 DUP8 ADD PUSH2 0x2E42 JUMP JUMPDEST SWAP2 POP POP SWAP3 POP SWAP3 POP SWAP3 JUMP JUMPDEST PUSH1 0x0 PUSH1 0x20 DUP3 DUP5 SUB SLT ISZERO PUSH2 0x32A9 JUMPI PUSH2 0x32A8 PUSH2 0x2CFE JUMP JUMPDEST JUMPDEST PUSH1 0x0 PUSH2 0x32B7 DUP5 DUP3 DUP6 ADD PUSH2 0x316E JUMP JUMPDEST SWAP2 POP POP SWAP3 SWAP2 POP POP JUMP JUMPDEST PUSH1 0x0 DUP2 MLOAD SWAP1 POP SWAP2 SWAP1 POP JUMP JUMPDEST PUSH1 0x0 DUP3 DUP3 MSTORE PUSH1 0x20 DUP3 ADD SWAP1 POP SWAP3 SWAP2 POP POP JUMP JUMPDEST PUSH1 0x0 DUP2 SWAP1 POP PUSH1 0x20 DUP3 ADD SWAP1 POP SWAP2 SWAP1 POP JUMP JUMPDEST PUSH2 0x32F5 DUP2 PUSH2 0x2E21 JUMP JUMPDEST DUP3 MSTORE POP POP JUMP JUMPDEST PUSH1 0x0 PUSH2 0x3307 DUP4 DUP4 PUSH2 0x32EC JUMP JUMPDEST PUSH1 0x20 DUP4 ADD SWAP1 POP SWAP3 SWAP2 POP POP JUMP JUMPDEST PUSH1 0x0 PUSH1 0x20 DUP3 ADD SWAP1 POP SWAP2 SWAP1 POP JUMP JUMPDEST PUSH1 0x0 PUSH2 0x332B DUP3 PUSH2 0x32C0 JUMP JUMPDEST PUSH2 0x3335 DUP2 DUP6 PUSH2 0x32CB JUMP JUMPDEST SWAP4 POP PUSH2 0x3340 DUP4 PUSH2 0x32DC JUMP JUMPDEST DUP1 PUSH1 0x0 JUMPDEST DUP4 DUP2 LT ISZERO PUSH2 0x3371 JUMPI DUP2 MLOAD PUSH2 0x3358 DUP9 DUP3 PUSH2 0x32FB JUMP JUMPDEST SWAP8 POP PUSH2 0x3363 DUP4 PUSH2 0x3313 JUMP JUMPDEST SWAP3 POP POP PUSH1 0x1 DUP2 ADD SWAP1 POP PUSH2 0x3344 JUMP JUMPDEST POP DUP6 SWAP4 POP POP POP POP SWAP3 SWAP2 POP POP JUMP JUMPDEST PUSH1 0x0 PUSH1 0x20 DUP3 ADD SWAP1 POP DUP2 DUP2 SUB PUSH1 0x0 DUP4 ADD MSTORE PUSH2 0x3398 DUP2 DUP5 PUSH2 0x3320 JUMP JUMPDEST SWAP1 POP SWAP3 SWAP2 POP POP JUMP JUMPDEST PUSH2 0x33A9 DUP2 PUSH2 0x2D8D JUMP JUMPDEST DUP2 EQ PUSH2 0x33B4 JUMPI PUSH1 0x0 DUP1 REVERT JUMPDEST POP JUMP JUMPDEST PUSH1 0x0 DUP2 CALLDATALOAD SWAP1 POP PUSH2 0x33C6 DUP2 PUSH2 0x33A0 JUMP JUMPDEST SWAP3 SWAP2 POP POP JUMP JUMPDEST PUSH1 0x0 DUP1 PUSH1 0x40 DUP4 DUP6 SUB SLT ISZERO PUSH2 0x33E3 JUMPI PUSH2 0x33E2 PUSH2 0x2CFE JUMP JUMPDEST JUMPDEST PUSH1 0x0 PUSH2 0x33F1 DUP6 DUP3 DUP7 ADD PUSH2 0x316E JUMP JUMPDEST SWAP3 POP POP PUSH1 0x20 PUSH2 0x3402 DUP6 DUP3 DUP7 ADD PUSH2 0x33B7 JUMP JUMPDEST SWAP2 POP POP SWAP3 POP SWAP3 SWAP1 POP JUMP JUMPDEST PUSH1 0x0 DUP3 DUP3 MSTORE PUSH1 0x20 DUP3 ADD SWAP1 POP SWAP3 SWAP2 POP POP JUMP JUMPDEST PUSH1 0x0 PUSH2 0x3428 DUP3 PUSH2 0x2EBE JUMP JUMPDEST PUSH2 0x3432 DUP2 DUP6 PUSH2 0x340C JUMP JUMPDEST SWAP4 POP PUSH2 0x3442 DUP2 DUP6 PUSH1 0x20 DUP7 ADD PUSH2 0x2EDA JUMP JUMPDEST PUSH2 0x344B DUP2 PUSH2 0x2F04 JUMP JUMPDEST DUP5 ADD SWAP2 POP POP SWAP3 SWAP2 POP POP JUMP JUMPDEST PUSH1 0x0 PUSH1 0xFF DUP3 AND SWAP1 POP SWAP2 SWAP1 POP JUMP JUMPDEST PUSH2 0x346C DUP2 PUSH2 0x3456 JUMP JUMPDEST DUP3 MSTORE POP POP JUMP JUMPDEST PUSH1 0x0 PUSH1 0xA0 DUP4 ADD PUSH1 0x0 DUP4 ADD MLOAD DUP5 DUP3 SUB PUSH1 0x0 DUP7 ADD MSTORE PUSH2 0x348F DUP3 DUP3 PUSH2 0x341D JUMP JUMPDEST SWAP2 POP POP PUSH1 0x20 DUP4 ADD MLOAD DUP5 DUP3 SUB PUSH1 0x20 DUP7 ADD MSTORE PUSH2 0x34A9 DUP3 DUP3 PUSH2 0x341D JUMP JUMPDEST SWAP2 POP POP PUSH1 0x40 DUP4 ADD MLOAD PUSH2 0x34BE PUSH1 0x40 DUP7 ADD DUP3 PUSH2 0x3463 JUMP JUMPDEST POP PUSH1 0x60 DUP4 ADD MLOAD PUSH2 0x34D1 PUSH1 0x60 DUP7 ADD DUP3 PUSH2 0x3463 JUMP JUMPDEST POP PUSH1 0x80 DUP4 ADD MLOAD PUSH2 0x34E4 PUSH1 0x80 DUP7 ADD DUP3 PUSH2 0x3463 JUMP JUMPDEST POP DUP1 SWAP2 POP POP SWAP3 SWAP2 POP POP JUMP JUMPDEST PUSH2 0x34F8 DUP2 PUSH2 0x311B JUMP JUMPDEST DUP3 MSTORE POP POP JUMP JUMPDEST PUSH1 0x0 PUSH1 0xA0 DUP4 ADD PUSH1 0x0 DUP4 ADD MLOAD PUSH2 0x3516 PUSH1 0x0 DUP7 ADD DUP3 PUSH2 0x32EC JUMP JUMPDEST POP PUSH1 0x20 DUP4 ADD MLOAD PUSH2 0x3529 PUSH1 0x20 DUP7 ADD DUP3 PUSH2 0x32EC JUMP JUMPDEST POP PUSH1 0x40 DUP4 ADD MLOAD PUSH2 0x353C PUSH1 0x40 DUP7 ADD DUP3 PUSH2 0x32EC JUMP JUMPDEST POP PUSH1 0x60 DUP4 ADD MLOAD DUP5 DUP3 SUB PUSH1 0x60 DUP7 ADD MSTORE PUSH2 0x3554 DUP3 DUP3 PUSH2 0x3472 JUMP JUMPDEST SWAP2 POP POP PUSH1 0x80 DUP4 ADD MLOAD PUSH2 0x3569 PUSH1 0x80 DUP7 ADD DUP3 PUSH2 0x34EF JUMP JUMPDEST POP DUP1 SWAP2 POP POP SWAP3 SWAP2 POP POP JUMP JUMPDEST PUSH1 0x0 PUSH1 0x20 DUP3 ADD SWAP1 POP DUP2 DUP2 SUB PUSH1 0x0 DUP4 ADD MSTORE PUSH2 0x358E DUP2 DUP5 PUSH2 0x34FE JUMP JUMPDEST SWAP1 POP SWAP3 SWAP2 POP POP JUMP JUMPDEST PUSH1 0x0 PUSH8 0xFFFFFFFFFFFFFFFF DUP3 GT ISZERO PUSH2 0x35B1 JUMPI PUSH2 0x35B0 PUSH2 0x2F7A JUMP JUMPDEST JUMPDEST PUSH2 0x35BA DUP3 PUSH2 0x2F04 JUMP JUMPDEST SWAP1 POP PUSH1 0x20 DUP2 ADD SWAP1 POP SWAP2 SWAP1 POP JUMP JUMPDEST PUSH1 0x0 PUSH2 0x35DA PUSH2 0x35D5 DUP5 PUSH2 0x3596 JUMP JUMPDEST PUSH2 0x2FDA JUMP JUMPDEST SWAP1 POP DUP3 DUP2 MSTORE PUSH1 0x20 DUP2 ADD DUP5 DUP5 DUP5 ADD GT ISZERO PUSH2 0x35F6 JUMPI PUSH2 0x35F5 PUSH2 0x2F75 JUMP JUMPDEST JUMPDEST PUSH2 0x3601 DUP5 DUP3 DUP6 PUSH2 0x3026 JUMP JUMPDEST POP SWAP4 SWAP3 POP POP POP JUMP JUMPDEST PUSH1 0x0 DUP3 PUSH1 0x1F DUP4 ADD SLT PUSH2 0x361E JUMPI PUSH2 0x361D PUSH2 0x2F70 JUMP JUMPDEST JUMPDEST DUP2 CALLDATALOAD PUSH2 0x362E DUP5 DUP3 PUSH1 0x20 DUP7 ADD PUSH2 0x35C7 JUMP JUMPDEST SWAP2 POP POP SWAP3 SWAP2 POP POP JUMP JUMPDEST PUSH1 0x0 DUP1 PUSH1 0x0 DUP1 PUSH1 0x80 DUP6 DUP8 SUB SLT ISZERO PUSH2 0x3651 JUMPI PUSH2 0x3650 PUSH2 0x2CFE JUMP JUMPDEST JUMPDEST PUSH1 0x0 PUSH2 0x365F DUP8 DUP3 DUP9 ADD PUSH2 0x316E JUMP JUMPDEST SWAP5 POP POP PUSH1 0x20 PUSH2 0x3670 DUP8 DUP3 DUP9 ADD PUSH2 0x316E JUMP JUMPDEST SWAP4 POP POP PUSH1 0x40 PUSH2 0x3681 DUP8 DUP3 DUP9 ADD PUSH2 0x2E42 JUMP JUMPDEST SWAP3 POP POP PUSH1 0x60 DUP6 ADD CALLDATALOAD PUSH8 0xFFFFFFFFFFFFFFFF DUP2 GT ISZERO PUSH2 0x36A2 JUMPI PUSH2 0x36A1 PUSH2 0x2D03 JUMP JUMPDEST JUMPDEST PUSH2 0x36AE DUP8 DUP3 DUP9 ADD PUSH2 0x3609 JUMP JUMPDEST SWAP2 POP POP SWAP3 SWAP6 SWAP2 SWAP5 POP SWAP3 POP JUMP JUMPDEST PUSH1 0x0 PUSH2 0x120 DUP4 ADD PUSH1 0x0 DUP4 ADD MLOAD PUSH2 0x36D3 PUSH1 0x0 DUP7 ADD DUP3 PUSH2 0x34EF JUMP JUMPDEST POP PUSH1 0x20 DUP4 ADD MLOAD DUP5 DUP3 SUB PUSH1 0x20 DUP7 ADD MSTORE PUSH2 0x36EB DUP3 DUP3 PUSH2 0x341D JUMP JUMPDEST SWAP2 POP POP PUSH1 0x40 DUP4 ADD MLOAD PUSH2 0x3700 PUSH1 0x40 DUP7 ADD DUP3 PUSH2 0x32EC JUMP JUMPDEST POP PUSH1 0x60 DUP4 ADD MLOAD PUSH2 0x3713 PUSH1 0x60 DUP7 ADD DUP3 PUSH2 0x32EC JUMP JUMPDEST POP PUSH1 0x80 DUP4 ADD MLOAD PUSH2 0x3726 PUSH1 0x80 DUP7 ADD DUP3 PUSH2 0x32EC JUMP JUMPDEST POP PUSH1 0xA0 DUP4 ADD MLOAD PUSH2 0x3739 PUSH1 0xA0 DUP7 ADD DUP3 PUSH2 0x32EC JUMP JUMPDEST POP PUSH1 0xC0 DUP4 ADD MLOAD PUSH2 0x374C PUSH1 0xC0 DUP7 ADD DUP3 PUSH2 0x32EC JUMP JUMPDEST POP PUSH1 0xE0 DUP4 ADD MLOAD PUSH2 0x375F PUSH1 0xE0 DUP7 ADD DUP3 PUSH2 0x32EC JUMP JUMPDEST POP PUSH2 0x100 DUP4 ADD MLOAD PUSH2 0x3774 PUSH2 0x100 DUP7 ADD DUP3 PUSH2 0x32EC JUMP JUMPDEST POP DUP1 SWAP2 POP POP SWAP3 SWAP2 POP POP JUMP JUMPDEST PUSH1 0x0 PUSH1 0x20 DUP3 ADD SWAP1 POP DUP2 DUP2 SUB PUSH1 0x0 DUP4 ADD MSTORE PUSH2 0x3799 DUP2 DUP5 PUSH2 0x36BA JUMP JUMPDEST SWAP1 POP SWAP3 SWAP2 POP POP JUMP JUMPDEST PUSH1 0x0 DUP1 PUSH1 0x40 DUP4 DUP6 SUB SLT ISZERO PUSH2 0x37B8 JUMPI PUSH2 0x37B7 PUSH2 0x2CFE JUMP JUMPDEST JUMPDEST PUSH1 0x0 PUSH2 0x37C6 DUP6 DUP3 DUP7 ADD PUSH2 0x316E JUMP JUMPDEST SWAP3 POP POP PUSH1 0x20 PUSH2 0x37D7 DUP6 DUP3 DUP7 ADD PUSH2 0x316E JUMP JUMPDEST SWAP2 POP POP SWAP3 POP SWAP3 SWAP1 POP JUMP JUMPDEST PUSH1 0x0 DUP1 PUSH1 0x0 PUSH1 0x60 DUP5 DUP7 SUB SLT ISZERO PUSH2 0x37FA JUMPI PUSH2 0x37F9 PUSH2 0x2CFE JUMP JUMPDEST JUMPDEST PUSH1 0x0 PUSH2 0x3808 DUP7 DUP3 DUP8 ADD PUSH2 0x2E42 JUMP JUMPDEST SWAP4 POP POP PUSH1 0x20 PUSH2 0x3819 DUP7 DUP3 DUP8 ADD PUSH2 0x316E JUMP JUMPDEST SWAP3 POP POP PUSH1 0x40 DUP5 ADD CALLDATALOAD PUSH8 0xFFFFFFFFFFFFFFFF DUP2 GT ISZERO PUSH2 0x383A JUMPI PUSH2 0x3839 PUSH2 0x2D03 JUMP JUMPDEST JUMPDEST PUSH2 0x3846 DUP7 DUP3 DUP8 ADD PUSH2 0x3077 JUMP JUMPDEST SWAP2 POP POP SWAP3 POP SWAP3 POP SWAP3 JUMP JUMPDEST PUSH1 0x0 DUP2 SWAP1 POP SWAP2 SWAP1 POP JUMP JUMPDEST PUSH1 0x0 PUSH2 0x3875 PUSH2 0x3870 PUSH2 0x386B DUP5 PUSH2 0x2DC3 JUMP JUMPDEST PUSH2 0x3850 JUMP JUMPDEST PUSH2 0x2DC3 JUMP JUMPDEST SWAP1 POP SWAP2 SWAP1 POP JUMP JUMPDEST PUSH1 0x0 PUSH2 0x3887 DUP3 PUSH2 0x385A JUMP JUMPDEST SWAP1 POP SWAP2 SWAP1 POP JUMP JUMPDEST PUSH1 0x0 PUSH2 0x3899 DUP3 PUSH2 0x387C JUMP JUMPDEST SWAP1 POP SWAP2 SWAP1 POP JUMP JUMPDEST PUSH2 0x38A9 DUP2 PUSH2 0x388E JUMP JUMPDEST DUP3 MSTORE POP POP JUMP JUMPDEST PUSH1 0x0 PUSH1 0x60 DUP3 ADD SWAP1 POP PUSH2 0x38C4 PUSH1 0x0 DUP4 ADD DUP7 PUSH2 0x38A0 JUMP JUMPDEST PUSH2 0x38D1 PUSH1 0x20 DUP4 ADD DUP6 PUSH2 0x312D JUMP JUMPDEST PUSH2 0x38DE PUSH1 0x40 DUP4 ADD DUP5 PUSH2 0x31C3 JUMP JUMPDEST SWAP5 SWAP4 POP POP POP POP JUMP JUMPDEST PUSH32 0x4E487B7100000000000000000000000000000000000000000000000000000000 PUSH1 0x0 MSTORE PUSH1 0x22 PUSH1 0x4 MSTORE PUSH1 0x24 PUSH1 0x0 REVERT JUMPDEST PUSH1 0x0 PUSH1 0x2 DUP3 DIV SWAP1 POP PUSH1 0x1 DUP3 AND DUP1 PUSH2 0x392D JUMPI PUSH1 0x7F DUP3 AND SWAP2 POP JUMPDEST PUSH1 0x20 DUP3 LT DUP2 SUB PUSH2 0x3940 JUMPI PUSH2 0x393F PUSH2 0x38E6 JUMP JUMPDEST JUMPDEST POP SWAP2 SWAP1 POP JUMP JUMPDEST PUSH1 0x0 DUP2 SWAP1 POP DUP2 PUSH1 0x0 MSTORE PUSH1 0x20 PUSH1 0x0 KECCAK256 SWAP1 POP SWAP2 SWAP1 POP JUMP JUMPDEST PUSH1 0x0 PUSH1 0x20 PUSH1 0x1F DUP4 ADD DIV SWAP1 POP SWAP2 SWAP1 POP JUMP JUMPDEST PUSH1 0x0 DUP3 DUP3 SHL SWAP1 POP SWAP3 SWAP2 POP POP JUMP JUMPDEST PUSH1 0x0 PUSH1 0x8 DUP4 MUL PUSH2 0x39A8 PUSH32 0xFFFFFFFFFFFFFFFFFFFFFFFFFFFFFFFFFFFFFFFFFFFFFFFFFFFFFFFFFFFFFFFF DUP3 PUSH2 0x396B JUMP JUMPDEST PUSH2 0x39B2 DUP7 DUP4 PUSH2 0x396B JUMP JUMPDEST SWAP6 POP DUP1 NOT DUP5 AND SWAP4 POP DUP1 DUP7 AND DUP5 OR SWAP3 POP POP POP SWAP4 SWAP3 POP POP POP JUMP JUMPDEST PUSH1 0x0 PUSH2 0x39E5 PUSH2 0x39E0 PUSH2 0x39DB DUP5 PUSH2 0x2E21 JUMP JUMPDEST PUSH2 0x3850 JUMP JUMPDEST PUSH2 0x2E21 JUMP JUMPDEST SWAP1 POP SWAP2 SWAP1 POP JUMP JUMPDEST PUSH1 0x0 DUP2 SWAP1 POP SWAP2 SWAP1 POP JUMP JUMPDEST PUSH2 0x39FF DUP4 PUSH2 0x39CA JUMP JUMPDEST PUSH2 0x3A13 PUSH2 0x3A0B DUP3 PUSH2 0x39EC JUMP JUMPDEST DUP5 DUP5 SLOAD PUSH2 0x3978 JUMP JUMPDEST DUP3 SSTORE POP POP POP POP JUMP JUMPDEST PUSH1 0x0 SWAP1 JUMP JUMPDEST PUSH2 0x3A28 PUSH2 0x3A1B JUMP JUMPDEST PUSH2 0x3A33 DUP2 DUP5 DUP5 PUSH2 0x39F6 JUMP JUMPDEST POP POP POP JUMP JUMPDEST JUMPDEST DUP2 DUP2 LT ISZERO PUSH2 0x3A57 JUMPI PUSH2 0x3A4C PUSH1 0x0 DUP3 PUSH2 0x3A20 JUMP JUMPDEST PUSH1 0x1 DUP2 ADD SWAP1 POP PUSH2 0x3A39 JUMP JUMPDEST POP POP JUMP JUMPDEST PUSH1 0x1F DUP3 GT ISZERO PUSH2 0x3A9C JUMPI PUSH2 0x3A6D DUP2 PUSH2 0x3946 JUMP JUMPDEST PUSH2 0x3A76 DUP5 PUSH2 0x395B JUMP JUMPDEST DUP2 ADD PUSH1 0x20 DUP6 LT ISZERO PUSH2 0x3A85 JUMPI DUP2 SWAP1 POP JUMPDEST PUSH2 0x3A99 PUSH2 0x3A91 DUP6 PUSH2 0x395B JUMP JUMPDEST DUP4 ADD DUP3 PUSH2 0x3A38 JUMP JUMPDEST POP POP JUMPDEST POP POP POP JUMP JUMPDEST PUSH1 0x0 DUP3 DUP3 SHR SWAP1 POP SWAP3 SWAP2 POP POP JUMP JUMPDEST PUSH1 0x0 PUSH2 0x3ABF PUSH1 0x0 NOT DUP5 PUSH1 0x8 MUL PUSH2 0x3AA1 JUMP JUMPDEST NOT DUP1 DUP4 AND SWAP2 POP POP SWAP3 SWAP2 POP POP JUMP JUMPDEST PUSH1 0x0 PUSH2 0x3AD8 DUP4 DUP4 PUSH2 0x3AAE JUMP JUMPDEST SWAP2 POP DUP3 PUSH1 0x2 MUL DUP3 OR SWAP1 POP SWAP3 SWAP2 POP POP JUMP JUMPDEST PUSH2 0x3AF1 DUP3 PUSH2 0x2EBE JUMP JUMPDEST PUSH8 0xFFFFFFFFFFFFFFFF DUP2 GT ISZERO PUSH2 0x3B0A JUMPI PUSH2 0x3B09 PUSH2 0x2F7A JUMP JUMPDEST JUMPDEST PUSH2 0x3B14 DUP3 SLOAD PUSH2 0x3915 JUMP JUMPDEST PUSH2 0x3B1F DUP3 DUP3 DUP6 PUSH2 0x3A5B JUMP JUMPDEST PUSH1 0x0 PUSH1 0x20 SWAP1 POP PUSH1 0x1F DUP4 GT PUSH1 0x1 DUP2 EQ PUSH2 0x3B52 JUMPI PUSH1 0x0 DUP5 ISZERO PUSH2 0x3B40 JUMPI DUP3 DUP8 ADD MLOAD SWAP1 POP JUMPDEST PUSH2 0x3B4A DUP6 DUP3 PUSH2 0x3ACC JUMP JUMPDEST DUP7 SSTORE POP PUSH2 0x3BB2 JUMP JUMPDEST PUSH1 0x1F NOT DUP5 AND PUSH2 0x3B60 DUP7 PUSH2 0x3946 JUMP JUMPDEST PUSH1 0x0 JUMPDEST DUP3 DUP2 LT ISZERO PUSH2 0x3B88 JUMPI DUP5 DUP10 ADD MLOAD DUP3 SSTORE PUSH1 0x1 DUP3 ADD SWAP2 POP PUSH1 0x20 DUP6 ADD SWAP5 POP PUSH1 0x20 DUP2 ADD SWAP1 POP PUSH2 0x3B63 JUMP JUMPDEST DUP7 DUP4 LT ISZERO PUSH2 0x3BA5 JUMPI DUP5 DUP10 ADD MLOAD PUSH2 0x3BA1 PUSH1 0x1F DUP10 AND DUP3 PUSH2 0x3AAE JUMP JUMPDEST DUP4 SSTORE POP JUMPDEST PUSH1 0x1 PUSH1 0x2 DUP9 MUL ADD DUP9 SSTORE POP POP POP JUMPDEST POP POP POP POP POP POP JUMP JUMPDEST PUSH32 0x4552433732313A20617070726F76616C20746F2063757272656E74206F776E65 PUSH1 0x0 DUP3 ADD MSTORE PUSH32 0x7200000000000000000000000000000000000000000000000000000000000000 PUSH1 0x20 DUP3 ADD MSTORE POP JUMP JUMPDEST PUSH1 0x0 PUSH2 0x3C16 PUSH1 0x21 DUP4 PUSH2 0x2EC9 JUMP JUMPDEST SWAP2 POP PUSH2 0x3C21 DUP3 PUSH2 0x3BBA JUMP JUMPDEST PUSH1 0x40 DUP3 ADD SWAP1 POP SWAP2 SWAP1 POP JUMP JUMPDEST PUSH1 0x0 PUSH1 0x20 DUP3 ADD SWAP1 POP DUP2 DUP2 SUB PUSH1 0x0 DUP4 ADD MSTORE PUSH2 0x3C45 DUP2 PUSH2 0x3C09 JUMP JUMPDEST SWAP1 POP SWAP2 SWAP1 POP JUMP JUMPDEST PUSH32 0x4552433732313A20617070726F76652063616C6C6572206973206E6F7420746F PUSH1 0x0 DUP3 ADD MSTORE PUSH32 0x6B656E206F776E6572206F7220617070726F76656420666F7220616C6C000000 PUSH1 0x20 DUP3 ADD MSTORE POP JUMP JUMPDEST PUSH1 0x0 PUSH2 0x3CA8 PUSH1 0x3D DUP4 PUSH2 0x2EC9 JUMP JUMPDEST SWAP2 POP PUSH2 0x3CB3 DUP3 PUSH2 0x3C4C JUMP JUMPDEST PUSH1 0x40 DUP3 ADD SWAP1 POP SWAP2 SWAP1 POP JUMP JUMPDEST PUSH1 0x0 PUSH1 0x20 DUP3 ADD SWAP1 POP DUP2 DUP2 SUB PUSH1 0x0 DUP4 ADD MSTORE PUSH2 0x3CD7 DUP2 PUSH2 0x3C9B JUMP JUMPDEST SWAP1 POP SWAP2 SWAP1 POP JUMP JUMPDEST PUSH32 0x4E487B7100000000000000000000000000000000000000000000000000000000 PUSH1 0x0 MSTORE PUSH1 0x11 PUSH1 0x4 MSTORE PUSH1 0x24 PUSH1 0x0 REVERT JUMPDEST PUSH1 0x0 DUP2 PUSH1 0x1 SHR SWAP1 POP SWAP2 SWAP1 POP JUMP JUMPDEST PUSH1 0x0 DUP1 DUP3 SWAP2 POP DUP4 SWAP1 POP JUMPDEST PUSH1 0x1 DUP6 GT ISZERO PUSH2 0x3D64 JUMPI DUP1 DUP7 DIV DUP2 GT ISZERO PUSH2 0x3D40 JUMPI PUSH2 0x3D3F PUSH2 0x3CDE JUMP JUMPDEST JUMPDEST PUSH1 0x1 DUP6 AND ISZERO PUSH2 0x3D4F JUMPI DUP1 DUP3 MUL SWAP2 POP JUMPDEST DUP1 DUP2 MUL SWAP1 POP PUSH2 0x3D5D DUP6 PUSH2 0x3D0D JUMP JUMPDEST SWAP5 POP PUSH2 0x3D24 JUMP JUMPDEST SWAP5 POP SWAP5 SWAP3 POP POP POP JUMP JUMPDEST PUSH1 0x0 DUP3 PUSH2 0x3D7D JUMPI PUSH1 0x1 SWAP1 POP PUSH2 0x3E39 JUMP JUMPDEST DUP2 PUSH2 0x3D8B JUMPI PUSH1 0x0 SWAP1 POP PUSH2 0x3E39 JUMP JUMPDEST DUP2 PUSH1 0x1 DUP2 EQ PUSH2 0x3DA1 JUMPI PUSH1 0x2 DUP2 EQ PUSH2 0x3DAB JUMPI PUSH2 0x3DDA JUMP JUMPDEST PUSH1 0x1 SWAP2 POP POP PUSH2 0x3E39 JUMP JUMPDEST PUSH1 0xFF DUP5 GT ISZERO PUSH2 0x3DBD JUMPI PUSH2 0x3DBC PUSH2 0x3CDE JUMP JUMPDEST JUMPDEST DUP4 PUSH1 0x2 EXP SWAP2 POP DUP5 DUP3 GT ISZERO PUSH2 0x3DD4 JUMPI PUSH2 0x3DD3 PUSH2 0x3CDE JUMP JUMPDEST JUMPDEST POP PUSH2 0x3E39 JUMP JUMPDEST POP PUSH1 0x20 DUP4 LT PUSH2 0x133 DUP4 LT AND PUSH1 0x4E DUP5 LT PUSH1 0xB DUP5 LT AND OR ISZERO PUSH2 0x3E0F JUMPI DUP3 DUP3 EXP SWAP1 POP DUP4 DUP2 GT ISZERO PUSH2 0x3E0A JUMPI PUSH2 0x3E09 PUSH2 0x3CDE JUMP JUMPDEST JUMPDEST PUSH2 0x3E39 JUMP JUMPDEST PUSH2 0x3E1C DUP5 DUP5 DUP5 PUSH1 0x1 PUSH2 0x3D1A JUMP JUMPDEST SWAP3 POP SWAP1 POP DUP2 DUP5 DIV DUP2 GT ISZERO PUSH2 0x3E33 JUMPI PUSH2 0x3E32 PUSH2 0x3CDE JUMP JUMPDEST JUMPDEST DUP2 DUP2 MUL SWAP1 POP JUMPDEST SWAP4 SWAP3 POP POP POP JUMP JUMPDEST PUSH1 0x0 PUSH2 0x3E4B DUP3 PUSH2 0x2E21 JUMP JUMPDEST SWAP2 POP PUSH2 0x3E56 DUP4 PUSH2 0x2E21 JUMP JUMPDEST SWAP3 POP PUSH2 0x3E83 PUSH32 0xFFFFFFFFFFFFFFFFFFFFFFFFFFFFFFFFFFFFFFFFFFFFFFFFFFFFFFFFFFFFFFFF DUP5 DUP5 PUSH2 0x3D6D JUMP JUMPDEST SWAP1 POP SWAP3 SWAP2 POP POP JUMP JUMPDEST PUSH1 0x0 PUSH2 0x3E96 DUP3 PUSH2 0x2E21 JUMP JUMPDEST SWAP2 POP PUSH2 0x3EA1 DUP4 PUSH2 0x2E21 JUMP JUMPDEST SWAP3 POP DUP3 DUP3 MUL PUSH2 0x3EAF DUP2 PUSH2 0x2E21 JUMP JUMPDEST SWAP2 POP DUP3 DUP3 DIV DUP5 EQ DUP4 ISZERO OR PUSH2 0x3EC6 JUMPI PUSH2 0x3EC5 PUSH2 0x3CDE JUMP JUMPDEST JUMPDEST POP SWAP3 SWAP2 POP POP JUMP JUMPDEST PUSH32 0x4E487B7100000000000000000000000000000000000000000000000000000000 PUSH1 0x0 MSTORE PUSH1 0x12 PUSH1 0x4 MSTORE PUSH1 0x24 PUSH1 0x0 REVERT JUMPDEST PUSH1 0x0 PUSH2 0x3F07 DUP3 PUSH2 0x2E21 JUMP JUMPDEST SWAP2 POP PUSH2 0x3F12 DUP4 PUSH2 0x2E21 JUMP JUMPDEST SWAP3 POP DUP3 PUSH2 0x3F22 JUMPI PUSH2 0x3F21 PUSH2 0x3ECD JUMP JUMPDEST JUMPDEST DUP3 DUP3 DIV SWAP1 POP SWAP3 SWAP2 POP POP JUMP JUMPDEST PUSH32 0x4552433732313A2063616C6C6572206973206E6F7420746F6B656E206F776E65 PUSH1 0x0 DUP3 ADD MSTORE PUSH32 0x72206F7220617070726F76656400000000000000000000000000000000000000 PUSH1 0x20 DUP3 ADD MSTORE POP JUMP JUMPDEST PUSH1 0x0 PUSH2 0x3F89 PUSH1 0x2D DUP4 PUSH2 0x2EC9 JUMP JUMPDEST SWAP2 POP PUSH2 0x3F94 DUP3 PUSH2 0x3F2D JUMP JUMPDEST PUSH1 0x40 DUP3 ADD SWAP1 POP SWAP2 SWAP1 POP JUMP JUMPDEST PUSH1 0x0 PUSH1 0x20 DUP3 ADD SWAP1 POP DUP2 DUP2 SUB PUSH1 0x0 DUP4 ADD MSTORE PUSH2 0x3FB8 DUP2 PUSH2 0x3F7C JUMP JUMPDEST SWAP1 POP SWAP2 SWAP1 POP JUMP JUMPDEST PUSH1 0x0 PUSH2 0x3FCA DUP3 PUSH2 0x2E21 JUMP JUMPDEST SWAP2 POP PUSH2 0x3FD5 DUP4 PUSH2 0x2E21 JUMP JUMPDEST SWAP3 POP DUP3 DUP3 SUB SWAP1 POP DUP2 DUP2 GT ISZERO PUSH2 0x3FED JUMPI PUSH2 0x3FEC PUSH2 0x3CDE JUMP JUMPDEST JUMPDEST SWAP3 SWAP2 POP POP JUMP JUMPDEST PUSH1 0x0 PUSH2 0x3FFE DUP3 PUSH2 0x2E21 JUMP JUMPDEST SWAP2 POP PUSH2 0x4009 DUP4 PUSH2 0x2E21 JUMP JUMPDEST SWAP3 POP DUP3 PUSH2 0x4019 JUMPI PUSH2 0x4018 PUSH2 0x3ECD JUMP JUMPDEST JUMPDEST DUP3 DUP3 MOD SWAP1 POP SWAP3 SWAP2 POP POP JUMP JUMPDEST PUSH32 0x4E6F206D6F726520617661696C61626C65206E66747320746F20707572636861 PUSH1 0x0 DUP3 ADD MSTORE PUSH32 0x7365000000000000000000000000000000000000000000000000000000000000 PUSH1 0x20 DUP3 ADD MSTORE POP JUMP JUMPDEST PUSH1 0x0 PUSH2 0x4080 PUSH1 0x22 DUP4 PUSH2 0x2EC9 JUMP JUMPDEST SWAP2 POP PUSH2 0x408B DUP3 PUSH2 0x4024 JUMP JUMPDEST PUSH1 0x40 DUP3 ADD SWAP1 POP SWAP2 SWAP1 POP JUMP JUMPDEST PUSH1 0x0 PUSH1 0x20 DUP3 ADD SWAP1 POP DUP2 DUP2 SUB PUSH1 0x0 DUP4 ADD MSTORE PUSH2 0x40AF DUP2 PUSH2 0x4073 JUMP JUMPDEST SWAP1 POP SWAP2 SWAP1 POP JUMP JUMPDEST PUSH1 0x0 PUSH2 0x40C1 DUP3 PUSH2 0x2E21 JUMP JUMPDEST SWAP2 POP PUSH2 0x40CC DUP4 PUSH2 0x2E21 JUMP JUMPDEST SWAP3 POP DUP3 DUP3 ADD SWAP1 POP DUP1 DUP3 GT ISZERO PUSH2 0x40E4 JUMPI PUSH2 0x40E3 PUSH2 0x3CDE JUMP JUMPDEST JUMPDEST SWAP3 SWAP2 POP POP JUMP JUMPDEST PUSH32 0x4552433732313A20696E76616C696420746F6B656E2049440000000000000000 PUSH1 0x0 DUP3 ADD MSTORE POP JUMP JUMPDEST PUSH1 0x0 PUSH2 0x4120 PUSH1 0x18 DUP4 PUSH2 0x2EC9 JUMP JUMPDEST SWAP2 POP PUSH2 0x412B DUP3 PUSH2 0x40EA JUMP JUMPDEST PUSH1 0x20 DUP3 ADD SWAP1 POP SWAP2 SWAP1 POP JUMP JUMPDEST PUSH1 0x0 PUSH1 0x20 DUP3 ADD SWAP1 POP DUP2 DUP2 SUB PUSH1 0x0 DUP4 ADD MSTORE PUSH2 0x414F DUP2 PUSH2 0x4113 JUMP JUMPDEST SWAP1 POP SWAP2 SWAP1 POP JUMP JUMPDEST PUSH32 0x4552433732313A2061646472657373207A65726F206973206E6F742061207661 PUSH1 0x0 DUP3 ADD MSTORE PUSH32 0x6C6964206F776E65720000000000000000000000000000000000000000000000 PUSH1 0x20 DUP3 ADD MSTORE POP JUMP JUMPDEST PUSH1 0x0 PUSH2 0x41B2 PUSH1 0x29 DUP4 PUSH2 0x2EC9 JUMP JUMPDEST SWAP2 POP PUSH2 0x41BD DUP3 PUSH2 0x4156 JUMP JUMPDEST PUSH1 0x40 DUP3 ADD SWAP1 POP SWAP2 SWAP1 POP JUMP JUMPDEST PUSH1 0x0 PUSH1 0x20 DUP3 ADD SWAP1 POP DUP2 DUP2 SUB PUSH1 0x0 DUP4 ADD MSTORE PUSH2 0x41E1 DUP2 PUSH2 0x41A5 JUMP JUMPDEST SWAP1 POP SWAP2 SWAP1 POP JUMP JUMPDEST PUSH1 0x0 DUP2 SWAP1 POP SWAP3 SWAP2 POP POP JUMP JUMPDEST PUSH1 0x0 PUSH2 0x41FE DUP3 PUSH2 0x2EBE JUMP JUMPDEST PUSH2 0x4208 DUP2 DUP6 PUSH2 0x41E8 JUMP JUMPDEST SWAP4 POP PUSH2 0x4218 DUP2 DUP6 PUSH1 0x20 DUP7 ADD PUSH2 0x2EDA JUMP JUMPDEST DUP1 DUP5 ADD SWAP2 POP POP SWAP3 SWAP2 POP POP JUMP JUMPDEST PUSH1 0x0 PUSH2 0x4230 DUP3 DUP6 PUSH2 0x41F3 JUMP JUMPDEST SWAP2 POP PUSH2 0x423C DUP3 DUP5 PUSH2 0x41F3 JUMP JUMPDEST SWAP2 POP DUP2 SWAP1 POP SWAP4 SWAP3 POP POP POP JUMP JUMPDEST PUSH32 0x4F776E61626C653A206E6577206F776E657220697320746865207A65726F2061 PUSH1 0x0 DUP3 ADD MSTORE PUSH32 0x6464726573730000000000000000000000000000000000000000000000000000 PUSH1 0x20 DUP3 ADD MSTORE POP JUMP JUMPDEST PUSH1 0x0 PUSH2 0x42A4 PUSH1 0x26 DUP4 PUSH2 0x2EC9 JUMP JUMPDEST SWAP2 POP PUSH2 0x42AF DUP3 PUSH2 0x4248 JUMP JUMPDEST PUSH1 0x40 DUP3 ADD SWAP1 POP SWAP2 SWAP1 POP JUMP JUMPDEST PUSH1 0x0 PUSH1 0x20 DUP3 ADD SWAP1 POP DUP2 DUP2 SUB PUSH1 0x0 DUP4 ADD MSTORE PUSH2 0x42D3 DUP2 PUSH2 0x4297 JUMP JUMPDEST SWAP1 POP SWAP2 SWAP1 POP JUMP JUMPDEST PUSH32 0x4F776E61626C653A2063616C6C6572206973206E6F7420746865206F776E6572 PUSH1 0x0 DUP3 ADD MSTORE POP JUMP JUMPDEST PUSH1 0x0 PUSH2 0x4310 PUSH1 0x20 DUP4 PUSH2 0x2EC9 JUMP JUMPDEST SWAP2 POP PUSH2 0x431B DUP3 PUSH2 0x42DA JUMP JUMPDEST PUSH1 0x20 DUP3 ADD SWAP1 POP SWAP2 SWAP1 POP JUMP JUMPDEST PUSH1 0x0 PUSH1 0x20 DUP3 ADD SWAP1 POP DUP2 DUP2 SUB PUSH1 0x0 DUP4 ADD MSTORE PUSH2 0x433F DUP2 PUSH2 0x4303 JUMP JUMPDEST SWAP1 POP SWAP2 SWAP1 POP JUMP JUMPDEST PUSH32 0x4552433732313A207472616E736665722066726F6D20696E636F727265637420 PUSH1 0x0 DUP3 ADD MSTORE PUSH32 0x6F776E6572000000000000000000000000000000000000000000000000000000 PUSH1 0x20 DUP3 ADD MSTORE POP JUMP JUMPDEST PUSH1 0x0 PUSH2 0x43A2 PUSH1 0x25 DUP4 PUSH2 0x2EC9 JUMP JUMPDEST SWAP2 POP PUSH2 0x43AD DUP3 PUSH2 0x4346 JUMP JUMPDEST PUSH1 0x40 DUP3 ADD SWAP1 POP SWAP2 SWAP1 POP JUMP JUMPDEST PUSH1 0x0 PUSH1 0x20 DUP3 ADD SWAP1 POP DUP2 DUP2 SUB PUSH1 0x0 DUP4 ADD MSTORE PUSH2 0x43D1 DUP2 PUSH2 0x4395 JUMP JUMPDEST SWAP1 POP SWAP2 SWAP1 POP JUMP JUMPDEST PUSH32 0x4552433732313A207472616E7366657220746F20746865207A65726F20616464 PUSH1 0x0 DUP3 ADD MSTORE PUSH32 0x7265737300000000000000000000000000000000000000000000000000000000 PUSH1 0x20 DUP3 ADD MSTORE POP JUMP JUMPDEST PUSH1 0x0 PUSH2 0x4434 PUSH1 0x24 DUP4 PUSH2 0x2EC9 JUMP JUMPDEST SWAP2 POP PUSH2 0x443F DUP3 PUSH2 0x43D8 JUMP JUMPDEST PUSH1 0x40 DUP3 ADD SWAP1 POP SWAP2 SWAP1 POP JUMP JUMPDEST PUSH1 0x0 PUSH1 0x20 DUP3 ADD SWAP1 POP DUP2 DUP2 SUB PUSH1 0x0 DUP4 ADD MSTORE PUSH2 0x4463 DUP2 PUSH2 0x4427 JUMP JUMPDEST SWAP1 POP SWAP2 SWAP1 POP JUMP JUMPDEST PUSH1 0x0 PUSH1 0x60 DUP3 ADD SWAP1 POP PUSH2 0x447F PUSH1 0x0 DUP4 ADD DUP7 PUSH2 0x31C3 JUMP JUMPDEST PUSH2 0x448C PUSH1 0x20 DUP4 ADD DUP6 PUSH2 0x312D JUMP JUMPDEST PUSH2 0x4499 PUSH1 0x40 DUP4 ADD DUP5 PUSH2 0x31C3 JUMP JUMPDEST SWAP5 SWAP4 POP POP POP POP JUMP JUMPDEST PUSH32 0x4552433732313A20617070726F766520746F2063616C6C657200000000000000 PUSH1 0x0 DUP3 ADD MSTORE POP JUMP JUMPDEST PUSH1 0x0 PUSH2 0x44D7 PUSH1 0x19 DUP4 PUSH2 0x2EC9 JUMP JUMPDEST SWAP2 POP PUSH2 0x44E2 DUP3 PUSH2 0x44A1 JUMP JUMPDEST PUSH1 0x20 DUP3 ADD SWAP1 POP SWAP2 SWAP1 POP JUMP JUMPDEST PUSH1 0x0 PUSH1 0x20 DUP3 ADD SWAP1 POP DUP2 DUP2 SUB PUSH1 0x0 DUP4 ADD MSTORE PUSH2 0x4506 DUP2 PUSH2 0x44CA JUMP JUMPDEST SWAP1 POP SWAP2 SWAP1 POP JUMP JUMPDEST PUSH32 0x4552433732313A207472616E7366657220746F206E6F6E204552433732315265 PUSH1 0x0 DUP3 ADD MSTORE PUSH32 0x63656976657220696D706C656D656E7465720000000000000000000000000000 PUSH1 0x20 DUP3 ADD MSTORE POP JUMP JUMPDEST PUSH1 0x0 PUSH2 0x4569 PUSH1 0x32 DUP4 PUSH2 0x2EC9 JUMP JUMPDEST SWAP2 POP PUSH2 0x4574 DUP3 PUSH2 0x450D JUMP JUMPDEST PUSH1 0x40 DUP3 ADD SWAP1 POP SWAP2 SWAP1 POP JUMP JUMPDEST PUSH1 0x0 PUSH1 0x20 DUP3 ADD SWAP1 POP DUP2 DUP2 SUB PUSH1 0x0 DUP4 ADD MSTORE PUSH2 0x4598 DUP2 PUSH2 0x455C JUMP JUMPDEST SWAP1 POP SWAP2 SWAP1 POP JUMP JUMPDEST PUSH1 0x0 DUP2 MLOAD SWAP1 POP SWAP2 SWAP1 POP JUMP JUMPDEST PUSH1 0x0 DUP3 DUP3 MSTORE PUSH1 0x20 DUP3 ADD SWAP1 POP SWAP3 SWAP2 POP POP JUMP JUMPDEST PUSH1 0x0 PUSH2 0x45C6 DUP3 PUSH2 0x459F JUMP JUMPDEST PUSH2 0x45D0 DUP2 DUP6 PUSH2 0x45AA JUMP JUMPDEST SWAP4 POP PUSH2 0x45E0 DUP2 DUP6 PUSH1 0x20 DUP7 ADD PUSH2 0x2EDA JUMP JUMPDEST PUSH2 0x45E9 DUP2 PUSH2 0x2F04 JUMP JUMPDEST DUP5 ADD SWAP2 POP POP SWAP3 SWAP2 POP POP JUMP JUMPDEST PUSH1 0x0 PUSH1 0x80 DUP3 ADD SWAP1 POP PUSH2 0x4609 PUSH1 0x0 DUP4 ADD DUP8 PUSH2 0x312D JUMP JUMPDEST PUSH2 0x4616 PUSH1 0x20 DUP4 ADD DUP7 PUSH2 0x312D JUMP JUMPDEST PUSH2 0x4623 PUSH1 0x40 DUP4 ADD DUP6 PUSH2 0x31C3 JUMP JUMPDEST DUP2 DUP2 SUB PUSH1 0x60 DUP4 ADD MSTORE PUSH2 0x4635 DUP2 DUP5 PUSH2 0x45BB JUMP JUMPDEST SWAP1 POP SWAP6 SWAP5 POP POP POP POP POP JUMP JUMPDEST PUSH1 0x0 DUP2 MLOAD SWAP1 POP PUSH2 0x464F DUP2 PUSH2 0x2D34 JUMP JUMPDEST SWAP3 SWAP2 POP POP JUMP JUMPDEST PUSH1 0x0 PUSH1 0x20 DUP3 DUP5 SUB SLT ISZERO PUSH2 0x466B JUMPI PUSH2 0x466A PUSH2 0x2CFE JUMP JUMPDEST JUMPDEST PUSH1 0x0 PUSH2 0x4679 DUP5 DUP3 DUP6 ADD PUSH2 0x4640 JUMP JUMPDEST SWAP2 POP POP SWAP3 SWAP2 POP POP JUMP JUMPDEST PUSH32 0x4552433732313A206D696E7420746F20746865207A65726F2061646472657373 PUSH1 0x0 DUP3 ADD MSTORE POP JUMP JUMPDEST PUSH1 0x0 PUSH2 0x46B8 PUSH1 0x20 DUP4 PUSH2 0x2EC9 JUMP JUMPDEST SWAP2 POP PUSH2 0x46C3 DUP3 PUSH2 0x4682 JUMP JUMPDEST PUSH1 0x20 DUP3 ADD SWAP1 POP SWAP2 SWAP1 POP JUMP JUMPDEST PUSH1 0x0 PUSH1 0x20 DUP3 ADD SWAP1 POP DUP2 DUP2 SUB PUSH1 0x0 DUP4 ADD MSTORE PUSH2 0x46E7 DUP2 PUSH2 0x46AB JUMP JUMPDEST SWAP1 POP SWAP2 SWAP1 POP JUMP JUMPDEST PUSH32 0x4552433732313A20746F6B656E20616C7265616479206D696E74656400000000 PUSH1 0x0 DUP3 ADD MSTORE POP JUMP JUMPDEST PUSH1 0x0 PUSH2 0x4724 PUSH1 0x1C DUP4 PUSH2 0x2EC9 JUMP JUMPDEST SWAP2 POP PUSH2 0x472F DUP3 PUSH2 0x46EE JUMP JUMPDEST PUSH1 0x20 DUP3 ADD SWAP1 POP SWAP2 SWAP1 POP JUMP JUMPDEST PUSH1 0x0 PUSH1 0x20 DUP3 ADD SWAP1 POP DUP2 DUP2 SUB PUSH1 0x0 DUP4 ADD MSTORE PUSH2 0x4753 DUP2 PUSH2 0x4717 JUMP JUMPDEST SWAP1 POP SWAP2 SWAP1 POP JUMP INVALID LOG2 PUSH5 0x6970667358 0x22 SLT KECCAK256 0x2A PUSH25 0x616BDE1600E6AFF69033521AAA5332DF0518560ED98673838A CALLVALUE EXTCODECOPY 0xAA 0xA7 COINBASE PUSH5 0x736F6C6343 STOP ADDMOD SLT STOP CALLER MLOAD PUSH14 0x546B3473506F59796D70746B4B4E PC PUSH17 0x765341574B54373937473676594A656332 JUMPI GASLIMIT NUMBER CHAINID PC 0x4D PUSH14 0x54454552516D5666576B79684669 0x4D PUSH9 0x613744354164645250 CODESIZE CHAINID 0x4D SLOAD BALANCE PUSH26 0x765A7947435A7352397057317438314158676D00000000000000 "},"methodIdentifiers":{"approve(address,uint256)":"095ea7b3","availableNFTs()":"ea317fff","balanceOf(address)":"70a08231","bondMatureAmount()":"729a1a87","buyNFT(address,address,uint256,uint256)":"03c13380","calculateAccruedInterest()":"3fb3ff11","changeCharacterName(uint256,address,string)":"f1645238","getApproved(uint256)":"081812fc","getBaseURI()":"714c5398","getBondInfo()":"d5070b3e","getCharURI()":"a35e1370","getIssuer()":"52556421","getLatestId()":"eff91c7e","getMetadata(uint256)":"a574cea4","interestPaymentAmount()":"1ed54e78","isApprovedForAll(address,address)":"e985e9c5","isBondMatured()":"05f31572","isInterestTime()":"37e08699","matureCharacters()":"88456b7b","mintNFT(address,uint256,uint256)":"5a9d10a2","name()":"06fdde03","owner()":"8da5cb5b","ownerCollection(address)":"9c50da75","ownerOf(uint256)":"6352211e","renounceOwnership()":"715018a6","safeTransferFrom(address,address,uint256)":"42842e0e","safeTransferFrom(address,address,uint256,bytes)":"b88d4fde","setApprovalForAll(address,bool)":"a22cb465","setBaseURI(string)":"55f804b3","setCharURI(string)":"2b8c41f4","setInactiveBaseURI(string)":"a31b115f","setInactiveCharURI(string)":"0816a3e2","supportsInterface(bytes4)":"01ffc9a7","symbol()":"95d89b41","tokenURI(uint256)":"c87b56dd","transferFrom(address,address,uint256)":"23b872dd","transferOwnership(address)":"f2fde38b"}}}}}