{"contracts/EcoItems.sol":{"EcoItems":{"abi":[{"inputs":[],"stateMutability":"nonpayable","type":"constructor"},{"anonymous":false,"inputs":[{"indexed":true,"internalType":"address","name":"owner","type":"address"},{"indexed":true,"internalType":"address","name":"approved","type":"address"},{"indexed":true,"internalType":"uint256","name":"tokenId","type":"uint256"}],"name":"Approval","type":"event"},{"anonymous":false,"inputs":[{"indexed":true,"internalType":"address","name":"owner","type":"address"},{"indexed":true,"internalType":"address","name":"operator","type":"address"},{"indexed":false,"internalType":"bool","name":"approved","type":"bool"}],"name":"ApprovalForAll","type":"event"},{"anonymous":false,"inputs":[{"indexed":false,"internalType":"uint256","name":"_fromTokenId","type":"uint256"},{"indexed":false,"internalType":"uint256","name":"_toTokenId","type":"uint256"}],"name":"BatchMetadataUpdate","type":"event"},{"anonymous":false,"inputs":[{"indexed":false,"internalType":"uint256","name":"tokenId","type":"uint256"},{"indexed":false,"internalType":"address","name":"owner","type":"address"},{"indexed":false,"internalType":"uint8","name":"hp_boost","type":"uint8"},{"indexed":false,"internalType":"uint8","name":"ap_boost","type":"uint8"},{"indexed":false,"internalType":"uint8","name":"speed","type":"uint8"},{"indexed":false,"internalType":"uint8","name":"timeLimit","type":"uint8"}],"name":"EPotionMinted","type":"event"},{"anonymous":false,"inputs":[{"indexed":false,"internalType":"uint256","name":"tokenId","type":"uint256"},{"indexed":false,"internalType":"address","name":"owner","type":"address"},{"indexed":false,"internalType":"uint8","name":"speed","type":"uint8"},{"indexed":false,"internalType":"uint8","name":"ap_boost","type":"uint8"}],"name":"EWeaponMinted","type":"event"},{"anonymous":false,"inputs":[{"indexed":false,"internalType":"uint256","name":"_tokenId","type":"uint256"}],"name":"MetadataUpdate","type":"event"},{"anonymous":false,"inputs":[{"indexed":true,"internalType":"address","name":"previousOwner","type":"address"},{"indexed":true,"internalType":"address","name":"newOwner","type":"address"}],"name":"OwnershipTransferred","type":"event"},{"anonymous":false,"inputs":[{"indexed":true,"internalType":"address","name":"from","type":"address"},{"indexed":true,"internalType":"address","name":"to","type":"address"},{"indexed":true,"internalType":"uint256","name":"tokenId","type":"uint256"}],"name":"Transfer","type":"event"},{"inputs":[{"internalType":"address","name":"to","type":"address"},{"internalType":"uint256","name":"tokenId","type":"uint256"}],"name":"approve","outputs":[],"stateMutability":"nonpayable","type":"function"},{"inputs":[{"internalType":"address","name":"owner","type":"address"}],"name":"balanceOf","outputs":[{"internalType":"uint256","name":"","type":"uint256"}],"stateMutability":"view","type":"function"},{"inputs":[],"name":"baseURI","outputs":[{"internalType":"string","name":"","type":"string"}],"stateMutability":"view","type":"function"},{"inputs":[{"internalType":"uint256","name":"tokenId","type":"uint256"}],"name":"getApproved","outputs":[{"internalType":"address","name":"","type":"address"}],"stateMutability":"view","type":"function"},{"inputs":[{"internalType":"uint256","name":"tokenId","type":"uint256"}],"name":"getEPotionsData","outputs":[{"components":[{"internalType":"uint8","name":"hp_boost","type":"uint8"},{"internalType":"uint8","name":"ap_boost","type":"uint8"},{"internalType":"uint8","name":"speed","type":"uint8"},{"internalType":"uint8","name":"timeLimit","type":"uint8"}],"internalType":"struct EcoItems.EPotions","name":"","type":"tuple"}],"stateMutability":"view","type":"function"},{"inputs":[{"internalType":"uint256","name":"tokenId","type":"uint256"}],"name":"getEWeaponsData","outputs":[{"components":[{"internalType":"uint8","name":"speed","type":"uint8"},{"internalType":"uint8","name":"ap_boost","type":"uint8"}],"internalType":"struct EcoItems.EWeapons","name":"","type":"tuple"}],"stateMutability":"view","type":"function"},{"inputs":[{"internalType":"address","name":"owner","type":"address"},{"internalType":"address","name":"operator","type":"address"}],"name":"isApprovedForAll","outputs":[{"internalType":"bool","name":"","type":"bool"}],"stateMutability":"view","type":"function"},{"inputs":[{"internalType":"uint256","name":"","type":"uint256"}],"name":"items","outputs":[{"internalType":"uint256","name":"tokenId","type":"uint256"},{"internalType":"uint256","name":"mintedAt","type":"uint256"},{"internalType":"uint256","name":"listing_price","type":"uint256"},{"internalType":"address","name":"ownerId","type":"address"},{"internalType":"enum EcoItems.ItemType","name":"itemType","type":"uint8"},{"internalType":"bytes","name":"itemData","type":"bytes"}],"stateMutability":"view","type":"function"},{"inputs":[{"internalType":"uint8","name":"hp_boost","type":"uint8"},{"internalType":"uint8","name":"ap_boost","type":"uint8"},{"internalType":"uint8","name":"speed","type":"uint8"},{"internalType":"uint8","name":"timeLimit","type":"uint8"},{"internalType":"string","name":"tokenURI","type":"string"}],"name":"mintEPotionItem","outputs":[],"stateMutability":"nonpayable","type":"function"},{"inputs":[{"internalType":"uint8","name":"speed","type":"uint8"},{"internalType":"uint8","name":"ap_boost","type":"uint8"},{"internalType":"string","name":"tokenURI","type":"string"}],"name":"mintEWeaponItem","outputs":[],"stateMutability":"nonpayable","type":"function"},{"inputs":[],"name":"name","outputs":[{"internalType":"string","name":"","type":"string"}],"stateMutability":"view","type":"function"},{"inputs":[],"name":"owner","outputs":[{"internalType":"address","name":"","type":"address"}],"stateMutability":"view","type":"function"},{"inputs":[{"internalType":"uint256","name":"tokenId","type":"uint256"}],"name":"ownerOf","outputs":[{"internalType":"address","name":"","type":"address"}],"stateMutability":"view","type":"function"},{"inputs":[],"name":"renounceOwnership","outputs":[],"stateMutability":"nonpayable","type":"function"},{"inputs":[{"internalType":"address","name":"from","type":"address"},{"internalType":"address","name":"to","type":"address"},{"internalType":"uint256","name":"tokenId","type":"uint256"}],"name":"safeTransferFrom","outputs":[],"stateMutability":"nonpayable","type":"function"},{"inputs":[{"internalType":"address","name":"from","type":"address"},{"internalType":"address","name":"to","type":"address"},{"internalType":"uint256","name":"tokenId","type":"uint256"},{"internalType":"bytes","name":"data","type":"bytes"}],"name":"safeTransferFrom","outputs":[],"stateMutability":"nonpayable","type":"function"},{"inputs":[{"internalType":"address","name":"operator","type":"address"},{"internalType":"bool","name":"approved","type":"bool"}],"name":"setApprovalForAll","outputs":[],"stateMutability":"nonpayable","type":"function"},{"inputs":[{"internalType":"string","name":"newURI","type":"string"}],"name":"setBaseURI","outputs":[],"stateMutability":"nonpayable","type":"function"},{"inputs":[{"internalType":"bytes4","name":"interfaceId","type":"bytes4"}],"name":"supportsInterface","outputs":[{"internalType":"bool","name":"","type":"bool"}],"stateMutability":"view","type":"function"},{"inputs":[],"name":"symbol","outputs":[{"internalType":"string","name":"","type":"string"}],"stateMutability":"view","type":"function"},{"inputs":[{"internalType":"uint256","name":"tokenId","type":"uint256"}],"name":"tokenURI","outputs":[{"internalType":"string","name":"","type":"string"}],"stateMutability":"view","type":"function"},{"inputs":[],"name":"totalSupply","outputs":[{"internalType":"uint256","name":"","type":"uint256"}],"stateMutability":"view","type":"function"},{"inputs":[{"internalType":"address","name":"from","type":"address"},{"internalType":"address","name":"to","type":"address"},{"internalType":"uint256","name":"tokenId","type":"uint256"}],"name":"transferFrom","outputs":[],"stateMutability":"nonpayable","type":"function"},{"inputs":[{"internalType":"address","name":"newOwner","type":"address"}],"name":"transferOwnership","outputs":[],"stateMutability":"nonpayable","type":"function"}],"evm":{"bytecode":{"linkReferences":{},"object":"608060405260405180602001604052806000815250600990816200002491906200043b565b503480156200003257600080fd5b506040518060400160405280600881526020017f45636f4974656d730000000000000000000000000000000000000000000000008152506040518060400160405280600281526020017f45490000000000000000000000000000000000000000000000000000000000008152508160009081620000b091906200043b565b508060019081620000c291906200043b565b505050620000e5620000d9620000f360201b60201c565b620000fb60201b60201c565b6000600a8190555062000522565b600033905090565b6000600760009054906101000a900473ffffffffffffffffffffffffffffffffffffffff16905081600760006101000a81548173ffffffffffffffffffffffffffffffffffffffff021916908373ffffffffffffffffffffffffffffffffffffffff1602179055508173ffffffffffffffffffffffffffffffffffffffff168173ffffffffffffffffffffffffffffffffffffffff167f8be0079c531659141344cd1fd0a4f28419497f9722a3daafe3b4186f6b6457e060405160405180910390a35050565b600081519050919050565b7f4e487b7100000000000000000000000000000000000000000000000000000000600052604160045260246000fd5b7f4e487b7100000000000000000000000000000000000000000000000000000000600052602260045260246000fd5b600060028204905060018216806200024357607f821691505b602082108103620002595762000258620001fb565b5b50919050565b60008190508160005260206000209050919050565b60006020601f8301049050919050565b600082821b905092915050565b600060088302620002c37fffffffffffffffffffffffffffffffffffffffffffffffffffffffffffffffff8262000284565b620002cf868362000284565b95508019841693508086168417925050509392505050565b6000819050919050565b6000819050919050565b60006200031c620003166200031084620002e7565b620002f1565b620002e7565b9050919050565b6000819050919050565b6200033883620002fb565b62000350620003478262000323565b84845462000291565b825550505050565b600090565b6200036762000358565b620003748184846200032d565b505050565b5b818110156200039c57620003906000826200035d565b6001810190506200037a565b5050565b601f821115620003eb57620003b5816200025f565b620003c08462000274565b81016020851015620003d0578190505b620003e8620003df8562000274565b83018262000379565b50505b505050565b600082821c905092915050565b60006200041060001984600802620003f0565b1980831691505092915050565b60006200042b8383620003fd565b9150826002028217905092915050565b6200044682620001c1565b67ffffffffffffffff811115620004625762000461620001cc565b5b6200046e82546200022a565b6200047b828285620003a0565b600060209050601f831160018114620004b357600084156200049e578287015190505b620004aa85826200041d565b8655506200051a565b601f198416620004c3866200025f565b60005b82811015620004ed57848901518255600182019150602085019450602081019050620004c6565b868310156200050d578489015162000509601f891682620003fd565b8355505b6001600288020188555050505b505050505050565b613f7b80620005326000396000f3fe608060405234801561001057600080fd5b50600436106101585760003560e01c806370a08231116100c3578063a22cb4651161007c578063a22cb465146103c5578063b88d4fde146103e1578063bfb231d2146103fd578063c87b56dd14610432578063e985e9c514610462578063f2fde38b1461049257610158565b806370a0823114610303578063715018a614610333578063727bc4b11461033d5780637ce6f18b1461036d5780638da5cb5b1461038957806395d89b41146103a757610158565b806323b872dd1161011557806323b872dd1461023157806342842e0e1461024d57806349d5462e1461026957806355f804b3146102995780636352211e146102b55780636c0360eb146102e557610158565b806301ffc9a71461015d57806306fdde031461018d578063081812fc146101ab578063095ea7b3146101db57806318160ddd146101f7578063210d8aa914610215575b600080fd5b610177600480360381019061017291906126ab565b6104ae565b60405161018491906126f3565b60405180910390f35b61019561050f565b6040516101a2919061279e565b60405180910390f35b6101c560048036038101906101c091906127f6565b6105a1565b6040516101d29190612864565b60405180910390f35b6101f560048036038101906101f091906128ab565b6105e7565b005b6101ff6106fe565b60405161020c91906128fa565b60405180910390f35b61022f600480360381019061022a9190612a83565b610708565b005b61024b60048036038101906102469190612af2565b6108ee565b005b61026760048036038101906102629190612af2565b61094e565b005b610283600480360381019061027e91906127f6565b61096e565b6040516102909190612ba9565b60405180910390f35b6102b360048036038101906102ae9190612bc4565b610aad565b005b6102cf60048036038101906102ca91906127f6565b610ac8565b6040516102dc9190612864565b60405180910390f35b6102ed610b4e565b6040516102fa919061279e565b60405180910390f35b61031d60048036038101906103189190612c0d565b610bdc565b60405161032a91906128fa565b60405180910390f35b61033b610c93565b005b610357600480360381019061035291906127f6565b610ca7565b6040516103649190612c69565b60405180910390f35b61038760048036038101906103829190612c84565b610de7565b005b610391610fe4565b60405161039e9190612864565b60405180910390f35b6103af61100e565b6040516103bc919061279e565b60405180910390f35b6103df60048036038101906103da9190612d47565b6110a0565b005b6103fb60048036038101906103f69190612e28565b6110b6565b005b610417600480360381019061041291906127f6565b611118565b60405161042996959493929190612f77565b60405180910390f35b61044c600480360381019061044791906127f6565b611209565b604051610459919061279e565b60405180910390f35b61047c60048036038101906104779190612fdf565b61131b565b60405161048991906126f3565b60405180910390f35b6104ac60048036038101906104a79190612c0d565b6113af565b005b6000634906490660e01b7bffffffffffffffffffffffffffffffffffffffffffffffffffffffff1916827bffffffffffffffffffffffffffffffffffffffffffffffffffffffff19161480610508575061050782611432565b5b9050919050565b60606000805461051e9061304e565b80601f016020809104026020016040519081016040528092919081815260200182805461054a9061304e565b80156105975780601f1061056c57610100808354040283529160200191610597565b820191906000526020600020905b81548152906001019060200180831161057a57829003601f168201915b5050505050905090565b60006105ac82611514565b6004600083815260200190815260200160002060009054906101000a900473ffffffffffffffffffffffffffffffffffffffff169050919050565b60006105f282610ac8565b90508073ffffffffffffffffffffffffffffffffffffffff168373ffffffffffffffffffffffffffffffffffffffff1603610662576040517f08c379a0000000000000000000000000000000000000000000000000000000008152600401610659906130f1565b60405180910390fd5b8073ffffffffffffffffffffffffffffffffffffffff1661068161155f565b73ffffffffffffffffffffffffffffffffffffffff1614806106b057506106af816106aa61155f565b61131b565b5b6106ef576040517f08c379a00000000000000000000000000000000000000000000000000000000081526004016106e690613183565b60405180910390fd5b6106f98383611567565b505050565b6000600a54905090565b610710611620565b61071a600861169e565b600061072660086116b4565b9050600060405180604001604052808660ff1681526020018560ff168152506040516020016107559190612c69565b604051602081830303815290604052905061077033836116c2565b61077a82846118df565b6040518060c00160405280838152602001428152602001600081526020013373ffffffffffffffffffffffffffffffffffffffff168152602001600060018111156107c8576107c7612eab565b5b815260200182815250600b600084815260200190815260200160002060008201518160000155602082015181600101556040820151816002015560608201518160030160006101000a81548173ffffffffffffffffffffffffffffffffffffffff021916908373ffffffffffffffffffffffffffffffffffffffff16021790555060808201518160030160146101000a81548160ff0219169083600181111561087457610873612eab565b5b021790555060a082015181600401908161088e919061334f565b50905050600a60008154809291906108a590613450565b91905055507f8854a0dbeefc65a1a3f77767c246f6cfe6bea95a0de4964885898083921d770f823387876040516108df94939291906134a7565b60405180910390a15050505050565b6108ff6108f961155f565b82611983565b61093e576040517f08c379a00000000000000000000000000000000000000000000000000000000081526004016109359061355e565b60405180910390fd5b610949838383611a18565b505050565b610969838383604051806020016040528060008152506110b6565b505050565b6109766125eb565b60018081111561098957610988612eab565b5b600b600084815260200190815260200160002060030160149054906101000a900460ff1660018111156109bf576109be612eab565b5b146109ff576040517f08c379a00000000000000000000000000000000000000000000000000000000081526004016109f6906135ca565b60405180910390fd5b610aa6600b60008481526020019081526020016000206004018054610a239061304e565b80601f0160208091040260200160405190810160405280929190818152602001828054610a4f9061304e565b8015610a9c5780601f10610a7157610100808354040283529160200191610a9c565b820191906000526020600020905b815481529060010190602001808311610a7f57829003601f168201915b5050505050611a7d565b9050919050565b610ab5611620565b8060099081610ac49190613645565b5050565b600080610ad483611adf565b9050600073ffffffffffffffffffffffffffffffffffffffff168173ffffffffffffffffffffffffffffffffffffffff1603610b45576040517f08c379a0000000000000000000000000000000000000000000000000000000008152600401610b3c90613763565b60405180910390fd5b80915050919050565b60098054610b5b9061304e565b80601f0160208091040260200160405190810160405280929190818152602001828054610b879061304e565b8015610bd45780601f10610ba957610100808354040283529160200191610bd4565b820191906000526020600020905b815481529060010190602001808311610bb757829003601f168201915b505050505081565b60008073ffffffffffffffffffffffffffffffffffffffff168273ffffffffffffffffffffffffffffffffffffffff1603610c4c576040517f08c379a0000000000000000000000000000000000000000000000000000000008152600401610c43906137f5565b60405180910390fd5b600360008373ffffffffffffffffffffffffffffffffffffffff1673ffffffffffffffffffffffffffffffffffffffff168152602001908152602001600020549050919050565b610c9b611620565b610ca56000611b1c565b565b610caf61261f565b60006001811115610cc357610cc2612eab565b5b600b600084815260200190815260200160002060030160149054906101000a900460ff166001811115610cf957610cf8612eab565b5b14610d39576040517f08c379a0000000000000000000000000000000000000000000000000000000008152600401610d3090613861565b60405180910390fd5b610de0600b60008481526020019081526020016000206004018054610d5d9061304e565b80601f0160208091040260200160405190810160405280929190818152602001828054610d899061304e565b8015610dd65780601f10610dab57610100808354040283529160200191610dd6565b820191906000526020600020905b815481529060010190602001808311610db957829003601f168201915b5050505050611be2565b9050919050565b610def611620565b610df9600861169e565b6000610e0560086116b4565b9050600060405180608001604052808860ff1681526020018760ff1681526020018660ff1681526020018560ff16815250604051602001610e469190612ba9565b6040516020818303038152906040529050610e6133836116c2565b610e6b82846118df565b6040518060c00160405280838152602001428152602001600081526020013373ffffffffffffffffffffffffffffffffffffffff168152602001600180811115610eb857610eb7612eab565b5b815260200182815250600b600084815260200190815260200160002060008201518160000155602082015181600101556040820151816002015560608201518160030160006101000a81548173ffffffffffffffffffffffffffffffffffffffff021916908373ffffffffffffffffffffffffffffffffffffffff16021790555060808201518160030160146101000a81548160ff02191690836001811115610f6457610f63612eab565b5b021790555060a0820151816004019081610f7e919061334f565b50905050600a6000815480929190610f9590613450565b91905055507f96307455e81c46b8f48fb0d5da9cb09f77ec826c16f3cf971688379f43e2cc92823389898989604051610fd396959493929190613881565b60405180910390a150505050505050565b6000600760009054906101000a900473ffffffffffffffffffffffffffffffffffffffff16905090565b60606001805461101d9061304e565b80601f01602080910402602001604051908101604052809291908181526020018280546110499061304e565b80156110965780601f1061106b57610100808354040283529160200191611096565b820191906000526020600020905b81548152906001019060200180831161107957829003601f168201915b5050505050905090565b6110b26110ab61155f565b8383611c29565b5050565b6110c76110c161155f565b83611983565b611106576040517f08c379a00000000000000000000000000000000000000000000000000000000081526004016110fd9061355e565b60405180910390fd5b61111284848484611d95565b50505050565b600b6020528060005260406000206000915090508060000154908060010154908060020154908060030160009054906101000a900473ffffffffffffffffffffffffffffffffffffffff16908060030160149054906101000a900460ff16908060040180546111869061304e565b80601f01602080910402602001604051908101604052809291908181526020018280546111b29061304e565b80156111ff5780601f106111d4576101008083540402835291602001916111ff565b820191906000526020600020905b8154815290600101906020018083116111e257829003601f168201915b5050505050905086565b606061121482611514565b60006006600084815260200190815260200160002080546112349061304e565b80601f01602080910402602001604051908101604052809291908181526020018280546112609061304e565b80156112ad5780601f10611282576101008083540402835291602001916112ad565b820191906000526020600020905b81548152906001019060200180831161129057829003601f168201915b5050505050905060006112be611df1565b905060008151036112d3578192505050611316565b6000825111156113085780826040516020016112f092919061391e565b60405160208183030381529060405292505050611316565b61131184611e08565b925050505b919050565b6000600560008473ffffffffffffffffffffffffffffffffffffffff1673ffffffffffffffffffffffffffffffffffffffff16815260200190815260200160002060008373ffffffffffffffffffffffffffffffffffffffff1673ffffffffffffffffffffffffffffffffffffffff16815260200190815260200160002060009054906101000a900460ff16905092915050565b6113b7611620565b600073ffffffffffffffffffffffffffffffffffffffff168173ffffffffffffffffffffffffffffffffffffffff1603611426576040517f08c379a000000000000000000000000000000000000000000000000000000000815260040161141d906139b4565b60405180910390fd5b61142f81611b1c565b50565b60007f80ac58cd000000000000000000000000000000000000000000000000000000007bffffffffffffffffffffffffffffffffffffffffffffffffffffffff1916827bffffffffffffffffffffffffffffffffffffffffffffffffffffffff191614806114fd57507f5b5e139f000000000000000000000000000000000000000000000000000000007bffffffffffffffffffffffffffffffffffffffffffffffffffffffff1916827bffffffffffffffffffffffffffffffffffffffffffffffffffffffff1916145b8061150d575061150c82611e70565b5b9050919050565b61151d81611eda565b61155c576040517f08c379a000000000000000000000000000000000000000000000000000000000815260040161155390613763565b60405180910390fd5b50565b600033905090565b816004600083815260200190815260200160002060006101000a81548173ffffffffffffffffffffffffffffffffffffffff021916908373ffffffffffffffffffffffffffffffffffffffff160217905550808273ffffffffffffffffffffffffffffffffffffffff166115da83610ac8565b73ffffffffffffffffffffffffffffffffffffffff167f8c5be1e5ebec7d5bd14f71427d1e84f3dd0314c0f7b2291e5b200ac8c7c3b92560405160405180910390a45050565b61162861155f565b73ffffffffffffffffffffffffffffffffffffffff16611646610fe4565b73ffffffffffffffffffffffffffffffffffffffff161461169c576040517f08c379a000000000000000000000000000000000000000000000000000000000815260040161169390613a20565b60405180910390fd5b565b6001816000016000828254019250508190555050565b600081600001549050919050565b600073ffffffffffffffffffffffffffffffffffffffff168273ffffffffffffffffffffffffffffffffffffffff1603611731576040517f08c379a000000000000000000000000000000000000000000000000000000000815260040161172890613a8c565b60405180910390fd5b61173a81611eda565b1561177a576040517f08c379a000000000000000000000000000000000000000000000000000000000815260040161177190613af8565b60405180910390fd5b611788600083836001611f1b565b61179181611eda565b156117d1576040517f08c379a00000000000000000000000000000000000000000000000000000000081526004016117c890613af8565b60405180910390fd5b6001600360008473ffffffffffffffffffffffffffffffffffffffff1673ffffffffffffffffffffffffffffffffffffffff16815260200190815260200160002060008282540192505081905550816002600083815260200190815260200160002060006101000a81548173ffffffffffffffffffffffffffffffffffffffff021916908373ffffffffffffffffffffffffffffffffffffffff160217905550808273ffffffffffffffffffffffffffffffffffffffff16600073ffffffffffffffffffffffffffffffffffffffff167fddf252ad1be2c89b69c2b068fc378daa952ba7f163c4a11628f55a4df523b3ef60405160405180910390a46118db600083836001611f21565b5050565b6118e882611eda565b611927576040517f08c379a000000000000000000000000000000000000000000000000000000000815260040161191e90613b8a565b60405180910390fd5b806006600084815260200190815260200160002090816119479190613645565b507ff8e1a15aba9398e019f0b49df1a4fde98ee17ae345cb5f6b5e2c27f5033e8ce78260405161197791906128fa565b60405180910390a15050565b60008061198f83610ac8565b90508073ffffffffffffffffffffffffffffffffffffffff168473ffffffffffffffffffffffffffffffffffffffff1614806119d157506119d0818561131b565b5b80611a0f57508373ffffffffffffffffffffffffffffffffffffffff166119f7846105a1565b73ffffffffffffffffffffffffffffffffffffffff16145b91505092915050565b611a23838383611f27565b81600b600083815260200190815260200160002060030160006101000a81548173ffffffffffffffffffffffffffffffffffffffff021916908373ffffffffffffffffffffffffffffffffffffffff160217905550505050565b611a856125eb565b60008060008085806020019051810190611a9f9190613bbf565b935093509350935060405180608001604052808560ff1681526020018460ff1681526020018360ff1681526020018260ff16815250945050505050919050565b60006002600083815260200190815260200160002060009054906101000a900473ffffffffffffffffffffffffffffffffffffffff169050919050565b6000600760009054906101000a900473ffffffffffffffffffffffffffffffffffffffff16905081600760006101000a81548173ffffffffffffffffffffffffffffffffffffffff021916908373ffffffffffffffffffffffffffffffffffffffff1602179055508173ffffffffffffffffffffffffffffffffffffffff168173ffffffffffffffffffffffffffffffffffffffff167f8be0079c531659141344cd1fd0a4f28419497f9722a3daafe3b4186f6b6457e060405160405180910390a35050565b611bea61261f565b60008083806020019051810190611c019190613c26565b9150915060405180604001604052808360ff1681526020018260ff1681525092505050919050565b8173ffffffffffffffffffffffffffffffffffffffff168373ffffffffffffffffffffffffffffffffffffffff1603611c97576040517f08c379a0000000000000000000000000000000000000000000000000000000008152600401611c8e90613cb2565b60405180910390fd5b80600560008573ffffffffffffffffffffffffffffffffffffffff1673ffffffffffffffffffffffffffffffffffffffff16815260200190815260200160002060008473ffffffffffffffffffffffffffffffffffffffff1673ffffffffffffffffffffffffffffffffffffffff16815260200190815260200160002060006101000a81548160ff0219169083151502179055508173ffffffffffffffffffffffffffffffffffffffff168373ffffffffffffffffffffffffffffffffffffffff167f17307eab39ab6107e8899845ad3d59bd9653f200f220920489ca2b5937696c3183604051611d8891906126f3565b60405180910390a3505050565b611da0848484611a18565b611dac84848484612220565b611deb576040517f08c379a0000000000000000000000000000000000000000000000000000000008152600401611de290613d44565b60405180910390fd5b50505050565b606060405180602001604052806000815250905090565b6060611e1382611514565b6000611e1d611df1565b90506000815111611e3d5760405180602001604052806000815250611e68565b80611e47846123a7565b604051602001611e5892919061391e565b6040516020818303038152906040525b915050919050565b60007f01ffc9a7000000000000000000000000000000000000000000000000000000007bffffffffffffffffffffffffffffffffffffffffffffffffffffffff1916827bffffffffffffffffffffffffffffffffffffffffffffffffffffffff1916149050919050565b60008073ffffffffffffffffffffffffffffffffffffffff16611efc83611adf565b73ffffffffffffffffffffffffffffffffffffffff1614159050919050565b50505050565b50505050565b8273ffffffffffffffffffffffffffffffffffffffff16611f4782610ac8565b73ffffffffffffffffffffffffffffffffffffffff1614611f9d576040517f08c379a0000000000000000000000000000000000000000000000000000000008152600401611f9490613dd6565b60405180910390fd5b600073ffffffffffffffffffffffffffffffffffffffff168273ffffffffffffffffffffffffffffffffffffffff160361200c576040517f08c379a000000000000000000000000000000000000000000000000000000000815260040161200390613e68565b60405180910390fd5b6120198383836001611f1b565b8273ffffffffffffffffffffffffffffffffffffffff1661203982610ac8565b73ffffffffffffffffffffffffffffffffffffffff161461208f576040517f08c379a000000000000000000000000000000000000000000000000000000000815260040161208690613dd6565b60405180910390fd5b6004600082815260200190815260200160002060006101000a81549073ffffffffffffffffffffffffffffffffffffffff02191690556001600360008573ffffffffffffffffffffffffffffffffffffffff1673ffffffffffffffffffffffffffffffffffffffff168152602001908152602001600020600082825403925050819055506001600360008473ffffffffffffffffffffffffffffffffffffffff1673ffffffffffffffffffffffffffffffffffffffff16815260200190815260200160002060008282540192505081905550816002600083815260200190815260200160002060006101000a81548173ffffffffffffffffffffffffffffffffffffffff021916908373ffffffffffffffffffffffffffffffffffffffff160217905550808273ffffffffffffffffffffffffffffffffffffffff168473ffffffffffffffffffffffffffffffffffffffff167fddf252ad1be2c89b69c2b068fc378daa952ba7f163c4a11628f55a4df523b3ef60405160405180910390a461221b8383836001611f21565b505050565b60006122418473ffffffffffffffffffffffffffffffffffffffff16612475565b1561239a578373ffffffffffffffffffffffffffffffffffffffff1663150b7a0261226a61155f565b8786866040518563ffffffff1660e01b815260040161228c9493929190613e88565b6020604051808303816000875af19250505080156122c857506040513d601f19601f820116820180604052508101906122c59190613ee9565b60015b61234a573d80600081146122f8576040519150601f19603f3d011682016040523d82523d6000602084013e6122fd565b606091505b506000815103612342576040517f08c379a000000000000000000000000000000000000000000000000000000000815260040161233990613d44565b60405180910390fd5b805181602001fd5b63150b7a0260e01b7bffffffffffffffffffffffffffffffffffffffffffffffffffffffff1916817bffffffffffffffffffffffffffffffffffffffffffffffffffffffff19161491505061239f565b600190505b949350505050565b6060600060016123b684612498565b01905060008167ffffffffffffffff8111156123d5576123d4612958565b5b6040519080825280601f01601f1916602001820160405280156124075781602001600182028036833780820191505090505b509050600082602001820190505b60011561246a578080600190039150507f3031323334353637383961626364656600000000000000000000000000000000600a86061a8153600a858161245e5761245d613f16565b5b04945060008503612415575b819350505050919050565b6000808273ffffffffffffffffffffffffffffffffffffffff163b119050919050565b600080600090507a184f03e93ff9f4daa797ed6e38ed64bf6a1f01000000000000000083106124f6577a184f03e93ff9f4daa797ed6e38ed64bf6a1f01000000000000000083816124ec576124eb613f16565b5b0492506040810190505b6d04ee2d6d415b85acef81000000008310612533576d04ee2d6d415b85acef8100000000838161252957612528613f16565b5b0492506020810190505b662386f26fc10000831061256257662386f26fc10000838161255857612557613f16565b5b0492506010810190505b6305f5e100831061258b576305f5e100838161258157612580613f16565b5b0492506008810190505b61271083106125b05761271083816125a6576125a5613f16565b5b0492506004810190505b606483106125d357606483816125c9576125c8613f16565b5b0492506002810190505b600a83106125e2576001810190505b80915050919050565b6040518060800160405280600060ff168152602001600060ff168152602001600060ff168152602001600060ff1681525090565b6040518060400160405280600060ff168152602001600060ff1681525090565b6000604051905090565b600080fd5b600080fd5b60007fffffffff0000000000000000000000000000000000000000000000000000000082169050919050565b61268881612653565b811461269357600080fd5b50565b6000813590506126a58161267f565b92915050565b6000602082840312156126c1576126c0612649565b5b60006126cf84828501612696565b91505092915050565b60008115159050919050565b6126ed816126d8565b82525050565b600060208201905061270860008301846126e4565b92915050565b600081519050919050565b600082825260208201905092915050565b60005b8381101561274857808201518184015260208101905061272d565b60008484015250505050565b6000601f19601f8301169050919050565b60006127708261270e565b61277a8185612719565b935061278a81856020860161272a565b61279381612754565b840191505092915050565b600060208201905081810360008301526127b88184612765565b905092915050565b6000819050919050565b6127d3816127c0565b81146127de57600080fd5b50565b6000813590506127f0816127ca565b92915050565b60006020828403121561280c5761280b612649565b5b600061281a848285016127e1565b91505092915050565b600073ffffffffffffffffffffffffffffffffffffffff82169050919050565b600061284e82612823565b9050919050565b61285e81612843565b82525050565b60006020820190506128796000830184612855565b92915050565b61288881612843565b811461289357600080fd5b50565b6000813590506128a58161287f565b92915050565b600080604083850312156128c2576128c1612649565b5b60006128d085828601612896565b92505060206128e1858286016127e1565b9150509250929050565b6128f4816127c0565b82525050565b600060208201905061290f60008301846128eb565b92915050565b600060ff82169050919050565b61292b81612915565b811461293657600080fd5b50565b60008135905061294881612922565b92915050565b600080fd5b600080fd5b7f4e487b7100000000000000000000000000000000000000000000000000000000600052604160045260246000fd5b61299082612754565b810181811067ffffffffffffffff821117156129af576129ae612958565b5b80604052505050565b60006129c261263f565b90506129ce8282612987565b919050565b600067ffffffffffffffff8211156129ee576129ed612958565b5b6129f782612754565b9050602081019050919050565b82818337600083830152505050565b6000612a26612a21846129d3565b6129b8565b905082815260208101848484011115612a4257612a41612953565b5b612a4d848285612a04565b509392505050565b600082601f830112612a6a57612a6961294e565b5b8135612a7a848260208601612a13565b91505092915050565b600080600060608486031215612a9c57612a9b612649565b5b6000612aaa86828701612939565b9350506020612abb86828701612939565b925050604084013567ffffffffffffffff811115612adc57612adb61264e565b5b612ae886828701612a55565b9150509250925092565b600080600060608486031215612b0b57612b0a612649565b5b6000612b1986828701612896565b9350506020612b2a86828701612896565b9250506040612b3b868287016127e1565b9150509250925092565b612b4e81612915565b82525050565b608082016000820151612b6a6000850182612b45565b506020820151612b7d6020850182612b45565b506040820151612b906040850182612b45565b506060820151612ba36060850182612b45565b50505050565b6000608082019050612bbe6000830184612b54565b92915050565b600060208284031215612bda57612bd9612649565b5b600082013567ffffffffffffffff811115612bf857612bf761264e565b5b612c0484828501612a55565b91505092915050565b600060208284031215612c2357612c22612649565b5b6000612c3184828501612896565b91505092915050565b604082016000820151612c506000850182612b45565b506020820151612c636020850182612b45565b50505050565b6000604082019050612c7e6000830184612c3a565b92915050565b600080600080600060a08688031215612ca057612c9f612649565b5b6000612cae88828901612939565b9550506020612cbf88828901612939565b9450506040612cd088828901612939565b9350506060612ce188828901612939565b925050608086013567ffffffffffffffff811115612d0257612d0161264e565b5b612d0e88828901612a55565b9150509295509295909350565b612d24816126d8565b8114612d2f57600080fd5b50565b600081359050612d4181612d1b565b92915050565b60008060408385031215612d5e57612d5d612649565b5b6000612d6c85828601612896565b9250506020612d7d85828601612d32565b9150509250929050565b600067ffffffffffffffff821115612da257612da1612958565b5b612dab82612754565b9050602081019050919050565b6000612dcb612dc684612d87565b6129b8565b905082815260208101848484011115612de757612de6612953565b5b612df2848285612a04565b509392505050565b600082601f830112612e0f57612e0e61294e565b5b8135612e1f848260208601612db8565b91505092915050565b60008060008060808587031215612e4257612e41612649565b5b6000612e5087828801612896565b9450506020612e6187828801612896565b9350506040612e72878288016127e1565b925050606085013567ffffffffffffffff811115612e9357612e9261264e565b5b612e9f87828801612dfa565b91505092959194509250565b7f4e487b7100000000000000000000000000000000000000000000000000000000600052602160045260246000fd5b60028110612eeb57612eea612eab565b5b50565b6000819050612efc82612eda565b919050565b6000612f0c82612eee565b9050919050565b612f1c81612f01565b82525050565b600081519050919050565b600082825260208201905092915050565b6000612f4982612f22565b612f538185612f2d565b9350612f6381856020860161272a565b612f6c81612754565b840191505092915050565b600060c082019050612f8c60008301896128eb565b612f9960208301886128eb565b612fa660408301876128eb565b612fb36060830186612855565b612fc06080830185612f13565b81810360a0830152612fd28184612f3e565b9050979650505050505050565b60008060408385031215612ff657612ff5612649565b5b600061300485828601612896565b925050602061301585828601612896565b9150509250929050565b7f4e487b7100000000000000000000000000000000000000000000000000000000600052602260045260246000fd5b6000600282049050600182168061306657607f821691505b6020821081036130795761307861301f565b5b50919050565b7f4552433732313a20617070726f76616c20746f2063757272656e74206f776e6560008201527f7200000000000000000000000000000000000000000000000000000000000000602082015250565b60006130db602183612719565b91506130e68261307f565b604082019050919050565b6000602082019050818103600083015261310a816130ce565b9050919050565b7f4552433732313a20617070726f76652063616c6c6572206973206e6f7420746f60008201527f6b656e206f776e6572206f7220617070726f76656420666f7220616c6c000000602082015250565b600061316d603d83612719565b915061317882613111565b604082019050919050565b6000602082019050818103600083015261319c81613160565b9050919050565b60008190508160005260206000209050919050565b60006020601f8301049050919050565b600082821b905092915050565b6000600883026132057fffffffffffffffffffffffffffffffffffffffffffffffffffffffffffffffff826131c8565b61320f86836131c8565b95508019841693508086168417925050509392505050565b6000819050919050565b600061324c613247613242846127c0565b613227565b6127c0565b9050919050565b6000819050919050565b61326683613231565b61327a61327282613253565b8484546131d5565b825550505050565b600090565b61328f613282565b61329a81848461325d565b505050565b5b818110156132be576132b3600082613287565b6001810190506132a0565b5050565b601f821115613303576132d4816131a3565b6132dd846131b8565b810160208510156132ec578190505b6133006132f8856131b8565b83018261329f565b50505b505050565b600082821c905092915050565b600061332660001984600802613308565b1980831691505092915050565b600061333f8383613315565b9150826002028217905092915050565b61335882612f22565b67ffffffffffffffff81111561337157613370612958565b5b61337b825461304e565b6133868282856132c2565b600060209050601f8311600181146133b957600084156133a7578287015190505b6133b18582613333565b865550613419565b601f1984166133c7866131a3565b60005b828110156133ef578489015182556001820191506020850194506020810190506133ca565b8683101561340c5784890151613408601f891682613315565b8355505b6001600288020188555050505b505050505050565b7f4e487b7100000000000000000000000000000000000000000000000000000000600052601160045260246000fd5b600061345b826127c0565b91507fffffffffffffffffffffffffffffffffffffffffffffffffffffffffffffffff820361348d5761348c613421565b5b600182019050919050565b6134a181612915565b82525050565b60006080820190506134bc60008301876128eb565b6134c96020830186612855565b6134d66040830185613498565b6134e36060830184613498565b95945050505050565b7f4552433732313a2063616c6c6572206973206e6f7420746f6b656e206f776e6560008201527f72206f7220617070726f76656400000000000000000000000000000000000000602082015250565b6000613548602d83612719565b9150613553826134ec565b604082019050919050565b600060208201905081810360008301526135778161353b565b9050919050565b7f4e6f7420616e2045506f74696f6e73206974656d000000000000000000000000600082015250565b60006135b4601483612719565b91506135bf8261357e565b602082019050919050565b600060208201905081810360008301526135e3816135a7565b9050919050565b60008190508160005260206000209050919050565b601f82111561364057613611816135ea565b61361a846131b8565b81016020851015613629578190505b61363d613635856131b8565b83018261329f565b50505b505050565b61364e8261270e565b67ffffffffffffffff81111561366757613666612958565b5b613671825461304e565b61367c8282856135ff565b600060209050601f8311600181146136af576000841561369d578287015190505b6136a78582613333565b86555061370f565b601f1984166136bd866135ea565b60005b828110156136e5578489015182556001820191506020850194506020810190506136c0565b8683101561370257848901516136fe601f891682613315565b8355505b6001600288020188555050505b505050505050565b7f4552433732313a20696e76616c696420746f6b656e2049440000000000000000600082015250565b600061374d601883612719565b915061375882613717565b602082019050919050565b6000602082019050818103600083015261377c81613740565b9050919050565b7f4552433732313a2061646472657373207a65726f206973206e6f74206120766160008201527f6c6964206f776e65720000000000000000000000000000000000000000000000602082015250565b60006137df602983612719565b91506137ea82613783565b604082019050919050565b6000602082019050818103600083015261380e816137d2565b9050919050565b7f4e6f7420616e2045576561706f6e73206974656d000000000000000000000000600082015250565b600061384b601483612719565b915061385682613815565b602082019050919050565b6000602082019050818103600083015261387a8161383e565b9050919050565b600060c08201905061389660008301896128eb565b6138a36020830188612855565b6138b06040830187613498565b6138bd6060830186613498565b6138ca6080830185613498565b6138d760a0830184613498565b979650505050505050565b600081905092915050565b60006138f88261270e565b61390281856138e2565b935061391281856020860161272a565b80840191505092915050565b600061392a82856138ed565b915061393682846138ed565b91508190509392505050565b7f4f776e61626c653a206e6577206f776e657220697320746865207a65726f206160008201527f6464726573730000000000000000000000000000000000000000000000000000602082015250565b600061399e602683612719565b91506139a982613942565b604082019050919050565b600060208201905081810360008301526139cd81613991565b9050919050565b7f4f776e61626c653a2063616c6c6572206973206e6f7420746865206f776e6572600082015250565b6000613a0a602083612719565b9150613a15826139d4565b602082019050919050565b60006020820190508181036000830152613a39816139fd565b9050919050565b7f4552433732313a206d696e7420746f20746865207a65726f2061646472657373600082015250565b6000613a76602083612719565b9150613a8182613a40565b602082019050919050565b60006020820190508181036000830152613aa581613a69565b9050919050565b7f4552433732313a20746f6b656e20616c7265616479206d696e74656400000000600082015250565b6000613ae2601c83612719565b9150613aed82613aac565b602082019050919050565b60006020820190508181036000830152613b1181613ad5565b9050919050565b7f45524337323155524953746f726167653a2055524920736574206f66206e6f6e60008201527f6578697374656e7420746f6b656e000000000000000000000000000000000000602082015250565b6000613b74602e83612719565b9150613b7f82613b18565b604082019050919050565b60006020820190508181036000830152613ba381613b67565b9050919050565b600081519050613bb981612922565b92915050565b60008060008060808587031215613bd957613bd8612649565b5b6000613be787828801613baa565b9450506020613bf887828801613baa565b9350506040613c0987828801613baa565b9250506060613c1a87828801613baa565b91505092959194509250565b60008060408385031215613c3d57613c3c612649565b5b6000613c4b85828601613baa565b9250506020613c5c85828601613baa565b9150509250929050565b7f4552433732313a20617070726f766520746f2063616c6c657200000000000000600082015250565b6000613c9c601983612719565b9150613ca782613c66565b602082019050919050565b60006020820190508181036000830152613ccb81613c8f565b9050919050565b7f4552433732313a207472616e7366657220746f206e6f6e20455243373231526560008201527f63656976657220696d706c656d656e7465720000000000000000000000000000602082015250565b6000613d2e603283612719565b9150613d3982613cd2565b604082019050919050565b60006020820190508181036000830152613d5d81613d21565b9050919050565b7f4552433732313a207472616e736665722066726f6d20696e636f72726563742060008201527f6f776e6572000000000000000000000000000000000000000000000000000000602082015250565b6000613dc0602583612719565b9150613dcb82613d64565b604082019050919050565b60006020820190508181036000830152613def81613db3565b9050919050565b7f4552433732313a207472616e7366657220746f20746865207a65726f2061646460008201527f7265737300000000000000000000000000000000000000000000000000000000602082015250565b6000613e52602483612719565b9150613e5d82613df6565b604082019050919050565b60006020820190508181036000830152613e8181613e45565b9050919050565b6000608082019050613e9d6000830187612855565b613eaa6020830186612855565b613eb760408301856128eb565b8181036060830152613ec98184612f3e565b905095945050505050565b600081519050613ee38161267f565b92915050565b600060208284031215613eff57613efe612649565b5b6000613f0d84828501613ed4565b91505092915050565b7f4e487b7100000000000000000000000000000000000000000000000000000000600052601260045260246000fdfea2646970667358221220c09b49fa9e38b0f1b86c3bf07c1eb5abc6d4371851a52c2043fdbbfe7028c7e964736f6c63430008120033","opcodes":"PUSH1 0x80 PUSH1 0x40 MSTORE PUSH1 0x40 MLOAD DUP1 PUSH1 0x20 ADD PUSH1 0x40 MSTORE DUP1 PUSH1 0x0 DUP2 MSTORE POP PUSH1 0x9 SWAP1 DUP2 PUSH3 0x24 SWAP2 SWAP1 PUSH3 0x43B JUMP JUMPDEST POP CALLVALUE DUP1 ISZERO PUSH3 0x32 JUMPI PUSH1 0x0 DUP1 REVERT JUMPDEST POP PUSH1 0x40 MLOAD DUP1 PUSH1 0x40 ADD PUSH1 0x40 MSTORE DUP1 PUSH1 0x8 DUP2 MSTORE PUSH1 0x20 ADD PUSH32 0x45636F4974656D73000000000000000000000000000000000000000000000000 DUP2 MSTORE POP PUSH1 0x40 MLOAD DUP1 PUSH1 0x40 ADD PUSH1 0x40 MSTORE DUP1 PUSH1 0x2 DUP2 MSTORE PUSH1 0x20 ADD PUSH32 0x4549000000000000000000000000000000000000000000000000000000000000 DUP2 MSTORE POP DUP2 PUSH1 0x0 SWAP1 DUP2 PUSH3 0xB0 SWAP2 SWAP1 PUSH3 0x43B JUMP JUMPDEST POP DUP1 PUSH1 0x1 SWAP1 DUP2 PUSH3 0xC2 SWAP2 SWAP1 PUSH3 0x43B JUMP JUMPDEST POP POP POP PUSH3 0xE5 PUSH3 0xD9 PUSH3 0xF3 PUSH1 0x20 SHL PUSH1 0x20 SHR JUMP JUMPDEST PUSH3 0xFB PUSH1 0x20 SHL PUSH1 0x20 SHR JUMP JUMPDEST PUSH1 0x0 PUSH1 0xA DUP2 SWAP1 SSTORE POP PUSH3 0x522 JUMP JUMPDEST PUSH1 0x0 CALLER SWAP1 POP SWAP1 JUMP JUMPDEST PUSH1 0x0 PUSH1 0x7 PUSH1 0x0 SWAP1 SLOAD SWAP1 PUSH2 0x100 EXP SWAP1 DIV PUSH20 0xFFFFFFFFFFFFFFFFFFFFFFFFFFFFFFFFFFFFFFFF AND SWAP1 POP DUP2 PUSH1 0x7 PUSH1 0x0 PUSH2 0x100 EXP DUP2 SLOAD DUP2 PUSH20 0xFFFFFFFFFFFFFFFFFFFFFFFFFFFFFFFFFFFFFFFF MUL NOT AND SWAP1 DUP4 PUSH20 0xFFFFFFFFFFFFFFFFFFFFFFFFFFFFFFFFFFFFFFFF AND MUL OR SWAP1 SSTORE POP DUP2 PUSH20 0xFFFFFFFFFFFFFFFFFFFFFFFFFFFFFFFFFFFFFFFF AND DUP2 PUSH20 0xFFFFFFFFFFFFFFFFFFFFFFFFFFFFFFFFFFFFFFFF AND PUSH32 0x8BE0079C531659141344CD1FD0A4F28419497F9722A3DAAFE3B4186F6B6457E0 PUSH1 0x40 MLOAD PUSH1 0x40 MLOAD DUP1 SWAP2 SUB SWAP1 LOG3 POP POP JUMP JUMPDEST PUSH1 0x0 DUP2 MLOAD SWAP1 POP SWAP2 SWAP1 POP JUMP JUMPDEST PUSH32 0x4E487B7100000000000000000000000000000000000000000000000000000000 PUSH1 0x0 MSTORE PUSH1 0x41 PUSH1 0x4 MSTORE PUSH1 0x24 PUSH1 0x0 REVERT JUMPDEST PUSH32 0x4E487B7100000000000000000000000000000000000000000000000000000000 PUSH1 0x0 MSTORE PUSH1 0x22 PUSH1 0x4 MSTORE PUSH1 0x24 PUSH1 0x0 REVERT JUMPDEST PUSH1 0x0 PUSH1 0x2 DUP3 DIV SWAP1 POP PUSH1 0x1 DUP3 AND DUP1 PUSH3 0x243 JUMPI PUSH1 0x7F DUP3 AND SWAP2 POP JUMPDEST PUSH1 0x20 DUP3 LT DUP2 SUB PUSH3 0x259 JUMPI PUSH3 0x258 PUSH3 0x1FB JUMP JUMPDEST JUMPDEST POP SWAP2 SWAP1 POP JUMP JUMPDEST PUSH1 0x0 DUP2 SWAP1 POP DUP2 PUSH1 0x0 MSTORE PUSH1 0x20 PUSH1 0x0 KECCAK256 SWAP1 POP SWAP2 SWAP1 POP JUMP JUMPDEST PUSH1 0x0 PUSH1 0x20 PUSH1 0x1F DUP4 ADD DIV SWAP1 POP SWAP2 SWAP1 POP JUMP JUMPDEST PUSH1 0x0 DUP3 DUP3 SHL SWAP1 POP SWAP3 SWAP2 POP POP JUMP JUMPDEST PUSH1 0x0 PUSH1 0x8 DUP4 MUL PUSH3 0x2C3 PUSH32 0xFFFFFFFFFFFFFFFFFFFFFFFFFFFFFFFFFFFFFFFFFFFFFFFFFFFFFFFFFFFFFFFF DUP3 PUSH3 0x284 JUMP JUMPDEST PUSH3 0x2CF DUP7 DUP4 PUSH3 0x284 JUMP JUMPDEST SWAP6 POP DUP1 NOT DUP5 AND SWAP4 POP DUP1 DUP7 AND DUP5 OR SWAP3 POP POP POP SWAP4 SWAP3 POP POP POP JUMP JUMPDEST PUSH1 0x0 DUP2 SWAP1 POP SWAP2 SWAP1 POP JUMP JUMPDEST PUSH1 0x0 DUP2 SWAP1 POP SWAP2 SWAP1 POP JUMP JUMPDEST PUSH1 0x0 PUSH3 0x31C PUSH3 0x316 PUSH3 0x310 DUP5 PUSH3 0x2E7 JUMP JUMPDEST PUSH3 0x2F1 JUMP JUMPDEST PUSH3 0x2E7 JUMP JUMPDEST SWAP1 POP SWAP2 SWAP1 POP JUMP JUMPDEST PUSH1 0x0 DUP2 SWAP1 POP SWAP2 SWAP1 POP JUMP JUMPDEST PUSH3 0x338 DUP4 PUSH3 0x2FB JUMP JUMPDEST PUSH3 0x350 PUSH3 0x347 DUP3 PUSH3 0x323 JUMP JUMPDEST DUP5 DUP5 SLOAD PUSH3 0x291 JUMP JUMPDEST DUP3 SSTORE POP POP POP POP JUMP JUMPDEST PUSH1 0x0 SWAP1 JUMP JUMPDEST PUSH3 0x367 PUSH3 0x358 JUMP JUMPDEST PUSH3 0x374 DUP2 DUP5 DUP5 PUSH3 0x32D JUMP JUMPDEST POP POP POP JUMP JUMPDEST JUMPDEST DUP2 DUP2 LT ISZERO PUSH3 0x39C JUMPI PUSH3 0x390 PUSH1 0x0 DUP3 PUSH3 0x35D JUMP JUMPDEST PUSH1 0x1 DUP2 ADD SWAP1 POP PUSH3 0x37A JUMP JUMPDEST POP POP JUMP JUMPDEST PUSH1 0x1F DUP3 GT ISZERO PUSH3 0x3EB JUMPI PUSH3 0x3B5 DUP2 PUSH3 0x25F JUMP JUMPDEST PUSH3 0x3C0 DUP5 PUSH3 0x274 JUMP JUMPDEST DUP2 ADD PUSH1 0x20 DUP6 LT ISZERO PUSH3 0x3D0 JUMPI DUP2 SWAP1 POP JUMPDEST PUSH3 0x3E8 PUSH3 0x3DF DUP6 PUSH3 0x274 JUMP JUMPDEST DUP4 ADD DUP3 PUSH3 0x379 JUMP JUMPDEST POP POP JUMPDEST POP POP POP JUMP JUMPDEST PUSH1 0x0 DUP3 DUP3 SHR SWAP1 POP SWAP3 SWAP2 POP POP JUMP JUMPDEST PUSH1 0x0 PUSH3 0x410 PUSH1 0x0 NOT DUP5 PUSH1 0x8 MUL PUSH3 0x3F0 JUMP JUMPDEST NOT DUP1 DUP4 AND SWAP2 POP POP SWAP3 SWAP2 POP POP JUMP JUMPDEST PUSH1 0x0 PUSH3 0x42B DUP4 DUP4 PUSH3 0x3FD JUMP JUMPDEST SWAP2 POP DUP3 PUSH1 0x2 MUL DUP3 OR SWAP1 POP SWAP3 SWAP2 POP POP JUMP JUMPDEST PUSH3 0x446 DUP3 PUSH3 0x1C1 JUMP JUMPDEST PUSH8 0xFFFFFFFFFFFFFFFF DUP2 GT ISZERO PUSH3 0x462 JUMPI PUSH3 0x461 PUSH3 0x1CC JUMP JUMPDEST JUMPDEST PUSH3 0x46E DUP3 SLOAD PUSH3 0x22A JUMP JUMPDEST PUSH3 0x47B DUP3 DUP3 DUP6 PUSH3 0x3A0 JUMP JUMPDEST PUSH1 0x0 PUSH1 0x20 SWAP1 POP PUSH1 0x1F DUP4 GT PUSH1 0x1 DUP2 EQ PUSH3 0x4B3 JUMPI PUSH1 0x0 DUP5 ISZERO PUSH3 0x49E JUMPI DUP3 DUP8 ADD MLOAD SWAP1 POP JUMPDEST PUSH3 0x4AA DUP6 DUP3 PUSH3 0x41D JUMP JUMPDEST DUP7 SSTORE POP PUSH3 0x51A JUMP JUMPDEST PUSH1 0x1F NOT DUP5 AND PUSH3 0x4C3 DUP7 PUSH3 0x25F JUMP JUMPDEST PUSH1 0x0 JUMPDEST DUP3 DUP2 LT ISZERO PUSH3 0x4ED JUMPI DUP5 DUP10 ADD MLOAD DUP3 SSTORE PUSH1 0x1 DUP3 ADD SWAP2 POP PUSH1 0x20 DUP6 ADD SWAP5 POP PUSH1 0x20 DUP2 ADD SWAP1 POP PUSH3 0x4C6 JUMP JUMPDEST DUP7 DUP4 LT ISZERO PUSH3 0x50D JUMPI DUP5 DUP10 ADD MLOAD PUSH3 0x509 PUSH1 0x1F DUP10 AND DUP3 PUSH3 0x3FD JUMP JUMPDEST DUP4 SSTORE POP JUMPDEST PUSH1 0x1 PUSH1 0x2 DUP9 MUL ADD DUP9 SSTORE POP POP POP JUMPDEST POP POP POP POP POP POP JUMP JUMPDEST PUSH2 0x3F7B DUP1 PUSH3 0x532 PUSH1 0x0 CODECOPY PUSH1 0x0 RETURN INVALID PUSH1 0x80 PUSH1 0x40 MSTORE CALLVALUE DUP1 ISZERO PUSH2 0x10 JUMPI PUSH1 0x0 DUP1 REVERT JUMPDEST POP PUSH1 0x4 CALLDATASIZE LT PUSH2 0x158 JUMPI PUSH1 0x0 CALLDATALOAD PUSH1 0xE0 SHR DUP1 PUSH4 0x70A08231 GT PUSH2 0xC3 JUMPI DUP1 PUSH4 0xA22CB465 GT PUSH2 0x7C JUMPI DUP1 PUSH4 0xA22CB465 EQ PUSH2 0x3C5 JUMPI DUP1 PUSH4 0xB88D4FDE EQ PUSH2 0x3E1 JUMPI DUP1 PUSH4 0xBFB231D2 EQ PUSH2 0x3FD JUMPI DUP1 PUSH4 0xC87B56DD EQ PUSH2 0x432 JUMPI DUP1 PUSH4 0xE985E9C5 EQ PUSH2 0x462 JUMPI DUP1 PUSH4 0xF2FDE38B EQ PUSH2 0x492 JUMPI PUSH2 0x158 JUMP JUMPDEST DUP1 PUSH4 0x70A08231 EQ PUSH2 0x303 JUMPI DUP1 PUSH4 0x715018A6 EQ PUSH2 0x333 JUMPI DUP1 PUSH4 0x727BC4B1 EQ PUSH2 0x33D JUMPI DUP1 PUSH4 0x7CE6F18B EQ PUSH2 0x36D JUMPI DUP1 PUSH4 0x8DA5CB5B EQ PUSH2 0x389 JUMPI DUP1 PUSH4 0x95D89B41 EQ PUSH2 0x3A7 JUMPI PUSH2 0x158 JUMP JUMPDEST DUP1 PUSH4 0x23B872DD GT PUSH2 0x115 JUMPI DUP1 PUSH4 0x23B872DD EQ PUSH2 0x231 JUMPI DUP1 PUSH4 0x42842E0E EQ PUSH2 0x24D JUMPI DUP1 PUSH4 0x49D5462E EQ PUSH2 0x269 JUMPI DUP1 PUSH4 0x55F804B3 EQ PUSH2 0x299 JUMPI DUP1 PUSH4 0x6352211E EQ PUSH2 0x2B5 JUMPI DUP1 PUSH4 0x6C0360EB EQ PUSH2 0x2E5 JUMPI PUSH2 0x158 JUMP JUMPDEST DUP1 PUSH4 0x1FFC9A7 EQ PUSH2 0x15D JUMPI DUP1 PUSH4 0x6FDDE03 EQ PUSH2 0x18D JUMPI DUP1 PUSH4 0x81812FC EQ PUSH2 0x1AB JUMPI DUP1 PUSH4 0x95EA7B3 EQ PUSH2 0x1DB JUMPI DUP1 PUSH4 0x18160DDD EQ PUSH2 0x1F7 JUMPI DUP1 PUSH4 0x210D8AA9 EQ PUSH2 0x215 JUMPI JUMPDEST PUSH1 0x0 DUP1 REVERT JUMPDEST PUSH2 0x177 PUSH1 0x4 DUP1 CALLDATASIZE SUB DUP2 ADD SWAP1 PUSH2 0x172 SWAP2 SWAP1 PUSH2 0x26AB JUMP JUMPDEST PUSH2 0x4AE JUMP JUMPDEST PUSH1 0x40 MLOAD PUSH2 0x184 SWAP2 SWAP1 PUSH2 0x26F3 JUMP JUMPDEST PUSH1 0x40 MLOAD DUP1 SWAP2 SUB SWAP1 RETURN JUMPDEST PUSH2 0x195 PUSH2 0x50F JUMP JUMPDEST PUSH1 0x40 MLOAD PUSH2 0x1A2 SWAP2 SWAP1 PUSH2 0x279E JUMP JUMPDEST PUSH1 0x40 MLOAD DUP1 SWAP2 SUB SWAP1 RETURN JUMPDEST PUSH2 0x1C5 PUSH1 0x4 DUP1 CALLDATASIZE SUB DUP2 ADD SWAP1 PUSH2 0x1C0 SWAP2 SWAP1 PUSH2 0x27F6 JUMP JUMPDEST PUSH2 0x5A1 JUMP JUMPDEST PUSH1 0x40 MLOAD PUSH2 0x1D2 SWAP2 SWAP1 PUSH2 0x2864 JUMP JUMPDEST PUSH1 0x40 MLOAD DUP1 SWAP2 SUB SWAP1 RETURN JUMPDEST PUSH2 0x1F5 PUSH1 0x4 DUP1 CALLDATASIZE SUB DUP2 ADD SWAP1 PUSH2 0x1F0 SWAP2 SWAP1 PUSH2 0x28AB JUMP JUMPDEST PUSH2 0x5E7 JUMP JUMPDEST STOP JUMPDEST PUSH2 0x1FF PUSH2 0x6FE JUMP JUMPDEST PUSH1 0x40 MLOAD PUSH2 0x20C SWAP2 SWAP1 PUSH2 0x28FA JUMP JUMPDEST PUSH1 0x40 MLOAD DUP1 SWAP2 SUB SWAP1 RETURN JUMPDEST PUSH2 0x22F PUSH1 0x4 DUP1 CALLDATASIZE SUB DUP2 ADD SWAP1 PUSH2 0x22A SWAP2 SWAP1 PUSH2 0x2A83 JUMP JUMPDEST PUSH2 0x708 JUMP JUMPDEST STOP JUMPDEST PUSH2 0x24B PUSH1 0x4 DUP1 CALLDATASIZE SUB DUP2 ADD SWAP1 PUSH2 0x246 SWAP2 SWAP1 PUSH2 0x2AF2 JUMP JUMPDEST PUSH2 0x8EE JUMP JUMPDEST STOP JUMPDEST PUSH2 0x267 PUSH1 0x4 DUP1 CALLDATASIZE SUB DUP2 ADD SWAP1 PUSH2 0x262 SWAP2 SWAP1 PUSH2 0x2AF2 JUMP JUMPDEST PUSH2 0x94E JUMP JUMPDEST STOP JUMPDEST PUSH2 0x283 PUSH1 0x4 DUP1 CALLDATASIZE SUB DUP2 ADD SWAP1 PUSH2 0x27E SWAP2 SWAP1 PUSH2 0x27F6 JUMP JUMPDEST PUSH2 0x96E JUMP JUMPDEST PUSH1 0x40 MLOAD PUSH2 0x290 SWAP2 SWAP1 PUSH2 0x2BA9 JUMP JUMPDEST PUSH1 0x40 MLOAD DUP1 SWAP2 SUB SWAP1 RETURN JUMPDEST PUSH2 0x2B3 PUSH1 0x4 DUP1 CALLDATASIZE SUB DUP2 ADD SWAP1 PUSH2 0x2AE SWAP2 SWAP1 PUSH2 0x2BC4 JUMP JUMPDEST PUSH2 0xAAD JUMP JUMPDEST STOP JUMPDEST PUSH2 0x2CF PUSH1 0x4 DUP1 CALLDATASIZE SUB DUP2 ADD SWAP1 PUSH2 0x2CA SWAP2 SWAP1 PUSH2 0x27F6 JUMP JUMPDEST PUSH2 0xAC8 JUMP JUMPDEST PUSH1 0x40 MLOAD PUSH2 0x2DC SWAP2 SWAP1 PUSH2 0x2864 JUMP JUMPDEST PUSH1 0x40 MLOAD DUP1 SWAP2 SUB SWAP1 RETURN JUMPDEST PUSH2 0x2ED PUSH2 0xB4E JUMP JUMPDEST PUSH1 0x40 MLOAD PUSH2 0x2FA SWAP2 SWAP1 PUSH2 0x279E JUMP JUMPDEST PUSH1 0x40 MLOAD DUP1 SWAP2 SUB SWAP1 RETURN JUMPDEST PUSH2 0x31D PUSH1 0x4 DUP1 CALLDATASIZE SUB DUP2 ADD SWAP1 PUSH2 0x318 SWAP2 SWAP1 PUSH2 0x2C0D JUMP JUMPDEST PUSH2 0xBDC JUMP JUMPDEST PUSH1 0x40 MLOAD PUSH2 0x32A SWAP2 SWAP1 PUSH2 0x28FA JUMP JUMPDEST PUSH1 0x40 MLOAD DUP1 SWAP2 SUB SWAP1 RETURN JUMPDEST PUSH2 0x33B PUSH2 0xC93 JUMP JUMPDEST STOP JUMPDEST PUSH2 0x357 PUSH1 0x4 DUP1 CALLDATASIZE SUB DUP2 ADD SWAP1 PUSH2 0x352 SWAP2 SWAP1 PUSH2 0x27F6 JUMP JUMPDEST PUSH2 0xCA7 JUMP JUMPDEST PUSH1 0x40 MLOAD PUSH2 0x364 SWAP2 SWAP1 PUSH2 0x2C69 JUMP JUMPDEST PUSH1 0x40 MLOAD DUP1 SWAP2 SUB SWAP1 RETURN JUMPDEST PUSH2 0x387 PUSH1 0x4 DUP1 CALLDATASIZE SUB DUP2 ADD SWAP1 PUSH2 0x382 SWAP2 SWAP1 PUSH2 0x2C84 JUMP JUMPDEST PUSH2 0xDE7 JUMP JUMPDEST STOP JUMPDEST PUSH2 0x391 PUSH2 0xFE4 JUMP JUMPDEST PUSH1 0x40 MLOAD PUSH2 0x39E SWAP2 SWAP1 PUSH2 0x2864 JUMP JUMPDEST PUSH1 0x40 MLOAD DUP1 SWAP2 SUB SWAP1 RETURN JUMPDEST PUSH2 0x3AF PUSH2 0x100E JUMP JUMPDEST PUSH1 0x40 MLOAD PUSH2 0x3BC SWAP2 SWAP1 PUSH2 0x279E JUMP JUMPDEST PUSH1 0x40 MLOAD DUP1 SWAP2 SUB SWAP1 RETURN JUMPDEST PUSH2 0x3DF PUSH1 0x4 DUP1 CALLDATASIZE SUB DUP2 ADD SWAP1 PUSH2 0x3DA SWAP2 SWAP1 PUSH2 0x2D47 JUMP JUMPDEST PUSH2 0x10A0 JUMP JUMPDEST STOP JUMPDEST PUSH2 0x3FB PUSH1 0x4 DUP1 CALLDATASIZE SUB DUP2 ADD SWAP1 PUSH2 0x3F6 SWAP2 SWAP1 PUSH2 0x2E28 JUMP JUMPDEST PUSH2 0x10B6 JUMP JUMPDEST STOP JUMPDEST PUSH2 0x417 PUSH1 0x4 DUP1 CALLDATASIZE SUB DUP2 ADD SWAP1 PUSH2 0x412 SWAP2 SWAP1 PUSH2 0x27F6 JUMP JUMPDEST PUSH2 0x1118 JUMP JUMPDEST PUSH1 0x40 MLOAD PUSH2 0x429 SWAP7 SWAP6 SWAP5 SWAP4 SWAP3 SWAP2 SWAP1 PUSH2 0x2F77 JUMP JUMPDEST PUSH1 0x40 MLOAD DUP1 SWAP2 SUB SWAP1 RETURN JUMPDEST PUSH2 0x44C PUSH1 0x4 DUP1 CALLDATASIZE SUB DUP2 ADD SWAP1 PUSH2 0x447 SWAP2 SWAP1 PUSH2 0x27F6 JUMP JUMPDEST PUSH2 0x1209 JUMP JUMPDEST PUSH1 0x40 MLOAD PUSH2 0x459 SWAP2 SWAP1 PUSH2 0x279E JUMP JUMPDEST PUSH1 0x40 MLOAD DUP1 SWAP2 SUB SWAP1 RETURN JUMPDEST PUSH2 0x47C PUSH1 0x4 DUP1 CALLDATASIZE SUB DUP2 ADD SWAP1 PUSH2 0x477 SWAP2 SWAP1 PUSH2 0x2FDF JUMP JUMPDEST PUSH2 0x131B JUMP JUMPDEST PUSH1 0x40 MLOAD PUSH2 0x489 SWAP2 SWAP1 PUSH2 0x26F3 JUMP JUMPDEST PUSH1 0x40 MLOAD DUP1 SWAP2 SUB SWAP1 RETURN JUMPDEST PUSH2 0x4AC PUSH1 0x4 DUP1 CALLDATASIZE SUB DUP2 ADD SWAP1 PUSH2 0x4A7 SWAP2 SWAP1 PUSH2 0x2C0D JUMP JUMPDEST PUSH2 0x13AF JUMP JUMPDEST STOP JUMPDEST PUSH1 0x0 PUSH4 0x49064906 PUSH1 0xE0 SHL PUSH28 0xFFFFFFFFFFFFFFFFFFFFFFFFFFFFFFFFFFFFFFFFFFFFFFFFFFFFFFFF NOT AND DUP3 PUSH28 0xFFFFFFFFFFFFFFFFFFFFFFFFFFFFFFFFFFFFFFFFFFFFFFFFFFFFFFFF NOT AND EQ DUP1 PUSH2 0x508 JUMPI POP PUSH2 0x507 DUP3 PUSH2 0x1432 JUMP JUMPDEST JUMPDEST SWAP1 POP SWAP2 SWAP1 POP JUMP JUMPDEST PUSH1 0x60 PUSH1 0x0 DUP1 SLOAD PUSH2 0x51E SWAP1 PUSH2 0x304E JUMP JUMPDEST DUP1 PUSH1 0x1F ADD PUSH1 0x20 DUP1 SWAP2 DIV MUL PUSH1 0x20 ADD PUSH1 0x40 MLOAD SWAP1 DUP2 ADD PUSH1 0x40 MSTORE DUP1 SWAP3 SWAP2 SWAP1 DUP2 DUP2 MSTORE PUSH1 0x20 ADD DUP3 DUP1 SLOAD PUSH2 0x54A SWAP1 PUSH2 0x304E JUMP JUMPDEST DUP1 ISZERO PUSH2 0x597 JUMPI DUP1 PUSH1 0x1F LT PUSH2 0x56C JUMPI PUSH2 0x100 DUP1 DUP4 SLOAD DIV MUL DUP4 MSTORE SWAP2 PUSH1 0x20 ADD SWAP2 PUSH2 0x597 JUMP JUMPDEST DUP3 ADD SWAP2 SWAP1 PUSH1 0x0 MSTORE PUSH1 0x20 PUSH1 0x0 KECCAK256 SWAP1 JUMPDEST DUP2 SLOAD DUP2 MSTORE SWAP1 PUSH1 0x1 ADD SWAP1 PUSH1 0x20 ADD DUP1 DUP4 GT PUSH2 0x57A JUMPI DUP3 SWAP1 SUB PUSH1 0x1F AND DUP3 ADD SWAP2 JUMPDEST POP POP POP POP POP SWAP1 POP SWAP1 JUMP JUMPDEST PUSH1 0x0 PUSH2 0x5AC DUP3 PUSH2 0x1514 JUMP JUMPDEST PUSH1 0x4 PUSH1 0x0 DUP4 DUP2 MSTORE PUSH1 0x20 ADD SWAP1 DUP2 MSTORE PUSH1 0x20 ADD PUSH1 0x0 KECCAK256 PUSH1 0x0 SWAP1 SLOAD SWAP1 PUSH2 0x100 EXP SWAP1 DIV PUSH20 0xFFFFFFFFFFFFFFFFFFFFFFFFFFFFFFFFFFFFFFFF AND SWAP1 POP SWAP2 SWAP1 POP JUMP JUMPDEST PUSH1 0x0 PUSH2 0x5F2 DUP3 PUSH2 0xAC8 JUMP JUMPDEST SWAP1 POP DUP1 PUSH20 0xFFFFFFFFFFFFFFFFFFFFFFFFFFFFFFFFFFFFFFFF AND DUP4 PUSH20 0xFFFFFFFFFFFFFFFFFFFFFFFFFFFFFFFFFFFFFFFF AND SUB PUSH2 0x662 JUMPI PUSH1 0x40 MLOAD PUSH32 0x8C379A000000000000000000000000000000000000000000000000000000000 DUP2 MSTORE PUSH1 0x4 ADD PUSH2 0x659 SWAP1 PUSH2 0x30F1 JUMP JUMPDEST PUSH1 0x40 MLOAD DUP1 SWAP2 SUB SWAP1 REVERT JUMPDEST DUP1 PUSH20 0xFFFFFFFFFFFFFFFFFFFFFFFFFFFFFFFFFFFFFFFF AND PUSH2 0x681 PUSH2 0x155F JUMP JUMPDEST PUSH20 0xFFFFFFFFFFFFFFFFFFFFFFFFFFFFFFFFFFFFFFFF AND EQ DUP1 PUSH2 0x6B0 JUMPI POP PUSH2 0x6AF DUP2 PUSH2 0x6AA PUSH2 0x155F JUMP JUMPDEST PUSH2 0x131B JUMP JUMPDEST JUMPDEST PUSH2 0x6EF JUMPI PUSH1 0x40 MLOAD PUSH32 0x8C379A000000000000000000000000000000000000000000000000000000000 DUP2 MSTORE PUSH1 0x4 ADD PUSH2 0x6E6 SWAP1 PUSH2 0x3183 JUMP JUMPDEST PUSH1 0x40 MLOAD DUP1 SWAP2 SUB SWAP1 REVERT JUMPDEST PUSH2 0x6F9 DUP4 DUP4 PUSH2 0x1567 JUMP JUMPDEST POP POP POP JUMP JUMPDEST PUSH1 0x0 PUSH1 0xA SLOAD SWAP1 POP SWAP1 JUMP JUMPDEST PUSH2 0x710 PUSH2 0x1620 JUMP JUMPDEST PUSH2 0x71A PUSH1 0x8 PUSH2 0x169E JUMP JUMPDEST PUSH1 0x0 PUSH2 0x726 PUSH1 0x8 PUSH2 0x16B4 JUMP JUMPDEST SWAP1 POP PUSH1 0x0 PUSH1 0x40 MLOAD DUP1 PUSH1 0x40 ADD PUSH1 0x40 MSTORE DUP1 DUP7 PUSH1 0xFF AND DUP2 MSTORE PUSH1 0x20 ADD DUP6 PUSH1 0xFF AND DUP2 MSTORE POP PUSH1 0x40 MLOAD PUSH1 0x20 ADD PUSH2 0x755 SWAP2 SWAP1 PUSH2 0x2C69 JUMP JUMPDEST PUSH1 0x40 MLOAD PUSH1 0x20 DUP2 DUP4 SUB SUB DUP2 MSTORE SWAP1 PUSH1 0x40 MSTORE SWAP1 POP PUSH2 0x770 CALLER DUP4 PUSH2 0x16C2 JUMP JUMPDEST PUSH2 0x77A DUP3 DUP5 PUSH2 0x18DF JUMP JUMPDEST PUSH1 0x40 MLOAD DUP1 PUSH1 0xC0 ADD PUSH1 0x40 MSTORE DUP1 DUP4 DUP2 MSTORE PUSH1 0x20 ADD TIMESTAMP DUP2 MSTORE PUSH1 0x20 ADD PUSH1 0x0 DUP2 MSTORE PUSH1 0x20 ADD CALLER PUSH20 0xFFFFFFFFFFFFFFFFFFFFFFFFFFFFFFFFFFFFFFFF AND DUP2 MSTORE PUSH1 0x20 ADD PUSH1 0x0 PUSH1 0x1 DUP2 GT ISZERO PUSH2 0x7C8 JUMPI PUSH2 0x7C7 PUSH2 0x2EAB JUMP JUMPDEST JUMPDEST DUP2 MSTORE PUSH1 0x20 ADD DUP3 DUP2 MSTORE POP PUSH1 0xB PUSH1 0x0 DUP5 DUP2 MSTORE PUSH1 0x20 ADD SWAP1 DUP2 MSTORE PUSH1 0x20 ADD PUSH1 0x0 KECCAK256 PUSH1 0x0 DUP3 ADD MLOAD DUP2 PUSH1 0x0 ADD SSTORE PUSH1 0x20 DUP3 ADD MLOAD DUP2 PUSH1 0x1 ADD SSTORE PUSH1 0x40 DUP3 ADD MLOAD DUP2 PUSH1 0x2 ADD SSTORE PUSH1 0x60 DUP3 ADD MLOAD DUP2 PUSH1 0x3 ADD PUSH1 0x0 PUSH2 0x100 EXP DUP2 SLOAD DUP2 PUSH20 0xFFFFFFFFFFFFFFFFFFFFFFFFFFFFFFFFFFFFFFFF MUL NOT AND SWAP1 DUP4 PUSH20 0xFFFFFFFFFFFFFFFFFFFFFFFFFFFFFFFFFFFFFFFF AND MUL OR SWAP1 SSTORE POP PUSH1 0x80 DUP3 ADD MLOAD DUP2 PUSH1 0x3 ADD PUSH1 0x14 PUSH2 0x100 EXP DUP2 SLOAD DUP2 PUSH1 0xFF MUL NOT AND SWAP1 DUP4 PUSH1 0x1 DUP2 GT ISZERO PUSH2 0x874 JUMPI PUSH2 0x873 PUSH2 0x2EAB JUMP JUMPDEST JUMPDEST MUL OR SWAP1 SSTORE POP PUSH1 0xA0 DUP3 ADD MLOAD DUP2 PUSH1 0x4 ADD SWAP1 DUP2 PUSH2 0x88E SWAP2 SWAP1 PUSH2 0x334F JUMP JUMPDEST POP SWAP1 POP POP PUSH1 0xA PUSH1 0x0 DUP2 SLOAD DUP1 SWAP3 SWAP2 SWAP1 PUSH2 0x8A5 SWAP1 PUSH2 0x3450 JUMP JUMPDEST SWAP2 SWAP1 POP SSTORE POP PUSH32 0x8854A0DBEEFC65A1A3F77767C246F6CFE6BEA95A0DE4964885898083921D770F DUP3 CALLER DUP8 DUP8 PUSH1 0x40 MLOAD PUSH2 0x8DF SWAP5 SWAP4 SWAP3 SWAP2 SWAP1 PUSH2 0x34A7 JUMP JUMPDEST PUSH1 0x40 MLOAD DUP1 SWAP2 SUB SWAP1 LOG1 POP POP POP POP POP JUMP JUMPDEST PUSH2 0x8FF PUSH2 0x8F9 PUSH2 0x155F JUMP JUMPDEST DUP3 PUSH2 0x1983 JUMP JUMPDEST PUSH2 0x93E JUMPI PUSH1 0x40 MLOAD PUSH32 0x8C379A000000000000000000000000000000000000000000000000000000000 DUP2 MSTORE PUSH1 0x4 ADD PUSH2 0x935 SWAP1 PUSH2 0x355E JUMP JUMPDEST PUSH1 0x40 MLOAD DUP1 SWAP2 SUB SWAP1 REVERT JUMPDEST PUSH2 0x949 DUP4 DUP4 DUP4 PUSH2 0x1A18 JUMP JUMPDEST POP POP POP JUMP JUMPDEST PUSH2 0x969 DUP4 DUP4 DUP4 PUSH1 0x40 MLOAD DUP1 PUSH1 0x20 ADD PUSH1 0x40 MSTORE DUP1 PUSH1 0x0 DUP2 MSTORE POP PUSH2 0x10B6 JUMP JUMPDEST POP POP POP JUMP JUMPDEST PUSH2 0x976 PUSH2 0x25EB JUMP JUMPDEST PUSH1 0x1 DUP1 DUP2 GT ISZERO PUSH2 0x989 JUMPI PUSH2 0x988 PUSH2 0x2EAB JUMP JUMPDEST JUMPDEST PUSH1 0xB PUSH1 0x0 DUP5 DUP2 MSTORE PUSH1 0x20 ADD SWAP1 DUP2 MSTORE PUSH1 0x20 ADD PUSH1 0x0 KECCAK256 PUSH1 0x3 ADD PUSH1 0x14 SWAP1 SLOAD SWAP1 PUSH2 0x100 EXP SWAP1 DIV PUSH1 0xFF AND PUSH1 0x1 DUP2 GT ISZERO PUSH2 0x9BF JUMPI PUSH2 0x9BE PUSH2 0x2EAB JUMP JUMPDEST JUMPDEST EQ PUSH2 0x9FF JUMPI PUSH1 0x40 MLOAD PUSH32 0x8C379A000000000000000000000000000000000000000000000000000000000 DUP2 MSTORE PUSH1 0x4 ADD PUSH2 0x9F6 SWAP1 PUSH2 0x35CA JUMP JUMPDEST PUSH1 0x40 MLOAD DUP1 SWAP2 SUB SWAP1 REVERT JUMPDEST PUSH2 0xAA6 PUSH1 0xB PUSH1 0x0 DUP5 DUP2 MSTORE PUSH1 0x20 ADD SWAP1 DUP2 MSTORE PUSH1 0x20 ADD PUSH1 0x0 KECCAK256 PUSH1 0x4 ADD DUP1 SLOAD PUSH2 0xA23 SWAP1 PUSH2 0x304E JUMP JUMPDEST DUP1 PUSH1 0x1F ADD PUSH1 0x20 DUP1 SWAP2 DIV MUL PUSH1 0x20 ADD PUSH1 0x40 MLOAD SWAP1 DUP2 ADD PUSH1 0x40 MSTORE DUP1 SWAP3 SWAP2 SWAP1 DUP2 DUP2 MSTORE PUSH1 0x20 ADD DUP3 DUP1 SLOAD PUSH2 0xA4F SWAP1 PUSH2 0x304E JUMP JUMPDEST DUP1 ISZERO PUSH2 0xA9C JUMPI DUP1 PUSH1 0x1F LT PUSH2 0xA71 JUMPI PUSH2 0x100 DUP1 DUP4 SLOAD DIV MUL DUP4 MSTORE SWAP2 PUSH1 0x20 ADD SWAP2 PUSH2 0xA9C JUMP JUMPDEST DUP3 ADD SWAP2 SWAP1 PUSH1 0x0 MSTORE PUSH1 0x20 PUSH1 0x0 KECCAK256 SWAP1 JUMPDEST DUP2 SLOAD DUP2 MSTORE SWAP1 PUSH1 0x1 ADD SWAP1 PUSH1 0x20 ADD DUP1 DUP4 GT PUSH2 0xA7F JUMPI DUP3 SWAP1 SUB PUSH1 0x1F AND DUP3 ADD SWAP2 JUMPDEST POP POP POP POP POP PUSH2 0x1A7D JUMP JUMPDEST SWAP1 POP SWAP2 SWAP1 POP JUMP JUMPDEST PUSH2 0xAB5 PUSH2 0x1620 JUMP JUMPDEST DUP1 PUSH1 0x9 SWAP1 DUP2 PUSH2 0xAC4 SWAP2 SWAP1 PUSH2 0x3645 JUMP JUMPDEST POP POP JUMP JUMPDEST PUSH1 0x0 DUP1 PUSH2 0xAD4 DUP4 PUSH2 0x1ADF JUMP JUMPDEST SWAP1 POP PUSH1 0x0 PUSH20 0xFFFFFFFFFFFFFFFFFFFFFFFFFFFFFFFFFFFFFFFF AND DUP2 PUSH20 0xFFFFFFFFFFFFFFFFFFFFFFFFFFFFFFFFFFFFFFFF AND SUB PUSH2 0xB45 JUMPI PUSH1 0x40 MLOAD PUSH32 0x8C379A000000000000000000000000000000000000000000000000000000000 DUP2 MSTORE PUSH1 0x4 ADD PUSH2 0xB3C SWAP1 PUSH2 0x3763 JUMP JUMPDEST PUSH1 0x40 MLOAD DUP1 SWAP2 SUB SWAP1 REVERT JUMPDEST DUP1 SWAP2 POP POP SWAP2 SWAP1 POP JUMP JUMPDEST PUSH1 0x9 DUP1 SLOAD PUSH2 0xB5B SWAP1 PUSH2 0x304E JUMP JUMPDEST DUP1 PUSH1 0x1F ADD PUSH1 0x20 DUP1 SWAP2 DIV MUL PUSH1 0x20 ADD PUSH1 0x40 MLOAD SWAP1 DUP2 ADD PUSH1 0x40 MSTORE DUP1 SWAP3 SWAP2 SWAP1 DUP2 DUP2 MSTORE PUSH1 0x20 ADD DUP3 DUP1 SLOAD PUSH2 0xB87 SWAP1 PUSH2 0x304E JUMP JUMPDEST DUP1 ISZERO PUSH2 0xBD4 JUMPI DUP1 PUSH1 0x1F LT PUSH2 0xBA9 JUMPI PUSH2 0x100 DUP1 DUP4 SLOAD DIV MUL DUP4 MSTORE SWAP2 PUSH1 0x20 ADD SWAP2 PUSH2 0xBD4 JUMP JUMPDEST DUP3 ADD SWAP2 SWAP1 PUSH1 0x0 MSTORE PUSH1 0x20 PUSH1 0x0 KECCAK256 SWAP1 JUMPDEST DUP2 SLOAD DUP2 MSTORE SWAP1 PUSH1 0x1 ADD SWAP1 PUSH1 0x20 ADD DUP1 DUP4 GT PUSH2 0xBB7 JUMPI DUP3 SWAP1 SUB PUSH1 0x1F AND DUP3 ADD SWAP2 JUMPDEST POP POP POP POP POP DUP2 JUMP JUMPDEST PUSH1 0x0 DUP1 PUSH20 0xFFFFFFFFFFFFFFFFFFFFFFFFFFFFFFFFFFFFFFFF AND DUP3 PUSH20 0xFFFFFFFFFFFFFFFFFFFFFFFFFFFFFFFFFFFFFFFF AND SUB PUSH2 0xC4C JUMPI PUSH1 0x40 MLOAD PUSH32 0x8C379A000000000000000000000000000000000000000000000000000000000 DUP2 MSTORE PUSH1 0x4 ADD PUSH2 0xC43 SWAP1 PUSH2 0x37F5 JUMP JUMPDEST PUSH1 0x40 MLOAD DUP1 SWAP2 SUB SWAP1 REVERT JUMPDEST PUSH1 0x3 PUSH1 0x0 DUP4 PUSH20 0xFFFFFFFFFFFFFFFFFFFFFFFFFFFFFFFFFFFFFFFF AND PUSH20 0xFFFFFFFFFFFFFFFFFFFFFFFFFFFFFFFFFFFFFFFF AND DUP2 MSTORE PUSH1 0x20 ADD SWAP1 DUP2 MSTORE PUSH1 0x20 ADD PUSH1 0x0 KECCAK256 SLOAD SWAP1 POP SWAP2 SWAP1 POP JUMP JUMPDEST PUSH2 0xC9B PUSH2 0x1620 JUMP JUMPDEST PUSH2 0xCA5 PUSH1 0x0 PUSH2 0x1B1C JUMP JUMPDEST JUMP JUMPDEST PUSH2 0xCAF PUSH2 0x261F JUMP JUMPDEST PUSH1 0x0 PUSH1 0x1 DUP2 GT ISZERO PUSH2 0xCC3 JUMPI PUSH2 0xCC2 PUSH2 0x2EAB JUMP JUMPDEST JUMPDEST PUSH1 0xB PUSH1 0x0 DUP5 DUP2 MSTORE PUSH1 0x20 ADD SWAP1 DUP2 MSTORE PUSH1 0x20 ADD PUSH1 0x0 KECCAK256 PUSH1 0x3 ADD PUSH1 0x14 SWAP1 SLOAD SWAP1 PUSH2 0x100 EXP SWAP1 DIV PUSH1 0xFF AND PUSH1 0x1 DUP2 GT ISZERO PUSH2 0xCF9 JUMPI PUSH2 0xCF8 PUSH2 0x2EAB JUMP JUMPDEST JUMPDEST EQ PUSH2 0xD39 JUMPI PUSH1 0x40 MLOAD PUSH32 0x8C379A000000000000000000000000000000000000000000000000000000000 DUP2 MSTORE PUSH1 0x4 ADD PUSH2 0xD30 SWAP1 PUSH2 0x3861 JUMP JUMPDEST PUSH1 0x40 MLOAD DUP1 SWAP2 SUB SWAP1 REVERT JUMPDEST PUSH2 0xDE0 PUSH1 0xB PUSH1 0x0 DUP5 DUP2 MSTORE PUSH1 0x20 ADD SWAP1 DUP2 MSTORE PUSH1 0x20 ADD PUSH1 0x0 KECCAK256 PUSH1 0x4 ADD DUP1 SLOAD PUSH2 0xD5D SWAP1 PUSH2 0x304E JUMP JUMPDEST DUP1 PUSH1 0x1F ADD PUSH1 0x20 DUP1 SWAP2 DIV MUL PUSH1 0x20 ADD PUSH1 0x40 MLOAD SWAP1 DUP2 ADD PUSH1 0x40 MSTORE DUP1 SWAP3 SWAP2 SWAP1 DUP2 DUP2 MSTORE PUSH1 0x20 ADD DUP3 DUP1 SLOAD PUSH2 0xD89 SWAP1 PUSH2 0x304E JUMP JUMPDEST DUP1 ISZERO PUSH2 0xDD6 JUMPI DUP1 PUSH1 0x1F LT PUSH2 0xDAB JUMPI PUSH2 0x100 DUP1 DUP4 SLOAD DIV MUL DUP4 MSTORE SWAP2 PUSH1 0x20 ADD SWAP2 PUSH2 0xDD6 JUMP JUMPDEST DUP3 ADD SWAP2 SWAP1 PUSH1 0x0 MSTORE PUSH1 0x20 PUSH1 0x0 KECCAK256 SWAP1 JUMPDEST DUP2 SLOAD DUP2 MSTORE SWAP1 PUSH1 0x1 ADD SWAP1 PUSH1 0x20 ADD DUP1 DUP4 GT PUSH2 0xDB9 JUMPI DUP3 SWAP1 SUB PUSH1 0x1F AND DUP3 ADD SWAP2 JUMPDEST POP POP POP POP POP PUSH2 0x1BE2 JUMP JUMPDEST SWAP1 POP SWAP2 SWAP1 POP JUMP JUMPDEST PUSH2 0xDEF PUSH2 0x1620 JUMP JUMPDEST PUSH2 0xDF9 PUSH1 0x8 PUSH2 0x169E JUMP JUMPDEST PUSH1 0x0 PUSH2 0xE05 PUSH1 0x8 PUSH2 0x16B4 JUMP JUMPDEST SWAP1 POP PUSH1 0x0 PUSH1 0x40 MLOAD DUP1 PUSH1 0x80 ADD PUSH1 0x40 MSTORE DUP1 DUP9 PUSH1 0xFF AND DUP2 MSTORE PUSH1 0x20 ADD DUP8 PUSH1 0xFF AND DUP2 MSTORE PUSH1 0x20 ADD DUP7 PUSH1 0xFF AND DUP2 MSTORE PUSH1 0x20 ADD DUP6 PUSH1 0xFF AND DUP2 MSTORE POP PUSH1 0x40 MLOAD PUSH1 0x20 ADD PUSH2 0xE46 SWAP2 SWAP1 PUSH2 0x2BA9 JUMP JUMPDEST PUSH1 0x40 MLOAD PUSH1 0x20 DUP2 DUP4 SUB SUB DUP2 MSTORE SWAP1 PUSH1 0x40 MSTORE SWAP1 POP PUSH2 0xE61 CALLER DUP4 PUSH2 0x16C2 JUMP JUMPDEST PUSH2 0xE6B DUP3 DUP5 PUSH2 0x18DF JUMP JUMPDEST PUSH1 0x40 MLOAD DUP1 PUSH1 0xC0 ADD PUSH1 0x40 MSTORE DUP1 DUP4 DUP2 MSTORE PUSH1 0x20 ADD TIMESTAMP DUP2 MSTORE PUSH1 0x20 ADD PUSH1 0x0 DUP2 MSTORE PUSH1 0x20 ADD CALLER PUSH20 0xFFFFFFFFFFFFFFFFFFFFFFFFFFFFFFFFFFFFFFFF AND DUP2 MSTORE PUSH1 0x20 ADD PUSH1 0x1 DUP1 DUP2 GT ISZERO PUSH2 0xEB8 JUMPI PUSH2 0xEB7 PUSH2 0x2EAB JUMP JUMPDEST JUMPDEST DUP2 MSTORE PUSH1 0x20 ADD DUP3 DUP2 MSTORE POP PUSH1 0xB PUSH1 0x0 DUP5 DUP2 MSTORE PUSH1 0x20 ADD SWAP1 DUP2 MSTORE PUSH1 0x20 ADD PUSH1 0x0 KECCAK256 PUSH1 0x0 DUP3 ADD MLOAD DUP2 PUSH1 0x0 ADD SSTORE PUSH1 0x20 DUP3 ADD MLOAD DUP2 PUSH1 0x1 ADD SSTORE PUSH1 0x40 DUP3 ADD MLOAD DUP2 PUSH1 0x2 ADD SSTORE PUSH1 0x60 DUP3 ADD MLOAD DUP2 PUSH1 0x3 ADD PUSH1 0x0 PUSH2 0x100 EXP DUP2 SLOAD DUP2 PUSH20 0xFFFFFFFFFFFFFFFFFFFFFFFFFFFFFFFFFFFFFFFF MUL NOT AND SWAP1 DUP4 PUSH20 0xFFFFFFFFFFFFFFFFFFFFFFFFFFFFFFFFFFFFFFFF AND MUL OR SWAP1 SSTORE POP PUSH1 0x80 DUP3 ADD MLOAD DUP2 PUSH1 0x3 ADD PUSH1 0x14 PUSH2 0x100 EXP DUP2 SLOAD DUP2 PUSH1 0xFF MUL NOT AND SWAP1 DUP4 PUSH1 0x1 DUP2 GT ISZERO PUSH2 0xF64 JUMPI PUSH2 0xF63 PUSH2 0x2EAB JUMP JUMPDEST JUMPDEST MUL OR SWAP1 SSTORE POP PUSH1 0xA0 DUP3 ADD MLOAD DUP2 PUSH1 0x4 ADD SWAP1 DUP2 PUSH2 0xF7E SWAP2 SWAP1 PUSH2 0x334F JUMP JUMPDEST POP SWAP1 POP POP PUSH1 0xA PUSH1 0x0 DUP2 SLOAD DUP1 SWAP3 SWAP2 SWAP1 PUSH2 0xF95 SWAP1 PUSH2 0x3450 JUMP JUMPDEST SWAP2 SWAP1 POP SSTORE POP PUSH32 0x96307455E81C46B8F48FB0D5DA9CB09F77EC826C16F3CF971688379F43E2CC92 DUP3 CALLER DUP10 DUP10 DUP10 DUP10 PUSH1 0x40 MLOAD PUSH2 0xFD3 SWAP7 SWAP6 SWAP5 SWAP4 SWAP3 SWAP2 SWAP1 PUSH2 0x3881 JUMP JUMPDEST PUSH1 0x40 MLOAD DUP1 SWAP2 SUB SWAP1 LOG1 POP POP POP POP POP POP POP JUMP JUMPDEST PUSH1 0x0 PUSH1 0x7 PUSH1 0x0 SWAP1 SLOAD SWAP1 PUSH2 0x100 EXP SWAP1 DIV PUSH20 0xFFFFFFFFFFFFFFFFFFFFFFFFFFFFFFFFFFFFFFFF AND SWAP1 POP SWAP1 JUMP JUMPDEST PUSH1 0x60 PUSH1 0x1 DUP1 SLOAD PUSH2 0x101D SWAP1 PUSH2 0x304E JUMP JUMPDEST DUP1 PUSH1 0x1F ADD PUSH1 0x20 DUP1 SWAP2 DIV MUL PUSH1 0x20 ADD PUSH1 0x40 MLOAD SWAP1 DUP2 ADD PUSH1 0x40 MSTORE DUP1 SWAP3 SWAP2 SWAP1 DUP2 DUP2 MSTORE PUSH1 0x20 ADD DUP3 DUP1 SLOAD PUSH2 0x1049 SWAP1 PUSH2 0x304E JUMP JUMPDEST DUP1 ISZERO PUSH2 0x1096 JUMPI DUP1 PUSH1 0x1F LT PUSH2 0x106B JUMPI PUSH2 0x100 DUP1 DUP4 SLOAD DIV MUL DUP4 MSTORE SWAP2 PUSH1 0x20 ADD SWAP2 PUSH2 0x1096 JUMP JUMPDEST DUP3 ADD SWAP2 SWAP1 PUSH1 0x0 MSTORE PUSH1 0x20 PUSH1 0x0 KECCAK256 SWAP1 JUMPDEST DUP2 SLOAD DUP2 MSTORE SWAP1 PUSH1 0x1 ADD SWAP1 PUSH1 0x20 ADD DUP1 DUP4 GT PUSH2 0x1079 JUMPI DUP3 SWAP1 SUB PUSH1 0x1F AND DUP3 ADD SWAP2 JUMPDEST POP POP POP POP POP SWAP1 POP SWAP1 JUMP JUMPDEST PUSH2 0x10B2 PUSH2 0x10AB PUSH2 0x155F JUMP JUMPDEST DUP4 DUP4 PUSH2 0x1C29 JUMP JUMPDEST POP POP JUMP JUMPDEST PUSH2 0x10C7 PUSH2 0x10C1 PUSH2 0x155F JUMP JUMPDEST DUP4 PUSH2 0x1983 JUMP JUMPDEST PUSH2 0x1106 JUMPI PUSH1 0x40 MLOAD PUSH32 0x8C379A000000000000000000000000000000000000000000000000000000000 DUP2 MSTORE PUSH1 0x4 ADD PUSH2 0x10FD SWAP1 PUSH2 0x355E JUMP JUMPDEST PUSH1 0x40 MLOAD DUP1 SWAP2 SUB SWAP1 REVERT JUMPDEST PUSH2 0x1112 DUP5 DUP5 DUP5 DUP5 PUSH2 0x1D95 JUMP JUMPDEST POP POP POP POP JUMP JUMPDEST PUSH1 0xB PUSH1 0x20 MSTORE DUP1 PUSH1 0x0 MSTORE PUSH1 0x40 PUSH1 0x0 KECCAK256 PUSH1 0x0 SWAP2 POP SWAP1 POP DUP1 PUSH1 0x0 ADD SLOAD SWAP1 DUP1 PUSH1 0x1 ADD SLOAD SWAP1 DUP1 PUSH1 0x2 ADD SLOAD SWAP1 DUP1 PUSH1 0x3 ADD PUSH1 0x0 SWAP1 SLOAD SWAP1 PUSH2 0x100 EXP SWAP1 DIV PUSH20 0xFFFFFFFFFFFFFFFFFFFFFFFFFFFFFFFFFFFFFFFF AND SWAP1 DUP1 PUSH1 0x3 ADD PUSH1 0x14 SWAP1 SLOAD SWAP1 PUSH2 0x100 EXP SWAP1 DIV PUSH1 0xFF AND SWAP1 DUP1 PUSH1 0x4 ADD DUP1 SLOAD PUSH2 0x1186 SWAP1 PUSH2 0x304E JUMP JUMPDEST DUP1 PUSH1 0x1F ADD PUSH1 0x20 DUP1 SWAP2 DIV MUL PUSH1 0x20 ADD PUSH1 0x40 MLOAD SWAP1 DUP2 ADD PUSH1 0x40 MSTORE DUP1 SWAP3 SWAP2 SWAP1 DUP2 DUP2 MSTORE PUSH1 0x20 ADD DUP3 DUP1 SLOAD PUSH2 0x11B2 SWAP1 PUSH2 0x304E JUMP JUMPDEST DUP1 ISZERO PUSH2 0x11FF JUMPI DUP1 PUSH1 0x1F LT PUSH2 0x11D4 JUMPI PUSH2 0x100 DUP1 DUP4 SLOAD DIV MUL DUP4 MSTORE SWAP2 PUSH1 0x20 ADD SWAP2 PUSH2 0x11FF JUMP JUMPDEST DUP3 ADD SWAP2 SWAP1 PUSH1 0x0 MSTORE PUSH1 0x20 PUSH1 0x0 KECCAK256 SWAP1 JUMPDEST DUP2 SLOAD DUP2 MSTORE SWAP1 PUSH1 0x1 ADD SWAP1 PUSH1 0x20 ADD DUP1 DUP4 GT PUSH2 0x11E2 JUMPI DUP3 SWAP1 SUB PUSH1 0x1F AND DUP3 ADD SWAP2 JUMPDEST POP POP POP POP POP SWAP1 POP DUP7 JUMP JUMPDEST PUSH1 0x60 PUSH2 0x1214 DUP3 PUSH2 0x1514 JUMP JUMPDEST PUSH1 0x0 PUSH1 0x6 PUSH1 0x0 DUP5 DUP2 MSTORE PUSH1 0x20 ADD SWAP1 DUP2 MSTORE PUSH1 0x20 ADD PUSH1 0x0 KECCAK256 DUP1 SLOAD PUSH2 0x1234 SWAP1 PUSH2 0x304E JUMP JUMPDEST DUP1 PUSH1 0x1F ADD PUSH1 0x20 DUP1 SWAP2 DIV MUL PUSH1 0x20 ADD PUSH1 0x40 MLOAD SWAP1 DUP2 ADD PUSH1 0x40 MSTORE DUP1 SWAP3 SWAP2 SWAP1 DUP2 DUP2 MSTORE PUSH1 0x20 ADD DUP3 DUP1 SLOAD PUSH2 0x1260 SWAP1 PUSH2 0x304E JUMP JUMPDEST DUP1 ISZERO PUSH2 0x12AD JUMPI DUP1 PUSH1 0x1F LT PUSH2 0x1282 JUMPI PUSH2 0x100 DUP1 DUP4 SLOAD DIV MUL DUP4 MSTORE SWAP2 PUSH1 0x20 ADD SWAP2 PUSH2 0x12AD JUMP JUMPDEST DUP3 ADD SWAP2 SWAP1 PUSH1 0x0 MSTORE PUSH1 0x20 PUSH1 0x0 KECCAK256 SWAP1 JUMPDEST DUP2 SLOAD DUP2 MSTORE SWAP1 PUSH1 0x1 ADD SWAP1 PUSH1 0x20 ADD DUP1 DUP4 GT PUSH2 0x1290 JUMPI DUP3 SWAP1 SUB PUSH1 0x1F AND DUP3 ADD SWAP2 JUMPDEST POP POP POP POP POP SWAP1 POP PUSH1 0x0 PUSH2 0x12BE PUSH2 0x1DF1 JUMP JUMPDEST SWAP1 POP PUSH1 0x0 DUP2 MLOAD SUB PUSH2 0x12D3 JUMPI DUP2 SWAP3 POP POP POP PUSH2 0x1316 JUMP JUMPDEST PUSH1 0x0 DUP3 MLOAD GT ISZERO PUSH2 0x1308 JUMPI DUP1 DUP3 PUSH1 0x40 MLOAD PUSH1 0x20 ADD PUSH2 0x12F0 SWAP3 SWAP2 SWAP1 PUSH2 0x391E JUMP JUMPDEST PUSH1 0x40 MLOAD PUSH1 0x20 DUP2 DUP4 SUB SUB DUP2 MSTORE SWAP1 PUSH1 0x40 MSTORE SWAP3 POP POP POP PUSH2 0x1316 JUMP JUMPDEST PUSH2 0x1311 DUP5 PUSH2 0x1E08 JUMP JUMPDEST SWAP3 POP POP POP JUMPDEST SWAP2 SWAP1 POP JUMP JUMPDEST PUSH1 0x0 PUSH1 0x5 PUSH1 0x0 DUP5 PUSH20 0xFFFFFFFFFFFFFFFFFFFFFFFFFFFFFFFFFFFFFFFF AND PUSH20 0xFFFFFFFFFFFFFFFFFFFFFFFFFFFFFFFFFFFFFFFF AND DUP2 MSTORE PUSH1 0x20 ADD SWAP1 DUP2 MSTORE PUSH1 0x20 ADD PUSH1 0x0 KECCAK256 PUSH1 0x0 DUP4 PUSH20 0xFFFFFFFFFFFFFFFFFFFFFFFFFFFFFFFFFFFFFFFF AND PUSH20 0xFFFFFFFFFFFFFFFFFFFFFFFFFFFFFFFFFFFFFFFF AND DUP2 MSTORE PUSH1 0x20 ADD SWAP1 DUP2 MSTORE PUSH1 0x20 ADD PUSH1 0x0 KECCAK256 PUSH1 0x0 SWAP1 SLOAD SWAP1 PUSH2 0x100 EXP SWAP1 DIV PUSH1 0xFF AND SWAP1 POP SWAP3 SWAP2 POP POP JUMP JUMPDEST PUSH2 0x13B7 PUSH2 0x1620 JUMP JUMPDEST PUSH1 0x0 PUSH20 0xFFFFFFFFFFFFFFFFFFFFFFFFFFFFFFFFFFFFFFFF AND DUP2 PUSH20 0xFFFFFFFFFFFFFFFFFFFFFFFFFFFFFFFFFFFFFFFF AND SUB PUSH2 0x1426 JUMPI PUSH1 0x40 MLOAD PUSH32 0x8C379A000000000000000000000000000000000000000000000000000000000 DUP2 MSTORE PUSH1 0x4 ADD PUSH2 0x141D SWAP1 PUSH2 0x39B4 JUMP JUMPDEST PUSH1 0x40 MLOAD DUP1 SWAP2 SUB SWAP1 REVERT JUMPDEST PUSH2 0x142F DUP2 PUSH2 0x1B1C JUMP JUMPDEST POP JUMP JUMPDEST PUSH1 0x0 PUSH32 0x80AC58CD00000000000000000000000000000000000000000000000000000000 PUSH28 0xFFFFFFFFFFFFFFFFFFFFFFFFFFFFFFFFFFFFFFFFFFFFFFFFFFFFFFFF NOT AND DUP3 PUSH28 0xFFFFFFFFFFFFFFFFFFFFFFFFFFFFFFFFFFFFFFFFFFFFFFFFFFFFFFFF NOT AND EQ DUP1 PUSH2 0x14FD JUMPI POP PUSH32 0x5B5E139F00000000000000000000000000000000000000000000000000000000 PUSH28 0xFFFFFFFFFFFFFFFFFFFFFFFFFFFFFFFFFFFFFFFFFFFFFFFFFFFFFFFF NOT AND DUP3 PUSH28 0xFFFFFFFFFFFFFFFFFFFFFFFFFFFFFFFFFFFFFFFFFFFFFFFFFFFFFFFF NOT AND EQ JUMPDEST DUP1 PUSH2 0x150D JUMPI POP PUSH2 0x150C DUP3 PUSH2 0x1E70 JUMP JUMPDEST JUMPDEST SWAP1 POP SWAP2 SWAP1 POP JUMP JUMPDEST PUSH2 0x151D DUP2 PUSH2 0x1EDA JUMP JUMPDEST PUSH2 0x155C JUMPI PUSH1 0x40 MLOAD PUSH32 0x8C379A000000000000000000000000000000000000000000000000000000000 DUP2 MSTORE PUSH1 0x4 ADD PUSH2 0x1553 SWAP1 PUSH2 0x3763 JUMP JUMPDEST PUSH1 0x40 MLOAD DUP1 SWAP2 SUB SWAP1 REVERT JUMPDEST POP JUMP JUMPDEST PUSH1 0x0 CALLER SWAP1 POP SWAP1 JUMP JUMPDEST DUP2 PUSH1 0x4 PUSH1 0x0 DUP4 DUP2 MSTORE PUSH1 0x20 ADD SWAP1 DUP2 MSTORE PUSH1 0x20 ADD PUSH1 0x0 KECCAK256 PUSH1 0x0 PUSH2 0x100 EXP DUP2 SLOAD DUP2 PUSH20 0xFFFFFFFFFFFFFFFFFFFFFFFFFFFFFFFFFFFFFFFF MUL NOT AND SWAP1 DUP4 PUSH20 0xFFFFFFFFFFFFFFFFFFFFFFFFFFFFFFFFFFFFFFFF AND MUL OR SWAP1 SSTORE POP DUP1 DUP3 PUSH20 0xFFFFFFFFFFFFFFFFFFFFFFFFFFFFFFFFFFFFFFFF AND PUSH2 0x15DA DUP4 PUSH2 0xAC8 JUMP JUMPDEST PUSH20 0xFFFFFFFFFFFFFFFFFFFFFFFFFFFFFFFFFFFFFFFF AND PUSH32 0x8C5BE1E5EBEC7D5BD14F71427D1E84F3DD0314C0F7B2291E5B200AC8C7C3B925 PUSH1 0x40 MLOAD PUSH1 0x40 MLOAD DUP1 SWAP2 SUB SWAP1 LOG4 POP POP JUMP JUMPDEST PUSH2 0x1628 PUSH2 0x155F JUMP JUMPDEST PUSH20 0xFFFFFFFFFFFFFFFFFFFFFFFFFFFFFFFFFFFFFFFF AND PUSH2 0x1646 PUSH2 0xFE4 JUMP JUMPDEST PUSH20 0xFFFFFFFFFFFFFFFFFFFFFFFFFFFFFFFFFFFFFFFF AND EQ PUSH2 0x169C JUMPI PUSH1 0x40 MLOAD PUSH32 0x8C379A000000000000000000000000000000000000000000000000000000000 DUP2 MSTORE PUSH1 0x4 ADD PUSH2 0x1693 SWAP1 PUSH2 0x3A20 JUMP JUMPDEST PUSH1 0x40 MLOAD DUP1 SWAP2 SUB SWAP1 REVERT JUMPDEST JUMP JUMPDEST PUSH1 0x1 DUP2 PUSH1 0x0 ADD PUSH1 0x0 DUP3 DUP3 SLOAD ADD SWAP3 POP POP DUP2 SWAP1 SSTORE POP POP JUMP JUMPDEST PUSH1 0x0 DUP2 PUSH1 0x0 ADD SLOAD SWAP1 POP SWAP2 SWAP1 POP JUMP JUMPDEST PUSH1 0x0 PUSH20 0xFFFFFFFFFFFFFFFFFFFFFFFFFFFFFFFFFFFFFFFF AND DUP3 PUSH20 0xFFFFFFFFFFFFFFFFFFFFFFFFFFFFFFFFFFFFFFFF AND SUB PUSH2 0x1731 JUMPI PUSH1 0x40 MLOAD PUSH32 0x8C379A000000000000000000000000000000000000000000000000000000000 DUP2 MSTORE PUSH1 0x4 ADD PUSH2 0x1728 SWAP1 PUSH2 0x3A8C JUMP JUMPDEST PUSH1 0x40 MLOAD DUP1 SWAP2 SUB SWAP1 REVERT JUMPDEST PUSH2 0x173A DUP2 PUSH2 0x1EDA JUMP JUMPDEST ISZERO PUSH2 0x177A JUMPI PUSH1 0x40 MLOAD PUSH32 0x8C379A000000000000000000000000000000000000000000000000000000000 DUP2 MSTORE PUSH1 0x4 ADD PUSH2 0x1771 SWAP1 PUSH2 0x3AF8 JUMP JUMPDEST PUSH1 0x40 MLOAD DUP1 SWAP2 SUB SWAP1 REVERT JUMPDEST PUSH2 0x1788 PUSH1 0x0 DUP4 DUP4 PUSH1 0x1 PUSH2 0x1F1B JUMP JUMPDEST PUSH2 0x1791 DUP2 PUSH2 0x1EDA JUMP JUMPDEST ISZERO PUSH2 0x17D1 JUMPI PUSH1 0x40 MLOAD PUSH32 0x8C379A000000000000000000000000000000000000000000000000000000000 DUP2 MSTORE PUSH1 0x4 ADD PUSH2 0x17C8 SWAP1 PUSH2 0x3AF8 JUMP JUMPDEST PUSH1 0x40 MLOAD DUP1 SWAP2 SUB SWAP1 REVERT JUMPDEST PUSH1 0x1 PUSH1 0x3 PUSH1 0x0 DUP5 PUSH20 0xFFFFFFFFFFFFFFFFFFFFFFFFFFFFFFFFFFFFFFFF AND PUSH20 0xFFFFFFFFFFFFFFFFFFFFFFFFFFFFFFFFFFFFFFFF AND DUP2 MSTORE PUSH1 0x20 ADD SWAP1 DUP2 MSTORE PUSH1 0x20 ADD PUSH1 0x0 KECCAK256 PUSH1 0x0 DUP3 DUP3 SLOAD ADD SWAP3 POP POP DUP2 SWAP1 SSTORE POP DUP2 PUSH1 0x2 PUSH1 0x0 DUP4 DUP2 MSTORE PUSH1 0x20 ADD SWAP1 DUP2 MSTORE PUSH1 0x20 ADD PUSH1 0x0 KECCAK256 PUSH1 0x0 PUSH2 0x100 EXP DUP2 SLOAD DUP2 PUSH20 0xFFFFFFFFFFFFFFFFFFFFFFFFFFFFFFFFFFFFFFFF MUL NOT AND SWAP1 DUP4 PUSH20 0xFFFFFFFFFFFFFFFFFFFFFFFFFFFFFFFFFFFFFFFF AND MUL OR SWAP1 SSTORE POP DUP1 DUP3 PUSH20 0xFFFFFFFFFFFFFFFFFFFFFFFFFFFFFFFFFFFFFFFF AND PUSH1 0x0 PUSH20 0xFFFFFFFFFFFFFFFFFFFFFFFFFFFFFFFFFFFFFFFF AND PUSH32 0xDDF252AD1BE2C89B69C2B068FC378DAA952BA7F163C4A11628F55A4DF523B3EF PUSH1 0x40 MLOAD PUSH1 0x40 MLOAD DUP1 SWAP2 SUB SWAP1 LOG4 PUSH2 0x18DB PUSH1 0x0 DUP4 DUP4 PUSH1 0x1 PUSH2 0x1F21 JUMP JUMPDEST POP POP JUMP JUMPDEST PUSH2 0x18E8 DUP3 PUSH2 0x1EDA JUMP JUMPDEST PUSH2 0x1927 JUMPI PUSH1 0x40 MLOAD PUSH32 0x8C379A000000000000000000000000000000000000000000000000000000000 DUP2 MSTORE PUSH1 0x4 ADD PUSH2 0x191E SWAP1 PUSH2 0x3B8A JUMP JUMPDEST PUSH1 0x40 MLOAD DUP1 SWAP2 SUB SWAP1 REVERT JUMPDEST DUP1 PUSH1 0x6 PUSH1 0x0 DUP5 DUP2 MSTORE PUSH1 0x20 ADD SWAP1 DUP2 MSTORE PUSH1 0x20 ADD PUSH1 0x0 KECCAK256 SWAP1 DUP2 PUSH2 0x1947 SWAP2 SWAP1 PUSH2 0x3645 JUMP JUMPDEST POP PUSH32 0xF8E1A15ABA9398E019F0B49DF1A4FDE98EE17AE345CB5F6B5E2C27F5033E8CE7 DUP3 PUSH1 0x40 MLOAD PUSH2 0x1977 SWAP2 SWAP1 PUSH2 0x28FA JUMP JUMPDEST PUSH1 0x40 MLOAD DUP1 SWAP2 SUB SWAP1 LOG1 POP POP JUMP JUMPDEST PUSH1 0x0 DUP1 PUSH2 0x198F DUP4 PUSH2 0xAC8 JUMP JUMPDEST SWAP1 POP DUP1 PUSH20 0xFFFFFFFFFFFFFFFFFFFFFFFFFFFFFFFFFFFFFFFF AND DUP5 PUSH20 0xFFFFFFFFFFFFFFFFFFFFFFFFFFFFFFFFFFFFFFFF AND EQ DUP1 PUSH2 0x19D1 JUMPI POP PUSH2 0x19D0 DUP2 DUP6 PUSH2 0x131B JUMP JUMPDEST JUMPDEST DUP1 PUSH2 0x1A0F JUMPI POP DUP4 PUSH20 0xFFFFFFFFFFFFFFFFFFFFFFFFFFFFFFFFFFFFFFFF AND PUSH2 0x19F7 DUP5 PUSH2 0x5A1 JUMP JUMPDEST PUSH20 0xFFFFFFFFFFFFFFFFFFFFFFFFFFFFFFFFFFFFFFFF AND EQ JUMPDEST SWAP2 POP POP SWAP3 SWAP2 POP POP JUMP JUMPDEST PUSH2 0x1A23 DUP4 DUP4 DUP4 PUSH2 0x1F27 JUMP JUMPDEST DUP2 PUSH1 0xB PUSH1 0x0 DUP4 DUP2 MSTORE PUSH1 0x20 ADD SWAP1 DUP2 MSTORE PUSH1 0x20 ADD PUSH1 0x0 KECCAK256 PUSH1 0x3 ADD PUSH1 0x0 PUSH2 0x100 EXP DUP2 SLOAD DUP2 PUSH20 0xFFFFFFFFFFFFFFFFFFFFFFFFFFFFFFFFFFFFFFFF MUL NOT AND SWAP1 DUP4 PUSH20 0xFFFFFFFFFFFFFFFFFFFFFFFFFFFFFFFFFFFFFFFF AND MUL OR SWAP1 SSTORE POP POP POP POP JUMP JUMPDEST PUSH2 0x1A85 PUSH2 0x25EB JUMP JUMPDEST PUSH1 0x0 DUP1 PUSH1 0x0 DUP1 DUP6 DUP1 PUSH1 0x20 ADD SWAP1 MLOAD DUP2 ADD SWAP1 PUSH2 0x1A9F SWAP2 SWAP1 PUSH2 0x3BBF JUMP JUMPDEST SWAP4 POP SWAP4 POP SWAP4 POP SWAP4 POP PUSH1 0x40 MLOAD DUP1 PUSH1 0x80 ADD PUSH1 0x40 MSTORE DUP1 DUP6 PUSH1 0xFF AND DUP2 MSTORE PUSH1 0x20 ADD DUP5 PUSH1 0xFF AND DUP2 MSTORE PUSH1 0x20 ADD DUP4 PUSH1 0xFF AND DUP2 MSTORE PUSH1 0x20 ADD DUP3 PUSH1 0xFF AND DUP2 MSTORE POP SWAP5 POP POP POP POP POP SWAP2 SWAP1 POP JUMP JUMPDEST PUSH1 0x0 PUSH1 0x2 PUSH1 0x0 DUP4 DUP2 MSTORE PUSH1 0x20 ADD SWAP1 DUP2 MSTORE PUSH1 0x20 ADD PUSH1 0x0 KECCAK256 PUSH1 0x0 SWAP1 SLOAD SWAP1 PUSH2 0x100 EXP SWAP1 DIV PUSH20 0xFFFFFFFFFFFFFFFFFFFFFFFFFFFFFFFFFFFFFFFF AND SWAP1 POP SWAP2 SWAP1 POP JUMP JUMPDEST PUSH1 0x0 PUSH1 0x7 PUSH1 0x0 SWAP1 SLOAD SWAP1 PUSH2 0x100 EXP SWAP1 DIV PUSH20 0xFFFFFFFFFFFFFFFFFFFFFFFFFFFFFFFFFFFFFFFF AND SWAP1 POP DUP2 PUSH1 0x7 PUSH1 0x0 PUSH2 0x100 EXP DUP2 SLOAD DUP2 PUSH20 0xFFFFFFFFFFFFFFFFFFFFFFFFFFFFFFFFFFFFFFFF MUL NOT AND SWAP1 DUP4 PUSH20 0xFFFFFFFFFFFFFFFFFFFFFFFFFFFFFFFFFFFFFFFF AND MUL OR SWAP1 SSTORE POP DUP2 PUSH20 0xFFFFFFFFFFFFFFFFFFFFFFFFFFFFFFFFFFFFFFFF AND DUP2 PUSH20 0xFFFFFFFFFFFFFFFFFFFFFFFFFFFFFFFFFFFFFFFF AND PUSH32 0x8BE0079C531659141344CD1FD0A4F28419497F9722A3DAAFE3B4186F6B6457E0 PUSH1 0x40 MLOAD PUSH1 0x40 MLOAD DUP1 SWAP2 SUB SWAP1 LOG3 POP POP JUMP JUMPDEST PUSH2 0x1BEA PUSH2 0x261F JUMP JUMPDEST PUSH1 0x0 DUP1 DUP4 DUP1 PUSH1 0x20 ADD SWAP1 MLOAD DUP2 ADD SWAP1 PUSH2 0x1C01 SWAP2 SWAP1 PUSH2 0x3C26 JUMP JUMPDEST SWAP2 POP SWAP2 POP PUSH1 0x40 MLOAD DUP1 PUSH1 0x40 ADD PUSH1 0x40 MSTORE DUP1 DUP4 PUSH1 0xFF AND DUP2 MSTORE PUSH1 0x20 ADD DUP3 PUSH1 0xFF AND DUP2 MSTORE POP SWAP3 POP POP POP SWAP2 SWAP1 POP JUMP JUMPDEST DUP2 PUSH20 0xFFFFFFFFFFFFFFFFFFFFFFFFFFFFFFFFFFFFFFFF AND DUP4 PUSH20 0xFFFFFFFFFFFFFFFFFFFFFFFFFFFFFFFFFFFFFFFF AND SUB PUSH2 0x1C97 JUMPI PUSH1 0x40 MLOAD PUSH32 0x8C379A000000000000000000000000000000000000000000000000000000000 DUP2 MSTORE PUSH1 0x4 ADD PUSH2 0x1C8E SWAP1 PUSH2 0x3CB2 JUMP JUMPDEST PUSH1 0x40 MLOAD DUP1 SWAP2 SUB SWAP1 REVERT JUMPDEST DUP1 PUSH1 0x5 PUSH1 0x0 DUP6 PUSH20 0xFFFFFFFFFFFFFFFFFFFFFFFFFFFFFFFFFFFFFFFF AND PUSH20 0xFFFFFFFFFFFFFFFFFFFFFFFFFFFFFFFFFFFFFFFF AND DUP2 MSTORE PUSH1 0x20 ADD SWAP1 DUP2 MSTORE PUSH1 0x20 ADD PUSH1 0x0 KECCAK256 PUSH1 0x0 DUP5 PUSH20 0xFFFFFFFFFFFFFFFFFFFFFFFFFFFFFFFFFFFFFFFF AND PUSH20 0xFFFFFFFFFFFFFFFFFFFFFFFFFFFFFFFFFFFFFFFF AND DUP2 MSTORE PUSH1 0x20 ADD SWAP1 DUP2 MSTORE PUSH1 0x20 ADD PUSH1 0x0 KECCAK256 PUSH1 0x0 PUSH2 0x100 EXP DUP2 SLOAD DUP2 PUSH1 0xFF MUL NOT AND SWAP1 DUP4 ISZERO ISZERO MUL OR SWAP1 SSTORE POP DUP2 PUSH20 0xFFFFFFFFFFFFFFFFFFFFFFFFFFFFFFFFFFFFFFFF AND DUP4 PUSH20 0xFFFFFFFFFFFFFFFFFFFFFFFFFFFFFFFFFFFFFFFF AND PUSH32 0x17307EAB39AB6107E8899845AD3D59BD9653F200F220920489CA2B5937696C31 DUP4 PUSH1 0x40 MLOAD PUSH2 0x1D88 SWAP2 SWAP1 PUSH2 0x26F3 JUMP JUMPDEST PUSH1 0x40 MLOAD DUP1 SWAP2 SUB SWAP1 LOG3 POP POP POP JUMP JUMPDEST PUSH2 0x1DA0 DUP5 DUP5 DUP5 PUSH2 0x1A18 JUMP JUMPDEST PUSH2 0x1DAC DUP5 DUP5 DUP5 DUP5 PUSH2 0x2220 JUMP JUMPDEST PUSH2 0x1DEB JUMPI PUSH1 0x40 MLOAD PUSH32 0x8C379A000000000000000000000000000000000000000000000000000000000 DUP2 MSTORE PUSH1 0x4 ADD PUSH2 0x1DE2 SWAP1 PUSH2 0x3D44 JUMP JUMPDEST PUSH1 0x40 MLOAD DUP1 SWAP2 SUB SWAP1 REVERT JUMPDEST POP POP POP POP JUMP JUMPDEST PUSH1 0x60 PUSH1 0x40 MLOAD DUP1 PUSH1 0x20 ADD PUSH1 0x40 MSTORE DUP1 PUSH1 0x0 DUP2 MSTORE POP SWAP1 POP SWAP1 JUMP JUMPDEST PUSH1 0x60 PUSH2 0x1E13 DUP3 PUSH2 0x1514 JUMP JUMPDEST PUSH1 0x0 PUSH2 0x1E1D PUSH2 0x1DF1 JUMP JUMPDEST SWAP1 POP PUSH1 0x0 DUP2 MLOAD GT PUSH2 0x1E3D JUMPI PUSH1 0x40 MLOAD DUP1 PUSH1 0x20 ADD PUSH1 0x40 MSTORE DUP1 PUSH1 0x0 DUP2 MSTORE POP PUSH2 0x1E68 JUMP JUMPDEST DUP1 PUSH2 0x1E47 DUP5 PUSH2 0x23A7 JUMP JUMPDEST PUSH1 0x40 MLOAD PUSH1 0x20 ADD PUSH2 0x1E58 SWAP3 SWAP2 SWAP1 PUSH2 0x391E JUMP JUMPDEST PUSH1 0x40 MLOAD PUSH1 0x20 DUP2 DUP4 SUB SUB DUP2 MSTORE SWAP1 PUSH1 0x40 MSTORE JUMPDEST SWAP2 POP POP SWAP2 SWAP1 POP JUMP JUMPDEST PUSH1 0x0 PUSH32 0x1FFC9A700000000000000000000000000000000000000000000000000000000 PUSH28 0xFFFFFFFFFFFFFFFFFFFFFFFFFFFFFFFFFFFFFFFFFFFFFFFFFFFFFFFF NOT AND DUP3 PUSH28 0xFFFFFFFFFFFFFFFFFFFFFFFFFFFFFFFFFFFFFFFFFFFFFFFFFFFFFFFF NOT AND EQ SWAP1 POP SWAP2 SWAP1 POP JUMP JUMPDEST PUSH1 0x0 DUP1 PUSH20 0xFFFFFFFFFFFFFFFFFFFFFFFFFFFFFFFFFFFFFFFF AND PUSH2 0x1EFC DUP4 PUSH2 0x1ADF JUMP JUMPDEST PUSH20 0xFFFFFFFFFFFFFFFFFFFFFFFFFFFFFFFFFFFFFFFF AND EQ ISZERO SWAP1 POP SWAP2 SWAP1 POP JUMP JUMPDEST POP POP POP POP JUMP JUMPDEST POP POP POP POP JUMP JUMPDEST DUP3 PUSH20 0xFFFFFFFFFFFFFFFFFFFFFFFFFFFFFFFFFFFFFFFF AND PUSH2 0x1F47 DUP3 PUSH2 0xAC8 JUMP JUMPDEST PUSH20 0xFFFFFFFFFFFFFFFFFFFFFFFFFFFFFFFFFFFFFFFF AND EQ PUSH2 0x1F9D JUMPI PUSH1 0x40 MLOAD PUSH32 0x8C379A000000000000000000000000000000000000000000000000000000000 DUP2 MSTORE PUSH1 0x4 ADD PUSH2 0x1F94 SWAP1 PUSH2 0x3DD6 JUMP JUMPDEST PUSH1 0x40 MLOAD DUP1 SWAP2 SUB SWAP1 REVERT JUMPDEST PUSH1 0x0 PUSH20 0xFFFFFFFFFFFFFFFFFFFFFFFFFFFFFFFFFFFFFFFF AND DUP3 PUSH20 0xFFFFFFFFFFFFFFFFFFFFFFFFFFFFFFFFFFFFFFFF AND SUB PUSH2 0x200C JUMPI PUSH1 0x40 MLOAD PUSH32 0x8C379A000000000000000000000000000000000000000000000000000000000 DUP2 MSTORE PUSH1 0x4 ADD PUSH2 0x2003 SWAP1 PUSH2 0x3E68 JUMP JUMPDEST PUSH1 0x40 MLOAD DUP1 SWAP2 SUB SWAP1 REVERT JUMPDEST PUSH2 0x2019 DUP4 DUP4 DUP4 PUSH1 0x1 PUSH2 0x1F1B JUMP JUMPDEST DUP3 PUSH20 0xFFFFFFFFFFFFFFFFFFFFFFFFFFFFFFFFFFFFFFFF AND PUSH2 0x2039 DUP3 PUSH2 0xAC8 JUMP JUMPDEST PUSH20 0xFFFFFFFFFFFFFFFFFFFFFFFFFFFFFFFFFFFFFFFF AND EQ PUSH2 0x208F JUMPI PUSH1 0x40 MLOAD PUSH32 0x8C379A000000000000000000000000000000000000000000000000000000000 DUP2 MSTORE PUSH1 0x4 ADD PUSH2 0x2086 SWAP1 PUSH2 0x3DD6 JUMP JUMPDEST PUSH1 0x40 MLOAD DUP1 SWAP2 SUB SWAP1 REVERT JUMPDEST PUSH1 0x4 PUSH1 0x0 DUP3 DUP2 MSTORE PUSH1 0x20 ADD SWAP1 DUP2 MSTORE PUSH1 0x20 ADD PUSH1 0x0 KECCAK256 PUSH1 0x0 PUSH2 0x100 EXP DUP2 SLOAD SWAP1 PUSH20 0xFFFFFFFFFFFFFFFFFFFFFFFFFFFFFFFFFFFFFFFF MUL NOT AND SWAP1 SSTORE PUSH1 0x1 PUSH1 0x3 PUSH1 0x0 DUP6 PUSH20 0xFFFFFFFFFFFFFFFFFFFFFFFFFFFFFFFFFFFFFFFF AND PUSH20 0xFFFFFFFFFFFFFFFFFFFFFFFFFFFFFFFFFFFFFFFF AND DUP2 MSTORE PUSH1 0x20 ADD SWAP1 DUP2 MSTORE PUSH1 0x20 ADD PUSH1 0x0 KECCAK256 PUSH1 0x0 DUP3 DUP3 SLOAD SUB SWAP3 POP POP DUP2 SWAP1 SSTORE POP PUSH1 0x1 PUSH1 0x3 PUSH1 0x0 DUP5 PUSH20 0xFFFFFFFFFFFFFFFFFFFFFFFFFFFFFFFFFFFFFFFF AND PUSH20 0xFFFFFFFFFFFFFFFFFFFFFFFFFFFFFFFFFFFFFFFF AND DUP2 MSTORE PUSH1 0x20 ADD SWAP1 DUP2 MSTORE PUSH1 0x20 ADD PUSH1 0x0 KECCAK256 PUSH1 0x0 DUP3 DUP3 SLOAD ADD SWAP3 POP POP DUP2 SWAP1 SSTORE POP DUP2 PUSH1 0x2 PUSH1 0x0 DUP4 DUP2 MSTORE PUSH1 0x20 ADD SWAP1 DUP2 MSTORE PUSH1 0x20 ADD PUSH1 0x0 KECCAK256 PUSH1 0x0 PUSH2 0x100 EXP DUP2 SLOAD DUP2 PUSH20 0xFFFFFFFFFFFFFFFFFFFFFFFFFFFFFFFFFFFFFFFF MUL NOT AND SWAP1 DUP4 PUSH20 0xFFFFFFFFFFFFFFFFFFFFFFFFFFFFFFFFFFFFFFFF AND MUL OR SWAP1 SSTORE POP DUP1 DUP3 PUSH20 0xFFFFFFFFFFFFFFFFFFFFFFFFFFFFFFFFFFFFFFFF AND DUP5 PUSH20 0xFFFFFFFFFFFFFFFFFFFFFFFFFFFFFFFFFFFFFFFF AND PUSH32 0xDDF252AD1BE2C89B69C2B068FC378DAA952BA7F163C4A11628F55A4DF523B3EF PUSH1 0x40 MLOAD PUSH1 0x40 MLOAD DUP1 SWAP2 SUB SWAP1 LOG4 PUSH2 0x221B DUP4 DUP4 DUP4 PUSH1 0x1 PUSH2 0x1F21 JUMP JUMPDEST POP POP POP JUMP JUMPDEST PUSH1 0x0 PUSH2 0x2241 DUP5 PUSH20 0xFFFFFFFFFFFFFFFFFFFFFFFFFFFFFFFFFFFFFFFF AND PUSH2 0x2475 JUMP JUMPDEST ISZERO PUSH2 0x239A JUMPI DUP4 PUSH20 0xFFFFFFFFFFFFFFFFFFFFFFFFFFFFFFFFFFFFFFFF AND PUSH4 0x150B7A02 PUSH2 0x226A PUSH2 0x155F JUMP JUMPDEST DUP8 DUP7 DUP7 PUSH1 0x40 MLOAD DUP6 PUSH4 0xFFFFFFFF AND PUSH1 0xE0 SHL DUP2 MSTORE PUSH1 0x4 ADD PUSH2 0x228C SWAP5 SWAP4 SWAP3 SWAP2 SWAP1 PUSH2 0x3E88 JUMP JUMPDEST PUSH1 0x20 PUSH1 0x40 MLOAD DUP1 DUP4 SUB DUP2 PUSH1 0x0 DUP8 GAS CALL SWAP3 POP POP POP DUP1 ISZERO PUSH2 0x22C8 JUMPI POP PUSH1 0x40 MLOAD RETURNDATASIZE PUSH1 0x1F NOT PUSH1 0x1F DUP3 ADD AND DUP3 ADD DUP1 PUSH1 0x40 MSTORE POP DUP2 ADD SWAP1 PUSH2 0x22C5 SWAP2 SWAP1 PUSH2 0x3EE9 JUMP JUMPDEST PUSH1 0x1 JUMPDEST PUSH2 0x234A JUMPI RETURNDATASIZE DUP1 PUSH1 0x0 DUP2 EQ PUSH2 0x22F8 JUMPI PUSH1 0x40 MLOAD SWAP2 POP PUSH1 0x1F NOT PUSH1 0x3F RETURNDATASIZE ADD AND DUP3 ADD PUSH1 0x40 MSTORE RETURNDATASIZE DUP3 MSTORE RETURNDATASIZE PUSH1 0x0 PUSH1 0x20 DUP5 ADD RETURNDATACOPY PUSH2 0x22FD JUMP JUMPDEST PUSH1 0x60 SWAP2 POP JUMPDEST POP PUSH1 0x0 DUP2 MLOAD SUB PUSH2 0x2342 JUMPI PUSH1 0x40 MLOAD PUSH32 0x8C379A000000000000000000000000000000000000000000000000000000000 DUP2 MSTORE PUSH1 0x4 ADD PUSH2 0x2339 SWAP1 PUSH2 0x3D44 JUMP JUMPDEST PUSH1 0x40 MLOAD DUP1 SWAP2 SUB SWAP1 REVERT JUMPDEST DUP1 MLOAD DUP2 PUSH1 0x20 ADD REVERT JUMPDEST PUSH4 0x150B7A02 PUSH1 0xE0 SHL PUSH28 0xFFFFFFFFFFFFFFFFFFFFFFFFFFFFFFFFFFFFFFFFFFFFFFFFFFFFFFFF NOT AND DUP2 PUSH28 0xFFFFFFFFFFFFFFFFFFFFFFFFFFFFFFFFFFFFFFFFFFFFFFFFFFFFFFFF NOT AND EQ SWAP2 POP POP PUSH2 0x239F JUMP JUMPDEST PUSH1 0x1 SWAP1 POP JUMPDEST SWAP5 SWAP4 POP POP POP POP JUMP JUMPDEST PUSH1 0x60 PUSH1 0x0 PUSH1 0x1 PUSH2 0x23B6 DUP5 PUSH2 0x2498 JUMP JUMPDEST ADD SWAP1 POP PUSH1 0x0 DUP2 PUSH8 0xFFFFFFFFFFFFFFFF DUP2 GT ISZERO PUSH2 0x23D5 JUMPI PUSH2 0x23D4 PUSH2 0x2958 JUMP JUMPDEST JUMPDEST PUSH1 0x40 MLOAD SWAP1 DUP1 DUP3 MSTORE DUP1 PUSH1 0x1F ADD PUSH1 0x1F NOT AND PUSH1 0x20 ADD DUP3 ADD PUSH1 0x40 MSTORE DUP1 ISZERO PUSH2 0x2407 JUMPI DUP2 PUSH1 0x20 ADD PUSH1 0x1 DUP3 MUL DUP1 CALLDATASIZE DUP4 CALLDATACOPY DUP1 DUP3 ADD SWAP2 POP POP SWAP1 POP JUMPDEST POP SWAP1 POP PUSH1 0x0 DUP3 PUSH1 0x20 ADD DUP3 ADD SWAP1 POP JUMPDEST PUSH1 0x1 ISZERO PUSH2 0x246A JUMPI DUP1 DUP1 PUSH1 0x1 SWAP1 SUB SWAP2 POP POP PUSH32 0x3031323334353637383961626364656600000000000000000000000000000000 PUSH1 0xA DUP7 MOD BYTE DUP2 MSTORE8 PUSH1 0xA DUP6 DUP2 PUSH2 0x245E JUMPI PUSH2 0x245D PUSH2 0x3F16 JUMP JUMPDEST JUMPDEST DIV SWAP5 POP PUSH1 0x0 DUP6 SUB PUSH2 0x2415 JUMPI JUMPDEST DUP2 SWAP4 POP POP POP POP SWAP2 SWAP1 POP JUMP JUMPDEST PUSH1 0x0 DUP1 DUP3 PUSH20 0xFFFFFFFFFFFFFFFFFFFFFFFFFFFFFFFFFFFFFFFF AND EXTCODESIZE GT SWAP1 POP SWAP2 SWAP1 POP JUMP JUMPDEST PUSH1 0x0 DUP1 PUSH1 0x0 SWAP1 POP PUSH27 0x184F03E93FF9F4DAA797ED6E38ED64BF6A1F010000000000000000 DUP4 LT PUSH2 0x24F6 JUMPI PUSH27 0x184F03E93FF9F4DAA797ED6E38ED64BF6A1F010000000000000000 DUP4 DUP2 PUSH2 0x24EC JUMPI PUSH2 0x24EB PUSH2 0x3F16 JUMP JUMPDEST JUMPDEST DIV SWAP3 POP PUSH1 0x40 DUP2 ADD SWAP1 POP JUMPDEST PUSH14 0x4EE2D6D415B85ACEF8100000000 DUP4 LT PUSH2 0x2533 JUMPI PUSH14 0x4EE2D6D415B85ACEF8100000000 DUP4 DUP2 PUSH2 0x2529 JUMPI PUSH2 0x2528 PUSH2 0x3F16 JUMP JUMPDEST JUMPDEST DIV SWAP3 POP PUSH1 0x20 DUP2 ADD SWAP1 POP JUMPDEST PUSH7 0x2386F26FC10000 DUP4 LT PUSH2 0x2562 JUMPI PUSH7 0x2386F26FC10000 DUP4 DUP2 PUSH2 0x2558 JUMPI PUSH2 0x2557 PUSH2 0x3F16 JUMP JUMPDEST JUMPDEST DIV SWAP3 POP PUSH1 0x10 DUP2 ADD SWAP1 POP JUMPDEST PUSH4 0x5F5E100 DUP4 LT PUSH2 0x258B JUMPI PUSH4 0x5F5E100 DUP4 DUP2 PUSH2 0x2581 JUMPI PUSH2 0x2580 PUSH2 0x3F16 JUMP JUMPDEST JUMPDEST DIV SWAP3 POP PUSH1 0x8 DUP2 ADD SWAP1 POP JUMPDEST PUSH2 0x2710 DUP4 LT PUSH2 0x25B0 JUMPI PUSH2 0x2710 DUP4 DUP2 PUSH2 0x25A6 JUMPI PUSH2 0x25A5 PUSH2 0x3F16 JUMP JUMPDEST JUMPDEST DIV SWAP3 POP PUSH1 0x4 DUP2 ADD SWAP1 POP JUMPDEST PUSH1 0x64 DUP4 LT PUSH2 0x25D3 JUMPI PUSH1 0x64 DUP4 DUP2 PUSH2 0x25C9 JUMPI PUSH2 0x25C8 PUSH2 0x3F16 JUMP JUMPDEST JUMPDEST DIV SWAP3 POP PUSH1 0x2 DUP2 ADD SWAP1 POP JUMPDEST PUSH1 0xA DUP4 LT PUSH2 0x25E2 JUMPI PUSH1 0x1 DUP2 ADD SWAP1 POP JUMPDEST DUP1 SWAP2 POP POP SWAP2 SWAP1 POP JUMP JUMPDEST PUSH1 0x40 MLOAD DUP1 PUSH1 0x80 ADD PUSH1 0x40 MSTORE DUP1 PUSH1 0x0 PUSH1 0xFF AND DUP2 MSTORE PUSH1 0x20 ADD PUSH1 0x0 PUSH1 0xFF AND DUP2 MSTORE PUSH1 0x20 ADD PUSH1 0x0 PUSH1 0xFF AND DUP2 MSTORE PUSH1 0x20 ADD PUSH1 0x0 PUSH1 0xFF AND DUP2 MSTORE POP SWAP1 JUMP JUMPDEST PUSH1 0x40 MLOAD DUP1 PUSH1 0x40 ADD PUSH1 0x40 MSTORE DUP1 PUSH1 0x0 PUSH1 0xFF AND DUP2 MSTORE PUSH1 0x20 ADD PUSH1 0x0 PUSH1 0xFF AND DUP2 MSTORE POP SWAP1 JUMP JUMPDEST PUSH1 0x0 PUSH1 0x40 MLOAD SWAP1 POP SWAP1 JUMP JUMPDEST PUSH1 0x0 DUP1 REVERT JUMPDEST PUSH1 0x0 DUP1 REVERT JUMPDEST PUSH1 0x0 PUSH32 0xFFFFFFFF00000000000000000000000000000000000000000000000000000000 DUP3 AND SWAP1 POP SWAP2 SWAP1 POP JUMP JUMPDEST PUSH2 0x2688 DUP2 PUSH2 0x2653 JUMP JUMPDEST DUP2 EQ PUSH2 0x2693 JUMPI PUSH1 0x0 DUP1 REVERT JUMPDEST POP JUMP JUMPDEST PUSH1 0x0 DUP2 CALLDATALOAD SWAP1 POP PUSH2 0x26A5 DUP2 PUSH2 0x267F JUMP JUMPDEST SWAP3 SWAP2 POP POP JUMP JUMPDEST PUSH1 0x0 PUSH1 0x20 DUP3 DUP5 SUB SLT ISZERO PUSH2 0x26C1 JUMPI PUSH2 0x26C0 PUSH2 0x2649 JUMP JUMPDEST JUMPDEST PUSH1 0x0 PUSH2 0x26CF DUP5 DUP3 DUP6 ADD PUSH2 0x2696 JUMP JUMPDEST SWAP2 POP POP SWAP3 SWAP2 POP POP JUMP JUMPDEST PUSH1 0x0 DUP2 ISZERO ISZERO SWAP1 POP SWAP2 SWAP1 POP JUMP JUMPDEST PUSH2 0x26ED DUP2 PUSH2 0x26D8 JUMP JUMPDEST DUP3 MSTORE POP POP JUMP JUMPDEST PUSH1 0x0 PUSH1 0x20 DUP3 ADD SWAP1 POP PUSH2 0x2708 PUSH1 0x0 DUP4 ADD DUP5 PUSH2 0x26E4 JUMP JUMPDEST SWAP3 SWAP2 POP POP JUMP JUMPDEST PUSH1 0x0 DUP2 MLOAD SWAP1 POP SWAP2 SWAP1 POP JUMP JUMPDEST PUSH1 0x0 DUP3 DUP3 MSTORE PUSH1 0x20 DUP3 ADD SWAP1 POP SWAP3 SWAP2 POP POP JUMP JUMPDEST PUSH1 0x0 JUMPDEST DUP4 DUP2 LT ISZERO PUSH2 0x2748 JUMPI DUP1 DUP3 ADD MLOAD DUP2 DUP5 ADD MSTORE PUSH1 0x20 DUP2 ADD SWAP1 POP PUSH2 0x272D JUMP JUMPDEST PUSH1 0x0 DUP5 DUP5 ADD MSTORE POP POP POP POP JUMP JUMPDEST PUSH1 0x0 PUSH1 0x1F NOT PUSH1 0x1F DUP4 ADD AND SWAP1 POP SWAP2 SWAP1 POP JUMP JUMPDEST PUSH1 0x0 PUSH2 0x2770 DUP3 PUSH2 0x270E JUMP JUMPDEST PUSH2 0x277A DUP2 DUP6 PUSH2 0x2719 JUMP JUMPDEST SWAP4 POP PUSH2 0x278A DUP2 DUP6 PUSH1 0x20 DUP7 ADD PUSH2 0x272A JUMP JUMPDEST PUSH2 0x2793 DUP2 PUSH2 0x2754 JUMP JUMPDEST DUP5 ADD SWAP2 POP POP SWAP3 SWAP2 POP POP JUMP JUMPDEST PUSH1 0x0 PUSH1 0x20 DUP3 ADD SWAP1 POP DUP2 DUP2 SUB PUSH1 0x0 DUP4 ADD MSTORE PUSH2 0x27B8 DUP2 DUP5 PUSH2 0x2765 JUMP JUMPDEST SWAP1 POP SWAP3 SWAP2 POP POP JUMP JUMPDEST PUSH1 0x0 DUP2 SWAP1 POP SWAP2 SWAP1 POP JUMP JUMPDEST PUSH2 0x27D3 DUP2 PUSH2 0x27C0 JUMP JUMPDEST DUP2 EQ PUSH2 0x27DE JUMPI PUSH1 0x0 DUP1 REVERT JUMPDEST POP JUMP JUMPDEST PUSH1 0x0 DUP2 CALLDATALOAD SWAP1 POP PUSH2 0x27F0 DUP2 PUSH2 0x27CA JUMP JUMPDEST SWAP3 SWAP2 POP POP JUMP JUMPDEST PUSH1 0x0 PUSH1 0x20 DUP3 DUP5 SUB SLT ISZERO PUSH2 0x280C JUMPI PUSH2 0x280B PUSH2 0x2649 JUMP JUMPDEST JUMPDEST PUSH1 0x0 PUSH2 0x281A DUP5 DUP3 DUP6 ADD PUSH2 0x27E1 JUMP JUMPDEST SWAP2 POP POP SWAP3 SWAP2 POP POP JUMP JUMPDEST PUSH1 0x0 PUSH20 0xFFFFFFFFFFFFFFFFFFFFFFFFFFFFFFFFFFFFFFFF DUP3 AND SWAP1 POP SWAP2 SWAP1 POP JUMP JUMPDEST PUSH1 0x0 PUSH2 0x284E DUP3 PUSH2 0x2823 JUMP JUMPDEST SWAP1 POP SWAP2 SWAP1 POP JUMP JUMPDEST PUSH2 0x285E DUP2 PUSH2 0x2843 JUMP JUMPDEST DUP3 MSTORE POP POP JUMP JUMPDEST PUSH1 0x0 PUSH1 0x20 DUP3 ADD SWAP1 POP PUSH2 0x2879 PUSH1 0x0 DUP4 ADD DUP5 PUSH2 0x2855 JUMP JUMPDEST SWAP3 SWAP2 POP POP JUMP JUMPDEST PUSH2 0x2888 DUP2 PUSH2 0x2843 JUMP JUMPDEST DUP2 EQ PUSH2 0x2893 JUMPI PUSH1 0x0 DUP1 REVERT JUMPDEST POP JUMP JUMPDEST PUSH1 0x0 DUP2 CALLDATALOAD SWAP1 POP PUSH2 0x28A5 DUP2 PUSH2 0x287F JUMP JUMPDEST SWAP3 SWAP2 POP POP JUMP JUMPDEST PUSH1 0x0 DUP1 PUSH1 0x40 DUP4 DUP6 SUB SLT ISZERO PUSH2 0x28C2 JUMPI PUSH2 0x28C1 PUSH2 0x2649 JUMP JUMPDEST JUMPDEST PUSH1 0x0 PUSH2 0x28D0 DUP6 DUP3 DUP7 ADD PUSH2 0x2896 JUMP JUMPDEST SWAP3 POP POP PUSH1 0x20 PUSH2 0x28E1 DUP6 DUP3 DUP7 ADD PUSH2 0x27E1 JUMP JUMPDEST SWAP2 POP POP SWAP3 POP SWAP3 SWAP1 POP JUMP JUMPDEST PUSH2 0x28F4 DUP2 PUSH2 0x27C0 JUMP JUMPDEST DUP3 MSTORE POP POP JUMP JUMPDEST PUSH1 0x0 PUSH1 0x20 DUP3 ADD SWAP1 POP PUSH2 0x290F PUSH1 0x0 DUP4 ADD DUP5 PUSH2 0x28EB JUMP JUMPDEST SWAP3 SWAP2 POP POP JUMP JUMPDEST PUSH1 0x0 PUSH1 0xFF DUP3 AND SWAP1 POP SWAP2 SWAP1 POP JUMP JUMPDEST PUSH2 0x292B DUP2 PUSH2 0x2915 JUMP JUMPDEST DUP2 EQ PUSH2 0x2936 JUMPI PUSH1 0x0 DUP1 REVERT JUMPDEST POP JUMP JUMPDEST PUSH1 0x0 DUP2 CALLDATALOAD SWAP1 POP PUSH2 0x2948 DUP2 PUSH2 0x2922 JUMP JUMPDEST SWAP3 SWAP2 POP POP JUMP JUMPDEST PUSH1 0x0 DUP1 REVERT JUMPDEST PUSH1 0x0 DUP1 REVERT JUMPDEST PUSH32 0x4E487B7100000000000000000000000000000000000000000000000000000000 PUSH1 0x0 MSTORE PUSH1 0x41 PUSH1 0x4 MSTORE PUSH1 0x24 PUSH1 0x0 REVERT JUMPDEST PUSH2 0x2990 DUP3 PUSH2 0x2754 JUMP JUMPDEST DUP2 ADD DUP2 DUP2 LT PUSH8 0xFFFFFFFFFFFFFFFF DUP3 GT OR ISZERO PUSH2 0x29AF JUMPI PUSH2 0x29AE PUSH2 0x2958 JUMP JUMPDEST JUMPDEST DUP1 PUSH1 0x40 MSTORE POP POP POP JUMP JUMPDEST PUSH1 0x0 PUSH2 0x29C2 PUSH2 0x263F JUMP JUMPDEST SWAP1 POP PUSH2 0x29CE DUP3 DUP3 PUSH2 0x2987 JUMP JUMPDEST SWAP2 SWAP1 POP JUMP JUMPDEST PUSH1 0x0 PUSH8 0xFFFFFFFFFFFFFFFF DUP3 GT ISZERO PUSH2 0x29EE JUMPI PUSH2 0x29ED PUSH2 0x2958 JUMP JUMPDEST JUMPDEST PUSH2 0x29F7 DUP3 PUSH2 0x2754 JUMP JUMPDEST SWAP1 POP PUSH1 0x20 DUP2 ADD SWAP1 POP SWAP2 SWAP1 POP JUMP JUMPDEST DUP3 DUP2 DUP4 CALLDATACOPY PUSH1 0x0 DUP4 DUP4 ADD MSTORE POP POP POP JUMP JUMPDEST PUSH1 0x0 PUSH2 0x2A26 PUSH2 0x2A21 DUP5 PUSH2 0x29D3 JUMP JUMPDEST PUSH2 0x29B8 JUMP JUMPDEST SWAP1 POP DUP3 DUP2 MSTORE PUSH1 0x20 DUP2 ADD DUP5 DUP5 DUP5 ADD GT ISZERO PUSH2 0x2A42 JUMPI PUSH2 0x2A41 PUSH2 0x2953 JUMP JUMPDEST JUMPDEST PUSH2 0x2A4D DUP5 DUP3 DUP6 PUSH2 0x2A04 JUMP JUMPDEST POP SWAP4 SWAP3 POP POP POP JUMP JUMPDEST PUSH1 0x0 DUP3 PUSH1 0x1F DUP4 ADD SLT PUSH2 0x2A6A JUMPI PUSH2 0x2A69 PUSH2 0x294E JUMP JUMPDEST JUMPDEST DUP2 CALLDATALOAD PUSH2 0x2A7A DUP5 DUP3 PUSH1 0x20 DUP7 ADD PUSH2 0x2A13 JUMP JUMPDEST SWAP2 POP POP SWAP3 SWAP2 POP POP JUMP JUMPDEST PUSH1 0x0 DUP1 PUSH1 0x0 PUSH1 0x60 DUP5 DUP7 SUB SLT ISZERO PUSH2 0x2A9C JUMPI PUSH2 0x2A9B PUSH2 0x2649 JUMP JUMPDEST JUMPDEST PUSH1 0x0 PUSH2 0x2AAA DUP7 DUP3 DUP8 ADD PUSH2 0x2939 JUMP JUMPDEST SWAP4 POP POP PUSH1 0x20 PUSH2 0x2ABB DUP7 DUP3 DUP8 ADD PUSH2 0x2939 JUMP JUMPDEST SWAP3 POP POP PUSH1 0x40 DUP5 ADD CALLDATALOAD PUSH8 0xFFFFFFFFFFFFFFFF DUP2 GT ISZERO PUSH2 0x2ADC JUMPI PUSH2 0x2ADB PUSH2 0x264E JUMP JUMPDEST JUMPDEST PUSH2 0x2AE8 DUP7 DUP3 DUP8 ADD PUSH2 0x2A55 JUMP JUMPDEST SWAP2 POP POP SWAP3 POP SWAP3 POP SWAP3 JUMP JUMPDEST PUSH1 0x0 DUP1 PUSH1 0x0 PUSH1 0x60 DUP5 DUP7 SUB SLT ISZERO PUSH2 0x2B0B JUMPI PUSH2 0x2B0A PUSH2 0x2649 JUMP JUMPDEST JUMPDEST PUSH1 0x0 PUSH2 0x2B19 DUP7 DUP3 DUP8 ADD PUSH2 0x2896 JUMP JUMPDEST SWAP4 POP POP PUSH1 0x20 PUSH2 0x2B2A DUP7 DUP3 DUP8 ADD PUSH2 0x2896 JUMP JUMPDEST SWAP3 POP POP PUSH1 0x40 PUSH2 0x2B3B DUP7 DUP3 DUP8 ADD PUSH2 0x27E1 JUMP JUMPDEST SWAP2 POP POP SWAP3 POP SWAP3 POP SWAP3 JUMP JUMPDEST PUSH2 0x2B4E DUP2 PUSH2 0x2915 JUMP JUMPDEST DUP3 MSTORE POP POP JUMP JUMPDEST PUSH1 0x80 DUP3 ADD PUSH1 0x0 DUP3 ADD MLOAD PUSH2 0x2B6A PUSH1 0x0 DUP6 ADD DUP3 PUSH2 0x2B45 JUMP JUMPDEST POP PUSH1 0x20 DUP3 ADD MLOAD PUSH2 0x2B7D PUSH1 0x20 DUP6 ADD DUP3 PUSH2 0x2B45 JUMP JUMPDEST POP PUSH1 0x40 DUP3 ADD MLOAD PUSH2 0x2B90 PUSH1 0x40 DUP6 ADD DUP3 PUSH2 0x2B45 JUMP JUMPDEST POP PUSH1 0x60 DUP3 ADD MLOAD PUSH2 0x2BA3 PUSH1 0x60 DUP6 ADD DUP3 PUSH2 0x2B45 JUMP JUMPDEST POP POP POP POP JUMP JUMPDEST PUSH1 0x0 PUSH1 0x80 DUP3 ADD SWAP1 POP PUSH2 0x2BBE PUSH1 0x0 DUP4 ADD DUP5 PUSH2 0x2B54 JUMP JUMPDEST SWAP3 SWAP2 POP POP JUMP JUMPDEST PUSH1 0x0 PUSH1 0x20 DUP3 DUP5 SUB SLT ISZERO PUSH2 0x2BDA JUMPI PUSH2 0x2BD9 PUSH2 0x2649 JUMP JUMPDEST JUMPDEST PUSH1 0x0 DUP3 ADD CALLDATALOAD PUSH8 0xFFFFFFFFFFFFFFFF DUP2 GT ISZERO PUSH2 0x2BF8 JUMPI PUSH2 0x2BF7 PUSH2 0x264E JUMP JUMPDEST JUMPDEST PUSH2 0x2C04 DUP5 DUP3 DUP6 ADD PUSH2 0x2A55 JUMP JUMPDEST SWAP2 POP POP SWAP3 SWAP2 POP POP JUMP JUMPDEST PUSH1 0x0 PUSH1 0x20 DUP3 DUP5 SUB SLT ISZERO PUSH2 0x2C23 JUMPI PUSH2 0x2C22 PUSH2 0x2649 JUMP JUMPDEST JUMPDEST PUSH1 0x0 PUSH2 0x2C31 DUP5 DUP3 DUP6 ADD PUSH2 0x2896 JUMP JUMPDEST SWAP2 POP POP SWAP3 SWAP2 POP POP JUMP JUMPDEST PUSH1 0x40 DUP3 ADD PUSH1 0x0 DUP3 ADD MLOAD PUSH2 0x2C50 PUSH1 0x0 DUP6 ADD DUP3 PUSH2 0x2B45 JUMP JUMPDEST POP PUSH1 0x20 DUP3 ADD MLOAD PUSH2 0x2C63 PUSH1 0x20 DUP6 ADD DUP3 PUSH2 0x2B45 JUMP JUMPDEST POP POP POP POP JUMP JUMPDEST PUSH1 0x0 PUSH1 0x40 DUP3 ADD SWAP1 POP PUSH2 0x2C7E PUSH1 0x0 DUP4 ADD DUP5 PUSH2 0x2C3A JUMP JUMPDEST SWAP3 SWAP2 POP POP JUMP JUMPDEST PUSH1 0x0 DUP1 PUSH1 0x0 DUP1 PUSH1 0x0 PUSH1 0xA0 DUP7 DUP9 SUB SLT ISZERO PUSH2 0x2CA0 JUMPI PUSH2 0x2C9F PUSH2 0x2649 JUMP JUMPDEST JUMPDEST PUSH1 0x0 PUSH2 0x2CAE DUP9 DUP3 DUP10 ADD PUSH2 0x2939 JUMP JUMPDEST SWAP6 POP POP PUSH1 0x20 PUSH2 0x2CBF DUP9 DUP3 DUP10 ADD PUSH2 0x2939 JUMP JUMPDEST SWAP5 POP POP PUSH1 0x40 PUSH2 0x2CD0 DUP9 DUP3 DUP10 ADD PUSH2 0x2939 JUMP JUMPDEST SWAP4 POP POP PUSH1 0x60 PUSH2 0x2CE1 DUP9 DUP3 DUP10 ADD PUSH2 0x2939 JUMP JUMPDEST SWAP3 POP POP PUSH1 0x80 DUP7 ADD CALLDATALOAD PUSH8 0xFFFFFFFFFFFFFFFF DUP2 GT ISZERO PUSH2 0x2D02 JUMPI PUSH2 0x2D01 PUSH2 0x264E JUMP JUMPDEST JUMPDEST PUSH2 0x2D0E DUP9 DUP3 DUP10 ADD PUSH2 0x2A55 JUMP JUMPDEST SWAP2 POP POP SWAP3 SWAP6 POP SWAP3 SWAP6 SWAP1 SWAP4 POP JUMP JUMPDEST PUSH2 0x2D24 DUP2 PUSH2 0x26D8 JUMP JUMPDEST DUP2 EQ PUSH2 0x2D2F JUMPI PUSH1 0x0 DUP1 REVERT JUMPDEST POP JUMP JUMPDEST PUSH1 0x0 DUP2 CALLDATALOAD SWAP1 POP PUSH2 0x2D41 DUP2 PUSH2 0x2D1B JUMP JUMPDEST SWAP3 SWAP2 POP POP JUMP JUMPDEST PUSH1 0x0 DUP1 PUSH1 0x40 DUP4 DUP6 SUB SLT ISZERO PUSH2 0x2D5E JUMPI PUSH2 0x2D5D PUSH2 0x2649 JUMP JUMPDEST JUMPDEST PUSH1 0x0 PUSH2 0x2D6C DUP6 DUP3 DUP7 ADD PUSH2 0x2896 JUMP JUMPDEST SWAP3 POP POP PUSH1 0x20 PUSH2 0x2D7D DUP6 DUP3 DUP7 ADD PUSH2 0x2D32 JUMP JUMPDEST SWAP2 POP POP SWAP3 POP SWAP3 SWAP1 POP JUMP JUMPDEST PUSH1 0x0 PUSH8 0xFFFFFFFFFFFFFFFF DUP3 GT ISZERO PUSH2 0x2DA2 JUMPI PUSH2 0x2DA1 PUSH2 0x2958 JUMP JUMPDEST JUMPDEST PUSH2 0x2DAB DUP3 PUSH2 0x2754 JUMP JUMPDEST SWAP1 POP PUSH1 0x20 DUP2 ADD SWAP1 POP SWAP2 SWAP1 POP JUMP JUMPDEST PUSH1 0x0 PUSH2 0x2DCB PUSH2 0x2DC6 DUP5 PUSH2 0x2D87 JUMP JUMPDEST PUSH2 0x29B8 JUMP JUMPDEST SWAP1 POP DUP3 DUP2 MSTORE PUSH1 0x20 DUP2 ADD DUP5 DUP5 DUP5 ADD GT ISZERO PUSH2 0x2DE7 JUMPI PUSH2 0x2DE6 PUSH2 0x2953 JUMP JUMPDEST JUMPDEST PUSH2 0x2DF2 DUP5 DUP3 DUP6 PUSH2 0x2A04 JUMP JUMPDEST POP SWAP4 SWAP3 POP POP POP JUMP JUMPDEST PUSH1 0x0 DUP3 PUSH1 0x1F DUP4 ADD SLT PUSH2 0x2E0F JUMPI PUSH2 0x2E0E PUSH2 0x294E JUMP JUMPDEST JUMPDEST DUP2 CALLDATALOAD PUSH2 0x2E1F DUP5 DUP3 PUSH1 0x20 DUP7 ADD PUSH2 0x2DB8 JUMP JUMPDEST SWAP2 POP POP SWAP3 SWAP2 POP POP JUMP JUMPDEST PUSH1 0x0 DUP1 PUSH1 0x0 DUP1 PUSH1 0x80 DUP6 DUP8 SUB SLT ISZERO PUSH2 0x2E42 JUMPI PUSH2 0x2E41 PUSH2 0x2649 JUMP JUMPDEST JUMPDEST PUSH1 0x0 PUSH2 0x2E50 DUP8 DUP3 DUP9 ADD PUSH2 0x2896 JUMP JUMPDEST SWAP5 POP POP PUSH1 0x20 PUSH2 0x2E61 DUP8 DUP3 DUP9 ADD PUSH2 0x2896 JUMP JUMPDEST SWAP4 POP POP PUSH1 0x40 PUSH2 0x2E72 DUP8 DUP3 DUP9 ADD PUSH2 0x27E1 JUMP JUMPDEST SWAP3 POP POP PUSH1 0x60 DUP6 ADD CALLDATALOAD PUSH8 0xFFFFFFFFFFFFFFFF DUP2 GT ISZERO PUSH2 0x2E93 JUMPI PUSH2 0x2E92 PUSH2 0x264E JUMP JUMPDEST JUMPDEST PUSH2 0x2E9F DUP8 DUP3 DUP9 ADD PUSH2 0x2DFA JUMP JUMPDEST SWAP2 POP POP SWAP3 SWAP6 SWAP2 SWAP5 POP SWAP3 POP JUMP JUMPDEST PUSH32 0x4E487B7100000000000000000000000000000000000000000000000000000000 PUSH1 0x0 MSTORE PUSH1 0x21 PUSH1 0x4 MSTORE PUSH1 0x24 PUSH1 0x0 REVERT JUMPDEST PUSH1 0x2 DUP2 LT PUSH2 0x2EEB JUMPI PUSH2 0x2EEA PUSH2 0x2EAB JUMP JUMPDEST JUMPDEST POP JUMP JUMPDEST PUSH1 0x0 DUP2 SWAP1 POP PUSH2 0x2EFC DUP3 PUSH2 0x2EDA JUMP JUMPDEST SWAP2 SWAP1 POP JUMP JUMPDEST PUSH1 0x0 PUSH2 0x2F0C DUP3 PUSH2 0x2EEE JUMP JUMPDEST SWAP1 POP SWAP2 SWAP1 POP JUMP JUMPDEST PUSH2 0x2F1C DUP2 PUSH2 0x2F01 JUMP JUMPDEST DUP3 MSTORE POP POP JUMP JUMPDEST PUSH1 0x0 DUP2 MLOAD SWAP1 POP SWAP2 SWAP1 POP JUMP JUMPDEST PUSH1 0x0 DUP3 DUP3 MSTORE PUSH1 0x20 DUP3 ADD SWAP1 POP SWAP3 SWAP2 POP POP JUMP JUMPDEST PUSH1 0x0 PUSH2 0x2F49 DUP3 PUSH2 0x2F22 JUMP JUMPDEST PUSH2 0x2F53 DUP2 DUP6 PUSH2 0x2F2D JUMP JUMPDEST SWAP4 POP PUSH2 0x2F63 DUP2 DUP6 PUSH1 0x20 DUP7 ADD PUSH2 0x272A JUMP JUMPDEST PUSH2 0x2F6C DUP2 PUSH2 0x2754 JUMP JUMPDEST DUP5 ADD SWAP2 POP POP SWAP3 SWAP2 POP POP JUMP JUMPDEST PUSH1 0x0 PUSH1 0xC0 DUP3 ADD SWAP1 POP PUSH2 0x2F8C PUSH1 0x0 DUP4 ADD DUP10 PUSH2 0x28EB JUMP JUMPDEST PUSH2 0x2F99 PUSH1 0x20 DUP4 ADD DUP9 PUSH2 0x28EB JUMP JUMPDEST PUSH2 0x2FA6 PUSH1 0x40 DUP4 ADD DUP8 PUSH2 0x28EB JUMP JUMPDEST PUSH2 0x2FB3 PUSH1 0x60 DUP4 ADD DUP7 PUSH2 0x2855 JUMP JUMPDEST PUSH2 0x2FC0 PUSH1 0x80 DUP4 ADD DUP6 PUSH2 0x2F13 JUMP JUMPDEST DUP2 DUP2 SUB PUSH1 0xA0 DUP4 ADD MSTORE PUSH2 0x2FD2 DUP2 DUP5 PUSH2 0x2F3E JUMP JUMPDEST SWAP1 POP SWAP8 SWAP7 POP POP POP POP POP POP POP JUMP JUMPDEST PUSH1 0x0 DUP1 PUSH1 0x40 DUP4 DUP6 SUB SLT ISZERO PUSH2 0x2FF6 JUMPI PUSH2 0x2FF5 PUSH2 0x2649 JUMP JUMPDEST JUMPDEST PUSH1 0x0 PUSH2 0x3004 DUP6 DUP3 DUP7 ADD PUSH2 0x2896 JUMP JUMPDEST SWAP3 POP POP PUSH1 0x20 PUSH2 0x3015 DUP6 DUP3 DUP7 ADD PUSH2 0x2896 JUMP JUMPDEST SWAP2 POP POP SWAP3 POP SWAP3 SWAP1 POP JUMP JUMPDEST PUSH32 0x4E487B7100000000000000000000000000000000000000000000000000000000 PUSH1 0x0 MSTORE PUSH1 0x22 PUSH1 0x4 MSTORE PUSH1 0x24 PUSH1 0x0 REVERT JUMPDEST PUSH1 0x0 PUSH1 0x2 DUP3 DIV SWAP1 POP PUSH1 0x1 DUP3 AND DUP1 PUSH2 0x3066 JUMPI PUSH1 0x7F DUP3 AND SWAP2 POP JUMPDEST PUSH1 0x20 DUP3 LT DUP2 SUB PUSH2 0x3079 JUMPI PUSH2 0x3078 PUSH2 0x301F JUMP JUMPDEST JUMPDEST POP SWAP2 SWAP1 POP JUMP JUMPDEST PUSH32 0x4552433732313A20617070726F76616C20746F2063757272656E74206F776E65 PUSH1 0x0 DUP3 ADD MSTORE PUSH32 0x7200000000000000000000000000000000000000000000000000000000000000 PUSH1 0x20 DUP3 ADD MSTORE POP JUMP JUMPDEST PUSH1 0x0 PUSH2 0x30DB PUSH1 0x21 DUP4 PUSH2 0x2719 JUMP JUMPDEST SWAP2 POP PUSH2 0x30E6 DUP3 PUSH2 0x307F JUMP JUMPDEST PUSH1 0x40 DUP3 ADD SWAP1 POP SWAP2 SWAP1 POP JUMP JUMPDEST PUSH1 0x0 PUSH1 0x20 DUP3 ADD SWAP1 POP DUP2 DUP2 SUB PUSH1 0x0 DUP4 ADD MSTORE PUSH2 0x310A DUP2 PUSH2 0x30CE JUMP JUMPDEST SWAP1 POP SWAP2 SWAP1 POP JUMP JUMPDEST PUSH32 0x4552433732313A20617070726F76652063616C6C6572206973206E6F7420746F PUSH1 0x0 DUP3 ADD MSTORE PUSH32 0x6B656E206F776E6572206F7220617070726F76656420666F7220616C6C000000 PUSH1 0x20 DUP3 ADD MSTORE POP JUMP JUMPDEST PUSH1 0x0 PUSH2 0x316D PUSH1 0x3D DUP4 PUSH2 0x2719 JUMP JUMPDEST SWAP2 POP PUSH2 0x3178 DUP3 PUSH2 0x3111 JUMP JUMPDEST PUSH1 0x40 DUP3 ADD SWAP1 POP SWAP2 SWAP1 POP JUMP JUMPDEST PUSH1 0x0 PUSH1 0x20 DUP3 ADD SWAP1 POP DUP2 DUP2 SUB PUSH1 0x0 DUP4 ADD MSTORE PUSH2 0x319C DUP2 PUSH2 0x3160 JUMP JUMPDEST SWAP1 POP SWAP2 SWAP1 POP JUMP JUMPDEST PUSH1 0x0 DUP2 SWAP1 POP DUP2 PUSH1 0x0 MSTORE PUSH1 0x20 PUSH1 0x0 KECCAK256 SWAP1 POP SWAP2 SWAP1 POP JUMP JUMPDEST PUSH1 0x0 PUSH1 0x20 PUSH1 0x1F DUP4 ADD DIV SWAP1 POP SWAP2 SWAP1 POP JUMP JUMPDEST PUSH1 0x0 DUP3 DUP3 SHL SWAP1 POP SWAP3 SWAP2 POP POP JUMP JUMPDEST PUSH1 0x0 PUSH1 0x8 DUP4 MUL PUSH2 0x3205 PUSH32 0xFFFFFFFFFFFFFFFFFFFFFFFFFFFFFFFFFFFFFFFFFFFFFFFFFFFFFFFFFFFFFFFF DUP3 PUSH2 0x31C8 JUMP JUMPDEST PUSH2 0x320F DUP7 DUP4 PUSH2 0x31C8 JUMP JUMPDEST SWAP6 POP DUP1 NOT DUP5 AND SWAP4 POP DUP1 DUP7 AND DUP5 OR SWAP3 POP POP POP SWAP4 SWAP3 POP POP POP JUMP JUMPDEST PUSH1 0x0 DUP2 SWAP1 POP SWAP2 SWAP1 POP JUMP JUMPDEST PUSH1 0x0 PUSH2 0x324C PUSH2 0x3247 PUSH2 0x3242 DUP5 PUSH2 0x27C0 JUMP JUMPDEST PUSH2 0x3227 JUMP JUMPDEST PUSH2 0x27C0 JUMP JUMPDEST SWAP1 POP SWAP2 SWAP1 POP JUMP JUMPDEST PUSH1 0x0 DUP2 SWAP1 POP SWAP2 SWAP1 POP JUMP JUMPDEST PUSH2 0x3266 DUP4 PUSH2 0x3231 JUMP JUMPDEST PUSH2 0x327A PUSH2 0x3272 DUP3 PUSH2 0x3253 JUMP JUMPDEST DUP5 DUP5 SLOAD PUSH2 0x31D5 JUMP JUMPDEST DUP3 SSTORE POP POP POP POP JUMP JUMPDEST PUSH1 0x0 SWAP1 JUMP JUMPDEST PUSH2 0x328F PUSH2 0x3282 JUMP JUMPDEST PUSH2 0x329A DUP2 DUP5 DUP5 PUSH2 0x325D JUMP JUMPDEST POP POP POP JUMP JUMPDEST JUMPDEST DUP2 DUP2 LT ISZERO PUSH2 0x32BE JUMPI PUSH2 0x32B3 PUSH1 0x0 DUP3 PUSH2 0x3287 JUMP JUMPDEST PUSH1 0x1 DUP2 ADD SWAP1 POP PUSH2 0x32A0 JUMP JUMPDEST POP POP JUMP JUMPDEST PUSH1 0x1F DUP3 GT ISZERO PUSH2 0x3303 JUMPI PUSH2 0x32D4 DUP2 PUSH2 0x31A3 JUMP JUMPDEST PUSH2 0x32DD DUP5 PUSH2 0x31B8 JUMP JUMPDEST DUP2 ADD PUSH1 0x20 DUP6 LT ISZERO PUSH2 0x32EC JUMPI DUP2 SWAP1 POP JUMPDEST PUSH2 0x3300 PUSH2 0x32F8 DUP6 PUSH2 0x31B8 JUMP JUMPDEST DUP4 ADD DUP3 PUSH2 0x329F JUMP JUMPDEST POP POP JUMPDEST POP POP POP JUMP JUMPDEST PUSH1 0x0 DUP3 DUP3 SHR SWAP1 POP SWAP3 SWAP2 POP POP JUMP JUMPDEST PUSH1 0x0 PUSH2 0x3326 PUSH1 0x0 NOT DUP5 PUSH1 0x8 MUL PUSH2 0x3308 JUMP JUMPDEST NOT DUP1 DUP4 AND SWAP2 POP POP SWAP3 SWAP2 POP POP JUMP JUMPDEST PUSH1 0x0 PUSH2 0x333F DUP4 DUP4 PUSH2 0x3315 JUMP JUMPDEST SWAP2 POP DUP3 PUSH1 0x2 MUL DUP3 OR SWAP1 POP SWAP3 SWAP2 POP POP JUMP JUMPDEST PUSH2 0x3358 DUP3 PUSH2 0x2F22 JUMP JUMPDEST PUSH8 0xFFFFFFFFFFFFFFFF DUP2 GT ISZERO PUSH2 0x3371 JUMPI PUSH2 0x3370 PUSH2 0x2958 JUMP JUMPDEST JUMPDEST PUSH2 0x337B DUP3 SLOAD PUSH2 0x304E JUMP JUMPDEST PUSH2 0x3386 DUP3 DUP3 DUP6 PUSH2 0x32C2 JUMP JUMPDEST PUSH1 0x0 PUSH1 0x20 SWAP1 POP PUSH1 0x1F DUP4 GT PUSH1 0x1 DUP2 EQ PUSH2 0x33B9 JUMPI PUSH1 0x0 DUP5 ISZERO PUSH2 0x33A7 JUMPI DUP3 DUP8 ADD MLOAD SWAP1 POP JUMPDEST PUSH2 0x33B1 DUP6 DUP3 PUSH2 0x3333 JUMP JUMPDEST DUP7 SSTORE POP PUSH2 0x3419 JUMP JUMPDEST PUSH1 0x1F NOT DUP5 AND PUSH2 0x33C7 DUP7 PUSH2 0x31A3 JUMP JUMPDEST PUSH1 0x0 JUMPDEST DUP3 DUP2 LT ISZERO PUSH2 0x33EF JUMPI DUP5 DUP10 ADD MLOAD DUP3 SSTORE PUSH1 0x1 DUP3 ADD SWAP2 POP PUSH1 0x20 DUP6 ADD SWAP5 POP PUSH1 0x20 DUP2 ADD SWAP1 POP PUSH2 0x33CA JUMP JUMPDEST DUP7 DUP4 LT ISZERO PUSH2 0x340C JUMPI DUP5 DUP10 ADD MLOAD PUSH2 0x3408 PUSH1 0x1F DUP10 AND DUP3 PUSH2 0x3315 JUMP JUMPDEST DUP4 SSTORE POP JUMPDEST PUSH1 0x1 PUSH1 0x2 DUP9 MUL ADD DUP9 SSTORE POP POP POP JUMPDEST POP POP POP POP POP POP JUMP JUMPDEST PUSH32 0x4E487B7100000000000000000000000000000000000000000000000000000000 PUSH1 0x0 MSTORE PUSH1 0x11 PUSH1 0x4 MSTORE PUSH1 0x24 PUSH1 0x0 REVERT JUMPDEST PUSH1 0x0 PUSH2 0x345B DUP3 PUSH2 0x27C0 JUMP JUMPDEST SWAP2 POP PUSH32 0xFFFFFFFFFFFFFFFFFFFFFFFFFFFFFFFFFFFFFFFFFFFFFFFFFFFFFFFFFFFFFFFF DUP3 SUB PUSH2 0x348D JUMPI PUSH2 0x348C PUSH2 0x3421 JUMP JUMPDEST JUMPDEST PUSH1 0x1 DUP3 ADD SWAP1 POP SWAP2 SWAP1 POP JUMP JUMPDEST PUSH2 0x34A1 DUP2 PUSH2 0x2915 JUMP JUMPDEST DUP3 MSTORE POP POP JUMP JUMPDEST PUSH1 0x0 PUSH1 0x80 DUP3 ADD SWAP1 POP PUSH2 0x34BC PUSH1 0x0 DUP4 ADD DUP8 PUSH2 0x28EB JUMP JUMPDEST PUSH2 0x34C9 PUSH1 0x20 DUP4 ADD DUP7 PUSH2 0x2855 JUMP JUMPDEST PUSH2 0x34D6 PUSH1 0x40 DUP4 ADD DUP6 PUSH2 0x3498 JUMP JUMPDEST PUSH2 0x34E3 PUSH1 0x60 DUP4 ADD DUP5 PUSH2 0x3498 JUMP JUMPDEST SWAP6 SWAP5 POP POP POP POP POP JUMP JUMPDEST PUSH32 0x4552433732313A2063616C6C6572206973206E6F7420746F6B656E206F776E65 PUSH1 0x0 DUP3 ADD MSTORE PUSH32 0x72206F7220617070726F76656400000000000000000000000000000000000000 PUSH1 0x20 DUP3 ADD MSTORE POP JUMP JUMPDEST PUSH1 0x0 PUSH2 0x3548 PUSH1 0x2D DUP4 PUSH2 0x2719 JUMP JUMPDEST SWAP2 POP PUSH2 0x3553 DUP3 PUSH2 0x34EC JUMP JUMPDEST PUSH1 0x40 DUP3 ADD SWAP1 POP SWAP2 SWAP1 POP JUMP JUMPDEST PUSH1 0x0 PUSH1 0x20 DUP3 ADD SWAP1 POP DUP2 DUP2 SUB PUSH1 0x0 DUP4 ADD MSTORE PUSH2 0x3577 DUP2 PUSH2 0x353B JUMP JUMPDEST SWAP1 POP SWAP2 SWAP1 POP JUMP JUMPDEST PUSH32 0x4E6F7420616E2045506F74696F6E73206974656D000000000000000000000000 PUSH1 0x0 DUP3 ADD MSTORE POP JUMP JUMPDEST PUSH1 0x0 PUSH2 0x35B4 PUSH1 0x14 DUP4 PUSH2 0x2719 JUMP JUMPDEST SWAP2 POP PUSH2 0x35BF DUP3 PUSH2 0x357E JUMP JUMPDEST PUSH1 0x20 DUP3 ADD SWAP1 POP SWAP2 SWAP1 POP JUMP JUMPDEST PUSH1 0x0 PUSH1 0x20 DUP3 ADD SWAP1 POP DUP2 DUP2 SUB PUSH1 0x0 DUP4 ADD MSTORE PUSH2 0x35E3 DUP2 PUSH2 0x35A7 JUMP JUMPDEST SWAP1 POP SWAP2 SWAP1 POP JUMP JUMPDEST PUSH1 0x0 DUP2 SWAP1 POP DUP2 PUSH1 0x0 MSTORE PUSH1 0x20 PUSH1 0x0 KECCAK256 SWAP1 POP SWAP2 SWAP1 POP JUMP JUMPDEST PUSH1 0x1F DUP3 GT ISZERO PUSH2 0x3640 JUMPI PUSH2 0x3611 DUP2 PUSH2 0x35EA JUMP JUMPDEST PUSH2 0x361A DUP5 PUSH2 0x31B8 JUMP JUMPDEST DUP2 ADD PUSH1 0x20 DUP6 LT ISZERO PUSH2 0x3629 JUMPI DUP2 SWAP1 POP JUMPDEST PUSH2 0x363D PUSH2 0x3635 DUP6 PUSH2 0x31B8 JUMP JUMPDEST DUP4 ADD DUP3 PUSH2 0x329F JUMP JUMPDEST POP POP JUMPDEST POP POP POP JUMP JUMPDEST PUSH2 0x364E DUP3 PUSH2 0x270E JUMP JUMPDEST PUSH8 0xFFFFFFFFFFFFFFFF DUP2 GT ISZERO PUSH2 0x3667 JUMPI PUSH2 0x3666 PUSH2 0x2958 JUMP JUMPDEST JUMPDEST PUSH2 0x3671 DUP3 SLOAD PUSH2 0x304E JUMP JUMPDEST PUSH2 0x367C DUP3 DUP3 DUP6 PUSH2 0x35FF JUMP JUMPDEST PUSH1 0x0 PUSH1 0x20 SWAP1 POP PUSH1 0x1F DUP4 GT PUSH1 0x1 DUP2 EQ PUSH2 0x36AF JUMPI PUSH1 0x0 DUP5 ISZERO PUSH2 0x369D JUMPI DUP3 DUP8 ADD MLOAD SWAP1 POP JUMPDEST PUSH2 0x36A7 DUP6 DUP3 PUSH2 0x3333 JUMP JUMPDEST DUP7 SSTORE POP PUSH2 0x370F JUMP JUMPDEST PUSH1 0x1F NOT DUP5 AND PUSH2 0x36BD DUP7 PUSH2 0x35EA JUMP JUMPDEST PUSH1 0x0 JUMPDEST DUP3 DUP2 LT ISZERO PUSH2 0x36E5 JUMPI DUP5 DUP10 ADD MLOAD DUP3 SSTORE PUSH1 0x1 DUP3 ADD SWAP2 POP PUSH1 0x20 DUP6 ADD SWAP5 POP PUSH1 0x20 DUP2 ADD SWAP1 POP PUSH2 0x36C0 JUMP JUMPDEST DUP7 DUP4 LT ISZERO PUSH2 0x3702 JUMPI DUP5 DUP10 ADD MLOAD PUSH2 0x36FE PUSH1 0x1F DUP10 AND DUP3 PUSH2 0x3315 JUMP JUMPDEST DUP4 SSTORE POP JUMPDEST PUSH1 0x1 PUSH1 0x2 DUP9 MUL ADD DUP9 SSTORE POP POP POP JUMPDEST POP POP POP POP POP POP JUMP JUMPDEST PUSH32 0x4552433732313A20696E76616C696420746F6B656E2049440000000000000000 PUSH1 0x0 DUP3 ADD MSTORE POP JUMP JUMPDEST PUSH1 0x0 PUSH2 0x374D PUSH1 0x18 DUP4 PUSH2 0x2719 JUMP JUMPDEST SWAP2 POP PUSH2 0x3758 DUP3 PUSH2 0x3717 JUMP JUMPDEST PUSH1 0x20 DUP3 ADD SWAP1 POP SWAP2 SWAP1 POP JUMP JUMPDEST PUSH1 0x0 PUSH1 0x20 DUP3 ADD SWAP1 POP DUP2 DUP2 SUB PUSH1 0x0 DUP4 ADD MSTORE PUSH2 0x377C DUP2 PUSH2 0x3740 JUMP JUMPDEST SWAP1 POP SWAP2 SWAP1 POP JUMP JUMPDEST PUSH32 0x4552433732313A2061646472657373207A65726F206973206E6F742061207661 PUSH1 0x0 DUP3 ADD MSTORE PUSH32 0x6C6964206F776E65720000000000000000000000000000000000000000000000 PUSH1 0x20 DUP3 ADD MSTORE POP JUMP JUMPDEST PUSH1 0x0 PUSH2 0x37DF PUSH1 0x29 DUP4 PUSH2 0x2719 JUMP JUMPDEST SWAP2 POP PUSH2 0x37EA DUP3 PUSH2 0x3783 JUMP JUMPDEST PUSH1 0x40 DUP3 ADD SWAP1 POP SWAP2 SWAP1 POP JUMP JUMPDEST PUSH1 0x0 PUSH1 0x20 DUP3 ADD SWAP1 POP DUP2 DUP2 SUB PUSH1 0x0 DUP4 ADD MSTORE PUSH2 0x380E DUP2 PUSH2 0x37D2 JUMP JUMPDEST SWAP1 POP SWAP2 SWAP1 POP JUMP JUMPDEST PUSH32 0x4E6F7420616E2045576561706F6E73206974656D000000000000000000000000 PUSH1 0x0 DUP3 ADD MSTORE POP JUMP JUMPDEST PUSH1 0x0 PUSH2 0x384B PUSH1 0x14 DUP4 PUSH2 0x2719 JUMP JUMPDEST SWAP2 POP PUSH2 0x3856 DUP3 PUSH2 0x3815 JUMP JUMPDEST PUSH1 0x20 DUP3 ADD SWAP1 POP SWAP2 SWAP1 POP JUMP JUMPDEST PUSH1 0x0 PUSH1 0x20 DUP3 ADD SWAP1 POP DUP2 DUP2 SUB PUSH1 0x0 DUP4 ADD MSTORE PUSH2 0x387A DUP2 PUSH2 0x383E JUMP JUMPDEST SWAP1 POP SWAP2 SWAP1 POP JUMP JUMPDEST PUSH1 0x0 PUSH1 0xC0 DUP3 ADD SWAP1 POP PUSH2 0x3896 PUSH1 0x0 DUP4 ADD DUP10 PUSH2 0x28EB JUMP JUMPDEST PUSH2 0x38A3 PUSH1 0x20 DUP4 ADD DUP9 PUSH2 0x2855 JUMP JUMPDEST PUSH2 0x38B0 PUSH1 0x40 DUP4 ADD DUP8 PUSH2 0x3498 JUMP JUMPDEST PUSH2 0x38BD PUSH1 0x60 DUP4 ADD DUP7 PUSH2 0x3498 JUMP JUMPDEST PUSH2 0x38CA PUSH1 0x80 DUP4 ADD DUP6 PUSH2 0x3498 JUMP JUMPDEST PUSH2 0x38D7 PUSH1 0xA0 DUP4 ADD DUP5 PUSH2 0x3498 JUMP JUMPDEST SWAP8 SWAP7 POP POP POP POP POP POP POP JUMP JUMPDEST PUSH1 0x0 DUP2 SWAP1 POP SWAP3 SWAP2 POP POP JUMP JUMPDEST PUSH1 0x0 PUSH2 0x38F8 DUP3 PUSH2 0x270E JUMP JUMPDEST PUSH2 0x3902 DUP2 DUP6 PUSH2 0x38E2 JUMP JUMPDEST SWAP4 POP PUSH2 0x3912 DUP2 DUP6 PUSH1 0x20 DUP7 ADD PUSH2 0x272A JUMP JUMPDEST DUP1 DUP5 ADD SWAP2 POP POP SWAP3 SWAP2 POP POP JUMP JUMPDEST PUSH1 0x0 PUSH2 0x392A DUP3 DUP6 PUSH2 0x38ED JUMP JUMPDEST SWAP2 POP PUSH2 0x3936 DUP3 DUP5 PUSH2 0x38ED JUMP JUMPDEST SWAP2 POP DUP2 SWAP1 POP SWAP4 SWAP3 POP POP POP JUMP JUMPDEST PUSH32 0x4F776E61626C653A206E6577206F776E657220697320746865207A65726F2061 PUSH1 0x0 DUP3 ADD MSTORE PUSH32 0x6464726573730000000000000000000000000000000000000000000000000000 PUSH1 0x20 DUP3 ADD MSTORE POP JUMP JUMPDEST PUSH1 0x0 PUSH2 0x399E PUSH1 0x26 DUP4 PUSH2 0x2719 JUMP JUMPDEST SWAP2 POP PUSH2 0x39A9 DUP3 PUSH2 0x3942 JUMP JUMPDEST PUSH1 0x40 DUP3 ADD SWAP1 POP SWAP2 SWAP1 POP JUMP JUMPDEST PUSH1 0x0 PUSH1 0x20 DUP3 ADD SWAP1 POP DUP2 DUP2 SUB PUSH1 0x0 DUP4 ADD MSTORE PUSH2 0x39CD DUP2 PUSH2 0x3991 JUMP JUMPDEST SWAP1 POP SWAP2 SWAP1 POP JUMP JUMPDEST PUSH32 0x4F776E61626C653A2063616C6C6572206973206E6F7420746865206F776E6572 PUSH1 0x0 DUP3 ADD MSTORE POP JUMP JUMPDEST PUSH1 0x0 PUSH2 0x3A0A PUSH1 0x20 DUP4 PUSH2 0x2719 JUMP JUMPDEST SWAP2 POP PUSH2 0x3A15 DUP3 PUSH2 0x39D4 JUMP JUMPDEST PUSH1 0x20 DUP3 ADD SWAP1 POP SWAP2 SWAP1 POP JUMP JUMPDEST PUSH1 0x0 PUSH1 0x20 DUP3 ADD SWAP1 POP DUP2 DUP2 SUB PUSH1 0x0 DUP4 ADD MSTORE PUSH2 0x3A39 DUP2 PUSH2 0x39FD JUMP JUMPDEST SWAP1 POP SWAP2 SWAP1 POP JUMP JUMPDEST PUSH32 0x4552433732313A206D696E7420746F20746865207A65726F2061646472657373 PUSH1 0x0 DUP3 ADD MSTORE POP JUMP JUMPDEST PUSH1 0x0 PUSH2 0x3A76 PUSH1 0x20 DUP4 PUSH2 0x2719 JUMP JUMPDEST SWAP2 POP PUSH2 0x3A81 DUP3 PUSH2 0x3A40 JUMP JUMPDEST PUSH1 0x20 DUP3 ADD SWAP1 POP SWAP2 SWAP1 POP JUMP JUMPDEST PUSH1 0x0 PUSH1 0x20 DUP3 ADD SWAP1 POP DUP2 DUP2 SUB PUSH1 0x0 DUP4 ADD MSTORE PUSH2 0x3AA5 DUP2 PUSH2 0x3A69 JUMP JUMPDEST SWAP1 POP SWAP2 SWAP1 POP JUMP JUMPDEST PUSH32 0x4552433732313A20746F6B656E20616C7265616479206D696E74656400000000 PUSH1 0x0 DUP3 ADD MSTORE POP JUMP JUMPDEST PUSH1 0x0 PUSH2 0x3AE2 PUSH1 0x1C DUP4 PUSH2 0x2719 JUMP JUMPDEST SWAP2 POP PUSH2 0x3AED DUP3 PUSH2 0x3AAC JUMP JUMPDEST PUSH1 0x20 DUP3 ADD SWAP1 POP SWAP2 SWAP1 POP JUMP JUMPDEST PUSH1 0x0 PUSH1 0x20 DUP3 ADD SWAP1 POP DUP2 DUP2 SUB PUSH1 0x0 DUP4 ADD MSTORE PUSH2 0x3B11 DUP2 PUSH2 0x3AD5 JUMP JUMPDEST SWAP1 POP SWAP2 SWAP1 POP JUMP JUMPDEST PUSH32 0x45524337323155524953746F726167653A2055524920736574206F66206E6F6E PUSH1 0x0 DUP3 ADD MSTORE PUSH32 0x6578697374656E7420746F6B656E000000000000000000000000000000000000 PUSH1 0x20 DUP3 ADD MSTORE POP JUMP JUMPDEST PUSH1 0x0 PUSH2 0x3B74 PUSH1 0x2E DUP4 PUSH2 0x2719 JUMP JUMPDEST SWAP2 POP PUSH2 0x3B7F DUP3 PUSH2 0x3B18 JUMP JUMPDEST PUSH1 0x40 DUP3 ADD SWAP1 POP SWAP2 SWAP1 POP JUMP JUMPDEST PUSH1 0x0 PUSH1 0x20 DUP3 ADD SWAP1 POP DUP2 DUP2 SUB PUSH1 0x0 DUP4 ADD MSTORE PUSH2 0x3BA3 DUP2 PUSH2 0x3B67 JUMP JUMPDEST SWAP1 POP SWAP2 SWAP1 POP JUMP JUMPDEST PUSH1 0x0 DUP2 MLOAD SWAP1 POP PUSH2 0x3BB9 DUP2 PUSH2 0x2922 JUMP JUMPDEST SWAP3 SWAP2 POP POP JUMP JUMPDEST PUSH1 0x0 DUP1 PUSH1 0x0 DUP1 PUSH1 0x80 DUP6 DUP8 SUB SLT ISZERO PUSH2 0x3BD9 JUMPI PUSH2 0x3BD8 PUSH2 0x2649 JUMP JUMPDEST JUMPDEST PUSH1 0x0 PUSH2 0x3BE7 DUP8 DUP3 DUP9 ADD PUSH2 0x3BAA JUMP JUMPDEST SWAP5 POP POP PUSH1 0x20 PUSH2 0x3BF8 DUP8 DUP3 DUP9 ADD PUSH2 0x3BAA JUMP JUMPDEST SWAP4 POP POP PUSH1 0x40 PUSH2 0x3C09 DUP8 DUP3 DUP9 ADD PUSH2 0x3BAA JUMP JUMPDEST SWAP3 POP POP PUSH1 0x60 PUSH2 0x3C1A DUP8 DUP3 DUP9 ADD PUSH2 0x3BAA JUMP JUMPDEST SWAP2 POP POP SWAP3 SWAP6 SWAP2 SWAP5 POP SWAP3 POP JUMP JUMPDEST PUSH1 0x0 DUP1 PUSH1 0x40 DUP4 DUP6 SUB SLT ISZERO PUSH2 0x3C3D JUMPI PUSH2 0x3C3C PUSH2 0x2649 JUMP JUMPDEST JUMPDEST PUSH1 0x0 PUSH2 0x3C4B DUP6 DUP3 DUP7 ADD PUSH2 0x3BAA JUMP JUMPDEST SWAP3 POP POP PUSH1 0x20 PUSH2 0x3C5C DUP6 DUP3 DUP7 ADD PUSH2 0x3BAA JUMP JUMPDEST SWAP2 POP POP SWAP3 POP SWAP3 SWAP1 POP JUMP JUMPDEST PUSH32 0x4552433732313A20617070726F766520746F2063616C6C657200000000000000 PUSH1 0x0 DUP3 ADD MSTORE POP JUMP JUMPDEST PUSH1 0x0 PUSH2 0x3C9C PUSH1 0x19 DUP4 PUSH2 0x2719 JUMP JUMPDEST SWAP2 POP PUSH2 0x3CA7 DUP3 PUSH2 0x3C66 JUMP JUMPDEST PUSH1 0x20 DUP3 ADD SWAP1 POP SWAP2 SWAP1 POP JUMP JUMPDEST PUSH1 0x0 PUSH1 0x20 DUP3 ADD SWAP1 POP DUP2 DUP2 SUB PUSH1 0x0 DUP4 ADD MSTORE PUSH2 0x3CCB DUP2 PUSH2 0x3C8F JUMP JUMPDEST SWAP1 POP SWAP2 SWAP1 POP JUMP JUMPDEST PUSH32 0x4552433732313A207472616E7366657220746F206E6F6E204552433732315265 PUSH1 0x0 DUP3 ADD MSTORE PUSH32 0x63656976657220696D706C656D656E7465720000000000000000000000000000 PUSH1 0x20 DUP3 ADD MSTORE POP JUMP JUMPDEST PUSH1 0x0 PUSH2 0x3D2E PUSH1 0x32 DUP4 PUSH2 0x2719 JUMP JUMPDEST SWAP2 POP PUSH2 0x3D39 DUP3 PUSH2 0x3CD2 JUMP JUMPDEST PUSH1 0x40 DUP3 ADD SWAP1 POP SWAP2 SWAP1 POP JUMP JUMPDEST PUSH1 0x0 PUSH1 0x20 DUP3 ADD SWAP1 POP DUP2 DUP2 SUB PUSH1 0x0 DUP4 ADD MSTORE PUSH2 0x3D5D DUP2 PUSH2 0x3D21 JUMP JUMPDEST SWAP1 POP SWAP2 SWAP1 POP JUMP JUMPDEST PUSH32 0x4552433732313A207472616E736665722066726F6D20696E636F727265637420 PUSH1 0x0 DUP3 ADD MSTORE PUSH32 0x6F776E6572000000000000000000000000000000000000000000000000000000 PUSH1 0x20 DUP3 ADD MSTORE POP JUMP JUMPDEST PUSH1 0x0 PUSH2 0x3DC0 PUSH1 0x25 DUP4 PUSH2 0x2719 JUMP JUMPDEST SWAP2 POP PUSH2 0x3DCB DUP3 PUSH2 0x3D64 JUMP JUMPDEST PUSH1 0x40 DUP3 ADD SWAP1 POP SWAP2 SWAP1 POP JUMP JUMPDEST PUSH1 0x0 PUSH1 0x20 DUP3 ADD SWAP1 POP DUP2 DUP2 SUB PUSH1 0x0 DUP4 ADD MSTORE PUSH2 0x3DEF DUP2 PUSH2 0x3DB3 JUMP JUMPDEST SWAP1 POP SWAP2 SWAP1 POP JUMP JUMPDEST PUSH32 0x4552433732313A207472616E7366657220746F20746865207A65726F20616464 PUSH1 0x0 DUP3 ADD MSTORE PUSH32 0x7265737300000000000000000000000000000000000000000000000000000000 PUSH1 0x20 DUP3 ADD MSTORE POP JUMP JUMPDEST PUSH1 0x0 PUSH2 0x3E52 PUSH1 0x24 DUP4 PUSH2 0x2719 JUMP JUMPDEST SWAP2 POP PUSH2 0x3E5D DUP3 PUSH2 0x3DF6 JUMP JUMPDEST PUSH1 0x40 DUP3 ADD SWAP1 POP SWAP2 SWAP1 POP JUMP JUMPDEST PUSH1 0x0 PUSH1 0x20 DUP3 ADD SWAP1 POP DUP2 DUP2 SUB PUSH1 0x0 DUP4 ADD MSTORE PUSH2 0x3E81 DUP2 PUSH2 0x3E45 JUMP JUMPDEST SWAP1 POP SWAP2 SWAP1 POP JUMP JUMPDEST PUSH1 0x0 PUSH1 0x80 DUP3 ADD SWAP1 POP PUSH2 0x3E9D PUSH1 0x0 DUP4 ADD DUP8 PUSH2 0x2855 JUMP JUMPDEST PUSH2 0x3EAA PUSH1 0x20 DUP4 ADD DUP7 PUSH2 0x2855 JUMP JUMPDEST PUSH2 0x3EB7 PUSH1 0x40 DUP4 ADD DUP6 PUSH2 0x28EB JUMP JUMPDEST DUP2 DUP2 SUB PUSH1 0x60 DUP4 ADD MSTORE PUSH2 0x3EC9 DUP2 DUP5 PUSH2 0x2F3E JUMP JUMPDEST SWAP1 POP SWAP6 SWAP5 POP POP POP POP POP JUMP JUMPDEST PUSH1 0x0 DUP2 MLOAD SWAP1 POP PUSH2 0x3EE3 DUP2 PUSH2 0x267F JUMP JUMPDEST SWAP3 SWAP2 POP POP JUMP JUMPDEST PUSH1 0x0 PUSH1 0x20 DUP3 DUP5 SUB SLT ISZERO PUSH2 0x3EFF JUMPI PUSH2 0x3EFE PUSH2 0x2649 JUMP JUMPDEST JUMPDEST PUSH1 0x0 PUSH2 0x3F0D DUP5 DUP3 DUP6 ADD PUSH2 0x3ED4 JUMP JUMPDEST SWAP2 POP POP SWAP3 SWAP2 POP POP JUMP JUMPDEST PUSH32 0x4E487B7100000000000000000000000000000000000000000000000000000000 PUSH1 0x0 MSTORE PUSH1 0x12 PUSH1 0x4 MSTORE PUSH1 0x24 PUSH1 0x0 REVERT INVALID LOG2 PUSH5 0x6970667358 0x22 SLT KECCAK256 0xC0 SWAP12 0x49 STATICCALL SWAP15 CODESIZE 0xB0 CALL 0xB8 PUSH13 0x3BF07C1EB5ABC6D4371851A52C KECCAK256 NUMBER REVERT 0xBB INVALID PUSH17 0x28C7E964736F6C63430008120033000000 "},"methodIdentifiers":{"approve(address,uint256)":"095ea7b3","balanceOf(address)":"70a08231","baseURI()":"6c0360eb","getApproved(uint256)":"081812fc","getEPotionsData(uint256)":"49d5462e","getEWeaponsData(uint256)":"727bc4b1","isApprovedForAll(address,address)":"e985e9c5","items(uint256)":"bfb231d2","mintEPotionItem(uint8,uint8,uint8,uint8,string)":"7ce6f18b","mintEWeaponItem(uint8,uint8,string)":"210d8aa9","name()":"06fdde03","owner()":"8da5cb5b","ownerOf(uint256)":"6352211e","renounceOwnership()":"715018a6","safeTransferFrom(address,address,uint256)":"42842e0e","safeTransferFrom(address,address,uint256,bytes)":"b88d4fde","setApprovalForAll(address,bool)":"a22cb465","setBaseURI(string)":"55f804b3","supportsInterface(bytes4)":"01ffc9a7","symbol()":"95d89b41","tokenURI(uint256)":"c87b56dd","totalSupply()":"18160ddd","transferFrom(address,address,uint256)":"23b872dd","transferOwnership(address)":"f2fde38b"}}}}}