{
  "_format": "hh-sol-artifact-1",
  "contractName": "EAvatar",
  "sourceName": "contracts/EAvatar.sol",
  "abi": [
    {
      "inputs": [
        {
          "internalType": "address",
          "name": "bond_issuer",
          "type": "address"
        }
      ],
      "stateMutability": "nonpayable",
      "type": "constructor"
    },
    {
      "anonymous": false,
      "inputs": [
        {
          "indexed": true,
          "internalType": "address",
          "name": "owner",
          "type": "address"
        },
        {
          "indexed": true,
          "internalType": "address",
          "name": "approved",
          "type": "address"
        },
        {
          "indexed": true,
          "internalType": "uint256",
          "name": "tokenId",
          "type": "uint256"
        }
      ],
      "name": "Approval",
      "type": "event"
    },
    {
      "anonymous": false,
      "inputs": [
        {
          "indexed": true,
          "internalType": "address",
          "name": "owner",
          "type": "address"
        },
        {
          "indexed": true,
          "internalType": "address",
          "name": "operator",
          "type": "address"
        },
        {
          "indexed": false,
          "internalType": "bool",
          "name": "approved",
          "type": "bool"
        }
      ],
      "name": "ApprovalForAll",
      "type": "event"
    },
    {
      "anonymous": false,
      "inputs": [
        {
          "indexed": false,
          "internalType": "uint256",
          "name": "_fromTokenId",
          "type": "uint256"
        },
        {
          "indexed": false,
          "internalType": "uint256",
          "name": "_toTokenId",
          "type": "uint256"
        }
      ],
      "name": "BatchMetadataUpdate",
      "type": "event"
    },
    {
      "anonymous": false,
      "inputs": [
        {
          "indexed": false,
          "internalType": "uint256",
          "name": "_tokenId",
          "type": "uint256"
        }
      ],
      "name": "MetadataUpdate",
      "type": "event"
    },
    {
      "anonymous": false,
      "inputs": [
        {
          "indexed": true,
          "internalType": "address",
          "name": "previousOwner",
          "type": "address"
        },
        {
          "indexed": true,
          "internalType": "address",
          "name": "newOwner",
          "type": "address"
        }
      ],
      "name": "OwnershipTransferred",
      "type": "event"
    },
    {
      "anonymous": false,
      "inputs": [
        {
          "indexed": true,
          "internalType": "address",
          "name": "from",
          "type": "address"
        },
        {
          "indexed": true,
          "internalType": "address",
          "name": "to",
          "type": "address"
        },
        {
          "indexed": true,
          "internalType": "uint256",
          "name": "tokenId",
          "type": "uint256"
        }
      ],
      "name": "Transfer",
      "type": "event"
    },
    {
      "anonymous": false,
      "inputs": [
        {
          "indexed": false,
          "internalType": "uint256",
          "name": "tokenId",
          "type": "uint256"
        },
        {
          "indexed": false,
          "internalType": "address",
          "name": "owner",
          "type": "address"
        },
        {
          "indexed": false,
          "internalType": "uint256",
          "name": "price",
          "type": "uint256"
        }
      ],
      "name": "nftItemCreated",
      "type": "event"
    },
    {
      "inputs": [
        {
          "internalType": "address",
          "name": "to",
          "type": "address"
        },
        {
          "internalType": "uint256",
          "name": "tokenId",
          "type": "uint256"
        }
      ],
      "name": "approve",
      "outputs": [],
      "stateMutability": "nonpayable",
      "type": "function"
    },
    {
      "inputs": [],
      "name": "availableNFTs",
      "outputs": [
        {
          "internalType": "bool",
          "name": "ans",
          "type": "bool"
        }
      ],
      "stateMutability": "view",
      "type": "function"
    },
    {
      "inputs": [
        {
          "internalType": "address",
          "name": "owner",
          "type": "address"
        }
      ],
      "name": "balanceOf",
      "outputs": [
        {
          "internalType": "uint256",
          "name": "",
          "type": "uint256"
        }
      ],
      "stateMutability": "view",
      "type": "function"
    },
    {
      "inputs": [],
      "name": "bondMatureAmount",
      "outputs": [
        {
          "internalType": "uint256",
          "name": "amount",
          "type": "uint256"
        }
      ],
      "stateMutability": "view",
      "type": "function"
    },
    {
      "inputs": [],
      "name": "calculateAccruedInterest",
      "outputs": [
        {
          "internalType": "uint256",
          "name": "",
          "type": "uint256"
        }
      ],
      "stateMutability": "view",
      "type": "function"
    },
    {
      "inputs": [
        {
          "internalType": "uint256",
          "name": "tokenId",
          "type": "uint256"
        },
        {
          "internalType": "address",
          "name": "owner",
          "type": "address"
        },
        {
          "internalType": "string",
          "name": "name",
          "type": "string"
        }
      ],
      "name": "changeCharacterName",
      "outputs": [],
      "stateMutability": "view",
      "type": "function"
    },
    {
      "inputs": [
        {
          "internalType": "uint256",
          "name": "tokenId",
          "type": "uint256"
        }
      ],
      "name": "getApproved",
      "outputs": [
        {
          "internalType": "address",
          "name": "",
          "type": "address"
        }
      ],
      "stateMutability": "view",
      "type": "function"
    },
    {
      "inputs": [],
      "name": "getBaseURI",
      "outputs": [
        {
          "internalType": "string",
          "name": "",
          "type": "string"
        }
      ],
      "stateMutability": "view",
      "type": "function"
    },
    {
      "inputs": [],
      "name": "getBondInfo",
      "outputs": [
        {
          "components": [
            {
              "internalType": "address",
              "name": "bondIssuer",
              "type": "address"
            },
            {
              "internalType": "string",
              "name": "bondName",
              "type": "string"
            },
            {
              "internalType": "uint256",
              "name": "issueDate",
              "type": "uint256"
            },
            {
              "internalType": "uint256",
              "name": "maturityDate",
              "type": "uint256"
            },
            {
              "internalType": "uint256",
              "name": "interestPaymentPercent",
              "type": "uint256"
            },
            {
              "internalType": "uint256",
              "name": "periodOfPayment",
              "type": "uint256"
            },
            {
              "internalType": "uint256",
              "name": "faceValue",
              "type": "uint256"
            },
            {
              "internalType": "uint256",
              "name": "shift",
              "type": "uint256"
            },
            {
              "internalType": "uint256",
              "name": "supply",
              "type": "uint256"
            }
          ],
          "internalType": "struct EAvatar.EBond",
          "name": "bond",
          "type": "tuple"
        }
      ],
      "stateMutability": "view",
      "type": "function"
    },
    {
      "inputs": [],
      "name": "getCharURI",
      "outputs": [
        {
          "internalType": "string",
          "name": "",
          "type": "string"
        }
      ],
      "stateMutability": "view",
      "type": "function"
    },
    {
      "inputs": [],
      "name": "getIssuer",
      "outputs": [
        {
          "internalType": "address",
          "name": "issuer",
          "type": "address"
        }
      ],
      "stateMutability": "view",
      "type": "function"
    },
    {
      "inputs": [],
      "name": "getLatestId",
      "outputs": [
        {
          "internalType": "uint256",
          "name": "",
          "type": "uint256"
        }
      ],
      "stateMutability": "view",
      "type": "function"
    },
    {
      "inputs": [
        {
          "internalType": "uint256",
          "name": "tokenId",
          "type": "uint256"
        }
      ],
      "name": "getMetadata",
      "outputs": [
        {
          "components": [
            {
              "internalType": "uint256",
              "name": "tokenId",
              "type": "uint256"
            },
            {
              "internalType": "string",
              "name": "name",
              "type": "string"
            },
            {
              "internalType": "uint256",
              "name": "mintedAt",
              "type": "uint256"
            },
            {
              "internalType": "uint256",
              "name": "listing_price",
              "type": "uint256"
            },
            {
              "components": [
                {
                  "internalType": "string",
                  "name": "name",
                  "type": "string"
                },
                {
                  "internalType": "string",
                  "name": "characterURI",
                  "type": "string"
                },
                {
                  "internalType": "uint8",
                  "name": "hp",
                  "type": "uint8"
                },
                {
                  "internalType": "uint8",
                  "name": "ap",
                  "type": "uint8"
                },
                {
                  "internalType": "uint8",
                  "name": "level",
                  "type": "uint8"
                }
              ],
              "internalType": "struct EAvatar.AvatarChar",
              "name": "character",
              "type": "tuple"
            },
            {
              "internalType": "address",
              "name": "ownerId",
              "type": "address"
            }
          ],
          "internalType": "struct EAvatar.EMetadata",
          "name": "item",
          "type": "tuple"
        }
      ],
      "stateMutability": "view",
      "type": "function"
    },
    {
      "inputs": [],
      "name": "interestPaymentAmount",
      "outputs": [
        {
          "internalType": "uint256",
          "name": "amount",
          "type": "uint256"
        }
      ],
      "stateMutability": "view",
      "type": "function"
    },
    {
      "inputs": [
        {
          "internalType": "address",
          "name": "owner",
          "type": "address"
        },
        {
          "internalType": "address",
          "name": "operator",
          "type": "address"
        }
      ],
      "name": "isApprovedForAll",
      "outputs": [
        {
          "internalType": "bool",
          "name": "",
          "type": "bool"
        }
      ],
      "stateMutability": "view",
      "type": "function"
    },
    {
      "inputs": [],
      "name": "isBondMatured",
      "outputs": [
        {
          "internalType": "bool",
          "name": "",
          "type": "bool"
        }
      ],
      "stateMutability": "view",
      "type": "function"
    },
    {
      "inputs": [],
      "name": "isInterestTime",
      "outputs": [
        {
          "internalType": "bool",
          "name": "",
          "type": "bool"
        }
      ],
      "stateMutability": "view",
      "type": "function"
    },
    {
      "inputs": [],
      "name": "matureCharacters",
      "outputs": [],
      "stateMutability": "nonpayable",
      "type": "function"
    },
    {
      "inputs": [
        {
          "internalType": "address",
          "name": "recipient",
          "type": "address"
        },
        {
          "internalType": "uint256",
          "name": "price",
          "type": "uint256"
        }
      ],
      "name": "mintNFT",
      "outputs": [
        {
          "internalType": "uint256",
          "name": "",
          "type": "uint256"
        }
      ],
      "stateMutability": "nonpayable",
      "type": "function"
    },
    {
      "inputs": [],
      "name": "name",
      "outputs": [
        {
          "internalType": "string",
          "name": "",
          "type": "string"
        }
      ],
      "stateMutability": "view",
      "type": "function"
    },
    {
      "inputs": [],
      "name": "owner",
      "outputs": [
        {
          "internalType": "address",
          "name": "",
          "type": "address"
        }
      ],
      "stateMutability": "view",
      "type": "function"
    },
    {
      "inputs": [
        {
          "internalType": "address",
          "name": "owner",
          "type": "address"
        }
      ],
      "name": "ownerCollection",
      "outputs": [
        {
          "internalType": "uint256[]",
          "name": "ids",
          "type": "uint256[]"
        }
      ],
      "stateMutability": "view",
      "type": "function"
    },
    {
      "inputs": [
        {
          "internalType": "uint256",
          "name": "tokenId",
          "type": "uint256"
        }
      ],
      "name": "ownerOf",
      "outputs": [
        {
          "internalType": "address",
          "name": "",
          "type": "address"
        }
      ],
      "stateMutability": "view",
      "type": "function"
    },
    {
      "inputs": [],
      "name": "renounceOwnership",
      "outputs": [],
      "stateMutability": "nonpayable",
      "type": "function"
    },
    {
      "inputs": [
        {
          "internalType": "address",
          "name": "from",
          "type": "address"
        },
        {
          "internalType": "address",
          "name": "to",
          "type": "address"
        },
        {
          "internalType": "uint256",
          "name": "tokenId",
          "type": "uint256"
        }
      ],
      "name": "safeTransferFrom",
      "outputs": [],
      "stateMutability": "nonpayable",
      "type": "function"
    },
    {
      "inputs": [
        {
          "internalType": "address",
          "name": "from",
          "type": "address"
        },
        {
          "internalType": "address",
          "name": "to",
          "type": "address"
        },
        {
          "internalType": "uint256",
          "name": "tokenId",
          "type": "uint256"
        },
        {
          "internalType": "bytes",
          "name": "data",
          "type": "bytes"
        }
      ],
      "name": "safeTransferFrom",
      "outputs": [],
      "stateMutability": "nonpayable",
      "type": "function"
    },
    {
      "inputs": [
        {
          "internalType": "address",
          "name": "operator",
          "type": "address"
        },
        {
          "internalType": "bool",
          "name": "approved",
          "type": "bool"
        }
      ],
      "name": "setApprovalForAll",
      "outputs": [],
      "stateMutability": "nonpayable",
      "type": "function"
    },
    {
      "inputs": [
        {
          "internalType": "string",
          "name": "newURI",
          "type": "string"
        }
      ],
      "name": "setBaseURI",
      "outputs": [],
      "stateMutability": "nonpayable",
      "type": "function"
    },
    {
      "inputs": [
        {
          "internalType": "string",
          "name": "newURI",
          "type": "string"
        }
      ],
      "name": "setCharURI",
      "outputs": [],
      "stateMutability": "nonpayable",
      "type": "function"
    },
    {
      "inputs": [
        {
          "internalType": "string",
          "name": "newURI",
          "type": "string"
        }
      ],
      "name": "setInactiveBaseURI",
      "outputs": [],
      "stateMutability": "nonpayable",
      "type": "function"
    },
    {
      "inputs": [
        {
          "internalType": "string",
          "name": "newURI",
          "type": "string"
        }
      ],
      "name": "setInactiveCharURI",
      "outputs": [],
      "stateMutability": "nonpayable",
      "type": "function"
    },
    {
      "inputs": [
        {
          "internalType": "bytes4",
          "name": "interfaceId",
          "type": "bytes4"
        }
      ],
      "name": "supportsInterface",
      "outputs": [
        {
          "internalType": "bool",
          "name": "",
          "type": "bool"
        }
      ],
      "stateMutability": "view",
      "type": "function"
    },
    {
      "inputs": [],
      "name": "symbol",
      "outputs": [
        {
          "internalType": "string",
          "name": "",
          "type": "string"
        }
      ],
      "stateMutability": "view",
      "type": "function"
    },
    {
      "inputs": [
        {
          "internalType": "uint256",
          "name": "tokenId",
          "type": "uint256"
        }
      ],
      "name": "tokenURI",
      "outputs": [
        {
          "internalType": "string",
          "name": "",
          "type": "string"
        }
      ],
      "stateMutability": "view",
      "type": "function"
    },
    {
      "inputs": [
        {
          "internalType": "address",
          "name": "from",
          "type": "address"
        },
        {
          "internalType": "address",
          "name": "to",
          "type": "address"
        },
        {
          "internalType": "uint256",
          "name": "tokenId",
          "type": "uint256"
        }
      ],
      "name": "transferFrom",
      "outputs": [],
      "stateMutability": "nonpayable",
      "type": "function"
    },
    {
      "inputs": [
        {
          "internalType": "address",
          "name": "newOwner",
          "type": "address"
        }
      ],
      "name": "transferOwnership",
      "outputs": [],
      "stateMutability": "nonpayable",
      "type": "function"
    }
  ],
  "bytecode": "0x60806040526040518060600160405280602e815260200162004c4e602e9139601490816200002e919062000614565b5060405180602001604052806000815250601590816200004f919062000614565b506040518060600160405280602e815260200162004c20602e9139601690816200007a919062000614565b5060405180602001604052806000815250601790816200009b919062000614565b50348015620000a957600080fd5b5060405162004c7c38038062004c7c8339818101604052810190620000cf919062000765565b6040518060400160405280600781526020017f45417661746172000000000000000000000000000000000000000000000000008152506040518060400160405280600281526020017f454100000000000000000000000000000000000000000000000000000000000081525081600090816200014c919062000614565b5080600190816200015e919062000614565b5050506200018162000175620002cc60201b60201c565b620002d460201b60201c565b6040518061012001604052808273ffffffffffffffffffffffffffffffffffffffff1681526020016040518060400160405280600a81526020017f452d426f6e64204f6e65000000000000000000000000000000000000000000008152508152602001428152602001636e71188081526020016005815260200162f0c29f8152602001620186a08152602001600281526020016103e8815250600960008201518160000160006101000a81548173ffffffffffffffffffffffffffffffffffffffff021916908373ffffffffffffffffffffffffffffffffffffffff16021790555060208201518160010190816200027a919062000614565b5060408201518160020155606082015181600301556080820151816004015560a0820151816005015560c0820151816006015560e0820151816007015561010082015181600801559050505062000797565b600033905090565b6000600760009054906101000a900473ffffffffffffffffffffffffffffffffffffffff16905081600760006101000a81548173ffffffffffffffffffffffffffffffffffffffff021916908373ffffffffffffffffffffffffffffffffffffffff1602179055508173ffffffffffffffffffffffffffffffffffffffff168173ffffffffffffffffffffffffffffffffffffffff167f8be0079c531659141344cd1fd0a4f28419497f9722a3daafe3b4186f6b6457e060405160405180910390a35050565b600081519050919050565b7f4e487b7100000000000000000000000000000000000000000000000000000000600052604160045260246000fd5b7f4e487b7100000000000000000000000000000000000000000000000000000000600052602260045260246000fd5b600060028204905060018216806200041c57607f821691505b602082108103620004325762000431620003d4565b5b50919050565b60008190508160005260206000209050919050565b60006020601f8301049050919050565b600082821b905092915050565b6000600883026200049c7fffffffffffffffffffffffffffffffffffffffffffffffffffffffffffffffff826200045d565b620004a886836200045d565b95508019841693508086168417925050509392505050565b6000819050919050565b6000819050919050565b6000620004f5620004ef620004e984620004c0565b620004ca565b620004c0565b9050919050565b6000819050919050565b6200051183620004d4565b620005296200052082620004fc565b8484546200046a565b825550505050565b600090565b6200054062000531565b6200054d81848462000506565b505050565b5b8181101562000575576200056960008262000536565b60018101905062000553565b5050565b601f821115620005c4576200058e8162000438565b62000599846200044d565b81016020851015620005a9578190505b620005c1620005b8856200044d565b83018262000552565b50505b505050565b600082821c905092915050565b6000620005e960001984600802620005c9565b1980831691505092915050565b6000620006048383620005d6565b9150826002028217905092915050565b6200061f826200039a565b67ffffffffffffffff8111156200063b576200063a620003a5565b5b62000647825462000403565b6200065482828562000579565b600060209050601f8311600181146200068c576000841562000677578287015190505b620006838582620005f6565b865550620006f3565b601f1984166200069c8662000438565b60005b82811015620006c6578489015182556001820191506020850194506020810190506200069f565b86831015620006e65784890151620006e2601f891682620005d6565b8355505b6001600288020188555050505b505050505050565b600080fd5b600073ffffffffffffffffffffffffffffffffffffffff82169050919050565b60006200072d8262000700565b9050919050565b6200073f8162000720565b81146200074b57600080fd5b50565b6000815190506200075f8162000734565b92915050565b6000602082840312156200077e576200077d620006fb565b5b60006200078e848285016200074e565b91505092915050565b61447980620007a76000396000f3fe608060405234801561001057600080fd5b506004361061021c5760003560e01c8063715018a611610125578063a574cea4116100ad578063e985e9c51161007c578063e985e9c514610619578063ea317fff14610649578063eff91c7e14610667578063f164523814610685578063f2fde38b146106a15761021c565b8063a574cea41461057f578063b88d4fde146105af578063c87b56dd146105cb578063d5070b3e146105fb5761021c565b806395d89b41116100f457806395d89b41146104db5780639c50da75146104f9578063a22cb46514610529578063a31b115f14610545578063a35e1370146105615761021c565b8063715018a61461048b578063729a1a871461049557806388456b7b146104b35780638da5cb5b146104bd5761021c565b806337e08699116101a8578063525564211161017757806352556421146103d357806355f804b3146103f15780636352211e1461040d57806370a082311461043d578063714c53981461046d5761021c565b806337e086991461034b5780633c168eab146103695780633fb3ff111461039957806342842e0e146103b75761021c565b8063081812fc116101ef578063081812fc146102a9578063095ea7b3146102d95780631ed54e78146102f557806323b872dd146103135780632b8c41f41461032f5761021c565b806301ffc9a71461022157806305f315721461025157806306fdde031461026f5780630816a3e21461028d575b600080fd5b61023b60048036038101906102369190612be7565b6106bd565b6040516102489190612c2f565b60405180910390f35b61025961071e565b6040516102669190612c2f565b60405180910390f35b61027761072e565b6040516102849190612cda565b60405180910390f35b6102a760048036038101906102a29190612e31565b6107c0565b005b6102c360048036038101906102be9190612eb0565b6107db565b6040516102d09190612f1e565b60405180910390f35b6102f360048036038101906102ee9190612f65565b610821565b005b6102fd610938565b60405161030a9190612fb4565b60405180910390f35b61032d60048036038101906103289190612fcf565b610987565b005b61034960048036038101906103449190612e31565b6109e7565b005b610353610a02565b6040516103609190612c2f565b60405180910390f35b610383600480360381019061037e9190612f65565b610a2c565b6040516103909190612fb4565b60405180910390f35b6103a1610acf565b6040516103ae9190612fb4565b60405180910390f35b6103d160048036038101906103cc9190612fcf565b610b31565b005b6103db610b51565b6040516103e89190612f1e565b60405180910390f35b61040b60048036038101906104069190612e31565b610b7e565b005b61042760048036038101906104229190612eb0565b610b99565b6040516104349190612f1e565b60405180910390f35b61045760048036038101906104529190613022565b610c1f565b6040516104649190612fb4565b60405180910390f35b610475610cd6565b6040516104829190612cda565b60405180910390f35b610493610d68565b005b61049d610d7c565b6040516104aa9190612fb4565b60405180910390f35b6104bb610d89565b005b6104c5610e37565b6040516104d29190612f1e565b60405180910390f35b6104e3610e61565b6040516104f09190612cda565b60405180910390f35b610513600480360381019061050e9190613022565b610ef3565b604051610520919061310d565b60405180910390f35b610543600480360381019061053e919061315b565b610f8a565b005b61055f600480360381019061055a9190612e31565b610fa0565b005b610569610fbb565b6040516105769190612cda565b60405180910390f35b61059960048036038101906105949190612eb0565b61104d565b6040516105a6919061331d565b60405180910390f35b6105c960048036038101906105c491906133e0565b61130f565b005b6105e560048036038101906105e09190612eb0565b611371565b6040516105f29190612cda565b60405180910390f35b610603611483565b6040516106109190613528565b60405180910390f35b610633600480360381019061062e919061354a565b6115cc565b6040516106409190612c2f565b60405180910390f35b610651611660565b60405161065e9190612c2f565b60405180910390f35b61066f61166f565b60405161067c9190612fb4565b60405180910390f35b61069f600480360381019061069a919061358a565b611680565b005b6106bb60048036038101906106b69190613022565b6116e0565b005b6000634906490660e01b7bffffffffffffffffffffffffffffffffffffffffffffffffffffffff1916827bffffffffffffffffffffffffffffffffffffffffffffffffffffffff19161480610717575061071682611763565b5b9050919050565b6000600960030154421015905090565b60606000805461073d90613628565b80601f016020809104026020016040519081016040528092919081815260200182805461076990613628565b80156107b65780601f1061078b576101008083540402835291602001916107b6565b820191906000526020600020905b81548152906001019060200180831161079957829003601f168201915b5050505050905090565b6107c8611845565b80601790816107d79190613805565b5050565b60006107e6826118c3565b6004600083815260200190815260200160002060009054906101000a900473ffffffffffffffffffffffffffffffffffffffff169050919050565b600061082c82610b99565b90508073ffffffffffffffffffffffffffffffffffffffff168373ffffffffffffffffffffffffffffffffffffffff160361089c576040517f08c379a000000000000000000000000000000000000000000000000000000000815260040161089390613949565b60405180910390fd5b8073ffffffffffffffffffffffffffffffffffffffff166108bb61190e565b73ffffffffffffffffffffffffffffffffffffffff1614806108ea57506108e9816108e461190e565b6115cc565b5b610929576040517f08c379a0000000000000000000000000000000000000000000000000000000008152600401610920906139db565b60405180910390fd5b6109338383611916565b505050565b600061094261071e565b61097f57600960070154600a6109589190613b5d565b60096004015460096006015461096e9190613ba8565b6109789190613c19565b9050610984565b600090505b90565b61099861099261190e565b826119cf565b6109d7576040517f08c379a00000000000000000000000000000000000000000000000000000000081526004016109ce90613cbc565b60405180910390fd5b6109e2838383611a64565b505050565b6109ef611845565b80601690816109fe9190613805565b5050565b60008060096005015460096002015442610a1c9190613cdc565b610a269190613d10565b14905090565b6000610a36611845565b600960060154821015610a4857600080fd5b600960080154610a586008611d5d565b10610a98576040517f08c379a0000000000000000000000000000000000000000000000000000000008152600401610a8f90613db3565b60405180910390fd5b610aa26008611d6b565b6000610aae6008611d5d565b9050610aba8482611d81565b610ac5818486611d9f565b8091505092915050565b6000610ad961071e565b610b29576000610ae7610938565b9050600060096005015460096002015442610b029190613cdc565b610b0c9190613c19565b905060008183610b1c9190613ba8565b9050809350505050610b2e565b600090505b90565b610b4c8383836040518060200160405280600081525061130f565b505050565b6000600960000160009054906101000a900473ffffffffffffffffffffffffffffffffffffffff16905090565b610b86611845565b8060149081610b959190613805565b5050565b600080610ba583611fca565b9050600073ffffffffffffffffffffffffffffffffffffffff168173ffffffffffffffffffffffffffffffffffffffff1603610c16576040517f08c379a0000000000000000000000000000000000000000000000000000000008152600401610c0d90613e1f565b60405180910390fd5b80915050919050565b60008073ffffffffffffffffffffffffffffffffffffffff168273ffffffffffffffffffffffffffffffffffffffff1603610c8f576040517f08c379a0000000000000000000000000000000000000000000000000000000008152600401610c8690613eb1565b60405180910390fd5b600360008373ffffffffffffffffffffffffffffffffffffffff1673ffffffffffffffffffffffffffffffffffffffff168152602001908152602001600020549050919050565b606060148054610ce590613628565b80601f0160208091040260200160405190810160405280929190818152602001828054610d1190613628565b8015610d5e5780601f10610d3357610100808354040283529160200191610d5e565b820191906000526020600020905b815481529060010190602001808311610d4157829003601f168201915b5050505050905090565b610d70611845565b610d7a6000612007565b565b6000600960060154905090565b610d91611845565b610d9961071e565b610da257600080fd5b610e3560158054610db290613628565b80601f0160208091040260200160405190810160405280929190818152602001828054610dde90613628565b8015610e2b5780601f10610e0057610100808354040283529160200191610e2b565b820191906000526020600020905b815481529060010190602001808311610e0e57829003601f168201915b5050505050610b7e565b565b6000600760009054906101000a900473ffffffffffffffffffffffffffffffffffffffff16905090565b606060018054610e7090613628565b80601f0160208091040260200160405190810160405280929190818152602001828054610e9c90613628565b8015610ee95780601f10610ebe57610100808354040283529160200191610ee9565b820191906000526020600020905b815481529060010190602001808311610ecc57829003601f168201915b5050505050905090565b6060601360008373ffffffffffffffffffffffffffffffffffffffff1673ffffffffffffffffffffffffffffffffffffffff168152602001908152602001600020805480602002602001604051908101604052809291908181526020018280548015610f7e57602002820191906000526020600020905b815481526020019060010190808311610f6a575b50505050509050919050565b610f9c610f9561190e565b83836120cd565b5050565b610fa8611845565b8060159081610fb79190613805565b5050565b606060168054610fca90613628565b80601f0160208091040260200160405190810160405280929190818152602001828054610ff690613628565b80156110435780601f1061101857610100808354040283529160200191611043565b820191906000526020600020905b81548152906001019060200180831161102657829003601f168201915b5050505050905090565b611055612a8f565b601260008381526020019081526020016000206040518060c00160405290816000820154815260200160018201805461108d90613628565b80601f01602080910402602001604051908101604052809291908181526020018280546110b990613628565b80156111065780601f106110db57610100808354040283529160200191611106565b820191906000526020600020905b8154815290600101906020018083116110e957829003601f168201915b505050505081526020016002820154815260200160038201548152602001600482016040518060a001604052908160008201805461114390613628565b80601f016020809104026020016040519081016040528092919081815260200182805461116f90613628565b80156111bc5780601f10611191576101008083540402835291602001916111bc565b820191906000526020600020905b81548152906001019060200180831161119f57829003601f168201915b505050505081526020016001820180546111d590613628565b80601f016020809104026020016040519081016040528092919081815260200182805461120190613628565b801561124e5780601f106112235761010080835404028352916020019161124e565b820191906000526020600020905b81548152906001019060200180831161123157829003601f168201915b505050505081526020016002820160009054906101000a900460ff1660ff1660ff1681526020016002820160019054906101000a900460ff1660ff1660ff1681526020016002820160029054906101000a900460ff1660ff1660ff168152505081526020016007820160009054906101000a900473ffffffffffffffffffffffffffffffffffffffff1673ffffffffffffffffffffffffffffffffffffffff1673ffffffffffffffffffffffffffffffffffffffff16815250509050919050565b61132061131a61190e565b836119cf565b61135f576040517f08c379a000000000000000000000000000000000000000000000000000000000815260040161135690613cbc565b60405180910390fd5b61136b84848484612239565b50505050565b606061137c826118c3565b600060066000848152602001908152602001600020805461139c90613628565b80601f01602080910402602001604051908101604052809291908181526020018280546113c890613628565b80156114155780601f106113ea57610100808354040283529160200191611415565b820191906000526020600020905b8154815290600101906020018083116113f857829003601f168201915b505050505090506000611426612295565b9050600081510361143b57819250505061147e565b600082511115611470578082604051602001611458929190613f0d565b6040516020818303038152906040529250505061147e565b611479846122ac565b925050505b919050565b61148b612ae1565b6009604051806101200160405290816000820160009054906101000a900473ffffffffffffffffffffffffffffffffffffffff1673ffffffffffffffffffffffffffffffffffffffff1673ffffffffffffffffffffffffffffffffffffffff1681526020016001820180546114ff90613628565b80601f016020809104026020016040519081016040528092919081815260200182805461152b90613628565b80156115785780601f1061154d57610100808354040283529160200191611578565b820191906000526020600020905b81548152906001019060200180831161155b57829003601f168201915b50505050508152602001600282015481526020016003820154815260200160048201548152602001600582015481526020016006820154815260200160078201548152602001600882015481525050905090565b6000600560008473ffffffffffffffffffffffffffffffffffffffff1673ffffffffffffffffffffffffffffffffffffffff16815260200190815260200160002060008373ffffffffffffffffffffffffffffffffffffffff1673ffffffffffffffffffffffffffffffffffffffff16815260200190815260200160002060009054906101000a900460ff16905092915050565b60008060096008015411905090565b600061167b6008611d5d565b905090565b8173ffffffffffffffffffffffffffffffffffffffff166116a084610b99565b73ffffffffffffffffffffffffffffffffffffffff16146116c057600080fd5b60006116cb8461104d565b90508181608001516000018190525050505050565b6116e8611845565b600073ffffffffffffffffffffffffffffffffffffffff168173ffffffffffffffffffffffffffffffffffffffff1603611757576040517f08c379a000000000000000000000000000000000000000000000000000000000815260040161174e90613fa3565b60405180910390fd5b61176081612007565b50565b60007f80ac58cd000000000000000000000000000000000000000000000000000000007bffffffffffffffffffffffffffffffffffffffffffffffffffffffff1916827bffffffffffffffffffffffffffffffffffffffffffffffffffffffff1916148061182e57507f5b5e139f000000000000000000000000000000000000000000000000000000007bffffffffffffffffffffffffffffffffffffffffffffffffffffffff1916827bffffffffffffffffffffffffffffffffffffffffffffffffffffffff1916145b8061183e575061183d82612314565b5b9050919050565b61184d61190e565b73ffffffffffffffffffffffffffffffffffffffff1661186b610e37565b73ffffffffffffffffffffffffffffffffffffffff16146118c1576040517f08c379a00000000000000000000000000000000000000000000000000000000081526004016118b89061400f565b60405180910390fd5b565b6118cc8161237e565b61190b576040517f08c379a000000000000000000000000000000000000000000000000000000000815260040161190290613e1f565b60405180910390fd5b50565b600033905090565b816004600083815260200190815260200160002060006101000a81548173ffffffffffffffffffffffffffffffffffffffff021916908373ffffffffffffffffffffffffffffffffffffffff160217905550808273ffffffffffffffffffffffffffffffffffffffff1661198983610b99565b73ffffffffffffffffffffffffffffffffffffffff167f8c5be1e5ebec7d5bd14f71427d1e84f3dd0314c0f7b2291e5b200ac8c7c3b92560405160405180910390a45050565b6000806119db83610b99565b90508073ffffffffffffffffffffffffffffffffffffffff168473ffffffffffffffffffffffffffffffffffffffff161480611a1d5750611a1c81856115cc565b5b80611a5b57508373ffffffffffffffffffffffffffffffffffffffff16611a43846107db565b73ffffffffffffffffffffffffffffffffffffffff16145b91505092915050565b8273ffffffffffffffffffffffffffffffffffffffff16611a8482610b99565b73ffffffffffffffffffffffffffffffffffffffff1614611ada576040517f08c379a0000000000000000000000000000000000000000000000000000000008152600401611ad1906140a1565b60405180910390fd5b600073ffffffffffffffffffffffffffffffffffffffff168273ffffffffffffffffffffffffffffffffffffffff1603611b49576040517f08c379a0000000000000000000000000000000000000000000000000000000008152600401611b4090614133565b60405180910390fd5b611b5683838360016123bf565b8273ffffffffffffffffffffffffffffffffffffffff16611b7682610b99565b73ffffffffffffffffffffffffffffffffffffffff1614611bcc576040517f08c379a0000000000000000000000000000000000000000000000000000000008152600401611bc3906140a1565b60405180910390fd5b6004600082815260200190815260200160002060006101000a81549073ffffffffffffffffffffffffffffffffffffffff02191690556001600360008573ffffffffffffffffffffffffffffffffffffffff1673ffffffffffffffffffffffffffffffffffffffff168152602001908152602001600020600082825403925050819055506001600360008473ffffffffffffffffffffffffffffffffffffffff1673ffffffffffffffffffffffffffffffffffffffff16815260200190815260200160002060008282540192505081905550816002600083815260200190815260200160002060006101000a81548173ffffffffffffffffffffffffffffffffffffffff021916908373ffffffffffffffffffffffffffffffffffffffff160217905550808273ffffffffffffffffffffffffffffffffffffffff168473ffffffffffffffffffffffffffffffffffffffff167fddf252ad1be2c89b69c2b068fc378daa952ba7f163c4a11628f55a4df523b3ef60405160405180910390a4611d5883838360016123c5565b505050565b600081600001549050919050565b6001816000016000828254019250508190555050565b611d9b8282604051806020016040528060008152506123cb565b5050565b6040518060c00160405280848152602001604051806020016040528060008152508152602001428152602001838152602001611dda85612426565b81526020018273ffffffffffffffffffffffffffffffffffffffff1681525060126000858152602001908152602001600020600082015181600001556020820151816001019081611e2b9190613805565b5060408201518160020155606082015181600301556080820151816004016000820151816000019081611e5e9190613805565b506020820151816001019081611e749190613805565b5060408201518160020160006101000a81548160ff021916908360ff16021790555060608201518160020160016101000a81548160ff021916908360ff16021790555060808201518160020160026101000a81548160ff021916908360ff160217905550505060a08201518160070160006101000a81548173ffffffffffffffffffffffffffffffffffffffff021916908373ffffffffffffffffffffffffffffffffffffffff160217905550905050601360008273ffffffffffffffffffffffffffffffffffffffff1673ffffffffffffffffffffffffffffffffffffffff1681526020019081526020016000208390806001815401808255809150506001900390600052602060002001600090919091909150557f42e22845cdfee2da8f8e56b8d8f9807a12fd6906d54b388fe7ec9d2329e70b3e838284604051611fbd93929190614153565b60405180910390a1505050565b60006002600083815260200190815260200160002060009054906101000a900473ffffffffffffffffffffffffffffffffffffffff169050919050565b6000600760009054906101000a900473ffffffffffffffffffffffffffffffffffffffff16905081600760006101000a81548173ffffffffffffffffffffffffffffffffffffffff021916908373ffffffffffffffffffffffffffffffffffffffff1602179055508173ffffffffffffffffffffffffffffffffffffffff168173ffffffffffffffffffffffffffffffffffffffff167f8be0079c531659141344cd1fd0a4f28419497f9722a3daafe3b4186f6b6457e060405160405180910390a35050565b8173ffffffffffffffffffffffffffffffffffffffff168373ffffffffffffffffffffffffffffffffffffffff160361213b576040517f08c379a0000000000000000000000000000000000000000000000000000000008152600401612132906141d6565b60405180910390fd5b80600560008573ffffffffffffffffffffffffffffffffffffffff1673ffffffffffffffffffffffffffffffffffffffff16815260200190815260200160002060008473ffffffffffffffffffffffffffffffffffffffff1673ffffffffffffffffffffffffffffffffffffffff16815260200190815260200160002060006101000a81548160ff0219169083151502179055508173ffffffffffffffffffffffffffffffffffffffff168373ffffffffffffffffffffffffffffffffffffffff167f17307eab39ab6107e8899845ad3d59bd9653f200f220920489ca2b5937696c318360405161222c9190612c2f565b60405180910390a3505050565b612244848484611a64565b612250848484846124a7565b61228f576040517f08c379a000000000000000000000000000000000000000000000000000000000815260040161228690614268565b60405180910390fd5b50505050565b606060405180602001604052806000815250905090565b60606122b7826118c3565b60006122c1612295565b905060008151116122e1576040518060200160405280600081525061230c565b806122eb8461262e565b6040516020016122fc929190613f0d565b6040516020818303038152906040525b915050919050565b60007f01ffc9a7000000000000000000000000000000000000000000000000000000007bffffffffffffffffffffffffffffffffffffffffffffffffffffffff1916827bffffffffffffffffffffffffffffffffffffffffffffffffffffffff1916149050919050565b60008073ffffffffffffffffffffffffffffffffffffffff166123a083611fca565b73ffffffffffffffffffffffffffffffffffffffff1614159050919050565b50505050565b50505050565b6123d583836126fc565b6123e260008484846124a7565b612421576040517f08c379a000000000000000000000000000000000000000000000000000000000815260040161241890614268565b60405180910390fd5b505050565b61242e612b43565b6040518060a00160405280604051806020016040528060008152508152602001612456610fbb565b61245f8561262e565b604051602001612470929190613f0d565b6040516020818303038152906040528152602001600a60ff168152602001600a60ff168152602001600060ff168152509050919050565b60006124c88473ffffffffffffffffffffffffffffffffffffffff16612919565b15612621578373ffffffffffffffffffffffffffffffffffffffff1663150b7a026124f161190e565b8786866040518563ffffffff1660e01b815260040161251394939291906142dd565b6020604051808303816000875af192505050801561254f57506040513d601f19601f8201168201806040525081019061254c919061433e565b60015b6125d1573d806000811461257f576040519150601f19603f3d011682016040523d82523d6000602084013e612584565b606091505b5060008151036125c9576040517f08c379a00000000000000000000000000000000000000000000000000000000081526004016125c090614268565b60405180910390fd5b805181602001fd5b63150b7a0260e01b7bffffffffffffffffffffffffffffffffffffffffffffffffffffffff1916817bffffffffffffffffffffffffffffffffffffffffffffffffffffffff191614915050612626565b600190505b949350505050565b60606000600161263d8461293c565b01905060008167ffffffffffffffff81111561265c5761265b612d06565b5b6040519080825280601f01601f19166020018201604052801561268e5781602001600182028036833780820191505090505b509050600082602001820190505b6001156126f1578080600190039150507f3031323334353637383961626364656600000000000000000000000000000000600a86061a8153600a85816126e5576126e4613bea565b5b0494506000850361269c575b819350505050919050565b600073ffffffffffffffffffffffffffffffffffffffff168273ffffffffffffffffffffffffffffffffffffffff160361276b576040517f08c379a0000000000000000000000000000000000000000000000000000000008152600401612762906143b7565b60405180910390fd5b6127748161237e565b156127b4576040517f08c379a00000000000000000000000000000000000000000000000000000000081526004016127ab90614423565b60405180910390fd5b6127c26000838360016123bf565b6127cb8161237e565b1561280b576040517f08c379a000000000000000000000000000000000000000000000000000000000815260040161280290614423565b60405180910390fd5b6001600360008473ffffffffffffffffffffffffffffffffffffffff1673ffffffffffffffffffffffffffffffffffffffff16815260200190815260200160002060008282540192505081905550816002600083815260200190815260200160002060006101000a81548173ffffffffffffffffffffffffffffffffffffffff021916908373ffffffffffffffffffffffffffffffffffffffff160217905550808273ffffffffffffffffffffffffffffffffffffffff16600073ffffffffffffffffffffffffffffffffffffffff167fddf252ad1be2c89b69c2b068fc378daa952ba7f163c4a11628f55a4df523b3ef60405160405180910390a46129156000838360016123c5565b5050565b6000808273ffffffffffffffffffffffffffffffffffffffff163b119050919050565b600080600090507a184f03e93ff9f4daa797ed6e38ed64bf6a1f010000000000000000831061299a577a184f03e93ff9f4daa797ed6e38ed64bf6a1f01000000000000000083816129905761298f613bea565b5b0492506040810190505b6d04ee2d6d415b85acef810000000083106129d7576d04ee2d6d415b85acef810000000083816129cd576129cc613bea565b5b0492506020810190505b662386f26fc100008310612a0657662386f26fc1000083816129fc576129fb613bea565b5b0492506010810190505b6305f5e1008310612a2f576305f5e1008381612a2557612a24613bea565b5b0492506008810190505b6127108310612a54576127108381612a4a57612a49613bea565b5b0492506004810190505b60648310612a775760648381612a6d57612a6c613bea565b5b0492506002810190505b600a8310612a86576001810190505b80915050919050565b6040518060c0016040528060008152602001606081526020016000815260200160008152602001612abe612b43565b8152602001600073ffffffffffffffffffffffffffffffffffffffff1681525090565b604051806101200160405280600073ffffffffffffffffffffffffffffffffffffffff16815260200160608152602001600081526020016000815260200160008152602001600081526020016000815260200160008152602001600081525090565b6040518060a001604052806060815260200160608152602001600060ff168152602001600060ff168152602001600060ff1681525090565b6000604051905090565b600080fd5b600080fd5b60007fffffffff0000000000000000000000000000000000000000000000000000000082169050919050565b612bc481612b8f565b8114612bcf57600080fd5b50565b600081359050612be181612bbb565b92915050565b600060208284031215612bfd57612bfc612b85565b5b6000612c0b84828501612bd2565b91505092915050565b60008115159050919050565b612c2981612c14565b82525050565b6000602082019050612c446000830184612c20565b92915050565b600081519050919050565b600082825260208201905092915050565b60005b83811015612c84578082015181840152602081019050612c69565b60008484015250505050565b6000601f19601f8301169050919050565b6000612cac82612c4a565b612cb68185612c55565b9350612cc6818560208601612c66565b612ccf81612c90565b840191505092915050565b60006020820190508181036000830152612cf48184612ca1565b905092915050565b600080fd5b600080fd5b7f4e487b7100000000000000000000000000000000000000000000000000000000600052604160045260246000fd5b612d3e82612c90565b810181811067ffffffffffffffff82111715612d5d57612d5c612d06565b5b80604052505050565b6000612d70612b7b565b9050612d7c8282612d35565b919050565b600067ffffffffffffffff821115612d9c57612d9b612d06565b5b612da582612c90565b9050602081019050919050565b82818337600083830152505050565b6000612dd4612dcf84612d81565b612d66565b905082815260208101848484011115612df057612def612d01565b5b612dfb848285612db2565b509392505050565b600082601f830112612e1857612e17612cfc565b5b8135612e28848260208601612dc1565b91505092915050565b600060208284031215612e4757612e46612b85565b5b600082013567ffffffffffffffff811115612e6557612e64612b8a565b5b612e7184828501612e03565b91505092915050565b6000819050919050565b612e8d81612e7a565b8114612e9857600080fd5b50565b600081359050612eaa81612e84565b92915050565b600060208284031215612ec657612ec5612b85565b5b6000612ed484828501612e9b565b91505092915050565b600073ffffffffffffffffffffffffffffffffffffffff82169050919050565b6000612f0882612edd565b9050919050565b612f1881612efd565b82525050565b6000602082019050612f336000830184612f0f565b92915050565b612f4281612efd565b8114612f4d57600080fd5b50565b600081359050612f5f81612f39565b92915050565b60008060408385031215612f7c57612f7b612b85565b5b6000612f8a85828601612f50565b9250506020612f9b85828601612e9b565b9150509250929050565b612fae81612e7a565b82525050565b6000602082019050612fc96000830184612fa5565b92915050565b600080600060608486031215612fe857612fe7612b85565b5b6000612ff686828701612f50565b935050602061300786828701612f50565b925050604061301886828701612e9b565b9150509250925092565b60006020828403121561303857613037612b85565b5b600061304684828501612f50565b91505092915050565b600081519050919050565b600082825260208201905092915050565b6000819050602082019050919050565b61308481612e7a565b82525050565b6000613096838361307b565b60208301905092915050565b6000602082019050919050565b60006130ba8261304f565b6130c4818561305a565b93506130cf8361306b565b8060005b838110156131005781516130e7888261308a565b97506130f2836130a2565b9250506001810190506130d3565b5085935050505092915050565b6000602082019050818103600083015261312781846130af565b905092915050565b61313881612c14565b811461314357600080fd5b50565b6000813590506131558161312f565b92915050565b6000806040838503121561317257613171612b85565b5b600061318085828601612f50565b925050602061319185828601613146565b9150509250929050565b600082825260208201905092915050565b60006131b782612c4a565b6131c1818561319b565b93506131d1818560208601612c66565b6131da81612c90565b840191505092915050565b600060ff82169050919050565b6131fb816131e5565b82525050565b600060a083016000830151848203600086015261321e82826131ac565b9150506020830151848203602086015261323882826131ac565b915050604083015161324d60408601826131f2565b50606083015161326060608601826131f2565b50608083015161327360808601826131f2565b508091505092915050565b61328781612efd565b82525050565b600060c0830160008301516132a5600086018261307b565b50602083015184820360208601526132bd82826131ac565b91505060408301516132d2604086018261307b565b5060608301516132e5606086018261307b565b50608083015184820360808601526132fd8282613201565b91505060a083015161331260a086018261327e565b508091505092915050565b60006020820190508181036000830152613337818461328d565b905092915050565b600067ffffffffffffffff82111561335a57613359612d06565b5b61336382612c90565b9050602081019050919050565b600061338361337e8461333f565b612d66565b90508281526020810184848401111561339f5761339e612d01565b5b6133aa848285612db2565b509392505050565b600082601f8301126133c7576133c6612cfc565b5b81356133d7848260208601613370565b91505092915050565b600080600080608085870312156133fa576133f9612b85565b5b600061340887828801612f50565b945050602061341987828801612f50565b935050604061342a87828801612e9b565b925050606085013567ffffffffffffffff81111561344b5761344a612b8a565b5b613457878288016133b2565b91505092959194509250565b60006101208301600083015161347c600086018261327e565b506020830151848203602086015261349482826131ac565b91505060408301516134a9604086018261307b565b5060608301516134bc606086018261307b565b5060808301516134cf608086018261307b565b5060a08301516134e260a086018261307b565b5060c08301516134f560c086018261307b565b5060e083015161350860e086018261307b565b5061010083015161351d61010086018261307b565b508091505092915050565b600060208201905081810360008301526135428184613463565b905092915050565b6000806040838503121561356157613560612b85565b5b600061356f85828601612f50565b925050602061358085828601612f50565b9150509250929050565b6000806000606084860312156135a3576135a2612b85565b5b60006135b186828701612e9b565b93505060206135c286828701612f50565b925050604084013567ffffffffffffffff8111156135e3576135e2612b8a565b5b6135ef86828701612e03565b9150509250925092565b7f4e487b7100000000000000000000000000000000000000000000000000000000600052602260045260246000fd5b6000600282049050600182168061364057607f821691505b602082108103613653576136526135f9565b5b50919050565b60008190508160005260206000209050919050565b60006020601f8301049050919050565b600082821b905092915050565b6000600883026136bb7fffffffffffffffffffffffffffffffffffffffffffffffffffffffffffffffff8261367e565b6136c5868361367e565b95508019841693508086168417925050509392505050565b6000819050919050565b60006137026136fd6136f884612e7a565b6136dd565b612e7a565b9050919050565b6000819050919050565b61371c836136e7565b61373061372882613709565b84845461368b565b825550505050565b600090565b613745613738565b613750818484613713565b505050565b5b818110156137745761376960008261373d565b600181019050613756565b5050565b601f8211156137b95761378a81613659565b6137938461366e565b810160208510156137a2578190505b6137b66137ae8561366e565b830182613755565b50505b505050565b600082821c905092915050565b60006137dc600019846008026137be565b1980831691505092915050565b60006137f583836137cb565b9150826002028217905092915050565b61380e82612c4a565b67ffffffffffffffff81111561382757613826612d06565b5b6138318254613628565b61383c828285613778565b600060209050601f83116001811461386f576000841561385d578287015190505b61386785826137e9565b8655506138cf565b601f19841661387d86613659565b60005b828110156138a557848901518255600182019150602085019450602081019050613880565b868310156138c257848901516138be601f8916826137cb565b8355505b6001600288020188555050505b505050505050565b7f4552433732313a20617070726f76616c20746f2063757272656e74206f776e6560008201527f7200000000000000000000000000000000000000000000000000000000000000602082015250565b6000613933602183612c55565b915061393e826138d7565b604082019050919050565b6000602082019050818103600083015261396281613926565b9050919050565b7f4552433732313a20617070726f76652063616c6c6572206973206e6f7420746f60008201527f6b656e206f776e6572206f7220617070726f76656420666f7220616c6c000000602082015250565b60006139c5603d83612c55565b91506139d082613969565b604082019050919050565b600060208201905081810360008301526139f4816139b8565b9050919050565b7f4e487b7100000000000000000000000000000000000000000000000000000000600052601160045260246000fd5b60008160011c9050919050565b6000808291508390505b6001851115613a8157808604811115613a5d57613a5c6139fb565b5b6001851615613a6c5780820291505b8081029050613a7a85613a2a565b9450613a41565b94509492505050565b600082613a9a5760019050613b56565b81613aa85760009050613b56565b8160018114613abe5760028114613ac857613af7565b6001915050613b56565b60ff841115613ada57613ad96139fb565b5b8360020a915084821115613af157613af06139fb565b5b50613b56565b5060208310610133831016604e8410600b8410161715613b2c5782820a905083811115613b2757613b266139fb565b5b613b56565b613b398484846001613a37565b92509050818404811115613b5057613b4f6139fb565b5b81810290505b9392505050565b6000613b6882612e7a565b9150613b7383612e7a565b9250613ba07fffffffffffffffffffffffffffffffffffffffffffffffffffffffffffffffff8484613a8a565b905092915050565b6000613bb382612e7a565b9150613bbe83612e7a565b9250828202613bcc81612e7a565b91508282048414831517613be357613be26139fb565b5b5092915050565b7f4e487b7100000000000000000000000000000000000000000000000000000000600052601260045260246000fd5b6000613c2482612e7a565b9150613c2f83612e7a565b925082613c3f57613c3e613bea565b5b828204905092915050565b7f4552433732313a2063616c6c6572206973206e6f7420746f6b656e206f776e6560008201527f72206f7220617070726f76656400000000000000000000000000000000000000602082015250565b6000613ca6602d83612c55565b9150613cb182613c4a565b604082019050919050565b60006020820190508181036000830152613cd581613c99565b9050919050565b6000613ce782612e7a565b9150613cf283612e7a565b9250828203905081811115613d0a57613d096139fb565b5b92915050565b6000613d1b82612e7a565b9150613d2683612e7a565b925082613d3657613d35613bea565b5b828206905092915050565b7f4e6f206d6f726520617661696c61626c65206e66747320746f2070757263686160008201527f7365000000000000000000000000000000000000000000000000000000000000602082015250565b6000613d9d602283612c55565b9150613da882613d41565b604082019050919050565b60006020820190508181036000830152613dcc81613d90565b9050919050565b7f4552433732313a20696e76616c696420746f6b656e2049440000000000000000600082015250565b6000613e09601883612c55565b9150613e1482613dd3565b602082019050919050565b60006020820190508181036000830152613e3881613dfc565b9050919050565b7f4552433732313a2061646472657373207a65726f206973206e6f74206120766160008201527f6c6964206f776e65720000000000000000000000000000000000000000000000602082015250565b6000613e9b602983612c55565b9150613ea682613e3f565b604082019050919050565b60006020820190508181036000830152613eca81613e8e565b9050919050565b600081905092915050565b6000613ee782612c4a565b613ef18185613ed1565b9350613f01818560208601612c66565b80840191505092915050565b6000613f198285613edc565b9150613f258284613edc565b91508190509392505050565b7f4f776e61626c653a206e6577206f776e657220697320746865207a65726f206160008201527f6464726573730000000000000000000000000000000000000000000000000000602082015250565b6000613f8d602683612c55565b9150613f9882613f31565b604082019050919050565b60006020820190508181036000830152613fbc81613f80565b9050919050565b7f4f776e61626c653a2063616c6c6572206973206e6f7420746865206f776e6572600082015250565b6000613ff9602083612c55565b915061400482613fc3565b602082019050919050565b6000602082019050818103600083015261402881613fec565b9050919050565b7f4552433732313a207472616e736665722066726f6d20696e636f72726563742060008201527f6f776e6572000000000000000000000000000000000000000000000000000000602082015250565b600061408b602583612c55565b91506140968261402f565b604082019050919050565b600060208201905081810360008301526140ba8161407e565b9050919050565b7f4552433732313a207472616e7366657220746f20746865207a65726f2061646460008201527f7265737300000000000000000000000000000000000000000000000000000000602082015250565b600061411d602483612c55565b9150614128826140c1565b604082019050919050565b6000602082019050818103600083015261414c81614110565b9050919050565b60006060820190506141686000830186612fa5565b6141756020830185612f0f565b6141826040830184612fa5565b949350505050565b7f4552433732313a20617070726f766520746f2063616c6c657200000000000000600082015250565b60006141c0601983612c55565b91506141cb8261418a565b602082019050919050565b600060208201905081810360008301526141ef816141b3565b9050919050565b7f4552433732313a207472616e7366657220746f206e6f6e20455243373231526560008201527f63656976657220696d706c656d656e7465720000000000000000000000000000602082015250565b6000614252603283612c55565b915061425d826141f6565b604082019050919050565b6000602082019050818103600083015261428181614245565b9050919050565b600081519050919050565b600082825260208201905092915050565b60006142af82614288565b6142b98185614293565b93506142c9818560208601612c66565b6142d281612c90565b840191505092915050565b60006080820190506142f26000830187612f0f565b6142ff6020830186612f0f565b61430c6040830185612fa5565b818103606083015261431e81846142a4565b905095945050505050565b60008151905061433881612bbb565b92915050565b60006020828403121561435457614353612b85565b5b600061436284828501614329565b91505092915050565b7f4552433732313a206d696e7420746f20746865207a65726f2061646472657373600082015250565b60006143a1602083612c55565b91506143ac8261436b565b602082019050919050565b600060208201905081810360008301526143d081614394565b9050919050565b7f4552433732313a20746f6b656e20616c7265616479206d696e74656400000000600082015250565b600061440d601c83612c55565b9150614418826143d7565b602082019050919050565b6000602082019050818103600083015261443c81614400565b905091905056fea26469706673582212206fa22ed1d13fcf3bd365ff806a307c6be0f936917da1115c4b9231b307316fa264736f6c63430008120033516d546b3473506f59796d70746b4b4e5870765341574b54373937473676594a65633257454346584d6d54454552516d5666576b796846694d6861374435416464525038464d543179765a7947435a7352397057317438314158676d",
  "linkReferences": {},
  "deployedLinkReferences": {}
}