{
  "_format": "hh-sol-artifact-1",
  "contractName": "EAvatar",
  "sourceName": "contracts/EAvatar.sol",
  "abi": [
    {
      "inputs": [
        {
          "internalType": "address",
          "name": "bond_issuer",
          "type": "address"
        }
      ],
      "stateMutability": "nonpayable",
      "type": "constructor"
    },
    {
      "anonymous": false,
      "inputs": [
        {
          "indexed": true,
          "internalType": "address",
          "name": "owner",
          "type": "address"
        },
        {
          "indexed": true,
          "internalType": "address",
          "name": "approved",
          "type": "address"
        },
        {
          "indexed": true,
          "internalType": "uint256",
          "name": "tokenId",
          "type": "uint256"
        }
      ],
      "name": "Approval",
      "type": "event"
    },
    {
      "anonymous": false,
      "inputs": [
        {
          "indexed": true,
          "internalType": "address",
          "name": "owner",
          "type": "address"
        },
        {
          "indexed": true,
          "internalType": "address",
          "name": "operator",
          "type": "address"
        },
        {
          "indexed": false,
          "internalType": "bool",
          "name": "approved",
          "type": "bool"
        }
      ],
      "name": "ApprovalForAll",
      "type": "event"
    },
    {
      "anonymous": false,
      "inputs": [
        {
          "indexed": false,
          "internalType": "uint256",
          "name": "_fromTokenId",
          "type": "uint256"
        },
        {
          "indexed": false,
          "internalType": "uint256",
          "name": "_toTokenId",
          "type": "uint256"
        }
      ],
      "name": "BatchMetadataUpdate",
      "type": "event"
    },
    {
      "anonymous": false,
      "inputs": [
        {
          "indexed": false,
          "internalType": "uint256",
          "name": "_tokenId",
          "type": "uint256"
        }
      ],
      "name": "MetadataUpdate",
      "type": "event"
    },
    {
      "anonymous": false,
      "inputs": [
        {
          "indexed": false,
          "internalType": "address",
          "name": "from",
          "type": "address"
        },
        {
          "indexed": false,
          "internalType": "address",
          "name": "to",
          "type": "address"
        },
        {
          "indexed": false,
          "internalType": "uint256",
          "name": "_amount",
          "type": "uint256"
        }
      ],
      "name": "NftBought",
      "type": "event"
    },
    {
      "anonymous": false,
      "inputs": [
        {
          "indexed": true,
          "internalType": "address",
          "name": "previousOwner",
          "type": "address"
        },
        {
          "indexed": true,
          "internalType": "address",
          "name": "newOwner",
          "type": "address"
        }
      ],
      "name": "OwnershipTransferred",
      "type": "event"
    },
    {
      "anonymous": false,
      "inputs": [
        {
          "indexed": true,
          "internalType": "address",
          "name": "from",
          "type": "address"
        },
        {
          "indexed": true,
          "internalType": "address",
          "name": "to",
          "type": "address"
        },
        {
          "indexed": true,
          "internalType": "uint256",
          "name": "tokenId",
          "type": "uint256"
        }
      ],
      "name": "Transfer",
      "type": "event"
    },
    {
      "anonymous": false,
      "inputs": [
        {
          "indexed": false,
          "internalType": "uint256",
          "name": "tokenId",
          "type": "uint256"
        },
        {
          "indexed": false,
          "internalType": "address",
          "name": "owner",
          "type": "address"
        },
        {
          "indexed": false,
          "internalType": "uint256",
          "name": "price",
          "type": "uint256"
        }
      ],
      "name": "nftItemCreated",
      "type": "event"
    },
    {
      "inputs": [
        {
          "internalType": "address",
          "name": "to",
          "type": "address"
        },
        {
          "internalType": "uint256",
          "name": "tokenId",
          "type": "uint256"
        }
      ],
      "name": "approve",
      "outputs": [],
      "stateMutability": "nonpayable",
      "type": "function"
    },
    {
      "inputs": [],
      "name": "availableNFTs",
      "outputs": [
        {
          "internalType": "bool",
          "name": "ans",
          "type": "bool"
        }
      ],
      "stateMutability": "view",
      "type": "function"
    },
    {
      "inputs": [
        {
          "internalType": "address",
          "name": "owner",
          "type": "address"
        }
      ],
      "name": "balanceOf",
      "outputs": [
        {
          "internalType": "uint256",
          "name": "",
          "type": "uint256"
        }
      ],
      "stateMutability": "view",
      "type": "function"
    },
    {
      "inputs": [
        {
          "internalType": "uint256",
          "name": "tokenId",
          "type": "uint256"
        }
      ],
      "name": "getApproved",
      "outputs": [
        {
          "internalType": "address",
          "name": "",
          "type": "address"
        }
      ],
      "stateMutability": "view",
      "type": "function"
    },
    {
      "inputs": [],
      "name": "getBondInfo",
      "outputs": [
        {
          "components": [
            {
              "internalType": "address",
              "name": "bondIssuer",
              "type": "address"
            },
            {
              "internalType": "string",
              "name": "bondName",
              "type": "string"
            },
            {
              "internalType": "uint256",
              "name": "issueDate",
              "type": "uint256"
            },
            {
              "internalType": "uint256",
              "name": "maturityDate",
              "type": "uint256"
            },
            {
              "internalType": "uint256",
              "name": "interestPaymentPercent",
              "type": "uint256"
            },
            {
              "internalType": "uint256",
              "name": "periodOfPayment",
              "type": "uint256"
            },
            {
              "internalType": "uint256",
              "name": "faceValue",
              "type": "uint256"
            },
            {
              "internalType": "uint256",
              "name": "shift",
              "type": "uint256"
            },
            {
              "internalType": "uint256",
              "name": "supply",
              "type": "uint256"
            }
          ],
          "internalType": "struct EAvatar.EBond",
          "name": "bond",
          "type": "tuple"
        }
      ],
      "stateMutability": "view",
      "type": "function"
    },
    {
      "inputs": [],
      "name": "getIssuer",
      "outputs": [
        {
          "internalType": "address",
          "name": "issuer",
          "type": "address"
        }
      ],
      "stateMutability": "view",
      "type": "function"
    },
    {
      "inputs": [],
      "name": "interestPaymentAmount",
      "outputs": [
        {
          "internalType": "uint256",
          "name": "amount",
          "type": "uint256"
        }
      ],
      "stateMutability": "view",
      "type": "function"
    },
    {
      "inputs": [
        {
          "internalType": "address",
          "name": "owner",
          "type": "address"
        },
        {
          "internalType": "address",
          "name": "operator",
          "type": "address"
        }
      ],
      "name": "isApprovedForAll",
      "outputs": [
        {
          "internalType": "bool",
          "name": "",
          "type": "bool"
        }
      ],
      "stateMutability": "view",
      "type": "function"
    },
    {
      "inputs": [
        {
          "internalType": "address",
          "name": "recipient",
          "type": "address"
        },
        {
          "internalType": "string",
          "name": "tokenURI",
          "type": "string"
        },
        {
          "internalType": "uint256",
          "name": "price",
          "type": "uint256"
        }
      ],
      "name": "mintNFT",
      "outputs": [
        {
          "internalType": "uint256",
          "name": "",
          "type": "uint256"
        }
      ],
      "stateMutability": "nonpayable",
      "type": "function"
    },
    {
      "inputs": [],
      "name": "name",
      "outputs": [
        {
          "internalType": "string",
          "name": "",
          "type": "string"
        }
      ],
      "stateMutability": "view",
      "type": "function"
    },
    {
      "inputs": [],
      "name": "owner",
      "outputs": [
        {
          "internalType": "address",
          "name": "",
          "type": "address"
        }
      ],
      "stateMutability": "view",
      "type": "function"
    },
    {
      "inputs": [
        {
          "internalType": "uint256",
          "name": "tokenId",
          "type": "uint256"
        }
      ],
      "name": "ownerOf",
      "outputs": [
        {
          "internalType": "address",
          "name": "",
          "type": "address"
        }
      ],
      "stateMutability": "view",
      "type": "function"
    },
    {
      "inputs": [],
      "name": "renounceOwnership",
      "outputs": [],
      "stateMutability": "nonpayable",
      "type": "function"
    },
    {
      "inputs": [
        {
          "internalType": "address",
          "name": "from",
          "type": "address"
        },
        {
          "internalType": "address",
          "name": "to",
          "type": "address"
        },
        {
          "internalType": "uint256",
          "name": "tokenId",
          "type": "uint256"
        }
      ],
      "name": "safeTransferFrom",
      "outputs": [],
      "stateMutability": "nonpayable",
      "type": "function"
    },
    {
      "inputs": [
        {
          "internalType": "address",
          "name": "from",
          "type": "address"
        },
        {
          "internalType": "address",
          "name": "to",
          "type": "address"
        },
        {
          "internalType": "uint256",
          "name": "tokenId",
          "type": "uint256"
        },
        {
          "internalType": "bytes",
          "name": "data",
          "type": "bytes"
        }
      ],
      "name": "safeTransferFrom",
      "outputs": [],
      "stateMutability": "nonpayable",
      "type": "function"
    },
    {
      "inputs": [
        {
          "internalType": "address",
          "name": "operator",
          "type": "address"
        },
        {
          "internalType": "bool",
          "name": "approved",
          "type": "bool"
        }
      ],
      "name": "setApprovalForAll",
      "outputs": [],
      "stateMutability": "nonpayable",
      "type": "function"
    },
    {
      "inputs": [
        {
          "internalType": "string",
          "name": "baseUri",
          "type": "string"
        }
      ],
      "name": "setBaseURI",
      "outputs": [],
      "stateMutability": "nonpayable",
      "type": "function"
    },
    {
      "inputs": [
        {
          "internalType": "bytes4",
          "name": "interfaceId",
          "type": "bytes4"
        }
      ],
      "name": "supportsInterface",
      "outputs": [
        {
          "internalType": "bool",
          "name": "",
          "type": "bool"
        }
      ],
      "stateMutability": "view",
      "type": "function"
    },
    {
      "inputs": [],
      "name": "symbol",
      "outputs": [
        {
          "internalType": "string",
          "name": "",
          "type": "string"
        }
      ],
      "stateMutability": "view",
      "type": "function"
    },
    {
      "inputs": [
        {
          "internalType": "uint256",
          "name": "tokenId",
          "type": "uint256"
        }
      ],
      "name": "tokenURI",
      "outputs": [
        {
          "internalType": "string",
          "name": "",
          "type": "string"
        }
      ],
      "stateMutability": "view",
      "type": "function"
    },
    {
      "inputs": [
        {
          "internalType": "address",
          "name": "from",
          "type": "address"
        },
        {
          "internalType": "address",
          "name": "to",
          "type": "address"
        },
        {
          "internalType": "uint256",
          "name": "tokenId",
          "type": "uint256"
        }
      ],
      "name": "transferFrom",
      "outputs": [],
      "stateMutability": "nonpayable",
      "type": "function"
    },
    {
      "inputs": [
        {
          "internalType": "address payable",
          "name": "from",
          "type": "address"
        },
        {
          "internalType": "address",
          "name": "to",
          "type": "address"
        },
        {
          "internalType": "uint256",
          "name": "_amount",
          "type": "uint256"
        },
        {
          "internalType": "uint256",
          "name": "tokenId",
          "type": "uint256"
        }
      ],
      "name": "transferNFT",
      "outputs": [],
      "stateMutability": "payable",
      "type": "function"
    },
    {
      "inputs": [
        {
          "internalType": "address",
          "name": "newOwner",
          "type": "address"
        }
      ],
      "name": "transferOwnership",
      "outputs": [],
      "stateMutability": "nonpayable",
      "type": "function"
    }
  ],
  "bytecode": "0x60806040523480156200001157600080fd5b50604051620040783803806200407883398181016040528101906200003791906200036c565b6040518060400160405280600781526020017f45417661746172000000000000000000000000000000000000000000000000008152506040518060400160405280600281526020017f45410000000000000000000000000000000000000000000000000000000000008152508160009081620000b4919062000618565b508060019081620000c6919062000618565b505050620000e9620000dd6200023460201b60201c565b6200023c60201b60201c565b6040518061012001604052808273ffffffffffffffffffffffffffffffffffffffff1681526020016040518060400160405280600a81526020017f452d426f6e64204f6e65000000000000000000000000000000000000000000008152508152602001428152602001636e71188081526020016005815260200162f0c29f8152602001620186a08152602001600281526020016103e8815250600960008201518160000160006101000a81548173ffffffffffffffffffffffffffffffffffffffff021916908373ffffffffffffffffffffffffffffffffffffffff1602179055506020820151816001019081620001e2919062000618565b5060408201518160020155606082015181600301556080820151816004015560a0820151816005015560c0820151816006015560e08201518160070155610100820151816008015590505050620006ff565b600033905090565b6000600760009054906101000a900473ffffffffffffffffffffffffffffffffffffffff16905081600760006101000a81548173ffffffffffffffffffffffffffffffffffffffff021916908373ffffffffffffffffffffffffffffffffffffffff1602179055508173ffffffffffffffffffffffffffffffffffffffff168173ffffffffffffffffffffffffffffffffffffffff167f8be0079c531659141344cd1fd0a4f28419497f9722a3daafe3b4186f6b6457e060405160405180910390a35050565b600080fd5b600073ffffffffffffffffffffffffffffffffffffffff82169050919050565b6000620003348262000307565b9050919050565b620003468162000327565b81146200035257600080fd5b50565b60008151905062000366816200033b565b92915050565b60006020828403121562000385576200038462000302565b5b6000620003958482850162000355565b91505092915050565b600081519050919050565b7f4e487b7100000000000000000000000000000000000000000000000000000000600052604160045260246000fd5b7f4e487b7100000000000000000000000000000000000000000000000000000000600052602260045260246000fd5b600060028204905060018216806200042057607f821691505b602082108103620004365762000435620003d8565b5b50919050565b60008190508160005260206000209050919050565b60006020601f8301049050919050565b600082821b905092915050565b600060088302620004a07fffffffffffffffffffffffffffffffffffffffffffffffffffffffffffffffff8262000461565b620004ac868362000461565b95508019841693508086168417925050509392505050565b6000819050919050565b6000819050919050565b6000620004f9620004f3620004ed84620004c4565b620004ce565b620004c4565b9050919050565b6000819050919050565b6200051583620004d8565b6200052d620005248262000500565b8484546200046e565b825550505050565b600090565b6200054462000535565b620005518184846200050a565b505050565b5b8181101562000579576200056d6000826200053a565b60018101905062000557565b5050565b601f821115620005c85762000592816200043c565b6200059d8462000451565b81016020851015620005ad578190505b620005c5620005bc8562000451565b83018262000556565b50505b505050565b600082821c905092915050565b6000620005ed60001984600802620005cd565b1980831691505092915050565b6000620006088383620005da565b9150826002028217905092915050565b62000623826200039e565b67ffffffffffffffff8111156200063f576200063e620003a9565b5b6200064b825462000407565b620006588282856200057d565b600060209050601f8311600181146200069057600084156200067b578287015190505b620006878582620005fa565b865550620006f7565b601f198416620006a0866200043c565b60005b82811015620006ca57848901518255600182019150602085019450602081019050620006a3565b86831015620006ea5784890151620006e6601f891682620005da565b8355505b6001600288020188555050505b505050505050565b613969806200070f6000396000f3fe6080604052600436106101405760003560e01c80636352211e116100b6578063b88d4fde1161006f578063b88d4fde1461044d578063c87b56dd14610476578063d5070b3e146104b3578063e985e9c5146104de578063ea317fff1461051b578063f2fde38b1461054657610140565b80636352211e1461033d57806370a082311461037a578063715018a6146103b75780638da5cb5b146103ce57806395d89b41146103f9578063a22cb4651461042457610140565b8063095ea7b311610108578063095ea7b3146102435780631ed54e781461026c57806323b872dd1461029757806342842e0e146102c057806352556421146102e957806355f804b31461031457610140565b806301ffc9a71461014557806303ff52b71461018257806306fdde031461019e578063081812fc146101c957806308598df014610206575b600080fd5b34801561015157600080fd5b5061016c6004803603810190610167919061229c565b61056f565b60405161017991906122e4565b60405180910390f35b61019c600480360381019061019791906123d1565b6105d0565b005b3480156101aa57600080fd5b506101b36106a5565b6040516101c091906124c8565b60405180910390f35b3480156101d557600080fd5b506101f060048036038101906101eb91906124ea565b610737565b6040516101fd9190612526565b60405180910390f35b34801561021257600080fd5b5061022d60048036038101906102289190612676565b61077d565b60405161023a91906126f4565b60405180910390f35b34801561024f57600080fd5b5061026a6004803603810190610265919061270f565b6107c9565b005b34801561027857600080fd5b506102816108e0565b60405161028e91906126f4565b60405180910390f35b3480156102a357600080fd5b506102be60048036038101906102b9919061274f565b6108e5565b005b3480156102cc57600080fd5b506102e760048036038101906102e2919061274f565b610945565b005b3480156102f557600080fd5b506102fe610965565b60405161030b9190612526565b60405180910390f35b34801561032057600080fd5b5061033b60048036038101906103369190612802565b610992565b005b34801561034957600080fd5b50610364600480360381019061035f91906124ea565b6109b0565b6040516103719190612526565b60405180910390f35b34801561038657600080fd5b506103a1600480360381019061039c919061284f565b610a36565b6040516103ae91906126f4565b60405180910390f35b3480156103c357600080fd5b506103cc610aed565b005b3480156103da57600080fd5b506103e3610b01565b6040516103f09190612526565b60405180910390f35b34801561040557600080fd5b5061040e610b2b565b60405161041b91906124c8565b60405180910390f35b34801561043057600080fd5b5061044b600480360381019061044691906128a8565b610bbd565b005b34801561045957600080fd5b50610474600480360381019061046f9190612989565b610bd3565b005b34801561048257600080fd5b5061049d600480360381019061049891906124ea565b610c35565b6040516104aa91906124c8565b60405180910390f35b3480156104bf57600080fd5b506104c8610d47565b6040516104d59190612b39565b60405180910390f35b3480156104ea57600080fd5b5061050560048036038101906105009190612b5b565b610e90565b60405161051291906122e4565b60405180910390f35b34801561052757600080fd5b50610530610f24565b60405161053d91906122e4565b60405180910390f35b34801561055257600080fd5b5061056d6004803603810190610568919061284f565b610f33565b005b6000634906490660e01b7bffffffffffffffffffffffffffffffffffffffffffffffffffffffff1916827bffffffffffffffffffffffffffffffffffffffffffffffffffffffff191614806105c957506105c882610fb6565b5b9050919050565b813414610612576040517f08c379a000000000000000000000000000000000000000000000000000000000815260040161060990612be7565b60405180910390fd5b61061d848483610945565b8373ffffffffffffffffffffffffffffffffffffffff166108fc349081150290604051600060405180830381858888f19350505050158015610663573d6000803e3d6000fd5b507f608f6ac9327c2bf4d3c77adf447d2c448ba7b0971e0aaa9aa03f7ac29d874a4484333460405161069793929190612c66565b60405180910390a150505050565b6060600080546106b490612ccc565b80601f01602080910402602001604051908101604052809291908181526020018280546106e090612ccc565b801561072d5780601f106107025761010080835404028352916020019161072d565b820191906000526020600020905b81548152906001019060200180831161071057829003601f168201915b5050505050905090565b600061074282611098565b6004600083815260200190815260200160002060009054906101000a900473ffffffffffffffffffffffffffffffffffffffff169050919050565b60006107876110e3565b6107916008611161565b600061079d6008611177565b90506107a98582611185565b6107b381856113a2565b6107be818487611446565b809150509392505050565b60006107d4826109b0565b90508073ffffffffffffffffffffffffffffffffffffffff168373ffffffffffffffffffffffffffffffffffffffff1603610844576040517f08c379a000000000000000000000000000000000000000000000000000000000815260040161083b90612d6f565b60405180910390fd5b8073ffffffffffffffffffffffffffffffffffffffff16610863611538565b73ffffffffffffffffffffffffffffffffffffffff16148061089257506108918161088c611538565b610e90565b5b6108d1576040517f08c379a00000000000000000000000000000000000000000000000000000000081526004016108c890612e01565b60405180910390fd5b6108db8383611540565b505050565b600090565b6108f66108f0611538565b826115f9565b610935576040517f08c379a000000000000000000000000000000000000000000000000000000000815260040161092c90612e93565b60405180910390fd5b61094083838361168e565b505050565b61096083838360405180602001604052806000815250610bd3565b505050565b6000600960000160009054906101000a900473ffffffffffffffffffffffffffffffffffffffff16905090565b61099a6110e3565b8181601391826109ab929190613060565b505050565b6000806109bc83611987565b9050600073ffffffffffffffffffffffffffffffffffffffff168173ffffffffffffffffffffffffffffffffffffffff1603610a2d576040517f08c379a0000000000000000000000000000000000000000000000000000000008152600401610a249061317c565b60405180910390fd5b80915050919050565b60008073ffffffffffffffffffffffffffffffffffffffff168273ffffffffffffffffffffffffffffffffffffffff1603610aa6576040517f08c379a0000000000000000000000000000000000000000000000000000000008152600401610a9d9061320e565b60405180910390fd5b600360008373ffffffffffffffffffffffffffffffffffffffff1673ffffffffffffffffffffffffffffffffffffffff168152602001908152602001600020549050919050565b610af56110e3565b610aff60006119c4565b565b6000600760009054906101000a900473ffffffffffffffffffffffffffffffffffffffff16905090565b606060018054610b3a90612ccc565b80601f0160208091040260200160405190810160405280929190818152602001828054610b6690612ccc565b8015610bb35780601f10610b8857610100808354040283529160200191610bb3565b820191906000526020600020905b815481529060010190602001808311610b9657829003601f168201915b5050505050905090565b610bcf610bc8611538565b8383611a8a565b5050565b610be4610bde611538565b836115f9565b610c23576040517f08c379a0000000000000000000000000000000000000000000000000000000008152600401610c1a90612e93565b60405180910390fd5b610c2f84848484611bf6565b50505050565b6060610c4082611098565b6000600660008481526020019081526020016000208054610c6090612ccc565b80601f0160208091040260200160405190810160405280929190818152602001828054610c8c90612ccc565b8015610cd95780601f10610cae57610100808354040283529160200191610cd9565b820191906000526020600020905b815481529060010190602001808311610cbc57829003601f168201915b505050505090506000610cea611c52565b90506000815103610cff578192505050610d42565b600082511115610d34578082604051602001610d1c92919061326a565b60405160208183030381529060405292505050610d42565b610d3d84611ce4565b925050505b919050565b610d4f6121ce565b6009604051806101200160405290816000820160009054906101000a900473ffffffffffffffffffffffffffffffffffffffff1673ffffffffffffffffffffffffffffffffffffffff1673ffffffffffffffffffffffffffffffffffffffff168152602001600182018054610dc390612ccc565b80601f0160208091040260200160405190810160405280929190818152602001828054610def90612ccc565b8015610e3c5780601f10610e1157610100808354040283529160200191610e3c565b820191906000526020600020905b815481529060010190602001808311610e1f57829003601f168201915b50505050508152602001600282015481526020016003820154815260200160048201548152602001600582015481526020016006820154815260200160078201548152602001600882015481525050905090565b6000600560008473ffffffffffffffffffffffffffffffffffffffff1673ffffffffffffffffffffffffffffffffffffffff16815260200190815260200160002060008373ffffffffffffffffffffffffffffffffffffffff1673ffffffffffffffffffffffffffffffffffffffff16815260200190815260200160002060009054906101000a900460ff16905092915050565b60008060096008015411905090565b610f3b6110e3565b600073ffffffffffffffffffffffffffffffffffffffff168173ffffffffffffffffffffffffffffffffffffffff1603610faa576040517f08c379a0000000000000000000000000000000000000000000000000000000008152600401610fa190613300565b60405180910390fd5b610fb3816119c4565b50565b60007f80ac58cd000000000000000000000000000000000000000000000000000000007bffffffffffffffffffffffffffffffffffffffffffffffffffffffff1916827bffffffffffffffffffffffffffffffffffffffffffffffffffffffff1916148061108157507f5b5e139f000000000000000000000000000000000000000000000000000000007bffffffffffffffffffffffffffffffffffffffffffffffffffffffff1916827bffffffffffffffffffffffffffffffffffffffffffffffffffffffff1916145b80611091575061109082611d4c565b5b9050919050565b6110a181611db6565b6110e0576040517f08c379a00000000000000000000000000000000000000000000000000000000081526004016110d79061317c565b60405180910390fd5b50565b6110eb611538565b73ffffffffffffffffffffffffffffffffffffffff16611109610b01565b73ffffffffffffffffffffffffffffffffffffffff161461115f576040517f08c379a00000000000000000000000000000000000000000000000000000000081526004016111569061336c565b60405180910390fd5b565b6001816000016000828254019250508190555050565b600081600001549050919050565b600073ffffffffffffffffffffffffffffffffffffffff168273ffffffffffffffffffffffffffffffffffffffff16036111f4576040517f08c379a00000000000000000000000000000000000000000000000000000000081526004016111eb906133d8565b60405180910390fd5b6111fd81611db6565b1561123d576040517f08c379a000000000000000000000000000000000000000000000000000000000815260040161123490613444565b60405180910390fd5b61124b600083836001611df7565b61125481611db6565b15611294576040517f08c379a000000000000000000000000000000000000000000000000000000000815260040161128b90613444565b60405180910390fd5b6001600360008473ffffffffffffffffffffffffffffffffffffffff1673ffffffffffffffffffffffffffffffffffffffff16815260200190815260200160002060008282540192505081905550816002600083815260200190815260200160002060006101000a81548173ffffffffffffffffffffffffffffffffffffffff021916908373ffffffffffffffffffffffffffffffffffffffff160217905550808273ffffffffffffffffffffffffffffffffffffffff16600073ffffffffffffffffffffffffffffffffffffffff167fddf252ad1be2c89b69c2b068fc378daa952ba7f163c4a11628f55a4df523b3ef60405160405180910390a461139e600083836001611dfd565b5050565b6113ab82611db6565b6113ea576040517f08c379a00000000000000000000000000000000000000000000000000000000081526004016113e1906134d6565b60405180910390fd5b8060066000848152602001908152602001600020908161140a91906134f6565b507ff8e1a15aba9398e019f0b49df1a4fde98ee17ae345cb5f6b5e2c27f5033e8ce78260405161143a91906126f4565b60405180910390a15050565b60405180608001604052808481526020014281526020018381526020018273ffffffffffffffffffffffffffffffffffffffff168152506012600085815260200190815260200160002060008201518160000155602082015181600101556040820151816002015560608201518160030160006101000a81548173ffffffffffffffffffffffffffffffffffffffff021916908373ffffffffffffffffffffffffffffffffffffffff1602179055509050507f42e22845cdfee2da8f8e56b8d8f9807a12fd6906d54b388fe7ec9d2329e70b3e83828460405161152b939291906135c8565b60405180910390a1505050565b600033905090565b816004600083815260200190815260200160002060006101000a81548173ffffffffffffffffffffffffffffffffffffffff021916908373ffffffffffffffffffffffffffffffffffffffff160217905550808273ffffffffffffffffffffffffffffffffffffffff166115b3836109b0565b73ffffffffffffffffffffffffffffffffffffffff167f8c5be1e5ebec7d5bd14f71427d1e84f3dd0314c0f7b2291e5b200ac8c7c3b92560405160405180910390a45050565b600080611605836109b0565b90508073ffffffffffffffffffffffffffffffffffffffff168473ffffffffffffffffffffffffffffffffffffffff16148061164757506116468185610e90565b5b8061168557508373ffffffffffffffffffffffffffffffffffffffff1661166d84610737565b73ffffffffffffffffffffffffffffffffffffffff16145b91505092915050565b8273ffffffffffffffffffffffffffffffffffffffff166116ae826109b0565b73ffffffffffffffffffffffffffffffffffffffff1614611704576040517f08c379a00000000000000000000000000000000000000000000000000000000081526004016116fb90613671565b60405180910390fd5b600073ffffffffffffffffffffffffffffffffffffffff168273ffffffffffffffffffffffffffffffffffffffff1603611773576040517f08c379a000000000000000000000000000000000000000000000000000000000815260040161176a90613703565b60405180910390fd5b6117808383836001611df7565b8273ffffffffffffffffffffffffffffffffffffffff166117a0826109b0565b73ffffffffffffffffffffffffffffffffffffffff16146117f6576040517f08c379a00000000000000000000000000000000000000000000000000000000081526004016117ed90613671565b60405180910390fd5b6004600082815260200190815260200160002060006101000a81549073ffffffffffffffffffffffffffffffffffffffff02191690556001600360008573ffffffffffffffffffffffffffffffffffffffff1673ffffffffffffffffffffffffffffffffffffffff168152602001908152602001600020600082825403925050819055506001600360008473ffffffffffffffffffffffffffffffffffffffff1673ffffffffffffffffffffffffffffffffffffffff16815260200190815260200160002060008282540192505081905550816002600083815260200190815260200160002060006101000a81548173ffffffffffffffffffffffffffffffffffffffff021916908373ffffffffffffffffffffffffffffffffffffffff160217905550808273ffffffffffffffffffffffffffffffffffffffff168473ffffffffffffffffffffffffffffffffffffffff167fddf252ad1be2c89b69c2b068fc378daa952ba7f163c4a11628f55a4df523b3ef60405160405180910390a46119828383836001611dfd565b505050565b60006002600083815260200190815260200160002060009054906101000a900473ffffffffffffffffffffffffffffffffffffffff169050919050565b6000600760009054906101000a900473ffffffffffffffffffffffffffffffffffffffff16905081600760006101000a81548173ffffffffffffffffffffffffffffffffffffffff021916908373ffffffffffffffffffffffffffffffffffffffff1602179055508173ffffffffffffffffffffffffffffffffffffffff168173ffffffffffffffffffffffffffffffffffffffff167f8be0079c531659141344cd1fd0a4f28419497f9722a3daafe3b4186f6b6457e060405160405180910390a35050565b8173ffffffffffffffffffffffffffffffffffffffff168373ffffffffffffffffffffffffffffffffffffffff1603611af8576040517f08c379a0000000000000000000000000000000000000000000000000000000008152600401611aef9061376f565b60405180910390fd5b80600560008573ffffffffffffffffffffffffffffffffffffffff1673ffffffffffffffffffffffffffffffffffffffff16815260200190815260200160002060008473ffffffffffffffffffffffffffffffffffffffff1673ffffffffffffffffffffffffffffffffffffffff16815260200190815260200160002060006101000a81548160ff0219169083151502179055508173ffffffffffffffffffffffffffffffffffffffff168373ffffffffffffffffffffffffffffffffffffffff167f17307eab39ab6107e8899845ad3d59bd9653f200f220920489ca2b5937696c3183604051611be991906122e4565b60405180910390a3505050565b611c0184848461168e565b611c0d84848484611e03565b611c4c576040517f08c379a0000000000000000000000000000000000000000000000000000000008152600401611c4390613801565b60405180910390fd5b50505050565b606060138054611c6190612ccc565b80601f0160208091040260200160405190810160405280929190818152602001828054611c8d90612ccc565b8015611cda5780601f10611caf57610100808354040283529160200191611cda565b820191906000526020600020905b815481529060010190602001808311611cbd57829003601f168201915b5050505050905090565b6060611cef82611098565b6000611cf9611c52565b90506000815111611d195760405180602001604052806000815250611d44565b80611d2384611f8a565b604051602001611d3492919061326a565b6040516020818303038152906040525b915050919050565b60007f01ffc9a7000000000000000000000000000000000000000000000000000000007bffffffffffffffffffffffffffffffffffffffffffffffffffffffff1916827bffffffffffffffffffffffffffffffffffffffffffffffffffffffff1916149050919050565b60008073ffffffffffffffffffffffffffffffffffffffff16611dd883611987565b73ffffffffffffffffffffffffffffffffffffffff1614159050919050565b50505050565b50505050565b6000611e248473ffffffffffffffffffffffffffffffffffffffff16612058565b15611f7d578373ffffffffffffffffffffffffffffffffffffffff1663150b7a02611e4d611538565b8786866040518563ffffffff1660e01b8152600401611e6f9493929190613876565b6020604051808303816000875af1925050508015611eab57506040513d601f19601f82011682018060405250810190611ea891906138d7565b60015b611f2d573d8060008114611edb576040519150601f19603f3d011682016040523d82523d6000602084013e611ee0565b606091505b506000815103611f25576040517f08c379a0000000000000000000000000000000000000000000000000000000008152600401611f1c90613801565b60405180910390fd5b805181602001fd5b63150b7a0260e01b7bffffffffffffffffffffffffffffffffffffffffffffffffffffffff1916817bffffffffffffffffffffffffffffffffffffffffffffffffffffffff191614915050611f82565b600190505b949350505050565b606060006001611f998461207b565b01905060008167ffffffffffffffff811115611fb857611fb761254b565b5b6040519080825280601f01601f191660200182016040528015611fea5781602001600182028036833780820191505090505b509050600082602001820190505b60011561204d578080600190039150507f3031323334353637383961626364656600000000000000000000000000000000600a86061a8153600a858161204157612040613904565b5b04945060008503611ff8575b819350505050919050565b6000808273ffffffffffffffffffffffffffffffffffffffff163b119050919050565b600080600090507a184f03e93ff9f4daa797ed6e38ed64bf6a1f01000000000000000083106120d9577a184f03e93ff9f4daa797ed6e38ed64bf6a1f01000000000000000083816120cf576120ce613904565b5b0492506040810190505b6d04ee2d6d415b85acef81000000008310612116576d04ee2d6d415b85acef8100000000838161210c5761210b613904565b5b0492506020810190505b662386f26fc10000831061214557662386f26fc10000838161213b5761213a613904565b5b0492506010810190505b6305f5e100831061216e576305f5e100838161216457612163613904565b5b0492506008810190505b612710831061219357612710838161218957612188613904565b5b0492506004810190505b606483106121b657606483816121ac576121ab613904565b5b0492506002810190505b600a83106121c5576001810190505b80915050919050565b604051806101200160405280600073ffffffffffffffffffffffffffffffffffffffff16815260200160608152602001600081526020016000815260200160008152602001600081526020016000815260200160008152602001600081525090565b6000604051905090565b600080fd5b600080fd5b60007fffffffff0000000000000000000000000000000000000000000000000000000082169050919050565b61227981612244565b811461228457600080fd5b50565b60008135905061229681612270565b92915050565b6000602082840312156122b2576122b161223a565b5b60006122c084828501612287565b91505092915050565b60008115159050919050565b6122de816122c9565b82525050565b60006020820190506122f960008301846122d5565b92915050565b600073ffffffffffffffffffffffffffffffffffffffff82169050919050565b600061232a826122ff565b9050919050565b61233a8161231f565b811461234557600080fd5b50565b60008135905061235781612331565b92915050565b6000612368826122ff565b9050919050565b6123788161235d565b811461238357600080fd5b50565b6000813590506123958161236f565b92915050565b6000819050919050565b6123ae8161239b565b81146123b957600080fd5b50565b6000813590506123cb816123a5565b92915050565b600080600080608085870312156123eb576123ea61223a565b5b60006123f987828801612348565b945050602061240a87828801612386565b935050604061241b878288016123bc565b925050606061242c878288016123bc565b91505092959194509250565b600081519050919050565b600082825260208201905092915050565b60005b83811015612472578082015181840152602081019050612457565b60008484015250505050565b6000601f19601f8301169050919050565b600061249a82612438565b6124a48185612443565b93506124b4818560208601612454565b6124bd8161247e565b840191505092915050565b600060208201905081810360008301526124e2818461248f565b905092915050565b600060208284031215612500576124ff61223a565b5b600061250e848285016123bc565b91505092915050565b6125208161235d565b82525050565b600060208201905061253b6000830184612517565b92915050565b600080fd5b600080fd5b7f4e487b7100000000000000000000000000000000000000000000000000000000600052604160045260246000fd5b6125838261247e565b810181811067ffffffffffffffff821117156125a2576125a161254b565b5b80604052505050565b60006125b5612230565b90506125c1828261257a565b919050565b600067ffffffffffffffff8211156125e1576125e061254b565b5b6125ea8261247e565b9050602081019050919050565b82818337600083830152505050565b6000612619612614846125c6565b6125ab565b90508281526020810184848401111561263557612634612546565b5b6126408482856125f7565b509392505050565b600082601f83011261265d5761265c612541565b5b813561266d848260208601612606565b91505092915050565b60008060006060848603121561268f5761268e61223a565b5b600061269d86828701612386565b935050602084013567ffffffffffffffff8111156126be576126bd61223f565b5b6126ca86828701612648565b92505060406126db868287016123bc565b9150509250925092565b6126ee8161239b565b82525050565b600060208201905061270960008301846126e5565b92915050565b600080604083850312156127265761272561223a565b5b600061273485828601612386565b9250506020612745858286016123bc565b9150509250929050565b6000806000606084860312156127685761276761223a565b5b600061277686828701612386565b935050602061278786828701612386565b9250506040612798868287016123bc565b9150509250925092565b600080fd5b600080fd5b60008083601f8401126127c2576127c1612541565b5b8235905067ffffffffffffffff8111156127df576127de6127a2565b5b6020830191508360018202830111156127fb576127fa6127a7565b5b9250929050565b600080602083850312156128195761281861223a565b5b600083013567ffffffffffffffff8111156128375761283661223f565b5b612843858286016127ac565b92509250509250929050565b6000602082840312156128655761286461223a565b5b600061287384828501612386565b91505092915050565b612885816122c9565b811461289057600080fd5b50565b6000813590506128a28161287c565b92915050565b600080604083850312156128bf576128be61223a565b5b60006128cd85828601612386565b92505060206128de85828601612893565b9150509250929050565b600067ffffffffffffffff8211156129035761290261254b565b5b61290c8261247e565b9050602081019050919050565b600061292c612927846128e8565b6125ab565b90508281526020810184848401111561294857612947612546565b5b6129538482856125f7565b509392505050565b600082601f8301126129705761296f612541565b5b8135612980848260208601612919565b91505092915050565b600080600080608085870312156129a3576129a261223a565b5b60006129b187828801612386565b94505060206129c287828801612386565b93505060406129d3878288016123bc565b925050606085013567ffffffffffffffff8111156129f4576129f361223f565b5b612a008782880161295b565b91505092959194509250565b612a158161235d565b82525050565b600082825260208201905092915050565b6000612a3782612438565b612a418185612a1b565b9350612a51818560208601612454565b612a5a8161247e565b840191505092915050565b612a6e8161239b565b82525050565b600061012083016000830151612a8d6000860182612a0c565b5060208301518482036020860152612aa58282612a2c565b9150506040830151612aba6040860182612a65565b506060830151612acd6060860182612a65565b506080830151612ae06080860182612a65565b5060a0830151612af360a0860182612a65565b5060c0830151612b0660c0860182612a65565b5060e0830151612b1960e0860182612a65565b50610100830151612b2e610100860182612a65565b508091505092915050565b60006020820190508181036000830152612b538184612a74565b905092915050565b60008060408385031215612b7257612b7161223a565b5b6000612b8085828601612386565b9250506020612b9185828601612386565b9150509250929050565b7f496e636f72726563742076616c75650000000000000000000000000000000000600082015250565b6000612bd1600f83612443565b9150612bdc82612b9b565b602082019050919050565b60006020820190508181036000830152612c0081612bc4565b9050919050565b6000819050919050565b6000612c2c612c27612c22846122ff565b612c07565b6122ff565b9050919050565b6000612c3e82612c11565b9050919050565b6000612c5082612c33565b9050919050565b612c6081612c45565b82525050565b6000606082019050612c7b6000830186612c57565b612c886020830185612517565b612c9560408301846126e5565b949350505050565b7f4e487b7100000000000000000000000000000000000000000000000000000000600052602260045260246000fd5b60006002820490506001821680612ce457607f821691505b602082108103612cf757612cf6612c9d565b5b50919050565b7f4552433732313a20617070726f76616c20746f2063757272656e74206f776e6560008201527f7200000000000000000000000000000000000000000000000000000000000000602082015250565b6000612d59602183612443565b9150612d6482612cfd565b604082019050919050565b60006020820190508181036000830152612d8881612d4c565b9050919050565b7f4552433732313a20617070726f76652063616c6c6572206973206e6f7420746f60008201527f6b656e206f776e6572206f7220617070726f76656420666f7220616c6c000000602082015250565b6000612deb603d83612443565b9150612df682612d8f565b604082019050919050565b60006020820190508181036000830152612e1a81612dde565b9050919050565b7f4552433732313a2063616c6c6572206973206e6f7420746f6b656e206f776e6560008201527f72206f7220617070726f76656400000000000000000000000000000000000000602082015250565b6000612e7d602d83612443565b9150612e8882612e21565b604082019050919050565b60006020820190508181036000830152612eac81612e70565b9050919050565b600082905092915050565b60008190508160005260206000209050919050565b60006020601f8301049050919050565b600082821b905092915050565b600060088302612f207fffffffffffffffffffffffffffffffffffffffffffffffffffffffffffffffff82612ee3565b612f2a8683612ee3565b95508019841693508086168417925050509392505050565b6000612f5d612f58612f538461239b565b612c07565b61239b565b9050919050565b6000819050919050565b612f7783612f42565b612f8b612f8382612f64565b848454612ef0565b825550505050565b600090565b612fa0612f93565b612fab818484612f6e565b505050565b5b81811015612fcf57612fc4600082612f98565b600181019050612fb1565b5050565b601f82111561301457612fe581612ebe565b612fee84612ed3565b81016020851015612ffd578190505b61301161300985612ed3565b830182612fb0565b50505b505050565b600082821c905092915050565b600061303760001984600802613019565b1980831691505092915050565b60006130508383613026565b9150826002028217905092915050565b61306a8383612eb3565b67ffffffffffffffff8111156130835761308261254b565b5b61308d8254612ccc565b613098828285612fd3565b6000601f8311600181146130c757600084156130b5578287013590505b6130bf8582613044565b865550613127565b601f1984166130d586612ebe565b60005b828110156130fd578489013582556001820191506020850194506020810190506130d8565b8683101561311a5784890135613116601f891682613026565b8355505b6001600288020188555050505b50505050505050565b7f4552433732313a20696e76616c696420746f6b656e2049440000000000000000600082015250565b6000613166601883612443565b915061317182613130565b602082019050919050565b6000602082019050818103600083015261319581613159565b9050919050565b7f4552433732313a2061646472657373207a65726f206973206e6f74206120766160008201527f6c6964206f776e65720000000000000000000000000000000000000000000000602082015250565b60006131f8602983612443565b91506132038261319c565b604082019050919050565b60006020820190508181036000830152613227816131eb565b9050919050565b600081905092915050565b600061324482612438565b61324e818561322e565b935061325e818560208601612454565b80840191505092915050565b60006132768285613239565b91506132828284613239565b91508190509392505050565b7f4f776e61626c653a206e6577206f776e657220697320746865207a65726f206160008201527f6464726573730000000000000000000000000000000000000000000000000000602082015250565b60006132ea602683612443565b91506132f58261328e565b604082019050919050565b60006020820190508181036000830152613319816132dd565b9050919050565b7f4f776e61626c653a2063616c6c6572206973206e6f7420746865206f776e6572600082015250565b6000613356602083612443565b915061336182613320565b602082019050919050565b6000602082019050818103600083015261338581613349565b9050919050565b7f4552433732313a206d696e7420746f20746865207a65726f2061646472657373600082015250565b60006133c2602083612443565b91506133cd8261338c565b602082019050919050565b600060208201905081810360008301526133f1816133b5565b9050919050565b7f4552433732313a20746f6b656e20616c7265616479206d696e74656400000000600082015250565b600061342e601c83612443565b9150613439826133f8565b602082019050919050565b6000602082019050818103600083015261345d81613421565b9050919050565b7f45524337323155524953746f726167653a2055524920736574206f66206e6f6e60008201527f6578697374656e7420746f6b656e000000000000000000000000000000000000602082015250565b60006134c0602e83612443565b91506134cb82613464565b604082019050919050565b600060208201905081810360008301526134ef816134b3565b9050919050565b6134ff82612438565b67ffffffffffffffff8111156135185761351761254b565b5b6135228254612ccc565b61352d828285612fd3565b600060209050601f831160018114613560576000841561354e578287015190505b6135588582613044565b8655506135c0565b601f19841661356e86612ebe565b60005b8281101561359657848901518255600182019150602085019450602081019050613571565b868310156135b357848901516135af601f891682613026565b8355505b6001600288020188555050505b505050505050565b60006060820190506135dd60008301866126e5565b6135ea6020830185612517565b6135f760408301846126e5565b949350505050565b7f4552433732313a207472616e736665722066726f6d20696e636f72726563742060008201527f6f776e6572000000000000000000000000000000000000000000000000000000602082015250565b600061365b602583612443565b9150613666826135ff565b604082019050919050565b6000602082019050818103600083015261368a8161364e565b9050919050565b7f4552433732313a207472616e7366657220746f20746865207a65726f2061646460008201527f7265737300000000000000000000000000000000000000000000000000000000602082015250565b60006136ed602483612443565b91506136f882613691565b604082019050919050565b6000602082019050818103600083015261371c816136e0565b9050919050565b7f4552433732313a20617070726f766520746f2063616c6c657200000000000000600082015250565b6000613759601983612443565b915061376482613723565b602082019050919050565b600060208201905081810360008301526137888161374c565b9050919050565b7f4552433732313a207472616e7366657220746f206e6f6e20455243373231526560008201527f63656976657220696d706c656d656e7465720000000000000000000000000000602082015250565b60006137eb603283612443565b91506137f68261378f565b604082019050919050565b6000602082019050818103600083015261381a816137de565b9050919050565b600081519050919050565b600082825260208201905092915050565b600061384882613821565b613852818561382c565b9350613862818560208601612454565b61386b8161247e565b840191505092915050565b600060808201905061388b6000830187612517565b6138986020830186612517565b6138a560408301856126e5565b81810360608301526138b7818461383d565b905095945050505050565b6000815190506138d181612270565b92915050565b6000602082840312156138ed576138ec61223a565b5b60006138fb848285016138c2565b91505092915050565b7f4e487b7100000000000000000000000000000000000000000000000000000000600052601260045260246000fdfea2646970667358221220a3bf183d8e0f685dc70f6d9598173a81554dfc12b13d4511d5595885530931d964736f6c63430008120033",
  "linkReferences": {},
  "deployedLinkReferences": {}
}