{
  "_format": "hh-sol-artifact-1",
  "contractName": "EAvatar",
  "sourceName": "contracts/EAvatar.sol",
  "abi": [
    {
      "inputs": [
        {
          "internalType": "address",
          "name": "bond_issuer",
          "type": "address"
        }
      ],
      "stateMutability": "nonpayable",
      "type": "constructor"
    },
    {
      "anonymous": false,
      "inputs": [
        {
          "indexed": true,
          "internalType": "address",
          "name": "owner",
          "type": "address"
        },
        {
          "indexed": true,
          "internalType": "address",
          "name": "approved",
          "type": "address"
        },
        {
          "indexed": true,
          "internalType": "uint256",
          "name": "tokenId",
          "type": "uint256"
        }
      ],
      "name": "Approval",
      "type": "event"
    },
    {
      "anonymous": false,
      "inputs": [
        {
          "indexed": true,
          "internalType": "address",
          "name": "owner",
          "type": "address"
        },
        {
          "indexed": true,
          "internalType": "address",
          "name": "operator",
          "type": "address"
        },
        {
          "indexed": false,
          "internalType": "bool",
          "name": "approved",
          "type": "bool"
        }
      ],
      "name": "ApprovalForAll",
      "type": "event"
    },
    {
      "anonymous": false,
      "inputs": [
        {
          "indexed": false,
          "internalType": "uint256",
          "name": "_fromTokenId",
          "type": "uint256"
        },
        {
          "indexed": false,
          "internalType": "uint256",
          "name": "_toTokenId",
          "type": "uint256"
        }
      ],
      "name": "BatchMetadataUpdate",
      "type": "event"
    },
    {
      "anonymous": false,
      "inputs": [
        {
          "indexed": false,
          "internalType": "uint256",
          "name": "_tokenId",
          "type": "uint256"
        }
      ],
      "name": "MetadataUpdate",
      "type": "event"
    },
    {
      "anonymous": false,
      "inputs": [
        {
          "indexed": true,
          "internalType": "address",
          "name": "previousOwner",
          "type": "address"
        },
        {
          "indexed": true,
          "internalType": "address",
          "name": "newOwner",
          "type": "address"
        }
      ],
      "name": "OwnershipTransferred",
      "type": "event"
    },
    {
      "anonymous": false,
      "inputs": [
        {
          "indexed": true,
          "internalType": "address",
          "name": "from",
          "type": "address"
        },
        {
          "indexed": true,
          "internalType": "address",
          "name": "to",
          "type": "address"
        },
        {
          "indexed": true,
          "internalType": "uint256",
          "name": "tokenId",
          "type": "uint256"
        }
      ],
      "name": "Transfer",
      "type": "event"
    },
    {
      "anonymous": false,
      "inputs": [
        {
          "indexed": false,
          "internalType": "uint256",
          "name": "tokenId",
          "type": "uint256"
        },
        {
          "indexed": false,
          "internalType": "address",
          "name": "owner",
          "type": "address"
        },
        {
          "indexed": false,
          "internalType": "uint256",
          "name": "price",
          "type": "uint256"
        }
      ],
      "name": "nftItemCreated",
      "type": "event"
    },
    {
      "inputs": [
        {
          "internalType": "address",
          "name": "to",
          "type": "address"
        },
        {
          "internalType": "uint256",
          "name": "tokenId",
          "type": "uint256"
        }
      ],
      "name": "approve",
      "outputs": [],
      "stateMutability": "nonpayable",
      "type": "function"
    },
    {
      "inputs": [],
      "name": "availableNFTs",
      "outputs": [
        {
          "internalType": "bool",
          "name": "ans",
          "type": "bool"
        }
      ],
      "stateMutability": "view",
      "type": "function"
    },
    {
      "inputs": [
        {
          "internalType": "address",
          "name": "owner",
          "type": "address"
        }
      ],
      "name": "balanceOf",
      "outputs": [
        {
          "internalType": "uint256",
          "name": "",
          "type": "uint256"
        }
      ],
      "stateMutability": "view",
      "type": "function"
    },
    {
      "inputs": [],
      "name": "bondMatureAmount",
      "outputs": [
        {
          "internalType": "uint256",
          "name": "amount",
          "type": "uint256"
        }
      ],
      "stateMutability": "view",
      "type": "function"
    },
    {
      "inputs": [],
      "name": "calculateAccruedInterest",
      "outputs": [
        {
          "internalType": "uint256",
          "name": "",
          "type": "uint256"
        }
      ],
      "stateMutability": "view",
      "type": "function"
    },
    {
      "inputs": [
        {
          "internalType": "uint256",
          "name": "tokenId",
          "type": "uint256"
        },
        {
          "internalType": "address",
          "name": "owner",
          "type": "address"
        },
        {
          "internalType": "string",
          "name": "name",
          "type": "string"
        }
      ],
      "name": "changeCharacterName",
      "outputs": [],
      "stateMutability": "view",
      "type": "function"
    },
    {
      "inputs": [
        {
          "internalType": "uint256",
          "name": "tokenId",
          "type": "uint256"
        },
        {
          "internalType": "uint8",
          "name": "increase",
          "type": "uint8"
        }
      ],
      "name": "changeLevel",
      "outputs": [
        {
          "internalType": "uint8",
          "name": "newLevel",
          "type": "uint8"
        }
      ],
      "stateMutability": "nonpayable",
      "type": "function"
    },
    {
      "inputs": [
        {
          "internalType": "uint256",
          "name": "tokenId",
          "type": "uint256"
        }
      ],
      "name": "getApproved",
      "outputs": [
        {
          "internalType": "address",
          "name": "",
          "type": "address"
        }
      ],
      "stateMutability": "view",
      "type": "function"
    },
    {
      "inputs": [],
      "name": "getBondInfo",
      "outputs": [
        {
          "components": [
            {
              "internalType": "address",
              "name": "bondIssuer",
              "type": "address"
            },
            {
              "internalType": "string",
              "name": "bondName",
              "type": "string"
            },
            {
              "internalType": "uint256",
              "name": "issueDate",
              "type": "uint256"
            },
            {
              "internalType": "uint256",
              "name": "maturityDate",
              "type": "uint256"
            },
            {
              "internalType": "uint256",
              "name": "interestPaymentPercent",
              "type": "uint256"
            },
            {
              "internalType": "uint256",
              "name": "periodOfPayment",
              "type": "uint256"
            },
            {
              "internalType": "uint256",
              "name": "faceValue",
              "type": "uint256"
            },
            {
              "internalType": "uint256",
              "name": "shift",
              "type": "uint256"
            },
            {
              "internalType": "uint256",
              "name": "supply",
              "type": "uint256"
            }
          ],
          "internalType": "struct EAvatar.EBond",
          "name": "bond",
          "type": "tuple"
        }
      ],
      "stateMutability": "view",
      "type": "function"
    },
    {
      "inputs": [],
      "name": "getIssuer",
      "outputs": [
        {
          "internalType": "address",
          "name": "issuer",
          "type": "address"
        }
      ],
      "stateMutability": "view",
      "type": "function"
    },
    {
      "inputs": [],
      "name": "getLatestId",
      "outputs": [
        {
          "internalType": "uint256",
          "name": "",
          "type": "uint256"
        }
      ],
      "stateMutability": "view",
      "type": "function"
    },
    {
      "inputs": [
        {
          "internalType": "uint256",
          "name": "tokenId",
          "type": "uint256"
        }
      ],
      "name": "getMetadata",
      "outputs": [
        {
          "components": [
            {
              "internalType": "uint256",
              "name": "tokenId",
              "type": "uint256"
            },
            {
              "internalType": "bool",
              "name": "inactive",
              "type": "bool"
            },
            {
              "internalType": "string",
              "name": "name",
              "type": "string"
            },
            {
              "internalType": "uint256",
              "name": "mintedAt",
              "type": "uint256"
            },
            {
              "internalType": "uint256",
              "name": "listing_price",
              "type": "uint256"
            },
            {
              "components": [
                {
                  "internalType": "string",
                  "name": "name",
                  "type": "string"
                },
                {
                  "internalType": "uint8",
                  "name": "hp",
                  "type": "uint8"
                },
                {
                  "internalType": "uint8",
                  "name": "ap",
                  "type": "uint8"
                },
                {
                  "internalType": "uint8",
                  "name": "level",
                  "type": "uint8"
                },
                {
                  "internalType": "uint8",
                  "name": "evolved",
                  "type": "uint8"
                }
              ],
              "internalType": "struct EAvatar.AvatarChar",
              "name": "character",
              "type": "tuple"
            },
            {
              "internalType": "address",
              "name": "ownerId",
              "type": "address"
            }
          ],
          "internalType": "struct EAvatar.EMetadata",
          "name": "item",
          "type": "tuple"
        }
      ],
      "stateMutability": "view",
      "type": "function"
    },
    {
      "inputs": [],
      "name": "getMintedCount",
      "outputs": [
        {
          "internalType": "uint256",
          "name": "num",
          "type": "uint256"
        }
      ],
      "stateMutability": "view",
      "type": "function"
    },
    {
      "inputs": [],
      "name": "interestPaymentAmount",
      "outputs": [
        {
          "internalType": "uint256",
          "name": "amount",
          "type": "uint256"
        }
      ],
      "stateMutability": "view",
      "type": "function"
    },
    {
      "inputs": [
        {
          "internalType": "address",
          "name": "owner",
          "type": "address"
        },
        {
          "internalType": "address",
          "name": "operator",
          "type": "address"
        }
      ],
      "name": "isApprovedForAll",
      "outputs": [
        {
          "internalType": "bool",
          "name": "",
          "type": "bool"
        }
      ],
      "stateMutability": "view",
      "type": "function"
    },
    {
      "inputs": [],
      "name": "isBondMatured",
      "outputs": [
        {
          "internalType": "bool",
          "name": "",
          "type": "bool"
        }
      ],
      "stateMutability": "view",
      "type": "function"
    },
    {
      "inputs": [],
      "name": "isInterestTime",
      "outputs": [
        {
          "internalType": "bool",
          "name": "",
          "type": "bool"
        }
      ],
      "stateMutability": "view",
      "type": "function"
    },
    {
      "inputs": [
        {
          "internalType": "uint256",
          "name": "tokenId",
          "type": "uint256"
        },
        {
          "internalType": "string",
          "name": "inactiveURI",
          "type": "string"
        }
      ],
      "name": "matureCharacter",
      "outputs": [],
      "stateMutability": "nonpayable",
      "type": "function"
    },
    {
      "inputs": [
        {
          "internalType": "address",
          "name": "recipient",
          "type": "address"
        },
        {
          "internalType": "uint256",
          "name": "price",
          "type": "uint256"
        },
        {
          "internalType": "string",
          "name": "tokenURI",
          "type": "string"
        }
      ],
      "name": "mintNFT",
      "outputs": [
        {
          "internalType": "uint256",
          "name": "",
          "type": "uint256"
        }
      ],
      "stateMutability": "nonpayable",
      "type": "function"
    },
    {
      "inputs": [],
      "name": "name",
      "outputs": [
        {
          "internalType": "string",
          "name": "",
          "type": "string"
        }
      ],
      "stateMutability": "view",
      "type": "function"
    },
    {
      "inputs": [],
      "name": "owner",
      "outputs": [
        {
          "internalType": "address",
          "name": "",
          "type": "address"
        }
      ],
      "stateMutability": "view",
      "type": "function"
    },
    {
      "inputs": [
        {
          "internalType": "uint256",
          "name": "tokenId",
          "type": "uint256"
        }
      ],
      "name": "ownerOf",
      "outputs": [
        {
          "internalType": "address",
          "name": "",
          "type": "address"
        }
      ],
      "stateMutability": "view",
      "type": "function"
    },
    {
      "inputs": [],
      "name": "renounceOwnership",
      "outputs": [],
      "stateMutability": "nonpayable",
      "type": "function"
    },
    {
      "inputs": [
        {
          "internalType": "address",
          "name": "from",
          "type": "address"
        },
        {
          "internalType": "address",
          "name": "to",
          "type": "address"
        },
        {
          "internalType": "uint256",
          "name": "tokenId",
          "type": "uint256"
        }
      ],
      "name": "safeTransferFrom",
      "outputs": [],
      "stateMutability": "nonpayable",
      "type": "function"
    },
    {
      "inputs": [
        {
          "internalType": "address",
          "name": "from",
          "type": "address"
        },
        {
          "internalType": "address",
          "name": "to",
          "type": "address"
        },
        {
          "internalType": "uint256",
          "name": "tokenId",
          "type": "uint256"
        },
        {
          "internalType": "bytes",
          "name": "data",
          "type": "bytes"
        }
      ],
      "name": "safeTransferFrom",
      "outputs": [],
      "stateMutability": "nonpayable",
      "type": "function"
    },
    {
      "inputs": [
        {
          "internalType": "address",
          "name": "operator",
          "type": "address"
        },
        {
          "internalType": "bool",
          "name": "approved",
          "type": "bool"
        }
      ],
      "name": "setApprovalForAll",
      "outputs": [],
      "stateMutability": "nonpayable",
      "type": "function"
    },
    {
      "inputs": [
        {
          "internalType": "bytes4",
          "name": "interfaceId",
          "type": "bytes4"
        }
      ],
      "name": "supportsInterface",
      "outputs": [
        {
          "internalType": "bool",
          "name": "",
          "type": "bool"
        }
      ],
      "stateMutability": "view",
      "type": "function"
    },
    {
      "inputs": [],
      "name": "symbol",
      "outputs": [
        {
          "internalType": "string",
          "name": "",
          "type": "string"
        }
      ],
      "stateMutability": "view",
      "type": "function"
    },
    {
      "inputs": [
        {
          "internalType": "uint256",
          "name": "tokenId",
          "type": "uint256"
        }
      ],
      "name": "tokenURI",
      "outputs": [
        {
          "internalType": "string",
          "name": "",
          "type": "string"
        }
      ],
      "stateMutability": "view",
      "type": "function"
    },
    {
      "inputs": [
        {
          "internalType": "address",
          "name": "from",
          "type": "address"
        },
        {
          "internalType": "address",
          "name": "to",
          "type": "address"
        },
        {
          "internalType": "uint256",
          "name": "tokenId",
          "type": "uint256"
        }
      ],
      "name": "transferAvatar",
      "outputs": [],
      "stateMutability": "nonpayable",
      "type": "function"
    },
    {
      "inputs": [
        {
          "internalType": "address",
          "name": "from",
          "type": "address"
        },
        {
          "internalType": "address",
          "name": "to",
          "type": "address"
        },
        {
          "internalType": "uint256",
          "name": "tokenId",
          "type": "uint256"
        }
      ],
      "name": "transferFrom",
      "outputs": [],
      "stateMutability": "nonpayable",
      "type": "function"
    },
    {
      "inputs": [
        {
          "internalType": "address",
          "name": "newOwner",
          "type": "address"
        }
      ],
      "name": "transferOwnership",
      "outputs": [],
      "stateMutability": "nonpayable",
      "type": "function"
    }
  ],
  "bytecode": "0x60806040523480156200001157600080fd5b5060405162004b2738038062004b2783398181016040528101906200003791906200036c565b6040518060400160405280600781526020017f45417661746172000000000000000000000000000000000000000000000000008152506040518060400160405280600281526020017f45410000000000000000000000000000000000000000000000000000000000008152508160009081620000b4919062000618565b508060019081620000c6919062000618565b505050620000e9620000dd6200023460201b60201c565b6200023c60201b60201c565b6040518061012001604052808273ffffffffffffffffffffffffffffffffffffffff1681526020016040518060400160405280600a81526020017f452d426f6e64204f6e65000000000000000000000000000000000000000000008152508152602001428152602001636e71188081526020016005815260200162f0c29f8152602001620186a08152602001600281526020016103e8815250600960008201518160000160006101000a81548173ffffffffffffffffffffffffffffffffffffffff021916908373ffffffffffffffffffffffffffffffffffffffff1602179055506020820151816001019081620001e2919062000618565b5060408201518160020155606082015181600301556080820151816004015560a0820151816005015560c0820151816006015560e08201518160070155610100820151816008015590505050620006ff565b600033905090565b6000600760009054906101000a900473ffffffffffffffffffffffffffffffffffffffff16905081600760006101000a81548173ffffffffffffffffffffffffffffffffffffffff021916908373ffffffffffffffffffffffffffffffffffffffff1602179055508173ffffffffffffffffffffffffffffffffffffffff168173ffffffffffffffffffffffffffffffffffffffff167f8be0079c531659141344cd1fd0a4f28419497f9722a3daafe3b4186f6b6457e060405160405180910390a35050565b600080fd5b600073ffffffffffffffffffffffffffffffffffffffff82169050919050565b6000620003348262000307565b9050919050565b620003468162000327565b81146200035257600080fd5b50565b60008151905062000366816200033b565b92915050565b60006020828403121562000385576200038462000302565b5b6000620003958482850162000355565b91505092915050565b600081519050919050565b7f4e487b7100000000000000000000000000000000000000000000000000000000600052604160045260246000fd5b7f4e487b7100000000000000000000000000000000000000000000000000000000600052602260045260246000fd5b600060028204905060018216806200042057607f821691505b602082108103620004365762000435620003d8565b5b50919050565b60008190508160005260206000209050919050565b60006020601f8301049050919050565b600082821b905092915050565b600060088302620004a07fffffffffffffffffffffffffffffffffffffffffffffffffffffffffffffffff8262000461565b620004ac868362000461565b95508019841693508086168417925050509392505050565b6000819050919050565b6000819050919050565b6000620004f9620004f3620004ed84620004c4565b620004ce565b620004c4565b9050919050565b6000819050919050565b6200051583620004d8565b6200052d620005248262000500565b8484546200046e565b825550505050565b600090565b6200054462000535565b620005518184846200050a565b505050565b5b8181101562000579576200056d6000826200053a565b60018101905062000557565b5050565b601f821115620005c85762000592816200043c565b6200059d8462000451565b81016020851015620005ad578190505b620005c5620005bc8562000451565b83018262000556565b50505b505050565b600082821c905092915050565b6000620005ed60001984600802620005cd565b1980831691505092915050565b6000620006088383620005da565b9150826002028217905092915050565b62000623826200039e565b67ffffffffffffffff8111156200063f576200063e620003a9565b5b6200064b825462000407565b620006588282856200057d565b600060209050601f8311600181146200069057600084156200067b578287015190505b620006878582620005fa565b865550620006f7565b601f198416620006a0866200043c565b60005b82811015620006ca57848901518255600182019150602085019450602081019050620006a3565b86831015620006ea5784890151620006e6601f891682620005da565b8355505b6001600288020188555050505b505050505050565b614418806200070f6000396000f3fe608060405234801561001057600080fd5b50600436106101f05760003560e01c8063729a1a871161010f578063d5070b3e116100a2578063eff91c7e11610071578063eff91c7e146105bf578063f1645238146105dd578063f2fde38b146105f9578063f727880d14610615576101f0565b8063d5070b3e14610535578063e985e9c514610553578063ea317fff14610583578063ebc9bd3b146105a1576101f0565b8063a2fb0e7c116100de578063a2fb0e7c1461049d578063a574cea4146104b9578063b88d4fde146104e9578063c87b56dd14610505576101f0565b8063729a1a87146104275780638da5cb5b1461044557806395d89b4114610463578063a22cb46514610481576101f0565b806337e08699116101875780636352211e116101565780636352211e1461038d5780636cee5e2b146103bd57806370a08231146103ed578063715018a61461041d576101f0565b806337e08699146103175780633fb3ff111461033557806342842e0e14610353578063525564211461036f576101f0565b8063095ea7b3116101c3578063095ea7b3146102915780631e576912146102ad5780631ed54e78146102dd57806323b872dd146102fb576101f0565b806301ffc9a7146101f557806305f315721461022557806306fdde0314610243578063081812fc14610261575b600080fd5b61020f600480360381019061020a91906129f1565b610631565b60405161021c9190612a39565b60405180910390f35b61022d610692565b60405161023a9190612a39565b60405180910390f35b61024b6106a2565b6040516102589190612ae4565b60405180910390f35b61027b60048036038101906102769190612b3c565b610734565b6040516102889190612baa565b60405180910390f35b6102ab60048036038101906102a69190612bf1565b61077a565b005b6102c760048036038101906102c29190612d66565b610891565b6040516102d49190612de4565b60405180910390f35b6102e5610975565b6040516102f29190612de4565b60405180910390f35b61031560048036038101906103109190612dff565b6109c4565b005b61031f610a24565b60405161032c9190612a39565b60405180910390f35b61033d610a4e565b60405161034a9190612de4565b60405180910390f35b61036d60048036038101906103689190612dff565b610ab0565b005b610377610ad0565b6040516103849190612baa565b60405180910390f35b6103a760048036038101906103a29190612b3c565b610afd565b6040516103b49190612baa565b60405180910390f35b6103d760048036038101906103d29190612e8b565b610b83565b6040516103e49190612eda565b60405180910390f35b61040760048036038101906104029190612ef5565b610c01565b6040516104149190612de4565b60405180910390f35b610425610cb8565b005b61042f610ccc565b60405161043c9190612de4565b60405180910390f35b61044d610cd9565b60405161045a9190612baa565b60405180910390f35b61046b610d03565b6040516104789190612ae4565b60405180910390f35b61049b60048036038101906104969190612f4e565b610d95565b005b6104b760048036038101906104b29190612f8e565b610dab565b005b6104d360048036038101906104ce9190612b3c565b610e01565b6040516104e09190613189565b60405180910390f35b61050360048036038101906104fe919061324c565b611069565b005b61051f600480360381019061051a9190612b3c565b6110cb565b60405161052c9190612ae4565b60405180910390f35b61053d6111dd565b60405161054a9190613394565b60405180910390f35b61056d600480360381019061056891906133b6565b611326565b60405161057a9190612a39565b60405180910390f35b61058b6113ba565b6040516105989190612a39565b60405180910390f35b6105a96113c9565b6040516105b69190612de4565b60405180910390f35b6105c76113da565b6040516105d49190612de4565b60405180910390f35b6105f760048036038101906105f291906133f6565b6113eb565b005b610613600480360381019061060e9190612ef5565b61144b565b005b61062f600480360381019061062a9190612dff565b6114ce565b005b6000634906490660e01b7bffffffffffffffffffffffffffffffffffffffffffffffffffffffff1916827bffffffffffffffffffffffffffffffffffffffffffffffffffffffff1916148061068b575061068a82611533565b5b9050919050565b6000600960030154421015905090565b6060600080546106b190613494565b80601f01602080910402602001604051908101604052809291908181526020018280546106dd90613494565b801561072a5780601f106106ff5761010080835404028352916020019161072a565b820191906000526020600020905b81548152906001019060200180831161070d57829003601f168201915b5050505050905090565b600061073f82611615565b6004600083815260200190815260200160002060009054906101000a900473ffffffffffffffffffffffffffffffffffffffff169050919050565b600061078582610afd565b90508073ffffffffffffffffffffffffffffffffffffffff168373ffffffffffffffffffffffffffffffffffffffff16036107f5576040517f08c379a00000000000000000000000000000000000000000000000000000000081526004016107ec90613537565b60405180910390fd5b8073ffffffffffffffffffffffffffffffffffffffff16610814611660565b73ffffffffffffffffffffffffffffffffffffffff16148061084357506108428161083d611660565b611326565b5b610882576040517f08c379a0000000000000000000000000000000000000000000000000000000008152600401610879906135c9565b60405180910390fd5b61088c8383611668565b505050565b600061089b611721565b6009600601548310156108e3576040517f08c379a00000000000000000000000000000000000000000000000000000000081526004016108da90613635565b60405180910390fd5b6009600801546108f3600861179f565b10610933576040517f08c379a000000000000000000000000000000000000000000000000000000000815260040161092a906136c7565b60405180910390fd5b61093d60086117ad565b6000610949600861179f565b905061095585826117c3565b61095f81846117e1565b61096a818587611885565b809150509392505050565b600061097f610692565b6109bc57600960070154600a6109959190613849565b6009600401546009600601546109ab9190613894565b6109b59190613905565b90506109c1565b600090505b90565b6109d56109cf611660565b82611abb565b610a14576040517f08c379a0000000000000000000000000000000000000000000000000000000008152600401610a0b906139a8565b60405180910390fd5b610a1f838383611b50565b505050565b60008060096005015460096002015442610a3e91906139c8565b610a4891906139fc565b14905090565b6000610a58610692565b610aa8576000610a66610975565b9050600060096005015460096002015442610a8191906139c8565b610a8b9190613905565b905060008183610a9b9190613894565b9050809350505050610aad565b600090505b90565b610acb83838360405180602001604052806000815250611069565b505050565b6000600960000160009054906101000a900473ffffffffffffffffffffffffffffffffffffffff16905090565b600080610b0983611e49565b9050600073ffffffffffffffffffffffffffffffffffffffff168173ffffffffffffffffffffffffffffffffffffffff1603610b7a576040517f08c379a0000000000000000000000000000000000000000000000000000000008152600401610b7190613a79565b60405180910390fd5b80915050919050565b6000816012600085815260200190815260200160002060050160010160028282829054906101000a900460ff16610bba9190613a99565b92506101000a81548160ff021916908360ff1602179055506012600084815260200190815260200160002060050160010160029054906101000a900460ff16905092915050565b60008073ffffffffffffffffffffffffffffffffffffffff168273ffffffffffffffffffffffffffffffffffffffff1603610c71576040517f08c379a0000000000000000000000000000000000000000000000000000000008152600401610c6890613b40565b60405180910390fd5b600360008373ffffffffffffffffffffffffffffffffffffffff1673ffffffffffffffffffffffffffffffffffffffff168152602001908152602001600020549050919050565b610cc0611721565b610cca6000611e86565b565b6000600960060154905090565b6000600760009054906101000a900473ffffffffffffffffffffffffffffffffffffffff16905090565b606060018054610d1290613494565b80601f0160208091040260200160405190810160405280929190818152602001828054610d3e90613494565b8015610d8b5780601f10610d6057610100808354040283529160200191610d8b565b820191906000526020600020905b815481529060010190602001808311610d6e57829003601f168201915b5050505050905090565b610da7610da0611660565b8383611f4c565b5050565b610db3611721565b610dbb610692565b610dc457600080fd5b610dce82826117e1565b60016012600084815260200190815260200160002060010160006101000a81548160ff0219169083151502179055505050565b610e0961288d565b601260008381526020019081526020016000206040518060e0016040529081600082015481526020016001820160009054906101000a900460ff16151515158152602001600282018054610e5c90613494565b80601f0160208091040260200160405190810160405280929190818152602001828054610e8890613494565b8015610ed55780601f10610eaa57610100808354040283529160200191610ed5565b820191906000526020600020905b815481529060010190602001808311610eb857829003601f168201915b505050505081526020016003820154815260200160048201548152602001600582016040518060a0016040529081600082018054610f1290613494565b80601f0160208091040260200160405190810160405280929190818152602001828054610f3e90613494565b8015610f8b5780601f10610f6057610100808354040283529160200191610f8b565b820191906000526020600020905b815481529060010190602001808311610f6e57829003601f168201915b505050505081526020016001820160009054906101000a900460ff1660ff1660ff1681526020016001820160019054906101000a900460ff1660ff1660ff1681526020016001820160029054906101000a900460ff1660ff1660ff1681526020016001820160039054906101000a900460ff1660ff1660ff168152505081526020016007820160009054906101000a900473ffffffffffffffffffffffffffffffffffffffff1673ffffffffffffffffffffffffffffffffffffffff1673ffffffffffffffffffffffffffffffffffffffff16815250509050919050565b61107a611074611660565b83611abb565b6110b9576040517f08c379a00000000000000000000000000000000000000000000000000000000081526004016110b0906139a8565b60405180910390fd5b6110c5848484846120b8565b50505050565b60606110d682611615565b60006006600084815260200190815260200160002080546110f690613494565b80601f016020809104026020016040519081016040528092919081815260200182805461112290613494565b801561116f5780601f106111445761010080835404028352916020019161116f565b820191906000526020600020905b81548152906001019060200180831161115257829003601f168201915b505050505090506000611180612114565b905060008151036111955781925050506111d8565b6000825111156111ca5780826040516020016111b2929190613b9c565b604051602081830303815290604052925050506111d8565b6111d38461212b565b925050505b919050565b6111e56128e8565b6009604051806101200160405290816000820160009054906101000a900473ffffffffffffffffffffffffffffffffffffffff1673ffffffffffffffffffffffffffffffffffffffff1673ffffffffffffffffffffffffffffffffffffffff16815260200160018201805461125990613494565b80601f016020809104026020016040519081016040528092919081815260200182805461128590613494565b80156112d25780601f106112a7576101008083540402835291602001916112d2565b820191906000526020600020905b8154815290600101906020018083116112b557829003601f168201915b50505050508152602001600282015481526020016003820154815260200160048201548152602001600582015481526020016006820154815260200160078201548152602001600882015481525050905090565b6000600560008473ffffffffffffffffffffffffffffffffffffffff1673ffffffffffffffffffffffffffffffffffffffff16815260200190815260200160002060008373ffffffffffffffffffffffffffffffffffffffff1673ffffffffffffffffffffffffffffffffffffffff16815260200190815260200160002060009054906101000a900460ff16905092915050565b60008060096008015411905090565b60006113d5600861179f565b905090565b60006113e6600861179f565b905090565b8173ffffffffffffffffffffffffffffffffffffffff1661140b84610afd565b73ffffffffffffffffffffffffffffffffffffffff161461142b57600080fd5b600061143684610e01565b9050818160a001516000018190525050505050565b611453611721565b600073ffffffffffffffffffffffffffffffffffffffff168173ffffffffffffffffffffffffffffffffffffffff16036114c2576040517f08c379a00000000000000000000000000000000000000000000000000000000081526004016114b990613c32565b60405180910390fd5b6114cb81611e86565b50565b816012600083815260200190815260200160002060070160006101000a81548173ffffffffffffffffffffffffffffffffffffffff021916908373ffffffffffffffffffffffffffffffffffffffff16021790555061152e838383610ab0565b505050565b60007f80ac58cd000000000000000000000000000000000000000000000000000000007bffffffffffffffffffffffffffffffffffffffffffffffffffffffff1916827bffffffffffffffffffffffffffffffffffffffffffffffffffffffff191614806115fe57507f5b5e139f000000000000000000000000000000000000000000000000000000007bffffffffffffffffffffffffffffffffffffffffffffffffffffffff1916827bffffffffffffffffffffffffffffffffffffffffffffffffffffffff1916145b8061160e575061160d82612193565b5b9050919050565b61161e816121fd565b61165d576040517f08c379a000000000000000000000000000000000000000000000000000000000815260040161165490613a79565b60405180910390fd5b50565b600033905090565b816004600083815260200190815260200160002060006101000a81548173ffffffffffffffffffffffffffffffffffffffff021916908373ffffffffffffffffffffffffffffffffffffffff160217905550808273ffffffffffffffffffffffffffffffffffffffff166116db83610afd565b73ffffffffffffffffffffffffffffffffffffffff167f8c5be1e5ebec7d5bd14f71427d1e84f3dd0314c0f7b2291e5b200ac8c7c3b92560405160405180910390a45050565b611729611660565b73ffffffffffffffffffffffffffffffffffffffff16611747610cd9565b73ffffffffffffffffffffffffffffffffffffffff161461179d576040517f08c379a000000000000000000000000000000000000000000000000000000000815260040161179490613c9e565b60405180910390fd5b565b600081600001549050919050565b6001816000016000828254019250508190555050565b6117dd82826040518060200160405280600081525061223e565b5050565b6117ea826121fd565b611829576040517f08c379a000000000000000000000000000000000000000000000000000000000815260040161182090613d30565b60405180910390fd5b806006600084815260200190815260200160002090816118499190613efc565b507ff8e1a15aba9398e019f0b49df1a4fde98ee17ae345cb5f6b5e2c27f5033e8ce7826040516118799190612de4565b60405180910390a15050565b6040518060e001604052808481526020016000151581526020016040518060200160405280600081525081526020014281526020018381526020016040518060a00160405280604051806020016040528060008152508152602001600a60ff168152602001600a60ff168152602001600060ff168152602001600060ff1681525081526020018273ffffffffffffffffffffffffffffffffffffffff16815250601260008581526020019081526020016000206000820151816000015560208201518160010160006101000a81548160ff02191690831515021790555060408201518160020190816119779190613efc565b50606082015181600301556080820151816004015560a08201518160050160008201518160000190816119aa9190613efc565b5060208201518160010160006101000a81548160ff021916908360ff16021790555060408201518160010160016101000a81548160ff021916908360ff16021790555060608201518160010160026101000a81548160ff021916908360ff16021790555060808201518160010160036101000a81548160ff021916908360ff160217905550505060c08201518160070160006101000a81548173ffffffffffffffffffffffffffffffffffffffff021916908373ffffffffffffffffffffffffffffffffffffffff1602179055509050507f42e22845cdfee2da8f8e56b8d8f9807a12fd6906d54b388fe7ec9d2329e70b3e838284604051611aae93929190613fce565b60405180910390a1505050565b600080611ac783610afd565b90508073ffffffffffffffffffffffffffffffffffffffff168473ffffffffffffffffffffffffffffffffffffffff161480611b095750611b088185611326565b5b80611b4757508373ffffffffffffffffffffffffffffffffffffffff16611b2f84610734565b73ffffffffffffffffffffffffffffffffffffffff16145b91505092915050565b8273ffffffffffffffffffffffffffffffffffffffff16611b7082610afd565b73ffffffffffffffffffffffffffffffffffffffff1614611bc6576040517f08c379a0000000000000000000000000000000000000000000000000000000008152600401611bbd90614077565b60405180910390fd5b600073ffffffffffffffffffffffffffffffffffffffff168273ffffffffffffffffffffffffffffffffffffffff1603611c35576040517f08c379a0000000000000000000000000000000000000000000000000000000008152600401611c2c90614109565b60405180910390fd5b611c428383836001612299565b8273ffffffffffffffffffffffffffffffffffffffff16611c6282610afd565b73ffffffffffffffffffffffffffffffffffffffff1614611cb8576040517f08c379a0000000000000000000000000000000000000000000000000000000008152600401611caf90614077565b60405180910390fd5b6004600082815260200190815260200160002060006101000a81549073ffffffffffffffffffffffffffffffffffffffff02191690556001600360008573ffffffffffffffffffffffffffffffffffffffff1673ffffffffffffffffffffffffffffffffffffffff168152602001908152602001600020600082825403925050819055506001600360008473ffffffffffffffffffffffffffffffffffffffff1673ffffffffffffffffffffffffffffffffffffffff16815260200190815260200160002060008282540192505081905550816002600083815260200190815260200160002060006101000a81548173ffffffffffffffffffffffffffffffffffffffff021916908373ffffffffffffffffffffffffffffffffffffffff160217905550808273ffffffffffffffffffffffffffffffffffffffff168473ffffffffffffffffffffffffffffffffffffffff167fddf252ad1be2c89b69c2b068fc378daa952ba7f163c4a11628f55a4df523b3ef60405160405180910390a4611e44838383600161229f565b505050565b60006002600083815260200190815260200160002060009054906101000a900473ffffffffffffffffffffffffffffffffffffffff169050919050565b6000600760009054906101000a900473ffffffffffffffffffffffffffffffffffffffff16905081600760006101000a81548173ffffffffffffffffffffffffffffffffffffffff021916908373ffffffffffffffffffffffffffffffffffffffff1602179055508173ffffffffffffffffffffffffffffffffffffffff168173ffffffffffffffffffffffffffffffffffffffff167f8be0079c531659141344cd1fd0a4f28419497f9722a3daafe3b4186f6b6457e060405160405180910390a35050565b8173ffffffffffffffffffffffffffffffffffffffff168373ffffffffffffffffffffffffffffffffffffffff1603611fba576040517f08c379a0000000000000000000000000000000000000000000000000000000008152600401611fb190614175565b60405180910390fd5b80600560008573ffffffffffffffffffffffffffffffffffffffff1673ffffffffffffffffffffffffffffffffffffffff16815260200190815260200160002060008473ffffffffffffffffffffffffffffffffffffffff1673ffffffffffffffffffffffffffffffffffffffff16815260200190815260200160002060006101000a81548160ff0219169083151502179055508173ffffffffffffffffffffffffffffffffffffffff168373ffffffffffffffffffffffffffffffffffffffff167f17307eab39ab6107e8899845ad3d59bd9653f200f220920489ca2b5937696c31836040516120ab9190612a39565b60405180910390a3505050565b6120c3848484611b50565b6120cf848484846122a5565b61210e576040517f08c379a000000000000000000000000000000000000000000000000000000000815260040161210590614207565b60405180910390fd5b50505050565b606060405180602001604052806000815250905090565b606061213682611615565b6000612140612114565b90506000815111612160576040518060200160405280600081525061218b565b8061216a8461242c565b60405160200161217b929190613b9c565b6040516020818303038152906040525b915050919050565b60007f01ffc9a7000000000000000000000000000000000000000000000000000000007bffffffffffffffffffffffffffffffffffffffffffffffffffffffff1916827bffffffffffffffffffffffffffffffffffffffffffffffffffffffff1916149050919050565b60008073ffffffffffffffffffffffffffffffffffffffff1661221f83611e49565b73ffffffffffffffffffffffffffffffffffffffff1614159050919050565b61224883836124fa565b61225560008484846122a5565b612294576040517f08c379a000000000000000000000000000000000000000000000000000000000815260040161228b90614207565b60405180910390fd5b505050565b50505050565b50505050565b60006122c68473ffffffffffffffffffffffffffffffffffffffff16612717565b1561241f578373ffffffffffffffffffffffffffffffffffffffff1663150b7a026122ef611660565b8786866040518563ffffffff1660e01b8152600401612311949392919061427c565b6020604051808303816000875af192505050801561234d57506040513d601f19601f8201168201806040525081019061234a91906142dd565b60015b6123cf573d806000811461237d576040519150601f19603f3d011682016040523d82523d6000602084013e612382565b606091505b5060008151036123c7576040517f08c379a00000000000000000000000000000000000000000000000000000000081526004016123be90614207565b60405180910390fd5b805181602001fd5b63150b7a0260e01b7bffffffffffffffffffffffffffffffffffffffffffffffffffffffff1916817bffffffffffffffffffffffffffffffffffffffffffffffffffffffff191614915050612424565b600190505b949350505050565b60606000600161243b8461273a565b01905060008167ffffffffffffffff81111561245a57612459612c3b565b5b6040519080825280601f01601f19166020018201604052801561248c5781602001600182028036833780820191505090505b509050600082602001820190505b6001156124ef578080600190039150507f3031323334353637383961626364656600000000000000000000000000000000600a86061a8153600a85816124e3576124e26138d6565b5b0494506000850361249a575b819350505050919050565b600073ffffffffffffffffffffffffffffffffffffffff168273ffffffffffffffffffffffffffffffffffffffff1603612569576040517f08c379a000000000000000000000000000000000000000000000000000000000815260040161256090614356565b60405180910390fd5b612572816121fd565b156125b2576040517f08c379a00000000000000000000000000000000000000000000000000000000081526004016125a9906143c2565b60405180910390fd5b6125c0600083836001612299565b6125c9816121fd565b15612609576040517f08c379a0000000000000000000000000000000000000000000000000000000008152600401612600906143c2565b60405180910390fd5b6001600360008473ffffffffffffffffffffffffffffffffffffffff1673ffffffffffffffffffffffffffffffffffffffff16815260200190815260200160002060008282540192505081905550816002600083815260200190815260200160002060006101000a81548173ffffffffffffffffffffffffffffffffffffffff021916908373ffffffffffffffffffffffffffffffffffffffff160217905550808273ffffffffffffffffffffffffffffffffffffffff16600073ffffffffffffffffffffffffffffffffffffffff167fddf252ad1be2c89b69c2b068fc378daa952ba7f163c4a11628f55a4df523b3ef60405160405180910390a461271360008383600161229f565b5050565b6000808273ffffffffffffffffffffffffffffffffffffffff163b119050919050565b600080600090507a184f03e93ff9f4daa797ed6e38ed64bf6a1f0100000000000000008310612798577a184f03e93ff9f4daa797ed6e38ed64bf6a1f010000000000000000838161278e5761278d6138d6565b5b0492506040810190505b6d04ee2d6d415b85acef810000000083106127d5576d04ee2d6d415b85acef810000000083816127cb576127ca6138d6565b5b0492506020810190505b662386f26fc10000831061280457662386f26fc1000083816127fa576127f96138d6565b5b0492506010810190505b6305f5e100831061282d576305f5e1008381612823576128226138d6565b5b0492506008810190505b6127108310612852576127108381612848576128476138d6565b5b0492506004810190505b60648310612875576064838161286b5761286a6138d6565b5b0492506002810190505b600a8310612884576001810190505b80915050919050565b6040518060e00160405280600081526020016000151581526020016060815260200160008152602001600081526020016128c561294a565b8152602001600073ffffffffffffffffffffffffffffffffffffffff1681525090565b604051806101200160405280600073ffffffffffffffffffffffffffffffffffffffff16815260200160608152602001600081526020016000815260200160008152602001600081526020016000815260200160008152602001600081525090565b6040518060a0016040528060608152602001600060ff168152602001600060ff168152602001600060ff168152602001600060ff1681525090565b6000604051905090565b600080fd5b600080fd5b60007fffffffff0000000000000000000000000000000000000000000000000000000082169050919050565b6129ce81612999565b81146129d957600080fd5b50565b6000813590506129eb816129c5565b92915050565b600060208284031215612a0757612a0661298f565b5b6000612a15848285016129dc565b91505092915050565b60008115159050919050565b612a3381612a1e565b82525050565b6000602082019050612a4e6000830184612a2a565b92915050565b600081519050919050565b600082825260208201905092915050565b60005b83811015612a8e578082015181840152602081019050612a73565b60008484015250505050565b6000601f19601f8301169050919050565b6000612ab682612a54565b612ac08185612a5f565b9350612ad0818560208601612a70565b612ad981612a9a565b840191505092915050565b60006020820190508181036000830152612afe8184612aab565b905092915050565b6000819050919050565b612b1981612b06565b8114612b2457600080fd5b50565b600081359050612b3681612b10565b92915050565b600060208284031215612b5257612b5161298f565b5b6000612b6084828501612b27565b91505092915050565b600073ffffffffffffffffffffffffffffffffffffffff82169050919050565b6000612b9482612b69565b9050919050565b612ba481612b89565b82525050565b6000602082019050612bbf6000830184612b9b565b92915050565b612bce81612b89565b8114612bd957600080fd5b50565b600081359050612beb81612bc5565b92915050565b60008060408385031215612c0857612c0761298f565b5b6000612c1685828601612bdc565b9250506020612c2785828601612b27565b9150509250929050565b600080fd5b600080fd5b7f4e487b7100000000000000000000000000000000000000000000000000000000600052604160045260246000fd5b612c7382612a9a565b810181811067ffffffffffffffff82111715612c9257612c91612c3b565b5b80604052505050565b6000612ca5612985565b9050612cb18282612c6a565b919050565b600067ffffffffffffffff821115612cd157612cd0612c3b565b5b612cda82612a9a565b9050602081019050919050565b82818337600083830152505050565b6000612d09612d0484612cb6565b612c9b565b905082815260208101848484011115612d2557612d24612c36565b5b612d30848285612ce7565b509392505050565b600082601f830112612d4d57612d4c612c31565b5b8135612d5d848260208601612cf6565b91505092915050565b600080600060608486031215612d7f57612d7e61298f565b5b6000612d8d86828701612bdc565b9350506020612d9e86828701612b27565b925050604084013567ffffffffffffffff811115612dbf57612dbe612994565b5b612dcb86828701612d38565b9150509250925092565b612dde81612b06565b82525050565b6000602082019050612df96000830184612dd5565b92915050565b600080600060608486031215612e1857612e1761298f565b5b6000612e2686828701612bdc565b9350506020612e3786828701612bdc565b9250506040612e4886828701612b27565b9150509250925092565b600060ff82169050919050565b612e6881612e52565b8114612e7357600080fd5b50565b600081359050612e8581612e5f565b92915050565b60008060408385031215612ea257612ea161298f565b5b6000612eb085828601612b27565b9250506020612ec185828601612e76565b9150509250929050565b612ed481612e52565b82525050565b6000602082019050612eef6000830184612ecb565b92915050565b600060208284031215612f0b57612f0a61298f565b5b6000612f1984828501612bdc565b91505092915050565b612f2b81612a1e565b8114612f3657600080fd5b50565b600081359050612f4881612f22565b92915050565b60008060408385031215612f6557612f6461298f565b5b6000612f7385828601612bdc565b9250506020612f8485828601612f39565b9150509250929050565b60008060408385031215612fa557612fa461298f565b5b6000612fb385828601612b27565b925050602083013567ffffffffffffffff811115612fd457612fd3612994565b5b612fe085828601612d38565b9150509250929050565b612ff381612b06565b82525050565b61300281612a1e565b82525050565b600082825260208201905092915050565b600061302482612a54565b61302e8185613008565b935061303e818560208601612a70565b61304781612a9a565b840191505092915050565b61305b81612e52565b82525050565b600060a083016000830151848203600086015261307e8282613019565b91505060208301516130936020860182613052565b5060408301516130a66040860182613052565b5060608301516130b96060860182613052565b5060808301516130cc6080860182613052565b508091505092915050565b6130e081612b89565b82525050565b600060e0830160008301516130fe6000860182612fea565b5060208301516131116020860182612ff9565b50604083015184820360408601526131298282613019565b915050606083015161313e6060860182612fea565b5060808301516131516080860182612fea565b5060a083015184820360a08601526131698282613061565b91505060c083015161317e60c08601826130d7565b508091505092915050565b600060208201905081810360008301526131a381846130e6565b905092915050565b600067ffffffffffffffff8211156131c6576131c5612c3b565b5b6131cf82612a9a565b9050602081019050919050565b60006131ef6131ea846131ab565b612c9b565b90508281526020810184848401111561320b5761320a612c36565b5b613216848285612ce7565b509392505050565b600082601f83011261323357613232612c31565b5b81356132438482602086016131dc565b91505092915050565b600080600080608085870312156132665761326561298f565b5b600061327487828801612bdc565b945050602061328587828801612bdc565b935050604061329687828801612b27565b925050606085013567ffffffffffffffff8111156132b7576132b6612994565b5b6132c38782880161321e565b91505092959194509250565b6000610120830160008301516132e860008601826130d7565b50602083015184820360208601526133008282613019565b91505060408301516133156040860182612fea565b5060608301516133286060860182612fea565b50608083015161333b6080860182612fea565b5060a083015161334e60a0860182612fea565b5060c083015161336160c0860182612fea565b5060e083015161337460e0860182612fea565b50610100830151613389610100860182612fea565b508091505092915050565b600060208201905081810360008301526133ae81846132cf565b905092915050565b600080604083850312156133cd576133cc61298f565b5b60006133db85828601612bdc565b92505060206133ec85828601612bdc565b9150509250929050565b60008060006060848603121561340f5761340e61298f565b5b600061341d86828701612b27565b935050602061342e86828701612bdc565b925050604084013567ffffffffffffffff81111561344f5761344e612994565b5b61345b86828701612d38565b9150509250925092565b7f4e487b7100000000000000000000000000000000000000000000000000000000600052602260045260246000fd5b600060028204905060018216806134ac57607f821691505b6020821081036134bf576134be613465565b5b50919050565b7f4552433732313a20617070726f76616c20746f2063757272656e74206f776e6560008201527f7200000000000000000000000000000000000000000000000000000000000000602082015250565b6000613521602183612a5f565b915061352c826134c5565b604082019050919050565b6000602082019050818103600083015261355081613514565b9050919050565b7f4552433732313a20617070726f76652063616c6c6572206973206e6f7420746f60008201527f6b656e206f776e6572206f7220617070726f76656420666f7220616c6c000000602082015250565b60006135b3603d83612a5f565b91506135be82613557565b604082019050919050565b600060208201905081810360008301526135e2816135a6565b9050919050565b7f507269636520697320746f6f206c6f7720666f72206d696e7400000000000000600082015250565b600061361f601983612a5f565b915061362a826135e9565b602082019050919050565b6000602082019050818103600083015261364e81613612565b9050919050565b7f4e6f206d6f726520617661696c61626c65206e66747320746f2070757263686160008201527f7365000000000000000000000000000000000000000000000000000000000000602082015250565b60006136b1602283612a5f565b91506136bc82613655565b604082019050919050565b600060208201905081810360008301526136e0816136a4565b9050919050565b7f4e487b7100000000000000000000000000000000000000000000000000000000600052601160045260246000fd5b60008160011c9050919050565b6000808291508390505b600185111561376d57808604811115613749576137486136e7565b5b60018516156137585780820291505b808102905061376685613716565b945061372d565b94509492505050565b6000826137865760019050613842565b816137945760009050613842565b81600181146137aa57600281146137b4576137e3565b6001915050613842565b60ff8411156137c6576137c56136e7565b5b8360020a9150848211156137dd576137dc6136e7565b5b50613842565b5060208310610133831016604e8410600b84101617156138185782820a905083811115613813576138126136e7565b5b613842565b6138258484846001613723565b9250905081840481111561383c5761383b6136e7565b5b81810290505b9392505050565b600061385482612b06565b915061385f83612b06565b925061388c7fffffffffffffffffffffffffffffffffffffffffffffffffffffffffffffffff8484613776565b905092915050565b600061389f82612b06565b91506138aa83612b06565b92508282026138b881612b06565b915082820484148315176138cf576138ce6136e7565b5b5092915050565b7f4e487b7100000000000000000000000000000000000000000000000000000000600052601260045260246000fd5b600061391082612b06565b915061391b83612b06565b92508261392b5761392a6138d6565b5b828204905092915050565b7f4552433732313a2063616c6c6572206973206e6f7420746f6b656e206f776e6560008201527f72206f7220617070726f76656400000000000000000000000000000000000000602082015250565b6000613992602d83612a5f565b915061399d82613936565b604082019050919050565b600060208201905081810360008301526139c181613985565b9050919050565b60006139d382612b06565b91506139de83612b06565b92508282039050818111156139f6576139f56136e7565b5b92915050565b6000613a0782612b06565b9150613a1283612b06565b925082613a2257613a216138d6565b5b828206905092915050565b7f4552433732313a20696e76616c696420746f6b656e2049440000000000000000600082015250565b6000613a63601883612a5f565b9150613a6e82613a2d565b602082019050919050565b60006020820190508181036000830152613a9281613a56565b9050919050565b6000613aa482612e52565b9150613aaf83612e52565b9250828201905060ff811115613ac857613ac76136e7565b5b92915050565b7f4552433732313a2061646472657373207a65726f206973206e6f74206120766160008201527f6c6964206f776e65720000000000000000000000000000000000000000000000602082015250565b6000613b2a602983612a5f565b9150613b3582613ace565b604082019050919050565b60006020820190508181036000830152613b5981613b1d565b9050919050565b600081905092915050565b6000613b7682612a54565b613b808185613b60565b9350613b90818560208601612a70565b80840191505092915050565b6000613ba88285613b6b565b9150613bb48284613b6b565b91508190509392505050565b7f4f776e61626c653a206e6577206f776e657220697320746865207a65726f206160008201527f6464726573730000000000000000000000000000000000000000000000000000602082015250565b6000613c1c602683612a5f565b9150613c2782613bc0565b604082019050919050565b60006020820190508181036000830152613c4b81613c0f565b9050919050565b7f4f776e61626c653a2063616c6c6572206973206e6f7420746865206f776e6572600082015250565b6000613c88602083612a5f565b9150613c9382613c52565b602082019050919050565b60006020820190508181036000830152613cb781613c7b565b9050919050565b7f45524337323155524953746f726167653a2055524920736574206f66206e6f6e60008201527f6578697374656e7420746f6b656e000000000000000000000000000000000000602082015250565b6000613d1a602e83612a5f565b9150613d2582613cbe565b604082019050919050565b60006020820190508181036000830152613d4981613d0d565b9050919050565b60008190508160005260206000209050919050565b60006020601f8301049050919050565b600082821b905092915050565b600060088302613db27fffffffffffffffffffffffffffffffffffffffffffffffffffffffffffffffff82613d75565b613dbc8683613d75565b95508019841693508086168417925050509392505050565b6000819050919050565b6000613df9613df4613def84612b06565b613dd4565b612b06565b9050919050565b6000819050919050565b613e1383613dde565b613e27613e1f82613e00565b848454613d82565b825550505050565b600090565b613e3c613e2f565b613e47818484613e0a565b505050565b5b81811015613e6b57613e60600082613e34565b600181019050613e4d565b5050565b601f821115613eb057613e8181613d50565b613e8a84613d65565b81016020851015613e99578190505b613ead613ea585613d65565b830182613e4c565b50505b505050565b600082821c905092915050565b6000613ed360001984600802613eb5565b1980831691505092915050565b6000613eec8383613ec2565b9150826002028217905092915050565b613f0582612a54565b67ffffffffffffffff811115613f1e57613f1d612c3b565b5b613f288254613494565b613f33828285613e6f565b600060209050601f831160018114613f665760008415613f54578287015190505b613f5e8582613ee0565b865550613fc6565b601f198416613f7486613d50565b60005b82811015613f9c57848901518255600182019150602085019450602081019050613f77565b86831015613fb95784890151613fb5601f891682613ec2565b8355505b6001600288020188555050505b505050505050565b6000606082019050613fe36000830186612dd5565b613ff06020830185612b9b565b613ffd6040830184612dd5565b949350505050565b7f4552433732313a207472616e736665722066726f6d20696e636f72726563742060008201527f6f776e6572000000000000000000000000000000000000000000000000000000602082015250565b6000614061602583612a5f565b915061406c82614005565b604082019050919050565b6000602082019050818103600083015261409081614054565b9050919050565b7f4552433732313a207472616e7366657220746f20746865207a65726f2061646460008201527f7265737300000000000000000000000000000000000000000000000000000000602082015250565b60006140f3602483612a5f565b91506140fe82614097565b604082019050919050565b60006020820190508181036000830152614122816140e6565b9050919050565b7f4552433732313a20617070726f766520746f2063616c6c657200000000000000600082015250565b600061415f601983612a5f565b915061416a82614129565b602082019050919050565b6000602082019050818103600083015261418e81614152565b9050919050565b7f4552433732313a207472616e7366657220746f206e6f6e20455243373231526560008201527f63656976657220696d706c656d656e7465720000000000000000000000000000602082015250565b60006141f1603283612a5f565b91506141fc82614195565b604082019050919050565b60006020820190508181036000830152614220816141e4565b9050919050565b600081519050919050565b600082825260208201905092915050565b600061424e82614227565b6142588185614232565b9350614268818560208601612a70565b61427181612a9a565b840191505092915050565b60006080820190506142916000830187612b9b565b61429e6020830186612b9b565b6142ab6040830185612dd5565b81810360608301526142bd8184614243565b905095945050505050565b6000815190506142d7816129c5565b92915050565b6000602082840312156142f3576142f261298f565b5b6000614301848285016142c8565b91505092915050565b7f4552433732313a206d696e7420746f20746865207a65726f2061646472657373600082015250565b6000614340602083612a5f565b915061434b8261430a565b602082019050919050565b6000602082019050818103600083015261436f81614333565b9050919050565b7f4552433732313a20746f6b656e20616c7265616479206d696e74656400000000600082015250565b60006143ac601c83612a5f565b91506143b782614376565b602082019050919050565b600060208201905081810360008301526143db8161439f565b905091905056fea2646970667358221220b169e2a05b093886746c347d537588aefa310a518d2a10b15fd04895b1f6bca864736f6c63430008120033",
  "linkReferences": {},
  "deployedLinkReferences": {}
}