{
  "_format": "hh-sol-artifact-1",
  "contractName": "EAvatar",
  "sourceName": "contracts/EAvatar.sol",
  "abi": [
    {
      "inputs": [
        {
          "internalType": "address",
          "name": "bond_issuer",
          "type": "address"
        }
      ],
      "stateMutability": "nonpayable",
      "type": "constructor"
    },
    {
      "anonymous": false,
      "inputs": [
        {
          "indexed": true,
          "internalType": "address",
          "name": "owner",
          "type": "address"
        },
        {
          "indexed": true,
          "internalType": "address",
          "name": "approved",
          "type": "address"
        },
        {
          "indexed": true,
          "internalType": "uint256",
          "name": "tokenId",
          "type": "uint256"
        }
      ],
      "name": "Approval",
      "type": "event"
    },
    {
      "anonymous": false,
      "inputs": [
        {
          "indexed": true,
          "internalType": "address",
          "name": "owner",
          "type": "address"
        },
        {
          "indexed": true,
          "internalType": "address",
          "name": "operator",
          "type": "address"
        },
        {
          "indexed": false,
          "internalType": "bool",
          "name": "approved",
          "type": "bool"
        }
      ],
      "name": "ApprovalForAll",
      "type": "event"
    },
    {
      "anonymous": false,
      "inputs": [
        {
          "indexed": false,
          "internalType": "uint256",
          "name": "_fromTokenId",
          "type": "uint256"
        },
        {
          "indexed": false,
          "internalType": "uint256",
          "name": "_toTokenId",
          "type": "uint256"
        }
      ],
      "name": "BatchMetadataUpdate",
      "type": "event"
    },
    {
      "anonymous": false,
      "inputs": [
        {
          "indexed": false,
          "internalType": "uint256",
          "name": "_tokenId",
          "type": "uint256"
        }
      ],
      "name": "MetadataUpdate",
      "type": "event"
    },
    {
      "anonymous": false,
      "inputs": [
        {
          "indexed": true,
          "internalType": "address",
          "name": "previousOwner",
          "type": "address"
        },
        {
          "indexed": true,
          "internalType": "address",
          "name": "newOwner",
          "type": "address"
        }
      ],
      "name": "OwnershipTransferred",
      "type": "event"
    },
    {
      "anonymous": false,
      "inputs": [
        {
          "indexed": true,
          "internalType": "address",
          "name": "from",
          "type": "address"
        },
        {
          "indexed": true,
          "internalType": "address",
          "name": "to",
          "type": "address"
        },
        {
          "indexed": true,
          "internalType": "uint256",
          "name": "tokenId",
          "type": "uint256"
        }
      ],
      "name": "Transfer",
      "type": "event"
    },
    {
      "anonymous": false,
      "inputs": [
        {
          "indexed": false,
          "internalType": "uint256",
          "name": "tokenId",
          "type": "uint256"
        },
        {
          "indexed": false,
          "internalType": "address",
          "name": "owner",
          "type": "address"
        },
        {
          "indexed": false,
          "internalType": "uint256",
          "name": "price",
          "type": "uint256"
        }
      ],
      "name": "nftItemCreated",
      "type": "event"
    },
    {
      "inputs": [
        {
          "internalType": "address",
          "name": "to",
          "type": "address"
        },
        {
          "internalType": "uint256",
          "name": "tokenId",
          "type": "uint256"
        }
      ],
      "name": "approve",
      "outputs": [],
      "stateMutability": "nonpayable",
      "type": "function"
    },
    {
      "inputs": [],
      "name": "availableNFTs",
      "outputs": [
        {
          "internalType": "bool",
          "name": "ans",
          "type": "bool"
        }
      ],
      "stateMutability": "view",
      "type": "function"
    },
    {
      "inputs": [
        {
          "internalType": "address",
          "name": "owner",
          "type": "address"
        }
      ],
      "name": "balanceOf",
      "outputs": [
        {
          "internalType": "uint256",
          "name": "",
          "type": "uint256"
        }
      ],
      "stateMutability": "view",
      "type": "function"
    },
    {
      "inputs": [],
      "name": "bondMatureAmount",
      "outputs": [
        {
          "internalType": "uint256",
          "name": "amount",
          "type": "uint256"
        }
      ],
      "stateMutability": "view",
      "type": "function"
    },
    {
      "inputs": [],
      "name": "calculateAccruedInterest",
      "outputs": [
        {
          "internalType": "uint256",
          "name": "",
          "type": "uint256"
        }
      ],
      "stateMutability": "view",
      "type": "function"
    },
    {
      "inputs": [
        {
          "internalType": "uint8",
          "name": "level",
          "type": "uint8"
        },
        {
          "internalType": "string",
          "name": "newURI",
          "type": "string"
        }
      ],
      "name": "changeCharURI",
      "outputs": [],
      "stateMutability": "nonpayable",
      "type": "function"
    },
    {
      "inputs": [
        {
          "internalType": "uint256",
          "name": "tokenId",
          "type": "uint256"
        },
        {
          "internalType": "address",
          "name": "owner",
          "type": "address"
        },
        {
          "internalType": "string",
          "name": "name",
          "type": "string"
        }
      ],
      "name": "changeCharacterName",
      "outputs": [],
      "stateMutability": "view",
      "type": "function"
    },
    {
      "inputs": [
        {
          "internalType": "uint256",
          "name": "tokenId",
          "type": "uint256"
        },
        {
          "internalType": "uint8",
          "name": "increase",
          "type": "uint8"
        }
      ],
      "name": "changeLevel",
      "outputs": [
        {
          "internalType": "uint8",
          "name": "newLevel",
          "type": "uint8"
        }
      ],
      "stateMutability": "nonpayable",
      "type": "function"
    },
    {
      "inputs": [
        {
          "internalType": "uint256",
          "name": "tokenId",
          "type": "uint256"
        },
        {
          "internalType": "address",
          "name": "owner",
          "type": "address"
        }
      ],
      "name": "evolveCharacter",
      "outputs": [],
      "stateMutability": "view",
      "type": "function"
    },
    {
      "inputs": [
        {
          "internalType": "uint256",
          "name": "tokenId",
          "type": "uint256"
        }
      ],
      "name": "evolveState",
      "outputs": [
        {
          "internalType": "uint8",
          "name": "evolve",
          "type": "uint8"
        },
        {
          "internalType": "string",
          "name": "uri",
          "type": "string"
        }
      ],
      "stateMutability": "view",
      "type": "function"
    },
    {
      "inputs": [
        {
          "internalType": "uint256",
          "name": "tokenId",
          "type": "uint256"
        }
      ],
      "name": "getApproved",
      "outputs": [
        {
          "internalType": "address",
          "name": "",
          "type": "address"
        }
      ],
      "stateMutability": "view",
      "type": "function"
    },
    {
      "inputs": [],
      "name": "getBaseURI",
      "outputs": [
        {
          "internalType": "string",
          "name": "",
          "type": "string"
        }
      ],
      "stateMutability": "view",
      "type": "function"
    },
    {
      "inputs": [],
      "name": "getBondInfo",
      "outputs": [
        {
          "components": [
            {
              "internalType": "address",
              "name": "bondIssuer",
              "type": "address"
            },
            {
              "internalType": "string",
              "name": "bondName",
              "type": "string"
            },
            {
              "internalType": "uint256",
              "name": "issueDate",
              "type": "uint256"
            },
            {
              "internalType": "uint256",
              "name": "maturityDate",
              "type": "uint256"
            },
            {
              "internalType": "uint256",
              "name": "interestPaymentPercent",
              "type": "uint256"
            },
            {
              "internalType": "uint256",
              "name": "periodOfPayment",
              "type": "uint256"
            },
            {
              "internalType": "uint256",
              "name": "faceValue",
              "type": "uint256"
            },
            {
              "internalType": "uint256",
              "name": "shift",
              "type": "uint256"
            },
            {
              "internalType": "uint256",
              "name": "supply",
              "type": "uint256"
            }
          ],
          "internalType": "struct EAvatar.EBond",
          "name": "bond",
          "type": "tuple"
        }
      ],
      "stateMutability": "view",
      "type": "function"
    },
    {
      "inputs": [],
      "name": "getIssuer",
      "outputs": [
        {
          "internalType": "address",
          "name": "issuer",
          "type": "address"
        }
      ],
      "stateMutability": "view",
      "type": "function"
    },
    {
      "inputs": [],
      "name": "getLatestId",
      "outputs": [
        {
          "internalType": "uint256",
          "name": "",
          "type": "uint256"
        }
      ],
      "stateMutability": "view",
      "type": "function"
    },
    {
      "inputs": [
        {
          "internalType": "uint256",
          "name": "tokenId",
          "type": "uint256"
        }
      ],
      "name": "getMetadata",
      "outputs": [
        {
          "components": [
            {
              "internalType": "uint256",
              "name": "tokenId",
              "type": "uint256"
            },
            {
              "internalType": "string",
              "name": "name",
              "type": "string"
            },
            {
              "internalType": "uint256",
              "name": "mintedAt",
              "type": "uint256"
            },
            {
              "internalType": "uint256",
              "name": "listing_price",
              "type": "uint256"
            },
            {
              "components": [
                {
                  "internalType": "string",
                  "name": "name",
                  "type": "string"
                },
                {
                  "internalType": "string",
                  "name": "characterURI",
                  "type": "string"
                },
                {
                  "internalType": "uint8",
                  "name": "hp",
                  "type": "uint8"
                },
                {
                  "internalType": "uint8",
                  "name": "ap",
                  "type": "uint8"
                },
                {
                  "internalType": "uint8",
                  "name": "level",
                  "type": "uint8"
                },
                {
                  "internalType": "uint8",
                  "name": "evolved",
                  "type": "uint8"
                }
              ],
              "internalType": "struct EAvatar.AvatarChar",
              "name": "character",
              "type": "tuple"
            },
            {
              "internalType": "address",
              "name": "ownerId",
              "type": "address"
            }
          ],
          "internalType": "struct EAvatar.EMetadata",
          "name": "item",
          "type": "tuple"
        }
      ],
      "stateMutability": "view",
      "type": "function"
    },
    {
      "inputs": [],
      "name": "getMintedCount",
      "outputs": [
        {
          "internalType": "uint256",
          "name": "num",
          "type": "uint256"
        }
      ],
      "stateMutability": "view",
      "type": "function"
    },
    {
      "inputs": [],
      "name": "interestPaymentAmount",
      "outputs": [
        {
          "internalType": "uint256",
          "name": "amount",
          "type": "uint256"
        }
      ],
      "stateMutability": "view",
      "type": "function"
    },
    {
      "inputs": [
        {
          "internalType": "address",
          "name": "owner",
          "type": "address"
        },
        {
          "internalType": "address",
          "name": "operator",
          "type": "address"
        }
      ],
      "name": "isApprovedForAll",
      "outputs": [
        {
          "internalType": "bool",
          "name": "",
          "type": "bool"
        }
      ],
      "stateMutability": "view",
      "type": "function"
    },
    {
      "inputs": [],
      "name": "isBondMatured",
      "outputs": [
        {
          "internalType": "bool",
          "name": "",
          "type": "bool"
        }
      ],
      "stateMutability": "view",
      "type": "function"
    },
    {
      "inputs": [],
      "name": "isInterestTime",
      "outputs": [
        {
          "internalType": "bool",
          "name": "",
          "type": "bool"
        }
      ],
      "stateMutability": "view",
      "type": "function"
    },
    {
      "inputs": [],
      "name": "matureCharacters",
      "outputs": [],
      "stateMutability": "nonpayable",
      "type": "function"
    },
    {
      "inputs": [
        {
          "internalType": "address",
          "name": "recipient",
          "type": "address"
        },
        {
          "internalType": "uint256",
          "name": "price",
          "type": "uint256"
        }
      ],
      "name": "mintNFT",
      "outputs": [
        {
          "internalType": "uint256",
          "name": "",
          "type": "uint256"
        }
      ],
      "stateMutability": "nonpayable",
      "type": "function"
    },
    {
      "inputs": [],
      "name": "name",
      "outputs": [
        {
          "internalType": "string",
          "name": "",
          "type": "string"
        }
      ],
      "stateMutability": "view",
      "type": "function"
    },
    {
      "inputs": [],
      "name": "owner",
      "outputs": [
        {
          "internalType": "address",
          "name": "",
          "type": "address"
        }
      ],
      "stateMutability": "view",
      "type": "function"
    },
    {
      "inputs": [
        {
          "internalType": "uint256",
          "name": "tokenId",
          "type": "uint256"
        }
      ],
      "name": "ownerOf",
      "outputs": [
        {
          "internalType": "address",
          "name": "",
          "type": "address"
        }
      ],
      "stateMutability": "view",
      "type": "function"
    },
    {
      "inputs": [],
      "name": "renounceOwnership",
      "outputs": [],
      "stateMutability": "nonpayable",
      "type": "function"
    },
    {
      "inputs": [
        {
          "internalType": "address",
          "name": "from",
          "type": "address"
        },
        {
          "internalType": "address",
          "name": "to",
          "type": "address"
        },
        {
          "internalType": "uint256",
          "name": "tokenId",
          "type": "uint256"
        }
      ],
      "name": "safeTransferFrom",
      "outputs": [],
      "stateMutability": "nonpayable",
      "type": "function"
    },
    {
      "inputs": [
        {
          "internalType": "address",
          "name": "from",
          "type": "address"
        },
        {
          "internalType": "address",
          "name": "to",
          "type": "address"
        },
        {
          "internalType": "uint256",
          "name": "tokenId",
          "type": "uint256"
        },
        {
          "internalType": "bytes",
          "name": "data",
          "type": "bytes"
        }
      ],
      "name": "safeTransferFrom",
      "outputs": [],
      "stateMutability": "nonpayable",
      "type": "function"
    },
    {
      "inputs": [
        {
          "internalType": "address",
          "name": "operator",
          "type": "address"
        },
        {
          "internalType": "bool",
          "name": "approved",
          "type": "bool"
        }
      ],
      "name": "setApprovalForAll",
      "outputs": [],
      "stateMutability": "nonpayable",
      "type": "function"
    },
    {
      "inputs": [
        {
          "internalType": "string",
          "name": "newURI",
          "type": "string"
        }
      ],
      "name": "setBaseURI",
      "outputs": [],
      "stateMutability": "nonpayable",
      "type": "function"
    },
    {
      "inputs": [
        {
          "internalType": "string",
          "name": "newURI",
          "type": "string"
        }
      ],
      "name": "setInactiveBaseURI",
      "outputs": [],
      "stateMutability": "nonpayable",
      "type": "function"
    },
    {
      "inputs": [
        {
          "internalType": "bytes4",
          "name": "interfaceId",
          "type": "bytes4"
        }
      ],
      "name": "supportsInterface",
      "outputs": [
        {
          "internalType": "bool",
          "name": "",
          "type": "bool"
        }
      ],
      "stateMutability": "view",
      "type": "function"
    },
    {
      "inputs": [],
      "name": "symbol",
      "outputs": [
        {
          "internalType": "string",
          "name": "",
          "type": "string"
        }
      ],
      "stateMutability": "view",
      "type": "function"
    },
    {
      "inputs": [
        {
          "internalType": "uint256",
          "name": "tokenId",
          "type": "uint256"
        }
      ],
      "name": "tokenURI",
      "outputs": [
        {
          "internalType": "string",
          "name": "",
          "type": "string"
        }
      ],
      "stateMutability": "view",
      "type": "function"
    },
    {
      "inputs": [
        {
          "internalType": "address",
          "name": "from",
          "type": "address"
        },
        {
          "internalType": "address",
          "name": "to",
          "type": "address"
        },
        {
          "internalType": "uint256",
          "name": "tokenId",
          "type": "uint256"
        }
      ],
      "name": "transfer",
      "outputs": [],
      "stateMutability": "nonpayable",
      "type": "function"
    },
    {
      "inputs": [
        {
          "internalType": "address",
          "name": "from",
          "type": "address"
        },
        {
          "internalType": "address",
          "name": "to",
          "type": "address"
        },
        {
          "internalType": "uint256",
          "name": "tokenId",
          "type": "uint256"
        }
      ],
      "name": "transferFrom",
      "outputs": [],
      "stateMutability": "nonpayable",
      "type": "function"
    },
    {
      "inputs": [
        {
          "internalType": "address",
          "name": "newOwner",
          "type": "address"
        }
      ],
      "name": "transferOwnership",
      "outputs": [],
      "stateMutability": "nonpayable",
      "type": "function"
    }
  ],
  "bytecode": "0x60806040526001601360006101000a81548160ff021916908360ff1602179055506040518060600160405280602e815260200162005595602e9139601590816200004a9190620006a2565b5060405180602001604052806000815250601690816200006b9190620006a2565b5060126000808152602001908152602001600020601790816200008f9190620007b6565b506040518060200160405280600081525060189081620000b09190620006a2565b50348015620000be57600080fd5b50604051620055c3380380620055c38339818101604052810190620000e4919062000921565b6040518060400160405280600781526020017f45417661746172000000000000000000000000000000000000000000000000008152506040518060400160405280600281526020017f45410000000000000000000000000000000000000000000000000000000000008152508160009081620001619190620006a2565b508060019081620001739190620006a2565b505050620001966200018a6200035a60201b60201c565b6200036260201b60201c565b6040518061012001604052808273ffffffffffffffffffffffffffffffffffffffff1681526020016040518060400160405280600a81526020017f452d426f6e64204f6e65000000000000000000000000000000000000000000008152508152602001428152602001636e71188081526020016005815260200162f0c29f8152602001620186a08152602001600281526020016103e8815250600960008201518160000160006101000a81548173ffffffffffffffffffffffffffffffffffffffff021916908373ffffffffffffffffffffffffffffffffffffffff16021790555060208201518160010190816200028f9190620006a2565b5060408201518160020155606082015181600301556080820151816004015560a0820151816005015560c0820151816006015560e0820151816007015561010082015181600801559050506040518060600160405280602e815260200162005539602e9139601260008081526020019081526020016000209081620003159190620006a2565b506040518060600160405280602e815260200162005567602e913960126000600181526020019081526020016000209081620003529190620006a2565b505062000953565b600033905090565b6000600760009054906101000a900473ffffffffffffffffffffffffffffffffffffffff16905081600760006101000a81548173ffffffffffffffffffffffffffffffffffffffff021916908373ffffffffffffffffffffffffffffffffffffffff1602179055508173ffffffffffffffffffffffffffffffffffffffff168173ffffffffffffffffffffffffffffffffffffffff167f8be0079c531659141344cd1fd0a4f28419497f9722a3daafe3b4186f6b6457e060405160405180910390a35050565b600081519050919050565b7f4e487b7100000000000000000000000000000000000000000000000000000000600052604160045260246000fd5b7f4e487b7100000000000000000000000000000000000000000000000000000000600052602260045260246000fd5b60006002820490506001821680620004aa57607f821691505b602082108103620004c057620004bf62000462565b5b50919050565b60008190508160005260206000209050919050565b60006020601f8301049050919050565b600082821b905092915050565b6000600883026200052a7fffffffffffffffffffffffffffffffffffffffffffffffffffffffffffffffff82620004eb565b620005368683620004eb565b95508019841693508086168417925050509392505050565b6000819050919050565b6000819050919050565b6000620005836200057d62000577846200054e565b62000558565b6200054e565b9050919050565b6000819050919050565b6200059f8362000562565b620005b7620005ae826200058a565b848454620004f8565b825550505050565b600090565b620005ce620005bf565b620005db81848462000594565b505050565b5b818110156200060357620005f7600082620005c4565b600181019050620005e1565b5050565b601f82111562000652576200061c81620004c6565b6200062784620004db565b8101602085101562000637578190505b6200064f6200064685620004db565b830182620005e0565b50505b505050565b600082821c905092915050565b6000620006776000198460080262000657565b1980831691505092915050565b600062000692838362000664565b9150826002028217905092915050565b620006ad8262000428565b67ffffffffffffffff811115620006c957620006c862000433565b5b620006d5825462000491565b620006e282828562000607565b600060209050601f8311600181146200071a576000841562000705578287015190505b62000711858262000684565b86555062000781565b601f1984166200072a86620004c6565b60005b8281101562000754578489015182556001820191506020850194506020810190506200072d565b8683101562000774578489015162000770601f89168262000664565b8355505b6001600288020188555050505b505050505050565b6000815490506200079a8162000491565b9050919050565b60008190508160005260206000209050919050565b818103620007c6575050620008b5565b620007d18262000789565b67ffffffffffffffff811115620007ed57620007ec62000433565b5b620007f9825462000491565b6200080682828562000607565b6000601f8311600181146200083a576000841562000825578287015490505b62000831858262000684565b865550620008ae565b601f1984166200084a87620007a1565b96506200085786620004c6565b60005b8281101562000881578489015482556001820191506001850194506020810190506200085a565b86831015620008a157848901546200089d601f89168262000664565b8355505b6001600288020188555050505b5050505050505b565b600080fd5b600073ffffffffffffffffffffffffffffffffffffffff82169050919050565b6000620008e982620008bc565b9050919050565b620008fb81620008dc565b81146200090757600080fd5b50565b6000815190506200091b81620008f0565b92915050565b6000602082840312156200093a5762000939620008b7565b5b60006200094a848285016200090a565b91505092915050565b614bd680620009636000396000f3fe608060405234801561001057600080fd5b50600436106102325760003560e01c8063715018a611610130578063b88d4fde116100b8578063ea317fff1161007c578063ea317fff1461068e578063ebc9bd3b146106ac578063eff91c7e146106ca578063f1645238146106e8578063f2fde38b1461070457610232565b8063b88d4fde146105d8578063beabacc8146105f4578063c87b56dd14610610578063d5070b3e14610640578063e985e9c51461065e57610232565b806395d89b41116100ff57806395d89b4114610536578063a22cb46514610554578063a31b115f14610570578063a574cea41461058c578063a8926f3c146105bc57610232565b8063715018a6146104e6578063729a1a87146104f057806388456b7b1461050e5780638da5cb5b1461051857610232565b806337e08699116101be57806355f804b31161018257806355f804b31461041c5780636352211e146104385780636cee5e2b1461046857806370a0823114610498578063714c5398146104c857610232565b806337e08699146103765780633c168eab146103945780633fb3ff11146103c457806342842e0e146103e257806352556421146103fe57610232565b8063095ea7b311610205578063095ea7b3146102d35780630e096aa4146102ef5780631ed54e781461030b57806323b872dd146103295780632b55ec8d1461034557610232565b806301ffc9a71461023757806305f315721461026757806306fdde0314610285578063081812fc146102a3575b600080fd5b610251600480360381019061024c9190613127565b610720565b60405161025e919061316f565b60405180910390f35b61026f610781565b60405161027c919061316f565b60405180910390f35b61028d610791565b60405161029a919061321a565b60405180910390f35b6102bd60048036038101906102b89190613272565b610823565b6040516102ca91906132e0565b60405180910390f35b6102ed60048036038101906102e89190613327565b610869565b005b610309600480360381019061030491906134d5565b610980565b005b6103136109b0565b6040516103209190613540565b60405180910390f35b610343600480360381019061033e919061355b565b6109ff565b005b61035f600480360381019061035a9190613272565b610a5f565b60405161036d9291906135bd565b60405180910390f35b61037e610c34565b60405161038b919061316f565b60405180910390f35b6103ae60048036038101906103a99190613327565b610c5e565b6040516103bb9190613540565b60405180910390f35b6103cc610d37565b6040516103d99190613540565b60405180910390f35b6103fc60048036038101906103f7919061355b565b610d99565b005b610406610db9565b60405161041391906132e0565b60405180910390f35b610436600480360381019061043191906135ed565b610de6565b005b610452600480360381019061044d9190613272565b610e01565b60405161045f91906132e0565b60405180910390f35b610482600480360381019061047d9190613636565b610e87565b60405161048f9190613676565b60405180910390f35b6104b260048036038101906104ad9190613691565b610f05565b6040516104bf9190613540565b60405180910390f35b6104d0610fbc565b6040516104dd919061321a565b60405180910390f35b6104ee61104e565b005b6104f8611062565b6040516105059190613540565b60405180910390f35b61051661106f565b005b61052061111d565b60405161052d91906132e0565b60405180910390f35b61053e611147565b60405161054b919061321a565b60405180910390f35b61056e600480360381019061056991906136ea565b6111d9565b005b61058a600480360381019061058591906135ed565b6111ef565b005b6105a660048036038101906105a19190613272565b61120a565b6040516105b391906138c1565b60405180910390f35b6105d660048036038101906105d191906138e3565b6114e9565b005b6105f260048036038101906105ed91906139c4565b6117ff565b005b61060e6004803603810190610609919061355b565b611861565b005b61062a60048036038101906106259190613272565b6118c6565b604051610637919061321a565b60405180910390f35b6106486119d8565b6040516106559190613b0c565b60405180910390f35b61067860048036038101906106739190613b2e565b611b21565b604051610685919061316f565b60405180910390f35b610696611bb5565b6040516106a3919061316f565b60405180910390f35b6106b4611bc4565b6040516106c19190613540565b60405180910390f35b6106d2611bd5565b6040516106df9190613540565b60405180910390f35b61070260048036038101906106fd9190613b6e565b611be6565b005b61071e60048036038101906107199190613691565b611c46565b005b6000634906490660e01b7bffffffffffffffffffffffffffffffffffffffffffffffffffffffff1916827bffffffffffffffffffffffffffffffffffffffffffffffffffffffff1916148061077a575061077982611cc9565b5b9050919050565b6000600960030154421015905090565b6060600080546107a090613c0c565b80601f01602080910402602001604051908101604052809291908181526020018280546107cc90613c0c565b80156108195780601f106107ee57610100808354040283529160200191610819565b820191906000526020600020905b8154815290600101906020018083116107fc57829003601f168201915b5050505050905090565b600061082e82611dab565b6004600083815260200190815260200160002060009054906101000a900473ffffffffffffffffffffffffffffffffffffffff169050919050565b600061087482610e01565b90508073ffffffffffffffffffffffffffffffffffffffff168373ffffffffffffffffffffffffffffffffffffffff16036108e4576040517f08c379a00000000000000000000000000000000000000000000000000000000081526004016108db90613caf565b60405180910390fd5b8073ffffffffffffffffffffffffffffffffffffffff16610903611df6565b73ffffffffffffffffffffffffffffffffffffffff16148061093257506109318161092c611df6565b611b21565b5b610971576040517f08c379a000000000000000000000000000000000000000000000000000000000815260040161096890613d41565b60405180910390fd5b61097b8383611dfe565b505050565b610988611eb7565b80601260008460ff16815260200190815260200160002090816109ab9190613f0d565b505050565b60006109ba610781565b6109f757600960070154600a6109d09190614141565b6009600401546009600601546109e6919061418c565b6109f091906141fd565b90506109fc565b600090505b90565b610a10610a0a611df6565b82611f35565b610a4f576040517f08c379a0000000000000000000000000000000000000000000000000000000008152600401610a46906142a0565b60405180910390fd5b610a5a838383611fca565b505050565b600060606000601460008581526020019081526020016000206004016040518060c0016040529081600082018054610a9690613c0c565b80601f0160208091040260200160405190810160405280929190818152602001828054610ac290613c0c565b8015610b0f5780601f10610ae457610100808354040283529160200191610b0f565b820191906000526020600020905b815481529060010190602001808311610af257829003601f168201915b50505050508152602001600182018054610b2890613c0c565b80601f0160208091040260200160405190810160405280929190818152602001828054610b5490613c0c565b8015610ba15780601f10610b7657610100808354040283529160200191610ba1565b820191906000526020600020905b815481529060010190602001808311610b8457829003601f168201915b505050505081526020016002820160009054906101000a900460ff1660ff1660ff1681526020016002820160019054906101000a900460ff1660ff1660ff1681526020016002820160029054906101000a900460ff1660ff1660ff1681526020016002820160039054906101000a900460ff1660ff1660ff168152505090508060a0015181602001519250925050915091565b60008060096005015460096002015442610c4e91906142c0565b610c5891906142f4565b14905090565b6000610c68611eb7565b600960060154821015610cb0576040517f08c379a0000000000000000000000000000000000000000000000000000000008152600401610ca790614371565b60405180910390fd5b600960080154610cc060086122c3565b10610d00576040517f08c379a0000000000000000000000000000000000000000000000000000000008152600401610cf790614403565b60405180910390fd5b610d0a60086122d1565b6000610d1660086122c3565b9050610d2284826122e7565b610d2d818486612305565b8091505092915050565b6000610d41610781565b610d91576000610d4f6109b0565b9050600060096005015460096002015442610d6a91906142c0565b610d7491906141fd565b905060008183610d84919061418c565b9050809350505050610d96565b600090505b90565b610db4838383604051806020016040528060008152506117ff565b505050565b6000600960000160009054906101000a900473ffffffffffffffffffffffffffffffffffffffff16905090565b610dee611eb7565b8060159081610dfd9190613f0d565b5050565b600080610e0d836124eb565b9050600073ffffffffffffffffffffffffffffffffffffffff168173ffffffffffffffffffffffffffffffffffffffff1603610e7e576040517f08c379a0000000000000000000000000000000000000000000000000000000008152600401610e759061446f565b60405180910390fd5b80915050919050565b6000816014600085815260200190815260200160002060040160020160028282829054906101000a900460ff16610ebe919061448f565b92506101000a81548160ff021916908360ff1602179055506014600084815260200190815260200160002060040160020160029054906101000a900460ff16905092915050565b60008073ffffffffffffffffffffffffffffffffffffffff168273ffffffffffffffffffffffffffffffffffffffff1603610f75576040517f08c379a0000000000000000000000000000000000000000000000000000000008152600401610f6c90614536565b60405180910390fd5b600360008373ffffffffffffffffffffffffffffffffffffffff1673ffffffffffffffffffffffffffffffffffffffff168152602001908152602001600020549050919050565b606060158054610fcb90613c0c565b80601f0160208091040260200160405190810160405280929190818152602001828054610ff790613c0c565b80156110445780601f1061101957610100808354040283529160200191611044565b820191906000526020600020905b81548152906001019060200180831161102757829003601f168201915b5050505050905090565b611056611eb7565b6110606000612528565b565b6000600960060154905090565b611077611eb7565b61107f610781565b61108857600080fd5b61111b6016805461109890613c0c565b80601f01602080910402602001604051908101604052809291908181526020018280546110c490613c0c565b80156111115780601f106110e657610100808354040283529160200191611111565b820191906000526020600020905b8154815290600101906020018083116110f457829003601f168201915b5050505050610de6565b565b6000600760009054906101000a900473ffffffffffffffffffffffffffffffffffffffff16905090565b60606001805461115690613c0c565b80601f016020809104026020016040519081016040528092919081815260200182805461118290613c0c565b80156111cf5780601f106111a4576101008083540402835291602001916111cf565b820191906000526020600020905b8154815290600101906020018083116111b257829003601f168201915b5050505050905090565b6111eb6111e4611df6565b83836125ee565b5050565b6111f7611eb7565b80601690816112069190613f0d565b5050565b611212612fc5565b601460008381526020019081526020016000206040518060c00160405290816000820154815260200160018201805461124a90613c0c565b80601f016020809104026020016040519081016040528092919081815260200182805461127690613c0c565b80156112c35780601f10611298576101008083540402835291602001916112c3565b820191906000526020600020905b8154815290600101906020018083116112a657829003601f168201915b505050505081526020016002820154815260200160038201548152602001600482016040518060c001604052908160008201805461130090613c0c565b80601f016020809104026020016040519081016040528092919081815260200182805461132c90613c0c565b80156113795780601f1061134e57610100808354040283529160200191611379565b820191906000526020600020905b81548152906001019060200180831161135c57829003601f168201915b5050505050815260200160018201805461139290613c0c565b80601f01602080910402602001604051908101604052809291908181526020018280546113be90613c0c565b801561140b5780601f106113e05761010080835404028352916020019161140b565b820191906000526020600020905b8154815290600101906020018083116113ee57829003601f168201915b505050505081526020016002820160009054906101000a900460ff1660ff1660ff1681526020016002820160019054906101000a900460ff1660ff1660ff1681526020016002820160029054906101000a900460ff1660ff1660ff1681526020016002820160039054906101000a900460ff1660ff1660ff168152505081526020016007820160009054906101000a900473ffffffffffffffffffffffffffffffffffffffff1673ffffffffffffffffffffffffffffffffffffffff1673ffffffffffffffffffffffffffffffffffffffff16815250509050919050565b8073ffffffffffffffffffffffffffffffffffffffff1661150983610e01565b73ffffffffffffffffffffffffffffffffffffffff161461152957600080fd5b6000601460008481526020019081526020016000206004016040518060c001604052908160008201805461155c90613c0c565b80601f016020809104026020016040519081016040528092919081815260200182805461158890613c0c565b80156115d55780601f106115aa576101008083540402835291602001916115d5565b820191906000526020600020905b8154815290600101906020018083116115b857829003601f168201915b505050505081526020016001820180546115ee90613c0c565b80601f016020809104026020016040519081016040528092919081815260200182805461161a90613c0c565b80156116675780601f1061163c57610100808354040283529160200191611667565b820191906000526020600020905b81548152906001019060200180831161164a57829003601f168201915b505050505081526020016002820160009054906101000a900460ff1660ff1660ff1681526020016002820160019054906101000a900460ff1660ff1660ff1681526020016002820160029054906101000a900460ff1660ff1660ff1681526020016002820160039054906101000a900460ff1660ff1660ff168152505090508060a0015160ff16600a82608001516116ff9190614556565b60ff161180156117275750601360009054906101000a900460ff1660ff168160a0015160ff16105b156117fa5760018160a00181815161173f919061448f565b91509060ff16908160ff1681525050601260008260a0015160ff168152602001908152602001600020805461177390613c0c565b80601f016020809104026020016040519081016040528092919081815260200182805461179f90613c0c565b80156117ec5780601f106117c1576101008083540402835291602001916117ec565b820191906000526020600020905b8154815290600101906020018083116117cf57829003601f168201915b505050505081602001819052505b505050565b61181061180a611df6565b83611f35565b61184f576040517f08c379a0000000000000000000000000000000000000000000000000000000008152600401611846906142a0565b60405180910390fd5b61185b8484848461275a565b50505050565b816014600083815260200190815260200160002060070160006101000a81548173ffffffffffffffffffffffffffffffffffffffff021916908373ffffffffffffffffffffffffffffffffffffffff1602179055506118c1838383610d99565b505050565b60606118d182611dab565b60006006600084815260200190815260200160002080546118f190613c0c565b80601f016020809104026020016040519081016040528092919081815260200182805461191d90613c0c565b801561196a5780601f1061193f5761010080835404028352916020019161196a565b820191906000526020600020905b81548152906001019060200180831161194d57829003601f168201915b50505050509050600061197b6127b6565b905060008151036119905781925050506119d3565b6000825111156119c55780826040516020016119ad9291906145c3565b604051602081830303815290604052925050506119d3565b6119ce846127cd565b925050505b919050565b6119e0613017565b6009604051806101200160405290816000820160009054906101000a900473ffffffffffffffffffffffffffffffffffffffff1673ffffffffffffffffffffffffffffffffffffffff1673ffffffffffffffffffffffffffffffffffffffff168152602001600182018054611a5490613c0c565b80601f0160208091040260200160405190810160405280929190818152602001828054611a8090613c0c565b8015611acd5780601f10611aa257610100808354040283529160200191611acd565b820191906000526020600020905b815481529060010190602001808311611ab057829003601f168201915b50505050508152602001600282015481526020016003820154815260200160048201548152602001600582015481526020016006820154815260200160078201548152602001600882015481525050905090565b6000600560008473ffffffffffffffffffffffffffffffffffffffff1673ffffffffffffffffffffffffffffffffffffffff16815260200190815260200160002060008373ffffffffffffffffffffffffffffffffffffffff1673ffffffffffffffffffffffffffffffffffffffff16815260200190815260200160002060009054906101000a900460ff16905092915050565b60008060096008015411905090565b6000611bd060086122c3565b905090565b6000611be160086122c3565b905090565b8173ffffffffffffffffffffffffffffffffffffffff16611c0684610e01565b73ffffffffffffffffffffffffffffffffffffffff1614611c2657600080fd5b6000611c318461120a565b90508181608001516000018190525050505050565b611c4e611eb7565b600073ffffffffffffffffffffffffffffffffffffffff168173ffffffffffffffffffffffffffffffffffffffff1603611cbd576040517f08c379a0000000000000000000000000000000000000000000000000000000008152600401611cb490614659565b60405180910390fd5b611cc681612528565b50565b60007f80ac58cd000000000000000000000000000000000000000000000000000000007bffffffffffffffffffffffffffffffffffffffffffffffffffffffff1916827bffffffffffffffffffffffffffffffffffffffffffffffffffffffff19161480611d9457507f5b5e139f000000000000000000000000000000000000000000000000000000007bffffffffffffffffffffffffffffffffffffffffffffffffffffffff1916827bffffffffffffffffffffffffffffffffffffffffffffffffffffffff1916145b80611da45750611da382612835565b5b9050919050565b611db48161289f565b611df3576040517f08c379a0000000000000000000000000000000000000000000000000000000008152600401611dea9061446f565b60405180910390fd5b50565b600033905090565b816004600083815260200190815260200160002060006101000a81548173ffffffffffffffffffffffffffffffffffffffff021916908373ffffffffffffffffffffffffffffffffffffffff160217905550808273ffffffffffffffffffffffffffffffffffffffff16611e7183610e01565b73ffffffffffffffffffffffffffffffffffffffff167f8c5be1e5ebec7d5bd14f71427d1e84f3dd0314c0f7b2291e5b200ac8c7c3b92560405160405180910390a45050565b611ebf611df6565b73ffffffffffffffffffffffffffffffffffffffff16611edd61111d565b73ffffffffffffffffffffffffffffffffffffffff1614611f33576040517f08c379a0000000000000000000000000000000000000000000000000000000008152600401611f2a906146c5565b60405180910390fd5b565b600080611f4183610e01565b90508073ffffffffffffffffffffffffffffffffffffffff168473ffffffffffffffffffffffffffffffffffffffff161480611f835750611f828185611b21565b5b80611fc157508373ffffffffffffffffffffffffffffffffffffffff16611fa984610823565b73ffffffffffffffffffffffffffffffffffffffff16145b91505092915050565b8273ffffffffffffffffffffffffffffffffffffffff16611fea82610e01565b73ffffffffffffffffffffffffffffffffffffffff1614612040576040517f08c379a000000000000000000000000000000000000000000000000000000000815260040161203790614757565b60405180910390fd5b600073ffffffffffffffffffffffffffffffffffffffff168273ffffffffffffffffffffffffffffffffffffffff16036120af576040517f08c379a00000000000000000000000000000000000000000000000000000000081526004016120a6906147e9565b60405180910390fd5b6120bc83838360016128e0565b8273ffffffffffffffffffffffffffffffffffffffff166120dc82610e01565b73ffffffffffffffffffffffffffffffffffffffff1614612132576040517f08c379a000000000000000000000000000000000000000000000000000000000815260040161212990614757565b60405180910390fd5b6004600082815260200190815260200160002060006101000a81549073ffffffffffffffffffffffffffffffffffffffff02191690556001600360008573ffffffffffffffffffffffffffffffffffffffff1673ffffffffffffffffffffffffffffffffffffffff168152602001908152602001600020600082825403925050819055506001600360008473ffffffffffffffffffffffffffffffffffffffff1673ffffffffffffffffffffffffffffffffffffffff16815260200190815260200160002060008282540192505081905550816002600083815260200190815260200160002060006101000a81548173ffffffffffffffffffffffffffffffffffffffff021916908373ffffffffffffffffffffffffffffffffffffffff160217905550808273ffffffffffffffffffffffffffffffffffffffff168473ffffffffffffffffffffffffffffffffffffffff167fddf252ad1be2c89b69c2b068fc378daa952ba7f163c4a11628f55a4df523b3ef60405160405180910390a46122be83838360016128e6565b505050565b600081600001549050919050565b6001816000016000828254019250508190555050565b6123018282604051806020016040528060008152506128ec565b5050565b6040518060c0016040528084815260200160405180602001604052806000815250815260200142815260200183815260200161234085612947565b81526020018273ffffffffffffffffffffffffffffffffffffffff16815250601460008581526020019081526020016000206000820151816000015560208201518160010190816123919190613f0d565b50604082015181600201556060820151816003015560808201518160040160008201518160000190816123c49190613f0d565b5060208201518160010190816123da9190613f0d565b5060408201518160020160006101000a81548160ff021916908360ff16021790555060608201518160020160016101000a81548160ff021916908360ff16021790555060808201518160020160026101000a81548160ff021916908360ff16021790555060a08201518160020160036101000a81548160ff021916908360ff160217905550505060a08201518160070160006101000a81548173ffffffffffffffffffffffffffffffffffffffff021916908373ffffffffffffffffffffffffffffffffffffffff1602179055509050507f42e22845cdfee2da8f8e56b8d8f9807a12fd6906d54b388fe7ec9d2329e70b3e8382846040516124de93929190614809565b60405180910390a1505050565b60006002600083815260200190815260200160002060009054906101000a900473ffffffffffffffffffffffffffffffffffffffff169050919050565b6000600760009054906101000a900473ffffffffffffffffffffffffffffffffffffffff16905081600760006101000a81548173ffffffffffffffffffffffffffffffffffffffff021916908373ffffffffffffffffffffffffffffffffffffffff1602179055508173ffffffffffffffffffffffffffffffffffffffff168173ffffffffffffffffffffffffffffffffffffffff167f8be0079c531659141344cd1fd0a4f28419497f9722a3daafe3b4186f6b6457e060405160405180910390a35050565b8173ffffffffffffffffffffffffffffffffffffffff168373ffffffffffffffffffffffffffffffffffffffff160361265c576040517f08c379a00000000000000000000000000000000000000000000000000000000081526004016126539061488c565b60405180910390fd5b80600560008573ffffffffffffffffffffffffffffffffffffffff1673ffffffffffffffffffffffffffffffffffffffff16815260200190815260200160002060008473ffffffffffffffffffffffffffffffffffffffff1673ffffffffffffffffffffffffffffffffffffffff16815260200190815260200160002060006101000a81548160ff0219169083151502179055508173ffffffffffffffffffffffffffffffffffffffff168373ffffffffffffffffffffffffffffffffffffffff167f17307eab39ab6107e8899845ad3d59bd9653f200f220920489ca2b5937696c318360405161274d919061316f565b60405180910390a3505050565b612765848484611fca565b612771848484846129dd565b6127b0576040517f08c379a00000000000000000000000000000000000000000000000000000000081526004016127a79061491e565b60405180910390fd5b50505050565b606060405180602001604052806000815250905090565b60606127d882611dab565b60006127e26127b6565b90506000815111612802576040518060200160405280600081525061282d565b8061280c84612b64565b60405160200161281d9291906145c3565b6040516020818303038152906040525b915050919050565b60007f01ffc9a7000000000000000000000000000000000000000000000000000000007bffffffffffffffffffffffffffffffffffffffffffffffffffffffff1916827bffffffffffffffffffffffffffffffffffffffffffffffffffffffff1916149050919050565b60008073ffffffffffffffffffffffffffffffffffffffff166128c1836124eb565b73ffffffffffffffffffffffffffffffffffffffff1614159050919050565b50505050565b50505050565b6128f68383612c32565b61290360008484846129dd565b612942576040517f08c379a00000000000000000000000000000000000000000000000000000000081526004016129399061491e565b60405180910390fd5b505050565b61294f613079565b6040518060c001604052806040518060200160405280600081525081526020016012600080815260200190815260200160002061298b85612b64565b60405160200161299c9291906149c1565b6040516020818303038152906040528152602001600a60ff168152602001600a60ff168152602001600060ff168152602001600060ff168152509050919050565b60006129fe8473ffffffffffffffffffffffffffffffffffffffff16612e4f565b15612b57578373ffffffffffffffffffffffffffffffffffffffff1663150b7a02612a27611df6565b8786866040518563ffffffff1660e01b8152600401612a499493929190614a3a565b6020604051808303816000875af1925050508015612a8557506040513d601f19601f82011682018060405250810190612a829190614a9b565b60015b612b07573d8060008114612ab5576040519150601f19603f3d011682016040523d82523d6000602084013e612aba565b606091505b506000815103612aff576040517f08c379a0000000000000000000000000000000000000000000000000000000008152600401612af69061491e565b60405180910390fd5b805181602001fd5b63150b7a0260e01b7bffffffffffffffffffffffffffffffffffffffffffffffffffffffff1916817bffffffffffffffffffffffffffffffffffffffffffffffffffffffff191614915050612b5c565b600190505b949350505050565b606060006001612b7384612e72565b01905060008167ffffffffffffffff811115612b9257612b916133aa565b5b6040519080825280601f01601f191660200182016040528015612bc45781602001600182028036833780820191505090505b509050600082602001820190505b600115612c27578080600190039150507f3031323334353637383961626364656600000000000000000000000000000000600a86061a8153600a8581612c1b57612c1a6141ce565b5b04945060008503612bd2575b819350505050919050565b600073ffffffffffffffffffffffffffffffffffffffff168273ffffffffffffffffffffffffffffffffffffffff1603612ca1576040517f08c379a0000000000000000000000000000000000000000000000000000000008152600401612c9890614b14565b60405180910390fd5b612caa8161289f565b15612cea576040517f08c379a0000000000000000000000000000000000000000000000000000000008152600401612ce190614b80565b60405180910390fd5b612cf86000838360016128e0565b612d018161289f565b15612d41576040517f08c379a0000000000000000000000000000000000000000000000000000000008152600401612d3890614b80565b60405180910390fd5b6001600360008473ffffffffffffffffffffffffffffffffffffffff1673ffffffffffffffffffffffffffffffffffffffff16815260200190815260200160002060008282540192505081905550816002600083815260200190815260200160002060006101000a81548173ffffffffffffffffffffffffffffffffffffffff021916908373ffffffffffffffffffffffffffffffffffffffff160217905550808273ffffffffffffffffffffffffffffffffffffffff16600073ffffffffffffffffffffffffffffffffffffffff167fddf252ad1be2c89b69c2b068fc378daa952ba7f163c4a11628f55a4df523b3ef60405160405180910390a4612e4b6000838360016128e6565b5050565b6000808273ffffffffffffffffffffffffffffffffffffffff163b119050919050565b600080600090507a184f03e93ff9f4daa797ed6e38ed64bf6a1f0100000000000000008310612ed0577a184f03e93ff9f4daa797ed6e38ed64bf6a1f0100000000000000008381612ec657612ec56141ce565b5b0492506040810190505b6d04ee2d6d415b85acef81000000008310612f0d576d04ee2d6d415b85acef81000000008381612f0357612f026141ce565b5b0492506020810190505b662386f26fc100008310612f3c57662386f26fc100008381612f3257612f316141ce565b5b0492506010810190505b6305f5e1008310612f65576305f5e1008381612f5b57612f5a6141ce565b5b0492506008810190505b6127108310612f8a576127108381612f8057612f7f6141ce565b5b0492506004810190505b60648310612fad5760648381612fa357612fa26141ce565b5b0492506002810190505b600a8310612fbc576001810190505b80915050919050565b6040518060c0016040528060008152602001606081526020016000815260200160008152602001612ff4613079565b8152602001600073ffffffffffffffffffffffffffffffffffffffff1681525090565b604051806101200160405280600073ffffffffffffffffffffffffffffffffffffffff16815260200160608152602001600081526020016000815260200160008152602001600081526020016000815260200160008152602001600081525090565b6040518060c001604052806060815260200160608152602001600060ff168152602001600060ff168152602001600060ff168152602001600060ff1681525090565b6000604051905090565b600080fd5b600080fd5b60007fffffffff0000000000000000000000000000000000000000000000000000000082169050919050565b613104816130cf565b811461310f57600080fd5b50565b600081359050613121816130fb565b92915050565b60006020828403121561313d5761313c6130c5565b5b600061314b84828501613112565b91505092915050565b60008115159050919050565b61316981613154565b82525050565b60006020820190506131846000830184613160565b92915050565b600081519050919050565b600082825260208201905092915050565b60005b838110156131c45780820151818401526020810190506131a9565b60008484015250505050565b6000601f19601f8301169050919050565b60006131ec8261318a565b6131f68185613195565b93506132068185602086016131a6565b61320f816131d0565b840191505092915050565b6000602082019050818103600083015261323481846131e1565b905092915050565b6000819050919050565b61324f8161323c565b811461325a57600080fd5b50565b60008135905061326c81613246565b92915050565b600060208284031215613288576132876130c5565b5b60006132968482850161325d565b91505092915050565b600073ffffffffffffffffffffffffffffffffffffffff82169050919050565b60006132ca8261329f565b9050919050565b6132da816132bf565b82525050565b60006020820190506132f560008301846132d1565b92915050565b613304816132bf565b811461330f57600080fd5b50565b600081359050613321816132fb565b92915050565b6000806040838503121561333e5761333d6130c5565b5b600061334c85828601613312565b925050602061335d8582860161325d565b9150509250929050565b600060ff82169050919050565b61337d81613367565b811461338857600080fd5b50565b60008135905061339a81613374565b92915050565b600080fd5b600080fd5b7f4e487b7100000000000000000000000000000000000000000000000000000000600052604160045260246000fd5b6133e2826131d0565b810181811067ffffffffffffffff82111715613401576134006133aa565b5b80604052505050565b60006134146130bb565b905061342082826133d9565b919050565b600067ffffffffffffffff8211156134405761343f6133aa565b5b613449826131d0565b9050602081019050919050565b82818337600083830152505050565b600061347861347384613425565b61340a565b905082815260208101848484011115613494576134936133a5565b5b61349f848285613456565b509392505050565b600082601f8301126134bc576134bb6133a0565b5b81356134cc848260208601613465565b91505092915050565b600080604083850312156134ec576134eb6130c5565b5b60006134fa8582860161338b565b925050602083013567ffffffffffffffff81111561351b5761351a6130ca565b5b613527858286016134a7565b9150509250929050565b61353a8161323c565b82525050565b60006020820190506135556000830184613531565b92915050565b600080600060608486031215613574576135736130c5565b5b600061358286828701613312565b935050602061359386828701613312565b92505060406135a48682870161325d565b9150509250925092565b6135b781613367565b82525050565b60006040820190506135d260008301856135ae565b81810360208301526135e481846131e1565b90509392505050565b600060208284031215613603576136026130c5565b5b600082013567ffffffffffffffff811115613621576136206130ca565b5b61362d848285016134a7565b91505092915050565b6000806040838503121561364d5761364c6130c5565b5b600061365b8582860161325d565b925050602061366c8582860161338b565b9150509250929050565b600060208201905061368b60008301846135ae565b92915050565b6000602082840312156136a7576136a66130c5565b5b60006136b584828501613312565b91505092915050565b6136c781613154565b81146136d257600080fd5b50565b6000813590506136e4816136be565b92915050565b60008060408385031215613701576137006130c5565b5b600061370f85828601613312565b9250506020613720858286016136d5565b9150509250929050565b6137338161323c565b82525050565b600082825260208201905092915050565b60006137558261318a565b61375f8185613739565b935061376f8185602086016131a6565b613778816131d0565b840191505092915050565b61378c81613367565b82525050565b600060c08301600083015184820360008601526137af828261374a565b915050602083015184820360208601526137c9828261374a565b91505060408301516137de6040860182613783565b5060608301516137f16060860182613783565b5060808301516138046080860182613783565b5060a083015161381760a0860182613783565b508091505092915050565b61382b816132bf565b82525050565b600060c083016000830151613849600086018261372a565b5060208301518482036020860152613861828261374a565b9150506040830151613876604086018261372a565b506060830151613889606086018261372a565b50608083015184820360808601526138a18282613792565b91505060a08301516138b660a0860182613822565b508091505092915050565b600060208201905081810360008301526138db8184613831565b905092915050565b600080604083850312156138fa576138f96130c5565b5b60006139088582860161325d565b925050602061391985828601613312565b9150509250929050565b600067ffffffffffffffff82111561393e5761393d6133aa565b5b613947826131d0565b9050602081019050919050565b600061396761396284613923565b61340a565b905082815260208101848484011115613983576139826133a5565b5b61398e848285613456565b509392505050565b600082601f8301126139ab576139aa6133a0565b5b81356139bb848260208601613954565b91505092915050565b600080600080608085870312156139de576139dd6130c5565b5b60006139ec87828801613312565b94505060206139fd87828801613312565b9350506040613a0e8782880161325d565b925050606085013567ffffffffffffffff811115613a2f57613a2e6130ca565b5b613a3b87828801613996565b91505092959194509250565b600061012083016000830151613a606000860182613822565b5060208301518482036020860152613a78828261374a565b9150506040830151613a8d604086018261372a565b506060830151613aa0606086018261372a565b506080830151613ab3608086018261372a565b5060a0830151613ac660a086018261372a565b5060c0830151613ad960c086018261372a565b5060e0830151613aec60e086018261372a565b50610100830151613b0161010086018261372a565b508091505092915050565b60006020820190508181036000830152613b268184613a47565b905092915050565b60008060408385031215613b4557613b446130c5565b5b6000613b5385828601613312565b9250506020613b6485828601613312565b9150509250929050565b600080600060608486031215613b8757613b866130c5565b5b6000613b958682870161325d565b9350506020613ba686828701613312565b925050604084013567ffffffffffffffff811115613bc757613bc66130ca565b5b613bd3868287016134a7565b9150509250925092565b7f4e487b7100000000000000000000000000000000000000000000000000000000600052602260045260246000fd5b60006002820490506001821680613c2457607f821691505b602082108103613c3757613c36613bdd565b5b50919050565b7f4552433732313a20617070726f76616c20746f2063757272656e74206f776e6560008201527f7200000000000000000000000000000000000000000000000000000000000000602082015250565b6000613c99602183613195565b9150613ca482613c3d565b604082019050919050565b60006020820190508181036000830152613cc881613c8c565b9050919050565b7f4552433732313a20617070726f76652063616c6c6572206973206e6f7420746f60008201527f6b656e206f776e6572206f7220617070726f76656420666f7220616c6c000000602082015250565b6000613d2b603d83613195565b9150613d3682613ccf565b604082019050919050565b60006020820190508181036000830152613d5a81613d1e565b9050919050565b60008190508160005260206000209050919050565b60006020601f8301049050919050565b600082821b905092915050565b600060088302613dc37fffffffffffffffffffffffffffffffffffffffffffffffffffffffffffffffff82613d86565b613dcd8683613d86565b95508019841693508086168417925050509392505050565b6000819050919050565b6000613e0a613e05613e008461323c565b613de5565b61323c565b9050919050565b6000819050919050565b613e2483613def565b613e38613e3082613e11565b848454613d93565b825550505050565b600090565b613e4d613e40565b613e58818484613e1b565b505050565b5b81811015613e7c57613e71600082613e45565b600181019050613e5e565b5050565b601f821115613ec157613e9281613d61565b613e9b84613d76565b81016020851015613eaa578190505b613ebe613eb685613d76565b830182613e5d565b50505b505050565b600082821c905092915050565b6000613ee460001984600802613ec6565b1980831691505092915050565b6000613efd8383613ed3565b9150826002028217905092915050565b613f168261318a565b67ffffffffffffffff811115613f2f57613f2e6133aa565b5b613f398254613c0c565b613f44828285613e80565b600060209050601f831160018114613f775760008415613f65578287015190505b613f6f8582613ef1565b865550613fd7565b601f198416613f8586613d61565b60005b82811015613fad57848901518255600182019150602085019450602081019050613f88565b86831015613fca5784890151613fc6601f891682613ed3565b8355505b6001600288020188555050505b505050505050565b7f4e487b7100000000000000000000000000000000000000000000000000000000600052601160045260246000fd5b60008160011c9050919050565b6000808291508390505b60018511156140655780860481111561404157614040613fdf565b5b60018516156140505780820291505b808102905061405e8561400e565b9450614025565b94509492505050565b60008261407e576001905061413a565b8161408c576000905061413a565b81600181146140a257600281146140ac576140db565b600191505061413a565b60ff8411156140be576140bd613fdf565b5b8360020a9150848211156140d5576140d4613fdf565b5b5061413a565b5060208310610133831016604e8410600b84101617156141105782820a90508381111561410b5761410a613fdf565b5b61413a565b61411d848484600161401b565b9250905081840481111561413457614133613fdf565b5b81810290505b9392505050565b600061414c8261323c565b91506141578361323c565b92506141847fffffffffffffffffffffffffffffffffffffffffffffffffffffffffffffffff848461406e565b905092915050565b60006141978261323c565b91506141a28361323c565b92508282026141b08161323c565b915082820484148315176141c7576141c6613fdf565b5b5092915050565b7f4e487b7100000000000000000000000000000000000000000000000000000000600052601260045260246000fd5b60006142088261323c565b91506142138361323c565b925082614223576142226141ce565b5b828204905092915050565b7f4552433732313a2063616c6c6572206973206e6f7420746f6b656e206f776e6560008201527f72206f7220617070726f76656400000000000000000000000000000000000000602082015250565b600061428a602d83613195565b91506142958261422e565b604082019050919050565b600060208201905081810360008301526142b98161427d565b9050919050565b60006142cb8261323c565b91506142d68361323c565b92508282039050818111156142ee576142ed613fdf565b5b92915050565b60006142ff8261323c565b915061430a8361323c565b92508261431a576143196141ce565b5b828206905092915050565b7f507269636520697320746f6f206c6f7720666f72206d696e7400000000000000600082015250565b600061435b601983613195565b915061436682614325565b602082019050919050565b6000602082019050818103600083015261438a8161434e565b9050919050565b7f4e6f206d6f726520617661696c61626c65206e66747320746f2070757263686160008201527f7365000000000000000000000000000000000000000000000000000000000000602082015250565b60006143ed602283613195565b91506143f882614391565b604082019050919050565b6000602082019050818103600083015261441c816143e0565b9050919050565b7f4552433732313a20696e76616c696420746f6b656e2049440000000000000000600082015250565b6000614459601883613195565b915061446482614423565b602082019050919050565b600060208201905081810360008301526144888161444c565b9050919050565b600061449a82613367565b91506144a583613367565b9250828201905060ff8111156144be576144bd613fdf565b5b92915050565b7f4552433732313a2061646472657373207a65726f206973206e6f74206120766160008201527f6c6964206f776e65720000000000000000000000000000000000000000000000602082015250565b6000614520602983613195565b915061452b826144c4565b604082019050919050565b6000602082019050818103600083015261454f81614513565b9050919050565b600061456182613367565b915061456c83613367565b92508261457c5761457b6141ce565b5b828204905092915050565b600081905092915050565b600061459d8261318a565b6145a78185614587565b93506145b78185602086016131a6565b80840191505092915050565b60006145cf8285614592565b91506145db8284614592565b91508190509392505050565b7f4f776e61626c653a206e6577206f776e657220697320746865207a65726f206160008201527f6464726573730000000000000000000000000000000000000000000000000000602082015250565b6000614643602683613195565b915061464e826145e7565b604082019050919050565b6000602082019050818103600083015261467281614636565b9050919050565b7f4f776e61626c653a2063616c6c6572206973206e6f7420746865206f776e6572600082015250565b60006146af602083613195565b91506146ba82614679565b602082019050919050565b600060208201905081810360008301526146de816146a2565b9050919050565b7f4552433732313a207472616e736665722066726f6d20696e636f72726563742060008201527f6f776e6572000000000000000000000000000000000000000000000000000000602082015250565b6000614741602583613195565b915061474c826146e5565b604082019050919050565b6000602082019050818103600083015261477081614734565b9050919050565b7f4552433732313a207472616e7366657220746f20746865207a65726f2061646460008201527f7265737300000000000000000000000000000000000000000000000000000000602082015250565b60006147d3602483613195565b91506147de82614777565b604082019050919050565b60006020820190508181036000830152614802816147c6565b9050919050565b600060608201905061481e6000830186613531565b61482b60208301856132d1565b6148386040830184613531565b949350505050565b7f4552433732313a20617070726f766520746f2063616c6c657200000000000000600082015250565b6000614876601983613195565b915061488182614840565b602082019050919050565b600060208201905081810360008301526148a581614869565b9050919050565b7f4552433732313a207472616e7366657220746f206e6f6e20455243373231526560008201527f63656976657220696d706c656d656e7465720000000000000000000000000000602082015250565b6000614908603283613195565b9150614913826148ac565b604082019050919050565b60006020820190508181036000830152614937816148fb565b9050919050565b6000815461494b81613c0c565b6149558186614587565b945060018216600081146149705760018114614985576149b8565b60ff19831686528115158202860193506149b8565b61498e85613d61565b60005b838110156149b057815481890152600182019150602081019050614991565b838801955050505b50505092915050565b60006149cd828561493e565b91506149d98284614592565b91508190509392505050565b600081519050919050565b600082825260208201905092915050565b6000614a0c826149e5565b614a1681856149f0565b9350614a268185602086016131a6565b614a2f816131d0565b840191505092915050565b6000608082019050614a4f60008301876132d1565b614a5c60208301866132d1565b614a696040830185613531565b8181036060830152614a7b8184614a01565b905095945050505050565b600081519050614a95816130fb565b92915050565b600060208284031215614ab157614ab06130c5565b5b6000614abf84828501614a86565b91505092915050565b7f4552433732313a206d696e7420746f20746865207a65726f2061646472657373600082015250565b6000614afe602083613195565b9150614b0982614ac8565b602082019050919050565b60006020820190508181036000830152614b2d81614af1565b9050919050565b7f4552433732313a20746f6b656e20616c7265616479206d696e74656400000000600082015250565b6000614b6a601c83613195565b9150614b7582614b34565b602082019050919050565b60006020820190508181036000830152614b9981614b5d565b905091905056fea2646970667358221220406ca8b66ca197acee54ad4cd04d25b6889447f37916ee9a9aef2e00caa5a85e64736f6c63430008120033516d53647963456a585a4d50373441586b535074486e3465373850684e4c394141615a697165704b505542334e63516d56685759355658734a767074385251716331387979534846636636745a3570717a56664e3770343334786671516d5666576b796846694d6861374435416464525038464d543179765a7947435a7352397057317438314158676d",
  "linkReferences": {},
  "deployedLinkReferences": {}
}