{
  "_format": "hh-sol-artifact-1",
  "contractName": "EAvatar",
  "sourceName": "contracts/EAvatar.sol",
  "abi": [
    {
      "inputs": [
        {
          "internalType": "address",
          "name": "bond_issuer",
          "type": "address"
        }
      ],
      "stateMutability": "nonpayable",
      "type": "constructor"
    },
    {
      "anonymous": false,
      "inputs": [
        {
          "indexed": true,
          "internalType": "address",
          "name": "owner",
          "type": "address"
        },
        {
          "indexed": true,
          "internalType": "address",
          "name": "approved",
          "type": "address"
        },
        {
          "indexed": true,
          "internalType": "uint256",
          "name": "tokenId",
          "type": "uint256"
        }
      ],
      "name": "Approval",
      "type": "event"
    },
    {
      "anonymous": false,
      "inputs": [
        {
          "indexed": true,
          "internalType": "address",
          "name": "owner",
          "type": "address"
        },
        {
          "indexed": true,
          "internalType": "address",
          "name": "operator",
          "type": "address"
        },
        {
          "indexed": false,
          "internalType": "bool",
          "name": "approved",
          "type": "bool"
        }
      ],
      "name": "ApprovalForAll",
      "type": "event"
    },
    {
      "anonymous": false,
      "inputs": [
        {
          "indexed": false,
          "internalType": "uint256",
          "name": "_fromTokenId",
          "type": "uint256"
        },
        {
          "indexed": false,
          "internalType": "uint256",
          "name": "_toTokenId",
          "type": "uint256"
        }
      ],
      "name": "BatchMetadataUpdate",
      "type": "event"
    },
    {
      "anonymous": false,
      "inputs": [
        {
          "indexed": false,
          "internalType": "uint256",
          "name": "_tokenId",
          "type": "uint256"
        }
      ],
      "name": "MetadataUpdate",
      "type": "event"
    },
    {
      "anonymous": false,
      "inputs": [
        {
          "indexed": false,
          "internalType": "address",
          "name": "from",
          "type": "address"
        },
        {
          "indexed": false,
          "internalType": "address",
          "name": "to",
          "type": "address"
        },
        {
          "indexed": false,
          "internalType": "uint256",
          "name": "_amount",
          "type": "uint256"
        }
      ],
      "name": "NftBought",
      "type": "event"
    },
    {
      "anonymous": false,
      "inputs": [
        {
          "indexed": true,
          "internalType": "address",
          "name": "previousOwner",
          "type": "address"
        },
        {
          "indexed": true,
          "internalType": "address",
          "name": "newOwner",
          "type": "address"
        }
      ],
      "name": "OwnershipTransferred",
      "type": "event"
    },
    {
      "anonymous": false,
      "inputs": [
        {
          "indexed": true,
          "internalType": "address",
          "name": "from",
          "type": "address"
        },
        {
          "indexed": true,
          "internalType": "address",
          "name": "to",
          "type": "address"
        },
        {
          "indexed": true,
          "internalType": "uint256",
          "name": "tokenId",
          "type": "uint256"
        }
      ],
      "name": "Transfer",
      "type": "event"
    },
    {
      "anonymous": false,
      "inputs": [
        {
          "indexed": false,
          "internalType": "uint256",
          "name": "tokenId",
          "type": "uint256"
        },
        {
          "indexed": false,
          "internalType": "address",
          "name": "owner",
          "type": "address"
        },
        {
          "indexed": false,
          "internalType": "uint256",
          "name": "price",
          "type": "uint256"
        }
      ],
      "name": "nftItemCreated",
      "type": "event"
    },
    {
      "inputs": [
        {
          "internalType": "address",
          "name": "to",
          "type": "address"
        },
        {
          "internalType": "uint256",
          "name": "tokenId",
          "type": "uint256"
        }
      ],
      "name": "approve",
      "outputs": [],
      "stateMutability": "nonpayable",
      "type": "function"
    },
    {
      "inputs": [],
      "name": "availableNFTs",
      "outputs": [
        {
          "internalType": "bool",
          "name": "ans",
          "type": "bool"
        }
      ],
      "stateMutability": "view",
      "type": "function"
    },
    {
      "inputs": [
        {
          "internalType": "address",
          "name": "owner",
          "type": "address"
        }
      ],
      "name": "balanceOf",
      "outputs": [
        {
          "internalType": "uint256",
          "name": "",
          "type": "uint256"
        }
      ],
      "stateMutability": "view",
      "type": "function"
    },
    {
      "inputs": [],
      "name": "bondMatureAmount",
      "outputs": [
        {
          "internalType": "uint256",
          "name": "amount",
          "type": "uint256"
        }
      ],
      "stateMutability": "view",
      "type": "function"
    },
    {
      "inputs": [
        {
          "internalType": "address payable",
          "name": "from",
          "type": "address"
        },
        {
          "internalType": "address payable",
          "name": "to",
          "type": "address"
        },
        {
          "internalType": "uint256",
          "name": "_amount",
          "type": "uint256"
        },
        {
          "internalType": "uint256",
          "name": "tokenId",
          "type": "uint256"
        }
      ],
      "name": "buyNFT",
      "outputs": [],
      "stateMutability": "payable",
      "type": "function"
    },
    {
      "inputs": [],
      "name": "calculateAccruedInterest",
      "outputs": [
        {
          "internalType": "uint256",
          "name": "",
          "type": "uint256"
        }
      ],
      "stateMutability": "view",
      "type": "function"
    },
    {
      "inputs": [
        {
          "internalType": "uint256",
          "name": "tokenId",
          "type": "uint256"
        },
        {
          "internalType": "address",
          "name": "owner",
          "type": "address"
        },
        {
          "internalType": "string",
          "name": "name",
          "type": "string"
        }
      ],
      "name": "changeCharacterName",
      "outputs": [],
      "stateMutability": "view",
      "type": "function"
    },
    {
      "inputs": [
        {
          "internalType": "uint256",
          "name": "tokenId",
          "type": "uint256"
        }
      ],
      "name": "getApproved",
      "outputs": [
        {
          "internalType": "address",
          "name": "",
          "type": "address"
        }
      ],
      "stateMutability": "view",
      "type": "function"
    },
    {
      "inputs": [],
      "name": "getBaseURI",
      "outputs": [
        {
          "internalType": "string",
          "name": "",
          "type": "string"
        }
      ],
      "stateMutability": "view",
      "type": "function"
    },
    {
      "inputs": [],
      "name": "getBondInfo",
      "outputs": [
        {
          "components": [
            {
              "internalType": "address",
              "name": "bondIssuer",
              "type": "address"
            },
            {
              "internalType": "string",
              "name": "bondName",
              "type": "string"
            },
            {
              "internalType": "uint256",
              "name": "issueDate",
              "type": "uint256"
            },
            {
              "internalType": "uint256",
              "name": "maturityDate",
              "type": "uint256"
            },
            {
              "internalType": "uint256",
              "name": "interestPaymentPercent",
              "type": "uint256"
            },
            {
              "internalType": "uint256",
              "name": "periodOfPayment",
              "type": "uint256"
            },
            {
              "internalType": "uint256",
              "name": "faceValue",
              "type": "uint256"
            },
            {
              "internalType": "uint256",
              "name": "shift",
              "type": "uint256"
            },
            {
              "internalType": "uint256",
              "name": "supply",
              "type": "uint256"
            }
          ],
          "internalType": "struct EAvatar.EBond",
          "name": "bond",
          "type": "tuple"
        }
      ],
      "stateMutability": "view",
      "type": "function"
    },
    {
      "inputs": [],
      "name": "getCharURI",
      "outputs": [
        {
          "internalType": "string",
          "name": "",
          "type": "string"
        }
      ],
      "stateMutability": "view",
      "type": "function"
    },
    {
      "inputs": [],
      "name": "getIssuer",
      "outputs": [
        {
          "internalType": "address",
          "name": "issuer",
          "type": "address"
        }
      ],
      "stateMutability": "view",
      "type": "function"
    },
    {
      "inputs": [],
      "name": "getLatestId",
      "outputs": [
        {
          "internalType": "uint256",
          "name": "",
          "type": "uint256"
        }
      ],
      "stateMutability": "view",
      "type": "function"
    },
    {
      "inputs": [
        {
          "internalType": "uint256",
          "name": "tokenId",
          "type": "uint256"
        }
      ],
      "name": "getMetadata",
      "outputs": [
        {
          "components": [
            {
              "internalType": "uint256",
              "name": "tokenId",
              "type": "uint256"
            },
            {
              "internalType": "uint256",
              "name": "mintedAt",
              "type": "uint256"
            },
            {
              "internalType": "uint256",
              "name": "listing_price",
              "type": "uint256"
            },
            {
              "components": [
                {
                  "internalType": "string",
                  "name": "name",
                  "type": "string"
                },
                {
                  "internalType": "string",
                  "name": "characterURI",
                  "type": "string"
                },
                {
                  "internalType": "uint8",
                  "name": "hp",
                  "type": "uint8"
                },
                {
                  "internalType": "uint8",
                  "name": "ap",
                  "type": "uint8"
                },
                {
                  "internalType": "uint8",
                  "name": "level",
                  "type": "uint8"
                }
              ],
              "internalType": "struct EAvatar.AvatarChar",
              "name": "character",
              "type": "tuple"
            },
            {
              "internalType": "address",
              "name": "ownerId",
              "type": "address"
            }
          ],
          "internalType": "struct EAvatar.EMetadata",
          "name": "item",
          "type": "tuple"
        }
      ],
      "stateMutability": "view",
      "type": "function"
    },
    {
      "inputs": [],
      "name": "interestPaymentAmount",
      "outputs": [
        {
          "internalType": "uint256",
          "name": "amount",
          "type": "uint256"
        }
      ],
      "stateMutability": "view",
      "type": "function"
    },
    {
      "inputs": [
        {
          "internalType": "address",
          "name": "owner",
          "type": "address"
        },
        {
          "internalType": "address",
          "name": "operator",
          "type": "address"
        }
      ],
      "name": "isApprovedForAll",
      "outputs": [
        {
          "internalType": "bool",
          "name": "",
          "type": "bool"
        }
      ],
      "stateMutability": "view",
      "type": "function"
    },
    {
      "inputs": [],
      "name": "isBondMatured",
      "outputs": [
        {
          "internalType": "bool",
          "name": "",
          "type": "bool"
        }
      ],
      "stateMutability": "view",
      "type": "function"
    },
    {
      "inputs": [],
      "name": "isInterestTime",
      "outputs": [
        {
          "internalType": "bool",
          "name": "",
          "type": "bool"
        }
      ],
      "stateMutability": "view",
      "type": "function"
    },
    {
      "inputs": [],
      "name": "matureCharacters",
      "outputs": [],
      "stateMutability": "nonpayable",
      "type": "function"
    },
    {
      "inputs": [
        {
          "internalType": "address",
          "name": "recipient",
          "type": "address"
        },
        {
          "internalType": "uint256",
          "name": "price",
          "type": "uint256"
        },
        {
          "internalType": "uint256",
          "name": "tokenId",
          "type": "uint256"
        }
      ],
      "name": "mintNFT",
      "outputs": [
        {
          "internalType": "uint256",
          "name": "",
          "type": "uint256"
        }
      ],
      "stateMutability": "nonpayable",
      "type": "function"
    },
    {
      "inputs": [],
      "name": "name",
      "outputs": [
        {
          "internalType": "string",
          "name": "",
          "type": "string"
        }
      ],
      "stateMutability": "view",
      "type": "function"
    },
    {
      "inputs": [],
      "name": "owner",
      "outputs": [
        {
          "internalType": "address",
          "name": "",
          "type": "address"
        }
      ],
      "stateMutability": "view",
      "type": "function"
    },
    {
      "inputs": [
        {
          "internalType": "address",
          "name": "owner",
          "type": "address"
        }
      ],
      "name": "ownerCollection",
      "outputs": [
        {
          "internalType": "uint256[]",
          "name": "ids",
          "type": "uint256[]"
        }
      ],
      "stateMutability": "view",
      "type": "function"
    },
    {
      "inputs": [
        {
          "internalType": "uint256",
          "name": "tokenId",
          "type": "uint256"
        }
      ],
      "name": "ownerOf",
      "outputs": [
        {
          "internalType": "address",
          "name": "",
          "type": "address"
        }
      ],
      "stateMutability": "view",
      "type": "function"
    },
    {
      "inputs": [],
      "name": "renounceOwnership",
      "outputs": [],
      "stateMutability": "nonpayable",
      "type": "function"
    },
    {
      "inputs": [
        {
          "internalType": "address",
          "name": "from",
          "type": "address"
        },
        {
          "internalType": "address",
          "name": "to",
          "type": "address"
        },
        {
          "internalType": "uint256",
          "name": "tokenId",
          "type": "uint256"
        }
      ],
      "name": "safeTransferFrom",
      "outputs": [],
      "stateMutability": "nonpayable",
      "type": "function"
    },
    {
      "inputs": [
        {
          "internalType": "address",
          "name": "from",
          "type": "address"
        },
        {
          "internalType": "address",
          "name": "to",
          "type": "address"
        },
        {
          "internalType": "uint256",
          "name": "tokenId",
          "type": "uint256"
        },
        {
          "internalType": "bytes",
          "name": "data",
          "type": "bytes"
        }
      ],
      "name": "safeTransferFrom",
      "outputs": [],
      "stateMutability": "nonpayable",
      "type": "function"
    },
    {
      "inputs": [
        {
          "internalType": "address",
          "name": "operator",
          "type": "address"
        },
        {
          "internalType": "bool",
          "name": "approved",
          "type": "bool"
        }
      ],
      "name": "setApprovalForAll",
      "outputs": [],
      "stateMutability": "nonpayable",
      "type": "function"
    },
    {
      "inputs": [
        {
          "internalType": "string",
          "name": "newURI",
          "type": "string"
        }
      ],
      "name": "setBaseURI",
      "outputs": [],
      "stateMutability": "nonpayable",
      "type": "function"
    },
    {
      "inputs": [
        {
          "internalType": "string",
          "name": "newURI",
          "type": "string"
        }
      ],
      "name": "setCharURI",
      "outputs": [],
      "stateMutability": "nonpayable",
      "type": "function"
    },
    {
      "inputs": [
        {
          "internalType": "string",
          "name": "newURI",
          "type": "string"
        }
      ],
      "name": "setInactiveBaseURI",
      "outputs": [],
      "stateMutability": "nonpayable",
      "type": "function"
    },
    {
      "inputs": [
        {
          "internalType": "string",
          "name": "newURI",
          "type": "string"
        }
      ],
      "name": "setInactiveCharURI",
      "outputs": [],
      "stateMutability": "nonpayable",
      "type": "function"
    },
    {
      "inputs": [
        {
          "internalType": "bytes4",
          "name": "interfaceId",
          "type": "bytes4"
        }
      ],
      "name": "supportsInterface",
      "outputs": [
        {
          "internalType": "bool",
          "name": "",
          "type": "bool"
        }
      ],
      "stateMutability": "view",
      "type": "function"
    },
    {
      "inputs": [],
      "name": "symbol",
      "outputs": [
        {
          "internalType": "string",
          "name": "",
          "type": "string"
        }
      ],
      "stateMutability": "view",
      "type": "function"
    },
    {
      "inputs": [
        {
          "internalType": "uint256",
          "name": "tokenId",
          "type": "uint256"
        }
      ],
      "name": "tokenURI",
      "outputs": [
        {
          "internalType": "string",
          "name": "",
          "type": "string"
        }
      ],
      "stateMutability": "view",
      "type": "function"
    },
    {
      "inputs": [
        {
          "internalType": "address",
          "name": "from",
          "type": "address"
        },
        {
          "internalType": "address",
          "name": "to",
          "type": "address"
        },
        {
          "internalType": "uint256",
          "name": "tokenId",
          "type": "uint256"
        }
      ],
      "name": "transferFrom",
      "outputs": [],
      "stateMutability": "nonpayable",
      "type": "function"
    },
    {
      "inputs": [
        {
          "internalType": "address",
          "name": "newOwner",
          "type": "address"
        }
      ],
      "name": "transferOwnership",
      "outputs": [],
      "stateMutability": "nonpayable",
      "type": "function"
    }
  ],
  "bytecode": "0x60806040526040518060600160405280602e815260200162004f6a602e9139601390816200002e919062000619565b5060405180602001604052806000815250601490816200004f919062000619565b506040518060600160405280602e815260200162004f3c602e9139601590816200007a919062000619565b5060405180602001604052806000815250601690816200009b919062000619565b506000601755348015620000ae57600080fd5b5060405162004f9838038062004f988339818101604052810190620000d491906200076a565b6040518060400160405280600781526020017f45417661746172000000000000000000000000000000000000000000000000008152506040518060400160405280600281526020017f4541000000000000000000000000000000000000000000000000000000000000815250816000908162000151919062000619565b50806001908162000163919062000619565b505050620001866200017a620002d160201b60201c565b620002d960201b60201c565b6040518061012001604052808273ffffffffffffffffffffffffffffffffffffffff1681526020016040518060400160405280600a81526020017f452d426f6e64204f6e65000000000000000000000000000000000000000000008152508152602001428152602001636e71188081526020016005815260200162f0c29f8152602001620186a08152602001600281526020016103e8815250600860008201518160000160006101000a81548173ffffffffffffffffffffffffffffffffffffffff021916908373ffffffffffffffffffffffffffffffffffffffff16021790555060208201518160010190816200027f919062000619565b5060408201518160020155606082015181600301556080820151816004015560a0820151816005015560c0820151816006015560e082015181600701556101008201518160080155905050506200079c565b600033905090565b6000600760009054906101000a900473ffffffffffffffffffffffffffffffffffffffff16905081600760006101000a81548173ffffffffffffffffffffffffffffffffffffffff021916908373ffffffffffffffffffffffffffffffffffffffff1602179055508173ffffffffffffffffffffffffffffffffffffffff168173ffffffffffffffffffffffffffffffffffffffff167f8be0079c531659141344cd1fd0a4f28419497f9722a3daafe3b4186f6b6457e060405160405180910390a35050565b600081519050919050565b7f4e487b7100000000000000000000000000000000000000000000000000000000600052604160045260246000fd5b7f4e487b7100000000000000000000000000000000000000000000000000000000600052602260045260246000fd5b600060028204905060018216806200042157607f821691505b602082108103620004375762000436620003d9565b5b50919050565b60008190508160005260206000209050919050565b60006020601f8301049050919050565b600082821b905092915050565b600060088302620004a17fffffffffffffffffffffffffffffffffffffffffffffffffffffffffffffffff8262000462565b620004ad868362000462565b95508019841693508086168417925050509392505050565b6000819050919050565b6000819050919050565b6000620004fa620004f4620004ee84620004c5565b620004cf565b620004c5565b9050919050565b6000819050919050565b6200051683620004d9565b6200052e620005258262000501565b8484546200046f565b825550505050565b600090565b6200054562000536565b620005528184846200050b565b505050565b5b818110156200057a576200056e6000826200053b565b60018101905062000558565b5050565b601f821115620005c95762000593816200043d565b6200059e8462000452565b81016020851015620005ae578190505b620005c6620005bd8562000452565b83018262000557565b50505b505050565b600082821c905092915050565b6000620005ee60001984600802620005ce565b1980831691505092915050565b6000620006098383620005db565b9150826002028217905092915050565b62000624826200039f565b67ffffffffffffffff81111562000640576200063f620003aa565b5b6200064c825462000408565b620006598282856200057e565b600060209050601f8311600181146200069157600084156200067c578287015190505b620006888582620005fb565b865550620006f8565b601f198416620006a1866200043d565b60005b82811015620006cb57848901518255600182019150602085019450602081019050620006a4565b86831015620006eb5784890151620006e7601f891682620005db565b8355505b6001600288020188555050505b505050505050565b600080fd5b600073ffffffffffffffffffffffffffffffffffffffff82169050919050565b6000620007328262000705565b9050919050565b620007448162000725565b81146200075057600080fd5b50565b600081519050620007648162000739565b92915050565b60006020828403121562000783576200078262000700565b5b6000620007938482850162000753565b91505092915050565b61479080620007ac6000396000f3fe60806040526004361061021a5760003560e01c8063714c539811610123578063a35e1370116100ab578063e985e9c51161006f578063e985e9c5146107c6578063ea317fff14610803578063eff91c7e1461082e578063f164523814610859578063f2fde38b146108825761021a565b8063a35e1370146106cd578063a574cea4146106f8578063b88d4fde14610735578063c87b56dd1461075e578063d5070b3e1461079b5761021a565b80638da5cb5b116100f25780638da5cb5b146105e857806395d89b41146106135780639c50da751461063e578063a22cb4651461067b578063a31b115f146106a45761021a565b8063714c539814610564578063715018a61461058f578063729a1a87146105a657806388456b7b146105d15761021a565b80632b8c41f4116101a65780635255642111610175578063525564211461045957806355f804b3146104845780635a9d10a2146104ad5780636352211e146104ea57806370a08231146105275761021a565b80632b8c41f4146103b157806337e08699146103da5780633fb3ff111461040557806342842e0e146104305761021a565b80630816a3e2116101ed5780630816a3e2146102ce578063081812fc146102f7578063095ea7b3146103345780631ed54e781461035d57806323b872dd146103885761021a565b806301ffc9a71461021f57806303c133801461025c57806305f315721461027857806306fdde03146102a3575b600080fd5b34801561022b57600080fd5b5061024660048036038101906102419190612d60565b6108ab565b6040516102539190612da8565b60405180910390f35b61027660048036038101906102719190612e57565b61090c565b005b34801561028457600080fd5b5061028d61099f565b60405161029a9190612da8565b60405180910390f35b3480156102af57600080fd5b506102b86109af565b6040516102c59190612f4e565b60405180910390f35b3480156102da57600080fd5b506102f560048036038101906102f091906130a5565b610a41565b005b34801561030357600080fd5b5061031e600480360381019061031991906130ee565b610a5c565b60405161032b919061313c565b60405180910390f35b34801561034057600080fd5b5061035b60048036038101906103569190613183565b610aa2565b005b34801561036957600080fd5b50610372610bb9565b60405161037f91906131d2565b60405180910390f35b34801561039457600080fd5b506103af60048036038101906103aa91906131ed565b610c08565b005b3480156103bd57600080fd5b506103d860048036038101906103d391906130a5565b610c68565b005b3480156103e657600080fd5b506103ef610c83565b6040516103fc9190612da8565b60405180910390f35b34801561041157600080fd5b5061041a610cad565b60405161042791906131d2565b60405180910390f35b34801561043c57600080fd5b50610457600480360381019061045291906131ed565b610d0f565b005b34801561046557600080fd5b5061046e610d2f565b60405161047b919061313c565b60405180910390f35b34801561049057600080fd5b506104ab60048036038101906104a691906130a5565b610d5c565b005b3480156104b957600080fd5b506104d460048036038101906104cf9190613240565b610d77565b6040516104e191906131d2565b60405180910390f35b3480156104f657600080fd5b50610511600480360381019061050c91906130ee565b610e02565b60405161051e919061313c565b60405180910390f35b34801561053357600080fd5b5061054e60048036038101906105499190613293565b610e88565b60405161055b91906131d2565b60405180910390f35b34801561057057600080fd5b50610579610f3f565b6040516105869190612f4e565b60405180910390f35b34801561059b57600080fd5b506105a4610fd1565b005b3480156105b257600080fd5b506105bb610fe5565b6040516105c891906131d2565b60405180910390f35b3480156105dd57600080fd5b506105e6610ff2565b005b3480156105f457600080fd5b506105fd6110a0565b60405161060a919061313c565b60405180910390f35b34801561061f57600080fd5b506106286110ca565b6040516106359190612f4e565b60405180910390f35b34801561064a57600080fd5b5061066560048036038101906106609190613293565b61115c565b604051610672919061337e565b60405180910390f35b34801561068757600080fd5b506106a2600480360381019061069d91906133cc565b6111f3565b005b3480156106b057600080fd5b506106cb60048036038101906106c691906130a5565b611209565b005b3480156106d957600080fd5b506106e2611224565b6040516106ef9190612f4e565b60405180910390f35b34801561070457600080fd5b5061071f600480360381019061071a91906130ee565b6112b6565b60405161072c9190613574565b60405180910390f35b34801561074157600080fd5b5061075c60048036038101906107579190613637565b6114e6565b005b34801561076a57600080fd5b50610785600480360381019061078091906130ee565b611548565b6040516107929190612f4e565b60405180910390f35b3480156107a757600080fd5b506107b061165a565b6040516107bd919061377f565b60405180910390f35b3480156107d257600080fd5b506107ed60048036038101906107e891906137a1565b6117a3565b6040516107fa9190612da8565b60405180910390f35b34801561080f57600080fd5b50610818611837565b6040516108259190612da8565b60405180910390f35b34801561083a57600080fd5b50610843611845565b60405161085091906131d2565b60405180910390f35b34801561086557600080fd5b50610880600480360381019061087b91906137e1565b61184f565b005b34801561088e57600080fd5b506108a960048036038101906108a49190613293565b6118af565b005b6000634906490660e01b7bffffffffffffffffffffffffffffffffffffffffffffffffffffffff1916827bffffffffffffffffffffffffffffffffffffffffffffffffffffffff19161480610905575061090482611932565b5b9050919050565b610917848483610d0f565b8273ffffffffffffffffffffffffffffffffffffffff166108fc839081150290604051600060405180830381858888f1935050505015801561095d573d6000803e3d6000fd5b507f608f6ac9327c2bf4d3c77adf447d2c448ba7b0971e0aaa9aa03f7ac29d874a44843334604051610991939291906138af565b60405180910390a150505050565b6000600860030154421015905090565b6060600080546109be90613915565b80601f01602080910402602001604051908101604052809291908181526020018280546109ea90613915565b8015610a375780601f10610a0c57610100808354040283529160200191610a37565b820191906000526020600020905b815481529060010190602001808311610a1a57829003601f168201915b5050505050905090565b610a49611a14565b8060169081610a589190613ae8565b5050565b6000610a6782611a92565b6004600083815260200190815260200160002060009054906101000a900473ffffffffffffffffffffffffffffffffffffffff169050919050565b6000610aad82610e02565b90508073ffffffffffffffffffffffffffffffffffffffff168373ffffffffffffffffffffffffffffffffffffffff1603610b1d576040517f08c379a0000000000000000000000000000000000000000000000000000000008152600401610b1490613c2c565b60405180910390fd5b8073ffffffffffffffffffffffffffffffffffffffff16610b3c611add565b73ffffffffffffffffffffffffffffffffffffffff161480610b6b5750610b6a81610b65611add565b6117a3565b5b610baa576040517f08c379a0000000000000000000000000000000000000000000000000000000008152600401610ba190613cbe565b60405180910390fd5b610bb48383611ae5565b505050565b6000610bc361099f565b610c0057600860070154600a610bd99190613e40565b600860040154600860060154610bef9190613e8b565b610bf99190613efc565b9050610c05565b600090505b90565b610c19610c13611add565b82611b9e565b610c58576040517f08c379a0000000000000000000000000000000000000000000000000000000008152600401610c4f90613f9f565b60405180910390fd5b610c63838383611c33565b505050565b610c70611a14565b8060159081610c7f9190613ae8565b5050565b60008060086005015460086002015442610c9d9190613fbf565b610ca79190613ff3565b14905090565b6000610cb761099f565b610d07576000610cc5610bb9565b9050600060086005015460086003015442610ce09190613fbf565b610cea9190613efc565b905060008183610cfa9190613e8b565b9050809350505050610d0c565b600090505b90565b610d2a838383604051806020016040528060008152506114e6565b505050565b6000600860000160009054906101000a900473ffffffffffffffffffffffffffffffffffffffff16905090565b610d64611a14565b8060139081610d739190613ae8565b5050565b6000610d81611a14565b600880015460175410610dc9576040517f08c379a0000000000000000000000000000000000000000000000000000000008152600401610dc090614096565b60405180910390fd5b600160176000828254610ddc91906140b6565b92505081905550610ded8483611f2c565b610df8828486611f4a565b8190509392505050565b600080610e0e8361214a565b9050600073ffffffffffffffffffffffffffffffffffffffff168173ffffffffffffffffffffffffffffffffffffffff1603610e7f576040517f08c379a0000000000000000000000000000000000000000000000000000000008152600401610e7690614136565b60405180910390fd5b80915050919050565b60008073ffffffffffffffffffffffffffffffffffffffff168273ffffffffffffffffffffffffffffffffffffffff1603610ef8576040517f08c379a0000000000000000000000000000000000000000000000000000000008152600401610eef906141c8565b60405180910390fd5b600360008373ffffffffffffffffffffffffffffffffffffffff1673ffffffffffffffffffffffffffffffffffffffff168152602001908152602001600020549050919050565b606060138054610f4e90613915565b80601f0160208091040260200160405190810160405280929190818152602001828054610f7a90613915565b8015610fc75780601f10610f9c57610100808354040283529160200191610fc7565b820191906000526020600020905b815481529060010190602001808311610faa57829003601f168201915b5050505050905090565b610fd9611a14565b610fe36000612187565b565b6000600860060154905090565b610ffa611a14565b61100261099f565b61100b57600080fd5b61109e6014805461101b90613915565b80601f016020809104026020016040519081016040528092919081815260200182805461104790613915565b80156110945780601f1061106957610100808354040283529160200191611094565b820191906000526020600020905b81548152906001019060200180831161107757829003601f168201915b5050505050610d5c565b565b6000600760009054906101000a900473ffffffffffffffffffffffffffffffffffffffff16905090565b6060600180546110d990613915565b80601f016020809104026020016040519081016040528092919081815260200182805461110590613915565b80156111525780601f1061112757610100808354040283529160200191611152565b820191906000526020600020905b81548152906001019060200180831161113557829003601f168201915b5050505050905090565b6060601260008373ffffffffffffffffffffffffffffffffffffffff1673ffffffffffffffffffffffffffffffffffffffff1681526020019081526020016000208054806020026020016040519081016040528092919081815260200182805480156111e757602002820191906000526020600020905b8154815260200190600101908083116111d3575b50505050509050919050565b6112056111fe611add565b838361224d565b5050565b611211611a14565b80601490816112209190613ae8565b5050565b60606015805461123390613915565b80601f016020809104026020016040519081016040528092919081815260200182805461125f90613915565b80156112ac5780601f10611281576101008083540402835291602001916112ac565b820191906000526020600020905b81548152906001019060200180831161128f57829003601f168201915b5050505050905090565b6112be612c0f565b601160008381526020019081526020016000206040518060a0016040529081600082015481526020016001820154815260200160028201548152602001600382016040518060a001604052908160008201805461131a90613915565b80601f016020809104026020016040519081016040528092919081815260200182805461134690613915565b80156113935780601f1061136857610100808354040283529160200191611393565b820191906000526020600020905b81548152906001019060200180831161137657829003601f168201915b505050505081526020016001820180546113ac90613915565b80601f01602080910402602001604051908101604052809291908181526020018280546113d890613915565b80156114255780601f106113fa57610100808354040283529160200191611425565b820191906000526020600020905b81548152906001019060200180831161140857829003601f168201915b505050505081526020016002820160009054906101000a900460ff1660ff1660ff1681526020016002820160019054906101000a900460ff1660ff1660ff1681526020016002820160029054906101000a900460ff1660ff1660ff168152505081526020016006820160009054906101000a900473ffffffffffffffffffffffffffffffffffffffff1673ffffffffffffffffffffffffffffffffffffffff1673ffffffffffffffffffffffffffffffffffffffff16815250509050919050565b6114f76114f1611add565b83611b9e565b611536576040517f08c379a000000000000000000000000000000000000000000000000000000000815260040161152d90613f9f565b60405180910390fd5b611542848484846123b9565b50505050565b606061155382611a92565b600060066000848152602001908152602001600020805461157390613915565b80601f016020809104026020016040519081016040528092919081815260200182805461159f90613915565b80156115ec5780601f106115c1576101008083540402835291602001916115ec565b820191906000526020600020905b8154815290600101906020018083116115cf57829003601f168201915b5050505050905060006115fd612415565b90506000815103611612578192505050611655565b60008251111561164757808260405160200161162f929190614224565b60405160208183030381529060405292505050611655565b6116508461242c565b925050505b919050565b611662612c5a565b6008604051806101200160405290816000820160009054906101000a900473ffffffffffffffffffffffffffffffffffffffff1673ffffffffffffffffffffffffffffffffffffffff1673ffffffffffffffffffffffffffffffffffffffff1681526020016001820180546116d690613915565b80601f016020809104026020016040519081016040528092919081815260200182805461170290613915565b801561174f5780601f106117245761010080835404028352916020019161174f565b820191906000526020600020905b81548152906001019060200180831161173257829003601f168201915b50505050508152602001600282015481526020016003820154815260200160048201548152602001600582015481526020016006820154815260200160078201548152602001600882015481525050905090565b6000600560008473ffffffffffffffffffffffffffffffffffffffff1673ffffffffffffffffffffffffffffffffffffffff16815260200190815260200160002060008373ffffffffffffffffffffffffffffffffffffffff1673ffffffffffffffffffffffffffffffffffffffff16815260200190815260200160002060009054906101000a900460ff16905092915050565b600080600880015411905090565b6000601754905090565b8173ffffffffffffffffffffffffffffffffffffffff1661186f84610e02565b73ffffffffffffffffffffffffffffffffffffffff161461188f57600080fd5b600061189a846112b6565b90508181606001516000018190525050505050565b6118b7611a14565b600073ffffffffffffffffffffffffffffffffffffffff168173ffffffffffffffffffffffffffffffffffffffff1603611926576040517f08c379a000000000000000000000000000000000000000000000000000000000815260040161191d906142ba565b60405180910390fd5b61192f81612187565b50565b60007f80ac58cd000000000000000000000000000000000000000000000000000000007bffffffffffffffffffffffffffffffffffffffffffffffffffffffff1916827bffffffffffffffffffffffffffffffffffffffffffffffffffffffff191614806119fd57507f5b5e139f000000000000000000000000000000000000000000000000000000007bffffffffffffffffffffffffffffffffffffffffffffffffffffffff1916827bffffffffffffffffffffffffffffffffffffffffffffffffffffffff1916145b80611a0d5750611a0c82612494565b5b9050919050565b611a1c611add565b73ffffffffffffffffffffffffffffffffffffffff16611a3a6110a0565b73ffffffffffffffffffffffffffffffffffffffff1614611a90576040517f08c379a0000000000000000000000000000000000000000000000000000000008152600401611a8790614326565b60405180910390fd5b565b611a9b816124fe565b611ada576040517f08c379a0000000000000000000000000000000000000000000000000000000008152600401611ad190614136565b60405180910390fd5b50565b600033905090565b816004600083815260200190815260200160002060006101000a81548173ffffffffffffffffffffffffffffffffffffffff021916908373ffffffffffffffffffffffffffffffffffffffff160217905550808273ffffffffffffffffffffffffffffffffffffffff16611b5883610e02565b73ffffffffffffffffffffffffffffffffffffffff167f8c5be1e5ebec7d5bd14f71427d1e84f3dd0314c0f7b2291e5b200ac8c7c3b92560405160405180910390a45050565b600080611baa83610e02565b90508073ffffffffffffffffffffffffffffffffffffffff168473ffffffffffffffffffffffffffffffffffffffff161480611bec5750611beb81856117a3565b5b80611c2a57508373ffffffffffffffffffffffffffffffffffffffff16611c1284610a5c565b73ffffffffffffffffffffffffffffffffffffffff16145b91505092915050565b8273ffffffffffffffffffffffffffffffffffffffff16611c5382610e02565b73ffffffffffffffffffffffffffffffffffffffff1614611ca9576040517f08c379a0000000000000000000000000000000000000000000000000000000008152600401611ca0906143b8565b60405180910390fd5b600073ffffffffffffffffffffffffffffffffffffffff168273ffffffffffffffffffffffffffffffffffffffff1603611d18576040517f08c379a0000000000000000000000000000000000000000000000000000000008152600401611d0f9061444a565b60405180910390fd5b611d25838383600161253f565b8273ffffffffffffffffffffffffffffffffffffffff16611d4582610e02565b73ffffffffffffffffffffffffffffffffffffffff1614611d9b576040517f08c379a0000000000000000000000000000000000000000000000000000000008152600401611d92906143b8565b60405180910390fd5b6004600082815260200190815260200160002060006101000a81549073ffffffffffffffffffffffffffffffffffffffff02191690556001600360008573ffffffffffffffffffffffffffffffffffffffff1673ffffffffffffffffffffffffffffffffffffffff168152602001908152602001600020600082825403925050819055506001600360008473ffffffffffffffffffffffffffffffffffffffff1673ffffffffffffffffffffffffffffffffffffffff16815260200190815260200160002060008282540192505081905550816002600083815260200190815260200160002060006101000a81548173ffffffffffffffffffffffffffffffffffffffff021916908373ffffffffffffffffffffffffffffffffffffffff160217905550808273ffffffffffffffffffffffffffffffffffffffff168473ffffffffffffffffffffffffffffffffffffffff167fddf252ad1be2c89b69c2b068fc378daa952ba7f163c4a11628f55a4df523b3ef60405160405180910390a4611f278383836001612545565b505050565b611f4682826040518060200160405280600081525061254b565b5050565b6040518060a00160405280848152602001428152602001838152602001611f70856125a6565b81526020018273ffffffffffffffffffffffffffffffffffffffff16815250601160008581526020019081526020016000206000820151816000015560208201518160010155604082015181600201556060820151816003016000820151816000019081611fde9190613ae8565b506020820151816001019081611ff49190613ae8565b5060408201518160020160006101000a81548160ff021916908360ff16021790555060608201518160020160016101000a81548160ff021916908360ff16021790555060808201518160020160026101000a81548160ff021916908360ff160217905550505060808201518160060160006101000a81548173ffffffffffffffffffffffffffffffffffffffff021916908373ffffffffffffffffffffffffffffffffffffffff160217905550905050601260008273ffffffffffffffffffffffffffffffffffffffff1673ffffffffffffffffffffffffffffffffffffffff1681526020019081526020016000208390806001815401808255809150506001900390600052602060002001600090919091909150557f42e22845cdfee2da8f8e56b8d8f9807a12fd6906d54b388fe7ec9d2329e70b3e83828460405161213d9392919061446a565b60405180910390a1505050565b60006002600083815260200190815260200160002060009054906101000a900473ffffffffffffffffffffffffffffffffffffffff169050919050565b6000600760009054906101000a900473ffffffffffffffffffffffffffffffffffffffff16905081600760006101000a81548173ffffffffffffffffffffffffffffffffffffffff021916908373ffffffffffffffffffffffffffffffffffffffff1602179055508173ffffffffffffffffffffffffffffffffffffffff168173ffffffffffffffffffffffffffffffffffffffff167f8be0079c531659141344cd1fd0a4f28419497f9722a3daafe3b4186f6b6457e060405160405180910390a35050565b8173ffffffffffffffffffffffffffffffffffffffff168373ffffffffffffffffffffffffffffffffffffffff16036122bb576040517f08c379a00000000000000000000000000000000000000000000000000000000081526004016122b2906144ed565b60405180910390fd5b80600560008573ffffffffffffffffffffffffffffffffffffffff1673ffffffffffffffffffffffffffffffffffffffff16815260200190815260200160002060008473ffffffffffffffffffffffffffffffffffffffff1673ffffffffffffffffffffffffffffffffffffffff16815260200190815260200160002060006101000a81548160ff0219169083151502179055508173ffffffffffffffffffffffffffffffffffffffff168373ffffffffffffffffffffffffffffffffffffffff167f17307eab39ab6107e8899845ad3d59bd9653f200f220920489ca2b5937696c31836040516123ac9190612da8565b60405180910390a3505050565b6123c4848484611c33565b6123d084848484612627565b61240f576040517f08c379a00000000000000000000000000000000000000000000000000000000081526004016124069061457f565b60405180910390fd5b50505050565b606060405180602001604052806000815250905090565b606061243782611a92565b6000612441612415565b90506000815111612461576040518060200160405280600081525061248c565b8061246b846127ae565b60405160200161247c929190614224565b6040516020818303038152906040525b915050919050565b60007f01ffc9a7000000000000000000000000000000000000000000000000000000007bffffffffffffffffffffffffffffffffffffffffffffffffffffffff1916827bffffffffffffffffffffffffffffffffffffffffffffffffffffffff1916149050919050565b60008073ffffffffffffffffffffffffffffffffffffffff166125208361214a565b73ffffffffffffffffffffffffffffffffffffffff1614159050919050565b50505050565b50505050565b612555838361287c565b6125626000848484612627565b6125a1576040517f08c379a00000000000000000000000000000000000000000000000000000000081526004016125989061457f565b60405180910390fd5b505050565b6125ae612cbc565b6040518060a001604052806040518060200160405280600081525081526020016125d6611224565b6125df856127ae565b6040516020016125f0929190614224565b6040516020818303038152906040528152602001600a60ff168152602001600a60ff168152602001600060ff168152509050919050565b60006126488473ffffffffffffffffffffffffffffffffffffffff16612a99565b156127a1578373ffffffffffffffffffffffffffffffffffffffff1663150b7a02612671611add565b8786866040518563ffffffff1660e01b815260040161269394939291906145f4565b6020604051808303816000875af19250505080156126cf57506040513d601f19601f820116820180604052508101906126cc9190614655565b60015b612751573d80600081146126ff576040519150601f19603f3d011682016040523d82523d6000602084013e612704565b606091505b506000815103612749576040517f08c379a00000000000000000000000000000000000000000000000000000000081526004016127409061457f565b60405180910390fd5b805181602001fd5b63150b7a0260e01b7bffffffffffffffffffffffffffffffffffffffffffffffffffffffff1916817bffffffffffffffffffffffffffffffffffffffffffffffffffffffff1916149150506127a6565b600190505b949350505050565b6060600060016127bd84612abc565b01905060008167ffffffffffffffff8111156127dc576127db612f7a565b5b6040519080825280601f01601f19166020018201604052801561280e5781602001600182028036833780820191505090505b509050600082602001820190505b600115612871578080600190039150507f3031323334353637383961626364656600000000000000000000000000000000600a86061a8153600a858161286557612864613ecd565b5b0494506000850361281c575b819350505050919050565b600073ffffffffffffffffffffffffffffffffffffffff168273ffffffffffffffffffffffffffffffffffffffff16036128eb576040517f08c379a00000000000000000000000000000000000000000000000000000000081526004016128e2906146ce565b60405180910390fd5b6128f4816124fe565b15612934576040517f08c379a000000000000000000000000000000000000000000000000000000000815260040161292b9061473a565b60405180910390fd5b61294260008383600161253f565b61294b816124fe565b1561298b576040517f08c379a00000000000000000000000000000000000000000000000000000000081526004016129829061473a565b60405180910390fd5b6001600360008473ffffffffffffffffffffffffffffffffffffffff1673ffffffffffffffffffffffffffffffffffffffff16815260200190815260200160002060008282540192505081905550816002600083815260200190815260200160002060006101000a81548173ffffffffffffffffffffffffffffffffffffffff021916908373ffffffffffffffffffffffffffffffffffffffff160217905550808273ffffffffffffffffffffffffffffffffffffffff16600073ffffffffffffffffffffffffffffffffffffffff167fddf252ad1be2c89b69c2b068fc378daa952ba7f163c4a11628f55a4df523b3ef60405160405180910390a4612a95600083836001612545565b5050565b6000808273ffffffffffffffffffffffffffffffffffffffff163b119050919050565b600080600090507a184f03e93ff9f4daa797ed6e38ed64bf6a1f0100000000000000008310612b1a577a184f03e93ff9f4daa797ed6e38ed64bf6a1f0100000000000000008381612b1057612b0f613ecd565b5b0492506040810190505b6d04ee2d6d415b85acef81000000008310612b57576d04ee2d6d415b85acef81000000008381612b4d57612b4c613ecd565b5b0492506020810190505b662386f26fc100008310612b8657662386f26fc100008381612b7c57612b7b613ecd565b5b0492506010810190505b6305f5e1008310612baf576305f5e1008381612ba557612ba4613ecd565b5b0492506008810190505b6127108310612bd4576127108381612bca57612bc9613ecd565b5b0492506004810190505b60648310612bf75760648381612bed57612bec613ecd565b5b0492506002810190505b600a8310612c06576001810190505b80915050919050565b6040518060a00160405280600081526020016000815260200160008152602001612c37612cbc565b8152602001600073ffffffffffffffffffffffffffffffffffffffff1681525090565b604051806101200160405280600073ffffffffffffffffffffffffffffffffffffffff16815260200160608152602001600081526020016000815260200160008152602001600081526020016000815260200160008152602001600081525090565b6040518060a001604052806060815260200160608152602001600060ff168152602001600060ff168152602001600060ff1681525090565b6000604051905090565b600080fd5b600080fd5b60007fffffffff0000000000000000000000000000000000000000000000000000000082169050919050565b612d3d81612d08565b8114612d4857600080fd5b50565b600081359050612d5a81612d34565b92915050565b600060208284031215612d7657612d75612cfe565b5b6000612d8484828501612d4b565b91505092915050565b60008115159050919050565b612da281612d8d565b82525050565b6000602082019050612dbd6000830184612d99565b92915050565b600073ffffffffffffffffffffffffffffffffffffffff82169050919050565b6000612dee82612dc3565b9050919050565b612dfe81612de3565b8114612e0957600080fd5b50565b600081359050612e1b81612df5565b92915050565b6000819050919050565b612e3481612e21565b8114612e3f57600080fd5b50565b600081359050612e5181612e2b565b92915050565b60008060008060808587031215612e7157612e70612cfe565b5b6000612e7f87828801612e0c565b9450506020612e9087828801612e0c565b9350506040612ea187828801612e42565b9250506060612eb287828801612e42565b91505092959194509250565b600081519050919050565b600082825260208201905092915050565b60005b83811015612ef8578082015181840152602081019050612edd565b60008484015250505050565b6000601f19601f8301169050919050565b6000612f2082612ebe565b612f2a8185612ec9565b9350612f3a818560208601612eda565b612f4381612f04565b840191505092915050565b60006020820190508181036000830152612f688184612f15565b905092915050565b600080fd5b600080fd5b7f4e487b7100000000000000000000000000000000000000000000000000000000600052604160045260246000fd5b612fb282612f04565b810181811067ffffffffffffffff82111715612fd157612fd0612f7a565b5b80604052505050565b6000612fe4612cf4565b9050612ff08282612fa9565b919050565b600067ffffffffffffffff8211156130105761300f612f7a565b5b61301982612f04565b9050602081019050919050565b82818337600083830152505050565b600061304861304384612ff5565b612fda565b90508281526020810184848401111561306457613063612f75565b5b61306f848285613026565b509392505050565b600082601f83011261308c5761308b612f70565b5b813561309c848260208601613035565b91505092915050565b6000602082840312156130bb576130ba612cfe565b5b600082013567ffffffffffffffff8111156130d9576130d8612d03565b5b6130e584828501613077565b91505092915050565b60006020828403121561310457613103612cfe565b5b600061311284828501612e42565b91505092915050565b600061312682612dc3565b9050919050565b6131368161311b565b82525050565b6000602082019050613151600083018461312d565b92915050565b6131608161311b565b811461316b57600080fd5b50565b60008135905061317d81613157565b92915050565b6000806040838503121561319a57613199612cfe565b5b60006131a88582860161316e565b92505060206131b985828601612e42565b9150509250929050565b6131cc81612e21565b82525050565b60006020820190506131e760008301846131c3565b92915050565b60008060006060848603121561320657613205612cfe565b5b60006132148682870161316e565b93505060206132258682870161316e565b925050604061323686828701612e42565b9150509250925092565b60008060006060848603121561325957613258612cfe565b5b60006132678682870161316e565b935050602061327886828701612e42565b925050604061328986828701612e42565b9150509250925092565b6000602082840312156132a9576132a8612cfe565b5b60006132b78482850161316e565b91505092915050565b600081519050919050565b600082825260208201905092915050565b6000819050602082019050919050565b6132f581612e21565b82525050565b600061330783836132ec565b60208301905092915050565b6000602082019050919050565b600061332b826132c0565b61333581856132cb565b9350613340836132dc565b8060005b8381101561337157815161335888826132fb565b975061336383613313565b925050600181019050613344565b5085935050505092915050565b600060208201905081810360008301526133988184613320565b905092915050565b6133a981612d8d565b81146133b457600080fd5b50565b6000813590506133c6816133a0565b92915050565b600080604083850312156133e3576133e2612cfe565b5b60006133f18582860161316e565b9250506020613402858286016133b7565b9150509250929050565b600082825260208201905092915050565b600061342882612ebe565b613432818561340c565b9350613442818560208601612eda565b61344b81612f04565b840191505092915050565b600060ff82169050919050565b61346c81613456565b82525050565b600060a083016000830151848203600086015261348f828261341d565b915050602083015184820360208601526134a9828261341d565b91505060408301516134be6040860182613463565b5060608301516134d16060860182613463565b5060808301516134e46080860182613463565b508091505092915050565b6134f88161311b565b82525050565b600060a08301600083015161351660008601826132ec565b50602083015161352960208601826132ec565b50604083015161353c60408601826132ec565b50606083015184820360608601526135548282613472565b915050608083015161356960808601826134ef565b508091505092915050565b6000602082019050818103600083015261358e81846134fe565b905092915050565b600067ffffffffffffffff8211156135b1576135b0612f7a565b5b6135ba82612f04565b9050602081019050919050565b60006135da6135d584613596565b612fda565b9050828152602081018484840111156135f6576135f5612f75565b5b613601848285613026565b509392505050565b600082601f83011261361e5761361d612f70565b5b813561362e8482602086016135c7565b91505092915050565b6000806000806080858703121561365157613650612cfe565b5b600061365f8782880161316e565b94505060206136708782880161316e565b935050604061368187828801612e42565b925050606085013567ffffffffffffffff8111156136a2576136a1612d03565b5b6136ae87828801613609565b91505092959194509250565b6000610120830160008301516136d360008601826134ef565b50602083015184820360208601526136eb828261341d565b915050604083015161370060408601826132ec565b50606083015161371360608601826132ec565b50608083015161372660808601826132ec565b5060a083015161373960a08601826132ec565b5060c083015161374c60c08601826132ec565b5060e083015161375f60e08601826132ec565b506101008301516137746101008601826132ec565b508091505092915050565b6000602082019050818103600083015261379981846136ba565b905092915050565b600080604083850312156137b8576137b7612cfe565b5b60006137c68582860161316e565b92505060206137d78582860161316e565b9150509250929050565b6000806000606084860312156137fa576137f9612cfe565b5b600061380886828701612e42565b93505060206138198682870161316e565b925050604084013567ffffffffffffffff81111561383a57613839612d03565b5b61384686828701613077565b9150509250925092565b6000819050919050565b600061387561387061386b84612dc3565b613850565b612dc3565b9050919050565b60006138878261385a565b9050919050565b60006138998261387c565b9050919050565b6138a98161388e565b82525050565b60006060820190506138c460008301866138a0565b6138d1602083018561312d565b6138de60408301846131c3565b949350505050565b7f4e487b7100000000000000000000000000000000000000000000000000000000600052602260045260246000fd5b6000600282049050600182168061392d57607f821691505b6020821081036139405761393f6138e6565b5b50919050565b60008190508160005260206000209050919050565b60006020601f8301049050919050565b600082821b905092915050565b6000600883026139a87fffffffffffffffffffffffffffffffffffffffffffffffffffffffffffffffff8261396b565b6139b2868361396b565b95508019841693508086168417925050509392505050565b60006139e56139e06139db84612e21565b613850565b612e21565b9050919050565b6000819050919050565b6139ff836139ca565b613a13613a0b826139ec565b848454613978565b825550505050565b600090565b613a28613a1b565b613a338184846139f6565b505050565b5b81811015613a5757613a4c600082613a20565b600181019050613a39565b5050565b601f821115613a9c57613a6d81613946565b613a768461395b565b81016020851015613a85578190505b613a99613a918561395b565b830182613a38565b50505b505050565b600082821c905092915050565b6000613abf60001984600802613aa1565b1980831691505092915050565b6000613ad88383613aae565b9150826002028217905092915050565b613af182612ebe565b67ffffffffffffffff811115613b0a57613b09612f7a565b5b613b148254613915565b613b1f828285613a5b565b600060209050601f831160018114613b525760008415613b40578287015190505b613b4a8582613acc565b865550613bb2565b601f198416613b6086613946565b60005b82811015613b8857848901518255600182019150602085019450602081019050613b63565b86831015613ba55784890151613ba1601f891682613aae565b8355505b6001600288020188555050505b505050505050565b7f4552433732313a20617070726f76616c20746f2063757272656e74206f776e6560008201527f7200000000000000000000000000000000000000000000000000000000000000602082015250565b6000613c16602183612ec9565b9150613c2182613bba565b604082019050919050565b60006020820190508181036000830152613c4581613c09565b9050919050565b7f4552433732313a20617070726f76652063616c6c6572206973206e6f7420746f60008201527f6b656e206f776e6572206f7220617070726f76656420666f7220616c6c000000602082015250565b6000613ca8603d83612ec9565b9150613cb382613c4c565b604082019050919050565b60006020820190508181036000830152613cd781613c9b565b9050919050565b7f4e487b7100000000000000000000000000000000000000000000000000000000600052601160045260246000fd5b60008160011c9050919050565b6000808291508390505b6001851115613d6457808604811115613d4057613d3f613cde565b5b6001851615613d4f5780820291505b8081029050613d5d85613d0d565b9450613d24565b94509492505050565b600082613d7d5760019050613e39565b81613d8b5760009050613e39565b8160018114613da15760028114613dab57613dda565b6001915050613e39565b60ff841115613dbd57613dbc613cde565b5b8360020a915084821115613dd457613dd3613cde565b5b50613e39565b5060208310610133831016604e8410600b8410161715613e0f5782820a905083811115613e0a57613e09613cde565b5b613e39565b613e1c8484846001613d1a565b92509050818404811115613e3357613e32613cde565b5b81810290505b9392505050565b6000613e4b82612e21565b9150613e5683612e21565b9250613e837fffffffffffffffffffffffffffffffffffffffffffffffffffffffffffffffff8484613d6d565b905092915050565b6000613e9682612e21565b9150613ea183612e21565b9250828202613eaf81612e21565b91508282048414831517613ec657613ec5613cde565b5b5092915050565b7f4e487b7100000000000000000000000000000000000000000000000000000000600052601260045260246000fd5b6000613f0782612e21565b9150613f1283612e21565b925082613f2257613f21613ecd565b5b828204905092915050565b7f4552433732313a2063616c6c6572206973206e6f7420746f6b656e206f776e6560008201527f72206f7220617070726f76656400000000000000000000000000000000000000602082015250565b6000613f89602d83612ec9565b9150613f9482613f2d565b604082019050919050565b60006020820190508181036000830152613fb881613f7c565b9050919050565b6000613fca82612e21565b9150613fd583612e21565b9250828203905081811115613fed57613fec613cde565b5b92915050565b6000613ffe82612e21565b915061400983612e21565b92508261401957614018613ecd565b5b828206905092915050565b7f4e6f206d6f726520617661696c61626c65206e66747320746f2070757263686160008201527f7365000000000000000000000000000000000000000000000000000000000000602082015250565b6000614080602283612ec9565b915061408b82614024565b604082019050919050565b600060208201905081810360008301526140af81614073565b9050919050565b60006140c182612e21565b91506140cc83612e21565b92508282019050808211156140e4576140e3613cde565b5b92915050565b7f4552433732313a20696e76616c696420746f6b656e2049440000000000000000600082015250565b6000614120601883612ec9565b915061412b826140ea565b602082019050919050565b6000602082019050818103600083015261414f81614113565b9050919050565b7f4552433732313a2061646472657373207a65726f206973206e6f74206120766160008201527f6c6964206f776e65720000000000000000000000000000000000000000000000602082015250565b60006141b2602983612ec9565b91506141bd82614156565b604082019050919050565b600060208201905081810360008301526141e1816141a5565b9050919050565b600081905092915050565b60006141fe82612ebe565b61420881856141e8565b9350614218818560208601612eda565b80840191505092915050565b600061423082856141f3565b915061423c82846141f3565b91508190509392505050565b7f4f776e61626c653a206e6577206f776e657220697320746865207a65726f206160008201527f6464726573730000000000000000000000000000000000000000000000000000602082015250565b60006142a4602683612ec9565b91506142af82614248565b604082019050919050565b600060208201905081810360008301526142d381614297565b9050919050565b7f4f776e61626c653a2063616c6c6572206973206e6f7420746865206f776e6572600082015250565b6000614310602083612ec9565b915061431b826142da565b602082019050919050565b6000602082019050818103600083015261433f81614303565b9050919050565b7f4552433732313a207472616e736665722066726f6d20696e636f72726563742060008201527f6f776e6572000000000000000000000000000000000000000000000000000000602082015250565b60006143a2602583612ec9565b91506143ad82614346565b604082019050919050565b600060208201905081810360008301526143d181614395565b9050919050565b7f4552433732313a207472616e7366657220746f20746865207a65726f2061646460008201527f7265737300000000000000000000000000000000000000000000000000000000602082015250565b6000614434602483612ec9565b915061443f826143d8565b604082019050919050565b6000602082019050818103600083015261446381614427565b9050919050565b600060608201905061447f60008301866131c3565b61448c602083018561312d565b61449960408301846131c3565b949350505050565b7f4552433732313a20617070726f766520746f2063616c6c657200000000000000600082015250565b60006144d7601983612ec9565b91506144e2826144a1565b602082019050919050565b60006020820190508181036000830152614506816144ca565b9050919050565b7f4552433732313a207472616e7366657220746f206e6f6e20455243373231526560008201527f63656976657220696d706c656d656e7465720000000000000000000000000000602082015250565b6000614569603283612ec9565b91506145748261450d565b604082019050919050565b600060208201905081810360008301526145988161455c565b9050919050565b600081519050919050565b600082825260208201905092915050565b60006145c68261459f565b6145d081856145aa565b93506145e0818560208601612eda565b6145e981612f04565b840191505092915050565b6000608082019050614609600083018761312d565b614616602083018661312d565b61462360408301856131c3565b818103606083015261463581846145bb565b905095945050505050565b60008151905061464f81612d34565b92915050565b60006020828403121561466b5761466a612cfe565b5b600061467984828501614640565b91505092915050565b7f4552433732313a206d696e7420746f20746865207a65726f2061646472657373600082015250565b60006146b8602083612ec9565b91506146c382614682565b602082019050919050565b600060208201905081810360008301526146e7816146ab565b9050919050565b7f4552433732313a20746f6b656e20616c7265616479206d696e74656400000000600082015250565b6000614724601c83612ec9565b915061472f826146ee565b602082019050919050565b6000602082019050818103600083015261475381614717565b905091905056fea26469706673582212202a78616bde1600e6aff69033521aaa5332df0518560ed98673838a343caaa74164736f6c63430008120033516d546b3473506f59796d70746b4b4e5870765341574b54373937473676594a65633257454346584d6d54454552516d5666576b796846694d6861374435416464525038464d543179765a7947435a7352397057317438314158676d",
  "linkReferences": {},
  "deployedLinkReferences": {}
}