{
  "_format": "hh-sol-artifact-1",
  "contractName": "EAvatar",
  "sourceName": "contracts/EAvatar.sol",
  "abi": [
    {
      "inputs": [
        {
          "internalType": "address",
          "name": "bond_issuer",
          "type": "address"
        }
      ],
      "stateMutability": "nonpayable",
      "type": "constructor"
    },
    {
      "anonymous": false,
      "inputs": [
        {
          "indexed": true,
          "internalType": "address",
          "name": "owner",
          "type": "address"
        },
        {
          "indexed": true,
          "internalType": "address",
          "name": "approved",
          "type": "address"
        },
        {
          "indexed": true,
          "internalType": "uint256",
          "name": "tokenId",
          "type": "uint256"
        }
      ],
      "name": "Approval",
      "type": "event"
    },
    {
      "anonymous": false,
      "inputs": [
        {
          "indexed": true,
          "internalType": "address",
          "name": "owner",
          "type": "address"
        },
        {
          "indexed": true,
          "internalType": "address",
          "name": "operator",
          "type": "address"
        },
        {
          "indexed": false,
          "internalType": "bool",
          "name": "approved",
          "type": "bool"
        }
      ],
      "name": "ApprovalForAll",
      "type": "event"
    },
    {
      "anonymous": false,
      "inputs": [
        {
          "indexed": false,
          "internalType": "uint256",
          "name": "_fromTokenId",
          "type": "uint256"
        },
        {
          "indexed": false,
          "internalType": "uint256",
          "name": "_toTokenId",
          "type": "uint256"
        }
      ],
      "name": "BatchMetadataUpdate",
      "type": "event"
    },
    {
      "anonymous": false,
      "inputs": [
        {
          "indexed": false,
          "internalType": "uint256",
          "name": "_tokenId",
          "type": "uint256"
        }
      ],
      "name": "MetadataUpdate",
      "type": "event"
    },
    {
      "anonymous": false,
      "inputs": [
        {
          "indexed": false,
          "internalType": "address",
          "name": "from",
          "type": "address"
        },
        {
          "indexed": false,
          "internalType": "address",
          "name": "to",
          "type": "address"
        },
        {
          "indexed": false,
          "internalType": "uint256",
          "name": "_amount",
          "type": "uint256"
        }
      ],
      "name": "NftBought",
      "type": "event"
    },
    {
      "anonymous": false,
      "inputs": [
        {
          "indexed": true,
          "internalType": "address",
          "name": "previousOwner",
          "type": "address"
        },
        {
          "indexed": true,
          "internalType": "address",
          "name": "newOwner",
          "type": "address"
        }
      ],
      "name": "OwnershipTransferred",
      "type": "event"
    },
    {
      "anonymous": false,
      "inputs": [
        {
          "indexed": true,
          "internalType": "address",
          "name": "from",
          "type": "address"
        },
        {
          "indexed": true,
          "internalType": "address",
          "name": "to",
          "type": "address"
        },
        {
          "indexed": true,
          "internalType": "uint256",
          "name": "tokenId",
          "type": "uint256"
        }
      ],
      "name": "Transfer",
      "type": "event"
    },
    {
      "anonymous": false,
      "inputs": [
        {
          "indexed": false,
          "internalType": "uint256",
          "name": "tokenId",
          "type": "uint256"
        },
        {
          "indexed": false,
          "internalType": "address",
          "name": "owner",
          "type": "address"
        },
        {
          "indexed": false,
          "internalType": "uint256",
          "name": "price",
          "type": "uint256"
        }
      ],
      "name": "nftItemCreated",
      "type": "event"
    },
    {
      "inputs": [
        {
          "internalType": "address",
          "name": "to",
          "type": "address"
        },
        {
          "internalType": "uint256",
          "name": "tokenId",
          "type": "uint256"
        }
      ],
      "name": "approve",
      "outputs": [],
      "stateMutability": "nonpayable",
      "type": "function"
    },
    {
      "inputs": [],
      "name": "availableNFTs",
      "outputs": [
        {
          "internalType": "bool",
          "name": "ans",
          "type": "bool"
        }
      ],
      "stateMutability": "view",
      "type": "function"
    },
    {
      "inputs": [
        {
          "internalType": "address",
          "name": "owner",
          "type": "address"
        }
      ],
      "name": "balanceOf",
      "outputs": [
        {
          "internalType": "uint256",
          "name": "",
          "type": "uint256"
        }
      ],
      "stateMutability": "view",
      "type": "function"
    },
    {
      "inputs": [],
      "name": "bondMatureAmount",
      "outputs": [
        {
          "internalType": "uint256",
          "name": "amount",
          "type": "uint256"
        }
      ],
      "stateMutability": "view",
      "type": "function"
    },
    {
      "inputs": [
        {
          "internalType": "address payable",
          "name": "from",
          "type": "address"
        },
        {
          "internalType": "address payable",
          "name": "to",
          "type": "address"
        },
        {
          "internalType": "uint256",
          "name": "_amount",
          "type": "uint256"
        },
        {
          "internalType": "uint256",
          "name": "tokenId",
          "type": "uint256"
        }
      ],
      "name": "buyNFT",
      "outputs": [],
      "stateMutability": "payable",
      "type": "function"
    },
    {
      "inputs": [],
      "name": "calculateAccruedInterest",
      "outputs": [
        {
          "internalType": "uint256",
          "name": "",
          "type": "uint256"
        }
      ],
      "stateMutability": "view",
      "type": "function"
    },
    {
      "inputs": [
        {
          "internalType": "uint256",
          "name": "tokenId",
          "type": "uint256"
        },
        {
          "internalType": "address",
          "name": "owner",
          "type": "address"
        },
        {
          "internalType": "string",
          "name": "name",
          "type": "string"
        }
      ],
      "name": "changeCharacterName",
      "outputs": [],
      "stateMutability": "view",
      "type": "function"
    },
    {
      "inputs": [
        {
          "internalType": "uint256",
          "name": "tokenId",
          "type": "uint256"
        }
      ],
      "name": "getApproved",
      "outputs": [
        {
          "internalType": "address",
          "name": "",
          "type": "address"
        }
      ],
      "stateMutability": "view",
      "type": "function"
    },
    {
      "inputs": [],
      "name": "getBaseURI",
      "outputs": [
        {
          "internalType": "string",
          "name": "",
          "type": "string"
        }
      ],
      "stateMutability": "view",
      "type": "function"
    },
    {
      "inputs": [],
      "name": "getBondInfo",
      "outputs": [
        {
          "components": [
            {
              "internalType": "address",
              "name": "bondIssuer",
              "type": "address"
            },
            {
              "internalType": "string",
              "name": "bondName",
              "type": "string"
            },
            {
              "internalType": "uint256",
              "name": "issueDate",
              "type": "uint256"
            },
            {
              "internalType": "uint256",
              "name": "maturityDate",
              "type": "uint256"
            },
            {
              "internalType": "uint256",
              "name": "interestPaymentPercent",
              "type": "uint256"
            },
            {
              "internalType": "uint256",
              "name": "periodOfPayment",
              "type": "uint256"
            },
            {
              "internalType": "uint256",
              "name": "faceValue",
              "type": "uint256"
            },
            {
              "internalType": "uint256",
              "name": "shift",
              "type": "uint256"
            },
            {
              "internalType": "uint256",
              "name": "supply",
              "type": "uint256"
            }
          ],
          "internalType": "struct EAvatar.EBond",
          "name": "bond",
          "type": "tuple"
        }
      ],
      "stateMutability": "view",
      "type": "function"
    },
    {
      "inputs": [],
      "name": "getCharURI",
      "outputs": [
        {
          "internalType": "string",
          "name": "",
          "type": "string"
        }
      ],
      "stateMutability": "view",
      "type": "function"
    },
    {
      "inputs": [],
      "name": "getIssuer",
      "outputs": [
        {
          "internalType": "address",
          "name": "issuer",
          "type": "address"
        }
      ],
      "stateMutability": "view",
      "type": "function"
    },
    {
      "inputs": [
        {
          "internalType": "uint256",
          "name": "tokenId",
          "type": "uint256"
        }
      ],
      "name": "getMetadata",
      "outputs": [
        {
          "components": [
            {
              "internalType": "uint256",
              "name": "tokenId",
              "type": "uint256"
            },
            {
              "internalType": "uint256",
              "name": "mintedAt",
              "type": "uint256"
            },
            {
              "internalType": "uint256",
              "name": "listing_price",
              "type": "uint256"
            },
            {
              "components": [
                {
                  "internalType": "string",
                  "name": "name",
                  "type": "string"
                },
                {
                  "internalType": "string",
                  "name": "characterURI",
                  "type": "string"
                },
                {
                  "internalType": "uint8",
                  "name": "hp",
                  "type": "uint8"
                },
                {
                  "internalType": "uint8",
                  "name": "ap",
                  "type": "uint8"
                },
                {
                  "internalType": "uint8",
                  "name": "level",
                  "type": "uint8"
                }
              ],
              "internalType": "struct EAvatar.AvatarChar",
              "name": "character",
              "type": "tuple"
            },
            {
              "internalType": "address",
              "name": "ownerId",
              "type": "address"
            }
          ],
          "internalType": "struct EAvatar.EMetadata",
          "name": "item",
          "type": "tuple"
        }
      ],
      "stateMutability": "view",
      "type": "function"
    },
    {
      "inputs": [],
      "name": "interestPaymentAmount",
      "outputs": [
        {
          "internalType": "uint256",
          "name": "amount",
          "type": "uint256"
        }
      ],
      "stateMutability": "view",
      "type": "function"
    },
    {
      "inputs": [
        {
          "internalType": "address",
          "name": "owner",
          "type": "address"
        },
        {
          "internalType": "address",
          "name": "operator",
          "type": "address"
        }
      ],
      "name": "isApprovedForAll",
      "outputs": [
        {
          "internalType": "bool",
          "name": "",
          "type": "bool"
        }
      ],
      "stateMutability": "view",
      "type": "function"
    },
    {
      "inputs": [],
      "name": "isBondMatured",
      "outputs": [
        {
          "internalType": "bool",
          "name": "",
          "type": "bool"
        }
      ],
      "stateMutability": "view",
      "type": "function"
    },
    {
      "inputs": [],
      "name": "isInterestTime",
      "outputs": [
        {
          "internalType": "bool",
          "name": "",
          "type": "bool"
        }
      ],
      "stateMutability": "view",
      "type": "function"
    },
    {
      "inputs": [],
      "name": "matureCharacters",
      "outputs": [],
      "stateMutability": "nonpayable",
      "type": "function"
    },
    {
      "inputs": [
        {
          "internalType": "address",
          "name": "recipient",
          "type": "address"
        },
        {
          "internalType": "uint256",
          "name": "price",
          "type": "uint256"
        }
      ],
      "name": "mintNFT",
      "outputs": [
        {
          "internalType": "uint256",
          "name": "",
          "type": "uint256"
        }
      ],
      "stateMutability": "nonpayable",
      "type": "function"
    },
    {
      "inputs": [],
      "name": "name",
      "outputs": [
        {
          "internalType": "string",
          "name": "",
          "type": "string"
        }
      ],
      "stateMutability": "view",
      "type": "function"
    },
    {
      "inputs": [],
      "name": "owner",
      "outputs": [
        {
          "internalType": "address",
          "name": "",
          "type": "address"
        }
      ],
      "stateMutability": "view",
      "type": "function"
    },
    {
      "inputs": [
        {
          "internalType": "address",
          "name": "owner",
          "type": "address"
        }
      ],
      "name": "ownerCollection",
      "outputs": [
        {
          "internalType": "uint256[]",
          "name": "ids",
          "type": "uint256[]"
        }
      ],
      "stateMutability": "view",
      "type": "function"
    },
    {
      "inputs": [
        {
          "internalType": "uint256",
          "name": "tokenId",
          "type": "uint256"
        }
      ],
      "name": "ownerOf",
      "outputs": [
        {
          "internalType": "address",
          "name": "",
          "type": "address"
        }
      ],
      "stateMutability": "view",
      "type": "function"
    },
    {
      "inputs": [],
      "name": "renounceOwnership",
      "outputs": [],
      "stateMutability": "nonpayable",
      "type": "function"
    },
    {
      "inputs": [
        {
          "internalType": "address",
          "name": "from",
          "type": "address"
        },
        {
          "internalType": "address",
          "name": "to",
          "type": "address"
        },
        {
          "internalType": "uint256",
          "name": "tokenId",
          "type": "uint256"
        }
      ],
      "name": "safeTransferFrom",
      "outputs": [],
      "stateMutability": "nonpayable",
      "type": "function"
    },
    {
      "inputs": [
        {
          "internalType": "address",
          "name": "from",
          "type": "address"
        },
        {
          "internalType": "address",
          "name": "to",
          "type": "address"
        },
        {
          "internalType": "uint256",
          "name": "tokenId",
          "type": "uint256"
        },
        {
          "internalType": "bytes",
          "name": "data",
          "type": "bytes"
        }
      ],
      "name": "safeTransferFrom",
      "outputs": [],
      "stateMutability": "nonpayable",
      "type": "function"
    },
    {
      "inputs": [
        {
          "internalType": "address",
          "name": "operator",
          "type": "address"
        },
        {
          "internalType": "bool",
          "name": "approved",
          "type": "bool"
        }
      ],
      "name": "setApprovalForAll",
      "outputs": [],
      "stateMutability": "nonpayable",
      "type": "function"
    },
    {
      "inputs": [
        {
          "internalType": "string",
          "name": "newURI",
          "type": "string"
        }
      ],
      "name": "setBaseURI",
      "outputs": [],
      "stateMutability": "nonpayable",
      "type": "function"
    },
    {
      "inputs": [
        {
          "internalType": "string",
          "name": "newURI",
          "type": "string"
        }
      ],
      "name": "setCharURI",
      "outputs": [],
      "stateMutability": "nonpayable",
      "type": "function"
    },
    {
      "inputs": [
        {
          "internalType": "string",
          "name": "newURI",
          "type": "string"
        }
      ],
      "name": "setInactiveBaseURI",
      "outputs": [],
      "stateMutability": "nonpayable",
      "type": "function"
    },
    {
      "inputs": [
        {
          "internalType": "string",
          "name": "newURI",
          "type": "string"
        }
      ],
      "name": "setInactiveCharURI",
      "outputs": [],
      "stateMutability": "nonpayable",
      "type": "function"
    },
    {
      "inputs": [
        {
          "internalType": "bytes4",
          "name": "interfaceId",
          "type": "bytes4"
        }
      ],
      "name": "supportsInterface",
      "outputs": [
        {
          "internalType": "bool",
          "name": "",
          "type": "bool"
        }
      ],
      "stateMutability": "view",
      "type": "function"
    },
    {
      "inputs": [],
      "name": "symbol",
      "outputs": [
        {
          "internalType": "string",
          "name": "",
          "type": "string"
        }
      ],
      "stateMutability": "view",
      "type": "function"
    },
    {
      "inputs": [
        {
          "internalType": "uint256",
          "name": "tokenId",
          "type": "uint256"
        }
      ],
      "name": "tokenURI",
      "outputs": [
        {
          "internalType": "string",
          "name": "",
          "type": "string"
        }
      ],
      "stateMutability": "view",
      "type": "function"
    },
    {
      "inputs": [
        {
          "internalType": "address",
          "name": "from",
          "type": "address"
        },
        {
          "internalType": "address",
          "name": "to",
          "type": "address"
        },
        {
          "internalType": "uint256",
          "name": "tokenId",
          "type": "uint256"
        }
      ],
      "name": "transferFrom",
      "outputs": [],
      "stateMutability": "nonpayable",
      "type": "function"
    },
    {
      "inputs": [
        {
          "internalType": "address",
          "name": "newOwner",
          "type": "address"
        }
      ],
      "name": "transferOwnership",
      "outputs": [],
      "stateMutability": "nonpayable",
      "type": "function"
    }
  ],
  "bytecode": "0x60806040526040518060600160405280602e815260200162004e50602e9139601490816200002e919062000614565b5060405180602001604052806000815250601590816200004f919062000614565b506040518060600160405280602e815260200162004e22602e9139601690816200007a919062000614565b5060405180602001604052806000815250601790816200009b919062000614565b50348015620000a957600080fd5b5060405162004e7e38038062004e7e8339818101604052810190620000cf919062000765565b6040518060400160405280600781526020017f45417661746172000000000000000000000000000000000000000000000000008152506040518060400160405280600281526020017f454100000000000000000000000000000000000000000000000000000000000081525081600090816200014c919062000614565b5080600190816200015e919062000614565b5050506200018162000175620002cc60201b60201c565b620002d460201b60201c565b6040518061012001604052808273ffffffffffffffffffffffffffffffffffffffff1681526020016040518060400160405280600a81526020017f452d426f6e64204f6e65000000000000000000000000000000000000000000008152508152602001428152602001636e71188081526020016005815260200162f0c29f8152602001620186a08152602001600281526020016103e8815250600960008201518160000160006101000a81548173ffffffffffffffffffffffffffffffffffffffff021916908373ffffffffffffffffffffffffffffffffffffffff16021790555060208201518160010190816200027a919062000614565b5060408201518160020155606082015181600301556080820151816004015560a0820151816005015560c0820151816006015560e0820151816007015561010082015181600801559050505062000797565b600033905090565b6000600760009054906101000a900473ffffffffffffffffffffffffffffffffffffffff16905081600760006101000a81548173ffffffffffffffffffffffffffffffffffffffff021916908373ffffffffffffffffffffffffffffffffffffffff1602179055508173ffffffffffffffffffffffffffffffffffffffff168173ffffffffffffffffffffffffffffffffffffffff167f8be0079c531659141344cd1fd0a4f28419497f9722a3daafe3b4186f6b6457e060405160405180910390a35050565b600081519050919050565b7f4e487b7100000000000000000000000000000000000000000000000000000000600052604160045260246000fd5b7f4e487b7100000000000000000000000000000000000000000000000000000000600052602260045260246000fd5b600060028204905060018216806200041c57607f821691505b602082108103620004325762000431620003d4565b5b50919050565b60008190508160005260206000209050919050565b60006020601f8301049050919050565b600082821b905092915050565b6000600883026200049c7fffffffffffffffffffffffffffffffffffffffffffffffffffffffffffffffff826200045d565b620004a886836200045d565b95508019841693508086168417925050509392505050565b6000819050919050565b6000819050919050565b6000620004f5620004ef620004e984620004c0565b620004ca565b620004c0565b9050919050565b6000819050919050565b6200051183620004d4565b620005296200052082620004fc565b8484546200046a565b825550505050565b600090565b6200054062000531565b6200054d81848462000506565b505050565b5b8181101562000575576200056960008262000536565b60018101905062000553565b5050565b601f821115620005c4576200058e8162000438565b62000599846200044d565b81016020851015620005a9578190505b620005c1620005b8856200044d565b83018262000552565b50505b505050565b600082821c905092915050565b6000620005e960001984600802620005c9565b1980831691505092915050565b6000620006048383620005d6565b9150826002028217905092915050565b6200061f826200039a565b67ffffffffffffffff8111156200063b576200063a620003a5565b5b62000647825462000403565b6200065482828562000579565b600060209050601f8311600181146200068c576000841562000677578287015190505b620006838582620005f6565b865550620006f3565b601f1984166200069c8662000438565b60005b82811015620006c6578489015182556001820191506020850194506020810190506200069f565b86831015620006e65784890151620006e2601f891682620005d6565b8355505b6001600288020188555050505b505050505050565b600080fd5b600073ffffffffffffffffffffffffffffffffffffffff82169050919050565b60006200072d8262000700565b9050919050565b6200073f8162000720565b81146200074b57600080fd5b50565b6000815190506200075f8162000734565b92915050565b6000602082840312156200077e576200077d620006fb565b5b60006200078e848285016200074e565b91505092915050565b61467b80620007a76000396000f3fe60806040526004361061020f5760003560e01c8063714c539811610118578063a35e1370116100a0578063d5070b3e1161006f578063d5070b3e14610790578063e985e9c5146107bb578063ea317fff146107f8578063f164523814610823578063f2fde38b1461084c5761020f565b8063a35e1370146106c2578063a574cea4146106ed578063b88d4fde1461072a578063c87b56dd146107535761020f565b80638da5cb5b116100e75780638da5cb5b146105dd57806395d89b41146106085780639c50da7514610633578063a22cb46514610670578063a31b115f146106995761020f565b8063714c539814610559578063715018a614610584578063729a1a871461059b57806388456b7b146105c65761020f565b80632b8c41f41161019b57806342842e0e1161016a57806342842e0e14610462578063525564211461048b57806355f804b3146104b65780636352211e146104df57806370a082311461051c5761020f565b80632b8c41f4146103a657806337e08699146103cf5780633c168eab146103fa5780633fb3ff11146104375761020f565b80630816a3e2116101e25780630816a3e2146102c3578063081812fc146102ec578063095ea7b3146103295780631ed54e781461035257806323b872dd1461037d5761020f565b806301ffc9a71461021457806303c133801461025157806305f315721461026d57806306fdde0314610298575b600080fd5b34801561022057600080fd5b5061023b60048036038101906102369190612cd2565b610875565b6040516102489190612d1a565b60405180910390f35b61026b60048036038101906102669190612dc9565b6108d6565b005b34801561027957600080fd5b50610282610969565b60405161028f9190612d1a565b60405180910390f35b3480156102a457600080fd5b506102ad610979565b6040516102ba9190612ec0565b60405180910390f35b3480156102cf57600080fd5b506102ea60048036038101906102e59190613017565b610a0b565b005b3480156102f857600080fd5b50610313600480360381019061030e9190613060565b610a26565b60405161032091906130ae565b60405180910390f35b34801561033557600080fd5b50610350600480360381019061034b91906130f5565b610a6c565b005b34801561035e57600080fd5b50610367610b83565b6040516103749190613144565b60405180910390f35b34801561038957600080fd5b506103a4600480360381019061039f919061315f565b610bd2565b005b3480156103b257600080fd5b506103cd60048036038101906103c89190613017565b610c32565b005b3480156103db57600080fd5b506103e4610c4d565b6040516103f19190612d1a565b60405180910390f35b34801561040657600080fd5b50610421600480360381019061041c91906130f5565b610c77565b60405161042e9190613144565b60405180910390f35b34801561044357600080fd5b5061044c610d08565b6040516104599190613144565b60405180910390f35b34801561046e57600080fd5b506104896004803603810190610484919061315f565b610d6a565b005b34801561049757600080fd5b506104a0610d8a565b6040516104ad91906130ae565b60405180910390f35b3480156104c257600080fd5b506104dd60048036038101906104d89190613017565b610db7565b005b3480156104eb57600080fd5b5061050660048036038101906105019190613060565b610dd2565b60405161051391906130ae565b60405180910390f35b34801561052857600080fd5b50610543600480360381019061053e91906131b2565b610e58565b6040516105509190613144565b60405180910390f35b34801561056557600080fd5b5061056e610f0f565b60405161057b9190612ec0565b60405180910390f35b34801561059057600080fd5b50610599610fa1565b005b3480156105a757600080fd5b506105b0610fb5565b6040516105bd9190613144565b60405180910390f35b3480156105d257600080fd5b506105db610fc2565b005b3480156105e957600080fd5b506105f2611070565b6040516105ff91906130ae565b60405180910390f35b34801561061457600080fd5b5061061d61109a565b60405161062a9190612ec0565b60405180910390f35b34801561063f57600080fd5b5061065a600480360381019061065591906131b2565b61112c565b604051610667919061329d565b60405180910390f35b34801561067c57600080fd5b50610697600480360381019061069291906132eb565b6111c3565b005b3480156106a557600080fd5b506106c060048036038101906106bb9190613017565b6111d9565b005b3480156106ce57600080fd5b506106d76111f4565b6040516106e49190612ec0565b60405180910390f35b3480156106f957600080fd5b50610714600480360381019061070f9190613060565b611286565b6040516107219190613493565b60405180910390f35b34801561073657600080fd5b50610751600480360381019061074c9190613556565b6114b6565b005b34801561075f57600080fd5b5061077a60048036038101906107759190613060565b611518565b6040516107879190612ec0565b60405180910390f35b34801561079c57600080fd5b506107a561162a565b6040516107b2919061369e565b60405180910390f35b3480156107c757600080fd5b506107e260048036038101906107dd91906136c0565b611773565b6040516107ef9190612d1a565b60405180910390f35b34801561080457600080fd5b5061080d611807565b60405161081a9190612d1a565b60405180910390f35b34801561082f57600080fd5b5061084a60048036038101906108459190613700565b611816565b005b34801561085857600080fd5b50610873600480360381019061086e91906131b2565b611876565b005b6000634906490660e01b7bffffffffffffffffffffffffffffffffffffffffffffffffffffffff1916827bffffffffffffffffffffffffffffffffffffffffffffffffffffffff191614806108cf57506108ce826118f9565b5b9050919050565b6108e1848483610d6a565b8273ffffffffffffffffffffffffffffffffffffffff166108fc839081150290604051600060405180830381858888f19350505050158015610927573d6000803e3d6000fd5b507f608f6ac9327c2bf4d3c77adf447d2c448ba7b0971e0aaa9aa03f7ac29d874a4484333460405161095b939291906137ce565b60405180910390a150505050565b6000600960030154421015905090565b60606000805461098890613834565b80601f01602080910402602001604051908101604052809291908181526020018280546109b490613834565b8015610a015780601f106109d657610100808354040283529160200191610a01565b820191906000526020600020905b8154815290600101906020018083116109e457829003601f168201915b5050505050905090565b610a136119db565b8060179081610a229190613a07565b5050565b6000610a3182611a59565b6004600083815260200190815260200160002060009054906101000a900473ffffffffffffffffffffffffffffffffffffffff169050919050565b6000610a7782610dd2565b90508073ffffffffffffffffffffffffffffffffffffffff168373ffffffffffffffffffffffffffffffffffffffff1603610ae7576040517f08c379a0000000000000000000000000000000000000000000000000000000008152600401610ade90613b4b565b60405180910390fd5b8073ffffffffffffffffffffffffffffffffffffffff16610b06611aa4565b73ffffffffffffffffffffffffffffffffffffffff161480610b355750610b3481610b2f611aa4565b611773565b5b610b74576040517f08c379a0000000000000000000000000000000000000000000000000000000008152600401610b6b90613bdd565b60405180910390fd5b610b7e8383611aac565b505050565b6000610b8d610969565b610bca57600960070154600a610ba39190613d5f565b600960040154600960060154610bb99190613daa565b610bc39190613e1b565b9050610bcf565b600090505b90565b610be3610bdd611aa4565b82611b65565b610c22576040517f08c379a0000000000000000000000000000000000000000000000000000000008152600401610c1990613ebe565b60405180910390fd5b610c2d838383611bfa565b505050565b610c3a6119db565b8060169081610c499190613a07565b5050565b60008060096005015460096002015442610c679190613ede565b610c719190613f12565b14905090565b6000610c816119db565b600960080154610c916008611ef3565b10610cd1576040517f08c379a0000000000000000000000000000000000000000000000000000000008152600401610cc890613fb5565b60405180910390fd5b610cdb6008611f01565b6000610ce76008611ef3565b9050610cf38482611f17565b610cfe818486612134565b8091505092915050565b6000610d12610969565b610d62576000610d20610b83565b9050600060096005015460096003015442610d3b9190613ede565b610d459190613e1b565b905060008183610d559190613daa565b9050809350505050610d67565b600090505b90565b610d85838383604051806020016040528060008152506114b6565b505050565b6000600960000160009054906101000a900473ffffffffffffffffffffffffffffffffffffffff16905090565b610dbf6119db565b8060149081610dce9190613a07565b5050565b600080610dde83612334565b9050600073ffffffffffffffffffffffffffffffffffffffff168173ffffffffffffffffffffffffffffffffffffffff1603610e4f576040517f08c379a0000000000000000000000000000000000000000000000000000000008152600401610e4690614021565b60405180910390fd5b80915050919050565b60008073ffffffffffffffffffffffffffffffffffffffff168273ffffffffffffffffffffffffffffffffffffffff1603610ec8576040517f08c379a0000000000000000000000000000000000000000000000000000000008152600401610ebf906140b3565b60405180910390fd5b600360008373ffffffffffffffffffffffffffffffffffffffff1673ffffffffffffffffffffffffffffffffffffffff168152602001908152602001600020549050919050565b606060148054610f1e90613834565b80601f0160208091040260200160405190810160405280929190818152602001828054610f4a90613834565b8015610f975780601f10610f6c57610100808354040283529160200191610f97565b820191906000526020600020905b815481529060010190602001808311610f7a57829003601f168201915b5050505050905090565b610fa96119db565b610fb36000612371565b565b6000600960060154905090565b610fca6119db565b610fd2610969565b610fdb57600080fd5b61106e60158054610feb90613834565b80601f016020809104026020016040519081016040528092919081815260200182805461101790613834565b80156110645780601f1061103957610100808354040283529160200191611064565b820191906000526020600020905b81548152906001019060200180831161104757829003601f168201915b5050505050610db7565b565b6000600760009054906101000a900473ffffffffffffffffffffffffffffffffffffffff16905090565b6060600180546110a990613834565b80601f01602080910402602001604051908101604052809291908181526020018280546110d590613834565b80156111225780601f106110f757610100808354040283529160200191611122565b820191906000526020600020905b81548152906001019060200180831161110557829003601f168201915b5050505050905090565b6060601360008373ffffffffffffffffffffffffffffffffffffffff1673ffffffffffffffffffffffffffffffffffffffff1681526020019081526020016000208054806020026020016040519081016040528092919081815260200182805480156111b757602002820191906000526020600020905b8154815260200190600101908083116111a3575b50505050509050919050565b6111d56111ce611aa4565b8383612437565b5050565b6111e16119db565b80601590816111f09190613a07565b5050565b60606016805461120390613834565b80601f016020809104026020016040519081016040528092919081815260200182805461122f90613834565b801561127c5780601f106112515761010080835404028352916020019161127c565b820191906000526020600020905b81548152906001019060200180831161125f57829003601f168201915b5050505050905090565b61128e612b81565b601260008381526020019081526020016000206040518060a0016040529081600082015481526020016001820154815260200160028201548152602001600382016040518060a00160405290816000820180546112ea90613834565b80601f016020809104026020016040519081016040528092919081815260200182805461131690613834565b80156113635780601f1061133857610100808354040283529160200191611363565b820191906000526020600020905b81548152906001019060200180831161134657829003601f168201915b5050505050815260200160018201805461137c90613834565b80601f01602080910402602001604051908101604052809291908181526020018280546113a890613834565b80156113f55780601f106113ca576101008083540402835291602001916113f5565b820191906000526020600020905b8154815290600101906020018083116113d857829003601f168201915b505050505081526020016002820160009054906101000a900460ff1660ff1660ff1681526020016002820160019054906101000a900460ff1660ff1660ff1681526020016002820160029054906101000a900460ff1660ff1660ff168152505081526020016006820160009054906101000a900473ffffffffffffffffffffffffffffffffffffffff1673ffffffffffffffffffffffffffffffffffffffff1673ffffffffffffffffffffffffffffffffffffffff16815250509050919050565b6114c76114c1611aa4565b83611b65565b611506576040517f08c379a00000000000000000000000000000000000000000000000000000000081526004016114fd90613ebe565b60405180910390fd5b611512848484846125a3565b50505050565b606061152382611a59565b600060066000848152602001908152602001600020805461154390613834565b80601f016020809104026020016040519081016040528092919081815260200182805461156f90613834565b80156115bc5780601f10611591576101008083540402835291602001916115bc565b820191906000526020600020905b81548152906001019060200180831161159f57829003601f168201915b5050505050905060006115cd6125ff565b905060008151036115e2578192505050611625565b6000825111156116175780826040516020016115ff92919061410f565b60405160208183030381529060405292505050611625565b61162084612616565b925050505b919050565b611632612bcc565b6009604051806101200160405290816000820160009054906101000a900473ffffffffffffffffffffffffffffffffffffffff1673ffffffffffffffffffffffffffffffffffffffff1673ffffffffffffffffffffffffffffffffffffffff1681526020016001820180546116a690613834565b80601f01602080910402602001604051908101604052809291908181526020018280546116d290613834565b801561171f5780601f106116f45761010080835404028352916020019161171f565b820191906000526020600020905b81548152906001019060200180831161170257829003601f168201915b50505050508152602001600282015481526020016003820154815260200160048201548152602001600582015481526020016006820154815260200160078201548152602001600882015481525050905090565b6000600560008473ffffffffffffffffffffffffffffffffffffffff1673ffffffffffffffffffffffffffffffffffffffff16815260200190815260200160002060008373ffffffffffffffffffffffffffffffffffffffff1673ffffffffffffffffffffffffffffffffffffffff16815260200190815260200160002060009054906101000a900460ff16905092915050565b60008060096008015411905090565b8173ffffffffffffffffffffffffffffffffffffffff1661183684610dd2565b73ffffffffffffffffffffffffffffffffffffffff161461185657600080fd5b600061186184611286565b90508181606001516000018190525050505050565b61187e6119db565b600073ffffffffffffffffffffffffffffffffffffffff168173ffffffffffffffffffffffffffffffffffffffff16036118ed576040517f08c379a00000000000000000000000000000000000000000000000000000000081526004016118e4906141a5565b60405180910390fd5b6118f681612371565b50565b60007f80ac58cd000000000000000000000000000000000000000000000000000000007bffffffffffffffffffffffffffffffffffffffffffffffffffffffff1916827bffffffffffffffffffffffffffffffffffffffffffffffffffffffff191614806119c457507f5b5e139f000000000000000000000000000000000000000000000000000000007bffffffffffffffffffffffffffffffffffffffffffffffffffffffff1916827bffffffffffffffffffffffffffffffffffffffffffffffffffffffff1916145b806119d457506119d38261267e565b5b9050919050565b6119e3611aa4565b73ffffffffffffffffffffffffffffffffffffffff16611a01611070565b73ffffffffffffffffffffffffffffffffffffffff1614611a57576040517f08c379a0000000000000000000000000000000000000000000000000000000008152600401611a4e90614211565b60405180910390fd5b565b611a62816126e8565b611aa1576040517f08c379a0000000000000000000000000000000000000000000000000000000008152600401611a9890614021565b60405180910390fd5b50565b600033905090565b816004600083815260200190815260200160002060006101000a81548173ffffffffffffffffffffffffffffffffffffffff021916908373ffffffffffffffffffffffffffffffffffffffff160217905550808273ffffffffffffffffffffffffffffffffffffffff16611b1f83610dd2565b73ffffffffffffffffffffffffffffffffffffffff167f8c5be1e5ebec7d5bd14f71427d1e84f3dd0314c0f7b2291e5b200ac8c7c3b92560405160405180910390a45050565b600080611b7183610dd2565b90508073ffffffffffffffffffffffffffffffffffffffff168473ffffffffffffffffffffffffffffffffffffffff161480611bb35750611bb28185611773565b5b80611bf157508373ffffffffffffffffffffffffffffffffffffffff16611bd984610a26565b73ffffffffffffffffffffffffffffffffffffffff16145b91505092915050565b8273ffffffffffffffffffffffffffffffffffffffff16611c1a82610dd2565b73ffffffffffffffffffffffffffffffffffffffff1614611c70576040517f08c379a0000000000000000000000000000000000000000000000000000000008152600401611c67906142a3565b60405180910390fd5b600073ffffffffffffffffffffffffffffffffffffffff168273ffffffffffffffffffffffffffffffffffffffff1603611cdf576040517f08c379a0000000000000000000000000000000000000000000000000000000008152600401611cd690614335565b60405180910390fd5b611cec8383836001612729565b8273ffffffffffffffffffffffffffffffffffffffff16611d0c82610dd2565b73ffffffffffffffffffffffffffffffffffffffff1614611d62576040517f08c379a0000000000000000000000000000000000000000000000000000000008152600401611d59906142a3565b60405180910390fd5b6004600082815260200190815260200160002060006101000a81549073ffffffffffffffffffffffffffffffffffffffff02191690556001600360008573ffffffffffffffffffffffffffffffffffffffff1673ffffffffffffffffffffffffffffffffffffffff168152602001908152602001600020600082825403925050819055506001600360008473ffffffffffffffffffffffffffffffffffffffff1673ffffffffffffffffffffffffffffffffffffffff16815260200190815260200160002060008282540192505081905550816002600083815260200190815260200160002060006101000a81548173ffffffffffffffffffffffffffffffffffffffff021916908373ffffffffffffffffffffffffffffffffffffffff160217905550808273ffffffffffffffffffffffffffffffffffffffff168473ffffffffffffffffffffffffffffffffffffffff167fddf252ad1be2c89b69c2b068fc378daa952ba7f163c4a11628f55a4df523b3ef60405160405180910390a4611eee838383600161272f565b505050565b600081600001549050919050565b6001816000016000828254019250508190555050565b600073ffffffffffffffffffffffffffffffffffffffff168273ffffffffffffffffffffffffffffffffffffffff1603611f86576040517f08c379a0000000000000000000000000000000000000000000000000000000008152600401611f7d906143a1565b60405180910390fd5b611f8f816126e8565b15611fcf576040517f08c379a0000000000000000000000000000000000000000000000000000000008152600401611fc69061440d565b60405180910390fd5b611fdd600083836001612729565b611fe6816126e8565b15612026576040517f08c379a000000000000000000000000000000000000000000000000000000000815260040161201d9061440d565b60405180910390fd5b6001600360008473ffffffffffffffffffffffffffffffffffffffff1673ffffffffffffffffffffffffffffffffffffffff16815260200190815260200160002060008282540192505081905550816002600083815260200190815260200160002060006101000a81548173ffffffffffffffffffffffffffffffffffffffff021916908373ffffffffffffffffffffffffffffffffffffffff160217905550808273ffffffffffffffffffffffffffffffffffffffff16600073ffffffffffffffffffffffffffffffffffffffff167fddf252ad1be2c89b69c2b068fc378daa952ba7f163c4a11628f55a4df523b3ef60405160405180910390a461213060008383600161272f565b5050565b6040518060a0016040528084815260200142815260200183815260200161215a85612735565b81526020018273ffffffffffffffffffffffffffffffffffffffff168152506012600085815260200190815260200160002060008201518160000155602082015181600101556040820151816002015560608201518160030160008201518160000190816121c89190613a07565b5060208201518160010190816121de9190613a07565b5060408201518160020160006101000a81548160ff021916908360ff16021790555060608201518160020160016101000a81548160ff021916908360ff16021790555060808201518160020160026101000a81548160ff021916908360ff160217905550505060808201518160060160006101000a81548173ffffffffffffffffffffffffffffffffffffffff021916908373ffffffffffffffffffffffffffffffffffffffff160217905550905050601360008273ffffffffffffffffffffffffffffffffffffffff1673ffffffffffffffffffffffffffffffffffffffff1681526020019081526020016000208390806001815401808255809150506001900390600052602060002001600090919091909150557f42e22845cdfee2da8f8e56b8d8f9807a12fd6906d54b388fe7ec9d2329e70b3e8382846040516123279392919061442d565b60405180910390a1505050565b60006002600083815260200190815260200160002060009054906101000a900473ffffffffffffffffffffffffffffffffffffffff169050919050565b6000600760009054906101000a900473ffffffffffffffffffffffffffffffffffffffff16905081600760006101000a81548173ffffffffffffffffffffffffffffffffffffffff021916908373ffffffffffffffffffffffffffffffffffffffff1602179055508173ffffffffffffffffffffffffffffffffffffffff168173ffffffffffffffffffffffffffffffffffffffff167f8be0079c531659141344cd1fd0a4f28419497f9722a3daafe3b4186f6b6457e060405160405180910390a35050565b8173ffffffffffffffffffffffffffffffffffffffff168373ffffffffffffffffffffffffffffffffffffffff16036124a5576040517f08c379a000000000000000000000000000000000000000000000000000000000815260040161249c906144b0565b60405180910390fd5b80600560008573ffffffffffffffffffffffffffffffffffffffff1673ffffffffffffffffffffffffffffffffffffffff16815260200190815260200160002060008473ffffffffffffffffffffffffffffffffffffffff1673ffffffffffffffffffffffffffffffffffffffff16815260200190815260200160002060006101000a81548160ff0219169083151502179055508173ffffffffffffffffffffffffffffffffffffffff168373ffffffffffffffffffffffffffffffffffffffff167f17307eab39ab6107e8899845ad3d59bd9653f200f220920489ca2b5937696c31836040516125969190612d1a565b60405180910390a3505050565b6125ae848484611bfa565b6125ba848484846127b6565b6125f9576040517f08c379a00000000000000000000000000000000000000000000000000000000081526004016125f090614542565b60405180910390fd5b50505050565b606060405180602001604052806000815250905090565b606061262182611a59565b600061262b6125ff565b9050600081511161264b5760405180602001604052806000815250612676565b806126558461293d565b60405160200161266692919061410f565b6040516020818303038152906040525b915050919050565b60007f01ffc9a7000000000000000000000000000000000000000000000000000000007bffffffffffffffffffffffffffffffffffffffffffffffffffffffff1916827bffffffffffffffffffffffffffffffffffffffffffffffffffffffff1916149050919050565b60008073ffffffffffffffffffffffffffffffffffffffff1661270a83612334565b73ffffffffffffffffffffffffffffffffffffffff1614159050919050565b50505050565b50505050565b61273d612c2e565b6040518060a001604052806040518060200160405280600081525081526020016127656111f4565b61276e8561293d565b60405160200161277f92919061410f565b6040516020818303038152906040528152602001600a60ff168152602001600a60ff168152602001600060ff168152509050919050565b60006127d78473ffffffffffffffffffffffffffffffffffffffff16612a0b565b15612930578373ffffffffffffffffffffffffffffffffffffffff1663150b7a02612800611aa4565b8786866040518563ffffffff1660e01b815260040161282294939291906145b7565b6020604051808303816000875af192505050801561285e57506040513d601f19601f8201168201806040525081019061285b9190614618565b60015b6128e0573d806000811461288e576040519150601f19603f3d011682016040523d82523d6000602084013e612893565b606091505b5060008151036128d8576040517f08c379a00000000000000000000000000000000000000000000000000000000081526004016128cf90614542565b60405180910390fd5b805181602001fd5b63150b7a0260e01b7bffffffffffffffffffffffffffffffffffffffffffffffffffffffff1916817bffffffffffffffffffffffffffffffffffffffffffffffffffffffff191614915050612935565b600190505b949350505050565b60606000600161294c84612a2e565b01905060008167ffffffffffffffff81111561296b5761296a612eec565b5b6040519080825280601f01601f19166020018201604052801561299d5781602001600182028036833780820191505090505b509050600082602001820190505b600115612a00578080600190039150507f3031323334353637383961626364656600000000000000000000000000000000600a86061a8153600a85816129f4576129f3613dec565b5b049450600085036129ab575b819350505050919050565b6000808273ffffffffffffffffffffffffffffffffffffffff163b119050919050565b600080600090507a184f03e93ff9f4daa797ed6e38ed64bf6a1f0100000000000000008310612a8c577a184f03e93ff9f4daa797ed6e38ed64bf6a1f0100000000000000008381612a8257612a81613dec565b5b0492506040810190505b6d04ee2d6d415b85acef81000000008310612ac9576d04ee2d6d415b85acef81000000008381612abf57612abe613dec565b5b0492506020810190505b662386f26fc100008310612af857662386f26fc100008381612aee57612aed613dec565b5b0492506010810190505b6305f5e1008310612b21576305f5e1008381612b1757612b16613dec565b5b0492506008810190505b6127108310612b46576127108381612b3c57612b3b613dec565b5b0492506004810190505b60648310612b695760648381612b5f57612b5e613dec565b5b0492506002810190505b600a8310612b78576001810190505b80915050919050565b6040518060a00160405280600081526020016000815260200160008152602001612ba9612c2e565b8152602001600073ffffffffffffffffffffffffffffffffffffffff1681525090565b604051806101200160405280600073ffffffffffffffffffffffffffffffffffffffff16815260200160608152602001600081526020016000815260200160008152602001600081526020016000815260200160008152602001600081525090565b6040518060a001604052806060815260200160608152602001600060ff168152602001600060ff168152602001600060ff1681525090565b6000604051905090565b600080fd5b600080fd5b60007fffffffff0000000000000000000000000000000000000000000000000000000082169050919050565b612caf81612c7a565b8114612cba57600080fd5b50565b600081359050612ccc81612ca6565b92915050565b600060208284031215612ce857612ce7612c70565b5b6000612cf684828501612cbd565b91505092915050565b60008115159050919050565b612d1481612cff565b82525050565b6000602082019050612d2f6000830184612d0b565b92915050565b600073ffffffffffffffffffffffffffffffffffffffff82169050919050565b6000612d6082612d35565b9050919050565b612d7081612d55565b8114612d7b57600080fd5b50565b600081359050612d8d81612d67565b92915050565b6000819050919050565b612da681612d93565b8114612db157600080fd5b50565b600081359050612dc381612d9d565b92915050565b60008060008060808587031215612de357612de2612c70565b5b6000612df187828801612d7e565b9450506020612e0287828801612d7e565b9350506040612e1387828801612db4565b9250506060612e2487828801612db4565b91505092959194509250565b600081519050919050565b600082825260208201905092915050565b60005b83811015612e6a578082015181840152602081019050612e4f565b60008484015250505050565b6000601f19601f8301169050919050565b6000612e9282612e30565b612e9c8185612e3b565b9350612eac818560208601612e4c565b612eb581612e76565b840191505092915050565b60006020820190508181036000830152612eda8184612e87565b905092915050565b600080fd5b600080fd5b7f4e487b7100000000000000000000000000000000000000000000000000000000600052604160045260246000fd5b612f2482612e76565b810181811067ffffffffffffffff82111715612f4357612f42612eec565b5b80604052505050565b6000612f56612c66565b9050612f628282612f1b565b919050565b600067ffffffffffffffff821115612f8257612f81612eec565b5b612f8b82612e76565b9050602081019050919050565b82818337600083830152505050565b6000612fba612fb584612f67565b612f4c565b905082815260208101848484011115612fd657612fd5612ee7565b5b612fe1848285612f98565b509392505050565b600082601f830112612ffe57612ffd612ee2565b5b813561300e848260208601612fa7565b91505092915050565b60006020828403121561302d5761302c612c70565b5b600082013567ffffffffffffffff81111561304b5761304a612c75565b5b61305784828501612fe9565b91505092915050565b60006020828403121561307657613075612c70565b5b600061308484828501612db4565b91505092915050565b600061309882612d35565b9050919050565b6130a88161308d565b82525050565b60006020820190506130c3600083018461309f565b92915050565b6130d28161308d565b81146130dd57600080fd5b50565b6000813590506130ef816130c9565b92915050565b6000806040838503121561310c5761310b612c70565b5b600061311a858286016130e0565b925050602061312b85828601612db4565b9150509250929050565b61313e81612d93565b82525050565b60006020820190506131596000830184613135565b92915050565b60008060006060848603121561317857613177612c70565b5b6000613186868287016130e0565b9350506020613197868287016130e0565b92505060406131a886828701612db4565b9150509250925092565b6000602082840312156131c8576131c7612c70565b5b60006131d6848285016130e0565b91505092915050565b600081519050919050565b600082825260208201905092915050565b6000819050602082019050919050565b61321481612d93565b82525050565b6000613226838361320b565b60208301905092915050565b6000602082019050919050565b600061324a826131df565b61325481856131ea565b935061325f836131fb565b8060005b83811015613290578151613277888261321a565b975061328283613232565b925050600181019050613263565b5085935050505092915050565b600060208201905081810360008301526132b7818461323f565b905092915050565b6132c881612cff565b81146132d357600080fd5b50565b6000813590506132e5816132bf565b92915050565b6000806040838503121561330257613301612c70565b5b6000613310858286016130e0565b9250506020613321858286016132d6565b9150509250929050565b600082825260208201905092915050565b600061334782612e30565b613351818561332b565b9350613361818560208601612e4c565b61336a81612e76565b840191505092915050565b600060ff82169050919050565b61338b81613375565b82525050565b600060a08301600083015184820360008601526133ae828261333c565b915050602083015184820360208601526133c8828261333c565b91505060408301516133dd6040860182613382565b5060608301516133f06060860182613382565b5060808301516134036080860182613382565b508091505092915050565b6134178161308d565b82525050565b600060a083016000830151613435600086018261320b565b506020830151613448602086018261320b565b50604083015161345b604086018261320b565b50606083015184820360608601526134738282613391565b9150506080830151613488608086018261340e565b508091505092915050565b600060208201905081810360008301526134ad818461341d565b905092915050565b600067ffffffffffffffff8211156134d0576134cf612eec565b5b6134d982612e76565b9050602081019050919050565b60006134f96134f4846134b5565b612f4c565b90508281526020810184848401111561351557613514612ee7565b5b613520848285612f98565b509392505050565b600082601f83011261353d5761353c612ee2565b5b813561354d8482602086016134e6565b91505092915050565b600080600080608085870312156135705761356f612c70565b5b600061357e878288016130e0565b945050602061358f878288016130e0565b93505060406135a087828801612db4565b925050606085013567ffffffffffffffff8111156135c1576135c0612c75565b5b6135cd87828801613528565b91505092959194509250565b6000610120830160008301516135f2600086018261340e565b506020830151848203602086015261360a828261333c565b915050604083015161361f604086018261320b565b506060830151613632606086018261320b565b506080830151613645608086018261320b565b5060a083015161365860a086018261320b565b5060c083015161366b60c086018261320b565b5060e083015161367e60e086018261320b565b5061010083015161369361010086018261320b565b508091505092915050565b600060208201905081810360008301526136b881846135d9565b905092915050565b600080604083850312156136d7576136d6612c70565b5b60006136e5858286016130e0565b92505060206136f6858286016130e0565b9150509250929050565b60008060006060848603121561371957613718612c70565b5b600061372786828701612db4565b9350506020613738868287016130e0565b925050604084013567ffffffffffffffff81111561375957613758612c75565b5b61376586828701612fe9565b9150509250925092565b6000819050919050565b600061379461378f61378a84612d35565b61376f565b612d35565b9050919050565b60006137a682613779565b9050919050565b60006137b88261379b565b9050919050565b6137c8816137ad565b82525050565b60006060820190506137e360008301866137bf565b6137f0602083018561309f565b6137fd6040830184613135565b949350505050565b7f4e487b7100000000000000000000000000000000000000000000000000000000600052602260045260246000fd5b6000600282049050600182168061384c57607f821691505b60208210810361385f5761385e613805565b5b50919050565b60008190508160005260206000209050919050565b60006020601f8301049050919050565b600082821b905092915050565b6000600883026138c77fffffffffffffffffffffffffffffffffffffffffffffffffffffffffffffffff8261388a565b6138d1868361388a565b95508019841693508086168417925050509392505050565b60006139046138ff6138fa84612d93565b61376f565b612d93565b9050919050565b6000819050919050565b61391e836138e9565b61393261392a8261390b565b848454613897565b825550505050565b600090565b61394761393a565b613952818484613915565b505050565b5b818110156139765761396b60008261393f565b600181019050613958565b5050565b601f8211156139bb5761398c81613865565b6139958461387a565b810160208510156139a4578190505b6139b86139b08561387a565b830182613957565b50505b505050565b600082821c905092915050565b60006139de600019846008026139c0565b1980831691505092915050565b60006139f783836139cd565b9150826002028217905092915050565b613a1082612e30565b67ffffffffffffffff811115613a2957613a28612eec565b5b613a338254613834565b613a3e82828561397a565b600060209050601f831160018114613a715760008415613a5f578287015190505b613a6985826139eb565b865550613ad1565b601f198416613a7f86613865565b60005b82811015613aa757848901518255600182019150602085019450602081019050613a82565b86831015613ac45784890151613ac0601f8916826139cd565b8355505b6001600288020188555050505b505050505050565b7f4552433732313a20617070726f76616c20746f2063757272656e74206f776e6560008201527f7200000000000000000000000000000000000000000000000000000000000000602082015250565b6000613b35602183612e3b565b9150613b4082613ad9565b604082019050919050565b60006020820190508181036000830152613b6481613b28565b9050919050565b7f4552433732313a20617070726f76652063616c6c6572206973206e6f7420746f60008201527f6b656e206f776e6572206f7220617070726f76656420666f7220616c6c000000602082015250565b6000613bc7603d83612e3b565b9150613bd282613b6b565b604082019050919050565b60006020820190508181036000830152613bf681613bba565b9050919050565b7f4e487b7100000000000000000000000000000000000000000000000000000000600052601160045260246000fd5b60008160011c9050919050565b6000808291508390505b6001851115613c8357808604811115613c5f57613c5e613bfd565b5b6001851615613c6e5780820291505b8081029050613c7c85613c2c565b9450613c43565b94509492505050565b600082613c9c5760019050613d58565b81613caa5760009050613d58565b8160018114613cc05760028114613cca57613cf9565b6001915050613d58565b60ff841115613cdc57613cdb613bfd565b5b8360020a915084821115613cf357613cf2613bfd565b5b50613d58565b5060208310610133831016604e8410600b8410161715613d2e5782820a905083811115613d2957613d28613bfd565b5b613d58565b613d3b8484846001613c39565b92509050818404811115613d5257613d51613bfd565b5b81810290505b9392505050565b6000613d6a82612d93565b9150613d7583612d93565b9250613da27fffffffffffffffffffffffffffffffffffffffffffffffffffffffffffffffff8484613c8c565b905092915050565b6000613db582612d93565b9150613dc083612d93565b9250828202613dce81612d93565b91508282048414831517613de557613de4613bfd565b5b5092915050565b7f4e487b7100000000000000000000000000000000000000000000000000000000600052601260045260246000fd5b6000613e2682612d93565b9150613e3183612d93565b925082613e4157613e40613dec565b5b828204905092915050565b7f4552433732313a2063616c6c6572206973206e6f7420746f6b656e206f776e6560008201527f72206f7220617070726f76656400000000000000000000000000000000000000602082015250565b6000613ea8602d83612e3b565b9150613eb382613e4c565b604082019050919050565b60006020820190508181036000830152613ed781613e9b565b9050919050565b6000613ee982612d93565b9150613ef483612d93565b9250828203905081811115613f0c57613f0b613bfd565b5b92915050565b6000613f1d82612d93565b9150613f2883612d93565b925082613f3857613f37613dec565b5b828206905092915050565b7f4e6f206d6f726520617661696c61626c65206e66747320746f2070757263686160008201527f7365000000000000000000000000000000000000000000000000000000000000602082015250565b6000613f9f602283612e3b565b9150613faa82613f43565b604082019050919050565b60006020820190508181036000830152613fce81613f92565b9050919050565b7f4552433732313a20696e76616c696420746f6b656e2049440000000000000000600082015250565b600061400b601883612e3b565b915061401682613fd5565b602082019050919050565b6000602082019050818103600083015261403a81613ffe565b9050919050565b7f4552433732313a2061646472657373207a65726f206973206e6f74206120766160008201527f6c6964206f776e65720000000000000000000000000000000000000000000000602082015250565b600061409d602983612e3b565b91506140a882614041565b604082019050919050565b600060208201905081810360008301526140cc81614090565b9050919050565b600081905092915050565b60006140e982612e30565b6140f381856140d3565b9350614103818560208601612e4c565b80840191505092915050565b600061411b82856140de565b915061412782846140de565b91508190509392505050565b7f4f776e61626c653a206e6577206f776e657220697320746865207a65726f206160008201527f6464726573730000000000000000000000000000000000000000000000000000602082015250565b600061418f602683612e3b565b915061419a82614133565b604082019050919050565b600060208201905081810360008301526141be81614182565b9050919050565b7f4f776e61626c653a2063616c6c6572206973206e6f7420746865206f776e6572600082015250565b60006141fb602083612e3b565b9150614206826141c5565b602082019050919050565b6000602082019050818103600083015261422a816141ee565b9050919050565b7f4552433732313a207472616e736665722066726f6d20696e636f72726563742060008201527f6f776e6572000000000000000000000000000000000000000000000000000000602082015250565b600061428d602583612e3b565b915061429882614231565b604082019050919050565b600060208201905081810360008301526142bc81614280565b9050919050565b7f4552433732313a207472616e7366657220746f20746865207a65726f2061646460008201527f7265737300000000000000000000000000000000000000000000000000000000602082015250565b600061431f602483612e3b565b915061432a826142c3565b604082019050919050565b6000602082019050818103600083015261434e81614312565b9050919050565b7f4552433732313a206d696e7420746f20746865207a65726f2061646472657373600082015250565b600061438b602083612e3b565b915061439682614355565b602082019050919050565b600060208201905081810360008301526143ba8161437e565b9050919050565b7f4552433732313a20746f6b656e20616c7265616479206d696e74656400000000600082015250565b60006143f7601c83612e3b565b9150614402826143c1565b602082019050919050565b60006020820190508181036000830152614426816143ea565b9050919050565b60006060820190506144426000830186613135565b61444f602083018561309f565b61445c6040830184613135565b949350505050565b7f4552433732313a20617070726f766520746f2063616c6c657200000000000000600082015250565b600061449a601983612e3b565b91506144a582614464565b602082019050919050565b600060208201905081810360008301526144c98161448d565b9050919050565b7f4552433732313a207472616e7366657220746f206e6f6e20455243373231526560008201527f63656976657220696d706c656d656e7465720000000000000000000000000000602082015250565b600061452c603283612e3b565b9150614537826144d0565b604082019050919050565b6000602082019050818103600083015261455b8161451f565b9050919050565b600081519050919050565b600082825260208201905092915050565b600061458982614562565b614593818561456d565b93506145a3818560208601612e4c565b6145ac81612e76565b840191505092915050565b60006080820190506145cc600083018761309f565b6145d9602083018661309f565b6145e66040830185613135565b81810360608301526145f8818461457e565b905095945050505050565b60008151905061461281612ca6565b92915050565b60006020828403121561462e5761462d612c70565b5b600061463c84828501614603565b9150509291505056fea2646970667358221220f9c32fff7cd8418b4a54083d0ecbb37bd44c0394506c98df9671664813063d1464736f6c63430008120033516d546b3473506f59796d70746b4b4e5870765341574b54373937473676594a65633257454346584d6d54454552516d5666576b796846694d6861374435416464525038464d543179765a7947435a7352397057317438314158676d",
  "linkReferences": {},
  "deployedLinkReferences": {}
}