{
  "_format": "hh-sol-artifact-1",
  "contractName": "EAvatar",
  "sourceName": "contracts/EAvatar.sol",
  "abi": [
    {
      "inputs": [
        {
          "internalType": "address",
          "name": "bond_issuer",
          "type": "address"
        }
      ],
      "stateMutability": "nonpayable",
      "type": "constructor"
    },
    {
      "anonymous": false,
      "inputs": [
        {
          "indexed": true,
          "internalType": "address",
          "name": "owner",
          "type": "address"
        },
        {
          "indexed": true,
          "internalType": "address",
          "name": "approved",
          "type": "address"
        },
        {
          "indexed": true,
          "internalType": "uint256",
          "name": "tokenId",
          "type": "uint256"
        }
      ],
      "name": "Approval",
      "type": "event"
    },
    {
      "anonymous": false,
      "inputs": [
        {
          "indexed": true,
          "internalType": "address",
          "name": "owner",
          "type": "address"
        },
        {
          "indexed": true,
          "internalType": "address",
          "name": "operator",
          "type": "address"
        },
        {
          "indexed": false,
          "internalType": "bool",
          "name": "approved",
          "type": "bool"
        }
      ],
      "name": "ApprovalForAll",
      "type": "event"
    },
    {
      "anonymous": false,
      "inputs": [
        {
          "indexed": false,
          "internalType": "uint256",
          "name": "_fromTokenId",
          "type": "uint256"
        },
        {
          "indexed": false,
          "internalType": "uint256",
          "name": "_toTokenId",
          "type": "uint256"
        }
      ],
      "name": "BatchMetadataUpdate",
      "type": "event"
    },
    {
      "anonymous": false,
      "inputs": [
        {
          "indexed": false,
          "internalType": "uint256",
          "name": "_tokenId",
          "type": "uint256"
        }
      ],
      "name": "MetadataUpdate",
      "type": "event"
    },
    {
      "anonymous": false,
      "inputs": [
        {
          "indexed": true,
          "internalType": "address",
          "name": "previousOwner",
          "type": "address"
        },
        {
          "indexed": true,
          "internalType": "address",
          "name": "newOwner",
          "type": "address"
        }
      ],
      "name": "OwnershipTransferred",
      "type": "event"
    },
    {
      "anonymous": false,
      "inputs": [
        {
          "indexed": true,
          "internalType": "address",
          "name": "from",
          "type": "address"
        },
        {
          "indexed": true,
          "internalType": "address",
          "name": "to",
          "type": "address"
        },
        {
          "indexed": true,
          "internalType": "uint256",
          "name": "tokenId",
          "type": "uint256"
        }
      ],
      "name": "Transfer",
      "type": "event"
    },
    {
      "anonymous": false,
      "inputs": [
        {
          "indexed": false,
          "internalType": "uint256",
          "name": "tokenId",
          "type": "uint256"
        },
        {
          "indexed": false,
          "internalType": "address",
          "name": "owner",
          "type": "address"
        },
        {
          "indexed": false,
          "internalType": "uint256",
          "name": "price",
          "type": "uint256"
        }
      ],
      "name": "nftItemCreated",
      "type": "event"
    },
    {
      "inputs": [
        {
          "internalType": "address",
          "name": "to",
          "type": "address"
        },
        {
          "internalType": "uint256",
          "name": "tokenId",
          "type": "uint256"
        }
      ],
      "name": "approve",
      "outputs": [],
      "stateMutability": "nonpayable",
      "type": "function"
    },
    {
      "inputs": [],
      "name": "availableNFTs",
      "outputs": [
        {
          "internalType": "bool",
          "name": "ans",
          "type": "bool"
        }
      ],
      "stateMutability": "view",
      "type": "function"
    },
    {
      "inputs": [
        {
          "internalType": "address",
          "name": "owner",
          "type": "address"
        }
      ],
      "name": "balanceOf",
      "outputs": [
        {
          "internalType": "uint256",
          "name": "",
          "type": "uint256"
        }
      ],
      "stateMutability": "view",
      "type": "function"
    },
    {
      "inputs": [],
      "name": "bondMatureAmount",
      "outputs": [
        {
          "internalType": "uint256",
          "name": "amount",
          "type": "uint256"
        }
      ],
      "stateMutability": "view",
      "type": "function"
    },
    {
      "inputs": [],
      "name": "calculateAccruedInterest",
      "outputs": [
        {
          "internalType": "uint256",
          "name": "",
          "type": "uint256"
        }
      ],
      "stateMutability": "view",
      "type": "function"
    },
    {
      "inputs": [
        {
          "internalType": "uint256",
          "name": "tokenId",
          "type": "uint256"
        },
        {
          "internalType": "address",
          "name": "owner",
          "type": "address"
        },
        {
          "internalType": "string",
          "name": "name",
          "type": "string"
        }
      ],
      "name": "changeCharacterName",
      "outputs": [],
      "stateMutability": "view",
      "type": "function"
    },
    {
      "inputs": [
        {
          "internalType": "uint256",
          "name": "tokenId",
          "type": "uint256"
        }
      ],
      "name": "getApproved",
      "outputs": [
        {
          "internalType": "address",
          "name": "",
          "type": "address"
        }
      ],
      "stateMutability": "view",
      "type": "function"
    },
    {
      "inputs": [],
      "name": "getBaseURI",
      "outputs": [
        {
          "internalType": "string",
          "name": "",
          "type": "string"
        }
      ],
      "stateMutability": "view",
      "type": "function"
    },
    {
      "inputs": [],
      "name": "getBondInfo",
      "outputs": [
        {
          "components": [
            {
              "internalType": "address",
              "name": "bondIssuer",
              "type": "address"
            },
            {
              "internalType": "string",
              "name": "bondName",
              "type": "string"
            },
            {
              "internalType": "uint256",
              "name": "issueDate",
              "type": "uint256"
            },
            {
              "internalType": "uint256",
              "name": "maturityDate",
              "type": "uint256"
            },
            {
              "internalType": "uint256",
              "name": "interestPaymentPercent",
              "type": "uint256"
            },
            {
              "internalType": "uint256",
              "name": "periodOfPayment",
              "type": "uint256"
            },
            {
              "internalType": "uint256",
              "name": "faceValue",
              "type": "uint256"
            },
            {
              "internalType": "uint256",
              "name": "shift",
              "type": "uint256"
            },
            {
              "internalType": "uint256",
              "name": "supply",
              "type": "uint256"
            }
          ],
          "internalType": "struct EAvatar.EBond",
          "name": "bond",
          "type": "tuple"
        }
      ],
      "stateMutability": "view",
      "type": "function"
    },
    {
      "inputs": [],
      "name": "getCharURI",
      "outputs": [
        {
          "internalType": "string",
          "name": "",
          "type": "string"
        }
      ],
      "stateMutability": "view",
      "type": "function"
    },
    {
      "inputs": [],
      "name": "getIssuer",
      "outputs": [
        {
          "internalType": "address",
          "name": "issuer",
          "type": "address"
        }
      ],
      "stateMutability": "view",
      "type": "function"
    },
    {
      "inputs": [],
      "name": "getLatestId",
      "outputs": [
        {
          "internalType": "uint256",
          "name": "",
          "type": "uint256"
        }
      ],
      "stateMutability": "view",
      "type": "function"
    },
    {
      "inputs": [
        {
          "internalType": "uint256",
          "name": "tokenId",
          "type": "uint256"
        }
      ],
      "name": "getMetadata",
      "outputs": [
        {
          "components": [
            {
              "internalType": "uint256",
              "name": "tokenId",
              "type": "uint256"
            },
            {
              "internalType": "string",
              "name": "name",
              "type": "string"
            },
            {
              "internalType": "uint256",
              "name": "mintedAt",
              "type": "uint256"
            },
            {
              "internalType": "uint256",
              "name": "listing_price",
              "type": "uint256"
            },
            {
              "components": [
                {
                  "internalType": "string",
                  "name": "name",
                  "type": "string"
                },
                {
                  "internalType": "string",
                  "name": "characterURI",
                  "type": "string"
                },
                {
                  "internalType": "uint8",
                  "name": "hp",
                  "type": "uint8"
                },
                {
                  "internalType": "uint8",
                  "name": "ap",
                  "type": "uint8"
                },
                {
                  "internalType": "uint8",
                  "name": "level",
                  "type": "uint8"
                }
              ],
              "internalType": "struct EAvatar.AvatarChar",
              "name": "character",
              "type": "tuple"
            },
            {
              "internalType": "address",
              "name": "ownerId",
              "type": "address"
            }
          ],
          "internalType": "struct EAvatar.EMetadata",
          "name": "item",
          "type": "tuple"
        }
      ],
      "stateMutability": "view",
      "type": "function"
    },
    {
      "inputs": [],
      "name": "interestPaymentAmount",
      "outputs": [
        {
          "internalType": "uint256",
          "name": "amount",
          "type": "uint256"
        }
      ],
      "stateMutability": "view",
      "type": "function"
    },
    {
      "inputs": [
        {
          "internalType": "address",
          "name": "owner",
          "type": "address"
        },
        {
          "internalType": "address",
          "name": "operator",
          "type": "address"
        }
      ],
      "name": "isApprovedForAll",
      "outputs": [
        {
          "internalType": "bool",
          "name": "",
          "type": "bool"
        }
      ],
      "stateMutability": "view",
      "type": "function"
    },
    {
      "inputs": [],
      "name": "isBondMatured",
      "outputs": [
        {
          "internalType": "bool",
          "name": "",
          "type": "bool"
        }
      ],
      "stateMutability": "view",
      "type": "function"
    },
    {
      "inputs": [],
      "name": "isInterestTime",
      "outputs": [
        {
          "internalType": "bool",
          "name": "",
          "type": "bool"
        }
      ],
      "stateMutability": "view",
      "type": "function"
    },
    {
      "inputs": [],
      "name": "matureCharacters",
      "outputs": [],
      "stateMutability": "nonpayable",
      "type": "function"
    },
    {
      "inputs": [
        {
          "internalType": "address",
          "name": "recipient",
          "type": "address"
        },
        {
          "internalType": "uint256",
          "name": "price",
          "type": "uint256"
        }
      ],
      "name": "mintNFT",
      "outputs": [
        {
          "internalType": "uint256",
          "name": "",
          "type": "uint256"
        }
      ],
      "stateMutability": "nonpayable",
      "type": "function"
    },
    {
      "inputs": [],
      "name": "name",
      "outputs": [
        {
          "internalType": "string",
          "name": "",
          "type": "string"
        }
      ],
      "stateMutability": "view",
      "type": "function"
    },
    {
      "inputs": [],
      "name": "owner",
      "outputs": [
        {
          "internalType": "address",
          "name": "",
          "type": "address"
        }
      ],
      "stateMutability": "view",
      "type": "function"
    },
    {
      "inputs": [
        {
          "internalType": "address",
          "name": "owner",
          "type": "address"
        }
      ],
      "name": "ownerCollection",
      "outputs": [
        {
          "internalType": "uint256[]",
          "name": "ids",
          "type": "uint256[]"
        }
      ],
      "stateMutability": "view",
      "type": "function"
    },
    {
      "inputs": [
        {
          "internalType": "uint256",
          "name": "tokenId",
          "type": "uint256"
        }
      ],
      "name": "ownerOf",
      "outputs": [
        {
          "internalType": "address",
          "name": "",
          "type": "address"
        }
      ],
      "stateMutability": "view",
      "type": "function"
    },
    {
      "inputs": [],
      "name": "renounceOwnership",
      "outputs": [],
      "stateMutability": "nonpayable",
      "type": "function"
    },
    {
      "inputs": [
        {
          "internalType": "address",
          "name": "from",
          "type": "address"
        },
        {
          "internalType": "address",
          "name": "to",
          "type": "address"
        },
        {
          "internalType": "uint256",
          "name": "tokenId",
          "type": "uint256"
        }
      ],
      "name": "safeTransferFrom",
      "outputs": [],
      "stateMutability": "nonpayable",
      "type": "function"
    },
    {
      "inputs": [
        {
          "internalType": "address",
          "name": "from",
          "type": "address"
        },
        {
          "internalType": "address",
          "name": "to",
          "type": "address"
        },
        {
          "internalType": "uint256",
          "name": "tokenId",
          "type": "uint256"
        },
        {
          "internalType": "bytes",
          "name": "data",
          "type": "bytes"
        }
      ],
      "name": "safeTransferFrom",
      "outputs": [],
      "stateMutability": "nonpayable",
      "type": "function"
    },
    {
      "inputs": [
        {
          "internalType": "address",
          "name": "operator",
          "type": "address"
        },
        {
          "internalType": "bool",
          "name": "approved",
          "type": "bool"
        }
      ],
      "name": "setApprovalForAll",
      "outputs": [],
      "stateMutability": "nonpayable",
      "type": "function"
    },
    {
      "inputs": [
        {
          "internalType": "string",
          "name": "newURI",
          "type": "string"
        }
      ],
      "name": "setBaseURI",
      "outputs": [],
      "stateMutability": "nonpayable",
      "type": "function"
    },
    {
      "inputs": [
        {
          "internalType": "string",
          "name": "newURI",
          "type": "string"
        }
      ],
      "name": "setCharURI",
      "outputs": [],
      "stateMutability": "nonpayable",
      "type": "function"
    },
    {
      "inputs": [
        {
          "internalType": "string",
          "name": "newURI",
          "type": "string"
        }
      ],
      "name": "setInactiveBaseURI",
      "outputs": [],
      "stateMutability": "nonpayable",
      "type": "function"
    },
    {
      "inputs": [
        {
          "internalType": "string",
          "name": "newURI",
          "type": "string"
        }
      ],
      "name": "setInactiveCharURI",
      "outputs": [],
      "stateMutability": "nonpayable",
      "type": "function"
    },
    {
      "inputs": [
        {
          "internalType": "bytes4",
          "name": "interfaceId",
          "type": "bytes4"
        }
      ],
      "name": "supportsInterface",
      "outputs": [
        {
          "internalType": "bool",
          "name": "",
          "type": "bool"
        }
      ],
      "stateMutability": "view",
      "type": "function"
    },
    {
      "inputs": [],
      "name": "symbol",
      "outputs": [
        {
          "internalType": "string",
          "name": "",
          "type": "string"
        }
      ],
      "stateMutability": "view",
      "type": "function"
    },
    {
      "inputs": [
        {
          "internalType": "uint256",
          "name": "tokenId",
          "type": "uint256"
        }
      ],
      "name": "tokenURI",
      "outputs": [
        {
          "internalType": "string",
          "name": "",
          "type": "string"
        }
      ],
      "stateMutability": "view",
      "type": "function"
    },
    {
      "inputs": [
        {
          "internalType": "address",
          "name": "from",
          "type": "address"
        },
        {
          "internalType": "address",
          "name": "to",
          "type": "address"
        },
        {
          "internalType": "uint256",
          "name": "tokenId",
          "type": "uint256"
        }
      ],
      "name": "transferFrom",
      "outputs": [],
      "stateMutability": "nonpayable",
      "type": "function"
    },
    {
      "inputs": [
        {
          "internalType": "address",
          "name": "newOwner",
          "type": "address"
        }
      ],
      "name": "transferOwnership",
      "outputs": [],
      "stateMutability": "nonpayable",
      "type": "function"
    }
  ],
  "bytecode": "0x60806040526040518060600160405280602e815260200162004c4d602e9139601490816200002e919062000614565b5060405180602001604052806000815250601590816200004f919062000614565b506040518060600160405280602e815260200162004c1f602e9139601690816200007a919062000614565b5060405180602001604052806000815250601790816200009b919062000614565b50348015620000a957600080fd5b5060405162004c7b38038062004c7b8339818101604052810190620000cf919062000765565b6040518060400160405280600781526020017f45417661746172000000000000000000000000000000000000000000000000008152506040518060400160405280600281526020017f454100000000000000000000000000000000000000000000000000000000000081525081600090816200014c919062000614565b5080600190816200015e919062000614565b5050506200018162000175620002cc60201b60201c565b620002d460201b60201c565b6040518061012001604052808273ffffffffffffffffffffffffffffffffffffffff1681526020016040518060400160405280600a81526020017f452d426f6e64204f6e65000000000000000000000000000000000000000000008152508152602001428152602001636e71188081526020016005815260200162f0c29f8152602001620186a08152602001600281526020016103e8815250600960008201518160000160006101000a81548173ffffffffffffffffffffffffffffffffffffffff021916908373ffffffffffffffffffffffffffffffffffffffff16021790555060208201518160010190816200027a919062000614565b5060408201518160020155606082015181600301556080820151816004015560a0820151816005015560c0820151816006015560e0820151816007015561010082015181600801559050505062000797565b600033905090565b6000600760009054906101000a900473ffffffffffffffffffffffffffffffffffffffff16905081600760006101000a81548173ffffffffffffffffffffffffffffffffffffffff021916908373ffffffffffffffffffffffffffffffffffffffff1602179055508173ffffffffffffffffffffffffffffffffffffffff168173ffffffffffffffffffffffffffffffffffffffff167f8be0079c531659141344cd1fd0a4f28419497f9722a3daafe3b4186f6b6457e060405160405180910390a35050565b600081519050919050565b7f4e487b7100000000000000000000000000000000000000000000000000000000600052604160045260246000fd5b7f4e487b7100000000000000000000000000000000000000000000000000000000600052602260045260246000fd5b600060028204905060018216806200041c57607f821691505b602082108103620004325762000431620003d4565b5b50919050565b60008190508160005260206000209050919050565b60006020601f8301049050919050565b600082821b905092915050565b6000600883026200049c7fffffffffffffffffffffffffffffffffffffffffffffffffffffffffffffffff826200045d565b620004a886836200045d565b95508019841693508086168417925050509392505050565b6000819050919050565b6000819050919050565b6000620004f5620004ef620004e984620004c0565b620004ca565b620004c0565b9050919050565b6000819050919050565b6200051183620004d4565b620005296200052082620004fc565b8484546200046a565b825550505050565b600090565b6200054062000531565b6200054d81848462000506565b505050565b5b8181101562000575576200056960008262000536565b60018101905062000553565b5050565b601f821115620005c4576200058e8162000438565b62000599846200044d565b81016020851015620005a9578190505b620005c1620005b8856200044d565b83018262000552565b50505b505050565b600082821c905092915050565b6000620005e960001984600802620005c9565b1980831691505092915050565b6000620006048383620005d6565b9150826002028217905092915050565b6200061f826200039a565b67ffffffffffffffff8111156200063b576200063a620003a5565b5b62000647825462000403565b6200065482828562000579565b600060209050601f8311600181146200068c576000841562000677578287015190505b620006838582620005f6565b865550620006f3565b601f1984166200069c8662000438565b60005b82811015620006c6578489015182556001820191506020850194506020810190506200069f565b86831015620006e65784890151620006e2601f891682620005d6565b8355505b6001600288020188555050505b505050505050565b600080fd5b600073ffffffffffffffffffffffffffffffffffffffff82169050919050565b60006200072d8262000700565b9050919050565b6200073f8162000720565b81146200074b57600080fd5b50565b6000815190506200075f8162000734565b92915050565b6000602082840312156200077e576200077d620006fb565b5b60006200078e848285016200074e565b91505092915050565b61447880620007a76000396000f3fe608060405234801561001057600080fd5b506004361061021c5760003560e01c8063715018a611610125578063a574cea4116100ad578063e985e9c51161007c578063e985e9c514610619578063ea317fff14610649578063eff91c7e14610667578063f164523814610685578063f2fde38b146106a15761021c565b8063a574cea41461057f578063b88d4fde146105af578063c87b56dd146105cb578063d5070b3e146105fb5761021c565b806395d89b41116100f457806395d89b41146104db5780639c50da75146104f9578063a22cb46514610529578063a31b115f14610545578063a35e1370146105615761021c565b8063715018a61461048b578063729a1a871461049557806388456b7b146104b35780638da5cb5b146104bd5761021c565b806337e08699116101a8578063525564211161017757806352556421146103d357806355f804b3146103f15780636352211e1461040d57806370a082311461043d578063714c53981461046d5761021c565b806337e086991461034b5780633c168eab146103695780633fb3ff111461039957806342842e0e146103b75761021c565b8063081812fc116101ef578063081812fc146102a9578063095ea7b3146102d95780631ed54e78146102f557806323b872dd146103135780632b8c41f41461032f5761021c565b806301ffc9a71461022157806305f315721461025157806306fdde031461026f5780630816a3e21461028d575b600080fd5b61023b60048036038101906102369190612be6565b6106bd565b6040516102489190612c2e565b60405180910390f35b61025961071e565b6040516102669190612c2e565b60405180910390f35b61027761072e565b6040516102849190612cd9565b60405180910390f35b6102a760048036038101906102a29190612e30565b6107c0565b005b6102c360048036038101906102be9190612eaf565b6107db565b6040516102d09190612f1d565b60405180910390f35b6102f360048036038101906102ee9190612f64565b610821565b005b6102fd610938565b60405161030a9190612fb3565b60405180910390f35b61032d60048036038101906103289190612fce565b610987565b005b61034960048036038101906103449190612e30565b6109e7565b005b610353610a02565b6040516103609190612c2e565b60405180910390f35b610383600480360381019061037e9190612f64565b610a2c565b6040516103909190612fb3565b60405180910390f35b6103a1610ace565b6040516103ae9190612fb3565b60405180910390f35b6103d160048036038101906103cc9190612fce565b610b30565b005b6103db610b50565b6040516103e89190612f1d565b60405180910390f35b61040b60048036038101906104069190612e30565b610b7d565b005b61042760048036038101906104229190612eaf565b610b98565b6040516104349190612f1d565b60405180910390f35b61045760048036038101906104529190613021565b610c1e565b6040516104649190612fb3565b60405180910390f35b610475610cd5565b6040516104829190612cd9565b60405180910390f35b610493610d67565b005b61049d610d7b565b6040516104aa9190612fb3565b60405180910390f35b6104bb610d88565b005b6104c5610e36565b6040516104d29190612f1d565b60405180910390f35b6104e3610e60565b6040516104f09190612cd9565b60405180910390f35b610513600480360381019061050e9190613021565b610ef2565b604051610520919061310c565b60405180910390f35b610543600480360381019061053e919061315a565b610f89565b005b61055f600480360381019061055a9190612e30565b610f9f565b005b610569610fba565b6040516105769190612cd9565b60405180910390f35b61059960048036038101906105949190612eaf565b61104c565b6040516105a6919061331c565b60405180910390f35b6105c960048036038101906105c491906133df565b61130e565b005b6105e560048036038101906105e09190612eaf565b611370565b6040516105f29190612cd9565b60405180910390f35b610603611482565b6040516106109190613527565b60405180910390f35b610633600480360381019061062e9190613549565b6115cb565b6040516106409190612c2e565b60405180910390f35b61065161165f565b60405161065e9190612c2e565b60405180910390f35b61066f61166e565b60405161067c9190612fb3565b60405180910390f35b61069f600480360381019061069a9190613589565b61167f565b005b6106bb60048036038101906106b69190613021565b6116df565b005b6000634906490660e01b7bffffffffffffffffffffffffffffffffffffffffffffffffffffffff1916827bffffffffffffffffffffffffffffffffffffffffffffffffffffffff19161480610717575061071682611762565b5b9050919050565b6000600960030154421015905090565b60606000805461073d90613627565b80601f016020809104026020016040519081016040528092919081815260200182805461076990613627565b80156107b65780601f1061078b576101008083540402835291602001916107b6565b820191906000526020600020905b81548152906001019060200180831161079957829003601f168201915b5050505050905090565b6107c8611844565b80601790816107d79190613804565b5050565b60006107e6826118c2565b6004600083815260200190815260200160002060009054906101000a900473ffffffffffffffffffffffffffffffffffffffff169050919050565b600061082c82610b98565b90508073ffffffffffffffffffffffffffffffffffffffff168373ffffffffffffffffffffffffffffffffffffffff160361089c576040517f08c379a000000000000000000000000000000000000000000000000000000000815260040161089390613948565b60405180910390fd5b8073ffffffffffffffffffffffffffffffffffffffff166108bb61190d565b73ffffffffffffffffffffffffffffffffffffffff1614806108ea57506108e9816108e461190d565b6115cb565b5b610929576040517f08c379a0000000000000000000000000000000000000000000000000000000008152600401610920906139da565b60405180910390fd5b6109338383611915565b505050565b600061094261071e565b61097f57600960070154600a6109589190613b5c565b60096004015460096006015461096e9190613ba7565b6109789190613c18565b9050610984565b600090505b90565b61099861099261190d565b826119ce565b6109d7576040517f08c379a00000000000000000000000000000000000000000000000000000000081526004016109ce90613cbb565b60405180910390fd5b6109e2838383611a63565b505050565b6109ef611844565b80601690816109fe9190613804565b5050565b60008060096005015460096002015442610a1c9190613cdb565b610a269190613d0f565b14905090565b6000610a36611844565b6009600601548211610a4757600080fd5b600960080154610a576008611d5c565b10610a97576040517f08c379a0000000000000000000000000000000000000000000000000000000008152600401610a8e90613db2565b60405180910390fd5b610aa16008611d6a565b6000610aad6008611d5c565b9050610ab98482611d80565b610ac4818486611d9e565b8091505092915050565b6000610ad861071e565b610b28576000610ae6610938565b9050600060096005015460096003015442610b019190613cdb565b610b0b9190613c18565b905060008183610b1b9190613ba7565b9050809350505050610b2d565b600090505b90565b610b4b8383836040518060200160405280600081525061130e565b505050565b6000600960000160009054906101000a900473ffffffffffffffffffffffffffffffffffffffff16905090565b610b85611844565b8060149081610b949190613804565b5050565b600080610ba483611fc9565b9050600073ffffffffffffffffffffffffffffffffffffffff168173ffffffffffffffffffffffffffffffffffffffff1603610c15576040517f08c379a0000000000000000000000000000000000000000000000000000000008152600401610c0c90613e1e565b60405180910390fd5b80915050919050565b60008073ffffffffffffffffffffffffffffffffffffffff168273ffffffffffffffffffffffffffffffffffffffff1603610c8e576040517f08c379a0000000000000000000000000000000000000000000000000000000008152600401610c8590613eb0565b60405180910390fd5b600360008373ffffffffffffffffffffffffffffffffffffffff1673ffffffffffffffffffffffffffffffffffffffff168152602001908152602001600020549050919050565b606060148054610ce490613627565b80601f0160208091040260200160405190810160405280929190818152602001828054610d1090613627565b8015610d5d5780601f10610d3257610100808354040283529160200191610d5d565b820191906000526020600020905b815481529060010190602001808311610d4057829003601f168201915b5050505050905090565b610d6f611844565b610d796000612006565b565b6000600960060154905090565b610d90611844565b610d9861071e565b610da157600080fd5b610e3460158054610db190613627565b80601f0160208091040260200160405190810160405280929190818152602001828054610ddd90613627565b8015610e2a5780601f10610dff57610100808354040283529160200191610e2a565b820191906000526020600020905b815481529060010190602001808311610e0d57829003601f168201915b5050505050610b7d565b565b6000600760009054906101000a900473ffffffffffffffffffffffffffffffffffffffff16905090565b606060018054610e6f90613627565b80601f0160208091040260200160405190810160405280929190818152602001828054610e9b90613627565b8015610ee85780601f10610ebd57610100808354040283529160200191610ee8565b820191906000526020600020905b815481529060010190602001808311610ecb57829003601f168201915b5050505050905090565b6060601360008373ffffffffffffffffffffffffffffffffffffffff1673ffffffffffffffffffffffffffffffffffffffff168152602001908152602001600020805480602002602001604051908101604052809291908181526020018280548015610f7d57602002820191906000526020600020905b815481526020019060010190808311610f69575b50505050509050919050565b610f9b610f9461190d565b83836120cc565b5050565b610fa7611844565b8060159081610fb69190613804565b5050565b606060168054610fc990613627565b80601f0160208091040260200160405190810160405280929190818152602001828054610ff590613627565b80156110425780601f1061101757610100808354040283529160200191611042565b820191906000526020600020905b81548152906001019060200180831161102557829003601f168201915b5050505050905090565b611054612a8e565b601260008381526020019081526020016000206040518060c00160405290816000820154815260200160018201805461108c90613627565b80601f01602080910402602001604051908101604052809291908181526020018280546110b890613627565b80156111055780601f106110da57610100808354040283529160200191611105565b820191906000526020600020905b8154815290600101906020018083116110e857829003601f168201915b505050505081526020016002820154815260200160038201548152602001600482016040518060a001604052908160008201805461114290613627565b80601f016020809104026020016040519081016040528092919081815260200182805461116e90613627565b80156111bb5780601f10611190576101008083540402835291602001916111bb565b820191906000526020600020905b81548152906001019060200180831161119e57829003601f168201915b505050505081526020016001820180546111d490613627565b80601f016020809104026020016040519081016040528092919081815260200182805461120090613627565b801561124d5780601f106112225761010080835404028352916020019161124d565b820191906000526020600020905b81548152906001019060200180831161123057829003601f168201915b505050505081526020016002820160009054906101000a900460ff1660ff1660ff1681526020016002820160019054906101000a900460ff1660ff1660ff1681526020016002820160029054906101000a900460ff1660ff1660ff168152505081526020016007820160009054906101000a900473ffffffffffffffffffffffffffffffffffffffff1673ffffffffffffffffffffffffffffffffffffffff1673ffffffffffffffffffffffffffffffffffffffff16815250509050919050565b61131f61131961190d565b836119ce565b61135e576040517f08c379a000000000000000000000000000000000000000000000000000000000815260040161135590613cbb565b60405180910390fd5b61136a84848484612238565b50505050565b606061137b826118c2565b600060066000848152602001908152602001600020805461139b90613627565b80601f01602080910402602001604051908101604052809291908181526020018280546113c790613627565b80156114145780601f106113e957610100808354040283529160200191611414565b820191906000526020600020905b8154815290600101906020018083116113f757829003601f168201915b505050505090506000611425612294565b9050600081510361143a57819250505061147d565b60008251111561146f578082604051602001611457929190613f0c565b6040516020818303038152906040529250505061147d565b611478846122ab565b925050505b919050565b61148a612ae0565b6009604051806101200160405290816000820160009054906101000a900473ffffffffffffffffffffffffffffffffffffffff1673ffffffffffffffffffffffffffffffffffffffff1673ffffffffffffffffffffffffffffffffffffffff1681526020016001820180546114fe90613627565b80601f016020809104026020016040519081016040528092919081815260200182805461152a90613627565b80156115775780601f1061154c57610100808354040283529160200191611577565b820191906000526020600020905b81548152906001019060200180831161155a57829003601f168201915b50505050508152602001600282015481526020016003820154815260200160048201548152602001600582015481526020016006820154815260200160078201548152602001600882015481525050905090565b6000600560008473ffffffffffffffffffffffffffffffffffffffff1673ffffffffffffffffffffffffffffffffffffffff16815260200190815260200160002060008373ffffffffffffffffffffffffffffffffffffffff1673ffffffffffffffffffffffffffffffffffffffff16815260200190815260200160002060009054906101000a900460ff16905092915050565b60008060096008015411905090565b600061167a6008611d5c565b905090565b8173ffffffffffffffffffffffffffffffffffffffff1661169f84610b98565b73ffffffffffffffffffffffffffffffffffffffff16146116bf57600080fd5b60006116ca8461104c565b90508181608001516000018190525050505050565b6116e7611844565b600073ffffffffffffffffffffffffffffffffffffffff168173ffffffffffffffffffffffffffffffffffffffff1603611756576040517f08c379a000000000000000000000000000000000000000000000000000000000815260040161174d90613fa2565b60405180910390fd5b61175f81612006565b50565b60007f80ac58cd000000000000000000000000000000000000000000000000000000007bffffffffffffffffffffffffffffffffffffffffffffffffffffffff1916827bffffffffffffffffffffffffffffffffffffffffffffffffffffffff1916148061182d57507f5b5e139f000000000000000000000000000000000000000000000000000000007bffffffffffffffffffffffffffffffffffffffffffffffffffffffff1916827bffffffffffffffffffffffffffffffffffffffffffffffffffffffff1916145b8061183d575061183c82612313565b5b9050919050565b61184c61190d565b73ffffffffffffffffffffffffffffffffffffffff1661186a610e36565b73ffffffffffffffffffffffffffffffffffffffff16146118c0576040517f08c379a00000000000000000000000000000000000000000000000000000000081526004016118b79061400e565b60405180910390fd5b565b6118cb8161237d565b61190a576040517f08c379a000000000000000000000000000000000000000000000000000000000815260040161190190613e1e565b60405180910390fd5b50565b600033905090565b816004600083815260200190815260200160002060006101000a81548173ffffffffffffffffffffffffffffffffffffffff021916908373ffffffffffffffffffffffffffffffffffffffff160217905550808273ffffffffffffffffffffffffffffffffffffffff1661198883610b98565b73ffffffffffffffffffffffffffffffffffffffff167f8c5be1e5ebec7d5bd14f71427d1e84f3dd0314c0f7b2291e5b200ac8c7c3b92560405160405180910390a45050565b6000806119da83610b98565b90508073ffffffffffffffffffffffffffffffffffffffff168473ffffffffffffffffffffffffffffffffffffffff161480611a1c5750611a1b81856115cb565b5b80611a5a57508373ffffffffffffffffffffffffffffffffffffffff16611a42846107db565b73ffffffffffffffffffffffffffffffffffffffff16145b91505092915050565b8273ffffffffffffffffffffffffffffffffffffffff16611a8382610b98565b73ffffffffffffffffffffffffffffffffffffffff1614611ad9576040517f08c379a0000000000000000000000000000000000000000000000000000000008152600401611ad0906140a0565b60405180910390fd5b600073ffffffffffffffffffffffffffffffffffffffff168273ffffffffffffffffffffffffffffffffffffffff1603611b48576040517f08c379a0000000000000000000000000000000000000000000000000000000008152600401611b3f90614132565b60405180910390fd5b611b5583838360016123be565b8273ffffffffffffffffffffffffffffffffffffffff16611b7582610b98565b73ffffffffffffffffffffffffffffffffffffffff1614611bcb576040517f08c379a0000000000000000000000000000000000000000000000000000000008152600401611bc2906140a0565b60405180910390fd5b6004600082815260200190815260200160002060006101000a81549073ffffffffffffffffffffffffffffffffffffffff02191690556001600360008573ffffffffffffffffffffffffffffffffffffffff1673ffffffffffffffffffffffffffffffffffffffff168152602001908152602001600020600082825403925050819055506001600360008473ffffffffffffffffffffffffffffffffffffffff1673ffffffffffffffffffffffffffffffffffffffff16815260200190815260200160002060008282540192505081905550816002600083815260200190815260200160002060006101000a81548173ffffffffffffffffffffffffffffffffffffffff021916908373ffffffffffffffffffffffffffffffffffffffff160217905550808273ffffffffffffffffffffffffffffffffffffffff168473ffffffffffffffffffffffffffffffffffffffff167fddf252ad1be2c89b69c2b068fc378daa952ba7f163c4a11628f55a4df523b3ef60405160405180910390a4611d5783838360016123c4565b505050565b600081600001549050919050565b6001816000016000828254019250508190555050565b611d9a8282604051806020016040528060008152506123ca565b5050565b6040518060c00160405280848152602001604051806020016040528060008152508152602001428152602001838152602001611dd985612425565b81526020018273ffffffffffffffffffffffffffffffffffffffff1681525060126000858152602001908152602001600020600082015181600001556020820151816001019081611e2a9190613804565b5060408201518160020155606082015181600301556080820151816004016000820151816000019081611e5d9190613804565b506020820151816001019081611e739190613804565b5060408201518160020160006101000a81548160ff021916908360ff16021790555060608201518160020160016101000a81548160ff021916908360ff16021790555060808201518160020160026101000a81548160ff021916908360ff160217905550505060a08201518160070160006101000a81548173ffffffffffffffffffffffffffffffffffffffff021916908373ffffffffffffffffffffffffffffffffffffffff160217905550905050601360008273ffffffffffffffffffffffffffffffffffffffff1673ffffffffffffffffffffffffffffffffffffffff1681526020019081526020016000208390806001815401808255809150506001900390600052602060002001600090919091909150557f42e22845cdfee2da8f8e56b8d8f9807a12fd6906d54b388fe7ec9d2329e70b3e838284604051611fbc93929190614152565b60405180910390a1505050565b60006002600083815260200190815260200160002060009054906101000a900473ffffffffffffffffffffffffffffffffffffffff169050919050565b6000600760009054906101000a900473ffffffffffffffffffffffffffffffffffffffff16905081600760006101000a81548173ffffffffffffffffffffffffffffffffffffffff021916908373ffffffffffffffffffffffffffffffffffffffff1602179055508173ffffffffffffffffffffffffffffffffffffffff168173ffffffffffffffffffffffffffffffffffffffff167f8be0079c531659141344cd1fd0a4f28419497f9722a3daafe3b4186f6b6457e060405160405180910390a35050565b8173ffffffffffffffffffffffffffffffffffffffff168373ffffffffffffffffffffffffffffffffffffffff160361213a576040517f08c379a0000000000000000000000000000000000000000000000000000000008152600401612131906141d5565b60405180910390fd5b80600560008573ffffffffffffffffffffffffffffffffffffffff1673ffffffffffffffffffffffffffffffffffffffff16815260200190815260200160002060008473ffffffffffffffffffffffffffffffffffffffff1673ffffffffffffffffffffffffffffffffffffffff16815260200190815260200160002060006101000a81548160ff0219169083151502179055508173ffffffffffffffffffffffffffffffffffffffff168373ffffffffffffffffffffffffffffffffffffffff167f17307eab39ab6107e8899845ad3d59bd9653f200f220920489ca2b5937696c318360405161222b9190612c2e565b60405180910390a3505050565b612243848484611a63565b61224f848484846124a6565b61228e576040517f08c379a000000000000000000000000000000000000000000000000000000000815260040161228590614267565b60405180910390fd5b50505050565b606060405180602001604052806000815250905090565b60606122b6826118c2565b60006122c0612294565b905060008151116122e0576040518060200160405280600081525061230b565b806122ea8461262d565b6040516020016122fb929190613f0c565b6040516020818303038152906040525b915050919050565b60007f01ffc9a7000000000000000000000000000000000000000000000000000000007bffffffffffffffffffffffffffffffffffffffffffffffffffffffff1916827bffffffffffffffffffffffffffffffffffffffffffffffffffffffff1916149050919050565b60008073ffffffffffffffffffffffffffffffffffffffff1661239f83611fc9565b73ffffffffffffffffffffffffffffffffffffffff1614159050919050565b50505050565b50505050565b6123d483836126fb565b6123e160008484846124a6565b612420576040517f08c379a000000000000000000000000000000000000000000000000000000000815260040161241790614267565b60405180910390fd5b505050565b61242d612b42565b6040518060a00160405280604051806020016040528060008152508152602001612455610fba565b61245e8561262d565b60405160200161246f929190613f0c565b6040516020818303038152906040528152602001600a60ff168152602001600a60ff168152602001600060ff168152509050919050565b60006124c78473ffffffffffffffffffffffffffffffffffffffff16612918565b15612620578373ffffffffffffffffffffffffffffffffffffffff1663150b7a026124f061190d565b8786866040518563ffffffff1660e01b815260040161251294939291906142dc565b6020604051808303816000875af192505050801561254e57506040513d601f19601f8201168201806040525081019061254b919061433d565b60015b6125d0573d806000811461257e576040519150601f19603f3d011682016040523d82523d6000602084013e612583565b606091505b5060008151036125c8576040517f08c379a00000000000000000000000000000000000000000000000000000000081526004016125bf90614267565b60405180910390fd5b805181602001fd5b63150b7a0260e01b7bffffffffffffffffffffffffffffffffffffffffffffffffffffffff1916817bffffffffffffffffffffffffffffffffffffffffffffffffffffffff191614915050612625565b600190505b949350505050565b60606000600161263c8461293b565b01905060008167ffffffffffffffff81111561265b5761265a612d05565b5b6040519080825280601f01601f19166020018201604052801561268d5781602001600182028036833780820191505090505b509050600082602001820190505b6001156126f0578080600190039150507f3031323334353637383961626364656600000000000000000000000000000000600a86061a8153600a85816126e4576126e3613be9565b5b0494506000850361269b575b819350505050919050565b600073ffffffffffffffffffffffffffffffffffffffff168273ffffffffffffffffffffffffffffffffffffffff160361276a576040517f08c379a0000000000000000000000000000000000000000000000000000000008152600401612761906143b6565b60405180910390fd5b6127738161237d565b156127b3576040517f08c379a00000000000000000000000000000000000000000000000000000000081526004016127aa90614422565b60405180910390fd5b6127c16000838360016123be565b6127ca8161237d565b1561280a576040517f08c379a000000000000000000000000000000000000000000000000000000000815260040161280190614422565b60405180910390fd5b6001600360008473ffffffffffffffffffffffffffffffffffffffff1673ffffffffffffffffffffffffffffffffffffffff16815260200190815260200160002060008282540192505081905550816002600083815260200190815260200160002060006101000a81548173ffffffffffffffffffffffffffffffffffffffff021916908373ffffffffffffffffffffffffffffffffffffffff160217905550808273ffffffffffffffffffffffffffffffffffffffff16600073ffffffffffffffffffffffffffffffffffffffff167fddf252ad1be2c89b69c2b068fc378daa952ba7f163c4a11628f55a4df523b3ef60405160405180910390a46129146000838360016123c4565b5050565b6000808273ffffffffffffffffffffffffffffffffffffffff163b119050919050565b600080600090507a184f03e93ff9f4daa797ed6e38ed64bf6a1f0100000000000000008310612999577a184f03e93ff9f4daa797ed6e38ed64bf6a1f010000000000000000838161298f5761298e613be9565b5b0492506040810190505b6d04ee2d6d415b85acef810000000083106129d6576d04ee2d6d415b85acef810000000083816129cc576129cb613be9565b5b0492506020810190505b662386f26fc100008310612a0557662386f26fc1000083816129fb576129fa613be9565b5b0492506010810190505b6305f5e1008310612a2e576305f5e1008381612a2457612a23613be9565b5b0492506008810190505b6127108310612a53576127108381612a4957612a48613be9565b5b0492506004810190505b60648310612a765760648381612a6c57612a6b613be9565b5b0492506002810190505b600a8310612a85576001810190505b80915050919050565b6040518060c0016040528060008152602001606081526020016000815260200160008152602001612abd612b42565b8152602001600073ffffffffffffffffffffffffffffffffffffffff1681525090565b604051806101200160405280600073ffffffffffffffffffffffffffffffffffffffff16815260200160608152602001600081526020016000815260200160008152602001600081526020016000815260200160008152602001600081525090565b6040518060a001604052806060815260200160608152602001600060ff168152602001600060ff168152602001600060ff1681525090565b6000604051905090565b600080fd5b600080fd5b60007fffffffff0000000000000000000000000000000000000000000000000000000082169050919050565b612bc381612b8e565b8114612bce57600080fd5b50565b600081359050612be081612bba565b92915050565b600060208284031215612bfc57612bfb612b84565b5b6000612c0a84828501612bd1565b91505092915050565b60008115159050919050565b612c2881612c13565b82525050565b6000602082019050612c436000830184612c1f565b92915050565b600081519050919050565b600082825260208201905092915050565b60005b83811015612c83578082015181840152602081019050612c68565b60008484015250505050565b6000601f19601f8301169050919050565b6000612cab82612c49565b612cb58185612c54565b9350612cc5818560208601612c65565b612cce81612c8f565b840191505092915050565b60006020820190508181036000830152612cf38184612ca0565b905092915050565b600080fd5b600080fd5b7f4e487b7100000000000000000000000000000000000000000000000000000000600052604160045260246000fd5b612d3d82612c8f565b810181811067ffffffffffffffff82111715612d5c57612d5b612d05565b5b80604052505050565b6000612d6f612b7a565b9050612d7b8282612d34565b919050565b600067ffffffffffffffff821115612d9b57612d9a612d05565b5b612da482612c8f565b9050602081019050919050565b82818337600083830152505050565b6000612dd3612dce84612d80565b612d65565b905082815260208101848484011115612def57612dee612d00565b5b612dfa848285612db1565b509392505050565b600082601f830112612e1757612e16612cfb565b5b8135612e27848260208601612dc0565b91505092915050565b600060208284031215612e4657612e45612b84565b5b600082013567ffffffffffffffff811115612e6457612e63612b89565b5b612e7084828501612e02565b91505092915050565b6000819050919050565b612e8c81612e79565b8114612e9757600080fd5b50565b600081359050612ea981612e83565b92915050565b600060208284031215612ec557612ec4612b84565b5b6000612ed384828501612e9a565b91505092915050565b600073ffffffffffffffffffffffffffffffffffffffff82169050919050565b6000612f0782612edc565b9050919050565b612f1781612efc565b82525050565b6000602082019050612f326000830184612f0e565b92915050565b612f4181612efc565b8114612f4c57600080fd5b50565b600081359050612f5e81612f38565b92915050565b60008060408385031215612f7b57612f7a612b84565b5b6000612f8985828601612f4f565b9250506020612f9a85828601612e9a565b9150509250929050565b612fad81612e79565b82525050565b6000602082019050612fc86000830184612fa4565b92915050565b600080600060608486031215612fe757612fe6612b84565b5b6000612ff586828701612f4f565b935050602061300686828701612f4f565b925050604061301786828701612e9a565b9150509250925092565b60006020828403121561303757613036612b84565b5b600061304584828501612f4f565b91505092915050565b600081519050919050565b600082825260208201905092915050565b6000819050602082019050919050565b61308381612e79565b82525050565b6000613095838361307a565b60208301905092915050565b6000602082019050919050565b60006130b98261304e565b6130c38185613059565b93506130ce8361306a565b8060005b838110156130ff5781516130e68882613089565b97506130f1836130a1565b9250506001810190506130d2565b5085935050505092915050565b6000602082019050818103600083015261312681846130ae565b905092915050565b61313781612c13565b811461314257600080fd5b50565b6000813590506131548161312e565b92915050565b6000806040838503121561317157613170612b84565b5b600061317f85828601612f4f565b925050602061319085828601613145565b9150509250929050565b600082825260208201905092915050565b60006131b682612c49565b6131c0818561319a565b93506131d0818560208601612c65565b6131d981612c8f565b840191505092915050565b600060ff82169050919050565b6131fa816131e4565b82525050565b600060a083016000830151848203600086015261321d82826131ab565b9150506020830151848203602086015261323782826131ab565b915050604083015161324c60408601826131f1565b50606083015161325f60608601826131f1565b50608083015161327260808601826131f1565b508091505092915050565b61328681612efc565b82525050565b600060c0830160008301516132a4600086018261307a565b50602083015184820360208601526132bc82826131ab565b91505060408301516132d1604086018261307a565b5060608301516132e4606086018261307a565b50608083015184820360808601526132fc8282613200565b91505060a083015161331160a086018261327d565b508091505092915050565b60006020820190508181036000830152613336818461328c565b905092915050565b600067ffffffffffffffff82111561335957613358612d05565b5b61336282612c8f565b9050602081019050919050565b600061338261337d8461333e565b612d65565b90508281526020810184848401111561339e5761339d612d00565b5b6133a9848285612db1565b509392505050565b600082601f8301126133c6576133c5612cfb565b5b81356133d684826020860161336f565b91505092915050565b600080600080608085870312156133f9576133f8612b84565b5b600061340787828801612f4f565b945050602061341887828801612f4f565b935050604061342987828801612e9a565b925050606085013567ffffffffffffffff81111561344a57613449612b89565b5b613456878288016133b1565b91505092959194509250565b60006101208301600083015161347b600086018261327d565b506020830151848203602086015261349382826131ab565b91505060408301516134a8604086018261307a565b5060608301516134bb606086018261307a565b5060808301516134ce608086018261307a565b5060a08301516134e160a086018261307a565b5060c08301516134f460c086018261307a565b5060e083015161350760e086018261307a565b5061010083015161351c61010086018261307a565b508091505092915050565b600060208201905081810360008301526135418184613462565b905092915050565b600080604083850312156135605761355f612b84565b5b600061356e85828601612f4f565b925050602061357f85828601612f4f565b9150509250929050565b6000806000606084860312156135a2576135a1612b84565b5b60006135b086828701612e9a565b93505060206135c186828701612f4f565b925050604084013567ffffffffffffffff8111156135e2576135e1612b89565b5b6135ee86828701612e02565b9150509250925092565b7f4e487b7100000000000000000000000000000000000000000000000000000000600052602260045260246000fd5b6000600282049050600182168061363f57607f821691505b602082108103613652576136516135f8565b5b50919050565b60008190508160005260206000209050919050565b60006020601f8301049050919050565b600082821b905092915050565b6000600883026136ba7fffffffffffffffffffffffffffffffffffffffffffffffffffffffffffffffff8261367d565b6136c4868361367d565b95508019841693508086168417925050509392505050565b6000819050919050565b60006137016136fc6136f784612e79565b6136dc565b612e79565b9050919050565b6000819050919050565b61371b836136e6565b61372f61372782613708565b84845461368a565b825550505050565b600090565b613744613737565b61374f818484613712565b505050565b5b818110156137735761376860008261373c565b600181019050613755565b5050565b601f8211156137b85761378981613658565b6137928461366d565b810160208510156137a1578190505b6137b56137ad8561366d565b830182613754565b50505b505050565b600082821c905092915050565b60006137db600019846008026137bd565b1980831691505092915050565b60006137f483836137ca565b9150826002028217905092915050565b61380d82612c49565b67ffffffffffffffff81111561382657613825612d05565b5b6138308254613627565b61383b828285613777565b600060209050601f83116001811461386e576000841561385c578287015190505b61386685826137e8565b8655506138ce565b601f19841661387c86613658565b60005b828110156138a45784890151825560018201915060208501945060208101905061387f565b868310156138c157848901516138bd601f8916826137ca565b8355505b6001600288020188555050505b505050505050565b7f4552433732313a20617070726f76616c20746f2063757272656e74206f776e6560008201527f7200000000000000000000000000000000000000000000000000000000000000602082015250565b6000613932602183612c54565b915061393d826138d6565b604082019050919050565b6000602082019050818103600083015261396181613925565b9050919050565b7f4552433732313a20617070726f76652063616c6c6572206973206e6f7420746f60008201527f6b656e206f776e6572206f7220617070726f76656420666f7220616c6c000000602082015250565b60006139c4603d83612c54565b91506139cf82613968565b604082019050919050565b600060208201905081810360008301526139f3816139b7565b9050919050565b7f4e487b7100000000000000000000000000000000000000000000000000000000600052601160045260246000fd5b60008160011c9050919050565b6000808291508390505b6001851115613a8057808604811115613a5c57613a5b6139fa565b5b6001851615613a6b5780820291505b8081029050613a7985613a29565b9450613a40565b94509492505050565b600082613a995760019050613b55565b81613aa75760009050613b55565b8160018114613abd5760028114613ac757613af6565b6001915050613b55565b60ff841115613ad957613ad86139fa565b5b8360020a915084821115613af057613aef6139fa565b5b50613b55565b5060208310610133831016604e8410600b8410161715613b2b5782820a905083811115613b2657613b256139fa565b5b613b55565b613b388484846001613a36565b92509050818404811115613b4f57613b4e6139fa565b5b81810290505b9392505050565b6000613b6782612e79565b9150613b7283612e79565b9250613b9f7fffffffffffffffffffffffffffffffffffffffffffffffffffffffffffffffff8484613a89565b905092915050565b6000613bb282612e79565b9150613bbd83612e79565b9250828202613bcb81612e79565b91508282048414831517613be257613be16139fa565b5b5092915050565b7f4e487b7100000000000000000000000000000000000000000000000000000000600052601260045260246000fd5b6000613c2382612e79565b9150613c2e83612e79565b925082613c3e57613c3d613be9565b5b828204905092915050565b7f4552433732313a2063616c6c6572206973206e6f7420746f6b656e206f776e6560008201527f72206f7220617070726f76656400000000000000000000000000000000000000602082015250565b6000613ca5602d83612c54565b9150613cb082613c49565b604082019050919050565b60006020820190508181036000830152613cd481613c98565b9050919050565b6000613ce682612e79565b9150613cf183612e79565b9250828203905081811115613d0957613d086139fa565b5b92915050565b6000613d1a82612e79565b9150613d2583612e79565b925082613d3557613d34613be9565b5b828206905092915050565b7f4e6f206d6f726520617661696c61626c65206e66747320746f2070757263686160008201527f7365000000000000000000000000000000000000000000000000000000000000602082015250565b6000613d9c602283612c54565b9150613da782613d40565b604082019050919050565b60006020820190508181036000830152613dcb81613d8f565b9050919050565b7f4552433732313a20696e76616c696420746f6b656e2049440000000000000000600082015250565b6000613e08601883612c54565b9150613e1382613dd2565b602082019050919050565b60006020820190508181036000830152613e3781613dfb565b9050919050565b7f4552433732313a2061646472657373207a65726f206973206e6f74206120766160008201527f6c6964206f776e65720000000000000000000000000000000000000000000000602082015250565b6000613e9a602983612c54565b9150613ea582613e3e565b604082019050919050565b60006020820190508181036000830152613ec981613e8d565b9050919050565b600081905092915050565b6000613ee682612c49565b613ef08185613ed0565b9350613f00818560208601612c65565b80840191505092915050565b6000613f188285613edb565b9150613f248284613edb565b91508190509392505050565b7f4f776e61626c653a206e6577206f776e657220697320746865207a65726f206160008201527f6464726573730000000000000000000000000000000000000000000000000000602082015250565b6000613f8c602683612c54565b9150613f9782613f30565b604082019050919050565b60006020820190508181036000830152613fbb81613f7f565b9050919050565b7f4f776e61626c653a2063616c6c6572206973206e6f7420746865206f776e6572600082015250565b6000613ff8602083612c54565b915061400382613fc2565b602082019050919050565b6000602082019050818103600083015261402781613feb565b9050919050565b7f4552433732313a207472616e736665722066726f6d20696e636f72726563742060008201527f6f776e6572000000000000000000000000000000000000000000000000000000602082015250565b600061408a602583612c54565b91506140958261402e565b604082019050919050565b600060208201905081810360008301526140b98161407d565b9050919050565b7f4552433732313a207472616e7366657220746f20746865207a65726f2061646460008201527f7265737300000000000000000000000000000000000000000000000000000000602082015250565b600061411c602483612c54565b9150614127826140c0565b604082019050919050565b6000602082019050818103600083015261414b8161410f565b9050919050565b60006060820190506141676000830186612fa4565b6141746020830185612f0e565b6141816040830184612fa4565b949350505050565b7f4552433732313a20617070726f766520746f2063616c6c657200000000000000600082015250565b60006141bf601983612c54565b91506141ca82614189565b602082019050919050565b600060208201905081810360008301526141ee816141b2565b9050919050565b7f4552433732313a207472616e7366657220746f206e6f6e20455243373231526560008201527f63656976657220696d706c656d656e7465720000000000000000000000000000602082015250565b6000614251603283612c54565b915061425c826141f5565b604082019050919050565b6000602082019050818103600083015261428081614244565b9050919050565b600081519050919050565b600082825260208201905092915050565b60006142ae82614287565b6142b88185614292565b93506142c8818560208601612c65565b6142d181612c8f565b840191505092915050565b60006080820190506142f16000830187612f0e565b6142fe6020830186612f0e565b61430b6040830185612fa4565b818103606083015261431d81846142a3565b905095945050505050565b60008151905061433781612bba565b92915050565b60006020828403121561435357614352612b84565b5b600061436184828501614328565b91505092915050565b7f4552433732313a206d696e7420746f20746865207a65726f2061646472657373600082015250565b60006143a0602083612c54565b91506143ab8261436a565b602082019050919050565b600060208201905081810360008301526143cf81614393565b9050919050565b7f4552433732313a20746f6b656e20616c7265616479206d696e74656400000000600082015250565b600061440c601c83612c54565b9150614417826143d6565b602082019050919050565b6000602082019050818103600083015261443b816143ff565b905091905056fea26469706673582212201108711d54a90413cc3953816b5f43bde706bf2d27922bc493c99a3fe05f549a64736f6c63430008120033516d546b3473506f59796d70746b4b4e5870765341574b54373937473676594a65633257454346584d6d54454552516d5666576b796846694d6861374435416464525038464d543179765a7947435a7352397057317438314158676d",
  "linkReferences": {},
  "deployedLinkReferences": {}
}