{
  "_format": "hh-sol-artifact-1",
  "contractName": "EAvatar",
  "sourceName": "contracts/EAvatar.sol",
  "abi": [
    {
      "inputs": [
        {
          "internalType": "address",
          "name": "bond_issuer",
          "type": "address"
        }
      ],
      "stateMutability": "nonpayable",
      "type": "constructor"
    },
    {
      "anonymous": false,
      "inputs": [
        {
          "indexed": true,
          "internalType": "address",
          "name": "owner",
          "type": "address"
        },
        {
          "indexed": true,
          "internalType": "address",
          "name": "approved",
          "type": "address"
        },
        {
          "indexed": true,
          "internalType": "uint256",
          "name": "tokenId",
          "type": "uint256"
        }
      ],
      "name": "Approval",
      "type": "event"
    },
    {
      "anonymous": false,
      "inputs": [
        {
          "indexed": true,
          "internalType": "address",
          "name": "owner",
          "type": "address"
        },
        {
          "indexed": true,
          "internalType": "address",
          "name": "operator",
          "type": "address"
        },
        {
          "indexed": false,
          "internalType": "bool",
          "name": "approved",
          "type": "bool"
        }
      ],
      "name": "ApprovalForAll",
      "type": "event"
    },
    {
      "anonymous": false,
      "inputs": [
        {
          "indexed": false,
          "internalType": "uint256",
          "name": "_fromTokenId",
          "type": "uint256"
        },
        {
          "indexed": false,
          "internalType": "uint256",
          "name": "_toTokenId",
          "type": "uint256"
        }
      ],
      "name": "BatchMetadataUpdate",
      "type": "event"
    },
    {
      "anonymous": false,
      "inputs": [
        {
          "indexed": false,
          "internalType": "uint256",
          "name": "_tokenId",
          "type": "uint256"
        }
      ],
      "name": "MetadataUpdate",
      "type": "event"
    },
    {
      "anonymous": false,
      "inputs": [
        {
          "indexed": true,
          "internalType": "address",
          "name": "previousOwner",
          "type": "address"
        },
        {
          "indexed": true,
          "internalType": "address",
          "name": "newOwner",
          "type": "address"
        }
      ],
      "name": "OwnershipTransferred",
      "type": "event"
    },
    {
      "anonymous": false,
      "inputs": [
        {
          "indexed": true,
          "internalType": "address",
          "name": "from",
          "type": "address"
        },
        {
          "indexed": true,
          "internalType": "address",
          "name": "to",
          "type": "address"
        },
        {
          "indexed": true,
          "internalType": "uint256",
          "name": "tokenId",
          "type": "uint256"
        }
      ],
      "name": "Transfer",
      "type": "event"
    },
    {
      "anonymous": false,
      "inputs": [
        {
          "indexed": false,
          "internalType": "uint256",
          "name": "tokenId",
          "type": "uint256"
        },
        {
          "indexed": false,
          "internalType": "address",
          "name": "owner",
          "type": "address"
        },
        {
          "indexed": false,
          "internalType": "uint256",
          "name": "price",
          "type": "uint256"
        }
      ],
      "name": "nftItemCreated",
      "type": "event"
    },
    {
      "inputs": [
        {
          "internalType": "address",
          "name": "to",
          "type": "address"
        },
        {
          "internalType": "uint256",
          "name": "tokenId",
          "type": "uint256"
        }
      ],
      "name": "approve",
      "outputs": [],
      "stateMutability": "nonpayable",
      "type": "function"
    },
    {
      "inputs": [],
      "name": "availableNFTs",
      "outputs": [
        {
          "internalType": "bool",
          "name": "ans",
          "type": "bool"
        }
      ],
      "stateMutability": "view",
      "type": "function"
    },
    {
      "inputs": [
        {
          "internalType": "address",
          "name": "owner",
          "type": "address"
        }
      ],
      "name": "balanceOf",
      "outputs": [
        {
          "internalType": "uint256",
          "name": "",
          "type": "uint256"
        }
      ],
      "stateMutability": "view",
      "type": "function"
    },
    {
      "inputs": [],
      "name": "bondMatureAmount",
      "outputs": [
        {
          "internalType": "uint256",
          "name": "amount",
          "type": "uint256"
        }
      ],
      "stateMutability": "view",
      "type": "function"
    },
    {
      "inputs": [],
      "name": "calculateAccruedInterest",
      "outputs": [
        {
          "internalType": "uint256",
          "name": "",
          "type": "uint256"
        }
      ],
      "stateMutability": "view",
      "type": "function"
    },
    {
      "inputs": [
        {
          "internalType": "uint8",
          "name": "level",
          "type": "uint8"
        },
        {
          "internalType": "string",
          "name": "newURI",
          "type": "string"
        }
      ],
      "name": "changeCharURI",
      "outputs": [],
      "stateMutability": "nonpayable",
      "type": "function"
    },
    {
      "inputs": [
        {
          "internalType": "uint256",
          "name": "tokenId",
          "type": "uint256"
        },
        {
          "internalType": "address",
          "name": "owner",
          "type": "address"
        },
        {
          "internalType": "string",
          "name": "name",
          "type": "string"
        }
      ],
      "name": "changeCharacterName",
      "outputs": [],
      "stateMutability": "view",
      "type": "function"
    },
    {
      "inputs": [
        {
          "internalType": "uint256",
          "name": "tokenId",
          "type": "uint256"
        },
        {
          "internalType": "uint8",
          "name": "increase",
          "type": "uint8"
        }
      ],
      "name": "changeLevel",
      "outputs": [
        {
          "internalType": "uint8",
          "name": "newLevel",
          "type": "uint8"
        }
      ],
      "stateMutability": "nonpayable",
      "type": "function"
    },
    {
      "inputs": [
        {
          "internalType": "uint256",
          "name": "tokenId",
          "type": "uint256"
        },
        {
          "internalType": "address",
          "name": "owner",
          "type": "address"
        }
      ],
      "name": "evolveCharacter",
      "outputs": [],
      "stateMutability": "view",
      "type": "function"
    },
    {
      "inputs": [
        {
          "internalType": "uint256",
          "name": "tokenId",
          "type": "uint256"
        }
      ],
      "name": "evolveState",
      "outputs": [
        {
          "internalType": "uint8",
          "name": "evolve",
          "type": "uint8"
        },
        {
          "internalType": "string",
          "name": "uri",
          "type": "string"
        }
      ],
      "stateMutability": "view",
      "type": "function"
    },
    {
      "inputs": [
        {
          "internalType": "uint256",
          "name": "tokenId",
          "type": "uint256"
        }
      ],
      "name": "getApproved",
      "outputs": [
        {
          "internalType": "address",
          "name": "",
          "type": "address"
        }
      ],
      "stateMutability": "view",
      "type": "function"
    },
    {
      "inputs": [],
      "name": "getBaseURI",
      "outputs": [
        {
          "internalType": "string",
          "name": "",
          "type": "string"
        }
      ],
      "stateMutability": "view",
      "type": "function"
    },
    {
      "inputs": [],
      "name": "getBondInfo",
      "outputs": [
        {
          "components": [
            {
              "internalType": "address",
              "name": "bondIssuer",
              "type": "address"
            },
            {
              "internalType": "string",
              "name": "bondName",
              "type": "string"
            },
            {
              "internalType": "uint256",
              "name": "issueDate",
              "type": "uint256"
            },
            {
              "internalType": "uint256",
              "name": "maturityDate",
              "type": "uint256"
            },
            {
              "internalType": "uint256",
              "name": "interestPaymentPercent",
              "type": "uint256"
            },
            {
              "internalType": "uint256",
              "name": "periodOfPayment",
              "type": "uint256"
            },
            {
              "internalType": "uint256",
              "name": "faceValue",
              "type": "uint256"
            },
            {
              "internalType": "uint256",
              "name": "shift",
              "type": "uint256"
            },
            {
              "internalType": "uint256",
              "name": "supply",
              "type": "uint256"
            }
          ],
          "internalType": "struct EAvatar.EBond",
          "name": "bond",
          "type": "tuple"
        }
      ],
      "stateMutability": "view",
      "type": "function"
    },
    {
      "inputs": [],
      "name": "getIssuer",
      "outputs": [
        {
          "internalType": "address",
          "name": "issuer",
          "type": "address"
        }
      ],
      "stateMutability": "view",
      "type": "function"
    },
    {
      "inputs": [],
      "name": "getLatestId",
      "outputs": [
        {
          "internalType": "uint256",
          "name": "",
          "type": "uint256"
        }
      ],
      "stateMutability": "view",
      "type": "function"
    },
    {
      "inputs": [
        {
          "internalType": "uint256",
          "name": "tokenId",
          "type": "uint256"
        }
      ],
      "name": "getMetadata",
      "outputs": [
        {
          "components": [
            {
              "internalType": "uint256",
              "name": "tokenId",
              "type": "uint256"
            },
            {
              "internalType": "string",
              "name": "name",
              "type": "string"
            },
            {
              "internalType": "uint256",
              "name": "mintedAt",
              "type": "uint256"
            },
            {
              "internalType": "uint256",
              "name": "listing_price",
              "type": "uint256"
            },
            {
              "components": [
                {
                  "internalType": "string",
                  "name": "name",
                  "type": "string"
                },
                {
                  "internalType": "string",
                  "name": "characterURI",
                  "type": "string"
                },
                {
                  "internalType": "uint8",
                  "name": "hp",
                  "type": "uint8"
                },
                {
                  "internalType": "uint8",
                  "name": "ap",
                  "type": "uint8"
                },
                {
                  "internalType": "uint8",
                  "name": "level",
                  "type": "uint8"
                },
                {
                  "internalType": "uint8",
                  "name": "evolved",
                  "type": "uint8"
                }
              ],
              "internalType": "struct EAvatar.AvatarChar",
              "name": "character",
              "type": "tuple"
            },
            {
              "internalType": "address",
              "name": "ownerId",
              "type": "address"
            }
          ],
          "internalType": "struct EAvatar.EMetadata",
          "name": "item",
          "type": "tuple"
        }
      ],
      "stateMutability": "view",
      "type": "function"
    },
    {
      "inputs": [],
      "name": "interestPaymentAmount",
      "outputs": [
        {
          "internalType": "uint256",
          "name": "amount",
          "type": "uint256"
        }
      ],
      "stateMutability": "view",
      "type": "function"
    },
    {
      "inputs": [
        {
          "internalType": "address",
          "name": "owner",
          "type": "address"
        },
        {
          "internalType": "address",
          "name": "operator",
          "type": "address"
        }
      ],
      "name": "isApprovedForAll",
      "outputs": [
        {
          "internalType": "bool",
          "name": "",
          "type": "bool"
        }
      ],
      "stateMutability": "view",
      "type": "function"
    },
    {
      "inputs": [],
      "name": "isBondMatured",
      "outputs": [
        {
          "internalType": "bool",
          "name": "",
          "type": "bool"
        }
      ],
      "stateMutability": "view",
      "type": "function"
    },
    {
      "inputs": [],
      "name": "isInterestTime",
      "outputs": [
        {
          "internalType": "bool",
          "name": "",
          "type": "bool"
        }
      ],
      "stateMutability": "view",
      "type": "function"
    },
    {
      "inputs": [],
      "name": "matureCharacters",
      "outputs": [],
      "stateMutability": "nonpayable",
      "type": "function"
    },
    {
      "inputs": [
        {
          "internalType": "address",
          "name": "recipient",
          "type": "address"
        },
        {
          "internalType": "uint256",
          "name": "price",
          "type": "uint256"
        }
      ],
      "name": "mintNFT",
      "outputs": [
        {
          "internalType": "uint256",
          "name": "",
          "type": "uint256"
        }
      ],
      "stateMutability": "nonpayable",
      "type": "function"
    },
    {
      "inputs": [],
      "name": "name",
      "outputs": [
        {
          "internalType": "string",
          "name": "",
          "type": "string"
        }
      ],
      "stateMutability": "view",
      "type": "function"
    },
    {
      "inputs": [],
      "name": "owner",
      "outputs": [
        {
          "internalType": "address",
          "name": "",
          "type": "address"
        }
      ],
      "stateMutability": "view",
      "type": "function"
    },
    {
      "inputs": [
        {
          "internalType": "address",
          "name": "owner",
          "type": "address"
        }
      ],
      "name": "ownerCollection",
      "outputs": [
        {
          "internalType": "uint256[]",
          "name": "ids",
          "type": "uint256[]"
        }
      ],
      "stateMutability": "view",
      "type": "function"
    },
    {
      "inputs": [
        {
          "internalType": "uint256",
          "name": "tokenId",
          "type": "uint256"
        }
      ],
      "name": "ownerOf",
      "outputs": [
        {
          "internalType": "address",
          "name": "",
          "type": "address"
        }
      ],
      "stateMutability": "view",
      "type": "function"
    },
    {
      "inputs": [],
      "name": "renounceOwnership",
      "outputs": [],
      "stateMutability": "nonpayable",
      "type": "function"
    },
    {
      "inputs": [
        {
          "internalType": "address",
          "name": "from",
          "type": "address"
        },
        {
          "internalType": "address",
          "name": "to",
          "type": "address"
        },
        {
          "internalType": "uint256",
          "name": "tokenId",
          "type": "uint256"
        }
      ],
      "name": "safeTransferFrom",
      "outputs": [],
      "stateMutability": "nonpayable",
      "type": "function"
    },
    {
      "inputs": [
        {
          "internalType": "address",
          "name": "from",
          "type": "address"
        },
        {
          "internalType": "address",
          "name": "to",
          "type": "address"
        },
        {
          "internalType": "uint256",
          "name": "tokenId",
          "type": "uint256"
        },
        {
          "internalType": "bytes",
          "name": "data",
          "type": "bytes"
        }
      ],
      "name": "safeTransferFrom",
      "outputs": [],
      "stateMutability": "nonpayable",
      "type": "function"
    },
    {
      "inputs": [
        {
          "internalType": "address",
          "name": "operator",
          "type": "address"
        },
        {
          "internalType": "bool",
          "name": "approved",
          "type": "bool"
        }
      ],
      "name": "setApprovalForAll",
      "outputs": [],
      "stateMutability": "nonpayable",
      "type": "function"
    },
    {
      "inputs": [
        {
          "internalType": "string",
          "name": "newURI",
          "type": "string"
        }
      ],
      "name": "setBaseURI",
      "outputs": [],
      "stateMutability": "nonpayable",
      "type": "function"
    },
    {
      "inputs": [
        {
          "internalType": "string",
          "name": "newURI",
          "type": "string"
        }
      ],
      "name": "setInactiveBaseURI",
      "outputs": [],
      "stateMutability": "nonpayable",
      "type": "function"
    },
    {
      "inputs": [
        {
          "internalType": "bytes4",
          "name": "interfaceId",
          "type": "bytes4"
        }
      ],
      "name": "supportsInterface",
      "outputs": [
        {
          "internalType": "bool",
          "name": "",
          "type": "bool"
        }
      ],
      "stateMutability": "view",
      "type": "function"
    },
    {
      "inputs": [],
      "name": "symbol",
      "outputs": [
        {
          "internalType": "string",
          "name": "",
          "type": "string"
        }
      ],
      "stateMutability": "view",
      "type": "function"
    },
    {
      "inputs": [
        {
          "internalType": "uint256",
          "name": "tokenId",
          "type": "uint256"
        }
      ],
      "name": "tokenURI",
      "outputs": [
        {
          "internalType": "string",
          "name": "",
          "type": "string"
        }
      ],
      "stateMutability": "view",
      "type": "function"
    },
    {
      "inputs": [
        {
          "internalType": "address",
          "name": "from",
          "type": "address"
        },
        {
          "internalType": "address",
          "name": "to",
          "type": "address"
        },
        {
          "internalType": "uint256",
          "name": "tokenId",
          "type": "uint256"
        }
      ],
      "name": "transferFrom",
      "outputs": [],
      "stateMutability": "nonpayable",
      "type": "function"
    },
    {
      "inputs": [
        {
          "internalType": "address",
          "name": "newOwner",
          "type": "address"
        }
      ],
      "name": "transferOwnership",
      "outputs": [],
      "stateMutability": "nonpayable",
      "type": "function"
    }
  ],
  "bytecode": "0x60806040526001601360006101000a81548160ff021916908360ff1602179055506040518060600160405280602e8152602001620056d8602e9139601690816200004a9190620006a2565b5060405180602001604052806000815250601790816200006b9190620006a2565b5060126000808152602001908152602001600020601890816200008f9190620007b6565b506040518060200160405280600081525060199081620000b09190620006a2565b50348015620000be57600080fd5b5060405162005706380380620057068339818101604052810190620000e4919062000921565b6040518060400160405280600781526020017f45417661746172000000000000000000000000000000000000000000000000008152506040518060400160405280600281526020017f45410000000000000000000000000000000000000000000000000000000000008152508160009081620001619190620006a2565b508060019081620001739190620006a2565b505050620001966200018a6200035a60201b60201c565b6200036260201b60201c565b6040518061012001604052808273ffffffffffffffffffffffffffffffffffffffff1681526020016040518060400160405280600a81526020017f452d426f6e64204f6e65000000000000000000000000000000000000000000008152508152602001428152602001636e71188081526020016005815260200162f0c29f8152602001620186a08152602001600281526020016103e8815250600960008201518160000160006101000a81548173ffffffffffffffffffffffffffffffffffffffff021916908373ffffffffffffffffffffffffffffffffffffffff16021790555060208201518160010190816200028f9190620006a2565b5060408201518160020155606082015181600301556080820151816004015560a0820151816005015560c0820151816006015560e0820151816007015561010082015181600801559050506040518060600160405280602e81526020016200567c602e9139601260008081526020019081526020016000209081620003159190620006a2565b506040518060600160405280602e8152602001620056aa602e913960126000600181526020019081526020016000209081620003529190620006a2565b505062000953565b600033905090565b6000600760009054906101000a900473ffffffffffffffffffffffffffffffffffffffff16905081600760006101000a81548173ffffffffffffffffffffffffffffffffffffffff021916908373ffffffffffffffffffffffffffffffffffffffff1602179055508173ffffffffffffffffffffffffffffffffffffffff168173ffffffffffffffffffffffffffffffffffffffff167f8be0079c531659141344cd1fd0a4f28419497f9722a3daafe3b4186f6b6457e060405160405180910390a35050565b600081519050919050565b7f4e487b7100000000000000000000000000000000000000000000000000000000600052604160045260246000fd5b7f4e487b7100000000000000000000000000000000000000000000000000000000600052602260045260246000fd5b60006002820490506001821680620004aa57607f821691505b602082108103620004c057620004bf62000462565b5b50919050565b60008190508160005260206000209050919050565b60006020601f8301049050919050565b600082821b905092915050565b6000600883026200052a7fffffffffffffffffffffffffffffffffffffffffffffffffffffffffffffffff82620004eb565b620005368683620004eb565b95508019841693508086168417925050509392505050565b6000819050919050565b6000819050919050565b6000620005836200057d62000577846200054e565b62000558565b6200054e565b9050919050565b6000819050919050565b6200059f8362000562565b620005b7620005ae826200058a565b848454620004f8565b825550505050565b600090565b620005ce620005bf565b620005db81848462000594565b505050565b5b818110156200060357620005f7600082620005c4565b600181019050620005e1565b5050565b601f82111562000652576200061c81620004c6565b6200062784620004db565b8101602085101562000637578190505b6200064f6200064685620004db565b830182620005e0565b50505b505050565b600082821c905092915050565b6000620006776000198460080262000657565b1980831691505092915050565b600062000692838362000664565b9150826002028217905092915050565b620006ad8262000428565b67ffffffffffffffff811115620006c957620006c862000433565b5b620006d5825462000491565b620006e282828562000607565b600060209050601f8311600181146200071a576000841562000705578287015190505b62000711858262000684565b86555062000781565b601f1984166200072a86620004c6565b60005b8281101562000754578489015182556001820191506020850194506020810190506200072d565b8683101562000774578489015162000770601f89168262000664565b8355505b6001600288020188555050505b505050505050565b6000815490506200079a8162000491565b9050919050565b60008190508160005260206000209050919050565b818103620007c6575050620008b5565b620007d18262000789565b67ffffffffffffffff811115620007ed57620007ec62000433565b5b620007f9825462000491565b6200080682828562000607565b6000601f8311600181146200083a576000841562000825578287015490505b62000831858262000684565b865550620008ae565b601f1984166200084a87620007a1565b96506200085786620004c6565b60005b8281101562000881578489015482556001820191506001850194506020810190506200085a565b86831015620008a157848901546200089d601f89168262000664565b8355505b6001600288020188555050505b5050505050505b565b600080fd5b600073ffffffffffffffffffffffffffffffffffffffff82169050919050565b6000620008e982620008bc565b9050919050565b620008fb81620008dc565b81146200090757600080fd5b50565b6000815190506200091b81620008f0565b92915050565b6000602082840312156200093a5762000939620008b7565b5b60006200094a848285016200090a565b91505092915050565b614d1980620009636000396000f3fe608060405234801561001057600080fd5b50600436106102275760003560e01c8063714c539811610130578063a574cea4116100b8578063e985e9c51161007c578063e985e9c514610667578063ea317fff14610697578063eff91c7e146106b5578063f1645238146106d3578063f2fde38b146106ef57610227565b8063a574cea4146105b1578063a8926f3c146105e1578063b88d4fde146105fd578063c87b56dd14610619578063d5070b3e1461064957610227565b80638da5cb5b116100ff5780638da5cb5b1461050d57806395d89b411461052b5780639c50da7514610549578063a22cb46514610579578063a31b115f1461059557610227565b8063714c5398146104bd578063715018a6146104db578063729a1a87146104e557806388456b7b1461050357610227565b806337e08699116101b3578063525564211161018257806352556421146103f357806355f804b3146104115780636352211e1461042d5780636cee5e2b1461045d57806370a082311461048d57610227565b806337e086991461036b5780633c168eab146103895780633fb3ff11146103b957806342842e0e146103d757610227565b8063095ea7b3116101fa578063095ea7b3146102c85780630e096aa4146102e45780631ed54e781461030057806323b872dd1461031e5780632b55ec8d1461033a57610227565b806301ffc9a71461022c57806305f315721461025c57806306fdde031461027a578063081812fc14610298575b600080fd5b61024660048036038101906102419190613199565b61070b565b60405161025391906131e1565b60405180910390f35b61026461076c565b60405161027191906131e1565b60405180910390f35b61028261077c565b60405161028f919061328c565b60405180910390f35b6102b260048036038101906102ad91906132e4565b61080e565b6040516102bf9190613352565b60405180910390f35b6102e260048036038101906102dd9190613399565b610854565b005b6102fe60048036038101906102f99190613547565b61096b565b005b61030861099b565b60405161031591906135b2565b60405180910390f35b610338600480360381019061033391906135cd565b6109ea565b005b610354600480360381019061034f91906132e4565b610a4a565b60405161036292919061362f565b60405180910390f35b610373610c1f565b60405161038091906131e1565b60405180910390f35b6103a3600480360381019061039e9190613399565b610c49565b6040516103b091906135b2565b60405180910390f35b6103c1610d22565b6040516103ce91906135b2565b60405180910390f35b6103f160048036038101906103ec91906135cd565b610d84565b005b6103fb610da4565b6040516104089190613352565b60405180910390f35b61042b6004803603810190610426919061365f565b610dd1565b005b610447600480360381019061044291906132e4565b610dec565b6040516104549190613352565b60405180910390f35b610477600480360381019061047291906136a8565b610e72565b60405161048491906136e8565b60405180910390f35b6104a760048036038101906104a29190613703565b610ef0565b6040516104b491906135b2565b60405180910390f35b6104c5610fa7565b6040516104d2919061328c565b60405180910390f35b6104e3611039565b005b6104ed61104d565b6040516104fa91906135b2565b60405180910390f35b61050b61105a565b005b610515611108565b6040516105229190613352565b60405180910390f35b610533611132565b604051610540919061328c565b60405180910390f35b610563600480360381019061055e9190613703565b6111c4565b60405161057091906137ee565b60405180910390f35b610593600480360381019061058e919061383c565b61125b565b005b6105af60048036038101906105aa919061365f565b611271565b005b6105cb60048036038101906105c691906132e4565b61128c565b6040516105d89190613a04565b60405180910390f35b6105fb60048036038101906105f69190613a26565b61156b565b005b61061760048036038101906106129190613b07565b611881565b005b610633600480360381019061062e91906132e4565b6118e3565b604051610640919061328c565b60405180910390f35b6106516119f5565b60405161065e9190613c4f565b60405180910390f35b610681600480360381019061067c9190613c71565b611b3e565b60405161068e91906131e1565b60405180910390f35b61069f611bd2565b6040516106ac91906131e1565b60405180910390f35b6106bd611be1565b6040516106ca91906135b2565b60405180910390f35b6106ed60048036038101906106e89190613cb1565b611bf2565b005b61070960048036038101906107049190613703565b611c52565b005b6000634906490660e01b7bffffffffffffffffffffffffffffffffffffffffffffffffffffffff1916827bffffffffffffffffffffffffffffffffffffffffffffffffffffffff19161480610765575061076482611cd5565b5b9050919050565b6000600960030154421015905090565b60606000805461078b90613d4f565b80601f01602080910402602001604051908101604052809291908181526020018280546107b790613d4f565b80156108045780601f106107d957610100808354040283529160200191610804565b820191906000526020600020905b8154815290600101906020018083116107e757829003601f168201915b5050505050905090565b600061081982611db7565b6004600083815260200190815260200160002060009054906101000a900473ffffffffffffffffffffffffffffffffffffffff169050919050565b600061085f82610dec565b90508073ffffffffffffffffffffffffffffffffffffffff168373ffffffffffffffffffffffffffffffffffffffff16036108cf576040517f08c379a00000000000000000000000000000000000000000000000000000000081526004016108c690613df2565b60405180910390fd5b8073ffffffffffffffffffffffffffffffffffffffff166108ee611e02565b73ffffffffffffffffffffffffffffffffffffffff16148061091d575061091c81610917611e02565b611b3e565b5b61095c576040517f08c379a000000000000000000000000000000000000000000000000000000000815260040161095390613e84565b60405180910390fd5b6109668383611e0a565b505050565b610973611ec3565b80601260008460ff16815260200190815260200160002090816109969190614050565b505050565b60006109a561076c565b6109e257600960070154600a6109bb9190614284565b6009600401546009600601546109d191906142cf565b6109db9190614340565b90506109e7565b600090505b90565b6109fb6109f5611e02565b82611f41565b610a3a576040517f08c379a0000000000000000000000000000000000000000000000000000000008152600401610a31906143e3565b60405180910390fd5b610a45838383611fd6565b505050565b600060606000601460008581526020019081526020016000206004016040518060c0016040529081600082018054610a8190613d4f565b80601f0160208091040260200160405190810160405280929190818152602001828054610aad90613d4f565b8015610afa5780601f10610acf57610100808354040283529160200191610afa565b820191906000526020600020905b815481529060010190602001808311610add57829003601f168201915b50505050508152602001600182018054610b1390613d4f565b80601f0160208091040260200160405190810160405280929190818152602001828054610b3f90613d4f565b8015610b8c5780601f10610b6157610100808354040283529160200191610b8c565b820191906000526020600020905b815481529060010190602001808311610b6f57829003601f168201915b505050505081526020016002820160009054906101000a900460ff1660ff1660ff1681526020016002820160019054906101000a900460ff1660ff1660ff1681526020016002820160029054906101000a900460ff1660ff1660ff1681526020016002820160039054906101000a900460ff1660ff1660ff168152505090508060a0015181602001519250925050915091565b60008060096005015460096002015442610c399190614403565b610c439190614437565b14905090565b6000610c53611ec3565b600960060154821015610c9b576040517f08c379a0000000000000000000000000000000000000000000000000000000008152600401610c92906144b4565b60405180910390fd5b600960080154610cab60086122cf565b10610ceb576040517f08c379a0000000000000000000000000000000000000000000000000000000008152600401610ce290614546565b60405180910390fd5b610cf560086122dd565b6000610d0160086122cf565b9050610d0d84826122f3565b610d18818486612311565b8091505092915050565b6000610d2c61076c565b610d7c576000610d3a61099b565b9050600060096005015460096002015442610d559190614403565b610d5f9190614340565b905060008183610d6f91906142cf565b9050809350505050610d81565b600090505b90565b610d9f83838360405180602001604052806000815250611881565b505050565b6000600960000160009054906101000a900473ffffffffffffffffffffffffffffffffffffffff16905090565b610dd9611ec3565b8060169081610de89190614050565b5050565b600080610df88361255d565b9050600073ffffffffffffffffffffffffffffffffffffffff168173ffffffffffffffffffffffffffffffffffffffff1603610e69576040517f08c379a0000000000000000000000000000000000000000000000000000000008152600401610e60906145b2565b60405180910390fd5b80915050919050565b6000816014600085815260200190815260200160002060040160020160028282829054906101000a900460ff16610ea991906145d2565b92506101000a81548160ff021916908360ff1602179055506014600084815260200190815260200160002060040160020160029054906101000a900460ff16905092915050565b60008073ffffffffffffffffffffffffffffffffffffffff168273ffffffffffffffffffffffffffffffffffffffff1603610f60576040517f08c379a0000000000000000000000000000000000000000000000000000000008152600401610f5790614679565b60405180910390fd5b600360008373ffffffffffffffffffffffffffffffffffffffff1673ffffffffffffffffffffffffffffffffffffffff168152602001908152602001600020549050919050565b606060168054610fb690613d4f565b80601f0160208091040260200160405190810160405280929190818152602001828054610fe290613d4f565b801561102f5780601f106110045761010080835404028352916020019161102f565b820191906000526020600020905b81548152906001019060200180831161101257829003601f168201915b5050505050905090565b611041611ec3565b61104b600061259a565b565b6000600960060154905090565b611062611ec3565b61106a61076c565b61107357600080fd5b6111066017805461108390613d4f565b80601f01602080910402602001604051908101604052809291908181526020018280546110af90613d4f565b80156110fc5780601f106110d1576101008083540402835291602001916110fc565b820191906000526020600020905b8154815290600101906020018083116110df57829003601f168201915b5050505050610dd1565b565b6000600760009054906101000a900473ffffffffffffffffffffffffffffffffffffffff16905090565b60606001805461114190613d4f565b80601f016020809104026020016040519081016040528092919081815260200182805461116d90613d4f565b80156111ba5780601f1061118f576101008083540402835291602001916111ba565b820191906000526020600020905b81548152906001019060200180831161119d57829003601f168201915b5050505050905090565b6060601560008373ffffffffffffffffffffffffffffffffffffffff1673ffffffffffffffffffffffffffffffffffffffff16815260200190815260200160002080548060200260200160405190810160405280929190818152602001828054801561124f57602002820191906000526020600020905b81548152602001906001019080831161123b575b50505050509050919050565b61126d611266611e02565b8383612660565b5050565b611279611ec3565b80601790816112889190614050565b5050565b611294613037565b601460008381526020019081526020016000206040518060c0016040529081600082015481526020016001820180546112cc90613d4f565b80601f01602080910402602001604051908101604052809291908181526020018280546112f890613d4f565b80156113455780601f1061131a57610100808354040283529160200191611345565b820191906000526020600020905b81548152906001019060200180831161132857829003601f168201915b505050505081526020016002820154815260200160038201548152602001600482016040518060c001604052908160008201805461138290613d4f565b80601f01602080910402602001604051908101604052809291908181526020018280546113ae90613d4f565b80156113fb5780601f106113d0576101008083540402835291602001916113fb565b820191906000526020600020905b8154815290600101906020018083116113de57829003601f168201915b5050505050815260200160018201805461141490613d4f565b80601f016020809104026020016040519081016040528092919081815260200182805461144090613d4f565b801561148d5780601f106114625761010080835404028352916020019161148d565b820191906000526020600020905b81548152906001019060200180831161147057829003601f168201915b505050505081526020016002820160009054906101000a900460ff1660ff1660ff1681526020016002820160019054906101000a900460ff1660ff1660ff1681526020016002820160029054906101000a900460ff1660ff1660ff1681526020016002820160039054906101000a900460ff1660ff1660ff168152505081526020016007820160009054906101000a900473ffffffffffffffffffffffffffffffffffffffff1673ffffffffffffffffffffffffffffffffffffffff1673ffffffffffffffffffffffffffffffffffffffff16815250509050919050565b8073ffffffffffffffffffffffffffffffffffffffff1661158b83610dec565b73ffffffffffffffffffffffffffffffffffffffff16146115ab57600080fd5b6000601460008481526020019081526020016000206004016040518060c00160405290816000820180546115de90613d4f565b80601f016020809104026020016040519081016040528092919081815260200182805461160a90613d4f565b80156116575780601f1061162c57610100808354040283529160200191611657565b820191906000526020600020905b81548152906001019060200180831161163a57829003601f168201915b5050505050815260200160018201805461167090613d4f565b80601f016020809104026020016040519081016040528092919081815260200182805461169c90613d4f565b80156116e95780601f106116be576101008083540402835291602001916116e9565b820191906000526020600020905b8154815290600101906020018083116116cc57829003601f168201915b505050505081526020016002820160009054906101000a900460ff1660ff1660ff1681526020016002820160019054906101000a900460ff1660ff1660ff1681526020016002820160029054906101000a900460ff1660ff1660ff1681526020016002820160039054906101000a900460ff1660ff1660ff168152505090508060a0015160ff16600a82608001516117819190614699565b60ff161180156117a95750601360009054906101000a900460ff1660ff168160a0015160ff16105b1561187c5760018160a0018181516117c191906145d2565b91509060ff16908160ff1681525050601260008260a0015160ff16815260200190815260200160002080546117f590613d4f565b80601f016020809104026020016040519081016040528092919081815260200182805461182190613d4f565b801561186e5780601f106118435761010080835404028352916020019161186e565b820191906000526020600020905b81548152906001019060200180831161185157829003601f168201915b505050505081602001819052505b505050565b61189261188c611e02565b83611f41565b6118d1576040517f08c379a00000000000000000000000000000000000000000000000000000000081526004016118c8906143e3565b60405180910390fd5b6118dd848484846127cc565b50505050565b60606118ee82611db7565b600060066000848152602001908152602001600020805461190e90613d4f565b80601f016020809104026020016040519081016040528092919081815260200182805461193a90613d4f565b80156119875780601f1061195c57610100808354040283529160200191611987565b820191906000526020600020905b81548152906001019060200180831161196a57829003601f168201915b505050505090506000611998612828565b905060008151036119ad5781925050506119f0565b6000825111156119e25780826040516020016119ca929190614706565b604051602081830303815290604052925050506119f0565b6119eb8461283f565b925050505b919050565b6119fd613089565b6009604051806101200160405290816000820160009054906101000a900473ffffffffffffffffffffffffffffffffffffffff1673ffffffffffffffffffffffffffffffffffffffff1673ffffffffffffffffffffffffffffffffffffffff168152602001600182018054611a7190613d4f565b80601f0160208091040260200160405190810160405280929190818152602001828054611a9d90613d4f565b8015611aea5780601f10611abf57610100808354040283529160200191611aea565b820191906000526020600020905b815481529060010190602001808311611acd57829003601f168201915b50505050508152602001600282015481526020016003820154815260200160048201548152602001600582015481526020016006820154815260200160078201548152602001600882015481525050905090565b6000600560008473ffffffffffffffffffffffffffffffffffffffff1673ffffffffffffffffffffffffffffffffffffffff16815260200190815260200160002060008373ffffffffffffffffffffffffffffffffffffffff1673ffffffffffffffffffffffffffffffffffffffff16815260200190815260200160002060009054906101000a900460ff16905092915050565b60008060096008015411905090565b6000611bed60086122cf565b905090565b8173ffffffffffffffffffffffffffffffffffffffff16611c1284610dec565b73ffffffffffffffffffffffffffffffffffffffff1614611c3257600080fd5b6000611c3d8461128c565b90508181608001516000018190525050505050565b611c5a611ec3565b600073ffffffffffffffffffffffffffffffffffffffff168173ffffffffffffffffffffffffffffffffffffffff1603611cc9576040517f08c379a0000000000000000000000000000000000000000000000000000000008152600401611cc09061479c565b60405180910390fd5b611cd28161259a565b50565b60007f80ac58cd000000000000000000000000000000000000000000000000000000007bffffffffffffffffffffffffffffffffffffffffffffffffffffffff1916827bffffffffffffffffffffffffffffffffffffffffffffffffffffffff19161480611da057507f5b5e139f000000000000000000000000000000000000000000000000000000007bffffffffffffffffffffffffffffffffffffffffffffffffffffffff1916827bffffffffffffffffffffffffffffffffffffffffffffffffffffffff1916145b80611db05750611daf826128a7565b5b9050919050565b611dc081612911565b611dff576040517f08c379a0000000000000000000000000000000000000000000000000000000008152600401611df6906145b2565b60405180910390fd5b50565b600033905090565b816004600083815260200190815260200160002060006101000a81548173ffffffffffffffffffffffffffffffffffffffff021916908373ffffffffffffffffffffffffffffffffffffffff160217905550808273ffffffffffffffffffffffffffffffffffffffff16611e7d83610dec565b73ffffffffffffffffffffffffffffffffffffffff167f8c5be1e5ebec7d5bd14f71427d1e84f3dd0314c0f7b2291e5b200ac8c7c3b92560405160405180910390a45050565b611ecb611e02565b73ffffffffffffffffffffffffffffffffffffffff16611ee9611108565b73ffffffffffffffffffffffffffffffffffffffff1614611f3f576040517f08c379a0000000000000000000000000000000000000000000000000000000008152600401611f3690614808565b60405180910390fd5b565b600080611f4d83610dec565b90508073ffffffffffffffffffffffffffffffffffffffff168473ffffffffffffffffffffffffffffffffffffffff161480611f8f5750611f8e8185611b3e565b5b80611fcd57508373ffffffffffffffffffffffffffffffffffffffff16611fb58461080e565b73ffffffffffffffffffffffffffffffffffffffff16145b91505092915050565b8273ffffffffffffffffffffffffffffffffffffffff16611ff682610dec565b73ffffffffffffffffffffffffffffffffffffffff161461204c576040517f08c379a00000000000000000000000000000000000000000000000000000000081526004016120439061489a565b60405180910390fd5b600073ffffffffffffffffffffffffffffffffffffffff168273ffffffffffffffffffffffffffffffffffffffff16036120bb576040517f08c379a00000000000000000000000000000000000000000000000000000000081526004016120b29061492c565b60405180910390fd5b6120c88383836001612952565b8273ffffffffffffffffffffffffffffffffffffffff166120e882610dec565b73ffffffffffffffffffffffffffffffffffffffff161461213e576040517f08c379a00000000000000000000000000000000000000000000000000000000081526004016121359061489a565b60405180910390fd5b6004600082815260200190815260200160002060006101000a81549073ffffffffffffffffffffffffffffffffffffffff02191690556001600360008573ffffffffffffffffffffffffffffffffffffffff1673ffffffffffffffffffffffffffffffffffffffff168152602001908152602001600020600082825403925050819055506001600360008473ffffffffffffffffffffffffffffffffffffffff1673ffffffffffffffffffffffffffffffffffffffff16815260200190815260200160002060008282540192505081905550816002600083815260200190815260200160002060006101000a81548173ffffffffffffffffffffffffffffffffffffffff021916908373ffffffffffffffffffffffffffffffffffffffff160217905550808273ffffffffffffffffffffffffffffffffffffffff168473ffffffffffffffffffffffffffffffffffffffff167fddf252ad1be2c89b69c2b068fc378daa952ba7f163c4a11628f55a4df523b3ef60405160405180910390a46122ca8383836001612958565b505050565b600081600001549050919050565b6001816000016000828254019250508190555050565b61230d82826040518060200160405280600081525061295e565b5050565b6040518060c0016040528084815260200160405180602001604052806000815250815260200142815260200183815260200161234c856129b9565b81526020018273ffffffffffffffffffffffffffffffffffffffff168152506014600085815260200190815260200160002060008201518160000155602082015181600101908161239d9190614050565b50604082015181600201556060820151816003015560808201518160040160008201518160000190816123d09190614050565b5060208201518160010190816123e69190614050565b5060408201518160020160006101000a81548160ff021916908360ff16021790555060608201518160020160016101000a81548160ff021916908360ff16021790555060808201518160020160026101000a81548160ff021916908360ff16021790555060a08201518160020160036101000a81548160ff021916908360ff160217905550505060a08201518160070160006101000a81548173ffffffffffffffffffffffffffffffffffffffff021916908373ffffffffffffffffffffffffffffffffffffffff160217905550905050601560008273ffffffffffffffffffffffffffffffffffffffff1673ffffffffffffffffffffffffffffffffffffffff1681526020019081526020016000208390806001815401808255809150506001900390600052602060002001600090919091909150557f42e22845cdfee2da8f8e56b8d8f9807a12fd6906d54b388fe7ec9d2329e70b3e8382846040516125509392919061494c565b60405180910390a1505050565b60006002600083815260200190815260200160002060009054906101000a900473ffffffffffffffffffffffffffffffffffffffff169050919050565b6000600760009054906101000a900473ffffffffffffffffffffffffffffffffffffffff16905081600760006101000a81548173ffffffffffffffffffffffffffffffffffffffff021916908373ffffffffffffffffffffffffffffffffffffffff1602179055508173ffffffffffffffffffffffffffffffffffffffff168173ffffffffffffffffffffffffffffffffffffffff167f8be0079c531659141344cd1fd0a4f28419497f9722a3daafe3b4186f6b6457e060405160405180910390a35050565b8173ffffffffffffffffffffffffffffffffffffffff168373ffffffffffffffffffffffffffffffffffffffff16036126ce576040517f08c379a00000000000000000000000000000000000000000000000000000000081526004016126c5906149cf565b60405180910390fd5b80600560008573ffffffffffffffffffffffffffffffffffffffff1673ffffffffffffffffffffffffffffffffffffffff16815260200190815260200160002060008473ffffffffffffffffffffffffffffffffffffffff1673ffffffffffffffffffffffffffffffffffffffff16815260200190815260200160002060006101000a81548160ff0219169083151502179055508173ffffffffffffffffffffffffffffffffffffffff168373ffffffffffffffffffffffffffffffffffffffff167f17307eab39ab6107e8899845ad3d59bd9653f200f220920489ca2b5937696c31836040516127bf91906131e1565b60405180910390a3505050565b6127d7848484611fd6565b6127e384848484612a4f565b612822576040517f08c379a000000000000000000000000000000000000000000000000000000000815260040161281990614a61565b60405180910390fd5b50505050565b606060405180602001604052806000815250905090565b606061284a82611db7565b6000612854612828565b90506000815111612874576040518060200160405280600081525061289f565b8061287e84612bd6565b60405160200161288f929190614706565b6040516020818303038152906040525b915050919050565b60007f01ffc9a7000000000000000000000000000000000000000000000000000000007bffffffffffffffffffffffffffffffffffffffffffffffffffffffff1916827bffffffffffffffffffffffffffffffffffffffffffffffffffffffff1916149050919050565b60008073ffffffffffffffffffffffffffffffffffffffff166129338361255d565b73ffffffffffffffffffffffffffffffffffffffff1614159050919050565b50505050565b50505050565b6129688383612ca4565b6129756000848484612a4f565b6129b4576040517f08c379a00000000000000000000000000000000000000000000000000000000081526004016129ab90614a61565b60405180910390fd5b505050565b6129c16130eb565b6040518060c00160405280604051806020016040528060008152508152602001601260008081526020019081526020016000206129fd85612bd6565b604051602001612a0e929190614b04565b6040516020818303038152906040528152602001600a60ff168152602001600a60ff168152602001600060ff168152602001600060ff168152509050919050565b6000612a708473ffffffffffffffffffffffffffffffffffffffff16612ec1565b15612bc9578373ffffffffffffffffffffffffffffffffffffffff1663150b7a02612a99611e02565b8786866040518563ffffffff1660e01b8152600401612abb9493929190614b7d565b6020604051808303816000875af1925050508015612af757506040513d601f19601f82011682018060405250810190612af49190614bde565b60015b612b79573d8060008114612b27576040519150601f19603f3d011682016040523d82523d6000602084013e612b2c565b606091505b506000815103612b71576040517f08c379a0000000000000000000000000000000000000000000000000000000008152600401612b6890614a61565b60405180910390fd5b805181602001fd5b63150b7a0260e01b7bffffffffffffffffffffffffffffffffffffffffffffffffffffffff1916817bffffffffffffffffffffffffffffffffffffffffffffffffffffffff191614915050612bce565b600190505b949350505050565b606060006001612be584612ee4565b01905060008167ffffffffffffffff811115612c0457612c0361341c565b5b6040519080825280601f01601f191660200182016040528015612c365781602001600182028036833780820191505090505b509050600082602001820190505b600115612c99578080600190039150507f3031323334353637383961626364656600000000000000000000000000000000600a86061a8153600a8581612c8d57612c8c614311565b5b04945060008503612c44575b819350505050919050565b600073ffffffffffffffffffffffffffffffffffffffff168273ffffffffffffffffffffffffffffffffffffffff1603612d13576040517f08c379a0000000000000000000000000000000000000000000000000000000008152600401612d0a90614c57565b60405180910390fd5b612d1c81612911565b15612d5c576040517f08c379a0000000000000000000000000000000000000000000000000000000008152600401612d5390614cc3565b60405180910390fd5b612d6a600083836001612952565b612d7381612911565b15612db3576040517f08c379a0000000000000000000000000000000000000000000000000000000008152600401612daa90614cc3565b60405180910390fd5b6001600360008473ffffffffffffffffffffffffffffffffffffffff1673ffffffffffffffffffffffffffffffffffffffff16815260200190815260200160002060008282540192505081905550816002600083815260200190815260200160002060006101000a81548173ffffffffffffffffffffffffffffffffffffffff021916908373ffffffffffffffffffffffffffffffffffffffff160217905550808273ffffffffffffffffffffffffffffffffffffffff16600073ffffffffffffffffffffffffffffffffffffffff167fddf252ad1be2c89b69c2b068fc378daa952ba7f163c4a11628f55a4df523b3ef60405160405180910390a4612ebd600083836001612958565b5050565b6000808273ffffffffffffffffffffffffffffffffffffffff163b119050919050565b600080600090507a184f03e93ff9f4daa797ed6e38ed64bf6a1f0100000000000000008310612f42577a184f03e93ff9f4daa797ed6e38ed64bf6a1f0100000000000000008381612f3857612f37614311565b5b0492506040810190505b6d04ee2d6d415b85acef81000000008310612f7f576d04ee2d6d415b85acef81000000008381612f7557612f74614311565b5b0492506020810190505b662386f26fc100008310612fae57662386f26fc100008381612fa457612fa3614311565b5b0492506010810190505b6305f5e1008310612fd7576305f5e1008381612fcd57612fcc614311565b5b0492506008810190505b6127108310612ffc576127108381612ff257612ff1614311565b5b0492506004810190505b6064831061301f576064838161301557613014614311565b5b0492506002810190505b600a831061302e576001810190505b80915050919050565b6040518060c00160405280600081526020016060815260200160008152602001600081526020016130666130eb565b8152602001600073ffffffffffffffffffffffffffffffffffffffff1681525090565b604051806101200160405280600073ffffffffffffffffffffffffffffffffffffffff16815260200160608152602001600081526020016000815260200160008152602001600081526020016000815260200160008152602001600081525090565b6040518060c001604052806060815260200160608152602001600060ff168152602001600060ff168152602001600060ff168152602001600060ff1681525090565b6000604051905090565b600080fd5b600080fd5b60007fffffffff0000000000000000000000000000000000000000000000000000000082169050919050565b61317681613141565b811461318157600080fd5b50565b6000813590506131938161316d565b92915050565b6000602082840312156131af576131ae613137565b5b60006131bd84828501613184565b91505092915050565b60008115159050919050565b6131db816131c6565b82525050565b60006020820190506131f660008301846131d2565b92915050565b600081519050919050565b600082825260208201905092915050565b60005b8381101561323657808201518184015260208101905061321b565b60008484015250505050565b6000601f19601f8301169050919050565b600061325e826131fc565b6132688185613207565b9350613278818560208601613218565b61328181613242565b840191505092915050565b600060208201905081810360008301526132a68184613253565b905092915050565b6000819050919050565b6132c1816132ae565b81146132cc57600080fd5b50565b6000813590506132de816132b8565b92915050565b6000602082840312156132fa576132f9613137565b5b6000613308848285016132cf565b91505092915050565b600073ffffffffffffffffffffffffffffffffffffffff82169050919050565b600061333c82613311565b9050919050565b61334c81613331565b82525050565b60006020820190506133676000830184613343565b92915050565b61337681613331565b811461338157600080fd5b50565b6000813590506133938161336d565b92915050565b600080604083850312156133b0576133af613137565b5b60006133be85828601613384565b92505060206133cf858286016132cf565b9150509250929050565b600060ff82169050919050565b6133ef816133d9565b81146133fa57600080fd5b50565b60008135905061340c816133e6565b92915050565b600080fd5b600080fd5b7f4e487b7100000000000000000000000000000000000000000000000000000000600052604160045260246000fd5b61345482613242565b810181811067ffffffffffffffff821117156134735761347261341c565b5b80604052505050565b600061348661312d565b9050613492828261344b565b919050565b600067ffffffffffffffff8211156134b2576134b161341c565b5b6134bb82613242565b9050602081019050919050565b82818337600083830152505050565b60006134ea6134e584613497565b61347c565b90508281526020810184848401111561350657613505613417565b5b6135118482856134c8565b509392505050565b600082601f83011261352e5761352d613412565b5b813561353e8482602086016134d7565b91505092915050565b6000806040838503121561355e5761355d613137565b5b600061356c858286016133fd565b925050602083013567ffffffffffffffff81111561358d5761358c61313c565b5b61359985828601613519565b9150509250929050565b6135ac816132ae565b82525050565b60006020820190506135c760008301846135a3565b92915050565b6000806000606084860312156135e6576135e5613137565b5b60006135f486828701613384565b935050602061360586828701613384565b9250506040613616868287016132cf565b9150509250925092565b613629816133d9565b82525050565b60006040820190506136446000830185613620565b81810360208301526136568184613253565b90509392505050565b60006020828403121561367557613674613137565b5b600082013567ffffffffffffffff8111156136935761369261313c565b5b61369f84828501613519565b91505092915050565b600080604083850312156136bf576136be613137565b5b60006136cd858286016132cf565b92505060206136de858286016133fd565b9150509250929050565b60006020820190506136fd6000830184613620565b92915050565b60006020828403121561371957613718613137565b5b600061372784828501613384565b91505092915050565b600081519050919050565b600082825260208201905092915050565b6000819050602082019050919050565b613765816132ae565b82525050565b6000613777838361375c565b60208301905092915050565b6000602082019050919050565b600061379b82613730565b6137a5818561373b565b93506137b08361374c565b8060005b838110156137e15781516137c8888261376b565b97506137d383613783565b9250506001810190506137b4565b5085935050505092915050565b600060208201905081810360008301526138088184613790565b905092915050565b613819816131c6565b811461382457600080fd5b50565b60008135905061383681613810565b92915050565b6000806040838503121561385357613852613137565b5b600061386185828601613384565b925050602061387285828601613827565b9150509250929050565b600082825260208201905092915050565b6000613898826131fc565b6138a2818561387c565b93506138b2818560208601613218565b6138bb81613242565b840191505092915050565b6138cf816133d9565b82525050565b600060c08301600083015184820360008601526138f2828261388d565b9150506020830151848203602086015261390c828261388d565b915050604083015161392160408601826138c6565b50606083015161393460608601826138c6565b50608083015161394760808601826138c6565b5060a083015161395a60a08601826138c6565b508091505092915050565b61396e81613331565b82525050565b600060c08301600083015161398c600086018261375c565b50602083015184820360208601526139a4828261388d565b91505060408301516139b9604086018261375c565b5060608301516139cc606086018261375c565b50608083015184820360808601526139e482826138d5565b91505060a08301516139f960a0860182613965565b508091505092915050565b60006020820190508181036000830152613a1e8184613974565b905092915050565b60008060408385031215613a3d57613a3c613137565b5b6000613a4b858286016132cf565b9250506020613a5c85828601613384565b9150509250929050565b600067ffffffffffffffff821115613a8157613a8061341c565b5b613a8a82613242565b9050602081019050919050565b6000613aaa613aa584613a66565b61347c565b905082815260208101848484011115613ac657613ac5613417565b5b613ad18482856134c8565b509392505050565b600082601f830112613aee57613aed613412565b5b8135613afe848260208601613a97565b91505092915050565b60008060008060808587031215613b2157613b20613137565b5b6000613b2f87828801613384565b9450506020613b4087828801613384565b9350506040613b51878288016132cf565b925050606085013567ffffffffffffffff811115613b7257613b7161313c565b5b613b7e87828801613ad9565b91505092959194509250565b600061012083016000830151613ba36000860182613965565b5060208301518482036020860152613bbb828261388d565b9150506040830151613bd0604086018261375c565b506060830151613be3606086018261375c565b506080830151613bf6608086018261375c565b5060a0830151613c0960a086018261375c565b5060c0830151613c1c60c086018261375c565b5060e0830151613c2f60e086018261375c565b50610100830151613c4461010086018261375c565b508091505092915050565b60006020820190508181036000830152613c698184613b8a565b905092915050565b60008060408385031215613c8857613c87613137565b5b6000613c9685828601613384565b9250506020613ca785828601613384565b9150509250929050565b600080600060608486031215613cca57613cc9613137565b5b6000613cd8868287016132cf565b9350506020613ce986828701613384565b925050604084013567ffffffffffffffff811115613d0a57613d0961313c565b5b613d1686828701613519565b9150509250925092565b7f4e487b7100000000000000000000000000000000000000000000000000000000600052602260045260246000fd5b60006002820490506001821680613d6757607f821691505b602082108103613d7a57613d79613d20565b5b50919050565b7f4552433732313a20617070726f76616c20746f2063757272656e74206f776e6560008201527f7200000000000000000000000000000000000000000000000000000000000000602082015250565b6000613ddc602183613207565b9150613de782613d80565b604082019050919050565b60006020820190508181036000830152613e0b81613dcf565b9050919050565b7f4552433732313a20617070726f76652063616c6c6572206973206e6f7420746f60008201527f6b656e206f776e6572206f7220617070726f76656420666f7220616c6c000000602082015250565b6000613e6e603d83613207565b9150613e7982613e12565b604082019050919050565b60006020820190508181036000830152613e9d81613e61565b9050919050565b60008190508160005260206000209050919050565b60006020601f8301049050919050565b600082821b905092915050565b600060088302613f067fffffffffffffffffffffffffffffffffffffffffffffffffffffffffffffffff82613ec9565b613f108683613ec9565b95508019841693508086168417925050509392505050565b6000819050919050565b6000613f4d613f48613f43846132ae565b613f28565b6132ae565b9050919050565b6000819050919050565b613f6783613f32565b613f7b613f7382613f54565b848454613ed6565b825550505050565b600090565b613f90613f83565b613f9b818484613f5e565b505050565b5b81811015613fbf57613fb4600082613f88565b600181019050613fa1565b5050565b601f82111561400457613fd581613ea4565b613fde84613eb9565b81016020851015613fed578190505b614001613ff985613eb9565b830182613fa0565b50505b505050565b600082821c905092915050565b600061402760001984600802614009565b1980831691505092915050565b60006140408383614016565b9150826002028217905092915050565b614059826131fc565b67ffffffffffffffff8111156140725761407161341c565b5b61407c8254613d4f565b614087828285613fc3565b600060209050601f8311600181146140ba57600084156140a8578287015190505b6140b28582614034565b86555061411a565b601f1984166140c886613ea4565b60005b828110156140f0578489015182556001820191506020850194506020810190506140cb565b8683101561410d5784890151614109601f891682614016565b8355505b6001600288020188555050505b505050505050565b7f4e487b7100000000000000000000000000000000000000000000000000000000600052601160045260246000fd5b60008160011c9050919050565b6000808291508390505b60018511156141a85780860481111561418457614183614122565b5b60018516156141935780820291505b80810290506141a185614151565b9450614168565b94509492505050565b6000826141c1576001905061427d565b816141cf576000905061427d565b81600181146141e557600281146141ef5761421e565b600191505061427d565b60ff84111561420157614200614122565b5b8360020a91508482111561421857614217614122565b5b5061427d565b5060208310610133831016604e8410600b84101617156142535782820a90508381111561424e5761424d614122565b5b61427d565b614260848484600161415e565b9250905081840481111561427757614276614122565b5b81810290505b9392505050565b600061428f826132ae565b915061429a836132ae565b92506142c77fffffffffffffffffffffffffffffffffffffffffffffffffffffffffffffffff84846141b1565b905092915050565b60006142da826132ae565b91506142e5836132ae565b92508282026142f3816132ae565b9150828204841483151761430a57614309614122565b5b5092915050565b7f4e487b7100000000000000000000000000000000000000000000000000000000600052601260045260246000fd5b600061434b826132ae565b9150614356836132ae565b92508261436657614365614311565b5b828204905092915050565b7f4552433732313a2063616c6c6572206973206e6f7420746f6b656e206f776e6560008201527f72206f7220617070726f76656400000000000000000000000000000000000000602082015250565b60006143cd602d83613207565b91506143d882614371565b604082019050919050565b600060208201905081810360008301526143fc816143c0565b9050919050565b600061440e826132ae565b9150614419836132ae565b925082820390508181111561443157614430614122565b5b92915050565b6000614442826132ae565b915061444d836132ae565b92508261445d5761445c614311565b5b828206905092915050565b7f507269636520697320746f6f206c6f7720666f72206d696e7400000000000000600082015250565b600061449e601983613207565b91506144a982614468565b602082019050919050565b600060208201905081810360008301526144cd81614491565b9050919050565b7f4e6f206d6f726520617661696c61626c65206e66747320746f2070757263686160008201527f7365000000000000000000000000000000000000000000000000000000000000602082015250565b6000614530602283613207565b915061453b826144d4565b604082019050919050565b6000602082019050818103600083015261455f81614523565b9050919050565b7f4552433732313a20696e76616c696420746f6b656e2049440000000000000000600082015250565b600061459c601883613207565b91506145a782614566565b602082019050919050565b600060208201905081810360008301526145cb8161458f565b9050919050565b60006145dd826133d9565b91506145e8836133d9565b9250828201905060ff81111561460157614600614122565b5b92915050565b7f4552433732313a2061646472657373207a65726f206973206e6f74206120766160008201527f6c6964206f776e65720000000000000000000000000000000000000000000000602082015250565b6000614663602983613207565b915061466e82614607565b604082019050919050565b6000602082019050818103600083015261469281614656565b9050919050565b60006146a4826133d9565b91506146af836133d9565b9250826146bf576146be614311565b5b828204905092915050565b600081905092915050565b60006146e0826131fc565b6146ea81856146ca565b93506146fa818560208601613218565b80840191505092915050565b600061471282856146d5565b915061471e82846146d5565b91508190509392505050565b7f4f776e61626c653a206e6577206f776e657220697320746865207a65726f206160008201527f6464726573730000000000000000000000000000000000000000000000000000602082015250565b6000614786602683613207565b91506147918261472a565b604082019050919050565b600060208201905081810360008301526147b581614779565b9050919050565b7f4f776e61626c653a2063616c6c6572206973206e6f7420746865206f776e6572600082015250565b60006147f2602083613207565b91506147fd826147bc565b602082019050919050565b60006020820190508181036000830152614821816147e5565b9050919050565b7f4552433732313a207472616e736665722066726f6d20696e636f72726563742060008201527f6f776e6572000000000000000000000000000000000000000000000000000000602082015250565b6000614884602583613207565b915061488f82614828565b604082019050919050565b600060208201905081810360008301526148b381614877565b9050919050565b7f4552433732313a207472616e7366657220746f20746865207a65726f2061646460008201527f7265737300000000000000000000000000000000000000000000000000000000602082015250565b6000614916602483613207565b9150614921826148ba565b604082019050919050565b6000602082019050818103600083015261494581614909565b9050919050565b600060608201905061496160008301866135a3565b61496e6020830185613343565b61497b60408301846135a3565b949350505050565b7f4552433732313a20617070726f766520746f2063616c6c657200000000000000600082015250565b60006149b9601983613207565b91506149c482614983565b602082019050919050565b600060208201905081810360008301526149e8816149ac565b9050919050565b7f4552433732313a207472616e7366657220746f206e6f6e20455243373231526560008201527f63656976657220696d706c656d656e7465720000000000000000000000000000602082015250565b6000614a4b603283613207565b9150614a56826149ef565b604082019050919050565b60006020820190508181036000830152614a7a81614a3e565b9050919050565b60008154614a8e81613d4f565b614a9881866146ca565b94506001821660008114614ab35760018114614ac857614afb565b60ff1983168652811515820286019350614afb565b614ad185613ea4565b60005b83811015614af357815481890152600182019150602081019050614ad4565b838801955050505b50505092915050565b6000614b108285614a81565b9150614b1c82846146d5565b91508190509392505050565b600081519050919050565b600082825260208201905092915050565b6000614b4f82614b28565b614b598185614b33565b9350614b69818560208601613218565b614b7281613242565b840191505092915050565b6000608082019050614b926000830187613343565b614b9f6020830186613343565b614bac60408301856135a3565b8181036060830152614bbe8184614b44565b905095945050505050565b600081519050614bd88161316d565b92915050565b600060208284031215614bf457614bf3613137565b5b6000614c0284828501614bc9565b91505092915050565b7f4552433732313a206d696e7420746f20746865207a65726f2061646472657373600082015250565b6000614c41602083613207565b9150614c4c82614c0b565b602082019050919050565b60006020820190508181036000830152614c7081614c34565b9050919050565b7f4552433732313a20746f6b656e20616c7265616479206d696e74656400000000600082015250565b6000614cad601c83613207565b9150614cb882614c77565b602082019050919050565b60006020820190508181036000830152614cdc81614ca0565b905091905056fea2646970667358221220065b36c0795f57c92da5bbf2697410f43950968f9193aa542ab01bcd084ea10c64736f6c63430008120033516d53647963456a585a4d50373441586b535074486e3465373850684e4c394141615a697165704b505542334e63516d56685759355658734a767074385251716331387979534846636636745a3570717a56664e3770343334786671516d5666576b796846694d6861374435416464525038464d543179765a7947435a7352397057317438314158676d",
  "linkReferences": {},
  "deployedLinkReferences": {}
}