{
  "_format": "hh-sol-artifact-1",
  "contractName": "EAvatar",
  "sourceName": "contracts/EAvatar.sol",
  "abi": [
    {
      "inputs": [
        {
          "internalType": "address",
          "name": "bond_issuer",
          "type": "address"
        }
      ],
      "stateMutability": "nonpayable",
      "type": "constructor"
    },
    {
      "anonymous": false,
      "inputs": [
        {
          "indexed": true,
          "internalType": "address",
          "name": "owner",
          "type": "address"
        },
        {
          "indexed": true,
          "internalType": "address",
          "name": "approved",
          "type": "address"
        },
        {
          "indexed": true,
          "internalType": "uint256",
          "name": "tokenId",
          "type": "uint256"
        }
      ],
      "name": "Approval",
      "type": "event"
    },
    {
      "anonymous": false,
      "inputs": [
        {
          "indexed": true,
          "internalType": "address",
          "name": "owner",
          "type": "address"
        },
        {
          "indexed": true,
          "internalType": "address",
          "name": "operator",
          "type": "address"
        },
        {
          "indexed": false,
          "internalType": "bool",
          "name": "approved",
          "type": "bool"
        }
      ],
      "name": "ApprovalForAll",
      "type": "event"
    },
    {
      "anonymous": false,
      "inputs": [
        {
          "indexed": false,
          "internalType": "uint256",
          "name": "_fromTokenId",
          "type": "uint256"
        },
        {
          "indexed": false,
          "internalType": "uint256",
          "name": "_toTokenId",
          "type": "uint256"
        }
      ],
      "name": "BatchMetadataUpdate",
      "type": "event"
    },
    {
      "anonymous": false,
      "inputs": [
        {
          "indexed": false,
          "internalType": "uint256",
          "name": "_tokenId",
          "type": "uint256"
        }
      ],
      "name": "MetadataUpdate",
      "type": "event"
    },
    {
      "anonymous": false,
      "inputs": [
        {
          "indexed": false,
          "internalType": "address",
          "name": "from",
          "type": "address"
        },
        {
          "indexed": false,
          "internalType": "address",
          "name": "to",
          "type": "address"
        },
        {
          "indexed": false,
          "internalType": "uint256",
          "name": "_amount",
          "type": "uint256"
        }
      ],
      "name": "NftBought",
      "type": "event"
    },
    {
      "anonymous": false,
      "inputs": [
        {
          "indexed": true,
          "internalType": "address",
          "name": "previousOwner",
          "type": "address"
        },
        {
          "indexed": true,
          "internalType": "address",
          "name": "newOwner",
          "type": "address"
        }
      ],
      "name": "OwnershipTransferred",
      "type": "event"
    },
    {
      "anonymous": false,
      "inputs": [
        {
          "indexed": true,
          "internalType": "address",
          "name": "from",
          "type": "address"
        },
        {
          "indexed": true,
          "internalType": "address",
          "name": "to",
          "type": "address"
        },
        {
          "indexed": true,
          "internalType": "uint256",
          "name": "tokenId",
          "type": "uint256"
        }
      ],
      "name": "Transfer",
      "type": "event"
    },
    {
      "anonymous": false,
      "inputs": [
        {
          "indexed": false,
          "internalType": "uint256",
          "name": "tokenId",
          "type": "uint256"
        },
        {
          "indexed": false,
          "internalType": "address",
          "name": "owner",
          "type": "address"
        },
        {
          "indexed": false,
          "internalType": "uint256",
          "name": "price",
          "type": "uint256"
        }
      ],
      "name": "nftItemCreated",
      "type": "event"
    },
    {
      "inputs": [
        {
          "internalType": "address",
          "name": "to",
          "type": "address"
        },
        {
          "internalType": "uint256",
          "name": "tokenId",
          "type": "uint256"
        }
      ],
      "name": "approve",
      "outputs": [],
      "stateMutability": "nonpayable",
      "type": "function"
    },
    {
      "inputs": [],
      "name": "availableNFTs",
      "outputs": [
        {
          "internalType": "bool",
          "name": "ans",
          "type": "bool"
        }
      ],
      "stateMutability": "view",
      "type": "function"
    },
    {
      "inputs": [
        {
          "internalType": "address",
          "name": "owner",
          "type": "address"
        }
      ],
      "name": "balanceOf",
      "outputs": [
        {
          "internalType": "uint256",
          "name": "",
          "type": "uint256"
        }
      ],
      "stateMutability": "view",
      "type": "function"
    },
    {
      "inputs": [],
      "name": "calculateAccruedInterest",
      "outputs": [
        {
          "internalType": "uint256",
          "name": "",
          "type": "uint256"
        }
      ],
      "stateMutability": "view",
      "type": "function"
    },
    {
      "inputs": [
        {
          "internalType": "uint256",
          "name": "tokenId",
          "type": "uint256"
        }
      ],
      "name": "getApproved",
      "outputs": [
        {
          "internalType": "address",
          "name": "",
          "type": "address"
        }
      ],
      "stateMutability": "view",
      "type": "function"
    },
    {
      "inputs": [],
      "name": "getBondInfo",
      "outputs": [
        {
          "components": [
            {
              "internalType": "address",
              "name": "bondIssuer",
              "type": "address"
            },
            {
              "internalType": "string",
              "name": "bondName",
              "type": "string"
            },
            {
              "internalType": "uint256",
              "name": "issueDate",
              "type": "uint256"
            },
            {
              "internalType": "uint256",
              "name": "maturityDate",
              "type": "uint256"
            },
            {
              "internalType": "uint256",
              "name": "interestPaymentPercent",
              "type": "uint256"
            },
            {
              "internalType": "uint256",
              "name": "periodOfPayment",
              "type": "uint256"
            },
            {
              "internalType": "uint256",
              "name": "faceValue",
              "type": "uint256"
            },
            {
              "internalType": "uint256",
              "name": "shift",
              "type": "uint256"
            },
            {
              "internalType": "uint256",
              "name": "supply",
              "type": "uint256"
            }
          ],
          "internalType": "struct EAvatar.EBond",
          "name": "bond",
          "type": "tuple"
        }
      ],
      "stateMutability": "view",
      "type": "function"
    },
    {
      "inputs": [],
      "name": "getIssuer",
      "outputs": [
        {
          "internalType": "address",
          "name": "issuer",
          "type": "address"
        }
      ],
      "stateMutability": "view",
      "type": "function"
    },
    {
      "inputs": [
        {
          "internalType": "uint256",
          "name": "tokenId",
          "type": "uint256"
        }
      ],
      "name": "getMetadata",
      "outputs": [
        {
          "components": [
            {
              "internalType": "uint256",
              "name": "tokenId",
              "type": "uint256"
            },
            {
              "internalType": "uint256",
              "name": "mintedAt",
              "type": "uint256"
            },
            {
              "internalType": "uint256",
              "name": "listing_price",
              "type": "uint256"
            },
            {
              "internalType": "address",
              "name": "ownerId",
              "type": "address"
            }
          ],
          "internalType": "struct EAvatar.EMetadata",
          "name": "item",
          "type": "tuple"
        }
      ],
      "stateMutability": "view",
      "type": "function"
    },
    {
      "inputs": [],
      "name": "interestPaymentAmount",
      "outputs": [
        {
          "internalType": "uint256",
          "name": "amount",
          "type": "uint256"
        }
      ],
      "stateMutability": "view",
      "type": "function"
    },
    {
      "inputs": [
        {
          "internalType": "address",
          "name": "owner",
          "type": "address"
        },
        {
          "internalType": "address",
          "name": "operator",
          "type": "address"
        }
      ],
      "name": "isApprovedForAll",
      "outputs": [
        {
          "internalType": "bool",
          "name": "",
          "type": "bool"
        }
      ],
      "stateMutability": "view",
      "type": "function"
    },
    {
      "inputs": [],
      "name": "isBondMatured",
      "outputs": [
        {
          "internalType": "bool",
          "name": "",
          "type": "bool"
        }
      ],
      "stateMutability": "view",
      "type": "function"
    },
    {
      "inputs": [
        {
          "internalType": "address",
          "name": "recipient",
          "type": "address"
        },
        {
          "internalType": "string",
          "name": "tokenURI",
          "type": "string"
        },
        {
          "internalType": "uint256",
          "name": "price",
          "type": "uint256"
        }
      ],
      "name": "mintNFT",
      "outputs": [
        {
          "internalType": "uint256",
          "name": "",
          "type": "uint256"
        }
      ],
      "stateMutability": "nonpayable",
      "type": "function"
    },
    {
      "inputs": [],
      "name": "name",
      "outputs": [
        {
          "internalType": "string",
          "name": "",
          "type": "string"
        }
      ],
      "stateMutability": "view",
      "type": "function"
    },
    {
      "inputs": [],
      "name": "owner",
      "outputs": [
        {
          "internalType": "address",
          "name": "",
          "type": "address"
        }
      ],
      "stateMutability": "view",
      "type": "function"
    },
    {
      "inputs": [
        {
          "internalType": "address",
          "name": "owner",
          "type": "address"
        }
      ],
      "name": "ownerCollection",
      "outputs": [
        {
          "internalType": "uint256[]",
          "name": "ids",
          "type": "uint256[]"
        }
      ],
      "stateMutability": "view",
      "type": "function"
    },
    {
      "inputs": [
        {
          "internalType": "uint256",
          "name": "tokenId",
          "type": "uint256"
        }
      ],
      "name": "ownerOf",
      "outputs": [
        {
          "internalType": "address",
          "name": "",
          "type": "address"
        }
      ],
      "stateMutability": "view",
      "type": "function"
    },
    {
      "inputs": [],
      "name": "renounceOwnership",
      "outputs": [],
      "stateMutability": "nonpayable",
      "type": "function"
    },
    {
      "inputs": [
        {
          "internalType": "address",
          "name": "from",
          "type": "address"
        },
        {
          "internalType": "address",
          "name": "to",
          "type": "address"
        },
        {
          "internalType": "uint256",
          "name": "tokenId",
          "type": "uint256"
        }
      ],
      "name": "safeTransferFrom",
      "outputs": [],
      "stateMutability": "nonpayable",
      "type": "function"
    },
    {
      "inputs": [
        {
          "internalType": "address",
          "name": "from",
          "type": "address"
        },
        {
          "internalType": "address",
          "name": "to",
          "type": "address"
        },
        {
          "internalType": "uint256",
          "name": "tokenId",
          "type": "uint256"
        },
        {
          "internalType": "bytes",
          "name": "data",
          "type": "bytes"
        }
      ],
      "name": "safeTransferFrom",
      "outputs": [],
      "stateMutability": "nonpayable",
      "type": "function"
    },
    {
      "inputs": [
        {
          "internalType": "address",
          "name": "operator",
          "type": "address"
        },
        {
          "internalType": "bool",
          "name": "approved",
          "type": "bool"
        }
      ],
      "name": "setApprovalForAll",
      "outputs": [],
      "stateMutability": "nonpayable",
      "type": "function"
    },
    {
      "inputs": [
        {
          "internalType": "string",
          "name": "baseUri",
          "type": "string"
        }
      ],
      "name": "setBaseURI",
      "outputs": [],
      "stateMutability": "nonpayable",
      "type": "function"
    },
    {
      "inputs": [
        {
          "internalType": "bytes4",
          "name": "interfaceId",
          "type": "bytes4"
        }
      ],
      "name": "supportsInterface",
      "outputs": [
        {
          "internalType": "bool",
          "name": "",
          "type": "bool"
        }
      ],
      "stateMutability": "view",
      "type": "function"
    },
    {
      "inputs": [],
      "name": "symbol",
      "outputs": [
        {
          "internalType": "string",
          "name": "",
          "type": "string"
        }
      ],
      "stateMutability": "view",
      "type": "function"
    },
    {
      "inputs": [
        {
          "internalType": "uint256",
          "name": "tokenId",
          "type": "uint256"
        }
      ],
      "name": "tokenURI",
      "outputs": [
        {
          "internalType": "string",
          "name": "",
          "type": "string"
        }
      ],
      "stateMutability": "view",
      "type": "function"
    },
    {
      "inputs": [
        {
          "internalType": "address",
          "name": "from",
          "type": "address"
        },
        {
          "internalType": "address",
          "name": "to",
          "type": "address"
        },
        {
          "internalType": "uint256",
          "name": "tokenId",
          "type": "uint256"
        }
      ],
      "name": "transferFrom",
      "outputs": [],
      "stateMutability": "nonpayable",
      "type": "function"
    },
    {
      "inputs": [
        {
          "internalType": "address payable",
          "name": "from",
          "type": "address"
        },
        {
          "internalType": "address payable",
          "name": "to",
          "type": "address"
        },
        {
          "internalType": "uint256",
          "name": "_amount",
          "type": "uint256"
        },
        {
          "internalType": "uint256",
          "name": "tokenId",
          "type": "uint256"
        }
      ],
      "name": "transferNFT",
      "outputs": [],
      "stateMutability": "payable",
      "type": "function"
    },
    {
      "inputs": [
        {
          "internalType": "address",
          "name": "newOwner",
          "type": "address"
        }
      ],
      "name": "transferOwnership",
      "outputs": [],
      "stateMutability": "nonpayable",
      "type": "function"
    }
  ],
  "bytecode": "0x60806040523480156200001157600080fd5b50604051620048053803806200480583398181016040528101906200003791906200036c565b6040518060400160405280600781526020017f45417661746172000000000000000000000000000000000000000000000000008152506040518060400160405280600281526020017f45410000000000000000000000000000000000000000000000000000000000008152508160009081620000b4919062000618565b508060019081620000c6919062000618565b505050620000e9620000dd6200023460201b60201c565b6200023c60201b60201c565b6040518061012001604052808273ffffffffffffffffffffffffffffffffffffffff1681526020016040518060400160405280600a81526020017f452d426f6e64204f6e65000000000000000000000000000000000000000000008152508152602001428152602001636e71188081526020016005815260200162f0c29f8152602001620186a08152602001600281526020016103e8815250600960008201518160000160006101000a81548173ffffffffffffffffffffffffffffffffffffffff021916908373ffffffffffffffffffffffffffffffffffffffff1602179055506020820151816001019081620001e2919062000618565b5060408201518160020155606082015181600301556080820151816004015560a0820151816005015560c0820151816006015560e08201518160070155610100820151816008015590505050620006ff565b600033905090565b6000600760009054906101000a900473ffffffffffffffffffffffffffffffffffffffff16905081600760006101000a81548173ffffffffffffffffffffffffffffffffffffffff021916908373ffffffffffffffffffffffffffffffffffffffff1602179055508173ffffffffffffffffffffffffffffffffffffffff168173ffffffffffffffffffffffffffffffffffffffff167f8be0079c531659141344cd1fd0a4f28419497f9722a3daafe3b4186f6b6457e060405160405180910390a35050565b600080fd5b600073ffffffffffffffffffffffffffffffffffffffff82169050919050565b6000620003348262000307565b9050919050565b620003468162000327565b81146200035257600080fd5b50565b60008151905062000366816200033b565b92915050565b60006020828403121562000385576200038462000302565b5b6000620003958482850162000355565b91505092915050565b600081519050919050565b7f4e487b7100000000000000000000000000000000000000000000000000000000600052604160045260246000fd5b7f4e487b7100000000000000000000000000000000000000000000000000000000600052602260045260246000fd5b600060028204905060018216806200042057607f821691505b602082108103620004365762000435620003d8565b5b50919050565b60008190508160005260206000209050919050565b60006020601f8301049050919050565b600082821b905092915050565b600060088302620004a07fffffffffffffffffffffffffffffffffffffffffffffffffffffffffffffffff8262000461565b620004ac868362000461565b95508019841693508086168417925050509392505050565b6000819050919050565b6000819050919050565b6000620004f9620004f3620004ed84620004c4565b620004ce565b620004c4565b9050919050565b6000819050919050565b6200051583620004d8565b6200052d620005248262000500565b8484546200046e565b825550505050565b600090565b6200054462000535565b620005518184846200050a565b505050565b5b8181101562000579576200056d6000826200053a565b60018101905062000557565b5050565b601f821115620005c85762000592816200043c565b6200059d8462000451565b81016020851015620005ad578190505b620005c5620005bc8562000451565b83018262000556565b50505b505050565b600082821c905092915050565b6000620005ed60001984600802620005cd565b1980831691505092915050565b6000620006088383620005da565b9150826002028217905092915050565b62000623826200039e565b67ffffffffffffffff8111156200063f576200063e620003a9565b5b6200064b825462000407565b620006588282856200057d565b600060209050601f8311600181146200069057600084156200067b578287015190505b620006878582620005fa565b865550620006f7565b601f198416620006a0866200043c565b60005b82811015620006ca57848901518255600182019150602085019450602081019050620006a3565b86831015620006ea5784890151620006e6601f891682620005da565b8355505b6001600288020188555050505b505050505050565b6140f6806200070f6000396000f3fe60806040526004361061019c5760003560e01c80636352211e116100ec578063a574cea41161008a578063d5070b3e11610064578063d5070b3e146105df578063e985e9c51461060a578063ea317fff14610647578063f2fde38b146106725761019c565b8063a574cea41461053c578063b88d4fde14610579578063c87b56dd146105a25761019c565b80638da5cb5b116100c65780638da5cb5b1461048057806395d89b41146104ab5780639c50da75146104d6578063a22cb465146105135761019c565b80636352211e146103ef57806370a082311461042c578063715018a6146104695761019c565b8063095ea7b3116101595780633fb3ff11116101335780633fb3ff111461034757806342842e0e14610372578063525564211461039b57806355f804b3146103c65761019c565b8063095ea7b3146102ca5780631ed54e78146102f357806323b872dd1461031e5761019c565b806301ffc9a7146101a157806303ff52b7146101de57806305f31572146101fa57806306fdde0314610225578063081812fc1461025057806308598df01461028d575b600080fd5b3480156101ad57600080fd5b506101c860048036038101906101c3919061266e565b61069b565b6040516101d591906126b6565b60405180910390f35b6101f860048036038101906101f39190612765565b6106fc565b005b34801561020657600080fd5b5061020f61078f565b60405161021c91906126b6565b60405180910390f35b34801561023157600080fd5b5061023a61079f565b604051610247919061285c565b60405180910390f35b34801561025c57600080fd5b506102776004803603810190610272919061287e565b610831565b60405161028491906128cc565b60405180910390f35b34801561029957600080fd5b506102b460048036038101906102af9190612a48565b610877565b6040516102c19190612ac6565b60405180910390f35b3480156102d657600080fd5b506102f160048036038101906102ec9190612ae1565b610913565b005b3480156102ff57600080fd5b50610308610a2a565b6040516103159190612ac6565b60405180910390f35b34801561032a57600080fd5b5061034560048036038101906103409190612b21565b610a79565b005b34801561035357600080fd5b5061035c610ad9565b6040516103699190612ac6565b60405180910390f35b34801561037e57600080fd5b5061039960048036038101906103949190612b21565b610b3b565b005b3480156103a757600080fd5b506103b0610b5b565b6040516103bd91906128cc565b60405180910390f35b3480156103d257600080fd5b506103ed60048036038101906103e89190612bd4565b610b88565b005b3480156103fb57600080fd5b506104166004803603810190610411919061287e565b610ba6565b60405161042391906128cc565b60405180910390f35b34801561043857600080fd5b50610453600480360381019061044e9190612c21565b610c2c565b6040516104609190612ac6565b60405180910390f35b34801561047557600080fd5b5061047e610ce3565b005b34801561048c57600080fd5b50610495610cf7565b6040516104a291906128cc565b60405180910390f35b3480156104b757600080fd5b506104c0610d21565b6040516104cd919061285c565b60405180910390f35b3480156104e257600080fd5b506104fd60048036038101906104f89190612c21565b610db3565b60405161050a9190612d0c565b60405180910390f35b34801561051f57600080fd5b5061053a60048036038101906105359190612d5a565b610e4a565b005b34801561054857600080fd5b50610563600480360381019061055e919061287e565b610e60565b6040516105709190612dfe565b60405180910390f35b34801561058557600080fd5b506105a0600480360381019061059b9190612eba565b610f01565b005b3480156105ae57600080fd5b506105c960048036038101906105c4919061287e565b610f63565b6040516105d6919061285c565b60405180910390f35b3480156105eb57600080fd5b506105f4611075565b604051610601919061304c565b60405180910390f35b34801561061657600080fd5b50610631600480360381019061062c919061306e565b6111be565b60405161063e91906126b6565b60405180910390f35b34801561065357600080fd5b5061065c611252565b60405161066991906126b6565b60405180910390f35b34801561067e57600080fd5b5061069960048036038101906106949190612c21565b611261565b005b6000634906490660e01b7bffffffffffffffffffffffffffffffffffffffffffffffffffffffff1916827bffffffffffffffffffffffffffffffffffffffffffffffffffffffff191614806106f557506106f4826112e4565b5b9050919050565b610707848483610b3b565b8273ffffffffffffffffffffffffffffffffffffffff166108fc839081150290604051600060405180830381858888f1935050505015801561074d573d6000803e3d6000fd5b507f608f6ac9327c2bf4d3c77adf447d2c448ba7b0971e0aaa9aa03f7ac29d874a448433346040516107819392919061310d565b60405180910390a150505050565b6000600960030154421015905090565b6060600080546107ae90613173565b80601f01602080910402602001604051908101604052809291908181526020018280546107da90613173565b80156108275780601f106107fc57610100808354040283529160200191610827565b820191906000526020600020905b81548152906001019060200180831161080a57829003601f168201915b5050505050905090565b600061083c826113c6565b6004600083815260200190815260200160002060009054906101000a900473ffffffffffffffffffffffffffffffffffffffff169050919050565b6000610881611411565b600960080154610891600861148f565b106108d1576040517f08c379a00000000000000000000000000000000000000000000000000000000081526004016108c890613216565b60405180910390fd5b6108db600861149d565b60006108e7600861148f565b90506108f385826114b3565b6108fd81856116d0565b610908818487611774565b809150509392505050565b600061091e82610ba6565b90508073ffffffffffffffffffffffffffffffffffffffff168373ffffffffffffffffffffffffffffffffffffffff160361098e576040517f08c379a0000000000000000000000000000000000000000000000000000000008152600401610985906132a8565b60405180910390fd5b8073ffffffffffffffffffffffffffffffffffffffff166109ad6118cc565b73ffffffffffffffffffffffffffffffffffffffff1614806109dc57506109db816109d66118cc565b6111be565b5b610a1b576040517f08c379a0000000000000000000000000000000000000000000000000000000008152600401610a129061333a565b60405180910390fd5b610a2583836118d4565b505050565b6000610a3461078f565b610a7157600960070154600a610a4a91906134bc565b600960040154600960060154610a609190613507565b610a6a9190613578565b9050610a76565b600090505b90565b610a8a610a846118cc565b8261198d565b610ac9576040517f08c379a0000000000000000000000000000000000000000000000000000000008152600401610ac09061361b565b60405180910390fd5b610ad4838383611a22565b505050565b6000610ae361078f565b610b33576000610af1610a2a565b9050600060096005015460096003015442610b0c919061363b565b610b169190613578565b905060008183610b269190613507565b9050809350505050610b38565b600090505b90565b610b5683838360405180602001604052806000815250610f01565b505050565b6000600960000160009054906101000a900473ffffffffffffffffffffffffffffffffffffffff16905090565b610b90611411565b818160149182610ba192919061381c565b505050565b600080610bb283611d1b565b9050600073ffffffffffffffffffffffffffffffffffffffff168173ffffffffffffffffffffffffffffffffffffffff1603610c23576040517f08c379a0000000000000000000000000000000000000000000000000000000008152600401610c1a90613938565b60405180910390fd5b80915050919050565b60008073ffffffffffffffffffffffffffffffffffffffff168273ffffffffffffffffffffffffffffffffffffffff1603610c9c576040517f08c379a0000000000000000000000000000000000000000000000000000000008152600401610c93906139ca565b60405180910390fd5b600360008373ffffffffffffffffffffffffffffffffffffffff1673ffffffffffffffffffffffffffffffffffffffff168152602001908152602001600020549050919050565b610ceb611411565b610cf56000611d58565b565b6000600760009054906101000a900473ffffffffffffffffffffffffffffffffffffffff16905090565b606060018054610d3090613173565b80601f0160208091040260200160405190810160405280929190818152602001828054610d5c90613173565b8015610da95780601f10610d7e57610100808354040283529160200191610da9565b820191906000526020600020905b815481529060010190602001808311610d8c57829003601f168201915b5050505050905090565b6060601360008373ffffffffffffffffffffffffffffffffffffffff1673ffffffffffffffffffffffffffffffffffffffff168152602001908152602001600020805480602002602001604051908101604052809291908181526020018280548015610e3e57602002820191906000526020600020905b815481526020019060010190808311610e2a575b50505050509050919050565b610e5c610e556118cc565b8383611e1e565b5050565b610e68612562565b601260008381526020019081526020016000206040518060800160405290816000820154815260200160018201548152602001600282015481526020016003820160009054906101000a900473ffffffffffffffffffffffffffffffffffffffff1673ffffffffffffffffffffffffffffffffffffffff1673ffffffffffffffffffffffffffffffffffffffff16815250509050919050565b610f12610f0c6118cc565b8361198d565b610f51576040517f08c379a0000000000000000000000000000000000000000000000000000000008152600401610f489061361b565b60405180910390fd5b610f5d84848484611f8a565b50505050565b6060610f6e826113c6565b6000600660008481526020019081526020016000208054610f8e90613173565b80601f0160208091040260200160405190810160405280929190818152602001828054610fba90613173565b80156110075780601f10610fdc57610100808354040283529160200191611007565b820191906000526020600020905b815481529060010190602001808311610fea57829003601f168201915b505050505090506000611018611fe6565b9050600081510361102d578192505050611070565b60008251111561106257808260405160200161104a929190613a26565b60405160208183030381529060405292505050611070565b61106b84612078565b925050505b919050565b61107d6125a0565b6009604051806101200160405290816000820160009054906101000a900473ffffffffffffffffffffffffffffffffffffffff1673ffffffffffffffffffffffffffffffffffffffff1673ffffffffffffffffffffffffffffffffffffffff1681526020016001820180546110f190613173565b80601f016020809104026020016040519081016040528092919081815260200182805461111d90613173565b801561116a5780601f1061113f5761010080835404028352916020019161116a565b820191906000526020600020905b81548152906001019060200180831161114d57829003601f168201915b50505050508152602001600282015481526020016003820154815260200160048201548152602001600582015481526020016006820154815260200160078201548152602001600882015481525050905090565b6000600560008473ffffffffffffffffffffffffffffffffffffffff1673ffffffffffffffffffffffffffffffffffffffff16815260200190815260200160002060008373ffffffffffffffffffffffffffffffffffffffff1673ffffffffffffffffffffffffffffffffffffffff16815260200190815260200160002060009054906101000a900460ff16905092915050565b60008060096008015411905090565b611269611411565b600073ffffffffffffffffffffffffffffffffffffffff168173ffffffffffffffffffffffffffffffffffffffff16036112d8576040517f08c379a00000000000000000000000000000000000000000000000000000000081526004016112cf90613abc565b60405180910390fd5b6112e181611d58565b50565b60007f80ac58cd000000000000000000000000000000000000000000000000000000007bffffffffffffffffffffffffffffffffffffffffffffffffffffffff1916827bffffffffffffffffffffffffffffffffffffffffffffffffffffffff191614806113af57507f5b5e139f000000000000000000000000000000000000000000000000000000007bffffffffffffffffffffffffffffffffffffffffffffffffffffffff1916827bffffffffffffffffffffffffffffffffffffffffffffffffffffffff1916145b806113bf57506113be826120e0565b5b9050919050565b6113cf8161214a565b61140e576040517f08c379a000000000000000000000000000000000000000000000000000000000815260040161140590613938565b60405180910390fd5b50565b6114196118cc565b73ffffffffffffffffffffffffffffffffffffffff16611437610cf7565b73ffffffffffffffffffffffffffffffffffffffff161461148d576040517f08c379a000000000000000000000000000000000000000000000000000000000815260040161148490613b28565b60405180910390fd5b565b600081600001549050919050565b6001816000016000828254019250508190555050565b600073ffffffffffffffffffffffffffffffffffffffff168273ffffffffffffffffffffffffffffffffffffffff1603611522576040517f08c379a000000000000000000000000000000000000000000000000000000000815260040161151990613b94565b60405180910390fd5b61152b8161214a565b1561156b576040517f08c379a000000000000000000000000000000000000000000000000000000000815260040161156290613c00565b60405180910390fd5b61157960008383600161218b565b6115828161214a565b156115c2576040517f08c379a00000000000000000000000000000000000000000000000000000000081526004016115b990613c00565b60405180910390fd5b6001600360008473ffffffffffffffffffffffffffffffffffffffff1673ffffffffffffffffffffffffffffffffffffffff16815260200190815260200160002060008282540192505081905550816002600083815260200190815260200160002060006101000a81548173ffffffffffffffffffffffffffffffffffffffff021916908373ffffffffffffffffffffffffffffffffffffffff160217905550808273ffffffffffffffffffffffffffffffffffffffff16600073ffffffffffffffffffffffffffffffffffffffff167fddf252ad1be2c89b69c2b068fc378daa952ba7f163c4a11628f55a4df523b3ef60405160405180910390a46116cc600083836001612191565b5050565b6116d98261214a565b611718576040517f08c379a000000000000000000000000000000000000000000000000000000000815260040161170f90613c92565b60405180910390fd5b806006600084815260200190815260200160002090816117389190613cb2565b507ff8e1a15aba9398e019f0b49df1a4fde98ee17ae345cb5f6b5e2c27f5033e8ce7826040516117689190612ac6565b60405180910390a15050565b60405180608001604052808481526020014281526020018381526020018273ffffffffffffffffffffffffffffffffffffffff168152506012600085815260200190815260200160002060008201518160000155602082015181600101556040820151816002015560608201518160030160006101000a81548173ffffffffffffffffffffffffffffffffffffffff021916908373ffffffffffffffffffffffffffffffffffffffff160217905550905050601360008273ffffffffffffffffffffffffffffffffffffffff1673ffffffffffffffffffffffffffffffffffffffff1681526020019081526020016000208390806001815401808255809150506001900390600052602060002001600090919091909150557f42e22845cdfee2da8f8e56b8d8f9807a12fd6906d54b388fe7ec9d2329e70b3e8382846040516118bf93929190613d84565b60405180910390a1505050565b600033905090565b816004600083815260200190815260200160002060006101000a81548173ffffffffffffffffffffffffffffffffffffffff021916908373ffffffffffffffffffffffffffffffffffffffff160217905550808273ffffffffffffffffffffffffffffffffffffffff1661194783610ba6565b73ffffffffffffffffffffffffffffffffffffffff167f8c5be1e5ebec7d5bd14f71427d1e84f3dd0314c0f7b2291e5b200ac8c7c3b92560405160405180910390a45050565b60008061199983610ba6565b90508073ffffffffffffffffffffffffffffffffffffffff168473ffffffffffffffffffffffffffffffffffffffff1614806119db57506119da81856111be565b5b80611a1957508373ffffffffffffffffffffffffffffffffffffffff16611a0184610831565b73ffffffffffffffffffffffffffffffffffffffff16145b91505092915050565b8273ffffffffffffffffffffffffffffffffffffffff16611a4282610ba6565b73ffffffffffffffffffffffffffffffffffffffff1614611a98576040517f08c379a0000000000000000000000000000000000000000000000000000000008152600401611a8f90613e2d565b60405180910390fd5b600073ffffffffffffffffffffffffffffffffffffffff168273ffffffffffffffffffffffffffffffffffffffff1603611b07576040517f08c379a0000000000000000000000000000000000000000000000000000000008152600401611afe90613ebf565b60405180910390fd5b611b14838383600161218b565b8273ffffffffffffffffffffffffffffffffffffffff16611b3482610ba6565b73ffffffffffffffffffffffffffffffffffffffff1614611b8a576040517f08c379a0000000000000000000000000000000000000000000000000000000008152600401611b8190613e2d565b60405180910390fd5b6004600082815260200190815260200160002060006101000a81549073ffffffffffffffffffffffffffffffffffffffff02191690556001600360008573ffffffffffffffffffffffffffffffffffffffff1673ffffffffffffffffffffffffffffffffffffffff168152602001908152602001600020600082825403925050819055506001600360008473ffffffffffffffffffffffffffffffffffffffff1673ffffffffffffffffffffffffffffffffffffffff16815260200190815260200160002060008282540192505081905550816002600083815260200190815260200160002060006101000a81548173ffffffffffffffffffffffffffffffffffffffff021916908373ffffffffffffffffffffffffffffffffffffffff160217905550808273ffffffffffffffffffffffffffffffffffffffff168473ffffffffffffffffffffffffffffffffffffffff167fddf252ad1be2c89b69c2b068fc378daa952ba7f163c4a11628f55a4df523b3ef60405160405180910390a4611d168383836001612191565b505050565b60006002600083815260200190815260200160002060009054906101000a900473ffffffffffffffffffffffffffffffffffffffff169050919050565b6000600760009054906101000a900473ffffffffffffffffffffffffffffffffffffffff16905081600760006101000a81548173ffffffffffffffffffffffffffffffffffffffff021916908373ffffffffffffffffffffffffffffffffffffffff1602179055508173ffffffffffffffffffffffffffffffffffffffff168173ffffffffffffffffffffffffffffffffffffffff167f8be0079c531659141344cd1fd0a4f28419497f9722a3daafe3b4186f6b6457e060405160405180910390a35050565b8173ffffffffffffffffffffffffffffffffffffffff168373ffffffffffffffffffffffffffffffffffffffff1603611e8c576040517f08c379a0000000000000000000000000000000000000000000000000000000008152600401611e8390613f2b565b60405180910390fd5b80600560008573ffffffffffffffffffffffffffffffffffffffff1673ffffffffffffffffffffffffffffffffffffffff16815260200190815260200160002060008473ffffffffffffffffffffffffffffffffffffffff1673ffffffffffffffffffffffffffffffffffffffff16815260200190815260200160002060006101000a81548160ff0219169083151502179055508173ffffffffffffffffffffffffffffffffffffffff168373ffffffffffffffffffffffffffffffffffffffff167f17307eab39ab6107e8899845ad3d59bd9653f200f220920489ca2b5937696c3183604051611f7d91906126b6565b60405180910390a3505050565b611f95848484611a22565b611fa184848484612197565b611fe0576040517f08c379a0000000000000000000000000000000000000000000000000000000008152600401611fd790613fbd565b60405180910390fd5b50505050565b606060148054611ff590613173565b80601f016020809104026020016040519081016040528092919081815260200182805461202190613173565b801561206e5780601f106120435761010080835404028352916020019161206e565b820191906000526020600020905b81548152906001019060200180831161205157829003601f168201915b5050505050905090565b6060612083826113c6565b600061208d611fe6565b905060008151116120ad57604051806020016040528060008152506120d8565b806120b78461231e565b6040516020016120c8929190613a26565b6040516020818303038152906040525b915050919050565b60007f01ffc9a7000000000000000000000000000000000000000000000000000000007bffffffffffffffffffffffffffffffffffffffffffffffffffffffff1916827bffffffffffffffffffffffffffffffffffffffffffffffffffffffff1916149050919050565b60008073ffffffffffffffffffffffffffffffffffffffff1661216c83611d1b565b73ffffffffffffffffffffffffffffffffffffffff1614159050919050565b50505050565b50505050565b60006121b88473ffffffffffffffffffffffffffffffffffffffff166123ec565b15612311578373ffffffffffffffffffffffffffffffffffffffff1663150b7a026121e16118cc565b8786866040518563ffffffff1660e01b81526004016122039493929190614032565b6020604051808303816000875af192505050801561223f57506040513d601f19601f8201168201806040525081019061223c9190614093565b60015b6122c1573d806000811461226f576040519150601f19603f3d011682016040523d82523d6000602084013e612274565b606091505b5060008151036122b9576040517f08c379a00000000000000000000000000000000000000000000000000000000081526004016122b090613fbd565b60405180910390fd5b805181602001fd5b63150b7a0260e01b7bffffffffffffffffffffffffffffffffffffffffffffffffffffffff1916817bffffffffffffffffffffffffffffffffffffffffffffffffffffffff191614915050612316565b600190505b949350505050565b60606000600161232d8461240f565b01905060008167ffffffffffffffff81111561234c5761234b61291d565b5b6040519080825280601f01601f19166020018201604052801561237e5781602001600182028036833780820191505090505b509050600082602001820190505b6001156123e1578080600190039150507f3031323334353637383961626364656600000000000000000000000000000000600a86061a8153600a85816123d5576123d4613549565b5b0494506000850361238c575b819350505050919050565b6000808273ffffffffffffffffffffffffffffffffffffffff163b119050919050565b600080600090507a184f03e93ff9f4daa797ed6e38ed64bf6a1f010000000000000000831061246d577a184f03e93ff9f4daa797ed6e38ed64bf6a1f010000000000000000838161246357612462613549565b5b0492506040810190505b6d04ee2d6d415b85acef810000000083106124aa576d04ee2d6d415b85acef810000000083816124a05761249f613549565b5b0492506020810190505b662386f26fc1000083106124d957662386f26fc1000083816124cf576124ce613549565b5b0492506010810190505b6305f5e1008310612502576305f5e10083816124f8576124f7613549565b5b0492506008810190505b612710831061252757612710838161251d5761251c613549565b5b0492506004810190505b6064831061254a57606483816125405761253f613549565b5b0492506002810190505b600a8310612559576001810190505b80915050919050565b6040518060800160405280600081526020016000815260200160008152602001600073ffffffffffffffffffffffffffffffffffffffff1681525090565b604051806101200160405280600073ffffffffffffffffffffffffffffffffffffffff16815260200160608152602001600081526020016000815260200160008152602001600081526020016000815260200160008152602001600081525090565b6000604051905090565b600080fd5b600080fd5b60007fffffffff0000000000000000000000000000000000000000000000000000000082169050919050565b61264b81612616565b811461265657600080fd5b50565b60008135905061266881612642565b92915050565b6000602082840312156126845761268361260c565b5b600061269284828501612659565b91505092915050565b60008115159050919050565b6126b08161269b565b82525050565b60006020820190506126cb60008301846126a7565b92915050565b600073ffffffffffffffffffffffffffffffffffffffff82169050919050565b60006126fc826126d1565b9050919050565b61270c816126f1565b811461271757600080fd5b50565b60008135905061272981612703565b92915050565b6000819050919050565b6127428161272f565b811461274d57600080fd5b50565b60008135905061275f81612739565b92915050565b6000806000806080858703121561277f5761277e61260c565b5b600061278d8782880161271a565b945050602061279e8782880161271a565b93505060406127af87828801612750565b92505060606127c087828801612750565b91505092959194509250565b600081519050919050565b600082825260208201905092915050565b60005b838110156128065780820151818401526020810190506127eb565b60008484015250505050565b6000601f19601f8301169050919050565b600061282e826127cc565b61283881856127d7565b93506128488185602086016127e8565b61285181612812565b840191505092915050565b600060208201905081810360008301526128768184612823565b905092915050565b6000602082840312156128945761289361260c565b5b60006128a284828501612750565b91505092915050565b60006128b6826126d1565b9050919050565b6128c6816128ab565b82525050565b60006020820190506128e160008301846128bd565b92915050565b6128f0816128ab565b81146128fb57600080fd5b50565b60008135905061290d816128e7565b92915050565b600080fd5b600080fd5b7f4e487b7100000000000000000000000000000000000000000000000000000000600052604160045260246000fd5b61295582612812565b810181811067ffffffffffffffff821117156129745761297361291d565b5b80604052505050565b6000612987612602565b9050612993828261294c565b919050565b600067ffffffffffffffff8211156129b3576129b261291d565b5b6129bc82612812565b9050602081019050919050565b82818337600083830152505050565b60006129eb6129e684612998565b61297d565b905082815260208101848484011115612a0757612a06612918565b5b612a128482856129c9565b509392505050565b600082601f830112612a2f57612a2e612913565b5b8135612a3f8482602086016129d8565b91505092915050565b600080600060608486031215612a6157612a6061260c565b5b6000612a6f868287016128fe565b935050602084013567ffffffffffffffff811115612a9057612a8f612611565b5b612a9c86828701612a1a565b9250506040612aad86828701612750565b9150509250925092565b612ac08161272f565b82525050565b6000602082019050612adb6000830184612ab7565b92915050565b60008060408385031215612af857612af761260c565b5b6000612b06858286016128fe565b9250506020612b1785828601612750565b9150509250929050565b600080600060608486031215612b3a57612b3961260c565b5b6000612b48868287016128fe565b9350506020612b59868287016128fe565b9250506040612b6a86828701612750565b9150509250925092565b600080fd5b600080fd5b60008083601f840112612b9457612b93612913565b5b8235905067ffffffffffffffff811115612bb157612bb0612b74565b5b602083019150836001820283011115612bcd57612bcc612b79565b5b9250929050565b60008060208385031215612beb57612bea61260c565b5b600083013567ffffffffffffffff811115612c0957612c08612611565b5b612c1585828601612b7e565b92509250509250929050565b600060208284031215612c3757612c3661260c565b5b6000612c45848285016128fe565b91505092915050565b600081519050919050565b600082825260208201905092915050565b6000819050602082019050919050565b612c838161272f565b82525050565b6000612c958383612c7a565b60208301905092915050565b6000602082019050919050565b6000612cb982612c4e565b612cc38185612c59565b9350612cce83612c6a565b8060005b83811015612cff578151612ce68882612c89565b9750612cf183612ca1565b925050600181019050612cd2565b5085935050505092915050565b60006020820190508181036000830152612d268184612cae565b905092915050565b612d378161269b565b8114612d4257600080fd5b50565b600081359050612d5481612d2e565b92915050565b60008060408385031215612d7157612d7061260c565b5b6000612d7f858286016128fe565b9250506020612d9085828601612d45565b9150509250929050565b612da3816128ab565b82525050565b608082016000820151612dbf6000850182612c7a565b506020820151612dd26020850182612c7a565b506040820151612de56040850182612c7a565b506060820151612df86060850182612d9a565b50505050565b6000608082019050612e136000830184612da9565b92915050565b600067ffffffffffffffff821115612e3457612e3361291d565b5b612e3d82612812565b9050602081019050919050565b6000612e5d612e5884612e19565b61297d565b905082815260208101848484011115612e7957612e78612918565b5b612e848482856129c9565b509392505050565b600082601f830112612ea157612ea0612913565b5b8135612eb1848260208601612e4a565b91505092915050565b60008060008060808587031215612ed457612ed361260c565b5b6000612ee2878288016128fe565b9450506020612ef3878288016128fe565b9350506040612f0487828801612750565b925050606085013567ffffffffffffffff811115612f2557612f24612611565b5b612f3187828801612e8c565b91505092959194509250565b600082825260208201905092915050565b6000612f59826127cc565b612f638185612f3d565b9350612f738185602086016127e8565b612f7c81612812565b840191505092915050565b600061012083016000830151612fa06000860182612d9a565b5060208301518482036020860152612fb88282612f4e565b9150506040830151612fcd6040860182612c7a565b506060830151612fe06060860182612c7a565b506080830151612ff36080860182612c7a565b5060a083015161300660a0860182612c7a565b5060c083015161301960c0860182612c7a565b5060e083015161302c60e0860182612c7a565b50610100830151613041610100860182612c7a565b508091505092915050565b600060208201905081810360008301526130668184612f87565b905092915050565b600080604083850312156130855761308461260c565b5b6000613093858286016128fe565b92505060206130a4858286016128fe565b9150509250929050565b6000819050919050565b60006130d36130ce6130c9846126d1565b6130ae565b6126d1565b9050919050565b60006130e5826130b8565b9050919050565b60006130f7826130da565b9050919050565b613107816130ec565b82525050565b600060608201905061312260008301866130fe565b61312f60208301856128bd565b61313c6040830184612ab7565b949350505050565b7f4e487b7100000000000000000000000000000000000000000000000000000000600052602260045260246000fd5b6000600282049050600182168061318b57607f821691505b60208210810361319e5761319d613144565b5b50919050565b7f4e6f206d6f726520617661696c61626c65206e66747320746f2070757263686160008201527f7365000000000000000000000000000000000000000000000000000000000000602082015250565b60006132006022836127d7565b915061320b826131a4565b604082019050919050565b6000602082019050818103600083015261322f816131f3565b9050919050565b7f4552433732313a20617070726f76616c20746f2063757272656e74206f776e6560008201527f7200000000000000000000000000000000000000000000000000000000000000602082015250565b60006132926021836127d7565b915061329d82613236565b604082019050919050565b600060208201905081810360008301526132c181613285565b9050919050565b7f4552433732313a20617070726f76652063616c6c6572206973206e6f7420746f60008201527f6b656e206f776e6572206f7220617070726f76656420666f7220616c6c000000602082015250565b6000613324603d836127d7565b915061332f826132c8565b604082019050919050565b6000602082019050818103600083015261335381613317565b9050919050565b7f4e487b7100000000000000000000000000000000000000000000000000000000600052601160045260246000fd5b60008160011c9050919050565b6000808291508390505b60018511156133e0578086048111156133bc576133bb61335a565b5b60018516156133cb5780820291505b80810290506133d985613389565b94506133a0565b94509492505050565b6000826133f957600190506134b5565b8161340757600090506134b5565b816001811461341d576002811461342757613456565b60019150506134b5565b60ff8411156134395761343861335a565b5b8360020a9150848211156134505761344f61335a565b5b506134b5565b5060208310610133831016604e8410600b841016171561348b5782820a9050838111156134865761348561335a565b5b6134b5565b6134988484846001613396565b925090508184048111156134af576134ae61335a565b5b81810290505b9392505050565b60006134c78261272f565b91506134d28361272f565b92506134ff7fffffffffffffffffffffffffffffffffffffffffffffffffffffffffffffffff84846133e9565b905092915050565b60006135128261272f565b915061351d8361272f565b925082820261352b8161272f565b915082820484148315176135425761354161335a565b5b5092915050565b7f4e487b7100000000000000000000000000000000000000000000000000000000600052601260045260246000fd5b60006135838261272f565b915061358e8361272f565b92508261359e5761359d613549565b5b828204905092915050565b7f4552433732313a2063616c6c6572206973206e6f7420746f6b656e206f776e6560008201527f72206f7220617070726f76656400000000000000000000000000000000000000602082015250565b6000613605602d836127d7565b9150613610826135a9565b604082019050919050565b60006020820190508181036000830152613634816135f8565b9050919050565b60006136468261272f565b91506136518361272f565b92508282039050818111156136695761366861335a565b5b92915050565b600082905092915050565b60008190508160005260206000209050919050565b60006020601f8301049050919050565b600082821b905092915050565b6000600883026136dc7fffffffffffffffffffffffffffffffffffffffffffffffffffffffffffffffff8261369f565b6136e6868361369f565b95508019841693508086168417925050509392505050565b600061371961371461370f8461272f565b6130ae565b61272f565b9050919050565b6000819050919050565b613733836136fe565b61374761373f82613720565b8484546136ac565b825550505050565b600090565b61375c61374f565b61376781848461372a565b505050565b5b8181101561378b57613780600082613754565b60018101905061376d565b5050565b601f8211156137d0576137a18161367a565b6137aa8461368f565b810160208510156137b9578190505b6137cd6137c58561368f565b83018261376c565b50505b505050565b600082821c905092915050565b60006137f3600019846008026137d5565b1980831691505092915050565b600061380c83836137e2565b9150826002028217905092915050565b613826838361366f565b67ffffffffffffffff81111561383f5761383e61291d565b5b6138498254613173565b61385482828561378f565b6000601f8311600181146138835760008415613871578287013590505b61387b8582613800565b8655506138e3565b601f1984166138918661367a565b60005b828110156138b957848901358255600182019150602085019450602081019050613894565b868310156138d657848901356138d2601f8916826137e2565b8355505b6001600288020188555050505b50505050505050565b7f4552433732313a20696e76616c696420746f6b656e2049440000000000000000600082015250565b60006139226018836127d7565b915061392d826138ec565b602082019050919050565b6000602082019050818103600083015261395181613915565b9050919050565b7f4552433732313a2061646472657373207a65726f206973206e6f74206120766160008201527f6c6964206f776e65720000000000000000000000000000000000000000000000602082015250565b60006139b46029836127d7565b91506139bf82613958565b604082019050919050565b600060208201905081810360008301526139e3816139a7565b9050919050565b600081905092915050565b6000613a00826127cc565b613a0a81856139ea565b9350613a1a8185602086016127e8565b80840191505092915050565b6000613a3282856139f5565b9150613a3e82846139f5565b91508190509392505050565b7f4f776e61626c653a206e6577206f776e657220697320746865207a65726f206160008201527f6464726573730000000000000000000000000000000000000000000000000000602082015250565b6000613aa66026836127d7565b9150613ab182613a4a565b604082019050919050565b60006020820190508181036000830152613ad581613a99565b9050919050565b7f4f776e61626c653a2063616c6c6572206973206e6f7420746865206f776e6572600082015250565b6000613b126020836127d7565b9150613b1d82613adc565b602082019050919050565b60006020820190508181036000830152613b4181613b05565b9050919050565b7f4552433732313a206d696e7420746f20746865207a65726f2061646472657373600082015250565b6000613b7e6020836127d7565b9150613b8982613b48565b602082019050919050565b60006020820190508181036000830152613bad81613b71565b9050919050565b7f4552433732313a20746f6b656e20616c7265616479206d696e74656400000000600082015250565b6000613bea601c836127d7565b9150613bf582613bb4565b602082019050919050565b60006020820190508181036000830152613c1981613bdd565b9050919050565b7f45524337323155524953746f726167653a2055524920736574206f66206e6f6e60008201527f6578697374656e7420746f6b656e000000000000000000000000000000000000602082015250565b6000613c7c602e836127d7565b9150613c8782613c20565b604082019050919050565b60006020820190508181036000830152613cab81613c6f565b9050919050565b613cbb826127cc565b67ffffffffffffffff811115613cd457613cd361291d565b5b613cde8254613173565b613ce982828561378f565b600060209050601f831160018114613d1c5760008415613d0a578287015190505b613d148582613800565b865550613d7c565b601f198416613d2a8661367a565b60005b82811015613d5257848901518255600182019150602085019450602081019050613d2d565b86831015613d6f5784890151613d6b601f8916826137e2565b8355505b6001600288020188555050505b505050505050565b6000606082019050613d996000830186612ab7565b613da660208301856128bd565b613db36040830184612ab7565b949350505050565b7f4552433732313a207472616e736665722066726f6d20696e636f72726563742060008201527f6f776e6572000000000000000000000000000000000000000000000000000000602082015250565b6000613e176025836127d7565b9150613e2282613dbb565b604082019050919050565b60006020820190508181036000830152613e4681613e0a565b9050919050565b7f4552433732313a207472616e7366657220746f20746865207a65726f2061646460008201527f7265737300000000000000000000000000000000000000000000000000000000602082015250565b6000613ea96024836127d7565b9150613eb482613e4d565b604082019050919050565b60006020820190508181036000830152613ed881613e9c565b9050919050565b7f4552433732313a20617070726f766520746f2063616c6c657200000000000000600082015250565b6000613f156019836127d7565b9150613f2082613edf565b602082019050919050565b60006020820190508181036000830152613f4481613f08565b9050919050565b7f4552433732313a207472616e7366657220746f206e6f6e20455243373231526560008201527f63656976657220696d706c656d656e7465720000000000000000000000000000602082015250565b6000613fa76032836127d7565b9150613fb282613f4b565b604082019050919050565b60006020820190508181036000830152613fd681613f9a565b9050919050565b600081519050919050565b600082825260208201905092915050565b600061400482613fdd565b61400e8185613fe8565b935061401e8185602086016127e8565b61402781612812565b840191505092915050565b600060808201905061404760008301876128bd565b61405460208301866128bd565b6140616040830185612ab7565b81810360608301526140738184613ff9565b905095945050505050565b60008151905061408d81612642565b92915050565b6000602082840312156140a9576140a861260c565b5b60006140b78482850161407e565b9150509291505056fea2646970667358221220f7fcb8cb5aeca0ef46157c1ab18cf9b736f21efe4011d5dac038c2eb80c01b4c64736f6c63430008120033",
  "linkReferences": {},
  "deployedLinkReferences": {}
}