{
  "_format": "hh-sol-artifact-1",
  "contractName": "MyNFT",
  "sourceName": "contracts/MyNft.sol",
  "abi": [
    {
      "inputs": [],
      "stateMutability": "nonpayable",
      "type": "constructor"
    },
    {
      "anonymous": false,
      "inputs": [
        {
          "indexed": true,
          "internalType": "address",
          "name": "owner",
          "type": "address"
        },
        {
          "indexed": true,
          "internalType": "address",
          "name": "approved",
          "type": "address"
        },
        {
          "indexed": true,
          "internalType": "uint256",
          "name": "tokenId",
          "type": "uint256"
        }
      ],
      "name": "Approval",
      "type": "event"
    },
    {
      "anonymous": false,
      "inputs": [
        {
          "indexed": true,
          "internalType": "address",
          "name": "owner",
          "type": "address"
        },
        {
          "indexed": true,
          "internalType": "address",
          "name": "operator",
          "type": "address"
        },
        {
          "indexed": false,
          "internalType": "bool",
          "name": "approved",
          "type": "bool"
        }
      ],
      "name": "ApprovalForAll",
      "type": "event"
    },
    {
      "anonymous": false,
      "inputs": [
        {
          "indexed": false,
          "internalType": "uint256",
          "name": "_fromTokenId",
          "type": "uint256"
        },
        {
          "indexed": false,
          "internalType": "uint256",
          "name": "_toTokenId",
          "type": "uint256"
        }
      ],
      "name": "BatchMetadataUpdate",
      "type": "event"
    },
    {
      "anonymous": false,
      "inputs": [
        {
          "indexed": false,
          "internalType": "uint256",
          "name": "_tokenId",
          "type": "uint256"
        }
      ],
      "name": "MetadataUpdate",
      "type": "event"
    },
    {
      "anonymous": false,
      "inputs": [
        {
          "indexed": true,
          "internalType": "address",
          "name": "previousOwner",
          "type": "address"
        },
        {
          "indexed": true,
          "internalType": "address",
          "name": "newOwner",
          "type": "address"
        }
      ],
      "name": "OwnershipTransferred",
      "type": "event"
    },
    {
      "anonymous": false,
      "inputs": [
        {
          "indexed": true,
          "internalType": "address",
          "name": "from",
          "type": "address"
        },
        {
          "indexed": true,
          "internalType": "address",
          "name": "to",
          "type": "address"
        },
        {
          "indexed": true,
          "internalType": "uint256",
          "name": "tokenId",
          "type": "uint256"
        }
      ],
      "name": "Transfer",
      "type": "event"
    },
    {
      "inputs": [
        {
          "internalType": "address",
          "name": "to",
          "type": "address"
        },
        {
          "internalType": "uint256",
          "name": "tokenId",
          "type": "uint256"
        }
      ],
      "name": "approve",
      "outputs": [],
      "stateMutability": "nonpayable",
      "type": "function"
    },
    {
      "inputs": [
        {
          "internalType": "address",
          "name": "owner",
          "type": "address"
        }
      ],
      "name": "balanceOf",
      "outputs": [
        {
          "internalType": "uint256",
          "name": "",
          "type": "uint256"
        }
      ],
      "stateMutability": "view",
      "type": "function"
    },
    {
      "inputs": [
        {
          "internalType": "uint256",
          "name": "tokenId",
          "type": "uint256"
        }
      ],
      "name": "getApproved",
      "outputs": [
        {
          "internalType": "address",
          "name": "",
          "type": "address"
        }
      ],
      "stateMutability": "view",
      "type": "function"
    },
    {
      "inputs": [
        {
          "internalType": "address",
          "name": "owner",
          "type": "address"
        },
        {
          "internalType": "address",
          "name": "operator",
          "type": "address"
        }
      ],
      "name": "isApprovedForAll",
      "outputs": [
        {
          "internalType": "bool",
          "name": "",
          "type": "bool"
        }
      ],
      "stateMutability": "view",
      "type": "function"
    },
    {
      "inputs": [
        {
          "internalType": "address",
          "name": "recipient",
          "type": "address"
        },
        {
          "internalType": "string",
          "name": "tokenURI",
          "type": "string"
        }
      ],
      "name": "mintNFT",
      "outputs": [
        {
          "internalType": "uint256",
          "name": "",
          "type": "uint256"
        }
      ],
      "stateMutability": "nonpayable",
      "type": "function"
    },
    {
      "inputs": [],
      "name": "name",
      "outputs": [
        {
          "internalType": "string",
          "name": "",
          "type": "string"
        }
      ],
      "stateMutability": "view",
      "type": "function"
    },
    {
      "inputs": [],
      "name": "owner",
      "outputs": [
        {
          "internalType": "address",
          "name": "",
          "type": "address"
        }
      ],
      "stateMutability": "view",
      "type": "function"
    },
    {
      "inputs": [
        {
          "internalType": "uint256",
          "name": "tokenId",
          "type": "uint256"
        }
      ],
      "name": "ownerOf",
      "outputs": [
        {
          "internalType": "address",
          "name": "",
          "type": "address"
        }
      ],
      "stateMutability": "view",
      "type": "function"
    },
    {
      "inputs": [],
      "name": "renounceOwnership",
      "outputs": [],
      "stateMutability": "nonpayable",
      "type": "function"
    },
    {
      "inputs": [
        {
          "internalType": "address",
          "name": "from",
          "type": "address"
        },
        {
          "internalType": "address",
          "name": "to",
          "type": "address"
        },
        {
          "internalType": "uint256",
          "name": "tokenId",
          "type": "uint256"
        }
      ],
      "name": "safeTransferFrom",
      "outputs": [],
      "stateMutability": "nonpayable",
      "type": "function"
    },
    {
      "inputs": [
        {
          "internalType": "address",
          "name": "from",
          "type": "address"
        },
        {
          "internalType": "address",
          "name": "to",
          "type": "address"
        },
        {
          "internalType": "uint256",
          "name": "tokenId",
          "type": "uint256"
        },
        {
          "internalType": "bytes",
          "name": "data",
          "type": "bytes"
        }
      ],
      "name": "safeTransferFrom",
      "outputs": [],
      "stateMutability": "nonpayable",
      "type": "function"
    },
    {
      "inputs": [
        {
          "internalType": "address",
          "name": "operator",
          "type": "address"
        },
        {
          "internalType": "bool",
          "name": "approved",
          "type": "bool"
        }
      ],
      "name": "setApprovalForAll",
      "outputs": [],
      "stateMutability": "nonpayable",
      "type": "function"
    },
    {
      "inputs": [
        {
          "internalType": "string",
          "name": "baseUri",
          "type": "string"
        }
      ],
      "name": "setBaseURI",
      "outputs": [],
      "stateMutability": "nonpayable",
      "type": "function"
    },
    {
      "inputs": [
        {
          "internalType": "bytes4",
          "name": "interfaceId",
          "type": "bytes4"
        }
      ],
      "name": "supportsInterface",
      "outputs": [
        {
          "internalType": "bool",
          "name": "",
          "type": "bool"
        }
      ],
      "stateMutability": "view",
      "type": "function"
    },
    {
      "inputs": [],
      "name": "symbol",
      "outputs": [
        {
          "internalType": "string",
          "name": "",
          "type": "string"
        }
      ],
      "stateMutability": "view",
      "type": "function"
    },
    {
      "inputs": [
        {
          "internalType": "uint256",
          "name": "tokenId",
          "type": "uint256"
        }
      ],
      "name": "tokenURI",
      "outputs": [
        {
          "internalType": "string",
          "name": "",
          "type": "string"
        }
      ],
      "stateMutability": "view",
      "type": "function"
    },
    {
      "inputs": [
        {
          "internalType": "address",
          "name": "from",
          "type": "address"
        },
        {
          "internalType": "address",
          "name": "to",
          "type": "address"
        },
        {
          "internalType": "uint256",
          "name": "tokenId",
          "type": "uint256"
        }
      ],
      "name": "transferFrom",
      "outputs": [],
      "stateMutability": "nonpayable",
      "type": "function"
    },
    {
      "inputs": [
        {
          "internalType": "address",
          "name": "newOwner",
          "type": "address"
        }
      ],
      "name": "transferOwnership",
      "outputs": [],
      "stateMutability": "nonpayable",
      "type": "function"
    }
  ],
  "bytecode": "0x60806040523480156200001157600080fd5b506040518060400160405280600581526020017f4d794e46540000000000000000000000000000000000000000000000000000008152506040518060400160405280600381526020017f4e4654000000000000000000000000000000000000000000000000000000000081525081600090816200008f919062000412565b508060019081620000a1919062000412565b505050620000c4620000b8620000ca60201b60201c565b620000d260201b60201c565b620004f9565b600033905090565b6000600760009054906101000a900473ffffffffffffffffffffffffffffffffffffffff16905081600760006101000a81548173ffffffffffffffffffffffffffffffffffffffff021916908373ffffffffffffffffffffffffffffffffffffffff1602179055508173ffffffffffffffffffffffffffffffffffffffff168173ffffffffffffffffffffffffffffffffffffffff167f8be0079c531659141344cd1fd0a4f28419497f9722a3daafe3b4186f6b6457e060405160405180910390a35050565b600081519050919050565b7f4e487b7100000000000000000000000000000000000000000000000000000000600052604160045260246000fd5b7f4e487b7100000000000000000000000000000000000000000000000000000000600052602260045260246000fd5b600060028204905060018216806200021a57607f821691505b60208210810362000230576200022f620001d2565b5b50919050565b60008190508160005260206000209050919050565b60006020601f8301049050919050565b600082821b905092915050565b6000600883026200029a7fffffffffffffffffffffffffffffffffffffffffffffffffffffffffffffffff826200025b565b620002a686836200025b565b95508019841693508086168417925050509392505050565b6000819050919050565b6000819050919050565b6000620002f3620002ed620002e784620002be565b620002c8565b620002be565b9050919050565b6000819050919050565b6200030f83620002d2565b620003276200031e82620002fa565b84845462000268565b825550505050565b600090565b6200033e6200032f565b6200034b81848462000304565b505050565b5b8181101562000373576200036760008262000334565b60018101905062000351565b5050565b601f821115620003c2576200038c8162000236565b62000397846200024b565b81016020851015620003a7578190505b620003bf620003b6856200024b565b83018262000350565b50505b505050565b600082821c905092915050565b6000620003e760001984600802620003c7565b1980831691505092915050565b6000620004028383620003d4565b9150826002028217905092915050565b6200041d8262000198565b67ffffffffffffffff811115620004395762000438620001a3565b5b62000445825462000201565b6200045282828562000377565b600060209050601f8311600181146200048a576000841562000475578287015190505b620004818582620003f4565b865550620004f1565b601f1984166200049a8662000236565b60005b82811015620004c4578489015182556001820191506020850194506020810190506200049d565b86831015620004e45784890151620004e0601f891682620003d4565b8355505b6001600288020188555050505b505050505050565b61309880620005096000396000f3fe608060405234801561001057600080fd5b50600436106101165760003560e01c8063715018a6116100a2578063b88d4fde11610071578063b88d4fde146102cb578063c87b56dd146102e7578063e985e9c514610317578063eacabe1414610347578063f2fde38b1461037757610116565b8063715018a6146102695780638da5cb5b1461027357806395d89b4114610291578063a22cb465146102af57610116565b806323b872dd116100e957806323b872dd146101b557806342842e0e146101d157806355f804b3146101ed5780636352211e1461020957806370a082311461023957610116565b806301ffc9a71461011b57806306fdde031461014b578063081812fc14610169578063095ea7b314610199575b600080fd5b61013560048036038101906101309190611d01565b610393565b6040516101429190611d49565b60405180910390f35b6101536103f4565b6040516101609190611df4565b60405180910390f35b610183600480360381019061017e9190611e4c565b610486565b6040516101909190611eba565b60405180910390f35b6101b360048036038101906101ae9190611f01565b6104cc565b005b6101cf60048036038101906101ca9190611f41565b6105e3565b005b6101eb60048036038101906101e69190611f41565b610643565b005b61020760048036038101906102029190611ff9565b610663565b005b610223600480360381019061021e9190611e4c565b610681565b6040516102309190611eba565b60405180910390f35b610253600480360381019061024e9190612046565b610707565b6040516102609190612082565b60405180910390f35b6102716107be565b005b61027b6107d2565b6040516102889190611eba565b60405180910390f35b6102996107fc565b6040516102a69190611df4565b60405180910390f35b6102c960048036038101906102c491906120c9565b61088e565b005b6102e560048036038101906102e09190612239565b6108a4565b005b61030160048036038101906102fc9190611e4c565b610906565b60405161030e9190611df4565b60405180910390f35b610331600480360381019061032c91906122bc565b610a18565b60405161033e9190611d49565b60405180910390f35b610361600480360381019061035c919061239d565b610aac565b60405161036e9190612082565b60405180910390f35b610391600480360381019061038c9190612046565b610aec565b005b6000634906490660e01b7bffffffffffffffffffffffffffffffffffffffffffffffffffffffff1916827bffffffffffffffffffffffffffffffffffffffffffffffffffffffff191614806103ed57506103ec82610b6f565b5b9050919050565b60606000805461040390612428565b80601f016020809104026020016040519081016040528092919081815260200182805461042f90612428565b801561047c5780601f106104515761010080835404028352916020019161047c565b820191906000526020600020905b81548152906001019060200180831161045f57829003601f168201915b5050505050905090565b600061049182610c51565b6004600083815260200190815260200160002060009054906101000a900473ffffffffffffffffffffffffffffffffffffffff169050919050565b60006104d782610681565b90508073ffffffffffffffffffffffffffffffffffffffff168373ffffffffffffffffffffffffffffffffffffffff1603610547576040517f08c379a000000000000000000000000000000000000000000000000000000000815260040161053e906124cb565b60405180910390fd5b8073ffffffffffffffffffffffffffffffffffffffff16610566610c9c565b73ffffffffffffffffffffffffffffffffffffffff16148061059557506105948161058f610c9c565b610a18565b5b6105d4576040517f08c379a00000000000000000000000000000000000000000000000000000000081526004016105cb9061255d565b60405180910390fd5b6105de8383610ca4565b505050565b6105f46105ee610c9c565b82610d5d565b610633576040517f08c379a000000000000000000000000000000000000000000000000000000000815260040161062a906125ef565b60405180910390fd5b61063e838383610df2565b505050565b61065e838383604051806020016040528060008152506108a4565b505050565b61066b6110eb565b81816009918261067c9291906127c6565b505050565b60008061068d83611169565b9050600073ffffffffffffffffffffffffffffffffffffffff168173ffffffffffffffffffffffffffffffffffffffff16036106fe576040517f08c379a00000000000000000000000000000000000000000000000000000000081526004016106f5906128e2565b60405180910390fd5b80915050919050565b60008073ffffffffffffffffffffffffffffffffffffffff168273ffffffffffffffffffffffffffffffffffffffff1603610777576040517f08c379a000000000000000000000000000000000000000000000000000000000815260040161076e90612974565b60405180910390fd5b600360008373ffffffffffffffffffffffffffffffffffffffff1673ffffffffffffffffffffffffffffffffffffffff168152602001908152602001600020549050919050565b6107c66110eb565b6107d060006111a6565b565b6000600760009054906101000a900473ffffffffffffffffffffffffffffffffffffffff16905090565b60606001805461080b90612428565b80601f016020809104026020016040519081016040528092919081815260200182805461083790612428565b80156108845780601f1061085957610100808354040283529160200191610884565b820191906000526020600020905b81548152906001019060200180831161086757829003601f168201915b5050505050905090565b6108a0610899610c9c565b838361126c565b5050565b6108b56108af610c9c565b83610d5d565b6108f4576040517f08c379a00000000000000000000000000000000000000000000000000000000081526004016108eb906125ef565b60405180910390fd5b610900848484846113d8565b50505050565b606061091182610c51565b600060066000848152602001908152602001600020805461093190612428565b80601f016020809104026020016040519081016040528092919081815260200182805461095d90612428565b80156109aa5780601f1061097f576101008083540402835291602001916109aa565b820191906000526020600020905b81548152906001019060200180831161098d57829003601f168201915b5050505050905060006109bb611434565b905060008151036109d0578192505050610a13565b600082511115610a055780826040516020016109ed9291906129d0565b60405160208183030381529060405292505050610a13565b610a0e846114c6565b925050505b919050565b6000600560008473ffffffffffffffffffffffffffffffffffffffff1673ffffffffffffffffffffffffffffffffffffffff16815260200190815260200160002060008373ffffffffffffffffffffffffffffffffffffffff1673ffffffffffffffffffffffffffffffffffffffff16815260200190815260200160002060009054906101000a900460ff16905092915050565b6000610ab66110eb565b610ac0600861152e565b6000610acc6008611544565b9050610ad88482611552565b610ae2818461176f565b8091505092915050565b610af46110eb565b600073ffffffffffffffffffffffffffffffffffffffff168173ffffffffffffffffffffffffffffffffffffffff1603610b63576040517f08c379a0000000000000000000000000000000000000000000000000000000008152600401610b5a90612a66565b60405180910390fd5b610b6c816111a6565b50565b60007f80ac58cd000000000000000000000000000000000000000000000000000000007bffffffffffffffffffffffffffffffffffffffffffffffffffffffff1916827bffffffffffffffffffffffffffffffffffffffffffffffffffffffff19161480610c3a57507f5b5e139f000000000000000000000000000000000000000000000000000000007bffffffffffffffffffffffffffffffffffffffffffffffffffffffff1916827bffffffffffffffffffffffffffffffffffffffffffffffffffffffff1916145b80610c4a5750610c4982611813565b5b9050919050565b610c5a8161187d565b610c99576040517f08c379a0000000000000000000000000000000000000000000000000000000008152600401610c90906128e2565b60405180910390fd5b50565b600033905090565b816004600083815260200190815260200160002060006101000a81548173ffffffffffffffffffffffffffffffffffffffff021916908373ffffffffffffffffffffffffffffffffffffffff160217905550808273ffffffffffffffffffffffffffffffffffffffff16610d1783610681565b73ffffffffffffffffffffffffffffffffffffffff167f8c5be1e5ebec7d5bd14f71427d1e84f3dd0314c0f7b2291e5b200ac8c7c3b92560405160405180910390a45050565b600080610d6983610681565b90508073ffffffffffffffffffffffffffffffffffffffff168473ffffffffffffffffffffffffffffffffffffffff161480610dab5750610daa8185610a18565b5b80610de957508373ffffffffffffffffffffffffffffffffffffffff16610dd184610486565b73ffffffffffffffffffffffffffffffffffffffff16145b91505092915050565b8273ffffffffffffffffffffffffffffffffffffffff16610e1282610681565b73ffffffffffffffffffffffffffffffffffffffff1614610e68576040517f08c379a0000000000000000000000000000000000000000000000000000000008152600401610e5f90612af8565b60405180910390fd5b600073ffffffffffffffffffffffffffffffffffffffff168273ffffffffffffffffffffffffffffffffffffffff1603610ed7576040517f08c379a0000000000000000000000000000000000000000000000000000000008152600401610ece90612b8a565b60405180910390fd5b610ee483838360016118be565b8273ffffffffffffffffffffffffffffffffffffffff16610f0482610681565b73ffffffffffffffffffffffffffffffffffffffff1614610f5a576040517f08c379a0000000000000000000000000000000000000000000000000000000008152600401610f5190612af8565b60405180910390fd5b6004600082815260200190815260200160002060006101000a81549073ffffffffffffffffffffffffffffffffffffffff02191690556001600360008573ffffffffffffffffffffffffffffffffffffffff1673ffffffffffffffffffffffffffffffffffffffff168152602001908152602001600020600082825403925050819055506001600360008473ffffffffffffffffffffffffffffffffffffffff1673ffffffffffffffffffffffffffffffffffffffff16815260200190815260200160002060008282540192505081905550816002600083815260200190815260200160002060006101000a81548173ffffffffffffffffffffffffffffffffffffffff021916908373ffffffffffffffffffffffffffffffffffffffff160217905550808273ffffffffffffffffffffffffffffffffffffffff168473ffffffffffffffffffffffffffffffffffffffff167fddf252ad1be2c89b69c2b068fc378daa952ba7f163c4a11628f55a4df523b3ef60405160405180910390a46110e683838360016118c4565b505050565b6110f3610c9c565b73ffffffffffffffffffffffffffffffffffffffff166111116107d2565b73ffffffffffffffffffffffffffffffffffffffff1614611167576040517f08c379a000000000000000000000000000000000000000000000000000000000815260040161115e90612bf6565b60405180910390fd5b565b60006002600083815260200190815260200160002060009054906101000a900473ffffffffffffffffffffffffffffffffffffffff169050919050565b6000600760009054906101000a900473ffffffffffffffffffffffffffffffffffffffff16905081600760006101000a81548173ffffffffffffffffffffffffffffffffffffffff021916908373ffffffffffffffffffffffffffffffffffffffff1602179055508173ffffffffffffffffffffffffffffffffffffffff168173ffffffffffffffffffffffffffffffffffffffff167f8be0079c531659141344cd1fd0a4f28419497f9722a3daafe3b4186f6b6457e060405160405180910390a35050565b8173ffffffffffffffffffffffffffffffffffffffff168373ffffffffffffffffffffffffffffffffffffffff16036112da576040517f08c379a00000000000000000000000000000000000000000000000000000000081526004016112d190612c62565b60405180910390fd5b80600560008573ffffffffffffffffffffffffffffffffffffffff1673ffffffffffffffffffffffffffffffffffffffff16815260200190815260200160002060008473ffffffffffffffffffffffffffffffffffffffff1673ffffffffffffffffffffffffffffffffffffffff16815260200190815260200160002060006101000a81548160ff0219169083151502179055508173ffffffffffffffffffffffffffffffffffffffff168373ffffffffffffffffffffffffffffffffffffffff167f17307eab39ab6107e8899845ad3d59bd9653f200f220920489ca2b5937696c31836040516113cb9190611d49565b60405180910390a3505050565b6113e3848484610df2565b6113ef848484846118ca565b61142e576040517f08c379a000000000000000000000000000000000000000000000000000000000815260040161142590612cf4565b60405180910390fd5b50505050565b60606009805461144390612428565b80601f016020809104026020016040519081016040528092919081815260200182805461146f90612428565b80156114bc5780601f10611491576101008083540402835291602001916114bc565b820191906000526020600020905b81548152906001019060200180831161149f57829003601f168201915b5050505050905090565b60606114d182610c51565b60006114db611434565b905060008151116114fb5760405180602001604052806000815250611526565b8061150584611a51565b6040516020016115169291906129d0565b6040516020818303038152906040525b915050919050565b6001816000016000828254019250508190555050565b600081600001549050919050565b600073ffffffffffffffffffffffffffffffffffffffff168273ffffffffffffffffffffffffffffffffffffffff16036115c1576040517f08c379a00000000000000000000000000000000000000000000000000000000081526004016115b890612d60565b60405180910390fd5b6115ca8161187d565b1561160a576040517f08c379a000000000000000000000000000000000000000000000000000000000815260040161160190612dcc565b60405180910390fd5b6116186000838360016118be565b6116218161187d565b15611661576040517f08c379a000000000000000000000000000000000000000000000000000000000815260040161165890612dcc565b60405180910390fd5b6001600360008473ffffffffffffffffffffffffffffffffffffffff1673ffffffffffffffffffffffffffffffffffffffff16815260200190815260200160002060008282540192505081905550816002600083815260200190815260200160002060006101000a81548173ffffffffffffffffffffffffffffffffffffffff021916908373ffffffffffffffffffffffffffffffffffffffff160217905550808273ffffffffffffffffffffffffffffffffffffffff16600073ffffffffffffffffffffffffffffffffffffffff167fddf252ad1be2c89b69c2b068fc378daa952ba7f163c4a11628f55a4df523b3ef60405160405180910390a461176b6000838360016118c4565b5050565b6117788261187d565b6117b7576040517f08c379a00000000000000000000000000000000000000000000000000000000081526004016117ae90612e5e565b60405180910390fd5b806006600084815260200190815260200160002090816117d79190612e7e565b507ff8e1a15aba9398e019f0b49df1a4fde98ee17ae345cb5f6b5e2c27f5033e8ce7826040516118079190612082565b60405180910390a15050565b60007f01ffc9a7000000000000000000000000000000000000000000000000000000007bffffffffffffffffffffffffffffffffffffffffffffffffffffffff1916827bffffffffffffffffffffffffffffffffffffffffffffffffffffffff1916149050919050565b60008073ffffffffffffffffffffffffffffffffffffffff1661189f83611169565b73ffffffffffffffffffffffffffffffffffffffff1614159050919050565b50505050565b50505050565b60006118eb8473ffffffffffffffffffffffffffffffffffffffff16611b1f565b15611a44578373ffffffffffffffffffffffffffffffffffffffff1663150b7a02611914610c9c565b8786866040518563ffffffff1660e01b81526004016119369493929190612fa5565b6020604051808303816000875af192505050801561197257506040513d601f19601f8201168201806040525081019061196f9190613006565b60015b6119f4573d80600081146119a2576040519150601f19603f3d011682016040523d82523d6000602084013e6119a7565b606091505b5060008151036119ec576040517f08c379a00000000000000000000000000000000000000000000000000000000081526004016119e390612cf4565b60405180910390fd5b805181602001fd5b63150b7a0260e01b7bffffffffffffffffffffffffffffffffffffffffffffffffffffffff1916817bffffffffffffffffffffffffffffffffffffffffffffffffffffffff191614915050611a49565b600190505b949350505050565b606060006001611a6084611b42565b01905060008167ffffffffffffffff811115611a7f57611a7e61210e565b5b6040519080825280601f01601f191660200182016040528015611ab15781602001600182028036833780820191505090505b509050600082602001820190505b600115611b14578080600190039150507f3031323334353637383961626364656600000000000000000000000000000000600a86061a8153600a8581611b0857611b07613033565b5b04945060008503611abf575b819350505050919050565b6000808273ffffffffffffffffffffffffffffffffffffffff163b119050919050565b600080600090507a184f03e93ff9f4daa797ed6e38ed64bf6a1f0100000000000000008310611ba0577a184f03e93ff9f4daa797ed6e38ed64bf6a1f0100000000000000008381611b9657611b95613033565b5b0492506040810190505b6d04ee2d6d415b85acef81000000008310611bdd576d04ee2d6d415b85acef81000000008381611bd357611bd2613033565b5b0492506020810190505b662386f26fc100008310611c0c57662386f26fc100008381611c0257611c01613033565b5b0492506010810190505b6305f5e1008310611c35576305f5e1008381611c2b57611c2a613033565b5b0492506008810190505b6127108310611c5a576127108381611c5057611c4f613033565b5b0492506004810190505b60648310611c7d5760648381611c7357611c72613033565b5b0492506002810190505b600a8310611c8c576001810190505b80915050919050565b6000604051905090565b600080fd5b600080fd5b60007fffffffff0000000000000000000000000000000000000000000000000000000082169050919050565b611cde81611ca9565b8114611ce957600080fd5b50565b600081359050611cfb81611cd5565b92915050565b600060208284031215611d1757611d16611c9f565b5b6000611d2584828501611cec565b91505092915050565b60008115159050919050565b611d4381611d2e565b82525050565b6000602082019050611d5e6000830184611d3a565b92915050565b600081519050919050565b600082825260208201905092915050565b60005b83811015611d9e578082015181840152602081019050611d83565b60008484015250505050565b6000601f19601f8301169050919050565b6000611dc682611d64565b611dd08185611d6f565b9350611de0818560208601611d80565b611de981611daa565b840191505092915050565b60006020820190508181036000830152611e0e8184611dbb565b905092915050565b6000819050919050565b611e2981611e16565b8114611e3457600080fd5b50565b600081359050611e4681611e20565b92915050565b600060208284031215611e6257611e61611c9f565b5b6000611e7084828501611e37565b91505092915050565b600073ffffffffffffffffffffffffffffffffffffffff82169050919050565b6000611ea482611e79565b9050919050565b611eb481611e99565b82525050565b6000602082019050611ecf6000830184611eab565b92915050565b611ede81611e99565b8114611ee957600080fd5b50565b600081359050611efb81611ed5565b92915050565b60008060408385031215611f1857611f17611c9f565b5b6000611f2685828601611eec565b9250506020611f3785828601611e37565b9150509250929050565b600080600060608486031215611f5a57611f59611c9f565b5b6000611f6886828701611eec565b9350506020611f7986828701611eec565b9250506040611f8a86828701611e37565b9150509250925092565b600080fd5b600080fd5b600080fd5b60008083601f840112611fb957611fb8611f94565b5b8235905067ffffffffffffffff811115611fd657611fd5611f99565b5b602083019150836001820283011115611ff257611ff1611f9e565b5b9250929050565b600080602083850312156120105761200f611c9f565b5b600083013567ffffffffffffffff81111561202e5761202d611ca4565b5b61203a85828601611fa3565b92509250509250929050565b60006020828403121561205c5761205b611c9f565b5b600061206a84828501611eec565b91505092915050565b61207c81611e16565b82525050565b60006020820190506120976000830184612073565b92915050565b6120a681611d2e565b81146120b157600080fd5b50565b6000813590506120c38161209d565b92915050565b600080604083850312156120e0576120df611c9f565b5b60006120ee85828601611eec565b92505060206120ff858286016120b4565b9150509250929050565b600080fd5b7f4e487b7100000000000000000000000000000000000000000000000000000000600052604160045260246000fd5b61214682611daa565b810181811067ffffffffffffffff821117156121655761216461210e565b5b80604052505050565b6000612178611c95565b9050612184828261213d565b919050565b600067ffffffffffffffff8211156121a4576121a361210e565b5b6121ad82611daa565b9050602081019050919050565b82818337600083830152505050565b60006121dc6121d784612189565b61216e565b9050828152602081018484840111156121f8576121f7612109565b5b6122038482856121ba565b509392505050565b600082601f8301126122205761221f611f94565b5b81356122308482602086016121c9565b91505092915050565b6000806000806080858703121561225357612252611c9f565b5b600061226187828801611eec565b945050602061227287828801611eec565b935050604061228387828801611e37565b925050606085013567ffffffffffffffff8111156122a4576122a3611ca4565b5b6122b08782880161220b565b91505092959194509250565b600080604083850312156122d3576122d2611c9f565b5b60006122e185828601611eec565b92505060206122f285828601611eec565b9150509250929050565b600067ffffffffffffffff8211156123175761231661210e565b5b61232082611daa565b9050602081019050919050565b600061234061233b846122fc565b61216e565b90508281526020810184848401111561235c5761235b612109565b5b6123678482856121ba565b509392505050565b600082601f83011261238457612383611f94565b5b813561239484826020860161232d565b91505092915050565b600080604083850312156123b4576123b3611c9f565b5b60006123c285828601611eec565b925050602083013567ffffffffffffffff8111156123e3576123e2611ca4565b5b6123ef8582860161236f565b9150509250929050565b7f4e487b7100000000000000000000000000000000000000000000000000000000600052602260045260246000fd5b6000600282049050600182168061244057607f821691505b602082108103612453576124526123f9565b5b50919050565b7f4552433732313a20617070726f76616c20746f2063757272656e74206f776e6560008201527f7200000000000000000000000000000000000000000000000000000000000000602082015250565b60006124b5602183611d6f565b91506124c082612459565b604082019050919050565b600060208201905081810360008301526124e4816124a8565b9050919050565b7f4552433732313a20617070726f76652063616c6c6572206973206e6f7420746f60008201527f6b656e206f776e6572206f7220617070726f76656420666f7220616c6c000000602082015250565b6000612547603d83611d6f565b9150612552826124eb565b604082019050919050565b600060208201905081810360008301526125768161253a565b9050919050565b7f4552433732313a2063616c6c6572206973206e6f7420746f6b656e206f776e6560008201527f72206f7220617070726f76656400000000000000000000000000000000000000602082015250565b60006125d9602d83611d6f565b91506125e48261257d565b604082019050919050565b60006020820190508181036000830152612608816125cc565b9050919050565b600082905092915050565b60008190508160005260206000209050919050565b60006020601f8301049050919050565b600082821b905092915050565b60006008830261267c7fffffffffffffffffffffffffffffffffffffffffffffffffffffffffffffffff8261263f565b612686868361263f565b95508019841693508086168417925050509392505050565b6000819050919050565b60006126c36126be6126b984611e16565b61269e565b611e16565b9050919050565b6000819050919050565b6126dd836126a8565b6126f16126e9826126ca565b84845461264c565b825550505050565b600090565b6127066126f9565b6127118184846126d4565b505050565b5b818110156127355761272a6000826126fe565b600181019050612717565b5050565b601f82111561277a5761274b8161261a565b6127548461262f565b81016020851015612763578190505b61277761276f8561262f565b830182612716565b50505b505050565b600082821c905092915050565b600061279d6000198460080261277f565b1980831691505092915050565b60006127b6838361278c565b9150826002028217905092915050565b6127d0838361260f565b67ffffffffffffffff8111156127e9576127e861210e565b5b6127f38254612428565b6127fe828285612739565b6000601f83116001811461282d576000841561281b578287013590505b61282585826127aa565b86555061288d565b601f19841661283b8661261a565b60005b828110156128635784890135825560018201915060208501945060208101905061283e565b86831015612880578489013561287c601f89168261278c565b8355505b6001600288020188555050505b50505050505050565b7f4552433732313a20696e76616c696420746f6b656e2049440000000000000000600082015250565b60006128cc601883611d6f565b91506128d782612896565b602082019050919050565b600060208201905081810360008301526128fb816128bf565b9050919050565b7f4552433732313a2061646472657373207a65726f206973206e6f74206120766160008201527f6c6964206f776e65720000000000000000000000000000000000000000000000602082015250565b600061295e602983611d6f565b915061296982612902565b604082019050919050565b6000602082019050818103600083015261298d81612951565b9050919050565b600081905092915050565b60006129aa82611d64565b6129b48185612994565b93506129c4818560208601611d80565b80840191505092915050565b60006129dc828561299f565b91506129e8828461299f565b91508190509392505050565b7f4f776e61626c653a206e6577206f776e657220697320746865207a65726f206160008201527f6464726573730000000000000000000000000000000000000000000000000000602082015250565b6000612a50602683611d6f565b9150612a5b826129f4565b604082019050919050565b60006020820190508181036000830152612a7f81612a43565b9050919050565b7f4552433732313a207472616e736665722066726f6d20696e636f72726563742060008201527f6f776e6572000000000000000000000000000000000000000000000000000000602082015250565b6000612ae2602583611d6f565b9150612aed82612a86565b604082019050919050565b60006020820190508181036000830152612b1181612ad5565b9050919050565b7f4552433732313a207472616e7366657220746f20746865207a65726f2061646460008201527f7265737300000000000000000000000000000000000000000000000000000000602082015250565b6000612b74602483611d6f565b9150612b7f82612b18565b604082019050919050565b60006020820190508181036000830152612ba381612b67565b9050919050565b7f4f776e61626c653a2063616c6c6572206973206e6f7420746865206f776e6572600082015250565b6000612be0602083611d6f565b9150612beb82612baa565b602082019050919050565b60006020820190508181036000830152612c0f81612bd3565b9050919050565b7f4552433732313a20617070726f766520746f2063616c6c657200000000000000600082015250565b6000612c4c601983611d6f565b9150612c5782612c16565b602082019050919050565b60006020820190508181036000830152612c7b81612c3f565b9050919050565b7f4552433732313a207472616e7366657220746f206e6f6e20455243373231526560008201527f63656976657220696d706c656d656e7465720000000000000000000000000000602082015250565b6000612cde603283611d6f565b9150612ce982612c82565b604082019050919050565b60006020820190508181036000830152612d0d81612cd1565b9050919050565b7f4552433732313a206d696e7420746f20746865207a65726f2061646472657373600082015250565b6000612d4a602083611d6f565b9150612d5582612d14565b602082019050919050565b60006020820190508181036000830152612d7981612d3d565b9050919050565b7f4552433732313a20746f6b656e20616c7265616479206d696e74656400000000600082015250565b6000612db6601c83611d6f565b9150612dc182612d80565b602082019050919050565b60006020820190508181036000830152612de581612da9565b9050919050565b7f45524337323155524953746f726167653a2055524920736574206f66206e6f6e60008201527f6578697374656e7420746f6b656e000000000000000000000000000000000000602082015250565b6000612e48602e83611d6f565b9150612e5382612dec565b604082019050919050565b60006020820190508181036000830152612e7781612e3b565b9050919050565b612e8782611d64565b67ffffffffffffffff811115612ea057612e9f61210e565b5b612eaa8254612428565b612eb5828285612739565b600060209050601f831160018114612ee85760008415612ed6578287015190505b612ee085826127aa565b865550612f48565b601f198416612ef68661261a565b60005b82811015612f1e57848901518255600182019150602085019450602081019050612ef9565b86831015612f3b5784890151612f37601f89168261278c565b8355505b6001600288020188555050505b505050505050565b600081519050919050565b600082825260208201905092915050565b6000612f7782612f50565b612f818185612f5b565b9350612f91818560208601611d80565b612f9a81611daa565b840191505092915050565b6000608082019050612fba6000830187611eab565b612fc76020830186611eab565b612fd46040830185612073565b8181036060830152612fe68184612f6c565b905095945050505050565b60008151905061300081611cd5565b92915050565b60006020828403121561301c5761301b611c9f565b5b600061302a84828501612ff1565b91505092915050565b7f4e487b7100000000000000000000000000000000000000000000000000000000600052601260045260246000fdfea26469706673582212209feb27db7ed0bf516c69343532f1c77f38ba2b948d9322f00b7df89760fb71c164736f6c63430008120033",
  "linkReferences": {},
  "deployedLinkReferences": {}
}