{
  "_format": "hh-sol-artifact-1",
  "contractName": "MyNFT",
  "sourceName": "contracts/MyNft.sol",
  "abi": [
    {
      "inputs": [],
      "stateMutability": "nonpayable",
      "type": "constructor"
    },
    {
      "anonymous": false,
      "inputs": [
        {
          "indexed": true,
          "internalType": "address",
          "name": "owner",
          "type": "address"
        },
        {
          "indexed": true,
          "internalType": "address",
          "name": "approved",
          "type": "address"
        },
        {
          "indexed": true,
          "internalType": "uint256",
          "name": "tokenId",
          "type": "uint256"
        }
      ],
      "name": "Approval",
      "type": "event"
    },
    {
      "anonymous": false,
      "inputs": [
        {
          "indexed": true,
          "internalType": "address",
          "name": "owner",
          "type": "address"
        },
        {
          "indexed": true,
          "internalType": "address",
          "name": "operator",
          "type": "address"
        },
        {
          "indexed": false,
          "internalType": "bool",
          "name": "approved",
          "type": "bool"
        }
      ],
      "name": "ApprovalForAll",
      "type": "event"
    },
    {
      "anonymous": false,
      "inputs": [
        {
          "indexed": false,
          "internalType": "uint256",
          "name": "_fromTokenId",
          "type": "uint256"
        },
        {
          "indexed": false,
          "internalType": "uint256",
          "name": "_toTokenId",
          "type": "uint256"
        }
      ],
      "name": "BatchMetadataUpdate",
      "type": "event"
    },
    {
      "anonymous": false,
      "inputs": [
        {
          "indexed": false,
          "internalType": "uint256",
          "name": "_tokenId",
          "type": "uint256"
        }
      ],
      "name": "MetadataUpdate",
      "type": "event"
    },
    {
      "anonymous": false,
      "inputs": [
        {
          "indexed": true,
          "internalType": "address",
          "name": "previousOwner",
          "type": "address"
        },
        {
          "indexed": true,
          "internalType": "address",
          "name": "newOwner",
          "type": "address"
        }
      ],
      "name": "OwnershipTransferred",
      "type": "event"
    },
    {
      "anonymous": false,
      "inputs": [
        {
          "indexed": true,
          "internalType": "address",
          "name": "from",
          "type": "address"
        },
        {
          "indexed": true,
          "internalType": "address",
          "name": "to",
          "type": "address"
        },
        {
          "indexed": true,
          "internalType": "uint256",
          "name": "tokenId",
          "type": "uint256"
        }
      ],
      "name": "Transfer",
      "type": "event"
    },
    {
      "inputs": [
        {
          "internalType": "address",
          "name": "to",
          "type": "address"
        },
        {
          "internalType": "uint256",
          "name": "tokenId",
          "type": "uint256"
        }
      ],
      "name": "approve",
      "outputs": [],
      "stateMutability": "nonpayable",
      "type": "function"
    },
    {
      "inputs": [
        {
          "internalType": "address",
          "name": "owner",
          "type": "address"
        }
      ],
      "name": "balanceOf",
      "outputs": [
        {
          "internalType": "uint256",
          "name": "",
          "type": "uint256"
        }
      ],
      "stateMutability": "view",
      "type": "function"
    },
    {
      "inputs": [
        {
          "internalType": "uint256",
          "name": "tokenId",
          "type": "uint256"
        }
      ],
      "name": "getApproved",
      "outputs": [
        {
          "internalType": "address",
          "name": "",
          "type": "address"
        }
      ],
      "stateMutability": "view",
      "type": "function"
    },
    {
      "inputs": [
        {
          "internalType": "address",
          "name": "_contract",
          "type": "address"
        },
        {
          "internalType": "address",
          "name": "wallet",
          "type": "address"
        },
        {
          "internalType": "uint256",
          "name": "balance",
          "type": "uint256"
        }
      ],
      "name": "getTokenIdsFromContract",
      "outputs": [
        {
          "internalType": "uint256[]",
          "name": "",
          "type": "uint256[]"
        }
      ],
      "stateMutability": "view",
      "type": "function"
    },
    {
      "inputs": [
        {
          "internalType": "address",
          "name": "owner",
          "type": "address"
        },
        {
          "internalType": "address",
          "name": "operator",
          "type": "address"
        }
      ],
      "name": "isApprovedForAll",
      "outputs": [
        {
          "internalType": "bool",
          "name": "",
          "type": "bool"
        }
      ],
      "stateMutability": "view",
      "type": "function"
    },
    {
      "inputs": [
        {
          "internalType": "address",
          "name": "recipient",
          "type": "address"
        },
        {
          "internalType": "string",
          "name": "tokenURI",
          "type": "string"
        }
      ],
      "name": "mintNFT",
      "outputs": [
        {
          "internalType": "uint256",
          "name": "",
          "type": "uint256"
        }
      ],
      "stateMutability": "nonpayable",
      "type": "function"
    },
    {
      "inputs": [],
      "name": "name",
      "outputs": [
        {
          "internalType": "string",
          "name": "",
          "type": "string"
        }
      ],
      "stateMutability": "view",
      "type": "function"
    },
    {
      "inputs": [],
      "name": "owner",
      "outputs": [
        {
          "internalType": "address",
          "name": "",
          "type": "address"
        }
      ],
      "stateMutability": "view",
      "type": "function"
    },
    {
      "inputs": [
        {
          "internalType": "uint256",
          "name": "tokenId",
          "type": "uint256"
        }
      ],
      "name": "ownerOf",
      "outputs": [
        {
          "internalType": "address",
          "name": "",
          "type": "address"
        }
      ],
      "stateMutability": "view",
      "type": "function"
    },
    {
      "inputs": [],
      "name": "renounceOwnership",
      "outputs": [],
      "stateMutability": "nonpayable",
      "type": "function"
    },
    {
      "inputs": [
        {
          "internalType": "address",
          "name": "from",
          "type": "address"
        },
        {
          "internalType": "address",
          "name": "to",
          "type": "address"
        },
        {
          "internalType": "uint256",
          "name": "tokenId",
          "type": "uint256"
        }
      ],
      "name": "safeTransferFrom",
      "outputs": [],
      "stateMutability": "nonpayable",
      "type": "function"
    },
    {
      "inputs": [
        {
          "internalType": "address",
          "name": "from",
          "type": "address"
        },
        {
          "internalType": "address",
          "name": "to",
          "type": "address"
        },
        {
          "internalType": "uint256",
          "name": "tokenId",
          "type": "uint256"
        },
        {
          "internalType": "bytes",
          "name": "data",
          "type": "bytes"
        }
      ],
      "name": "safeTransferFrom",
      "outputs": [],
      "stateMutability": "nonpayable",
      "type": "function"
    },
    {
      "inputs": [
        {
          "internalType": "address",
          "name": "operator",
          "type": "address"
        },
        {
          "internalType": "bool",
          "name": "approved",
          "type": "bool"
        }
      ],
      "name": "setApprovalForAll",
      "outputs": [],
      "stateMutability": "nonpayable",
      "type": "function"
    },
    {
      "inputs": [
        {
          "internalType": "string",
          "name": "baseUri",
          "type": "string"
        }
      ],
      "name": "setBaseURI",
      "outputs": [],
      "stateMutability": "nonpayable",
      "type": "function"
    },
    {
      "inputs": [
        {
          "internalType": "bytes4",
          "name": "interfaceId",
          "type": "bytes4"
        }
      ],
      "name": "supportsInterface",
      "outputs": [
        {
          "internalType": "bool",
          "name": "",
          "type": "bool"
        }
      ],
      "stateMutability": "view",
      "type": "function"
    },
    {
      "inputs": [],
      "name": "symbol",
      "outputs": [
        {
          "internalType": "string",
          "name": "",
          "type": "string"
        }
      ],
      "stateMutability": "view",
      "type": "function"
    },
    {
      "inputs": [
        {
          "internalType": "uint256",
          "name": "tokenId",
          "type": "uint256"
        }
      ],
      "name": "tokenURI",
      "outputs": [
        {
          "internalType": "string",
          "name": "",
          "type": "string"
        }
      ],
      "stateMutability": "view",
      "type": "function"
    },
    {
      "inputs": [
        {
          "internalType": "address",
          "name": "from",
          "type": "address"
        },
        {
          "internalType": "address",
          "name": "to",
          "type": "address"
        },
        {
          "internalType": "uint256",
          "name": "tokenId",
          "type": "uint256"
        }
      ],
      "name": "transferFrom",
      "outputs": [],
      "stateMutability": "nonpayable",
      "type": "function"
    },
    {
      "inputs": [
        {
          "internalType": "address",
          "name": "newOwner",
          "type": "address"
        }
      ],
      "name": "transferOwnership",
      "outputs": [],
      "stateMutability": "nonpayable",
      "type": "function"
    }
  ],
  "bytecode": "0x60806040523480156200001157600080fd5b506040518060400160405280600581526020017f4d794e46540000000000000000000000000000000000000000000000000000008152506040518060400160405280600381526020017f4e4654000000000000000000000000000000000000000000000000000000000081525081600090816200008f919062000412565b508060019081620000a1919062000412565b505050620000c4620000b8620000ca60201b60201c565b620000d260201b60201c565b620004f9565b600033905090565b6000600760009054906101000a900473ffffffffffffffffffffffffffffffffffffffff16905081600760006101000a81548173ffffffffffffffffffffffffffffffffffffffff021916908373ffffffffffffffffffffffffffffffffffffffff1602179055508173ffffffffffffffffffffffffffffffffffffffff168173ffffffffffffffffffffffffffffffffffffffff167f8be0079c531659141344cd1fd0a4f28419497f9722a3daafe3b4186f6b6457e060405160405180910390a35050565b600081519050919050565b7f4e487b7100000000000000000000000000000000000000000000000000000000600052604160045260246000fd5b7f4e487b7100000000000000000000000000000000000000000000000000000000600052602260045260246000fd5b600060028204905060018216806200021a57607f821691505b60208210810362000230576200022f620001d2565b5b50919050565b60008190508160005260206000209050919050565b60006020601f8301049050919050565b600082821b905092915050565b6000600883026200029a7fffffffffffffffffffffffffffffffffffffffffffffffffffffffffffffffff826200025b565b620002a686836200025b565b95508019841693508086168417925050509392505050565b6000819050919050565b6000819050919050565b6000620002f3620002ed620002e784620002be565b620002c8565b620002be565b9050919050565b6000819050919050565b6200030f83620002d2565b620003276200031e82620002fa565b84845462000268565b825550505050565b600090565b6200033e6200032f565b6200034b81848462000304565b505050565b5b8181101562000373576200036760008262000334565b60018101905062000351565b5050565b601f821115620003c2576200038c8162000236565b62000397846200024b565b81016020851015620003a7578190505b620003bf620003b6856200024b565b83018262000350565b50505b505050565b600082821c905092915050565b6000620003e760001984600802620003c7565b1980831691505092915050565b6000620004028383620003d4565b9150826002028217905092915050565b6200041d8262000198565b67ffffffffffffffff811115620004395762000438620001a3565b5b62000445825462000201565b6200045282828562000377565b600060209050601f8311600181146200048a576000841562000475578287015190505b620004818582620003f4565b865550620004f1565b601f1984166200049a8662000236565b60005b82811015620004c4578489015182556001820191506020850194506020810190506200049d565b86831015620004e45784890151620004e0601f891682620003d4565b8355505b6001600288020188555050505b505050505050565b6133d880620005096000396000f3fe608060405234801561001057600080fd5b50600436106101215760003560e01c8063715018a6116100ad578063c87b56dd11610071578063c87b56dd146102f2578063e985e9c514610322578063eacabe1414610352578063f2fde38b14610382578063f39005881461039e57610121565b8063715018a6146102745780638da5cb5b1461027e57806395d89b411461029c578063a22cb465146102ba578063b88d4fde146102d657610121565b806323b872dd116100f457806323b872dd146101c057806342842e0e146101dc57806355f804b3146101f85780636352211e1461021457806370a082311461024457610121565b806301ffc9a71461012657806306fdde0314610156578063081812fc14610174578063095ea7b3146101a4575b600080fd5b610140600480360381019061013b9190611e50565b6103ce565b60405161014d9190611e98565b60405180910390f35b61015e61042f565b60405161016b9190611f43565b60405180910390f35b61018e60048036038101906101899190611f9b565b6104c1565b60405161019b9190612009565b60405180910390f35b6101be60048036038101906101b99190612050565b610507565b005b6101da60048036038101906101d59190612090565b61061e565b005b6101f660048036038101906101f19190612090565b61067e565b005b610212600480360381019061020d9190612148565b61069e565b005b61022e60048036038101906102299190611f9b565b6106bc565b60405161023b9190612009565b60405180910390f35b61025e60048036038101906102599190612195565b610742565b60405161026b91906121d1565b60405180910390f35b61027c6107f9565b005b61028661080d565b6040516102939190612009565b60405180910390f35b6102a4610837565b6040516102b19190611f43565b60405180910390f35b6102d460048036038101906102cf9190612218565b6108c9565b005b6102f060048036038101906102eb9190612388565b6108df565b005b61030c60048036038101906103079190611f9b565b610941565b6040516103199190611f43565b60405180910390f35b61033c6004803603810190610337919061240b565b610a53565b6040516103499190611e98565b60405180910390f35b61036c600480360381019061036791906124ec565b610ae7565b60405161037991906121d1565b60405180910390f35b61039c60048036038101906103979190612195565b610b27565b005b6103b860048036038101906103b39190612090565b610baa565b6040516103c59190612606565b60405180910390f35b6000634906490660e01b7bffffffffffffffffffffffffffffffffffffffffffffffffffffffff1916827bffffffffffffffffffffffffffffffffffffffffffffffffffffffff19161480610428575061042782610cbe565b5b9050919050565b60606000805461043e90612657565b80601f016020809104026020016040519081016040528092919081815260200182805461046a90612657565b80156104b75780601f1061048c576101008083540402835291602001916104b7565b820191906000526020600020905b81548152906001019060200180831161049a57829003601f168201915b5050505050905090565b60006104cc82610da0565b6004600083815260200190815260200160002060009054906101000a900473ffffffffffffffffffffffffffffffffffffffff169050919050565b6000610512826106bc565b90508073ffffffffffffffffffffffffffffffffffffffff168373ffffffffffffffffffffffffffffffffffffffff1603610582576040517f08c379a0000000000000000000000000000000000000000000000000000000008152600401610579906126fa565b60405180910390fd5b8073ffffffffffffffffffffffffffffffffffffffff166105a1610deb565b73ffffffffffffffffffffffffffffffffffffffff1614806105d057506105cf816105ca610deb565b610a53565b5b61060f576040517f08c379a00000000000000000000000000000000000000000000000000000000081526004016106069061278c565b60405180910390fd5b6106198383610df3565b505050565b61062f610629610deb565b82610eac565b61066e576040517f08c379a00000000000000000000000000000000000000000000000000000000081526004016106659061281e565b60405180910390fd5b610679838383610f41565b505050565b610699838383604051806020016040528060008152506108df565b505050565b6106a661123a565b8181600991826106b79291906129f5565b505050565b6000806106c8836112b8565b9050600073ffffffffffffffffffffffffffffffffffffffff168173ffffffffffffffffffffffffffffffffffffffff1603610739576040517f08c379a000000000000000000000000000000000000000000000000000000000815260040161073090612b11565b60405180910390fd5b80915050919050565b60008073ffffffffffffffffffffffffffffffffffffffff168273ffffffffffffffffffffffffffffffffffffffff16036107b2576040517f08c379a00000000000000000000000000000000000000000000000000000000081526004016107a990612ba3565b60405180910390fd5b600360008373ffffffffffffffffffffffffffffffffffffffff1673ffffffffffffffffffffffffffffffffffffffff168152602001908152602001600020549050919050565b61080161123a565b61080b60006112f5565b565b6000600760009054906101000a900473ffffffffffffffffffffffffffffffffffffffff16905090565b60606001805461084690612657565b80601f016020809104026020016040519081016040528092919081815260200182805461087290612657565b80156108bf5780601f10610894576101008083540402835291602001916108bf565b820191906000526020600020905b8154815290600101906020018083116108a257829003601f168201915b5050505050905090565b6108db6108d4610deb565b83836113bb565b5050565b6108f06108ea610deb565b83610eac565b61092f576040517f08c379a00000000000000000000000000000000000000000000000000000000081526004016109269061281e565b60405180910390fd5b61093b84848484611527565b50505050565b606061094c82610da0565b600060066000848152602001908152602001600020805461096c90612657565b80601f016020809104026020016040519081016040528092919081815260200182805461099890612657565b80156109e55780601f106109ba576101008083540402835291602001916109e5565b820191906000526020600020905b8154815290600101906020018083116109c857829003601f168201915b5050505050905060006109f6611583565b90506000815103610a0b578192505050610a4e565b600082511115610a40578082604051602001610a28929190612bff565b60405160208183030381529060405292505050610a4e565b610a4984611615565b925050505b919050565b6000600560008473ffffffffffffffffffffffffffffffffffffffff1673ffffffffffffffffffffffffffffffffffffffff16815260200190815260200160002060008373ffffffffffffffffffffffffffffffffffffffff1673ffffffffffffffffffffffffffffffffffffffff16815260200190815260200160002060009054906101000a900460ff16905092915050565b6000610af161123a565b610afb600861167d565b6000610b076008611693565b9050610b1384826116a1565b610b1d81846118be565b8091505092915050565b610b2f61123a565b600073ffffffffffffffffffffffffffffffffffffffff168173ffffffffffffffffffffffffffffffffffffffff1603610b9e576040517f08c379a0000000000000000000000000000000000000000000000000000000008152600401610b9590612c95565b60405180910390fd5b610ba7816112f5565b50565b606060008267ffffffffffffffff811115610bc857610bc761225d565b5b604051908082528060200260200182016040528015610bf65781602001602082028036833780820191505090505b50905060005b83811015610cb2578573ffffffffffffffffffffffffffffffffffffffff16632f745c5986836040518363ffffffff1660e01b8152600401610c3f929190612cb5565b602060405180830381865afa158015610c5c573d6000803e3d6000fd5b505050506040513d601f19601f82011682018060405250810190610c809190612cf3565b828281518110610c9357610c92612d20565b5b6020026020010181815250508080610caa90612d7e565b915050610bfc565b50809150509392505050565b60007f80ac58cd000000000000000000000000000000000000000000000000000000007bffffffffffffffffffffffffffffffffffffffffffffffffffffffff1916827bffffffffffffffffffffffffffffffffffffffffffffffffffffffff19161480610d8957507f5b5e139f000000000000000000000000000000000000000000000000000000007bffffffffffffffffffffffffffffffffffffffffffffffffffffffff1916827bffffffffffffffffffffffffffffffffffffffffffffffffffffffff1916145b80610d995750610d9882611962565b5b9050919050565b610da9816119cc565b610de8576040517f08c379a0000000000000000000000000000000000000000000000000000000008152600401610ddf90612b11565b60405180910390fd5b50565b600033905090565b816004600083815260200190815260200160002060006101000a81548173ffffffffffffffffffffffffffffffffffffffff021916908373ffffffffffffffffffffffffffffffffffffffff160217905550808273ffffffffffffffffffffffffffffffffffffffff16610e66836106bc565b73ffffffffffffffffffffffffffffffffffffffff167f8c5be1e5ebec7d5bd14f71427d1e84f3dd0314c0f7b2291e5b200ac8c7c3b92560405160405180910390a45050565b600080610eb8836106bc565b90508073ffffffffffffffffffffffffffffffffffffffff168473ffffffffffffffffffffffffffffffffffffffff161480610efa5750610ef98185610a53565b5b80610f3857508373ffffffffffffffffffffffffffffffffffffffff16610f20846104c1565b73ffffffffffffffffffffffffffffffffffffffff16145b91505092915050565b8273ffffffffffffffffffffffffffffffffffffffff16610f61826106bc565b73ffffffffffffffffffffffffffffffffffffffff1614610fb7576040517f08c379a0000000000000000000000000000000000000000000000000000000008152600401610fae90612e38565b60405180910390fd5b600073ffffffffffffffffffffffffffffffffffffffff168273ffffffffffffffffffffffffffffffffffffffff1603611026576040517f08c379a000000000000000000000000000000000000000000000000000000000815260040161101d90612eca565b60405180910390fd5b6110338383836001611a0d565b8273ffffffffffffffffffffffffffffffffffffffff16611053826106bc565b73ffffffffffffffffffffffffffffffffffffffff16146110a9576040517f08c379a00000000000000000000000000000000000000000000000000000000081526004016110a090612e38565b60405180910390fd5b6004600082815260200190815260200160002060006101000a81549073ffffffffffffffffffffffffffffffffffffffff02191690556001600360008573ffffffffffffffffffffffffffffffffffffffff1673ffffffffffffffffffffffffffffffffffffffff168152602001908152602001600020600082825403925050819055506001600360008473ffffffffffffffffffffffffffffffffffffffff1673ffffffffffffffffffffffffffffffffffffffff16815260200190815260200160002060008282540192505081905550816002600083815260200190815260200160002060006101000a81548173ffffffffffffffffffffffffffffffffffffffff021916908373ffffffffffffffffffffffffffffffffffffffff160217905550808273ffffffffffffffffffffffffffffffffffffffff168473ffffffffffffffffffffffffffffffffffffffff167fddf252ad1be2c89b69c2b068fc378daa952ba7f163c4a11628f55a4df523b3ef60405160405180910390a46112358383836001611a13565b505050565b611242610deb565b73ffffffffffffffffffffffffffffffffffffffff1661126061080d565b73ffffffffffffffffffffffffffffffffffffffff16146112b6576040517f08c379a00000000000000000000000000000000000000000000000000000000081526004016112ad90612f36565b60405180910390fd5b565b60006002600083815260200190815260200160002060009054906101000a900473ffffffffffffffffffffffffffffffffffffffff169050919050565b6000600760009054906101000a900473ffffffffffffffffffffffffffffffffffffffff16905081600760006101000a81548173ffffffffffffffffffffffffffffffffffffffff021916908373ffffffffffffffffffffffffffffffffffffffff1602179055508173ffffffffffffffffffffffffffffffffffffffff168173ffffffffffffffffffffffffffffffffffffffff167f8be0079c531659141344cd1fd0a4f28419497f9722a3daafe3b4186f6b6457e060405160405180910390a35050565b8173ffffffffffffffffffffffffffffffffffffffff168373ffffffffffffffffffffffffffffffffffffffff1603611429576040517f08c379a000000000000000000000000000000000000000000000000000000000815260040161142090612fa2565b60405180910390fd5b80600560008573ffffffffffffffffffffffffffffffffffffffff1673ffffffffffffffffffffffffffffffffffffffff16815260200190815260200160002060008473ffffffffffffffffffffffffffffffffffffffff1673ffffffffffffffffffffffffffffffffffffffff16815260200190815260200160002060006101000a81548160ff0219169083151502179055508173ffffffffffffffffffffffffffffffffffffffff168373ffffffffffffffffffffffffffffffffffffffff167f17307eab39ab6107e8899845ad3d59bd9653f200f220920489ca2b5937696c318360405161151a9190611e98565b60405180910390a3505050565b611532848484610f41565b61153e84848484611a19565b61157d576040517f08c379a000000000000000000000000000000000000000000000000000000000815260040161157490613034565b60405180910390fd5b50505050565b60606009805461159290612657565b80601f01602080910402602001604051908101604052809291908181526020018280546115be90612657565b801561160b5780601f106115e05761010080835404028352916020019161160b565b820191906000526020600020905b8154815290600101906020018083116115ee57829003601f168201915b5050505050905090565b606061162082610da0565b600061162a611583565b9050600081511161164a5760405180602001604052806000815250611675565b8061165484611ba0565b604051602001611665929190612bff565b6040516020818303038152906040525b915050919050565b6001816000016000828254019250508190555050565b600081600001549050919050565b600073ffffffffffffffffffffffffffffffffffffffff168273ffffffffffffffffffffffffffffffffffffffff1603611710576040517f08c379a0000000000000000000000000000000000000000000000000000000008152600401611707906130a0565b60405180910390fd5b611719816119cc565b15611759576040517f08c379a00000000000000000000000000000000000000000000000000000000081526004016117509061310c565b60405180910390fd5b611767600083836001611a0d565b611770816119cc565b156117b0576040517f08c379a00000000000000000000000000000000000000000000000000000000081526004016117a79061310c565b60405180910390fd5b6001600360008473ffffffffffffffffffffffffffffffffffffffff1673ffffffffffffffffffffffffffffffffffffffff16815260200190815260200160002060008282540192505081905550816002600083815260200190815260200160002060006101000a81548173ffffffffffffffffffffffffffffffffffffffff021916908373ffffffffffffffffffffffffffffffffffffffff160217905550808273ffffffffffffffffffffffffffffffffffffffff16600073ffffffffffffffffffffffffffffffffffffffff167fddf252ad1be2c89b69c2b068fc378daa952ba7f163c4a11628f55a4df523b3ef60405160405180910390a46118ba600083836001611a13565b5050565b6118c7826119cc565b611906576040517f08c379a00000000000000000000000000000000000000000000000000000000081526004016118fd9061319e565b60405180910390fd5b8060066000848152602001908152602001600020908161192691906131be565b507ff8e1a15aba9398e019f0b49df1a4fde98ee17ae345cb5f6b5e2c27f5033e8ce78260405161195691906121d1565b60405180910390a15050565b60007f01ffc9a7000000000000000000000000000000000000000000000000000000007bffffffffffffffffffffffffffffffffffffffffffffffffffffffff1916827bffffffffffffffffffffffffffffffffffffffffffffffffffffffff1916149050919050565b60008073ffffffffffffffffffffffffffffffffffffffff166119ee836112b8565b73ffffffffffffffffffffffffffffffffffffffff1614159050919050565b50505050565b50505050565b6000611a3a8473ffffffffffffffffffffffffffffffffffffffff16611c6e565b15611b93578373ffffffffffffffffffffffffffffffffffffffff1663150b7a02611a63610deb565b8786866040518563ffffffff1660e01b8152600401611a8594939291906132e5565b6020604051808303816000875af1925050508015611ac157506040513d601f19601f82011682018060405250810190611abe9190613346565b60015b611b43573d8060008114611af1576040519150601f19603f3d011682016040523d82523d6000602084013e611af6565b606091505b506000815103611b3b576040517f08c379a0000000000000000000000000000000000000000000000000000000008152600401611b3290613034565b60405180910390fd5b805181602001fd5b63150b7a0260e01b7bffffffffffffffffffffffffffffffffffffffffffffffffffffffff1916817bffffffffffffffffffffffffffffffffffffffffffffffffffffffff191614915050611b98565b600190505b949350505050565b606060006001611baf84611c91565b01905060008167ffffffffffffffff811115611bce57611bcd61225d565b5b6040519080825280601f01601f191660200182016040528015611c005781602001600182028036833780820191505090505b509050600082602001820190505b600115611c63578080600190039150507f3031323334353637383961626364656600000000000000000000000000000000600a86061a8153600a8581611c5757611c56613373565b5b04945060008503611c0e575b819350505050919050565b6000808273ffffffffffffffffffffffffffffffffffffffff163b119050919050565b600080600090507a184f03e93ff9f4daa797ed6e38ed64bf6a1f0100000000000000008310611cef577a184f03e93ff9f4daa797ed6e38ed64bf6a1f0100000000000000008381611ce557611ce4613373565b5b0492506040810190505b6d04ee2d6d415b85acef81000000008310611d2c576d04ee2d6d415b85acef81000000008381611d2257611d21613373565b5b0492506020810190505b662386f26fc100008310611d5b57662386f26fc100008381611d5157611d50613373565b5b0492506010810190505b6305f5e1008310611d84576305f5e1008381611d7a57611d79613373565b5b0492506008810190505b6127108310611da9576127108381611d9f57611d9e613373565b5b0492506004810190505b60648310611dcc5760648381611dc257611dc1613373565b5b0492506002810190505b600a8310611ddb576001810190505b80915050919050565b6000604051905090565b600080fd5b600080fd5b60007fffffffff0000000000000000000000000000000000000000000000000000000082169050919050565b611e2d81611df8565b8114611e3857600080fd5b50565b600081359050611e4a81611e24565b92915050565b600060208284031215611e6657611e65611dee565b5b6000611e7484828501611e3b565b91505092915050565b60008115159050919050565b611e9281611e7d565b82525050565b6000602082019050611ead6000830184611e89565b92915050565b600081519050919050565b600082825260208201905092915050565b60005b83811015611eed578082015181840152602081019050611ed2565b60008484015250505050565b6000601f19601f8301169050919050565b6000611f1582611eb3565b611f1f8185611ebe565b9350611f2f818560208601611ecf565b611f3881611ef9565b840191505092915050565b60006020820190508181036000830152611f5d8184611f0a565b905092915050565b6000819050919050565b611f7881611f65565b8114611f8357600080fd5b50565b600081359050611f9581611f6f565b92915050565b600060208284031215611fb157611fb0611dee565b5b6000611fbf84828501611f86565b91505092915050565b600073ffffffffffffffffffffffffffffffffffffffff82169050919050565b6000611ff382611fc8565b9050919050565b61200381611fe8565b82525050565b600060208201905061201e6000830184611ffa565b92915050565b61202d81611fe8565b811461203857600080fd5b50565b60008135905061204a81612024565b92915050565b6000806040838503121561206757612066611dee565b5b60006120758582860161203b565b925050602061208685828601611f86565b9150509250929050565b6000806000606084860312156120a9576120a8611dee565b5b60006120b78682870161203b565b93505060206120c88682870161203b565b92505060406120d986828701611f86565b9150509250925092565b600080fd5b600080fd5b600080fd5b60008083601f840112612108576121076120e3565b5b8235905067ffffffffffffffff811115612125576121246120e8565b5b602083019150836001820283011115612141576121406120ed565b5b9250929050565b6000806020838503121561215f5761215e611dee565b5b600083013567ffffffffffffffff81111561217d5761217c611df3565b5b612189858286016120f2565b92509250509250929050565b6000602082840312156121ab576121aa611dee565b5b60006121b98482850161203b565b91505092915050565b6121cb81611f65565b82525050565b60006020820190506121e660008301846121c2565b92915050565b6121f581611e7d565b811461220057600080fd5b50565b600081359050612212816121ec565b92915050565b6000806040838503121561222f5761222e611dee565b5b600061223d8582860161203b565b925050602061224e85828601612203565b9150509250929050565b600080fd5b7f4e487b7100000000000000000000000000000000000000000000000000000000600052604160045260246000fd5b61229582611ef9565b810181811067ffffffffffffffff821117156122b4576122b361225d565b5b80604052505050565b60006122c7611de4565b90506122d3828261228c565b919050565b600067ffffffffffffffff8211156122f3576122f261225d565b5b6122fc82611ef9565b9050602081019050919050565b82818337600083830152505050565b600061232b612326846122d8565b6122bd565b90508281526020810184848401111561234757612346612258565b5b612352848285612309565b509392505050565b600082601f83011261236f5761236e6120e3565b5b813561237f848260208601612318565b91505092915050565b600080600080608085870312156123a2576123a1611dee565b5b60006123b08782880161203b565b94505060206123c18782880161203b565b93505060406123d287828801611f86565b925050606085013567ffffffffffffffff8111156123f3576123f2611df3565b5b6123ff8782880161235a565b91505092959194509250565b6000806040838503121561242257612421611dee565b5b60006124308582860161203b565b92505060206124418582860161203b565b9150509250929050565b600067ffffffffffffffff8211156124665761246561225d565b5b61246f82611ef9565b9050602081019050919050565b600061248f61248a8461244b565b6122bd565b9050828152602081018484840111156124ab576124aa612258565b5b6124b6848285612309565b509392505050565b600082601f8301126124d3576124d26120e3565b5b81356124e384826020860161247c565b91505092915050565b6000806040838503121561250357612502611dee565b5b60006125118582860161203b565b925050602083013567ffffffffffffffff81111561253257612531611df3565b5b61253e858286016124be565b9150509250929050565b600081519050919050565b600082825260208201905092915050565b6000819050602082019050919050565b61257d81611f65565b82525050565b600061258f8383612574565b60208301905092915050565b6000602082019050919050565b60006125b382612548565b6125bd8185612553565b93506125c883612564565b8060005b838110156125f95781516125e08882612583565b97506125eb8361259b565b9250506001810190506125cc565b5085935050505092915050565b6000602082019050818103600083015261262081846125a8565b905092915050565b7f4e487b7100000000000000000000000000000000000000000000000000000000600052602260045260246000fd5b6000600282049050600182168061266f57607f821691505b60208210810361268257612681612628565b5b50919050565b7f4552433732313a20617070726f76616c20746f2063757272656e74206f776e6560008201527f7200000000000000000000000000000000000000000000000000000000000000602082015250565b60006126e4602183611ebe565b91506126ef82612688565b604082019050919050565b60006020820190508181036000830152612713816126d7565b9050919050565b7f4552433732313a20617070726f76652063616c6c6572206973206e6f7420746f60008201527f6b656e206f776e6572206f7220617070726f76656420666f7220616c6c000000602082015250565b6000612776603d83611ebe565b91506127818261271a565b604082019050919050565b600060208201905081810360008301526127a581612769565b9050919050565b7f4552433732313a2063616c6c6572206973206e6f7420746f6b656e206f776e6560008201527f72206f7220617070726f76656400000000000000000000000000000000000000602082015250565b6000612808602d83611ebe565b9150612813826127ac565b604082019050919050565b60006020820190508181036000830152612837816127fb565b9050919050565b600082905092915050565b60008190508160005260206000209050919050565b60006020601f8301049050919050565b600082821b905092915050565b6000600883026128ab7fffffffffffffffffffffffffffffffffffffffffffffffffffffffffffffffff8261286e565b6128b5868361286e565b95508019841693508086168417925050509392505050565b6000819050919050565b60006128f26128ed6128e884611f65565b6128cd565b611f65565b9050919050565b6000819050919050565b61290c836128d7565b612920612918826128f9565b84845461287b565b825550505050565b600090565b612935612928565b612940818484612903565b505050565b5b818110156129645761295960008261292d565b600181019050612946565b5050565b601f8211156129a95761297a81612849565b6129838461285e565b81016020851015612992578190505b6129a661299e8561285e565b830182612945565b50505b505050565b600082821c905092915050565b60006129cc600019846008026129ae565b1980831691505092915050565b60006129e583836129bb565b9150826002028217905092915050565b6129ff838361283e565b67ffffffffffffffff811115612a1857612a1761225d565b5b612a228254612657565b612a2d828285612968565b6000601f831160018114612a5c5760008415612a4a578287013590505b612a5485826129d9565b865550612abc565b601f198416612a6a86612849565b60005b82811015612a9257848901358255600182019150602085019450602081019050612a6d565b86831015612aaf5784890135612aab601f8916826129bb565b8355505b6001600288020188555050505b50505050505050565b7f4552433732313a20696e76616c696420746f6b656e2049440000000000000000600082015250565b6000612afb601883611ebe565b9150612b0682612ac5565b602082019050919050565b60006020820190508181036000830152612b2a81612aee565b9050919050565b7f4552433732313a2061646472657373207a65726f206973206e6f74206120766160008201527f6c6964206f776e65720000000000000000000000000000000000000000000000602082015250565b6000612b8d602983611ebe565b9150612b9882612b31565b604082019050919050565b60006020820190508181036000830152612bbc81612b80565b9050919050565b600081905092915050565b6000612bd982611eb3565b612be38185612bc3565b9350612bf3818560208601611ecf565b80840191505092915050565b6000612c0b8285612bce565b9150612c178284612bce565b91508190509392505050565b7f4f776e61626c653a206e6577206f776e657220697320746865207a65726f206160008201527f6464726573730000000000000000000000000000000000000000000000000000602082015250565b6000612c7f602683611ebe565b9150612c8a82612c23565b604082019050919050565b60006020820190508181036000830152612cae81612c72565b9050919050565b6000604082019050612cca6000830185611ffa565b612cd760208301846121c2565b9392505050565b600081519050612ced81611f6f565b92915050565b600060208284031215612d0957612d08611dee565b5b6000612d1784828501612cde565b91505092915050565b7f4e487b7100000000000000000000000000000000000000000000000000000000600052603260045260246000fd5b7f4e487b7100000000000000000000000000000000000000000000000000000000600052601160045260246000fd5b6000612d8982611f65565b91507fffffffffffffffffffffffffffffffffffffffffffffffffffffffffffffffff8203612dbb57612dba612d4f565b5b600182019050919050565b7f4552433732313a207472616e736665722066726f6d20696e636f72726563742060008201527f6f776e6572000000000000000000000000000000000000000000000000000000602082015250565b6000612e22602583611ebe565b9150612e2d82612dc6565b604082019050919050565b60006020820190508181036000830152612e5181612e15565b9050919050565b7f4552433732313a207472616e7366657220746f20746865207a65726f2061646460008201527f7265737300000000000000000000000000000000000000000000000000000000602082015250565b6000612eb4602483611ebe565b9150612ebf82612e58565b604082019050919050565b60006020820190508181036000830152612ee381612ea7565b9050919050565b7f4f776e61626c653a2063616c6c6572206973206e6f7420746865206f776e6572600082015250565b6000612f20602083611ebe565b9150612f2b82612eea565b602082019050919050565b60006020820190508181036000830152612f4f81612f13565b9050919050565b7f4552433732313a20617070726f766520746f2063616c6c657200000000000000600082015250565b6000612f8c601983611ebe565b9150612f9782612f56565b602082019050919050565b60006020820190508181036000830152612fbb81612f7f565b9050919050565b7f4552433732313a207472616e7366657220746f206e6f6e20455243373231526560008201527f63656976657220696d706c656d656e7465720000000000000000000000000000602082015250565b600061301e603283611ebe565b915061302982612fc2565b604082019050919050565b6000602082019050818103600083015261304d81613011565b9050919050565b7f4552433732313a206d696e7420746f20746865207a65726f2061646472657373600082015250565b600061308a602083611ebe565b915061309582613054565b602082019050919050565b600060208201905081810360008301526130b98161307d565b9050919050565b7f4552433732313a20746f6b656e20616c7265616479206d696e74656400000000600082015250565b60006130f6601c83611ebe565b9150613101826130c0565b602082019050919050565b60006020820190508181036000830152613125816130e9565b9050919050565b7f45524337323155524953746f726167653a2055524920736574206f66206e6f6e60008201527f6578697374656e7420746f6b656e000000000000000000000000000000000000602082015250565b6000613188602e83611ebe565b91506131938261312c565b604082019050919050565b600060208201905081810360008301526131b78161317b565b9050919050565b6131c782611eb3565b67ffffffffffffffff8111156131e0576131df61225d565b5b6131ea8254612657565b6131f5828285612968565b600060209050601f8311600181146132285760008415613216578287015190505b61322085826129d9565b865550613288565b601f19841661323686612849565b60005b8281101561325e57848901518255600182019150602085019450602081019050613239565b8683101561327b5784890151613277601f8916826129bb565b8355505b6001600288020188555050505b505050505050565b600081519050919050565b600082825260208201905092915050565b60006132b782613290565b6132c1818561329b565b93506132d1818560208601611ecf565b6132da81611ef9565b840191505092915050565b60006080820190506132fa6000830187611ffa565b6133076020830186611ffa565b61331460408301856121c2565b818103606083015261332681846132ac565b905095945050505050565b60008151905061334081611e24565b92915050565b60006020828403121561335c5761335b611dee565b5b600061336a84828501613331565b91505092915050565b7f4e487b7100000000000000000000000000000000000000000000000000000000600052601260045260246000fdfea2646970667358221220eabb98645590c15df056716618bc8ae73da28a96530086118cce260181603db664736f6c63430008120033",
  "linkReferences": {},
  "deployedLinkReferences": {}
}