{
  "_format": "hh-sol-artifact-1",
  "contractName": "Evolve",
  "sourceName": "contracts/Evolve.sol",
  "abi": [
    {
      "inputs": [],
      "stateMutability": "nonpayable",
      "type": "constructor"
    },
    {
      "anonymous": false,
      "inputs": [
        {
          "indexed": true,
          "internalType": "address",
          "name": "owner",
          "type": "address"
        },
        {
          "indexed": true,
          "internalType": "address",
          "name": "approved",
          "type": "address"
        },
        {
          "indexed": true,
          "internalType": "uint256",
          "name": "tokenId",
          "type": "uint256"
        }
      ],
      "name": "Approval",
      "type": "event"
    },
    {
      "anonymous": false,
      "inputs": [
        {
          "indexed": true,
          "internalType": "address",
          "name": "owner",
          "type": "address"
        },
        {
          "indexed": true,
          "internalType": "address",
          "name": "operator",
          "type": "address"
        },
        {
          "indexed": false,
          "internalType": "bool",
          "name": "approved",
          "type": "bool"
        }
      ],
      "name": "ApprovalForAll",
      "type": "event"
    },
    {
      "anonymous": false,
      "inputs": [
        {
          "indexed": false,
          "internalType": "uint256",
          "name": "_fromTokenId",
          "type": "uint256"
        },
        {
          "indexed": false,
          "internalType": "uint256",
          "name": "_toTokenId",
          "type": "uint256"
        }
      ],
      "name": "BatchMetadataUpdate",
      "type": "event"
    },
    {
      "anonymous": false,
      "inputs": [
        {
          "indexed": false,
          "internalType": "uint256",
          "name": "_tokenId",
          "type": "uint256"
        }
      ],
      "name": "MetadataUpdate",
      "type": "event"
    },
    {
      "anonymous": false,
      "inputs": [
        {
          "indexed": true,
          "internalType": "address",
          "name": "previousOwner",
          "type": "address"
        },
        {
          "indexed": true,
          "internalType": "address",
          "name": "newOwner",
          "type": "address"
        }
      ],
      "name": "OwnershipTransferred",
      "type": "event"
    },
    {
      "anonymous": false,
      "inputs": [
        {
          "indexed": true,
          "internalType": "address",
          "name": "from",
          "type": "address"
        },
        {
          "indexed": true,
          "internalType": "address",
          "name": "to",
          "type": "address"
        },
        {
          "indexed": true,
          "internalType": "uint256",
          "name": "tokenId",
          "type": "uint256"
        }
      ],
      "name": "Transfer",
      "type": "event"
    },
    {
      "inputs": [
        {
          "internalType": "address",
          "name": "to",
          "type": "address"
        },
        {
          "internalType": "uint256",
          "name": "tokenId",
          "type": "uint256"
        }
      ],
      "name": "approve",
      "outputs": [],
      "stateMutability": "nonpayable",
      "type": "function"
    },
    {
      "inputs": [
        {
          "internalType": "address",
          "name": "owner",
          "type": "address"
        }
      ],
      "name": "balanceOf",
      "outputs": [
        {
          "internalType": "uint256",
          "name": "",
          "type": "uint256"
        }
      ],
      "stateMutability": "view",
      "type": "function"
    },
    {
      "inputs": [
        {
          "internalType": "uint256",
          "name": "tokenId",
          "type": "uint256"
        }
      ],
      "name": "evoStage",
      "outputs": [
        {
          "internalType": "uint8",
          "name": "",
          "type": "uint8"
        }
      ],
      "stateMutability": "view",
      "type": "function"
    },
    {
      "inputs": [
        {
          "internalType": "uint256",
          "name": "tokenId",
          "type": "uint256"
        }
      ],
      "name": "evolveCharacter",
      "outputs": [],
      "stateMutability": "nonpayable",
      "type": "function"
    },
    {
      "inputs": [
        {
          "internalType": "uint256",
          "name": "tokenId",
          "type": "uint256"
        }
      ],
      "name": "getApproved",
      "outputs": [
        {
          "internalType": "address",
          "name": "",
          "type": "address"
        }
      ],
      "stateMutability": "view",
      "type": "function"
    },
    {
      "inputs": [
        {
          "internalType": "address",
          "name": "owner",
          "type": "address"
        },
        {
          "internalType": "address",
          "name": "operator",
          "type": "address"
        }
      ],
      "name": "isApprovedForAll",
      "outputs": [
        {
          "internalType": "bool",
          "name": "",
          "type": "bool"
        }
      ],
      "stateMutability": "view",
      "type": "function"
    },
    {
      "inputs": [
        {
          "internalType": "address",
          "name": "recipient",
          "type": "address"
        }
      ],
      "name": "mintNFT",
      "outputs": [
        {
          "internalType": "uint256",
          "name": "",
          "type": "uint256"
        }
      ],
      "stateMutability": "nonpayable",
      "type": "function"
    },
    {
      "inputs": [],
      "name": "name",
      "outputs": [
        {
          "internalType": "string",
          "name": "",
          "type": "string"
        }
      ],
      "stateMutability": "view",
      "type": "function"
    },
    {
      "inputs": [],
      "name": "owner",
      "outputs": [
        {
          "internalType": "address",
          "name": "",
          "type": "address"
        }
      ],
      "stateMutability": "view",
      "type": "function"
    },
    {
      "inputs": [
        {
          "internalType": "uint256",
          "name": "tokenId",
          "type": "uint256"
        }
      ],
      "name": "ownerOf",
      "outputs": [
        {
          "internalType": "address",
          "name": "",
          "type": "address"
        }
      ],
      "stateMutability": "view",
      "type": "function"
    },
    {
      "inputs": [],
      "name": "renounceOwnership",
      "outputs": [],
      "stateMutability": "nonpayable",
      "type": "function"
    },
    {
      "inputs": [
        {
          "internalType": "address",
          "name": "from",
          "type": "address"
        },
        {
          "internalType": "address",
          "name": "to",
          "type": "address"
        },
        {
          "internalType": "uint256",
          "name": "tokenId",
          "type": "uint256"
        }
      ],
      "name": "safeTransferFrom",
      "outputs": [],
      "stateMutability": "nonpayable",
      "type": "function"
    },
    {
      "inputs": [
        {
          "internalType": "address",
          "name": "from",
          "type": "address"
        },
        {
          "internalType": "address",
          "name": "to",
          "type": "address"
        },
        {
          "internalType": "uint256",
          "name": "tokenId",
          "type": "uint256"
        },
        {
          "internalType": "bytes",
          "name": "data",
          "type": "bytes"
        }
      ],
      "name": "safeTransferFrom",
      "outputs": [],
      "stateMutability": "nonpayable",
      "type": "function"
    },
    {
      "inputs": [
        {
          "internalType": "address",
          "name": "operator",
          "type": "address"
        },
        {
          "internalType": "bool",
          "name": "approved",
          "type": "bool"
        }
      ],
      "name": "setApprovalForAll",
      "outputs": [],
      "stateMutability": "nonpayable",
      "type": "function"
    },
    {
      "inputs": [
        {
          "internalType": "bytes4",
          "name": "interfaceId",
          "type": "bytes4"
        }
      ],
      "name": "supportsInterface",
      "outputs": [
        {
          "internalType": "bool",
          "name": "",
          "type": "bool"
        }
      ],
      "stateMutability": "view",
      "type": "function"
    },
    {
      "inputs": [],
      "name": "symbol",
      "outputs": [
        {
          "internalType": "string",
          "name": "",
          "type": "string"
        }
      ],
      "stateMutability": "view",
      "type": "function"
    },
    {
      "inputs": [
        {
          "internalType": "uint256",
          "name": "tokenId",
          "type": "uint256"
        }
      ],
      "name": "tokenURI",
      "outputs": [
        {
          "internalType": "string",
          "name": "",
          "type": "string"
        }
      ],
      "stateMutability": "view",
      "type": "function"
    },
    {
      "inputs": [
        {
          "internalType": "address",
          "name": "from",
          "type": "address"
        },
        {
          "internalType": "address",
          "name": "to",
          "type": "address"
        },
        {
          "internalType": "uint256",
          "name": "tokenId",
          "type": "uint256"
        }
      ],
      "name": "transferFrom",
      "outputs": [],
      "stateMutability": "nonpayable",
      "type": "function"
    },
    {
      "inputs": [
        {
          "internalType": "address",
          "name": "newOwner",
          "type": "address"
        }
      ],
      "name": "transferOwnership",
      "outputs": [],
      "stateMutability": "nonpayable",
      "type": "function"
    }
  ],
  "bytecode": "0x60806040523480156200001157600080fd5b506040518060400160405280600681526020017f45766f6c766500000000000000000000000000000000000000000000000000008152506040518060400160405280600181526020017f450000000000000000000000000000000000000000000000000000000000000081525081600090816200008f91906200048b565b508060019081620000a191906200048b565b505050620000c4620000b86200014360201b60201c565b6200014b60201b60201c565b604051806060016040528060358152602001620035a560359139600960008081526020019081526020016000209081620000ff91906200048b565b50604051806060016040528060358152602001620035da60359139600960006001815260200190815260200160002090816200013c91906200048b565b5062000572565b600033905090565b6000600760009054906101000a900473ffffffffffffffffffffffffffffffffffffffff16905081600760006101000a81548173ffffffffffffffffffffffffffffffffffffffff021916908373ffffffffffffffffffffffffffffffffffffffff1602179055508173ffffffffffffffffffffffffffffffffffffffff168173ffffffffffffffffffffffffffffffffffffffff167f8be0079c531659141344cd1fd0a4f28419497f9722a3daafe3b4186f6b6457e060405160405180910390a35050565b600081519050919050565b7f4e487b7100000000000000000000000000000000000000000000000000000000600052604160045260246000fd5b7f4e487b7100000000000000000000000000000000000000000000000000000000600052602260045260246000fd5b600060028204905060018216806200029357607f821691505b602082108103620002a957620002a86200024b565b5b50919050565b60008190508160005260206000209050919050565b60006020601f8301049050919050565b600082821b905092915050565b600060088302620003137fffffffffffffffffffffffffffffffffffffffffffffffffffffffffffffffff82620002d4565b6200031f8683620002d4565b95508019841693508086168417925050509392505050565b6000819050919050565b6000819050919050565b60006200036c62000366620003608462000337565b62000341565b62000337565b9050919050565b6000819050919050565b62000388836200034b565b620003a0620003978262000373565b848454620002e1565b825550505050565b600090565b620003b7620003a8565b620003c48184846200037d565b505050565b5b81811015620003ec57620003e0600082620003ad565b600181019050620003ca565b5050565b601f8211156200043b576200040581620002af565b6200041084620002c4565b8101602085101562000420578190505b620004386200042f85620002c4565b830182620003c9565b50505b505050565b600082821c905092915050565b6000620004606000198460080262000440565b1980831691505092915050565b60006200047b83836200044d565b9150826002028217905092915050565b620004968262000211565b67ffffffffffffffff811115620004b257620004b16200021c565b5b620004be82546200027a565b620004cb828285620003f0565b600060209050601f831160018114620005035760008415620004ee578287015190505b620004fa85826200046d565b8655506200056a565b601f1984166200051386620002af565b60005b828110156200053d5784890151825560018201915060208501945060208101905062000516565b868310156200055d578489015162000559601f8916826200044d565b8355505b6001600288020188555050505b505050505050565b61302380620005826000396000f3fe608060405234801561001057600080fd5b50600436106101215760003560e01c80636352211e116100ad578063a22cb46511610071578063a22cb4651461031a578063b88d4fde14610336578063c87b56dd14610352578063e985e9c514610382578063f2fde38b146103b257610121565b80636352211e1461027457806370a08231146102a4578063715018a6146102d45780638da5cb5b146102de57806395d89b41146102fc57610121565b806323b872dd116100f457806323b872dd146101c057806334e911da146101dc57806338db9547146101f857806342842e0e1461022857806354ba0f271461024457610121565b806301ffc9a71461012657806306fdde0314610156578063081812fc14610174578063095ea7b3146101a4575b600080fd5b610140600480360381019061013b9190611e76565b6103ce565b60405161014d9190611ebe565b60405180910390f35b61015e61042f565b60405161016b9190611f69565b60405180910390f35b61018e60048036038101906101899190611fc1565b6104c1565b60405161019b919061202f565b60405180910390f35b6101be60048036038101906101b99190612076565b610507565b005b6101da60048036038101906101d591906120b6565b61061e565b005b6101f660048036038101906101f19190611fc1565b61067e565b005b610212600480360381019061020d9190611fc1565b61078d565b60405161021f9190612125565b60405180910390f35b610242600480360381019061023d91906120b6565b6107b7565b005b61025e60048036038101906102599190612140565b6107d7565b60405161026b919061217c565b60405180910390f35b61028e60048036038101906102899190611fc1565b6108b1565b60405161029b919061202f565b60405180910390f35b6102be60048036038101906102b99190612140565b610937565b6040516102cb919061217c565b60405180910390f35b6102dc6109ee565b005b6102e6610a02565b6040516102f3919061202f565b60405180910390f35b610304610a2c565b6040516103119190611f69565b60405180910390f35b610334600480360381019061032f91906121c3565b610abe565b005b610350600480360381019061034b9190612338565b610ad4565b005b61036c60048036038101906103679190611fc1565b610b36565b6040516103799190611f69565b60405180910390f35b61039c600480360381019061039791906123bb565b610c48565b6040516103a99190611ebe565b60405180910390f35b6103cc60048036038101906103c79190612140565b610cdc565b005b6000634906490660e01b7bffffffffffffffffffffffffffffffffffffffffffffffffffffffff1916827bffffffffffffffffffffffffffffffffffffffffffffffffffffffff19161480610428575061042782610d5f565b5b9050919050565b60606000805461043e9061242a565b80601f016020809104026020016040519081016040528092919081815260200182805461046a9061242a565b80156104b75780601f1061048c576101008083540402835291602001916104b7565b820191906000526020600020905b81548152906001019060200180831161049a57829003601f168201915b5050505050905090565b60006104cc82610e41565b6004600083815260200190815260200160002060009054906101000a900473ffffffffffffffffffffffffffffffffffffffff169050919050565b6000610512826108b1565b90508073ffffffffffffffffffffffffffffffffffffffff168373ffffffffffffffffffffffffffffffffffffffff1603610582576040517f08c379a0000000000000000000000000000000000000000000000000000000008152600401610579906124cd565b60405180910390fd5b8073ffffffffffffffffffffffffffffffffffffffff166105a1610e8c565b73ffffffffffffffffffffffffffffffffffffffff1614806105d057506105cf816105ca610e8c565b610c48565b5b61060f576040517f08c379a00000000000000000000000000000000000000000000000000000000081526004016106069061255f565b60405180910390fd5b6106198383610e94565b505050565b61062f610629610e8c565b82610f4d565b61066e576040517f08c379a0000000000000000000000000000000000000000000000000000000008152600401610665906125f1565b60405180910390fd5b610679838383610fe2565b505050565b60006106898261078d565b905060018160ff161061069c575061078a565b60006001826106ab9190612640565b90506000600960008360ff16815260200190815260200160002080546106d09061242a565b80601f01602080910402602001604051908101604052809291908181526020018280546106fc9061242a565b80156107495780601f1061071e57610100808354040283529160200191610749565b820191906000526020600020905b81548152906001019060200180831161072c57829003601f168201915b5050505050905081600a600086815260200190815260200160002060006101000a81548160ff021916908360ff16021790555061078684826112db565b5050505b50565b6000600a600083815260200190815260200160002060009054906101000a900460ff169050919050565b6107d283838360405180602001604052806000815250610ad4565b505050565b60006107e161137f565b6107eb60086113fd565b60006107f76008611413565b90506108038382611421565b6108a8816009600080815260200190815260200160002080546108259061242a565b80601f01602080910402602001604051908101604052809291908181526020018280546108519061242a565b801561089e5780601f106108735761010080835404028352916020019161089e565b820191906000526020600020905b81548152906001019060200180831161088157829003601f168201915b50505050506112db565b80915050919050565b6000806108bd8361163e565b9050600073ffffffffffffffffffffffffffffffffffffffff168173ffffffffffffffffffffffffffffffffffffffff160361092e576040517f08c379a0000000000000000000000000000000000000000000000000000000008152600401610925906126c1565b60405180910390fd5b80915050919050565b60008073ffffffffffffffffffffffffffffffffffffffff168273ffffffffffffffffffffffffffffffffffffffff16036109a7576040517f08c379a000000000000000000000000000000000000000000000000000000000815260040161099e90612753565b60405180910390fd5b600360008373ffffffffffffffffffffffffffffffffffffffff1673ffffffffffffffffffffffffffffffffffffffff168152602001908152602001600020549050919050565b6109f661137f565b610a00600061167b565b565b6000600760009054906101000a900473ffffffffffffffffffffffffffffffffffffffff16905090565b606060018054610a3b9061242a565b80601f0160208091040260200160405190810160405280929190818152602001828054610a679061242a565b8015610ab45780601f10610a8957610100808354040283529160200191610ab4565b820191906000526020600020905b815481529060010190602001808311610a9757829003601f168201915b5050505050905090565b610ad0610ac9610e8c565b8383611741565b5050565b610ae5610adf610e8c565b83610f4d565b610b24576040517f08c379a0000000000000000000000000000000000000000000000000000000008152600401610b1b906125f1565b60405180910390fd5b610b30848484846118ad565b50505050565b6060610b4182610e41565b6000600660008481526020019081526020016000208054610b619061242a565b80601f0160208091040260200160405190810160405280929190818152602001828054610b8d9061242a565b8015610bda5780601f10610baf57610100808354040283529160200191610bda565b820191906000526020600020905b815481529060010190602001808311610bbd57829003601f168201915b505050505090506000610beb611909565b90506000815103610c00578192505050610c43565b600082511115610c35578082604051602001610c1d9291906127af565b60405160208183030381529060405292505050610c43565b610c3e84611920565b925050505b919050565b6000600560008473ffffffffffffffffffffffffffffffffffffffff1673ffffffffffffffffffffffffffffffffffffffff16815260200190815260200160002060008373ffffffffffffffffffffffffffffffffffffffff1673ffffffffffffffffffffffffffffffffffffffff16815260200190815260200160002060009054906101000a900460ff16905092915050565b610ce461137f565b600073ffffffffffffffffffffffffffffffffffffffff168173ffffffffffffffffffffffffffffffffffffffff1603610d53576040517f08c379a0000000000000000000000000000000000000000000000000000000008152600401610d4a90612845565b60405180910390fd5b610d5c8161167b565b50565b60007f80ac58cd000000000000000000000000000000000000000000000000000000007bffffffffffffffffffffffffffffffffffffffffffffffffffffffff1916827bffffffffffffffffffffffffffffffffffffffffffffffffffffffff19161480610e2a57507f5b5e139f000000000000000000000000000000000000000000000000000000007bffffffffffffffffffffffffffffffffffffffffffffffffffffffff1916827bffffffffffffffffffffffffffffffffffffffffffffffffffffffff1916145b80610e3a5750610e3982611988565b5b9050919050565b610e4a816119f2565b610e89576040517f08c379a0000000000000000000000000000000000000000000000000000000008152600401610e80906126c1565b60405180910390fd5b50565b600033905090565b816004600083815260200190815260200160002060006101000a81548173ffffffffffffffffffffffffffffffffffffffff021916908373ffffffffffffffffffffffffffffffffffffffff160217905550808273ffffffffffffffffffffffffffffffffffffffff16610f07836108b1565b73ffffffffffffffffffffffffffffffffffffffff167f8c5be1e5ebec7d5bd14f71427d1e84f3dd0314c0f7b2291e5b200ac8c7c3b92560405160405180910390a45050565b600080610f59836108b1565b90508073ffffffffffffffffffffffffffffffffffffffff168473ffffffffffffffffffffffffffffffffffffffff161480610f9b5750610f9a8185610c48565b5b80610fd957508373ffffffffffffffffffffffffffffffffffffffff16610fc1846104c1565b73ffffffffffffffffffffffffffffffffffffffff16145b91505092915050565b8273ffffffffffffffffffffffffffffffffffffffff16611002826108b1565b73ffffffffffffffffffffffffffffffffffffffff1614611058576040517f08c379a000000000000000000000000000000000000000000000000000000000815260040161104f906128d7565b60405180910390fd5b600073ffffffffffffffffffffffffffffffffffffffff168273ffffffffffffffffffffffffffffffffffffffff16036110c7576040517f08c379a00000000000000000000000000000000000000000000000000000000081526004016110be90612969565b60405180910390fd5b6110d48383836001611a33565b8273ffffffffffffffffffffffffffffffffffffffff166110f4826108b1565b73ffffffffffffffffffffffffffffffffffffffff161461114a576040517f08c379a0000000000000000000000000000000000000000000000000000000008152600401611141906128d7565b60405180910390fd5b6004600082815260200190815260200160002060006101000a81549073ffffffffffffffffffffffffffffffffffffffff02191690556001600360008573ffffffffffffffffffffffffffffffffffffffff1673ffffffffffffffffffffffffffffffffffffffff168152602001908152602001600020600082825403925050819055506001600360008473ffffffffffffffffffffffffffffffffffffffff1673ffffffffffffffffffffffffffffffffffffffff16815260200190815260200160002060008282540192505081905550816002600083815260200190815260200160002060006101000a81548173ffffffffffffffffffffffffffffffffffffffff021916908373ffffffffffffffffffffffffffffffffffffffff160217905550808273ffffffffffffffffffffffffffffffffffffffff168473ffffffffffffffffffffffffffffffffffffffff167fddf252ad1be2c89b69c2b068fc378daa952ba7f163c4a11628f55a4df523b3ef60405160405180910390a46112d68383836001611a39565b505050565b6112e4826119f2565b611323576040517f08c379a000000000000000000000000000000000000000000000000000000000815260040161131a906129fb565b60405180910390fd5b806006600084815260200190815260200160002090816113439190612bc7565b507ff8e1a15aba9398e019f0b49df1a4fde98ee17ae345cb5f6b5e2c27f5033e8ce782604051611373919061217c565b60405180910390a15050565b611387610e8c565b73ffffffffffffffffffffffffffffffffffffffff166113a5610a02565b73ffffffffffffffffffffffffffffffffffffffff16146113fb576040517f08c379a00000000000000000000000000000000000000000000000000000000081526004016113f290612ce5565b60405180910390fd5b565b6001816000016000828254019250508190555050565b600081600001549050919050565b600073ffffffffffffffffffffffffffffffffffffffff168273ffffffffffffffffffffffffffffffffffffffff1603611490576040517f08c379a000000000000000000000000000000000000000000000000000000000815260040161148790612d51565b60405180910390fd5b611499816119f2565b156114d9576040517f08c379a00000000000000000000000000000000000000000000000000000000081526004016114d090612dbd565b60405180910390fd5b6114e7600083836001611a33565b6114f0816119f2565b15611530576040517f08c379a000000000000000000000000000000000000000000000000000000000815260040161152790612dbd565b60405180910390fd5b6001600360008473ffffffffffffffffffffffffffffffffffffffff1673ffffffffffffffffffffffffffffffffffffffff16815260200190815260200160002060008282540192505081905550816002600083815260200190815260200160002060006101000a81548173ffffffffffffffffffffffffffffffffffffffff021916908373ffffffffffffffffffffffffffffffffffffffff160217905550808273ffffffffffffffffffffffffffffffffffffffff16600073ffffffffffffffffffffffffffffffffffffffff167fddf252ad1be2c89b69c2b068fc378daa952ba7f163c4a11628f55a4df523b3ef60405160405180910390a461163a600083836001611a39565b5050565b60006002600083815260200190815260200160002060009054906101000a900473ffffffffffffffffffffffffffffffffffffffff169050919050565b6000600760009054906101000a900473ffffffffffffffffffffffffffffffffffffffff16905081600760006101000a81548173ffffffffffffffffffffffffffffffffffffffff021916908373ffffffffffffffffffffffffffffffffffffffff1602179055508173ffffffffffffffffffffffffffffffffffffffff168173ffffffffffffffffffffffffffffffffffffffff167f8be0079c531659141344cd1fd0a4f28419497f9722a3daafe3b4186f6b6457e060405160405180910390a35050565b8173ffffffffffffffffffffffffffffffffffffffff168373ffffffffffffffffffffffffffffffffffffffff16036117af576040517f08c379a00000000000000000000000000000000000000000000000000000000081526004016117a690612e29565b60405180910390fd5b80600560008573ffffffffffffffffffffffffffffffffffffffff1673ffffffffffffffffffffffffffffffffffffffff16815260200190815260200160002060008473ffffffffffffffffffffffffffffffffffffffff1673ffffffffffffffffffffffffffffffffffffffff16815260200190815260200160002060006101000a81548160ff0219169083151502179055508173ffffffffffffffffffffffffffffffffffffffff168373ffffffffffffffffffffffffffffffffffffffff167f17307eab39ab6107e8899845ad3d59bd9653f200f220920489ca2b5937696c31836040516118a09190611ebe565b60405180910390a3505050565b6118b8848484610fe2565b6118c484848484611a3f565b611903576040517f08c379a00000000000000000000000000000000000000000000000000000000081526004016118fa90612ebb565b60405180910390fd5b50505050565b606060405180602001604052806000815250905090565b606061192b82610e41565b6000611935611909565b905060008151116119555760405180602001604052806000815250611980565b8061195f84611bc6565b6040516020016119709291906127af565b6040516020818303038152906040525b915050919050565b60007f01ffc9a7000000000000000000000000000000000000000000000000000000007bffffffffffffffffffffffffffffffffffffffffffffffffffffffff1916827bffffffffffffffffffffffffffffffffffffffffffffffffffffffff1916149050919050565b60008073ffffffffffffffffffffffffffffffffffffffff16611a148361163e565b73ffffffffffffffffffffffffffffffffffffffff1614159050919050565b50505050565b50505050565b6000611a608473ffffffffffffffffffffffffffffffffffffffff16611c94565b15611bb9578373ffffffffffffffffffffffffffffffffffffffff1663150b7a02611a89610e8c565b8786866040518563ffffffff1660e01b8152600401611aab9493929190612f30565b6020604051808303816000875af1925050508015611ae757506040513d601f19601f82011682018060405250810190611ae49190612f91565b60015b611b69573d8060008114611b17576040519150601f19603f3d011682016040523d82523d6000602084013e611b1c565b606091505b506000815103611b61576040517f08c379a0000000000000000000000000000000000000000000000000000000008152600401611b5890612ebb565b60405180910390fd5b805181602001fd5b63150b7a0260e01b7bffffffffffffffffffffffffffffffffffffffffffffffffffffffff1916817bffffffffffffffffffffffffffffffffffffffffffffffffffffffff191614915050611bbe565b600190505b949350505050565b606060006001611bd584611cb7565b01905060008167ffffffffffffffff811115611bf457611bf361220d565b5b6040519080825280601f01601f191660200182016040528015611c265781602001600182028036833780820191505090505b509050600082602001820190505b600115611c89578080600190039150507f3031323334353637383961626364656600000000000000000000000000000000600a86061a8153600a8581611c7d57611c7c612fbe565b5b04945060008503611c34575b819350505050919050565b6000808273ffffffffffffffffffffffffffffffffffffffff163b119050919050565b600080600090507a184f03e93ff9f4daa797ed6e38ed64bf6a1f0100000000000000008310611d15577a184f03e93ff9f4daa797ed6e38ed64bf6a1f0100000000000000008381611d0b57611d0a612fbe565b5b0492506040810190505b6d04ee2d6d415b85acef81000000008310611d52576d04ee2d6d415b85acef81000000008381611d4857611d47612fbe565b5b0492506020810190505b662386f26fc100008310611d8157662386f26fc100008381611d7757611d76612fbe565b5b0492506010810190505b6305f5e1008310611daa576305f5e1008381611da057611d9f612fbe565b5b0492506008810190505b6127108310611dcf576127108381611dc557611dc4612fbe565b5b0492506004810190505b60648310611df25760648381611de857611de7612fbe565b5b0492506002810190505b600a8310611e01576001810190505b80915050919050565b6000604051905090565b600080fd5b600080fd5b60007fffffffff0000000000000000000000000000000000000000000000000000000082169050919050565b611e5381611e1e565b8114611e5e57600080fd5b50565b600081359050611e7081611e4a565b92915050565b600060208284031215611e8c57611e8b611e14565b5b6000611e9a84828501611e61565b91505092915050565b60008115159050919050565b611eb881611ea3565b82525050565b6000602082019050611ed36000830184611eaf565b92915050565b600081519050919050565b600082825260208201905092915050565b60005b83811015611f13578082015181840152602081019050611ef8565b60008484015250505050565b6000601f19601f8301169050919050565b6000611f3b82611ed9565b611f458185611ee4565b9350611f55818560208601611ef5565b611f5e81611f1f565b840191505092915050565b60006020820190508181036000830152611f838184611f30565b905092915050565b6000819050919050565b611f9e81611f8b565b8114611fa957600080fd5b50565b600081359050611fbb81611f95565b92915050565b600060208284031215611fd757611fd6611e14565b5b6000611fe584828501611fac565b91505092915050565b600073ffffffffffffffffffffffffffffffffffffffff82169050919050565b600061201982611fee565b9050919050565b6120298161200e565b82525050565b60006020820190506120446000830184612020565b92915050565b6120538161200e565b811461205e57600080fd5b50565b6000813590506120708161204a565b92915050565b6000806040838503121561208d5761208c611e14565b5b600061209b85828601612061565b92505060206120ac85828601611fac565b9150509250929050565b6000806000606084860312156120cf576120ce611e14565b5b60006120dd86828701612061565b93505060206120ee86828701612061565b92505060406120ff86828701611fac565b9150509250925092565b600060ff82169050919050565b61211f81612109565b82525050565b600060208201905061213a6000830184612116565b92915050565b60006020828403121561215657612155611e14565b5b600061216484828501612061565b91505092915050565b61217681611f8b565b82525050565b6000602082019050612191600083018461216d565b92915050565b6121a081611ea3565b81146121ab57600080fd5b50565b6000813590506121bd81612197565b92915050565b600080604083850312156121da576121d9611e14565b5b60006121e885828601612061565b92505060206121f9858286016121ae565b9150509250929050565b600080fd5b600080fd5b7f4e487b7100000000000000000000000000000000000000000000000000000000600052604160045260246000fd5b61224582611f1f565b810181811067ffffffffffffffff821117156122645761226361220d565b5b80604052505050565b6000612277611e0a565b9050612283828261223c565b919050565b600067ffffffffffffffff8211156122a3576122a261220d565b5b6122ac82611f1f565b9050602081019050919050565b82818337600083830152505050565b60006122db6122d684612288565b61226d565b9050828152602081018484840111156122f7576122f6612208565b5b6123028482856122b9565b509392505050565b600082601f83011261231f5761231e612203565b5b813561232f8482602086016122c8565b91505092915050565b6000806000806080858703121561235257612351611e14565b5b600061236087828801612061565b945050602061237187828801612061565b935050604061238287828801611fac565b925050606085013567ffffffffffffffff8111156123a3576123a2611e19565b5b6123af8782880161230a565b91505092959194509250565b600080604083850312156123d2576123d1611e14565b5b60006123e085828601612061565b92505060206123f185828601612061565b9150509250929050565b7f4e487b7100000000000000000000000000000000000000000000000000000000600052602260045260246000fd5b6000600282049050600182168061244257607f821691505b602082108103612455576124546123fb565b5b50919050565b7f4552433732313a20617070726f76616c20746f2063757272656e74206f776e6560008201527f7200000000000000000000000000000000000000000000000000000000000000602082015250565b60006124b7602183611ee4565b91506124c28261245b565b604082019050919050565b600060208201905081810360008301526124e6816124aa565b9050919050565b7f4552433732313a20617070726f76652063616c6c6572206973206e6f7420746f60008201527f6b656e206f776e6572206f7220617070726f76656420666f7220616c6c000000602082015250565b6000612549603d83611ee4565b9150612554826124ed565b604082019050919050565b600060208201905081810360008301526125788161253c565b9050919050565b7f4552433732313a2063616c6c6572206973206e6f7420746f6b656e206f776e6560008201527f72206f7220617070726f76656400000000000000000000000000000000000000602082015250565b60006125db602d83611ee4565b91506125e68261257f565b604082019050919050565b6000602082019050818103600083015261260a816125ce565b9050919050565b7f4e487b7100000000000000000000000000000000000000000000000000000000600052601160045260246000fd5b600061264b82612109565b915061265683612109565b9250828201905060ff81111561266f5761266e612611565b5b92915050565b7f4552433732313a20696e76616c696420746f6b656e2049440000000000000000600082015250565b60006126ab601883611ee4565b91506126b682612675565b602082019050919050565b600060208201905081810360008301526126da8161269e565b9050919050565b7f4552433732313a2061646472657373207a65726f206973206e6f74206120766160008201527f6c6964206f776e65720000000000000000000000000000000000000000000000602082015250565b600061273d602983611ee4565b9150612748826126e1565b604082019050919050565b6000602082019050818103600083015261276c81612730565b9050919050565b600081905092915050565b600061278982611ed9565b6127938185612773565b93506127a3818560208601611ef5565b80840191505092915050565b60006127bb828561277e565b91506127c7828461277e565b91508190509392505050565b7f4f776e61626c653a206e6577206f776e657220697320746865207a65726f206160008201527f6464726573730000000000000000000000000000000000000000000000000000602082015250565b600061282f602683611ee4565b915061283a826127d3565b604082019050919050565b6000602082019050818103600083015261285e81612822565b9050919050565b7f4552433732313a207472616e736665722066726f6d20696e636f72726563742060008201527f6f776e6572000000000000000000000000000000000000000000000000000000602082015250565b60006128c1602583611ee4565b91506128cc82612865565b604082019050919050565b600060208201905081810360008301526128f0816128b4565b9050919050565b7f4552433732313a207472616e7366657220746f20746865207a65726f2061646460008201527f7265737300000000000000000000000000000000000000000000000000000000602082015250565b6000612953602483611ee4565b915061295e826128f7565b604082019050919050565b6000602082019050818103600083015261298281612946565b9050919050565b7f45524337323155524953746f726167653a2055524920736574206f66206e6f6e60008201527f6578697374656e7420746f6b656e000000000000000000000000000000000000602082015250565b60006129e5602e83611ee4565b91506129f082612989565b604082019050919050565b60006020820190508181036000830152612a14816129d8565b9050919050565b60008190508160005260206000209050919050565b60006020601f8301049050919050565b600082821b905092915050565b600060088302612a7d7fffffffffffffffffffffffffffffffffffffffffffffffffffffffffffffffff82612a40565b612a878683612a40565b95508019841693508086168417925050509392505050565b6000819050919050565b6000612ac4612abf612aba84611f8b565b612a9f565b611f8b565b9050919050565b6000819050919050565b612ade83612aa9565b612af2612aea82612acb565b848454612a4d565b825550505050565b600090565b612b07612afa565b612b12818484612ad5565b505050565b5b81811015612b3657612b2b600082612aff565b600181019050612b18565b5050565b601f821115612b7b57612b4c81612a1b565b612b5584612a30565b81016020851015612b64578190505b612b78612b7085612a30565b830182612b17565b50505b505050565b600082821c905092915050565b6000612b9e60001984600802612b80565b1980831691505092915050565b6000612bb78383612b8d565b9150826002028217905092915050565b612bd082611ed9565b67ffffffffffffffff811115612be957612be861220d565b5b612bf3825461242a565b612bfe828285612b3a565b600060209050601f831160018114612c315760008415612c1f578287015190505b612c298582612bab565b865550612c91565b601f198416612c3f86612a1b565b60005b82811015612c6757848901518255600182019150602085019450602081019050612c42565b86831015612c845784890151612c80601f891682612b8d565b8355505b6001600288020188555050505b505050505050565b7f4f776e61626c653a2063616c6c6572206973206e6f7420746865206f776e6572600082015250565b6000612ccf602083611ee4565b9150612cda82612c99565b602082019050919050565b60006020820190508181036000830152612cfe81612cc2565b9050919050565b7f4552433732313a206d696e7420746f20746865207a65726f2061646472657373600082015250565b6000612d3b602083611ee4565b9150612d4682612d05565b602082019050919050565b60006020820190508181036000830152612d6a81612d2e565b9050919050565b7f4552433732313a20746f6b656e20616c7265616479206d696e74656400000000600082015250565b6000612da7601c83611ee4565b9150612db282612d71565b602082019050919050565b60006020820190508181036000830152612dd681612d9a565b9050919050565b7f4552433732313a20617070726f766520746f2063616c6c657200000000000000600082015250565b6000612e13601983611ee4565b9150612e1e82612ddd565b602082019050919050565b60006020820190508181036000830152612e4281612e06565b9050919050565b7f4552433732313a207472616e7366657220746f206e6f6e20455243373231526560008201527f63656976657220696d706c656d656e7465720000000000000000000000000000602082015250565b6000612ea5603283611ee4565b9150612eb082612e49565b604082019050919050565b60006020820190508181036000830152612ed481612e98565b9050919050565b600081519050919050565b600082825260208201905092915050565b6000612f0282612edb565b612f0c8185612ee6565b9350612f1c818560208601611ef5565b612f2581611f1f565b840191505092915050565b6000608082019050612f456000830187612020565b612f526020830186612020565b612f5f604083018561216d565b8181036060830152612f718184612ef7565b905095945050505050565b600081519050612f8b81611e4a565b92915050565b600060208284031215612fa757612fa6611e14565b5b6000612fb584828501612f7c565b91505092915050565b7f4e487b7100000000000000000000000000000000000000000000000000000000600052601260045260246000fdfea2646970667358221220b2cfd854d11c7e6a3db9ef07353705bb7c4cb5db533164eb4c3dc52af63fec0164736f6c63430008120033697066733a2f2f516d54684556766932456671365279674474734248384b675a72764a4d58617a366378464b343953435775373144697066733a2f2f516d595a576d4c4c315954755358746b6a334b32767333685142384a685252563366616b6b4578593334734b3742",
  "linkReferences": {},
  "deployedLinkReferences": {}
}