{
  "_format": "hh-sol-artifact-1",
  "contractName": "EcoItems",
  "sourceName": "contracts/EcoItems.sol",
  "abi": [
    {
      "inputs": [],
      "stateMutability": "nonpayable",
      "type": "constructor"
    },
    {
      "anonymous": false,
      "inputs": [
        {
          "indexed": true,
          "internalType": "address",
          "name": "owner",
          "type": "address"
        },
        {
          "indexed": true,
          "internalType": "address",
          "name": "approved",
          "type": "address"
        },
        {
          "indexed": true,
          "internalType": "uint256",
          "name": "tokenId",
          "type": "uint256"
        }
      ],
      "name": "Approval",
      "type": "event"
    },
    {
      "anonymous": false,
      "inputs": [
        {
          "indexed": true,
          "internalType": "address",
          "name": "owner",
          "type": "address"
        },
        {
          "indexed": true,
          "internalType": "address",
          "name": "operator",
          "type": "address"
        },
        {
          "indexed": false,
          "internalType": "bool",
          "name": "approved",
          "type": "bool"
        }
      ],
      "name": "ApprovalForAll",
      "type": "event"
    },
    {
      "anonymous": false,
      "inputs": [
        {
          "indexed": false,
          "internalType": "uint256",
          "name": "_fromTokenId",
          "type": "uint256"
        },
        {
          "indexed": false,
          "internalType": "uint256",
          "name": "_toTokenId",
          "type": "uint256"
        }
      ],
      "name": "BatchMetadataUpdate",
      "type": "event"
    },
    {
      "anonymous": false,
      "inputs": [
        {
          "indexed": false,
          "internalType": "uint256",
          "name": "tokenId",
          "type": "uint256"
        },
        {
          "indexed": false,
          "internalType": "address",
          "name": "owner",
          "type": "address"
        },
        {
          "indexed": false,
          "internalType": "uint8",
          "name": "hp_boost",
          "type": "uint8"
        },
        {
          "indexed": false,
          "internalType": "uint8",
          "name": "ap_boost",
          "type": "uint8"
        },
        {
          "indexed": false,
          "internalType": "uint8",
          "name": "speed",
          "type": "uint8"
        },
        {
          "indexed": false,
          "internalType": "uint8",
          "name": "timeLimit",
          "type": "uint8"
        }
      ],
      "name": "EPotionMinted",
      "type": "event"
    },
    {
      "anonymous": false,
      "inputs": [
        {
          "indexed": false,
          "internalType": "uint256",
          "name": "tokenId",
          "type": "uint256"
        },
        {
          "indexed": false,
          "internalType": "address",
          "name": "owner",
          "type": "address"
        },
        {
          "indexed": false,
          "internalType": "uint8",
          "name": "speed",
          "type": "uint8"
        },
        {
          "indexed": false,
          "internalType": "uint8",
          "name": "ap_boost",
          "type": "uint8"
        }
      ],
      "name": "EWeaponMinted",
      "type": "event"
    },
    {
      "anonymous": false,
      "inputs": [
        {
          "indexed": false,
          "internalType": "uint256",
          "name": "_tokenId",
          "type": "uint256"
        }
      ],
      "name": "MetadataUpdate",
      "type": "event"
    },
    {
      "anonymous": false,
      "inputs": [
        {
          "indexed": true,
          "internalType": "address",
          "name": "previousOwner",
          "type": "address"
        },
        {
          "indexed": true,
          "internalType": "address",
          "name": "newOwner",
          "type": "address"
        }
      ],
      "name": "OwnershipTransferred",
      "type": "event"
    },
    {
      "anonymous": false,
      "inputs": [
        {
          "indexed": true,
          "internalType": "address",
          "name": "from",
          "type": "address"
        },
        {
          "indexed": true,
          "internalType": "address",
          "name": "to",
          "type": "address"
        },
        {
          "indexed": true,
          "internalType": "uint256",
          "name": "tokenId",
          "type": "uint256"
        }
      ],
      "name": "Transfer",
      "type": "event"
    },
    {
      "inputs": [
        {
          "internalType": "address",
          "name": "to",
          "type": "address"
        },
        {
          "internalType": "uint256",
          "name": "tokenId",
          "type": "uint256"
        }
      ],
      "name": "approve",
      "outputs": [],
      "stateMutability": "nonpayable",
      "type": "function"
    },
    {
      "inputs": [
        {
          "internalType": "address",
          "name": "owner",
          "type": "address"
        }
      ],
      "name": "balanceOf",
      "outputs": [
        {
          "internalType": "uint256",
          "name": "",
          "type": "uint256"
        }
      ],
      "stateMutability": "view",
      "type": "function"
    },
    {
      "inputs": [],
      "name": "baseURI",
      "outputs": [
        {
          "internalType": "string",
          "name": "",
          "type": "string"
        }
      ],
      "stateMutability": "view",
      "type": "function"
    },
    {
      "inputs": [
        {
          "internalType": "uint256",
          "name": "tokenId",
          "type": "uint256"
        }
      ],
      "name": "getApproved",
      "outputs": [
        {
          "internalType": "address",
          "name": "",
          "type": "address"
        }
      ],
      "stateMutability": "view",
      "type": "function"
    },
    {
      "inputs": [
        {
          "internalType": "uint256",
          "name": "tokenId",
          "type": "uint256"
        }
      ],
      "name": "getEPotionsData",
      "outputs": [
        {
          "components": [
            {
              "internalType": "uint8",
              "name": "hp_boost",
              "type": "uint8"
            },
            {
              "internalType": "uint8",
              "name": "ap_boost",
              "type": "uint8"
            },
            {
              "internalType": "uint8",
              "name": "speed",
              "type": "uint8"
            },
            {
              "internalType": "uint8",
              "name": "timeLimit",
              "type": "uint8"
            }
          ],
          "internalType": "struct EcoItems.EPotions",
          "name": "",
          "type": "tuple"
        }
      ],
      "stateMutability": "view",
      "type": "function"
    },
    {
      "inputs": [
        {
          "internalType": "uint256",
          "name": "tokenId",
          "type": "uint256"
        }
      ],
      "name": "getEWeaponsData",
      "outputs": [
        {
          "components": [
            {
              "internalType": "uint8",
              "name": "speed",
              "type": "uint8"
            },
            {
              "internalType": "uint8",
              "name": "ap_boost",
              "type": "uint8"
            }
          ],
          "internalType": "struct EcoItems.EWeapons",
          "name": "",
          "type": "tuple"
        }
      ],
      "stateMutability": "view",
      "type": "function"
    },
    {
      "inputs": [],
      "name": "getMintedCount",
      "outputs": [
        {
          "internalType": "uint256",
          "name": "num",
          "type": "uint256"
        }
      ],
      "stateMutability": "view",
      "type": "function"
    },
    {
      "inputs": [
        {
          "internalType": "address",
          "name": "owner",
          "type": "address"
        },
        {
          "internalType": "address",
          "name": "operator",
          "type": "address"
        }
      ],
      "name": "isApprovedForAll",
      "outputs": [
        {
          "internalType": "bool",
          "name": "",
          "type": "bool"
        }
      ],
      "stateMutability": "view",
      "type": "function"
    },
    {
      "inputs": [
        {
          "internalType": "uint256",
          "name": "",
          "type": "uint256"
        }
      ],
      "name": "items",
      "outputs": [
        {
          "internalType": "uint256",
          "name": "tokenId",
          "type": "uint256"
        },
        {
          "internalType": "uint256",
          "name": "mintedAt",
          "type": "uint256"
        },
        {
          "internalType": "uint256",
          "name": "listing_price",
          "type": "uint256"
        },
        {
          "internalType": "address",
          "name": "ownerId",
          "type": "address"
        },
        {
          "internalType": "enum EcoItems.ItemType",
          "name": "itemType",
          "type": "uint8"
        },
        {
          "internalType": "bytes",
          "name": "itemData",
          "type": "bytes"
        }
      ],
      "stateMutability": "view",
      "type": "function"
    },
    {
      "inputs": [
        {
          "internalType": "uint8",
          "name": "hp_boost",
          "type": "uint8"
        },
        {
          "internalType": "uint8",
          "name": "ap_boost",
          "type": "uint8"
        },
        {
          "internalType": "uint8",
          "name": "speed",
          "type": "uint8"
        },
        {
          "internalType": "uint8",
          "name": "timeLimit",
          "type": "uint8"
        },
        {
          "internalType": "string",
          "name": "tokenURI",
          "type": "string"
        }
      ],
      "name": "mintEPotionItem",
      "outputs": [],
      "stateMutability": "nonpayable",
      "type": "function"
    },
    {
      "inputs": [
        {
          "internalType": "uint8",
          "name": "speed",
          "type": "uint8"
        },
        {
          "internalType": "uint8",
          "name": "ap_boost",
          "type": "uint8"
        },
        {
          "internalType": "string",
          "name": "tokenURI",
          "type": "string"
        }
      ],
      "name": "mintEWeaponItem",
      "outputs": [],
      "stateMutability": "nonpayable",
      "type": "function"
    },
    {
      "inputs": [],
      "name": "name",
      "outputs": [
        {
          "internalType": "string",
          "name": "",
          "type": "string"
        }
      ],
      "stateMutability": "view",
      "type": "function"
    },
    {
      "inputs": [],
      "name": "owner",
      "outputs": [
        {
          "internalType": "address",
          "name": "",
          "type": "address"
        }
      ],
      "stateMutability": "view",
      "type": "function"
    },
    {
      "inputs": [
        {
          "internalType": "uint256",
          "name": "tokenId",
          "type": "uint256"
        }
      ],
      "name": "ownerOf",
      "outputs": [
        {
          "internalType": "address",
          "name": "",
          "type": "address"
        }
      ],
      "stateMutability": "view",
      "type": "function"
    },
    {
      "inputs": [],
      "name": "renounceOwnership",
      "outputs": [],
      "stateMutability": "nonpayable",
      "type": "function"
    },
    {
      "inputs": [
        {
          "internalType": "address",
          "name": "from",
          "type": "address"
        },
        {
          "internalType": "address",
          "name": "to",
          "type": "address"
        },
        {
          "internalType": "uint256",
          "name": "tokenId",
          "type": "uint256"
        }
      ],
      "name": "safeTransferFrom",
      "outputs": [],
      "stateMutability": "nonpayable",
      "type": "function"
    },
    {
      "inputs": [
        {
          "internalType": "address",
          "name": "from",
          "type": "address"
        },
        {
          "internalType": "address",
          "name": "to",
          "type": "address"
        },
        {
          "internalType": "uint256",
          "name": "tokenId",
          "type": "uint256"
        },
        {
          "internalType": "bytes",
          "name": "data",
          "type": "bytes"
        }
      ],
      "name": "safeTransferFrom",
      "outputs": [],
      "stateMutability": "nonpayable",
      "type": "function"
    },
    {
      "inputs": [
        {
          "internalType": "address",
          "name": "operator",
          "type": "address"
        },
        {
          "internalType": "bool",
          "name": "approved",
          "type": "bool"
        }
      ],
      "name": "setApprovalForAll",
      "outputs": [],
      "stateMutability": "nonpayable",
      "type": "function"
    },
    {
      "inputs": [
        {
          "internalType": "string",
          "name": "newURI",
          "type": "string"
        }
      ],
      "name": "setBaseURI",
      "outputs": [],
      "stateMutability": "nonpayable",
      "type": "function"
    },
    {
      "inputs": [
        {
          "internalType": "bytes4",
          "name": "interfaceId",
          "type": "bytes4"
        }
      ],
      "name": "supportsInterface",
      "outputs": [
        {
          "internalType": "bool",
          "name": "",
          "type": "bool"
        }
      ],
      "stateMutability": "view",
      "type": "function"
    },
    {
      "inputs": [],
      "name": "symbol",
      "outputs": [
        {
          "internalType": "string",
          "name": "",
          "type": "string"
        }
      ],
      "stateMutability": "view",
      "type": "function"
    },
    {
      "inputs": [
        {
          "internalType": "uint256",
          "name": "tokenId",
          "type": "uint256"
        }
      ],
      "name": "tokenURI",
      "outputs": [
        {
          "internalType": "string",
          "name": "",
          "type": "string"
        }
      ],
      "stateMutability": "view",
      "type": "function"
    },
    {
      "inputs": [],
      "name": "totalSupply",
      "outputs": [
        {
          "internalType": "uint256",
          "name": "",
          "type": "uint256"
        }
      ],
      "stateMutability": "view",
      "type": "function"
    },
    {
      "inputs": [
        {
          "internalType": "address",
          "name": "from",
          "type": "address"
        },
        {
          "internalType": "address",
          "name": "to",
          "type": "address"
        },
        {
          "internalType": "uint256",
          "name": "tokenId",
          "type": "uint256"
        }
      ],
      "name": "transferFrom",
      "outputs": [],
      "stateMutability": "nonpayable",
      "type": "function"
    },
    {
      "inputs": [
        {
          "internalType": "address",
          "name": "newOwner",
          "type": "address"
        }
      ],
      "name": "transferOwnership",
      "outputs": [],
      "stateMutability": "nonpayable",
      "type": "function"
    }
  ],
  "bytecode": "0x608060405260405180602001604052806000815250600990816200002491906200043b565b503480156200003257600080fd5b506040518060400160405280600881526020017f45636f4974656d730000000000000000000000000000000000000000000000008152506040518060400160405280600281526020017f45490000000000000000000000000000000000000000000000000000000000008152508160009081620000b091906200043b565b508060019081620000c291906200043b565b505050620000e5620000d9620000f360201b60201c565b620000fb60201b60201c565b6000600a8190555062000522565b600033905090565b6000600760009054906101000a900473ffffffffffffffffffffffffffffffffffffffff16905081600760006101000a81548173ffffffffffffffffffffffffffffffffffffffff021916908373ffffffffffffffffffffffffffffffffffffffff1602179055508173ffffffffffffffffffffffffffffffffffffffff168173ffffffffffffffffffffffffffffffffffffffff167f8be0079c531659141344cd1fd0a4f28419497f9722a3daafe3b4186f6b6457e060405160405180910390a35050565b600081519050919050565b7f4e487b7100000000000000000000000000000000000000000000000000000000600052604160045260246000fd5b7f4e487b7100000000000000000000000000000000000000000000000000000000600052602260045260246000fd5b600060028204905060018216806200024357607f821691505b602082108103620002595762000258620001fb565b5b50919050565b60008190508160005260206000209050919050565b60006020601f8301049050919050565b600082821b905092915050565b600060088302620002c37fffffffffffffffffffffffffffffffffffffffffffffffffffffffffffffffff8262000284565b620002cf868362000284565b95508019841693508086168417925050509392505050565b6000819050919050565b6000819050919050565b60006200031c620003166200031084620002e7565b620002f1565b620002e7565b9050919050565b6000819050919050565b6200033883620002fb565b62000350620003478262000323565b84845462000291565b825550505050565b600090565b6200036762000358565b620003748184846200032d565b505050565b5b818110156200039c57620003906000826200035d565b6001810190506200037a565b5050565b601f821115620003eb57620003b5816200025f565b620003c08462000274565b81016020851015620003d0578190505b620003e8620003df8562000274565b83018262000379565b50505b505050565b600082821c905092915050565b60006200041060001984600802620003f0565b1980831691505092915050565b60006200042b8383620003fd565b9150826002028217905092915050565b6200044682620001c1565b67ffffffffffffffff811115620004625762000461620001cc565b5b6200046e82546200022a565b6200047b828285620003a0565b600060209050601f831160018114620004b357600084156200049e578287015190505b620004aa85826200041d565b8655506200051a565b601f198416620004c3866200025f565b60005b82811015620004ed57848901518255600182019150602085019450602081019050620004c6565b868310156200050d578489015162000509601f891682620003fd565b8355505b6001600288020188555050505b505050505050565b613fc580620005326000396000f3fe608060405234801561001057600080fd5b50600436106101735760003560e01c806370a08231116100de578063a22cb46511610097578063c87b56dd11610071578063c87b56dd1461044d578063e985e9c51461047d578063ebc9bd3b146104ad578063f2fde38b146104cb57610173565b8063a22cb465146103e0578063b88d4fde146103fc578063bfb231d21461041857610173565b806370a082311461031e578063715018a61461034e578063727bc4b1146103585780637ce6f18b146103885780638da5cb5b146103a457806395d89b41146103c257610173565b806323b872dd1161013057806323b872dd1461024c57806342842e0e1461026857806349d5462e1461028457806355f804b3146102b45780636352211e146102d05780636c0360eb1461030057610173565b806301ffc9a71461017857806306fdde03146101a8578063081812fc146101c6578063095ea7b3146101f657806318160ddd14610212578063210d8aa914610230575b600080fd5b610192600480360381019061018d91906126f5565b6104e7565b60405161019f919061273d565b60405180910390f35b6101b0610548565b6040516101bd91906127e8565b60405180910390f35b6101e060048036038101906101db9190612840565b6105da565b6040516101ed91906128ae565b60405180910390f35b610210600480360381019061020b91906128f5565b610620565b005b61021a610737565b6040516102279190612944565b60405180910390f35b61024a60048036038101906102459190612acd565b610741565b005b61026660048036038101906102619190612b3c565b610927565b005b610282600480360381019061027d9190612b3c565b610987565b005b61029e60048036038101906102999190612840565b6109a7565b6040516102ab9190612bf3565b60405180910390f35b6102ce60048036038101906102c99190612c0e565b610ae6565b005b6102ea60048036038101906102e59190612840565b610b01565b6040516102f791906128ae565b60405180910390f35b610308610b87565b60405161031591906127e8565b60405180910390f35b61033860048036038101906103339190612c57565b610c15565b6040516103459190612944565b60405180910390f35b610356610ccc565b005b610372600480360381019061036d9190612840565b610ce0565b60405161037f9190612cb3565b60405180910390f35b6103a2600480360381019061039d9190612cce565b610e20565b005b6103ac61101d565b6040516103b991906128ae565b60405180910390f35b6103ca611047565b6040516103d791906127e8565b60405180910390f35b6103fa60048036038101906103f59190612d91565b6110d9565b005b61041660048036038101906104119190612e72565b6110ef565b005b610432600480360381019061042d9190612840565b611151565b60405161044496959493929190612fc1565b60405180910390f35b61046760048036038101906104629190612840565b611242565b60405161047491906127e8565b60405180910390f35b61049760048036038101906104929190613029565b611354565b6040516104a4919061273d565b60405180910390f35b6104b56113e8565b6040516104c29190612944565b60405180910390f35b6104e560048036038101906104e09190612c57565b6113f9565b005b6000634906490660e01b7bffffffffffffffffffffffffffffffffffffffffffffffffffffffff1916827bffffffffffffffffffffffffffffffffffffffffffffffffffffffff1916148061054157506105408261147c565b5b9050919050565b60606000805461055790613098565b80601f016020809104026020016040519081016040528092919081815260200182805461058390613098565b80156105d05780601f106105a5576101008083540402835291602001916105d0565b820191906000526020600020905b8154815290600101906020018083116105b357829003601f168201915b5050505050905090565b60006105e58261155e565b6004600083815260200190815260200160002060009054906101000a900473ffffffffffffffffffffffffffffffffffffffff169050919050565b600061062b82610b01565b90508073ffffffffffffffffffffffffffffffffffffffff168373ffffffffffffffffffffffffffffffffffffffff160361069b576040517f08c379a00000000000000000000000000000000000000000000000000000000081526004016106929061313b565b60405180910390fd5b8073ffffffffffffffffffffffffffffffffffffffff166106ba6115a9565b73ffffffffffffffffffffffffffffffffffffffff1614806106e957506106e8816106e36115a9565b611354565b5b610728576040517f08c379a000000000000000000000000000000000000000000000000000000000815260040161071f906131cd565b60405180910390fd5b61073283836115b1565b505050565b6000600a54905090565b61074961166a565b61075360086116e8565b600061075f60086116fe565b9050600060405180604001604052808660ff1681526020018560ff1681525060405160200161078e9190612cb3565b60405160208183030381529060405290506107a9338361170c565b6107b38284611929565b6040518060c00160405280838152602001428152602001600081526020013373ffffffffffffffffffffffffffffffffffffffff1681526020016000600181111561080157610800612ef5565b5b815260200182815250600b600084815260200190815260200160002060008201518160000155602082015181600101556040820151816002015560608201518160030160006101000a81548173ffffffffffffffffffffffffffffffffffffffff021916908373ffffffffffffffffffffffffffffffffffffffff16021790555060808201518160030160146101000a81548160ff021916908360018111156108ad576108ac612ef5565b5b021790555060a08201518160040190816108c79190613399565b50905050600a60008154809291906108de9061349a565b91905055507f8854a0dbeefc65a1a3f77767c246f6cfe6bea95a0de4964885898083921d770f8233878760405161091894939291906134f1565b60405180910390a15050505050565b6109386109326115a9565b826119cd565b610977576040517f08c379a000000000000000000000000000000000000000000000000000000000815260040161096e906135a8565b60405180910390fd5b610982838383611a62565b505050565b6109a2838383604051806020016040528060008152506110ef565b505050565b6109af612635565b6001808111156109c2576109c1612ef5565b5b600b600084815260200190815260200160002060030160149054906101000a900460ff1660018111156109f8576109f7612ef5565b5b14610a38576040517f08c379a0000000000000000000000000000000000000000000000000000000008152600401610a2f90613614565b60405180910390fd5b610adf600b60008481526020019081526020016000206004018054610a5c90613098565b80601f0160208091040260200160405190810160405280929190818152602001828054610a8890613098565b8015610ad55780601f10610aaa57610100808354040283529160200191610ad5565b820191906000526020600020905b815481529060010190602001808311610ab857829003601f168201915b5050505050611ac7565b9050919050565b610aee61166a565b8060099081610afd919061368f565b5050565b600080610b0d83611b29565b9050600073ffffffffffffffffffffffffffffffffffffffff168173ffffffffffffffffffffffffffffffffffffffff1603610b7e576040517f08c379a0000000000000000000000000000000000000000000000000000000008152600401610b75906137ad565b60405180910390fd5b80915050919050565b60098054610b9490613098565b80601f0160208091040260200160405190810160405280929190818152602001828054610bc090613098565b8015610c0d5780601f10610be257610100808354040283529160200191610c0d565b820191906000526020600020905b815481529060010190602001808311610bf057829003601f168201915b505050505081565b60008073ffffffffffffffffffffffffffffffffffffffff168273ffffffffffffffffffffffffffffffffffffffff1603610c85576040517f08c379a0000000000000000000000000000000000000000000000000000000008152600401610c7c9061383f565b60405180910390fd5b600360008373ffffffffffffffffffffffffffffffffffffffff1673ffffffffffffffffffffffffffffffffffffffff168152602001908152602001600020549050919050565b610cd461166a565b610cde6000611b66565b565b610ce8612669565b60006001811115610cfc57610cfb612ef5565b5b600b600084815260200190815260200160002060030160149054906101000a900460ff166001811115610d3257610d31612ef5565b5b14610d72576040517f08c379a0000000000000000000000000000000000000000000000000000000008152600401610d69906138ab565b60405180910390fd5b610e19600b60008481526020019081526020016000206004018054610d9690613098565b80601f0160208091040260200160405190810160405280929190818152602001828054610dc290613098565b8015610e0f5780601f10610de457610100808354040283529160200191610e0f565b820191906000526020600020905b815481529060010190602001808311610df257829003601f168201915b5050505050611c2c565b9050919050565b610e2861166a565b610e3260086116e8565b6000610e3e60086116fe565b9050600060405180608001604052808860ff1681526020018760ff1681526020018660ff1681526020018560ff16815250604051602001610e7f9190612bf3565b6040516020818303038152906040529050610e9a338361170c565b610ea48284611929565b6040518060c00160405280838152602001428152602001600081526020013373ffffffffffffffffffffffffffffffffffffffff168152602001600180811115610ef157610ef0612ef5565b5b815260200182815250600b600084815260200190815260200160002060008201518160000155602082015181600101556040820151816002015560608201518160030160006101000a81548173ffffffffffffffffffffffffffffffffffffffff021916908373ffffffffffffffffffffffffffffffffffffffff16021790555060808201518160030160146101000a81548160ff02191690836001811115610f9d57610f9c612ef5565b5b021790555060a0820151816004019081610fb79190613399565b50905050600a6000815480929190610fce9061349a565b91905055507f96307455e81c46b8f48fb0d5da9cb09f77ec826c16f3cf971688379f43e2cc9282338989898960405161100c969594939291906138cb565b60405180910390a150505050505050565b6000600760009054906101000a900473ffffffffffffffffffffffffffffffffffffffff16905090565b60606001805461105690613098565b80601f016020809104026020016040519081016040528092919081815260200182805461108290613098565b80156110cf5780601f106110a4576101008083540402835291602001916110cf565b820191906000526020600020905b8154815290600101906020018083116110b257829003601f168201915b5050505050905090565b6110eb6110e46115a9565b8383611c73565b5050565b6111006110fa6115a9565b836119cd565b61113f576040517f08c379a0000000000000000000000000000000000000000000000000000000008152600401611136906135a8565b60405180910390fd5b61114b84848484611ddf565b50505050565b600b6020528060005260406000206000915090508060000154908060010154908060020154908060030160009054906101000a900473ffffffffffffffffffffffffffffffffffffffff16908060030160149054906101000a900460ff16908060040180546111bf90613098565b80601f01602080910402602001604051908101604052809291908181526020018280546111eb90613098565b80156112385780601f1061120d57610100808354040283529160200191611238565b820191906000526020600020905b81548152906001019060200180831161121b57829003601f168201915b5050505050905086565b606061124d8261155e565b600060066000848152602001908152602001600020805461126d90613098565b80601f016020809104026020016040519081016040528092919081815260200182805461129990613098565b80156112e65780601f106112bb576101008083540402835291602001916112e6565b820191906000526020600020905b8154815290600101906020018083116112c957829003601f168201915b5050505050905060006112f7611e3b565b9050600081510361130c57819250505061134f565b600082511115611341578082604051602001611329929190613968565b6040516020818303038152906040529250505061134f565b61134a84611e52565b925050505b919050565b6000600560008473ffffffffffffffffffffffffffffffffffffffff1673ffffffffffffffffffffffffffffffffffffffff16815260200190815260200160002060008373ffffffffffffffffffffffffffffffffffffffff1673ffffffffffffffffffffffffffffffffffffffff16815260200190815260200160002060009054906101000a900460ff16905092915050565b60006113f460086116fe565b905090565b61140161166a565b600073ffffffffffffffffffffffffffffffffffffffff168173ffffffffffffffffffffffffffffffffffffffff1603611470576040517f08c379a0000000000000000000000000000000000000000000000000000000008152600401611467906139fe565b60405180910390fd5b61147981611b66565b50565b60007f80ac58cd000000000000000000000000000000000000000000000000000000007bffffffffffffffffffffffffffffffffffffffffffffffffffffffff1916827bffffffffffffffffffffffffffffffffffffffffffffffffffffffff1916148061154757507f5b5e139f000000000000000000000000000000000000000000000000000000007bffffffffffffffffffffffffffffffffffffffffffffffffffffffff1916827bffffffffffffffffffffffffffffffffffffffffffffffffffffffff1916145b80611557575061155682611eba565b5b9050919050565b61156781611f24565b6115a6576040517f08c379a000000000000000000000000000000000000000000000000000000000815260040161159d906137ad565b60405180910390fd5b50565b600033905090565b816004600083815260200190815260200160002060006101000a81548173ffffffffffffffffffffffffffffffffffffffff021916908373ffffffffffffffffffffffffffffffffffffffff160217905550808273ffffffffffffffffffffffffffffffffffffffff1661162483610b01565b73ffffffffffffffffffffffffffffffffffffffff167f8c5be1e5ebec7d5bd14f71427d1e84f3dd0314c0f7b2291e5b200ac8c7c3b92560405160405180910390a45050565b6116726115a9565b73ffffffffffffffffffffffffffffffffffffffff1661169061101d565b73ffffffffffffffffffffffffffffffffffffffff16146116e6576040517f08c379a00000000000000000000000000000000000000000000000000000000081526004016116dd90613a6a565b60405180910390fd5b565b6001816000016000828254019250508190555050565b600081600001549050919050565b600073ffffffffffffffffffffffffffffffffffffffff168273ffffffffffffffffffffffffffffffffffffffff160361177b576040517f08c379a000000000000000000000000000000000000000000000000000000000815260040161177290613ad6565b60405180910390fd5b61178481611f24565b156117c4576040517f08c379a00000000000000000000000000000000000000000000000000000000081526004016117bb90613b42565b60405180910390fd5b6117d2600083836001611f65565b6117db81611f24565b1561181b576040517f08c379a000000000000000000000000000000000000000000000000000000000815260040161181290613b42565b60405180910390fd5b6001600360008473ffffffffffffffffffffffffffffffffffffffff1673ffffffffffffffffffffffffffffffffffffffff16815260200190815260200160002060008282540192505081905550816002600083815260200190815260200160002060006101000a81548173ffffffffffffffffffffffffffffffffffffffff021916908373ffffffffffffffffffffffffffffffffffffffff160217905550808273ffffffffffffffffffffffffffffffffffffffff16600073ffffffffffffffffffffffffffffffffffffffff167fddf252ad1be2c89b69c2b068fc378daa952ba7f163c4a11628f55a4df523b3ef60405160405180910390a4611925600083836001611f6b565b5050565b61193282611f24565b611971576040517f08c379a000000000000000000000000000000000000000000000000000000000815260040161196890613bd4565b60405180910390fd5b80600660008481526020019081526020016000209081611991919061368f565b507ff8e1a15aba9398e019f0b49df1a4fde98ee17ae345cb5f6b5e2c27f5033e8ce7826040516119c19190612944565b60405180910390a15050565b6000806119d983610b01565b90508073ffffffffffffffffffffffffffffffffffffffff168473ffffffffffffffffffffffffffffffffffffffff161480611a1b5750611a1a8185611354565b5b80611a5957508373ffffffffffffffffffffffffffffffffffffffff16611a41846105da565b73ffffffffffffffffffffffffffffffffffffffff16145b91505092915050565b611a6d838383611f71565b81600b600083815260200190815260200160002060030160006101000a81548173ffffffffffffffffffffffffffffffffffffffff021916908373ffffffffffffffffffffffffffffffffffffffff160217905550505050565b611acf612635565b60008060008085806020019051810190611ae99190613c09565b935093509350935060405180608001604052808560ff1681526020018460ff1681526020018360ff1681526020018260ff16815250945050505050919050565b60006002600083815260200190815260200160002060009054906101000a900473ffffffffffffffffffffffffffffffffffffffff169050919050565b6000600760009054906101000a900473ffffffffffffffffffffffffffffffffffffffff16905081600760006101000a81548173ffffffffffffffffffffffffffffffffffffffff021916908373ffffffffffffffffffffffffffffffffffffffff1602179055508173ffffffffffffffffffffffffffffffffffffffff168173ffffffffffffffffffffffffffffffffffffffff167f8be0079c531659141344cd1fd0a4f28419497f9722a3daafe3b4186f6b6457e060405160405180910390a35050565b611c34612669565b60008083806020019051810190611c4b9190613c70565b9150915060405180604001604052808360ff1681526020018260ff1681525092505050919050565b8173ffffffffffffffffffffffffffffffffffffffff168373ffffffffffffffffffffffffffffffffffffffff1603611ce1576040517f08c379a0000000000000000000000000000000000000000000000000000000008152600401611cd890613cfc565b60405180910390fd5b80600560008573ffffffffffffffffffffffffffffffffffffffff1673ffffffffffffffffffffffffffffffffffffffff16815260200190815260200160002060008473ffffffffffffffffffffffffffffffffffffffff1673ffffffffffffffffffffffffffffffffffffffff16815260200190815260200160002060006101000a81548160ff0219169083151502179055508173ffffffffffffffffffffffffffffffffffffffff168373ffffffffffffffffffffffffffffffffffffffff167f17307eab39ab6107e8899845ad3d59bd9653f200f220920489ca2b5937696c3183604051611dd2919061273d565b60405180910390a3505050565b611dea848484611a62565b611df68484848461226a565b611e35576040517f08c379a0000000000000000000000000000000000000000000000000000000008152600401611e2c90613d8e565b60405180910390fd5b50505050565b606060405180602001604052806000815250905090565b6060611e5d8261155e565b6000611e67611e3b565b90506000815111611e875760405180602001604052806000815250611eb2565b80611e91846123f1565b604051602001611ea2929190613968565b6040516020818303038152906040525b915050919050565b60007f01ffc9a7000000000000000000000000000000000000000000000000000000007bffffffffffffffffffffffffffffffffffffffffffffffffffffffff1916827bffffffffffffffffffffffffffffffffffffffffffffffffffffffff1916149050919050565b60008073ffffffffffffffffffffffffffffffffffffffff16611f4683611b29565b73ffffffffffffffffffffffffffffffffffffffff1614159050919050565b50505050565b50505050565b8273ffffffffffffffffffffffffffffffffffffffff16611f9182610b01565b73ffffffffffffffffffffffffffffffffffffffff1614611fe7576040517f08c379a0000000000000000000000000000000000000000000000000000000008152600401611fde90613e20565b60405180910390fd5b600073ffffffffffffffffffffffffffffffffffffffff168273ffffffffffffffffffffffffffffffffffffffff1603612056576040517f08c379a000000000000000000000000000000000000000000000000000000000815260040161204d90613eb2565b60405180910390fd5b6120638383836001611f65565b8273ffffffffffffffffffffffffffffffffffffffff1661208382610b01565b73ffffffffffffffffffffffffffffffffffffffff16146120d9576040517f08c379a00000000000000000000000000000000000000000000000000000000081526004016120d090613e20565b60405180910390fd5b6004600082815260200190815260200160002060006101000a81549073ffffffffffffffffffffffffffffffffffffffff02191690556001600360008573ffffffffffffffffffffffffffffffffffffffff1673ffffffffffffffffffffffffffffffffffffffff168152602001908152602001600020600082825403925050819055506001600360008473ffffffffffffffffffffffffffffffffffffffff1673ffffffffffffffffffffffffffffffffffffffff16815260200190815260200160002060008282540192505081905550816002600083815260200190815260200160002060006101000a81548173ffffffffffffffffffffffffffffffffffffffff021916908373ffffffffffffffffffffffffffffffffffffffff160217905550808273ffffffffffffffffffffffffffffffffffffffff168473ffffffffffffffffffffffffffffffffffffffff167fddf252ad1be2c89b69c2b068fc378daa952ba7f163c4a11628f55a4df523b3ef60405160405180910390a46122658383836001611f6b565b505050565b600061228b8473ffffffffffffffffffffffffffffffffffffffff166124bf565b156123e4578373ffffffffffffffffffffffffffffffffffffffff1663150b7a026122b46115a9565b8786866040518563ffffffff1660e01b81526004016122d69493929190613ed2565b6020604051808303816000875af192505050801561231257506040513d601f19601f8201168201806040525081019061230f9190613f33565b60015b612394573d8060008114612342576040519150601f19603f3d011682016040523d82523d6000602084013e612347565b606091505b50600081510361238c576040517f08c379a000000000000000000000000000000000000000000000000000000000815260040161238390613d8e565b60405180910390fd5b805181602001fd5b63150b7a0260e01b7bffffffffffffffffffffffffffffffffffffffffffffffffffffffff1916817bffffffffffffffffffffffffffffffffffffffffffffffffffffffff1916149150506123e9565b600190505b949350505050565b606060006001612400846124e2565b01905060008167ffffffffffffffff81111561241f5761241e6129a2565b5b6040519080825280601f01601f1916602001820160405280156124515781602001600182028036833780820191505090505b509050600082602001820190505b6001156124b4578080600190039150507f3031323334353637383961626364656600000000000000000000000000000000600a86061a8153600a85816124a8576124a7613f60565b5b0494506000850361245f575b819350505050919050565b6000808273ffffffffffffffffffffffffffffffffffffffff163b119050919050565b600080600090507a184f03e93ff9f4daa797ed6e38ed64bf6a1f0100000000000000008310612540577a184f03e93ff9f4daa797ed6e38ed64bf6a1f010000000000000000838161253657612535613f60565b5b0492506040810190505b6d04ee2d6d415b85acef8100000000831061257d576d04ee2d6d415b85acef8100000000838161257357612572613f60565b5b0492506020810190505b662386f26fc1000083106125ac57662386f26fc1000083816125a2576125a1613f60565b5b0492506010810190505b6305f5e10083106125d5576305f5e10083816125cb576125ca613f60565b5b0492506008810190505b61271083106125fa5761271083816125f0576125ef613f60565b5b0492506004810190505b6064831061261d576064838161261357612612613f60565b5b0492506002810190505b600a831061262c576001810190505b80915050919050565b6040518060800160405280600060ff168152602001600060ff168152602001600060ff168152602001600060ff1681525090565b6040518060400160405280600060ff168152602001600060ff1681525090565b6000604051905090565b600080fd5b600080fd5b60007fffffffff0000000000000000000000000000000000000000000000000000000082169050919050565b6126d28161269d565b81146126dd57600080fd5b50565b6000813590506126ef816126c9565b92915050565b60006020828403121561270b5761270a612693565b5b6000612719848285016126e0565b91505092915050565b60008115159050919050565b61273781612722565b82525050565b6000602082019050612752600083018461272e565b92915050565b600081519050919050565b600082825260208201905092915050565b60005b83811015612792578082015181840152602081019050612777565b60008484015250505050565b6000601f19601f8301169050919050565b60006127ba82612758565b6127c48185612763565b93506127d4818560208601612774565b6127dd8161279e565b840191505092915050565b6000602082019050818103600083015261280281846127af565b905092915050565b6000819050919050565b61281d8161280a565b811461282857600080fd5b50565b60008135905061283a81612814565b92915050565b60006020828403121561285657612855612693565b5b60006128648482850161282b565b91505092915050565b600073ffffffffffffffffffffffffffffffffffffffff82169050919050565b60006128988261286d565b9050919050565b6128a88161288d565b82525050565b60006020820190506128c3600083018461289f565b92915050565b6128d28161288d565b81146128dd57600080fd5b50565b6000813590506128ef816128c9565b92915050565b6000806040838503121561290c5761290b612693565b5b600061291a858286016128e0565b925050602061292b8582860161282b565b9150509250929050565b61293e8161280a565b82525050565b60006020820190506129596000830184612935565b92915050565b600060ff82169050919050565b6129758161295f565b811461298057600080fd5b50565b6000813590506129928161296c565b92915050565b600080fd5b600080fd5b7f4e487b7100000000000000000000000000000000000000000000000000000000600052604160045260246000fd5b6129da8261279e565b810181811067ffffffffffffffff821117156129f9576129f86129a2565b5b80604052505050565b6000612a0c612689565b9050612a1882826129d1565b919050565b600067ffffffffffffffff821115612a3857612a376129a2565b5b612a418261279e565b9050602081019050919050565b82818337600083830152505050565b6000612a70612a6b84612a1d565b612a02565b905082815260208101848484011115612a8c57612a8b61299d565b5b612a97848285612a4e565b509392505050565b600082601f830112612ab457612ab3612998565b5b8135612ac4848260208601612a5d565b91505092915050565b600080600060608486031215612ae657612ae5612693565b5b6000612af486828701612983565b9350506020612b0586828701612983565b925050604084013567ffffffffffffffff811115612b2657612b25612698565b5b612b3286828701612a9f565b9150509250925092565b600080600060608486031215612b5557612b54612693565b5b6000612b63868287016128e0565b9350506020612b74868287016128e0565b9250506040612b858682870161282b565b9150509250925092565b612b988161295f565b82525050565b608082016000820151612bb46000850182612b8f565b506020820151612bc76020850182612b8f565b506040820151612bda6040850182612b8f565b506060820151612bed6060850182612b8f565b50505050565b6000608082019050612c086000830184612b9e565b92915050565b600060208284031215612c2457612c23612693565b5b600082013567ffffffffffffffff811115612c4257612c41612698565b5b612c4e84828501612a9f565b91505092915050565b600060208284031215612c6d57612c6c612693565b5b6000612c7b848285016128e0565b91505092915050565b604082016000820151612c9a6000850182612b8f565b506020820151612cad6020850182612b8f565b50505050565b6000604082019050612cc86000830184612c84565b92915050565b600080600080600060a08688031215612cea57612ce9612693565b5b6000612cf888828901612983565b9550506020612d0988828901612983565b9450506040612d1a88828901612983565b9350506060612d2b88828901612983565b925050608086013567ffffffffffffffff811115612d4c57612d4b612698565b5b612d5888828901612a9f565b9150509295509295909350565b612d6e81612722565b8114612d7957600080fd5b50565b600081359050612d8b81612d65565b92915050565b60008060408385031215612da857612da7612693565b5b6000612db6858286016128e0565b9250506020612dc785828601612d7c565b9150509250929050565b600067ffffffffffffffff821115612dec57612deb6129a2565b5b612df58261279e565b9050602081019050919050565b6000612e15612e1084612dd1565b612a02565b905082815260208101848484011115612e3157612e3061299d565b5b612e3c848285612a4e565b509392505050565b600082601f830112612e5957612e58612998565b5b8135612e69848260208601612e02565b91505092915050565b60008060008060808587031215612e8c57612e8b612693565b5b6000612e9a878288016128e0565b9450506020612eab878288016128e0565b9350506040612ebc8782880161282b565b925050606085013567ffffffffffffffff811115612edd57612edc612698565b5b612ee987828801612e44565b91505092959194509250565b7f4e487b7100000000000000000000000000000000000000000000000000000000600052602160045260246000fd5b60028110612f3557612f34612ef5565b5b50565b6000819050612f4682612f24565b919050565b6000612f5682612f38565b9050919050565b612f6681612f4b565b82525050565b600081519050919050565b600082825260208201905092915050565b6000612f9382612f6c565b612f9d8185612f77565b9350612fad818560208601612774565b612fb68161279e565b840191505092915050565b600060c082019050612fd66000830189612935565b612fe36020830188612935565b612ff06040830187612935565b612ffd606083018661289f565b61300a6080830185612f5d565b81810360a083015261301c8184612f88565b9050979650505050505050565b600080604083850312156130405761303f612693565b5b600061304e858286016128e0565b925050602061305f858286016128e0565b9150509250929050565b7f4e487b7100000000000000000000000000000000000000000000000000000000600052602260045260246000fd5b600060028204905060018216806130b057607f821691505b6020821081036130c3576130c2613069565b5b50919050565b7f4552433732313a20617070726f76616c20746f2063757272656e74206f776e6560008201527f7200000000000000000000000000000000000000000000000000000000000000602082015250565b6000613125602183612763565b9150613130826130c9565b604082019050919050565b6000602082019050818103600083015261315481613118565b9050919050565b7f4552433732313a20617070726f76652063616c6c6572206973206e6f7420746f60008201527f6b656e206f776e6572206f7220617070726f76656420666f7220616c6c000000602082015250565b60006131b7603d83612763565b91506131c28261315b565b604082019050919050565b600060208201905081810360008301526131e6816131aa565b9050919050565b60008190508160005260206000209050919050565b60006020601f8301049050919050565b600082821b905092915050565b60006008830261324f7fffffffffffffffffffffffffffffffffffffffffffffffffffffffffffffffff82613212565b6132598683613212565b95508019841693508086168417925050509392505050565b6000819050919050565b600061329661329161328c8461280a565b613271565b61280a565b9050919050565b6000819050919050565b6132b08361327b565b6132c46132bc8261329d565b84845461321f565b825550505050565b600090565b6132d96132cc565b6132e48184846132a7565b505050565b5b81811015613308576132fd6000826132d1565b6001810190506132ea565b5050565b601f82111561334d5761331e816131ed565b61332784613202565b81016020851015613336578190505b61334a61334285613202565b8301826132e9565b50505b505050565b600082821c905092915050565b600061337060001984600802613352565b1980831691505092915050565b6000613389838361335f565b9150826002028217905092915050565b6133a282612f6c565b67ffffffffffffffff8111156133bb576133ba6129a2565b5b6133c58254613098565b6133d082828561330c565b600060209050601f83116001811461340357600084156133f1578287015190505b6133fb858261337d565b865550613463565b601f198416613411866131ed565b60005b8281101561343957848901518255600182019150602085019450602081019050613414565b868310156134565784890151613452601f89168261335f565b8355505b6001600288020188555050505b505050505050565b7f4e487b7100000000000000000000000000000000000000000000000000000000600052601160045260246000fd5b60006134a58261280a565b91507fffffffffffffffffffffffffffffffffffffffffffffffffffffffffffffffff82036134d7576134d661346b565b5b600182019050919050565b6134eb8161295f565b82525050565b60006080820190506135066000830187612935565b613513602083018661289f565b61352060408301856134e2565b61352d60608301846134e2565b95945050505050565b7f4552433732313a2063616c6c6572206973206e6f7420746f6b656e206f776e6560008201527f72206f7220617070726f76656400000000000000000000000000000000000000602082015250565b6000613592602d83612763565b915061359d82613536565b604082019050919050565b600060208201905081810360008301526135c181613585565b9050919050565b7f4e6f7420616e2045506f74696f6e73206974656d000000000000000000000000600082015250565b60006135fe601483612763565b9150613609826135c8565b602082019050919050565b6000602082019050818103600083015261362d816135f1565b9050919050565b60008190508160005260206000209050919050565b601f82111561368a5761365b81613634565b61366484613202565b81016020851015613673578190505b61368761367f85613202565b8301826132e9565b50505b505050565b61369882612758565b67ffffffffffffffff8111156136b1576136b06129a2565b5b6136bb8254613098565b6136c6828285613649565b600060209050601f8311600181146136f957600084156136e7578287015190505b6136f1858261337d565b865550613759565b601f19841661370786613634565b60005b8281101561372f5784890151825560018201915060208501945060208101905061370a565b8683101561374c5784890151613748601f89168261335f565b8355505b6001600288020188555050505b505050505050565b7f4552433732313a20696e76616c696420746f6b656e2049440000000000000000600082015250565b6000613797601883612763565b91506137a282613761565b602082019050919050565b600060208201905081810360008301526137c68161378a565b9050919050565b7f4552433732313a2061646472657373207a65726f206973206e6f74206120766160008201527f6c6964206f776e65720000000000000000000000000000000000000000000000602082015250565b6000613829602983612763565b9150613834826137cd565b604082019050919050565b600060208201905081810360008301526138588161381c565b9050919050565b7f4e6f7420616e2045576561706f6e73206974656d000000000000000000000000600082015250565b6000613895601483612763565b91506138a08261385f565b602082019050919050565b600060208201905081810360008301526138c481613888565b9050919050565b600060c0820190506138e06000830189612935565b6138ed602083018861289f565b6138fa60408301876134e2565b61390760608301866134e2565b61391460808301856134e2565b61392160a08301846134e2565b979650505050505050565b600081905092915050565b600061394282612758565b61394c818561392c565b935061395c818560208601612774565b80840191505092915050565b60006139748285613937565b91506139808284613937565b91508190509392505050565b7f4f776e61626c653a206e6577206f776e657220697320746865207a65726f206160008201527f6464726573730000000000000000000000000000000000000000000000000000602082015250565b60006139e8602683612763565b91506139f38261398c565b604082019050919050565b60006020820190508181036000830152613a17816139db565b9050919050565b7f4f776e61626c653a2063616c6c6572206973206e6f7420746865206f776e6572600082015250565b6000613a54602083612763565b9150613a5f82613a1e565b602082019050919050565b60006020820190508181036000830152613a8381613a47565b9050919050565b7f4552433732313a206d696e7420746f20746865207a65726f2061646472657373600082015250565b6000613ac0602083612763565b9150613acb82613a8a565b602082019050919050565b60006020820190508181036000830152613aef81613ab3565b9050919050565b7f4552433732313a20746f6b656e20616c7265616479206d696e74656400000000600082015250565b6000613b2c601c83612763565b9150613b3782613af6565b602082019050919050565b60006020820190508181036000830152613b5b81613b1f565b9050919050565b7f45524337323155524953746f726167653a2055524920736574206f66206e6f6e60008201527f6578697374656e7420746f6b656e000000000000000000000000000000000000602082015250565b6000613bbe602e83612763565b9150613bc982613b62565b604082019050919050565b60006020820190508181036000830152613bed81613bb1565b9050919050565b600081519050613c038161296c565b92915050565b60008060008060808587031215613c2357613c22612693565b5b6000613c3187828801613bf4565b9450506020613c4287828801613bf4565b9350506040613c5387828801613bf4565b9250506060613c6487828801613bf4565b91505092959194509250565b60008060408385031215613c8757613c86612693565b5b6000613c9585828601613bf4565b9250506020613ca685828601613bf4565b9150509250929050565b7f4552433732313a20617070726f766520746f2063616c6c657200000000000000600082015250565b6000613ce6601983612763565b9150613cf182613cb0565b602082019050919050565b60006020820190508181036000830152613d1581613cd9565b9050919050565b7f4552433732313a207472616e7366657220746f206e6f6e20455243373231526560008201527f63656976657220696d706c656d656e7465720000000000000000000000000000602082015250565b6000613d78603283612763565b9150613d8382613d1c565b604082019050919050565b60006020820190508181036000830152613da781613d6b565b9050919050565b7f4552433732313a207472616e736665722066726f6d20696e636f72726563742060008201527f6f776e6572000000000000000000000000000000000000000000000000000000602082015250565b6000613e0a602583612763565b9150613e1582613dae565b604082019050919050565b60006020820190508181036000830152613e3981613dfd565b9050919050565b7f4552433732313a207472616e7366657220746f20746865207a65726f2061646460008201527f7265737300000000000000000000000000000000000000000000000000000000602082015250565b6000613e9c602483612763565b9150613ea782613e40565b604082019050919050565b60006020820190508181036000830152613ecb81613e8f565b9050919050565b6000608082019050613ee7600083018761289f565b613ef4602083018661289f565b613f016040830185612935565b8181036060830152613f138184612f88565b905095945050505050565b600081519050613f2d816126c9565b92915050565b600060208284031215613f4957613f48612693565b5b6000613f5784828501613f1e565b91505092915050565b7f4e487b7100000000000000000000000000000000000000000000000000000000600052601260045260246000fdfea2646970667358221220a036d5ad1f16d3393686142721f720f6a642ff4f35b73f6f6571b0f88813646964736f6c63430008120033",
  "linkReferences": {},
  "deployedLinkReferences": {}
}