{
  "_format": "hh-sol-artifact-1",
  "contractName": "MyToken",
  "sourceName": "contracts/EcoToken.sol",
  "abi": [
    {
      "inputs": [],
      "stateMutability": "nonpayable",
      "type": "constructor"
    },
    {
      "anonymous": false,
      "inputs": [
        {
          "indexed": true,
          "internalType": "address",
          "name": "owner",
          "type": "address"
        },
        {
          "indexed": true,
          "internalType": "address",
          "name": "spender",
          "type": "address"
        },
        {
          "indexed": false,
          "internalType": "uint256",
          "name": "value",
          "type": "uint256"
        }
      ],
      "name": "Approval",
      "type": "event"
    },
    {
      "anonymous": false,
      "inputs": [
        {
          "indexed": true,
          "internalType": "address",
          "name": "from",
          "type": "address"
        },
        {
          "indexed": true,
          "internalType": "address",
          "name": "to",
          "type": "address"
        },
        {
          "indexed": false,
          "internalType": "uint256",
          "name": "value",
          "type": "uint256"
        }
      ],
      "name": "Transfer",
      "type": "event"
    },
    {
      "inputs": [],
      "name": "admin",
      "outputs": [
        {
          "internalType": "address",
          "name": "",
          "type": "address"
        }
      ],
      "stateMutability": "view",
      "type": "function"
    },
    {
      "inputs": [
        {
          "internalType": "address",
          "name": "owner",
          "type": "address"
        },
        {
          "internalType": "address",
          "name": "spender",
          "type": "address"
        }
      ],
      "name": "allowance",
      "outputs": [
        {
          "internalType": "uint256",
          "name": "",
          "type": "uint256"
        }
      ],
      "stateMutability": "view",
      "type": "function"
    },
    {
      "inputs": [
        {
          "internalType": "address",
          "name": "spender",
          "type": "address"
        },
        {
          "internalType": "uint256",
          "name": "amount",
          "type": "uint256"
        }
      ],
      "name": "approve",
      "outputs": [
        {
          "internalType": "bool",
          "name": "",
          "type": "bool"
        }
      ],
      "stateMutability": "nonpayable",
      "type": "function"
    },
    {
      "inputs": [
        {
          "internalType": "address",
          "name": "account",
          "type": "address"
        }
      ],
      "name": "balanceOf",
      "outputs": [
        {
          "internalType": "uint256",
          "name": "",
          "type": "uint256"
        }
      ],
      "stateMutability": "view",
      "type": "function"
    },
    {
      "inputs": [],
      "name": "decimals",
      "outputs": [
        {
          "internalType": "uint8",
          "name": "",
          "type": "uint8"
        }
      ],
      "stateMutability": "pure",
      "type": "function"
    },
    {
      "inputs": [
        {
          "internalType": "address",
          "name": "spender",
          "type": "address"
        },
        {
          "internalType": "uint256",
          "name": "subtractedValue",
          "type": "uint256"
        }
      ],
      "name": "decreaseAllowance",
      "outputs": [
        {
          "internalType": "bool",
          "name": "",
          "type": "bool"
        }
      ],
      "stateMutability": "nonpayable",
      "type": "function"
    },
    {
      "inputs": [
        {
          "internalType": "address",
          "name": "account",
          "type": "address"
        }
      ],
      "name": "getTokenBalance",
      "outputs": [
        {
          "internalType": "uint256",
          "name": "",
          "type": "uint256"
        }
      ],
      "stateMutability": "view",
      "type": "function"
    },
    {
      "inputs": [
        {
          "internalType": "address",
          "name": "spender",
          "type": "address"
        },
        {
          "internalType": "uint256",
          "name": "addedValue",
          "type": "uint256"
        }
      ],
      "name": "increaseAllowance",
      "outputs": [
        {
          "internalType": "bool",
          "name": "",
          "type": "bool"
        }
      ],
      "stateMutability": "nonpayable",
      "type": "function"
    },
    {
      "inputs": [
        {
          "internalType": "address",
          "name": "to",
          "type": "address"
        },
        {
          "internalType": "uint256",
          "name": "amount",
          "type": "uint256"
        }
      ],
      "name": "mint",
      "outputs": [],
      "stateMutability": "nonpayable",
      "type": "function"
    },
    {
      "inputs": [],
      "name": "name",
      "outputs": [
        {
          "internalType": "string",
          "name": "",
          "type": "string"
        }
      ],
      "stateMutability": "view",
      "type": "function"
    },
    {
      "inputs": [],
      "name": "symbol",
      "outputs": [
        {
          "internalType": "string",
          "name": "",
          "type": "string"
        }
      ],
      "stateMutability": "view",
      "type": "function"
    },
    {
      "inputs": [],
      "name": "totalSupply",
      "outputs": [
        {
          "internalType": "uint256",
          "name": "",
          "type": "uint256"
        }
      ],
      "stateMutability": "view",
      "type": "function"
    },
    {
      "inputs": [
        {
          "internalType": "address",
          "name": "to",
          "type": "address"
        },
        {
          "internalType": "uint256",
          "name": "amount",
          "type": "uint256"
        }
      ],
      "name": "transfer",
      "outputs": [
        {
          "internalType": "bool",
          "name": "",
          "type": "bool"
        }
      ],
      "stateMutability": "nonpayable",
      "type": "function"
    },
    {
      "inputs": [
        {
          "internalType": "address",
          "name": "from",
          "type": "address"
        },
        {
          "internalType": "address",
          "name": "to",
          "type": "address"
        },
        {
          "internalType": "uint256",
          "name": "amount",
          "type": "uint256"
        }
      ],
      "name": "transferFrom",
      "outputs": [
        {
          "internalType": "bool",
          "name": "",
          "type": "bool"
        }
      ],
      "stateMutability": "nonpayable",
      "type": "function"
    }
  ],
  "bytecode": "0x60806040523480156200001157600080fd5b506040518060400160405280600881526020017f45636f546f6b656e0000000000000000000000000000000000000000000000008152506040518060400160405280600381526020017f45544b000000000000000000000000000000000000000000000000000000000081525081600390816200008f919062000523565b508060049081620000a1919062000523565b505050620000e633620000b96200012d60201b60201c565b60ff16600a620000ca91906200078d565b620f4240620000da9190620007de565b6200013260201b60201c565b33600560006101000a81548173ffffffffffffffffffffffffffffffffffffffff021916908373ffffffffffffffffffffffffffffffffffffffff16021790555062000915565b600090565b600073ffffffffffffffffffffffffffffffffffffffff168273ffffffffffffffffffffffffffffffffffffffff1603620001a4576040517f08c379a00000000000000000000000000000000000000000000000000000000081526004016200019b906200088a565b60405180910390fd5b620001b8600083836200029f60201b60201c565b8060026000828254620001cc9190620008ac565b92505081905550806000808473ffffffffffffffffffffffffffffffffffffffff1673ffffffffffffffffffffffffffffffffffffffff168152602001908152602001600020600082825401925050819055508173ffffffffffffffffffffffffffffffffffffffff16600073ffffffffffffffffffffffffffffffffffffffff167fddf252ad1be2c89b69c2b068fc378daa952ba7f163c4a11628f55a4df523b3ef836040516200027f9190620008f8565b60405180910390a36200029b60008383620002a460201b60201c565b5050565b505050565b505050565b600081519050919050565b7f4e487b7100000000000000000000000000000000000000000000000000000000600052604160045260246000fd5b7f4e487b7100000000000000000000000000000000000000000000000000000000600052602260045260246000fd5b600060028204905060018216806200032b57607f821691505b602082108103620003415762000340620002e3565b5b50919050565b60008190508160005260206000209050919050565b60006020601f8301049050919050565b600082821b905092915050565b600060088302620003ab7fffffffffffffffffffffffffffffffffffffffffffffffffffffffffffffffff826200036c565b620003b786836200036c565b95508019841693508086168417925050509392505050565b6000819050919050565b6000819050919050565b600062000404620003fe620003f884620003cf565b620003d9565b620003cf565b9050919050565b6000819050919050565b6200042083620003e3565b620004386200042f826200040b565b84845462000379565b825550505050565b600090565b6200044f62000440565b6200045c81848462000415565b505050565b5b8181101562000484576200047860008262000445565b60018101905062000462565b5050565b601f821115620004d3576200049d8162000347565b620004a8846200035c565b81016020851015620004b8578190505b620004d0620004c7856200035c565b83018262000461565b50505b505050565b600082821c905092915050565b6000620004f860001984600802620004d8565b1980831691505092915050565b6000620005138383620004e5565b9150826002028217905092915050565b6200052e82620002a9565b67ffffffffffffffff8111156200054a5762000549620002b4565b5b62000556825462000312565b6200056382828562000488565b600060209050601f8311600181146200059b576000841562000586578287015190505b62000592858262000505565b86555062000602565b601f198416620005ab8662000347565b60005b82811015620005d557848901518255600182019150602085019450602081019050620005ae565b86831015620005f55784890151620005f1601f891682620004e5565b8355505b6001600288020188555050505b505050505050565b7f4e487b7100000000000000000000000000000000000000000000000000000000600052601160045260246000fd5b60008160011c9050919050565b6000808291508390505b6001851115620006985780860481111562000670576200066f6200060a565b5b6001851615620006805780820291505b8081029050620006908562000639565b945062000650565b94509492505050565b600082620006b3576001905062000786565b81620006c3576000905062000786565b8160018114620006dc5760028114620006e7576200071d565b600191505062000786565b60ff841115620006fc57620006fb6200060a565b5b8360020a9150848211156200071657620007156200060a565b5b5062000786565b5060208310610133831016604e8410600b8410161715620007575782820a9050838111156200075157620007506200060a565b5b62000786565b62000766848484600162000646565b9250905081840481111562000780576200077f6200060a565b5b81810290505b9392505050565b60006200079a82620003cf565b9150620007a783620003cf565b9250620007d67fffffffffffffffffffffffffffffffffffffffffffffffffffffffffffffffff8484620006a1565b905092915050565b6000620007eb82620003cf565b9150620007f883620003cf565b92508282026200080881620003cf565b915082820484148315176200082257620008216200060a565b5b5092915050565b600082825260208201905092915050565b7f45524332303a206d696e7420746f20746865207a65726f206164647265737300600082015250565b600062000872601f8362000829565b91506200087f826200083a565b602082019050919050565b60006020820190508181036000830152620008a58162000863565b9050919050565b6000620008b982620003cf565b9150620008c683620003cf565b9250828201905080821115620008e157620008e06200060a565b5b92915050565b620008f281620003cf565b82525050565b60006020820190506200090f6000830184620008e7565b92915050565b61160480620009256000396000f3fe608060405234801561001057600080fd5b50600436106100ea5760003560e01c806340c10f191161008c578063a457c2d711610066578063a457c2d714610273578063a9059cbb146102a3578063dd62ed3e146102d3578063f851a44014610303576100ea565b806340c10f191461020957806370a082311461022557806395d89b4114610255576100ea565b806323b872dd116100c857806323b872dd1461015b578063313ce5671461018b57806339509351146101a95780633aecd0e3146101d9576100ea565b806306fdde03146100ef578063095ea7b31461010d57806318160ddd1461013d575b600080fd5b6100f7610321565b6040516101049190610ddf565b60405180910390f35b61012760048036038101906101229190610e9a565b6103b3565b6040516101349190610ef5565b60405180910390f35b6101456103d6565b6040516101529190610f1f565b60405180910390f35b61017560048036038101906101709190610f3a565b6103e0565b6040516101829190610ef5565b60405180910390f35b61019361040f565b6040516101a09190610fa9565b60405180910390f35b6101c360048036038101906101be9190610e9a565b610414565b6040516101d09190610ef5565b60405180910390f35b6101f360048036038101906101ee9190610fc4565b61044b565b6040516102009190610f1f565b60405180910390f35b610223600480360381019061021e9190610e9a565b61045d565b005b61023f600480360381019061023a9190610fc4565b6104fb565b60405161024c9190610f1f565b60405180910390f35b61025d610543565b60405161026a9190610ddf565b60405180910390f35b61028d60048036038101906102889190610e9a565b6105d5565b60405161029a9190610ef5565b60405180910390f35b6102bd60048036038101906102b89190610e9a565b61064c565b6040516102ca9190610ef5565b60405180910390f35b6102ed60048036038101906102e89190610ff1565b61066f565b6040516102fa9190610f1f565b60405180910390f35b61030b6106f6565b6040516103189190611040565b60405180910390f35b6060600380546103309061108a565b80601f016020809104026020016040519081016040528092919081815260200182805461035c9061108a565b80156103a95780601f1061037e576101008083540402835291602001916103a9565b820191906000526020600020905b81548152906001019060200180831161038c57829003601f168201915b5050505050905090565b6000806103be61071c565b90506103cb818585610724565b600191505092915050565b6000600254905090565b6000806103eb61071c565b90506103f88582856108ed565b610403858585610979565b60019150509392505050565b600090565b60008061041f61071c565b9050610440818585610431858961066f565b61043b91906110ea565b610724565b600191505092915050565b6000610456826104fb565b9050919050565b600560009054906101000a900473ffffffffffffffffffffffffffffffffffffffff1673ffffffffffffffffffffffffffffffffffffffff163373ffffffffffffffffffffffffffffffffffffffff16146104ed576040517f08c379a00000000000000000000000000000000000000000000000000000000081526004016104e49061116a565b60405180910390fd5b6104f78282610bef565b5050565b60008060008373ffffffffffffffffffffffffffffffffffffffff1673ffffffffffffffffffffffffffffffffffffffff168152602001908152602001600020549050919050565b6060600480546105529061108a565b80601f016020809104026020016040519081016040528092919081815260200182805461057e9061108a565b80156105cb5780601f106105a0576101008083540402835291602001916105cb565b820191906000526020600020905b8154815290600101906020018083116105ae57829003601f168201915b5050505050905090565b6000806105e061071c565b905060006105ee828661066f565b905083811015610633576040517f08c379a000000000000000000000000000000000000000000000000000000000815260040161062a906111fc565b60405180910390fd5b6106408286868403610724565b60019250505092915050565b60008061065761071c565b9050610664818585610979565b600191505092915050565b6000600160008473ffffffffffffffffffffffffffffffffffffffff1673ffffffffffffffffffffffffffffffffffffffff16815260200190815260200160002060008373ffffffffffffffffffffffffffffffffffffffff1673ffffffffffffffffffffffffffffffffffffffff16815260200190815260200160002054905092915050565b600560009054906101000a900473ffffffffffffffffffffffffffffffffffffffff1681565b600033905090565b600073ffffffffffffffffffffffffffffffffffffffff168373ffffffffffffffffffffffffffffffffffffffff1603610793576040517f08c379a000000000000000000000000000000000000000000000000000000000815260040161078a9061128e565b60405180910390fd5b600073ffffffffffffffffffffffffffffffffffffffff168273ffffffffffffffffffffffffffffffffffffffff1603610802576040517f08c379a00000000000000000000000000000000000000000000000000000000081526004016107f990611320565b60405180910390fd5b80600160008573ffffffffffffffffffffffffffffffffffffffff1673ffffffffffffffffffffffffffffffffffffffff16815260200190815260200160002060008473ffffffffffffffffffffffffffffffffffffffff1673ffffffffffffffffffffffffffffffffffffffff168152602001908152602001600020819055508173ffffffffffffffffffffffffffffffffffffffff168373ffffffffffffffffffffffffffffffffffffffff167f8c5be1e5ebec7d5bd14f71427d1e84f3dd0314c0f7b2291e5b200ac8c7c3b925836040516108e09190610f1f565b60405180910390a3505050565b60006108f9848461066f565b90507fffffffffffffffffffffffffffffffffffffffffffffffffffffffffffffffff81146109735781811015610965576040517f08c379a000000000000000000000000000000000000000000000000000000000815260040161095c9061138c565b60405180910390fd5b6109728484848403610724565b5b50505050565b600073ffffffffffffffffffffffffffffffffffffffff168373ffffffffffffffffffffffffffffffffffffffff16036109e8576040517f08c379a00000000000000000000000000000000000000000000000000000000081526004016109df9061141e565b60405180910390fd5b600073ffffffffffffffffffffffffffffffffffffffff168273ffffffffffffffffffffffffffffffffffffffff1603610a57576040517f08c379a0000000000000000000000000000000000000000000000000000000008152600401610a4e906114b0565b60405180910390fd5b610a62838383610d45565b60008060008573ffffffffffffffffffffffffffffffffffffffff1673ffffffffffffffffffffffffffffffffffffffff16815260200190815260200160002054905081811015610ae8576040517f08c379a0000000000000000000000000000000000000000000000000000000008152600401610adf90611542565b60405180910390fd5b8181036000808673ffffffffffffffffffffffffffffffffffffffff1673ffffffffffffffffffffffffffffffffffffffff16815260200190815260200160002081905550816000808573ffffffffffffffffffffffffffffffffffffffff1673ffffffffffffffffffffffffffffffffffffffff168152602001908152602001600020600082825401925050819055508273ffffffffffffffffffffffffffffffffffffffff168473ffffffffffffffffffffffffffffffffffffffff167fddf252ad1be2c89b69c2b068fc378daa952ba7f163c4a11628f55a4df523b3ef84604051610bd69190610f1f565b60405180910390a3610be9848484610d4a565b50505050565b600073ffffffffffffffffffffffffffffffffffffffff168273ffffffffffffffffffffffffffffffffffffffff1603610c5e576040517f08c379a0000000000000000000000000000000000000000000000000000000008152600401610c55906115ae565b60405180910390fd5b610c6a60008383610d45565b8060026000828254610c7c91906110ea565b92505081905550806000808473ffffffffffffffffffffffffffffffffffffffff1673ffffffffffffffffffffffffffffffffffffffff168152602001908152602001600020600082825401925050819055508173ffffffffffffffffffffffffffffffffffffffff16600073ffffffffffffffffffffffffffffffffffffffff167fddf252ad1be2c89b69c2b068fc378daa952ba7f163c4a11628f55a4df523b3ef83604051610d2d9190610f1f565b60405180910390a3610d4160008383610d4a565b5050565b505050565b505050565b600081519050919050565b600082825260208201905092915050565b60005b83811015610d89578082015181840152602081019050610d6e565b60008484015250505050565b6000601f19601f8301169050919050565b6000610db182610d4f565b610dbb8185610d5a565b9350610dcb818560208601610d6b565b610dd481610d95565b840191505092915050565b60006020820190508181036000830152610df98184610da6565b905092915050565b600080fd5b600073ffffffffffffffffffffffffffffffffffffffff82169050919050565b6000610e3182610e06565b9050919050565b610e4181610e26565b8114610e4c57600080fd5b50565b600081359050610e5e81610e38565b92915050565b6000819050919050565b610e7781610e64565b8114610e8257600080fd5b50565b600081359050610e9481610e6e565b92915050565b60008060408385031215610eb157610eb0610e01565b5b6000610ebf85828601610e4f565b9250506020610ed085828601610e85565b9150509250929050565b60008115159050919050565b610eef81610eda565b82525050565b6000602082019050610f0a6000830184610ee6565b92915050565b610f1981610e64565b82525050565b6000602082019050610f346000830184610f10565b92915050565b600080600060608486031215610f5357610f52610e01565b5b6000610f6186828701610e4f565b9350506020610f7286828701610e4f565b9250506040610f8386828701610e85565b9150509250925092565b600060ff82169050919050565b610fa381610f8d565b82525050565b6000602082019050610fbe6000830184610f9a565b92915050565b600060208284031215610fda57610fd9610e01565b5b6000610fe884828501610e4f565b91505092915050565b6000806040838503121561100857611007610e01565b5b600061101685828601610e4f565b925050602061102785828601610e4f565b9150509250929050565b61103a81610e26565b82525050565b60006020820190506110556000830184611031565b92915050565b7f4e487b7100000000000000000000000000000000000000000000000000000000600052602260045260246000fd5b600060028204905060018216806110a257607f821691505b6020821081036110b5576110b461105b565b5b50919050565b7f4e487b7100000000000000000000000000000000000000000000000000000000600052601160045260246000fd5b60006110f582610e64565b915061110083610e64565b9250828201905080821115611118576111176110bb565b5b92915050565b7f4f6e6c792061646d696e2063616e206d696e7420746f6b656e73000000000000600082015250565b6000611154601a83610d5a565b915061115f8261111e565b602082019050919050565b6000602082019050818103600083015261118381611147565b9050919050565b7f45524332303a2064656372656173656420616c6c6f77616e63652062656c6f7760008201527f207a65726f000000000000000000000000000000000000000000000000000000602082015250565b60006111e6602583610d5a565b91506111f18261118a565b604082019050919050565b60006020820190508181036000830152611215816111d9565b9050919050565b7f45524332303a20617070726f76652066726f6d20746865207a65726f2061646460008201527f7265737300000000000000000000000000000000000000000000000000000000602082015250565b6000611278602483610d5a565b91506112838261121c565b604082019050919050565b600060208201905081810360008301526112a78161126b565b9050919050565b7f45524332303a20617070726f766520746f20746865207a65726f20616464726560008201527f7373000000000000000000000000000000000000000000000000000000000000602082015250565b600061130a602283610d5a565b9150611315826112ae565b604082019050919050565b60006020820190508181036000830152611339816112fd565b9050919050565b7f45524332303a20696e73756666696369656e7420616c6c6f77616e6365000000600082015250565b6000611376601d83610d5a565b915061138182611340565b602082019050919050565b600060208201905081810360008301526113a581611369565b9050919050565b7f45524332303a207472616e736665722066726f6d20746865207a65726f20616460008201527f6472657373000000000000000000000000000000000000000000000000000000602082015250565b6000611408602583610d5a565b9150611413826113ac565b604082019050919050565b60006020820190508181036000830152611437816113fb565b9050919050565b7f45524332303a207472616e7366657220746f20746865207a65726f206164647260008201527f6573730000000000000000000000000000000000000000000000000000000000602082015250565b600061149a602383610d5a565b91506114a58261143e565b604082019050919050565b600060208201905081810360008301526114c98161148d565b9050919050565b7f45524332303a207472616e7366657220616d6f756e742065786365656473206260008201527f616c616e63650000000000000000000000000000000000000000000000000000602082015250565b600061152c602683610d5a565b9150611537826114d0565b604082019050919050565b6000602082019050818103600083015261155b8161151f565b9050919050565b7f45524332303a206d696e7420746f20746865207a65726f206164647265737300600082015250565b6000611598601f83610d5a565b91506115a382611562565b602082019050919050565b600060208201905081810360008301526115c78161158b565b905091905056fea26469706673582212200549a6fdce046a14ab8e68ebbfae54a72c3f0063b6b37ff2c3cd0e9b7e32be1a64736f6c63430008120033",
  "linkReferences": {},
  "deployedLinkReferences": {}
}